{"contracts/SytemapAssetRegistry.sol":{"SytemapAssetRegistry":{"abi":[{"anonymous":false,"inputs":[{"indexed":false,"internalType":"address","name":"previousAdmin","type":"address"},{"indexed":false,"internalType":"address","name":"newAdmin","type":"address"}],"name":"AdminChanged","type":"event"},{"anonymous":false,"inputs":[{"indexed":true,"internalType":"address","name":"owner","type":"address"},{"indexed":true,"internalType":"address","name":"approved","type":"address"},{"indexed":true,"internalType":"uint256","name":"tokenId","type":"uint256"}],"name":"Approval","type":"event"},{"anonymous":false,"inputs":[{"indexed":true,"internalType":"address","name":"owner","type":"address"},{"indexed":true,"internalType":"address","name":"operator","type":"address"},{"indexed":false,"internalType":"bool","name":"approved","type":"bool"}],"name":"ApprovalForAll","type":"event"},{"anonymous":false,"inputs":[{"indexed":true,"internalType":"string","name":"oldValue","type":"string"},{"indexed":true,"internalType":"string","name":"newValue","type":"string"}],"name":"BaseURIUpdated","type":"event"},{"anonymous":false,"inputs":[{"indexed":true,"internalType":"address","name":"beacon","type":"address"}],"name":"BeaconUpgraded","type":"event"},{"anonymous":false,"inputs":[{"indexed":false,"internalType":"uint8","name":"version","type":"uint8"}],"name":"Initialized","type":"event"},{"anonymous":false,"inputs":[{"indexed":false,"internalType":"string","name":"plotNo","type":"string"},{"indexed":false,"internalType":"uint256","name":"propertyVerificationNo","type":"uint256"},{"indexed":false,"internalType":"uint256","name":"tokenId","type":"uint256"},{"indexed":false,"internalType":"uint256","name":"timestamp","type":"uint256"},{"indexed":false,"internalType":"uint256","name":"priceOfPlot","type":"uint256"},{"indexed":false,"internalType":"address","name":"buyerWalletId","type":"address"},{"indexed":true,"internalType":"string","name":"tokenURL","type":"string"},{"indexed":false,"internalType":"string","name":"estateName","type":"string"},{"indexed":false,"internalType":"string","name":"sizeOfPlot","type":"string"},{"indexed":false,"internalType":"string","name":"plotUrl","type":"string"},{"indexed":false,"internalType":"string","name":"dateOfAllocation","type":"string"},{"indexed":false,"internalType":"string","name":"coordinateOfPlot","type":"string"},{"indexed":false,"internalType":"string","name":"estateCompanyName","type":"string"}],"name":"NewPropertyInfoAdded","type":"event"},{"anonymous":false,"inputs":[{"indexed":true,"internalType":"address","name":"previousOwner","type":"address"},{"indexed":true,"internalType":"address","name":"newOwner","type":"address"}],"name":"OwnershipTransferred","type":"event"},{"anonymous":false,"inputs":[{"indexed":false,"internalType":"address","name":"account","type":"address"}],"name":"Paused","type":"event"},{"anonymous":false,"inputs":[{"indexed":false,"internalType":"address","name":"owner","type":"address"},{"indexed":false,"internalType":"uint256","name":"propertyVerificationNo","type":"uint256"},{"indexed":false,"internalType":"uint256","name":"newPrice","type":"uint256"}],"name":"PropertyInfoPriceChanged","type":"event"},{"anonymous":false,"inputs":[{"indexed":true,"internalType":"address","name":"from","type":"address"},{"indexed":true,"internalType":"address","name":"to","type":"address"},{"indexed":true,"internalType":"uint256","name":"tokenId","type":"uint256"}],"name":"Transfer","type":"event"},{"anonymous":false,"inputs":[{"indexed":false,"internalType":"address","name":"account","type":"address"}],"name":"Unpaused","type":"event"},{"anonymous":false,"inputs":[{"indexed":true,"internalType":"address","name":"implementation","type":"address"}],"name":"Upgraded","type":"event"},{"inputs":[],"name":"SYTEMAP_SYMBOL","outputs":[{"internalType":"string","name":"","type":"string"}],"stateMutability":"view","type":"function"},{"inputs":[{"internalType":"address","name":"to","type":"address"},{"internalType":"uint256","name":"tokenId","type":"uint256"}],"name":"approve","outputs":[],"stateMutability":"nonpayable","type":"function"},{"inputs":[{"internalType":"address","name":"_owner","type":"address"}],"name":"balanceOf","outputs":[{"internalType":"uint256","name":"","type":"uint256"}],"stateMutability":"view","type":"function"},{"inputs":[{"internalType":"uint256","name":"tokenId","type":"uint256"}],"name":"burn","outputs":[],"stateMutability":"nonpayable","type":"function"},{"inputs":[{"internalType":"uint256","name":"_propertyVerificationNo","type":"uint256"},{"internalType":"uint256","name":"_priceOfPlot","type":"uint256"}],"name":"changePropertyPriceByOwner","outputs":[{"internalType":"bool","name":"","type":"bool"}],"stateMutability":"nonpayable","type":"function"},{"inputs":[],"name":"getAllMintedPropertyDetails","outputs":[{"components":[{"internalType":"uint256","name":"priceOfPlot","type":"uint256"},{"internalType":"uint256","name":"propertyVerificationNo","type":"uint256"},{"internalType":"uint256","name":"timestamp","type":"uint256"},{"internalType":"address","name":"buyerWalletId","type":"address"},{"internalType":"string","name":"plotNo","type":"string"},{"internalType":"string","name":"sizeOfPlot","type":"string"},{"internalType":"string","name":"coordinateOfPlot","type":"string"},{"internalType":"string","name":"tokenURL","type":"string"},{"internalType":"string","name":"estateName","type":"string"},{"internalType":"string","name":"plotUrl","type":"string"},{"internalType":"string","name":"dateOfAllocation","type":"string"},{"internalType":"string","name":"estateCompanyName","type":"string"}],"internalType":"struct ISytemapAssetRegistry.PropertyInffo[]","name":"","type":"tuple[]"}],"stateMutability":"view","type":"function"},{"inputs":[{"internalType":"address","name":"_owner","type":"address"}],"name":"getAllPropertyDetailsByOwner","outputs":[{"components":[{"internalType":"uint256","name":"priceOfPlot","type":"uint256"},{"internalType":"uint256","name":"propertyVerificationNo","type":"uint256"},{"internalType":"uint256","name":"timestamp","type":"uint256"},{"internalType":"address","name":"buyerWalletId","type":"address"},{"internalType":"string","name":"plotNo","type":"string"},{"internalType":"string","name":"sizeOfPlot","type":"string"},{"internalType":"string","name":"coordinateOfPlot","type":"string"},{"internalType":"string","name":"tokenURL","type":"string"},{"internalType":"string","name":"estateName","type":"string"},{"internalType":"string","name":"plotUrl","type":"string"},{"internalType":"string","name":"dateOfAllocation","type":"string"},{"internalType":"string","name":"estateCompanyName","type":"string"}],"internalType":"struct ISytemapAssetRegistry.PropertyInffo[]","name":"","type":"tuple[]"}],"stateMutability":"view","type":"function"},{"inputs":[{"internalType":"uint256","name":"tokenId","type":"uint256"}],"name":"getApproved","outputs":[{"internalType":"address","name":"","type":"address"}],"stateMutability":"view","type":"function"},{"inputs":[],"name":"getNumberOfPropertyTokensMinted","outputs":[{"internalType":"uint256","name":"","type":"uint256"}],"stateMutability":"view","type":"function"},{"inputs":[{"internalType":"uint256","name":"_propertyVerificationNo","type":"uint256"}],"name":"getPropertyInfoDetailsByPVN","outputs":[{"components":[{"internalType":"uint256","name":"priceOfPlot","type":"uint256"},{"internalType":"uint256","name":"propertyVerificationNo","type":"uint256"},{"internalType":"uint256","name":"timestamp","type":"uint256"},{"internalType":"address","name":"buyerWalletId","type":"address"},{"internalType":"string","name":"plotNo","type":"string"},{"internalType":"string","name":"sizeOfPlot","type":"string"},{"internalType":"string","name":"coordinateOfPlot","type":"string"},{"internalType":"string","name":"tokenURL","type":"string"},{"internalType":"string","name":"estateName","type":"string"},{"internalType":"string","name":"plotUrl","type":"string"},{"internalType":"string","name":"dateOfAllocation","type":"string"},{"internalType":"string","name":"estateCompanyName","type":"string"}],"internalType":"struct ISytemapAssetRegistry.PropertyInffo","name":"","type":"tuple"}],"stateMutability":"view","type":"function"},{"inputs":[{"internalType":"uint256","name":"_propertyVerificationNo","type":"uint256"}],"name":"getPropertyVerificationNoOwner","outputs":[{"internalType":"address","name":"","type":"address"}],"stateMutability":"view","type":"function"},{"inputs":[{"internalType":"address","name":"_owner","type":"address"}],"name":"getTotalNumberOfPropertyOwnedByAnAddress","outputs":[{"internalType":"uint256","name":"","type":"uint256"}],"stateMutability":"view","type":"function"},{"inputs":[{"internalType":"string","name":"_baseTokenURI","type":"string"}],"name":"initialize","outputs":[],"stateMutability":"nonpayable","type":"function"},{"inputs":[{"internalType":"address","name":"owner","type":"address"},{"internalType":"address","name":"operator","type":"address"}],"name":"isApprovedForAll","outputs":[{"internalType":"bool","name":"","type":"bool"}],"stateMutability":"view","type":"function"},{"inputs":[],"name":"name","outputs":[{"internalType":"string","name":"","type":"string"}],"stateMutability":"view","type":"function"},{"inputs":[],"name":"owner","outputs":[{"internalType":"address","name":"","type":"address"}],"stateMutability":"view","type":"function"},{"inputs":[{"internalType":"uint256","name":"_tokenId","type":"uint256"}],"name":"ownerOf","outputs":[{"internalType":"address","name":"","type":"address"}],"stateMutability":"view","type":"function"},{"inputs":[],"name":"pause","outputs":[],"stateMutability":"nonpayable","type":"function"},{"inputs":[],"name":"paused","outputs":[{"internalType":"bool","name":"","type":"bool"}],"stateMutability":"view","type":"function"},{"inputs":[],"name":"proxiableUUID","outputs":[{"internalType":"bytes32","name":"","type":"bytes32"}],"stateMutability":"view","type":"function"},{"inputs":[],"name":"renounceOwnership","outputs":[],"stateMutability":"nonpayable","type":"function"},{"inputs":[{"internalType":"string","name":"_plotNo","type":"string"},{"internalType":"string","name":"_tokenURL","type":"string"},{"internalType":"string","name":"_estateName","type":"string"},{"internalType":"uint256","name":"_priceOfPlot","type":"uint256"},{"internalType":"string","name":"_sizeOfPlot","type":"string"},{"internalType":"string","name":"_plotUrl","type":"string"},{"internalType":"string","name":"_dateOfAllocation","type":"string"},{"internalType":"string","name":"_coordinateOfPlot","type":"string"},{"internalType":"address","name":"_buyerWalletId","type":"address"},{"internalType":"string","name":"_estateCompanyName","type":"string"},{"internalType":"uint256","name":"_propertyVerificationNo","type":"uint256"}],"name":"safeMintNewPropertyInfo","outputs":[],"stateMutability":"nonpayable","type":"function"},{"inputs":[{"internalType":"address","name":"from","type":"address"},{"internalType":"address","name":"to","type":"address"},{"internalType":"uint256","name":"tokenId","type":"uint256"}],"name":"safeTransferFrom","outputs":[],"stateMutability":"nonpayable","type":"function"},{"inputs":[{"internalType":"address","name":"from","type":"address"},{"internalType":"address","name":"to","type":"address"},{"internalType":"uint256","name":"tokenId","type":"uint256"},{"internalType":"bytes","name":"data","type":"bytes"}],"name":"safeTransferFrom","outputs":[],"stateMutability":"nonpayable","type":"function"},{"inputs":[{"internalType":"address","name":"operator","type":"address"},{"internalType":"bool","name":"approved","type":"bool"}],"name":"setApprovalForAll","outputs":[],"stateMutability":"nonpayable","type":"function"},{"inputs":[{"internalType":"string","name":"_newBaseURI","type":"string"}],"name":"setBaseURI","outputs":[],"stateMutability":"nonpayable","type":"function"},{"inputs":[{"internalType":"bytes4","name":"interfaceId","type":"bytes4"}],"name":"supportsInterface","outputs":[{"internalType":"bool","name":"","type":"bool"}],"stateMutability":"view","type":"function"},{"inputs":[],"name":"symbol","outputs":[{"internalType":"string","name":"","type":"string"}],"stateMutability":"view","type":"function"},{"inputs":[{"internalType":"uint256","name":"index","type":"uint256"}],"name":"tokenByIndex","outputs":[{"internalType":"uint256","name":"","type":"uint256"}],"stateMutability":"view","type":"function"},{"inputs":[{"internalType":"address","name":"_owner","type":"address"},{"internalType":"uint256","name":"index","type":"uint256"}],"name":"tokenOfOwnerByIndex","outputs":[{"internalType":"uint256","name":"","type":"uint256"}],"stateMutability":"view","type":"function"},{"inputs":[{"internalType":"uint256","name":"_propertyVerificationNo","type":"uint256"}],"name":"tokenURI","outputs":[{"internalType":"string","name":"","type":"string"}],"stateMutability":"view","type":"function"},{"inputs":[],"name":"totalSupply","outputs":[{"internalType":"uint256","name":"","type":"uint256"}],"stateMutability":"view","type":"function"},{"inputs":[{"internalType":"address","name":"from","type":"address"},{"internalType":"address","name":"to","type":"address"},{"internalType":"uint256","name":"tokenId","type":"uint256"}],"name":"transferFrom","outputs":[],"stateMutability":"nonpayable","type":"function"},{"inputs":[{"internalType":"address","name":"newOwner","type":"address"}],"name":"transferOwnership","outputs":[],"stateMutability":"nonpayable","type":"function"},{"inputs":[],"name":"unpause","outputs":[],"stateMutability":"nonpayable","type":"function"},{"inputs":[{"internalType":"address","name":"newImplementation","type":"address"}],"name":"upgradeTo","outputs":[],"stateMutability":"nonpayable","type":"function"},{"inputs":[{"internalType":"address","name":"newImplementation","type":"address"},{"internalType":"bytes","name":"data","type":"bytes"}],"name":"upgradeToAndCall","outputs":[],"stateMutability":"payable","type":"function"}],"evm":{"bytecode":{"linkReferences":{},"object":"60a080604052346100315730608052614620908161003782396080518181816125620152818161267c0152612aa20152f35b600080fdfe608080604052600436101561001357600080fd5b60003560e01c90816301ffc9a7146130155750806306fdde0314612f6f578063081812fc14612f51578063095ea7b314612dd257806318160ddd14611c3f57806323b872dd14612dae578063245f0ca414612c765780632f745c5914612c4f5780633659cfe614612a7d5780633f35198e14612a615780633f4ba83a146129c457806342842e0e1461299157806342966c68146129715780634f1ef2861461263b5780634f6ccce71461261d57806352d1902d1461254757806355f804b3146123005780635939f777146122385780635c975abb146122155780636352211e146121f757806370a08231146121d4578063715018a6146121745780638456cb59146120d45780638da5cb5b146120ad57806390cbe75914611f9e57806393d3e75514611e6e57806395d89b4114611da0578063a22cb46514611cce578063b88d4fde14611c5e578063c571929814611c3f578063c62e558114611c0d578063c87b56dd14611b45578063dfd6493014610a43578063e4a9614a14610a05578063e985e9c5146109ae578063f2fde38b1461090a5763f62d1888146101b657600080fd5b346109055760203660031901126109055760043567ffffffffffffffff8111610905576101e79036906004016132dc565b60005460ff8160081c1615908180926108f8575b80156108e1575b156108765760ff19811660011760005581610864575b506040519161022683613262565b600c83527f537974656d617020436f696e000000000000000000000000000000000000000060208401526102586132bc565b9161027360ff60005460081c1661026e81613d2f565b613d2f565b835167ffffffffffffffff81116105815761028f6065546135e9565b601f81116107c1575b50602094601f821160011461073d57948192939495600092610732575b50508160011b916000199060031b1c1916176065555b825167ffffffffffffffff8111610581576102e76066546135e9565b601f811161068f575b506020601f821160011461060b5781929394600092610600575b50508160011b916000199060031b1c1916176066555b61035a60ff60005460081c1661033581613d2f565b61033e81613d2f565b61034781613d2f565b60ff1960c9541660c95561026e81613d2f565b610363336133dd565b61039360ff60005460081c1661037881613d2f565b61038181613d2f565b61038a81613d2f565b61026e81613d2f565b60016101c3556103a1613385565b60405160006101f591808354926103b7846135e9565b6001851680156105ea57600114610597575b500390206103d685613da1565b907f309b29ded109b9e28fb9885757b3e0096eb75c51d23aa4635d68bcd569f6adc16000604051a383519067ffffffffffffffff821161058157610419906135e9565b601f811161051d575b506020601f821160011461049b5781929394600092610490575b50508160011b916000199060031b1c19161790555b610458575b005b61ff0019600054166000557f7f26b83ff96e1f2b6a682f133852f6798a09c465da95921460cefb3847402498602060405160018152a1005b01519050388061043c565b601f19821690836000527f734ccdfecf0c98f1f610e13e821eeaab95dc92184ba090032ab8cf544a28f1679160005b818110610505575095836001959697106104ec575b505050811b019055610451565b015160001960f88460031b161c191690553880806104df565b9192602060018192868b0151815501940192016104ca565b826000527f734ccdfecf0c98f1f610e13e821eeaab95dc92184ba090032ab8cf544a28f167601f830160051c81019160208410610577575b601f0160051c01905b81811061056b5750610422565b6000815560010161055e565b9091508190610555565b634e487b7160e01b600052604160045260246000fd5b9050846000527f734ccdfecf0c98f1f610e13e821eeaab95dc92184ba090032ab8cf544a28f1676000905b8282106105d35750508101386103c9565b8054828601528493506020909101906001016105c2565b5060ff19851683528015150282019050386103c9565b01519050388061030a565b601f1982169060666000527f46501879b8ca8525e8c2fd519e2fbfcfa2ebea26501294aa02cbfcfb12e943549160005b8181106106775750958360019596971061065e575b505050811b01606655610320565b015160001960f88460031b161c19169055388080610650565b9192602060018192868b01518155019401920161063b565b6066600052601f820160051c7f46501879b8ca8525e8c2fd519e2fbfcfa2ebea26501294aa02cbfcfb12e9435401906020831061070a575b601f0160051c7f46501879b8ca8525e8c2fd519e2fbfcfa2ebea26501294aa02cbfcfb12e9435401905b8181106106fe57506102f0565b600081556001016106f1565b7f46501879b8ca8525e8c2fd519e2fbfcfa2ebea26501294aa02cbfcfb12e9435491506106c7565b0151905038806102b5565b601f1982169560656000527f8ff97419363ffd7000167f130ef7168fbea05faf9251824ca5043f113cc6a7c79160005b8881106107a957508360019596979810610790575b505050811b016065556102cb565b015160001960f88460031b161c19169055388080610782565b9192602060018192868501518155019401920161076d565b6065600052601f820160051c7f8ff97419363ffd7000167f130ef7168fbea05faf9251824ca5043f113cc6a7c701906020831061083c575b601f0160051c7f8ff97419363ffd7000167f130ef7168fbea05faf9251824ca5043f113cc6a7c701905b8181106108305750610298565b60008155600101610823565b7f8ff97419363ffd7000167f130ef7168fbea05faf9251824ca5043f113cc6a7c791506107f9565b61ffff19166101011760005538610218565b60405162461bcd60e51b815260206004820152602e60248201527f496e697469616c697a61626c653a20636f6e747261637420697320616c72656160448201527f647920696e697469616c697a65640000000000000000000000000000000000006064820152608490fd5b50303b1580156102025750600160ff821614610202565b50600160ff8216106101fb565b600080fd5b34610905576020366003190112610905576109236130c8565b61092b613385565b6001600160a01b0381161561094357610456906133dd565b60405162461bcd60e51b815260206004820152602660248201527f4f776e61626c653a206e6577206f776e657220697320746865207a65726f206160448201527f64647265737300000000000000000000000000000000000000000000000000006064820152608490fd5b34610905576040366003190112610905576109c76130c8565b6109cf6130de565b906001600160a01b03809116600052606a60205260406000209116600052602052602060ff604060002054166040519015158152f35b34610905576020366003190112610905576004356000526101fc6020526020610a32604060002054613dc1565b6001600160a01b0360405191168152f35b34610905576101603660031901126109055760043567ffffffffffffffff811161090557610a759036906004016132dc565b60243567ffffffffffffffff811161090557610a959036906004016132dc565b60443567ffffffffffffffff811161090557610ab59036906004016132dc565b9160843567ffffffffffffffff811161090557610ad69036906004016132dc565b60a43567ffffffffffffffff811161090557610af69036906004016132dc565b60c43567ffffffffffffffff811161090557610b169036906004016132dc565b60e43567ffffffffffffffff811161090557610b369036906004016132dc565b916001600160a01b0361010435166101043503610905576101243567ffffffffffffffff811161090557610b6e9036906004016132dc565b93610b77613385565b60026101c35414611b005760026101c355610144356000526101fc602052610bb26040600020546000526101fa602052604060002054151590565b611abc57610bcd6001600160a01b03610104351615156140f9565b610be5306001600160a01b03610104351614156140f9565b60016101f6540196876101f655610d0a610d05604051610c048161322a565b60008152610c1f6001600160a01b0361010435161515614145565b610c4b610c456101443560005260676020526001600160a01b0360406000205416151590565b15614190565b610c71610c456101443560005260676020526001600160a01b0360406000205416151590565b6001600160a01b036101043516600052606860205260406000206001815401905561014435600052606760205260406000206001600160a01b0361010435166001600160a01b0319825416179055610144356001600160a01b03610104351660007fddf252ad1be2c89b69c2b068fc378daa952ba7f163c4a11628f55a4df523b3ef81604051a46101443561010435613b11565b6138aa565b610d2d6101443560005260676020526001600160a01b0360406000205416151590565b15611a51576101443560005260976020526040600020815167ffffffffffffffff811161058157610d5e82546135e9565b601f8111611a0d575b50806020601f82116001146119a65760009161199b575b508160011b916000199060031b1c19161790555b876000526101fb6020526001600160a01b036101043516604060002055610db8886144fb565b506001600160a01b0361010435166000526101f8602052610ddd8860406000206145a1565b50610144356000526101fc602052876040600020556064351561195657610e116001600160a01b0361010435161515614145565b80511561191157604051610e248161320d565b60643581526101443560208201524260408201526001600160a01b03610104351660608201528760808201528260a08201528560c08201528160e082015289610100820152836101208201528461014082015286610160820152886000526101f7602052604060002090805182556020810151600183015560408101516002830155600382016001600160a01b036060830151166001600160a01b0319825416179055608081015180519067ffffffffffffffff8211610581578190610eed60048601546135e9565b601f81116118be575b50602090601f831160011461184c57600092611841575b50508160011b916000199060031b1c19161760048301555b60a081015180519067ffffffffffffffff8211610581578190610f4b60058601546135e9565b601f81116117ee575b50602090601f831160011461177c57600092611771575b50508160011b916000199060031b1c19161760058301555b60c081015180519067ffffffffffffffff8211610581578190610fa960068601546135e9565b601f811161171e575b50602090601f83116001146116ac576000926116a1575b50508160011b916000199060031b1c19161760068301555b60e081015180519067ffffffffffffffff821161058157819061100760078601546135e9565b601f811161164e575b50602090601f83116001146115dc576000926115d1575b50508160011b916000199060031b1c19161760078301555b61010081015180519067ffffffffffffffff821161058157819061106660088601546135e9565b601f811161157e575b50602090601f831160011461150c57600092611501575b50508160011b916000199060031b1c19161760088301555b61012081015180519067ffffffffffffffff82116105815781906110c560098601546135e9565b601f81116114ae575b50602090601f831160011461143c57600092611431575b50508160011b916000199060031b1c19161760098301555b61014081015180519067ffffffffffffffff821161058157611122600a8501546135e9565b601f81116113ea575b50602090601f8311600114611376576101609392916000918361136b575b50508160011b916000199060031b1c191617600a8401555b015180519067ffffffffffffffff821161058157611182600b8401546135e9565b601f8111611324575b50602090601f83116001146112af579180600b926111c79695946000926112a4575b50508160011b916000199060031b1c191617910155613da1565b97604051978897610180808a5289016111df916130a3565b906101443560208a015260408901524260608901526064356080890152610104356001600160a01b031660a089015287810360c089015261121f916130a3565b86810360e0880152611230916130a3565b858103610100870152611242916130a3565b848103610120860152611254916130a3565b838103610140850152611266916130a3565b828103610160840152611278916130a3565b037fe03dcb5fd6b12f1739f057896db270c0503a7c04675836911f911094612022eb91a260016101c355005b015190508e806111ad565b90600b840160005260206000209160005b601f198516811061130c575092600b926001926111c797969583601f198116106112f3575b505050811b01910155613da1565b015160001960f88460031b161c191690558e80806112e5565b919260206001819286850151815501940192016112c0565b600b84016000526020600020601f840160051c810160208510611364575b601f830160051c8201811061135857505061118b565b60008155600101611342565b5080611342565b015190508e80611149565b90600a850160005260206000209160005b601f19851681106113d257509183916001936101609695601f198116106113b9575b505050811b01600a840155611161565b015160001960f88460031b161c191690558e80806113a9565b91926020600181928685015181550194019201611387565b600a85016000526020600020601f840160051c81016020851061142a575b601f830160051c8201811061141e57505061112b565b60008155600101611408565b5080611408565b015190508d806110e5565b9250600985016000526020600020906000935b601f1984168510611493576001945083601f1981161061147a575b505050811b0160098301556110fd565b015160001960f88460031b161c191690558d808061146a565b8181015183556020948501946001909301929091019061144f565b909150600985016000526020600020601f840160051c8101602085106114fa575b90849392915b601f830160051c820181106114eb5750506110ce565b600081558594506001016114d5565b50806114cf565b015190508d80611086565b9250600885016000526020600020906000935b601f1984168510611563576001945083601f1981161061154a575b505050811b01600883015561109e565b015160001960f88460031b161c191690558d808061153a565b8181015183556020948501946001909301929091019061151f565b909150600885016000526020600020601f840160051c8101602085106115ca575b90849392915b601f830160051c820181106115bb57505061106f565b600081558594506001016115a5565b508061159f565b015190508d80611027565b9250600785016000526020600020906000935b601f1984168510611633576001945083601f1981161061161a575b505050811b01600783015561103f565b015160001960f88460031b161c191690558d808061160a565b818101518355602094850194600190930192909101906115ef565b909150600785016000526020600020601f840160051c81016020851061169a575b90849392915b601f830160051c8201811061168b575050611010565b60008155859450600101611675565b508061166f565b015190508d80610fc9565b9250600685016000526020600020906000935b601f1984168510611703576001945083601f198116106116ea575b505050811b016006830155610fe1565b015160001960f88460031b161c191690558d80806116da565b818101518355602094850194600190930192909101906116bf565b909150600685016000526020600020601f840160051c81016020851061176a575b90849392915b601f830160051c8201811061175b575050610fb2565b60008155859450600101611745565b508061173f565b015190508d80610f6b565b9250600585016000526020600020906000935b601f19841685106117d3576001945083601f198116106117ba575b505050811b016005830155610f83565b015160001960f88460031b161c191690558d80806117aa565b8181015183556020948501946001909301929091019061178f565b909150600585016000526020600020601f840160051c81016020851061183a575b90849392915b601f830160051c8201811061182b575050610f54565b60008155859450600101611815565b508061180f565b015190508d80610f0d565b9250600485016000526020600020906000935b601f19841685106118a3576001945083601f1981161061188a575b505050811b016004830155610f25565b015160001960f88460031b161c191690558d808061187a565b8181015183556020948501946001909301929091019061185f565b909150600485016000526020600020601f840160051c81016020851061190a575b90849392915b601f830160051c820181106118fb575050610ef6565b600081558594506001016118e5565b50806118df565b60405162461bcd60e51b815260206004820152601360248201527f546f6b656e2075726c2069732020656d707479000000000000000000000000006044820152606490fd5b60405162461bcd60e51b815260206004820152601c60248201527f5072696365206d757374206265206174206c65617374203120776569000000006044820152606490fd5b90508301518c610d7e565b91508260005260206000206000925b601f19831684106119f5576001935082601f198116106119dc575b5050811b019055610d92565b85015160001960f88460031b161c191690558c806119d0565b858101518255602093840193600190920191016119b5565b826000526020600020601f830160051c810160208410611a4a575b601f830160051c82018110611a3e575050610d67565b60008155600101611a28565b5080611a28565b60405162461bcd60e51b815260206004820152602e60248201527f45524337323155524953746f726167653a2055524920736574206f66206e6f6e60448201527f6578697374656e7420746f6b656e0000000000000000000000000000000000006064820152608490fd5b606460405162461bcd60e51b815260206004820152602060248201527f4552433732313a2070766e20746f6b656e20616c7265616479206d696e7465646044820152fd5b60405162461bcd60e51b815260206004820152601f60248201527f5265656e7472616e637947756172643a207265656e7472616e742063616c6c006044820152606490fd5b3461090557602036600319011261090557600435611b798160005260676020526001600160a01b0360406000205416151590565b15611ba257611b8a611b9e91613e6b565b6040519182916020835260208301906130a3565b0390f35b60405162461bcd60e51b815260206004820152603160248201527f45524337323155524953746f726167653a2055524920717565727920666f722060448201527f6e6f6e6578697374656e7420746f6b656e0000000000000000000000000000006064820152608490fd5b3461090557602036600319011261090557611c266130c8565b331561090557611c376020916143b1565b604051908152f35b346109055760003660031901126109055760206101f654604051908152f35b3461090557608036600319011261090557611c776130c8565b611c7f6130de565b906064359060443567ffffffffffffffff83116109055761045693611cab610d059436906004016132dc565b92611cbe611cb98433613920565b613838565b611cc9838383613a00565b613c8e565b3461090557604036600319011261090557611ce76130c8565b60243590811515809203610905576001600160a01b031690813314611d5b5733600052606a602052604060002082600052602052604060002060ff1981541660ff83161790556040519081527f17307eab39ab6107e8899845ad3d59bd9653f200f220920489ca2b5937696c3160203392a3005b60405162461bcd60e51b815260206004820152601960248201527f4552433732313a20617070726f766520746f2063616c6c6572000000000000006044820152606490fd5b34610905576000366003190112610905576040516000606654611dc2816135e9565b80845290600190818116908115611e475750600114611dec575b611b9e84611b8a8186038261327e565b6066600090815292507f46501879b8ca8525e8c2fd519e2fbfcfa2ebea26501294aa02cbfcfb12e943545b828410611e2f575050508101602001611b8a82611ddc565b80546020858701810191909152909301928101611e17565b60ff191660208087019190915292151560051b85019092019250611b8a9150839050611ddc565b34610905576000366003190112610905576101f654611e8c816142c3565b9060005b818110611ea55760405180611b9e8582613323565b611eae8161433d565b6000526020906101f782526040600020611f7c600b60405192611ed08461320d565b805484526001958682015490850152600281015460408501526001600160a01b036003820154166060850152611f08600482016136e5565b6080850152611f19600582016136e5565b60a0850152611f2a600682016136e5565b60c0850152611f3b600782016136e5565b60e0850152611f4c600882016136e5565b610100850152611f5e600982016136e5565b610120850152611f70600a82016136e5565b610140850152016136e5565b610160820152611f8c8286614313565b52611f978185614313565b5001611e90565b3461090557604036600319011261090557600435602435611fbd613385565b801561205d577f598b48a1aad5d72fcedbc7ed6aac08ad920501eedca72d3dace23490f11f781291606091611ff33315156140f9565b816000526101fc8060205261202361201e6040600020546000526101fa602052604060002054151590565b6141dc565b826000526020526040600020546000526101f7602052806040600020556040519133835260208301526040820152a1602060405160018152f35b60405162461bcd60e51b815260206004820152602260248201527f506c6f74205072696365206d7573742062652067726561746572207468616e20604482015261181760f11b6064820152608490fd5b346109055760003660031901126109055760206001600160a01b0360fb5416604051908152f35b34610905576000366003190112610905576120ed613385565b60c95460ff811661212f5760019060ff19161760c9557f62e78cea01bee320cd4e420270b5ea74000d11b0c9f74754ebdbfc544b05a2586020604051338152a1005b60405162461bcd60e51b815260206004820152601060248201527f5061757361626c653a20706175736564000000000000000000000000000000006044820152606490fd5b346109055760003660031901126109055761218d613385565b600060fb546001600160a01b0319811660fb55816001600160a01b0360405192167f8be0079c531659141344cd1fd0a4f28419497f9722a3daafe3b4186f6b6457e08284a3f35b34610905576020366003190112610905576020611c376121f26130c8565b6143b1565b34610905576020366003190112610905576020610a32600435613dc1565b3461090557600036600319011261090557602060ff60c954166040519015158152f35b3461090557602080600319360112610905576122526130c8565b61225b816143b1565b612264816142c3565b9160005b82811061227d5760405180611b9e8682613323565b612287818361443d565b6000526101f785526040600020906040516122a18161320d565b825481526122de600b600194858101548a850152600281015460408501526001600160a01b036003820154166060850152611f08600482016136e5565b6101608201526122ee8287614313565b526122f98186614313565b5001612268565b34610905576020806003193601126109055767ffffffffffffffff600435818111610905576123339036906004016132dc565b9061233c613385565b604051926000926101f59485549080612354836135e9565b600197908489168015612531576001146124d9575b5003902061237683613da1565b907f309b29ded109b9e28fb9885757b3e0096eb75c51d23aa4635d68bcd569f6adc16000604051a38151938411610581576123b0906135e9565b601f8111612473575b5081601f84116001146123f357509282939183926000946123e8575b50501b916000199060031b1c1916179055005b0151925085806123d5565b919083601f198116876000527f734ccdfecf0c98f1f610e13e821eeaab95dc92184ba090032ab8cf544a28f167946000905b888383106124595750505010612440575b505050811b019055005b015160001960f88460031b161c19169055838080612436565b858701518855909601959485019487935090810190612425565b856000527f734ccdfecf0c98f1f610e13e821eeaab95dc92184ba090032ab8cf544a28f167601f850160051c8101918486106124cf575b601f0160051c019085905b8281106124c35750506123b9565b600081550185906124b5565b90915081906124aa565b9050886000527f734ccdfecf0c98f1f610e13e821eeaab95dc92184ba090032ab8cf544a28f16786896000925b8484106125195750505050810189612369565b805487850152869550929091019188918b9101612506565b5060ff1985168352801515028201905089612369565b34610905576000366003190112610905576001600160a01b037f00000000000000000000000000000000000000000000000000000000000000001630036125b25760206040517f360894a13ba1a3210667c828492db98dca3e2076cc3735a920a3ca505d382bbc8152f35b60405162461bcd60e51b815260206004820152603860248201527f555550535570677261646561626c653a206d757374206e6f742062652063616c60448201527f6c6564207468726f7567682064656c656761746563616c6c00000000000000006064820152608490fd5b34610905576020366003190112610905576020611c3760043561433d565b60403660031901126109055761264f6130c8565b60243567ffffffffffffffff81116109055761266f9036906004016132dc565b906001600160a01b0391827f000000000000000000000000000000000000000000000000000000000000000016926126a984301415613427565b6126d87f360894a13ba1a3210667c828492db98dca3e2076cc3735a920a3ca505d382bbc948286541614613499565b6126e0613385565b7f4910fdfa16fed3260ed0e7147f7cc6da11a60208b5b9406d12a635614ffd91435460ff1615612716575050610456915061350b565b82919216604051936352d1902d60e01b85526020948581600481865afa60009181612942575b5061279d5760405162461bcd60e51b815260048101879052602e60248201527f45524331393637557067726164653a206e657720696d706c656d656e7461746960448201526d6f6e206973206e6f74205555505360901b6064820152608490fd5b036128d7576127ab8261350b565b604051907fbc7cd75a20ee27fd9adebab32041f755214dbc6bffa90cc0225b39da2e5c2d3b600083a28251158015906128cf575b6127e557005b813b1561286757506000828192856104569695519201905af46128066135b9565b907f416464726573733a206c6f772d6c6576656c2064656c65676174652063616c6c6040519361283585613246565b602785528401527f206661696c6564000000000000000000000000000000000000000000000000006040840152613cef565b62461bcd60e51b815260048101849052602660248201527f416464726573733a2064656c65676174652063616c6c20746f206e6f6e2d636f60448201527f6e747261637400000000000000000000000000000000000000000000000000006064820152608490fd5b5060016127df565b60405162461bcd60e51b815260048101859052602960248201527f45524331393637557067726164653a20756e737570706f727465642070726f7860448201527f6961626c655555494400000000000000000000000000000000000000000000006064820152608490fd5b9091508681813d831161296a575b61295a818361327e565b810103126109055751908761273c565b503d612950565b3461090557602036600319011261090557610456611cb960043533613920565b3461090557610456610d056129a5366130f4565b90604051926129b38461322a565b60008452611cbe611cb98433613920565b34610905576000366003190112610905576129dd613385565b60c95460ff811615612a1c5760ff191660c9557f5db9ee0a495bf2e6ff9c91a7834c1ba4fdd244a5e8aa4e537bd38aeae4b073aa6020604051338152a1005b60405162461bcd60e51b815260206004820152601460248201527f5061757361626c653a206e6f74207061757365640000000000000000000000006044820152606490fd5b3461090557600036600319011261090557611b9e611b8a6132bc565b346109055760208060031936011261090557612a976130c8565b6001600160a01b03807f000000000000000000000000000000000000000000000000000000000000000016612ace81301415613427565b612afd7f360894a13ba1a3210667c828492db98dca3e2076cc3735a920a3ca505d382bbc918383541614613499565b612b05613385565b60405191612b128361322a565b600083527f4910fdfa16fed3260ed0e7147f7cc6da11a60208b5b9406d12a635614ffd91435460ff1615612b4d57505050610456915061350b565b83929316906040516352d1902d60e01b81528581600481865afa60009181612c20575b50612bd15760405162461bcd60e51b815260048101879052602e60248201527f45524331393637557067726164653a206e657720696d706c656d656e7461746960448201526d6f6e206973206e6f74205555505360901b6064820152608490fd5b036128d757612bdf8261350b565b604051907fbc7cd75a20ee27fd9adebab32041f755214dbc6bffa90cc0225b39da2e5c2d3b600083a2825115801590612c18576127e557005b5060006127df565b9091508681813d8311612c48575b612c38818361327e565b8101031261090557519087612b70565b503d612c2e565b34610905576040366003190112610905576020611c37612c6d6130c8565b6024359061443d565b346109055760208060031936011261090557600435612c9361424e565b50806000526101fc90818352612cbf61201e6040600020546000526101fa602052604060002054151590565b60005281526040600020546000526101f78152604060002090612d94600b60405193612cea8561320d565b80548552600181015484860152600281015460408601526001600160a01b036003820154166060860152612d20600482016136e5565b6080860152612d31600582016136e5565b60a0860152612d42600682016136e5565b60c0860152612d53600782016136e5565b60e0860152612d64600882016136e5565b610100860152612d76600982016136e5565b610120860152612d88600a82016136e5565b610140860152016136e5565b610160830152611b9e604051928284938452830190613129565b3461090557610456612dbf366130f4565b91612dcd611cb98433613920565b613a00565b3461090557604036600319011261090557612deb6130c8565b6001600160a01b03906024358280612e02836137d4565b16921691808314612f0257803314908115612edd575b5015612e7257600092818452606960205260408420836001600160a01b0319825416179055612e46826137d4565b1691604051927f8c5be1e5ebec7d5bd14f71427d1e84f3dd0314c0f7b2291e5b200ac8c7c3b9258585a4f35b60405162461bcd60e51b815260206004820152603d60248201527f4552433732313a20617070726f76652063616c6c6572206973206e6f7420746f60448201527f6b656e206f776e6572206f7220617070726f76656420666f7220616c6c0000006064820152608490fd5b9050600052606a60205260406000203360005260205260ff6040600020541684612e18565b60405162461bcd60e51b815260206004820152602160248201527f4552433732313a20617070726f76616c20746f2063757272656e74206f776e656044820152603960f91b6064820152608490fd5b34610905576020366003190112610905576020610a326004356137f6565b34610905576000366003190112610905576040516000606554612f91816135e9565b80845290600190818116908115611e475750600114612fba57611b9e84611b8a8186038261327e565b6065600090815292507f8ff97419363ffd7000167f130ef7168fbea05faf9251824ca5043f113cc6a7c75b828410612ffd575050508101602001611b8a82611ddc565b80546020858701810191909152909301928101612fe5565b34610905576020366003190112610905576004359063ffffffff60e01b8216809203610905576020916380ac58cd60e01b811490811561306f575b811561305e575b5015158152f35b6301ffc9a760e01b14905083613057565b635b5e139f60e01b81149150613050565b60005b8381106130935750506000910152565b8181015183820152602001613083565b906020916130bc81518092818552858086019101613080565b601f01601f1916010190565b600435906001600160a01b038216820361090557565b602435906001600160a01b038216820361090557565b6060906003190112610905576001600160a01b0390600435828116810361090557916024359081168103610905579060443590565b9061320a918051825260208101516020830152604081015160408301526001600160a01b0360608201511660608301526131f66131e26131ce6131ba6131a861319661318460808801516101808060808c01528a01906130a3565b60a088015189820360a08b01526130a3565b60c087015188820360c08a01526130a3565b60e086015187820360e08901526130a3565b6101008086015190878303908801526130a3565b6101208085015190868303908701526130a3565b6101408084015190858303908601526130a3565b9161016080920151918184039101526130a3565b90565b610180810190811067ffffffffffffffff82111761058157604052565b6020810190811067ffffffffffffffff82111761058157604052565b6060810190811067ffffffffffffffff82111761058157604052565b6040810190811067ffffffffffffffff82111761058157604052565b90601f8019910116810190811067ffffffffffffffff82111761058157604052565b67ffffffffffffffff811161058157601f01601f191660200190565b604051906132c982613262565b60048252635354594560e01b6020830152565b81601f82011215610905578035906132f3826132a0565b92613301604051948561327e565b8284526020838301011161090557816000926020809301838601378301015290565b602080820190808352835180925260408301928160408460051b8301019501936000915b8483106133575750505050505090565b9091929394958480613375600193603f198682030187528a51613129565b9801930193019194939290613347565b6001600160a01b0360fb5416330361339957565b606460405162461bcd60e51b815260206004820152602060248201527f4f776e61626c653a2063616c6c6572206973206e6f7420746865206f776e65726044820152fd5b60fb54906001600160a01b0380911691826001600160a01b031982161760fb55167f8be0079c531659141344cd1fd0a4f28419497f9722a3daafe3b4186f6b6457e06000604051a3565b1561342e57565b60405162461bcd60e51b815260206004820152602c60248201527f46756e6374696f6e206d7573742062652063616c6c6564207468726f7567682060448201527f64656c656761746563616c6c00000000000000000000000000000000000000006064820152608490fd5b156134a057565b60405162461bcd60e51b815260206004820152602c60248201527f46756e6374696f6e206d7573742062652063616c6c6564207468726f7567682060448201527f6163746976652070726f787900000000000000000000000000000000000000006064820152608490fd5b803b1561354e576001600160a01b037f360894a13ba1a3210667c828492db98dca3e2076cc3735a920a3ca505d382bbc91166001600160a01b0319825416179055565b60405162461bcd60e51b815260206004820152602d60248201527f455243313936373a206e657720696d706c656d656e746174696f6e206973206e60448201527f6f74206120636f6e7472616374000000000000000000000000000000000000006064820152608490fd5b3d156135e4573d906135ca826132a0565b916135d8604051938461327e565b82523d6000602084013e565b606090565b90600182811c92168015613619575b602083101461360357565b634e487b7160e01b600052602260045260246000fd5b91607f16916135f8565b604051906000826101f5918254613639816135e9565b808452936001918083169081156136c15750600114613663575b50506136619250038361327e565b565b600090815291507f734ccdfecf0c98f1f610e13e821eeaab95dc92184ba090032ab8cf544a28f1675b8483106136a6575061366193505081016020013880613653565b81935090816020925483858a0101520191019091859261368c565b9150506020925061366194915060ff191682840152151560051b8201013880613653565b90604051918260008254926136f9846135e9565b90818452600194858116908160001461376557506001146137225750506136619250038361327e565b9093915060005260209081600020936000915b81831061374d57505061366193508201013880613653565b85548884018501529485019487945091830191613735565b91505061366194506020925060ff191682840152151560051b8201013880613653565b1561378f57565b60405162461bcd60e51b815260206004820152601860248201527f4552433732313a20696e76616c696420746f6b656e20494400000000000000006044820152606490fd5b60005260676020526001600160a01b036040600020541661320a811515613788565b61381e6138198260005260676020526001600160a01b0360406000205416151590565b613788565b60005260696020526001600160a01b036040600020541690565b1561383f57565b60405162461bcd60e51b815260206004820152602d60248201527f4552433732313a2063616c6c6572206973206e6f7420746f6b656e206f776e6560448201527f72206f7220617070726f766564000000000000000000000000000000000000006064820152608490fd5b156138b157565b60405162461bcd60e51b815260206004820152603260248201527f4552433732313a207472616e7366657220746f206e6f6e20455243373231526560448201527f63656976657220696d706c656d656e74657200000000000000000000000000006064820152608490fd5b0390fd5b906001600160a01b038080613934846137d4565b16931691838314938415613967575b508315613951575b50505090565b61395d919293506137f6565b161438808061394b565b909350600052606a60205260406000208260005260205260ff604060002054169238613943565b1561399557565b60405162461bcd60e51b815260206004820152602560248201527f4552433732313a207472616e736665722066726f6d20696e636f72726563742060448201527f6f776e65720000000000000000000000000000000000000000000000000000006064820152608490fd5b90613a2891613a0e846137d4565b916001600160a01b0393849384809416948591161461398e565b16918215613ac05781613a4591613a3e866137d4565b161461398e565b7fddf252ad1be2c89b69c2b068fc378daa952ba7f163c4a11628f55a4df523b3ef60008481526069602052604081206001600160a01b031990818154169055838252606860205260408220600019815401905584825260408220600181540190558582526067602052846040832091825416179055604051a4565b60405162461bcd60e51b8152602060048201526024808201527f4552433732313a207472616e7366657220746f20746865207a65726f206164646044820152637265737360e01b6064820152608490fd5b9091600091803b15613c8557613b646020916001600160a01b039385604051958680958194630a85bd0160e11b9b8c845233600485015285602485015260448401526080606484015260848301906130a3565b0393165af190829082613c1e575b5050613bf857613b806135b9565b80519081613bf35760405162461bcd60e51b815260206004820152603260248201527f4552433732313a207472616e7366657220746f206e6f6e20455243373231526560448201527f63656976657220696d706c656d656e74657200000000000000000000000000006064820152608490fd5b602001fd5b7fffffffff00000000000000000000000000000000000000000000000000000000161490565b909192506020813d8211613c7d575b81613c3a6020938361327e565b81010312613c795751907fffffffff0000000000000000000000000000000000000000000000000000000082168203613c765750903880613b72565b80fd5b5080fd5b3d9150613c2d565b50505050600190565b91926000929190813b15613ce557602091613b649185604051958680958194630a85bd0160e11b9b8c84523360048501526001600160a01b03809516602485015260448401526080606484015260848301906130a3565b5050505050600190565b90919015613cfb575090565b815115613d0b5750805190602001fd5b60405162461bcd60e51b81526020600482015290819061391c9060248301906130a3565b15613d3657565b60405162461bcd60e51b815260206004820152602b60248201527f496e697469616c697a61626c653a20636f6e7472616374206973206e6f74206960448201527f6e697469616c697a696e670000000000000000000000000000000000000000006064820152608490fd5b613db990602060405192828480945193849201613080565b810103902090565b604051613dcd81613246565b602981527f4552433732313a206f776e657220717565727920666f72206e6f6e657869737460208201527f656e7420746f6b656e00000000000000000000000000000000000000000000006040820152816000526101fb60205260406000205491821590811591613e4c575b5015613d0b57506001600160a01b031690565b613e6591506000526101fa602052604060002054151590565b38613e39565b613e8e6138198260005260676020526001600160a01b0360406000205416151590565b600081815260209060978252604090613ea88282206136e5565b613eb0613623565b80519182156140ef5780516140be57505050613ee56138198560005260676020526001600160a01b0360406000205416151590565b613eed613623565b8051909290156140a95784859083967a184f03e93ff9f4daa797ed6e38ed64bf6a1f010000000000000000908181101561409a575b50506d04ee2d6d415b85acef81000000008083101561408c575b50662386f26fc100008083101561407d575b506305f5e1008083101561406e575b506127108083101561405f575b50606482101561404f575b600a80921015614045575b600190816021818a0199613fab613f968c6132a0565b9b613fa389519d8e61327e565b808d526132a0565b8b8b019890601f1901368a37508a0101905b614002575b5050505090613ff69461320a949392519583613fe78895518092888089019101613080565b84019151809386840190613080565b0103808452018261327e565b600019019083907f30313233343536373839616263646566000000000000000000000000000000008282061a83530491821561404057919082613fbd565b613fc2565b9560010195613f80565b9590606460029104910195613f75565b60049197920491019538613f6a565b60089197920491019538613f5d565b60109197920491019538613f4e565b869197920491019538613f3c565b91975091500481953880613f22565b925092505051906140b98261322a565b815290565b9195509150846140db61320a959451968794868087019101613080565b8201613ff682518093868085019101613080565b9550505050505090565b1561410057565b60405162461bcd60e51b815260206004820152601760248201527f4552433732313a20696e76616c696420616464726573730000000000000000006044820152606490fd5b1561414c57565b606460405162461bcd60e51b815260206004820152602060248201527f4552433732313a206d696e7420746f20746865207a65726f20616464726573736044820152fd5b1561419757565b60405162461bcd60e51b815260206004820152601c60248201527f4552433732313a20746f6b656e20616c7265616479206d696e746564000000006044820152606490fd5b156141e357565b60405162461bcd60e51b815260206004820152603360248201527f4552433732313a2070766e20746f6b656e20646f6573206e6f7420657869737460448201527f206f72206e6f74206265656e206d696e746564000000000000000000000000006064820152608490fd5b6040519061425b8261320d565b816000815260006020820152600060408201526101606060916000838201528260808201528260a08201528260c08201528260e08201528261010082015282610120820152826101408201520152565b67ffffffffffffffff81116105815760051b60200190565b906142cd826142ab565b6142da604051918261327e565b82815280926142eb601f19916142ab565b019060005b8281106142fc57505050565b60209061430761424e565b828285010152016142f0565b80518210156143275760209160051b010190565b634e487b7160e01b600052603260045260246000fd5b6101f65481101561436c57600181018091116143565790565b634e487b7160e01b600052601160045260246000fd5b60405162461bcd60e51b815260206004820152601f60248201527f455243373231456e756d657261626c653a20696e76616c696420696e646578006044820152606490fd5b6001600160a01b031680156143d2576000526101f860205260406000205490565b60405162461bcd60e51b815260206004820152602a60248201527f4552433732313a2062616c616e636520717565727920666f7220746865207a6560448201527f726f2061646472657373000000000000000000000000000000000000000000006064820152608490fd5b90614447826143b1565b811015614478576001600160a01b0361446e92166000526101f860205260406000206144e3565b90549060031b1c90565b60405162461bcd60e51b815260206004820152602b60248201527f455243373231456e756d657261626c653a206f776e657220696e646578206f7560448201527f74206f6620626f756e64730000000000000000000000000000000000000000006064820152608490fd5b80548210156143275760005260206000200190600090565b906000918083526101fa928360205260408120541560001461459c576101f993845494680100000000000000008610156145885760018601808255861015614574578360409495967f29eba5f30ca2030a69ed2d7f74871c83bbc526b071320256f127653c7dfff4e90155549382526020522055600190565b634e487b7160e01b83526032600452602483fd5b634e487b7160e01b83526041600452602483fd5b925050565b9190600183016000908282528060205260408220541560001461460d578454946801000000000000000086101561458857836145e78760016040979899018455836144e3565b819291549060031b600019811b9283911b16911916179055549382526020522055600190565b5092505056fea164736f6c6343000810000a","opcodes":"PUSH1 0xA0 DUP1 PUSH1 0x40 MSTORE CALLVALUE PUSH2 0x31 JUMPI ADDRESS PUSH1 0x80 MSTORE PUSH2 0x4620 SWAP1 DUP2 PUSH2 0x37 DUP3 CODECOPY PUSH1 0x80 MLOAD DUP2 DUP2 DUP2 PUSH2 0x2562 ADD MSTORE DUP2 DUP2 PUSH2 0x267C ADD MSTORE PUSH2 0x2AA2 ADD MSTORE RETURN JUMPDEST PUSH1 0x0 DUP1 REVERT INVALID PUSH1 0x80 DUP1 PUSH1 0x40 MSTORE PUSH1 0x4 CALLDATASIZE LT ISZERO PUSH2 0x13 JUMPI PUSH1 0x0 DUP1 REVERT JUMPDEST PUSH1 0x0 CALLDATALOAD PUSH1 0xE0 SHR SWAP1 DUP2 PUSH4 0x1FFC9A7 EQ PUSH2 0x3015 JUMPI POP DUP1 PUSH4 0x6FDDE03 EQ PUSH2 0x2F6F JUMPI DUP1 PUSH4 0x81812FC EQ PUSH2 0x2F51 JUMPI DUP1 PUSH4 0x95EA7B3 EQ PUSH2 0x2DD2 JUMPI DUP1 PUSH4 0x18160DDD EQ PUSH2 0x1C3F JUMPI DUP1 PUSH4 0x23B872DD EQ PUSH2 0x2DAE JUMPI DUP1 PUSH4 0x245F0CA4 EQ PUSH2 0x2C76 JUMPI DUP1 PUSH4 0x2F745C59 EQ PUSH2 0x2C4F JUMPI DUP1 PUSH4 0x3659CFE6 EQ PUSH2 0x2A7D JUMPI DUP1 PUSH4 0x3F35198E EQ PUSH2 0x2A61 JUMPI DUP1 PUSH4 0x3F4BA83A EQ PUSH2 0x29C4 JUMPI DUP1 PUSH4 0x42842E0E EQ PUSH2 0x2991 JUMPI DUP1 PUSH4 0x42966C68 EQ PUSH2 0x2971 JUMPI DUP1 PUSH4 0x4F1EF286 EQ PUSH2 0x263B JUMPI DUP1 PUSH4 0x4F6CCCE7 EQ PUSH2 0x261D JUMPI DUP1 PUSH4 0x52D1902D EQ PUSH2 0x2547 JUMPI DUP1 PUSH4 0x55F804B3 EQ PUSH2 0x2300 JUMPI DUP1 PUSH4 0x5939F777 EQ PUSH2 0x2238 JUMPI DUP1 PUSH4 0x5C975ABB EQ PUSH2 0x2215 JUMPI DUP1 PUSH4 0x6352211E EQ PUSH2 0x21F7 JUMPI DUP1 PUSH4 0x70A08231 EQ PUSH2 0x21D4 JUMPI DUP1 PUSH4 0x715018A6 EQ PUSH2 0x2174 JUMPI DUP1 PUSH4 0x8456CB59 EQ PUSH2 0x20D4 JUMPI DUP1 PUSH4 0x8DA5CB5B EQ PUSH2 0x20AD JUMPI DUP1 PUSH4 0x90CBE759 EQ PUSH2 0x1F9E JUMPI DUP1 PUSH4 0x93D3E755 EQ PUSH2 0x1E6E JUMPI DUP1 PUSH4 0x95D89B41 EQ PUSH2 0x1DA0 JUMPI DUP1 PUSH4 0xA22CB465 EQ PUSH2 0x1CCE JUMPI DUP1 PUSH4 0xB88D4FDE EQ PUSH2 0x1C5E JUMPI DUP1 PUSH4 0xC5719298 EQ PUSH2 0x1C3F JUMPI DUP1 PUSH4 0xC62E5581 EQ PUSH2 0x1C0D JUMPI DUP1 PUSH4 0xC87B56DD EQ PUSH2 0x1B45 JUMPI DUP1 PUSH4 0xDFD64930 EQ PUSH2 0xA43 JUMPI DUP1 PUSH4 0xE4A9614A EQ PUSH2 0xA05 JUMPI DUP1 PUSH4 0xE985E9C5 EQ PUSH2 0x9AE JUMPI DUP1 PUSH4 0xF2FDE38B EQ PUSH2 0x90A JUMPI PUSH4 0xF62D1888 EQ PUSH2 0x1B6 JUMPI PUSH1 0x0 DUP1 REVERT JUMPDEST CALLVALUE PUSH2 0x905 JUMPI PUSH1 0x20 CALLDATASIZE PUSH1 0x3 NOT ADD SLT PUSH2 0x905 JUMPI PUSH1 0x4 CALLDATALOAD PUSH8 0xFFFFFFFFFFFFFFFF DUP2 GT PUSH2 0x905 JUMPI PUSH2 0x1E7 SWAP1 CALLDATASIZE SWAP1 PUSH1 0x4 ADD PUSH2 0x32DC JUMP JUMPDEST PUSH1 0x0 SLOAD PUSH1 0xFF DUP2 PUSH1 0x8 SHR AND ISZERO SWAP1 DUP2 DUP1 SWAP3 PUSH2 0x8F8 JUMPI JUMPDEST DUP1 ISZERO PUSH2 0x8E1 JUMPI JUMPDEST ISZERO PUSH2 0x876 JUMPI PUSH1 0xFF NOT DUP2 AND PUSH1 0x1 OR PUSH1 0x0 SSTORE DUP2 PUSH2 0x864 JUMPI JUMPDEST POP PUSH1 0x40 MLOAD SWAP2 PUSH2 0x226 DUP4 PUSH2 0x3262 JUMP JUMPDEST PUSH1 0xC DUP4 MSTORE PUSH32 0x537974656D617020436F696E0000000000000000000000000000000000000000 PUSH1 0x20 DUP5 ADD MSTORE PUSH2 0x258 PUSH2 0x32BC JUMP JUMPDEST SWAP2 PUSH2 0x273 PUSH1 0xFF PUSH1 0x0 SLOAD PUSH1 0x8 SHR AND PUSH2 0x26E DUP2 PUSH2 0x3D2F JUMP JUMPDEST PUSH2 0x3D2F JUMP JUMPDEST DUP4 MLOAD PUSH8 0xFFFFFFFFFFFFFFFF DUP2 GT PUSH2 0x581 JUMPI PUSH2 0x28F PUSH1 0x65 SLOAD PUSH2 0x35E9 JUMP JUMPDEST PUSH1 0x1F DUP2 GT PUSH2 0x7C1 JUMPI JUMPDEST POP PUSH1 0x20 SWAP5 PUSH1 0x1F DUP3 GT PUSH1 0x1 EQ PUSH2 0x73D JUMPI SWAP5 DUP2 SWAP3 SWAP4 SWAP5 SWAP6 PUSH1 0x0 SWAP3 PUSH2 0x732 JUMPI JUMPDEST POP POP DUP2 PUSH1 0x1 SHL SWAP2 PUSH1 0x0 NOT SWAP1 PUSH1 0x3 SHL SHR NOT AND OR PUSH1 0x65 SSTORE JUMPDEST DUP3 MLOAD PUSH8 0xFFFFFFFFFFFFFFFF DUP2 GT PUSH2 0x581 JUMPI PUSH2 0x2E7 PUSH1 0x66 SLOAD PUSH2 0x35E9 JUMP JUMPDEST PUSH1 0x1F DUP2 GT PUSH2 0x68F JUMPI JUMPDEST POP PUSH1 0x20 PUSH1 0x1F DUP3 GT PUSH1 0x1 EQ PUSH2 0x60B JUMPI DUP2 SWAP3 SWAP4 SWAP5 PUSH1 0x0 SWAP3 PUSH2 0x600 JUMPI JUMPDEST POP POP DUP2 PUSH1 0x1 SHL SWAP2 PUSH1 0x0 NOT SWAP1 PUSH1 0x3 SHL SHR NOT AND OR PUSH1 0x66 SSTORE JUMPDEST PUSH2 0x35A PUSH1 0xFF PUSH1 0x0 SLOAD PUSH1 0x8 SHR AND PUSH2 0x335 DUP2 PUSH2 0x3D2F JUMP JUMPDEST PUSH2 0x33E DUP2 PUSH2 0x3D2F JUMP JUMPDEST PUSH2 0x347 DUP2 PUSH2 0x3D2F JUMP JUMPDEST PUSH1 0xFF NOT PUSH1 0xC9 SLOAD AND PUSH1 0xC9 SSTORE PUSH2 0x26E DUP2 PUSH2 0x3D2F JUMP JUMPDEST PUSH2 0x363 CALLER PUSH2 0x33DD JUMP JUMPDEST PUSH2 0x393 PUSH1 0xFF PUSH1 0x0 SLOAD PUSH1 0x8 SHR AND PUSH2 0x378 DUP2 PUSH2 0x3D2F JUMP JUMPDEST PUSH2 0x381 DUP2 PUSH2 0x3D2F JUMP JUMPDEST PUSH2 0x38A DUP2 PUSH2 0x3D2F JUMP JUMPDEST PUSH2 0x26E DUP2 PUSH2 0x3D2F JUMP JUMPDEST PUSH1 0x1 PUSH2 0x1C3 SSTORE PUSH2 0x3A1 PUSH2 0x3385 JUMP JUMPDEST PUSH1 0x40 MLOAD PUSH1 0x0 PUSH2 0x1F5 SWAP2 DUP1 DUP4 SLOAD SWAP3 PUSH2 0x3B7 DUP5 PUSH2 0x35E9 JUMP JUMPDEST PUSH1 0x1 DUP6 AND DUP1 ISZERO PUSH2 0x5EA JUMPI PUSH1 0x1 EQ PUSH2 0x597 JUMPI JUMPDEST POP SUB SWAP1 KECCAK256 PUSH2 0x3D6 DUP6 PUSH2 0x3DA1 JUMP JUMPDEST SWAP1 PUSH32 0x309B29DED109B9E28FB9885757B3E0096EB75C51D23AA4635D68BCD569F6ADC1 PUSH1 0x0 PUSH1 0x40 MLOAD LOG3 DUP4 MLOAD SWAP1 PUSH8 0xFFFFFFFFFFFFFFFF DUP3 GT PUSH2 0x581 JUMPI PUSH2 0x419 SWAP1 PUSH2 0x35E9 JUMP JUMPDEST PUSH1 0x1F DUP2 GT PUSH2 0x51D JUMPI JUMPDEST POP PUSH1 0x20 PUSH1 0x1F DUP3 GT PUSH1 0x1 EQ PUSH2 0x49B JUMPI DUP2 SWAP3 SWAP4 SWAP5 PUSH1 0x0 SWAP3 PUSH2 0x490 JUMPI JUMPDEST POP POP DUP2 PUSH1 0x1 SHL SWAP2 PUSH1 0x0 NOT SWAP1 PUSH1 0x3 SHL SHR NOT AND OR SWAP1 SSTORE JUMPDEST PUSH2 0x458 JUMPI JUMPDEST STOP JUMPDEST PUSH2 0xFF00 NOT PUSH1 0x0 SLOAD AND PUSH1 0x0 SSTORE PUSH32 0x7F26B83FF96E1F2B6A682F133852F6798A09C465DA95921460CEFB3847402498 PUSH1 0x20 PUSH1 0x40 MLOAD PUSH1 0x1 DUP2 MSTORE LOG1 STOP JUMPDEST ADD MLOAD SWAP1 POP CODESIZE DUP1 PUSH2 0x43C JUMP JUMPDEST PUSH1 0x1F NOT DUP3 AND SWAP1 DUP4 PUSH1 0x0 MSTORE PUSH32 0x734CCDFECF0C98F1F610E13E821EEAAB95DC92184BA090032AB8CF544A28F167 SWAP2 PUSH1 0x0 JUMPDEST DUP2 DUP2 LT PUSH2 0x505 JUMPI POP SWAP6 DUP4 PUSH1 0x1 SWAP6 SWAP7 SWAP8 LT PUSH2 0x4EC JUMPI JUMPDEST POP POP POP DUP2 SHL ADD SWAP1 SSTORE PUSH2 0x451 JUMP JUMPDEST ADD MLOAD PUSH1 0x0 NOT PUSH1 0xF8 DUP5 PUSH1 0x3 SHL AND SHR NOT AND SWAP1 SSTORE CODESIZE DUP1 DUP1 PUSH2 0x4DF JUMP JUMPDEST SWAP2 SWAP3 PUSH1 0x20 PUSH1 0x1 DUP2 SWAP3 DUP7 DUP12 ADD MLOAD DUP2 SSTORE ADD SWAP5 ADD SWAP3 ADD PUSH2 0x4CA JUMP JUMPDEST DUP3 PUSH1 0x0 MSTORE PUSH32 0x734CCDFECF0C98F1F610E13E821EEAAB95DC92184BA090032AB8CF544A28F167 PUSH1 0x1F DUP4 ADD PUSH1 0x5 SHR DUP2 ADD SWAP2 PUSH1 0x20 DUP5 LT PUSH2 0x577 JUMPI JUMPDEST PUSH1 0x1F ADD PUSH1 0x5 SHR ADD SWAP1 JUMPDEST DUP2 DUP2 LT PUSH2 0x56B JUMPI POP PUSH2 0x422 JUMP JUMPDEST PUSH1 0x0 DUP2 SSTORE PUSH1 0x1 ADD PUSH2 0x55E JUMP JUMPDEST SWAP1 SWAP2 POP DUP2 SWAP1 PUSH2 0x555 JUMP JUMPDEST PUSH4 0x4E487B71 PUSH1 0xE0 SHL PUSH1 0x0 MSTORE PUSH1 0x41 PUSH1 0x4 MSTORE PUSH1 0x24 PUSH1 0x0 REVERT JUMPDEST SWAP1 POP DUP5 PUSH1 0x0 MSTORE PUSH32 0x734CCDFECF0C98F1F610E13E821EEAAB95DC92184BA090032AB8CF544A28F167 PUSH1 0x0 SWAP1 JUMPDEST DUP3 DUP3 LT PUSH2 0x5D3 JUMPI POP POP DUP2 ADD CODESIZE PUSH2 0x3C9 JUMP JUMPDEST DUP1 SLOAD DUP3 DUP7 ADD MSTORE DUP5 SWAP4 POP PUSH1 0x20 SWAP1 SWAP2 ADD SWAP1 PUSH1 0x1 ADD PUSH2 0x5C2 JUMP JUMPDEST POP PUSH1 0xFF NOT DUP6 AND DUP4 MSTORE DUP1 ISZERO ISZERO MUL DUP3 ADD SWAP1 POP CODESIZE PUSH2 0x3C9 JUMP JUMPDEST ADD MLOAD SWAP1 POP CODESIZE DUP1 PUSH2 0x30A JUMP JUMPDEST PUSH1 0x1F NOT DUP3 AND SWAP1 PUSH1 0x66 PUSH1 0x0 MSTORE PUSH32 0x46501879B8CA8525E8C2FD519E2FBFCFA2EBEA26501294AA02CBFCFB12E94354 SWAP2 PUSH1 0x0 JUMPDEST DUP2 DUP2 LT PUSH2 0x677 JUMPI POP SWAP6 DUP4 PUSH1 0x1 SWAP6 SWAP7 SWAP8 LT PUSH2 0x65E JUMPI JUMPDEST POP POP POP DUP2 SHL ADD PUSH1 0x66 SSTORE PUSH2 0x320 JUMP JUMPDEST ADD MLOAD PUSH1 0x0 NOT PUSH1 0xF8 DUP5 PUSH1 0x3 SHL AND SHR NOT AND SWAP1 SSTORE CODESIZE DUP1 DUP1 PUSH2 0x650 JUMP JUMPDEST SWAP2 SWAP3 PUSH1 0x20 PUSH1 0x1 DUP2 SWAP3 DUP7 DUP12 ADD MLOAD DUP2 SSTORE ADD SWAP5 ADD SWAP3 ADD PUSH2 0x63B JUMP JUMPDEST PUSH1 0x66 PUSH1 0x0 MSTORE PUSH1 0x1F DUP3 ADD PUSH1 0x5 SHR PUSH32 0x46501879B8CA8525E8C2FD519E2FBFCFA2EBEA26501294AA02CBFCFB12E94354 ADD SWAP1 PUSH1 0x20 DUP4 LT PUSH2 0x70A JUMPI JUMPDEST PUSH1 0x1F ADD PUSH1 0x5 SHR PUSH32 0x46501879B8CA8525E8C2FD519E2FBFCFA2EBEA26501294AA02CBFCFB12E94354 ADD SWAP1 JUMPDEST DUP2 DUP2 LT PUSH2 0x6FE JUMPI POP PUSH2 0x2F0 JUMP JUMPDEST PUSH1 0x0 DUP2 SSTORE PUSH1 0x1 ADD PUSH2 0x6F1 JUMP JUMPDEST PUSH32 0x46501879B8CA8525E8C2FD519E2FBFCFA2EBEA26501294AA02CBFCFB12E94354 SWAP2 POP PUSH2 0x6C7 JUMP JUMPDEST ADD MLOAD SWAP1 POP CODESIZE DUP1 PUSH2 0x2B5 JUMP JUMPDEST PUSH1 0x1F NOT DUP3 AND SWAP6 PUSH1 0x65 PUSH1 0x0 MSTORE PUSH32 0x8FF97419363FFD7000167F130EF7168FBEA05FAF9251824CA5043F113CC6A7C7 SWAP2 PUSH1 0x0 JUMPDEST DUP9 DUP2 LT PUSH2 0x7A9 JUMPI POP DUP4 PUSH1 0x1 SWAP6 SWAP7 SWAP8 SWAP9 LT PUSH2 0x790 JUMPI JUMPDEST POP POP POP DUP2 SHL ADD PUSH1 0x65 SSTORE PUSH2 0x2CB JUMP JUMPDEST ADD MLOAD PUSH1 0x0 NOT PUSH1 0xF8 DUP5 PUSH1 0x3 SHL AND SHR NOT AND SWAP1 SSTORE CODESIZE DUP1 DUP1 PUSH2 0x782 JUMP JUMPDEST SWAP2 SWAP3 PUSH1 0x20 PUSH1 0x1 DUP2 SWAP3 DUP7 DUP6 ADD MLOAD DUP2 SSTORE ADD SWAP5 ADD SWAP3 ADD PUSH2 0x76D JUMP JUMPDEST PUSH1 0x65 PUSH1 0x0 MSTORE PUSH1 0x1F DUP3 ADD PUSH1 0x5 SHR PUSH32 0x8FF97419363FFD7000167F130EF7168FBEA05FAF9251824CA5043F113CC6A7C7 ADD SWAP1 PUSH1 0x20 DUP4 LT PUSH2 0x83C JUMPI JUMPDEST PUSH1 0x1F ADD PUSH1 0x5 SHR PUSH32 0x8FF97419363FFD7000167F130EF7168FBEA05FAF9251824CA5043F113CC6A7C7 ADD SWAP1 JUMPDEST DUP2 DUP2 LT PUSH2 0x830 JUMPI POP PUSH2 0x298 JUMP JUMPDEST PUSH1 0x0 DUP2 SSTORE PUSH1 0x1 ADD PUSH2 0x823 JUMP JUMPDEST PUSH32 0x8FF97419363FFD7000167F130EF7168FBEA05FAF9251824CA5043F113CC6A7C7 SWAP2 POP PUSH2 0x7F9 JUMP JUMPDEST PUSH2 0xFFFF NOT AND PUSH2 0x101 OR PUSH1 0x0 SSTORE CODESIZE PUSH2 0x218 JUMP JUMPDEST PUSH1 0x40 MLOAD PUSH3 0x461BCD PUSH1 0xE5 SHL DUP2 MSTORE PUSH1 0x20 PUSH1 0x4 DUP3 ADD MSTORE PUSH1 0x2E PUSH1 0x24 DUP3 ADD MSTORE PUSH32 0x496E697469616C697A61626C653A20636F6E747261637420697320616C726561 PUSH1 0x44 DUP3 ADD MSTORE PUSH32 0x647920696E697469616C697A6564000000000000000000000000000000000000 PUSH1 0x64 DUP3 ADD MSTORE PUSH1 0x84 SWAP1 REVERT JUMPDEST POP ADDRESS EXTCODESIZE ISZERO DUP1 ISZERO PUSH2 0x202 JUMPI POP PUSH1 0x1 PUSH1 0xFF DUP3 AND EQ PUSH2 0x202 JUMP JUMPDEST POP PUSH1 0x1 PUSH1 0xFF DUP3 AND LT PUSH2 0x1FB JUMP JUMPDEST PUSH1 0x0 DUP1 REVERT JUMPDEST CALLVALUE PUSH2 0x905 JUMPI PUSH1 0x20 CALLDATASIZE PUSH1 0x3 NOT ADD SLT PUSH2 0x905 JUMPI PUSH2 0x923 PUSH2 0x30C8 JUMP JUMPDEST PUSH2 0x92B PUSH2 0x3385 JUMP JUMPDEST PUSH1 0x1 PUSH1 0x1 PUSH1 0xA0 SHL SUB DUP2 AND ISZERO PUSH2 0x943 JUMPI PUSH2 0x456 SWAP1 PUSH2 0x33DD JUMP JUMPDEST PUSH1 0x40 MLOAD PUSH3 0x461BCD PUSH1 0xE5 SHL DUP2 MSTORE PUSH1 0x20 PUSH1 0x4 DUP3 ADD MSTORE PUSH1 0x26 PUSH1 0x24 DUP3 ADD MSTORE PUSH32 0x4F776E61626C653A206E6577206F776E657220697320746865207A65726F2061 PUSH1 0x44 DUP3 ADD MSTORE PUSH32 0x6464726573730000000000000000000000000000000000000000000000000000 PUSH1 0x64 DUP3 ADD MSTORE PUSH1 0x84 SWAP1 REVERT JUMPDEST CALLVALUE PUSH2 0x905 JUMPI PUSH1 0x40 CALLDATASIZE PUSH1 0x3 NOT ADD SLT PUSH2 0x905 JUMPI PUSH2 0x9C7 PUSH2 0x30C8 JUMP JUMPDEST PUSH2 0x9CF PUSH2 0x30DE JUMP JUMPDEST SWAP1 PUSH1 0x1 PUSH1 0x1 PUSH1 0xA0 SHL SUB DUP1 SWAP2 AND PUSH1 0x0 MSTORE PUSH1 0x6A PUSH1 0x20 MSTORE PUSH1 0x40 PUSH1 0x0 KECCAK256 SWAP2 AND PUSH1 0x0 MSTORE PUSH1 0x20 MSTORE PUSH1 0x20 PUSH1 0xFF PUSH1 0x40 PUSH1 0x0 KECCAK256 SLOAD AND PUSH1 0x40 MLOAD SWAP1 ISZERO ISZERO DUP2 MSTORE RETURN JUMPDEST CALLVALUE PUSH2 0x905 JUMPI PUSH1 0x20 CALLDATASIZE PUSH1 0x3 NOT ADD SLT PUSH2 0x905 JUMPI PUSH1 0x4 CALLDATALOAD PUSH1 0x0 MSTORE PUSH2 0x1FC PUSH1 0x20 MSTORE PUSH1 0x20 PUSH2 0xA32 PUSH1 0x40 PUSH1 0x0 KECCAK256 SLOAD PUSH2 0x3DC1 JUMP JUMPDEST PUSH1 0x1 PUSH1 0x1 PUSH1 0xA0 SHL SUB PUSH1 0x40 MLOAD SWAP2 AND DUP2 MSTORE RETURN JUMPDEST CALLVALUE PUSH2 0x905 JUMPI PUSH2 0x160 CALLDATASIZE PUSH1 0x3 NOT ADD SLT PUSH2 0x905 JUMPI PUSH1 0x4 CALLDATALOAD PUSH8 0xFFFFFFFFFFFFFFFF DUP2 GT PUSH2 0x905 JUMPI PUSH2 0xA75 SWAP1 CALLDATASIZE SWAP1 PUSH1 0x4 ADD PUSH2 0x32DC JUMP JUMPDEST PUSH1 0x24 CALLDATALOAD PUSH8 0xFFFFFFFFFFFFFFFF DUP2 GT PUSH2 0x905 JUMPI PUSH2 0xA95 SWAP1 CALLDATASIZE SWAP1 PUSH1 0x4 ADD PUSH2 0x32DC JUMP JUMPDEST PUSH1 0x44 CALLDATALOAD PUSH8 0xFFFFFFFFFFFFFFFF DUP2 GT PUSH2 0x905 JUMPI PUSH2 0xAB5 SWAP1 CALLDATASIZE SWAP1 PUSH1 0x4 ADD PUSH2 0x32DC JUMP JUMPDEST SWAP2 PUSH1 0x84 CALLDATALOAD PUSH8 0xFFFFFFFFFFFFFFFF DUP2 GT PUSH2 0x905 JUMPI PUSH2 0xAD6 SWAP1 CALLDATASIZE SWAP1 PUSH1 0x4 ADD PUSH2 0x32DC JUMP JUMPDEST PUSH1 0xA4 CALLDATALOAD PUSH8 0xFFFFFFFFFFFFFFFF DUP2 GT PUSH2 0x905 JUMPI PUSH2 0xAF6 SWAP1 CALLDATASIZE SWAP1 PUSH1 0x4 ADD PUSH2 0x32DC JUMP JUMPDEST PUSH1 0xC4 CALLDATALOAD PUSH8 0xFFFFFFFFFFFFFFFF DUP2 GT PUSH2 0x905 JUMPI PUSH2 0xB16 SWAP1 CALLDATASIZE SWAP1 PUSH1 0x4 ADD PUSH2 0x32DC JUMP JUMPDEST PUSH1 0xE4 CALLDATALOAD PUSH8 0xFFFFFFFFFFFFFFFF DUP2 GT PUSH2 0x905 JUMPI PUSH2 0xB36 SWAP1 CALLDATASIZE SWAP1 PUSH1 0x4 ADD PUSH2 0x32DC JUMP JUMPDEST SWAP2 PUSH1 0x1 PUSH1 0x1 PUSH1 0xA0 SHL SUB PUSH2 0x104 CALLDATALOAD AND PUSH2 0x104 CALLDATALOAD SUB PUSH2 0x905 JUMPI PUSH2 0x124 CALLDATALOAD PUSH8 0xFFFFFFFFFFFFFFFF DUP2 GT PUSH2 0x905 JUMPI PUSH2 0xB6E SWAP1 CALLDATASIZE SWAP1 PUSH1 0x4 ADD PUSH2 0x32DC JUMP JUMPDEST SWAP4 PUSH2 0xB77 PUSH2 0x3385 JUMP JUMPDEST PUSH1 0x2 PUSH2 0x1C3 SLOAD EQ PUSH2 0x1B00 JUMPI PUSH1 0x2 PUSH2 0x1C3 SSTORE PUSH2 0x144 CALLDATALOAD PUSH1 0x0 MSTORE PUSH2 0x1FC PUSH1 0x20 MSTORE PUSH2 0xBB2 PUSH1 0x40 PUSH1 0x0 KECCAK256 SLOAD PUSH1 0x0 MSTORE PUSH2 0x1FA PUSH1 0x20 MSTORE PUSH1 0x40 PUSH1 0x0 KECCAK256 SLOAD ISZERO ISZERO SWAP1 JUMP JUMPDEST PUSH2 0x1ABC JUMPI PUSH2 0xBCD PUSH1 0x1 PUSH1 0x1 PUSH1 0xA0 SHL SUB PUSH2 0x104 CALLDATALOAD AND ISZERO ISZERO PUSH2 0x40F9 JUMP JUMPDEST PUSH2 0xBE5 ADDRESS PUSH1 0x1 PUSH1 0x1 PUSH1 0xA0 SHL SUB PUSH2 0x104 CALLDATALOAD AND EQ ISZERO PUSH2 0x40F9 JUMP JUMPDEST PUSH1 0x1 PUSH2 0x1F6 SLOAD ADD SWAP7 DUP8 PUSH2 0x1F6 SSTORE PUSH2 0xD0A PUSH2 0xD05 PUSH1 0x40 MLOAD PUSH2 0xC04 DUP2 PUSH2 0x322A JUMP JUMPDEST PUSH1 0x0 DUP2 MSTORE PUSH2 0xC1F PUSH1 0x1 PUSH1 0x1 PUSH1 0xA0 SHL SUB PUSH2 0x104 CALLDATALOAD AND ISZERO ISZERO PUSH2 0x4145 JUMP JUMPDEST PUSH2 0xC4B PUSH2 0xC45 PUSH2 0x144 CALLDATALOAD PUSH1 0x0 MSTORE PUSH1 0x67 PUSH1 0x20 MSTORE PUSH1 0x1 PUSH1 0x1 PUSH1 0xA0 SHL SUB PUSH1 0x40 PUSH1 0x0 KECCAK256 SLOAD AND ISZERO ISZERO SWAP1 JUMP JUMPDEST ISZERO PUSH2 0x4190 JUMP JUMPDEST PUSH2 0xC71 PUSH2 0xC45 PUSH2 0x144 CALLDATALOAD PUSH1 0x0 MSTORE PUSH1 0x67 PUSH1 0x20 MSTORE PUSH1 0x1 PUSH1 0x1 PUSH1 0xA0 SHL SUB PUSH1 0x40 PUSH1 0x0 KECCAK256 SLOAD AND ISZERO ISZERO SWAP1 JUMP JUMPDEST PUSH1 0x1 PUSH1 0x1 PUSH1 0xA0 SHL SUB PUSH2 0x104 CALLDATALOAD AND PUSH1 0x0 MSTORE PUSH1 0x68 PUSH1 0x20 MSTORE PUSH1 0x40 PUSH1 0x0 KECCAK256 PUSH1 0x1 DUP2 SLOAD ADD SWAP1 SSTORE PUSH2 0x144 CALLDATALOAD PUSH1 0x0 MSTORE PUSH1 0x67 PUSH1 0x20 MSTORE PUSH1 0x40 PUSH1 0x0 KECCAK256 PUSH1 0x1 PUSH1 0x1 PUSH1 0xA0 SHL SUB PUSH2 0x104 CALLDATALOAD AND PUSH1 0x1 PUSH1 0x1 PUSH1 0xA0 SHL SUB NOT DUP3 SLOAD AND OR SWAP1 SSTORE PUSH2 0x144 CALLDATALOAD PUSH1 0x1 PUSH1 0x1 PUSH1 0xA0 SHL SUB PUSH2 0x104 CALLDATALOAD AND PUSH1 0x0 PUSH32 0xDDF252AD1BE2C89B69C2B068FC378DAA952BA7F163C4A11628F55A4DF523B3EF DUP2 PUSH1 0x40 MLOAD LOG4 PUSH2 0x144 CALLDATALOAD PUSH2 0x104 CALLDATALOAD PUSH2 0x3B11 JUMP JUMPDEST PUSH2 0x38AA JUMP JUMPDEST PUSH2 0xD2D PUSH2 0x144 CALLDATALOAD PUSH1 0x0 MSTORE PUSH1 0x67 PUSH1 0x20 MSTORE PUSH1 0x1 PUSH1 0x1 PUSH1 0xA0 SHL SUB PUSH1 0x40 PUSH1 0x0 KECCAK256 SLOAD AND ISZERO ISZERO SWAP1 JUMP JUMPDEST ISZERO PUSH2 0x1A51 JUMPI PUSH2 0x144 CALLDATALOAD PUSH1 0x0 MSTORE PUSH1 0x97 PUSH1 0x20 MSTORE PUSH1 0x40 PUSH1 0x0 KECCAK256 DUP2 MLOAD PUSH8 0xFFFFFFFFFFFFFFFF DUP2 GT PUSH2 0x581 JUMPI PUSH2 0xD5E DUP3 SLOAD PUSH2 0x35E9 JUMP JUMPDEST PUSH1 0x1F DUP2 GT PUSH2 0x1A0D JUMPI JUMPDEST POP DUP1 PUSH1 0x20 PUSH1 0x1F DUP3 GT PUSH1 0x1 EQ PUSH2 0x19A6 JUMPI PUSH1 0x0 SWAP2 PUSH2 0x199B JUMPI JUMPDEST POP DUP2 PUSH1 0x1 SHL SWAP2 PUSH1 0x0 NOT SWAP1 PUSH1 0x3 SHL SHR NOT AND OR SWAP1 SSTORE JUMPDEST DUP8 PUSH1 0x0 MSTORE PUSH2 0x1FB PUSH1 0x20 MSTORE PUSH1 0x1 PUSH1 0x1 PUSH1 0xA0 SHL SUB PUSH2 0x104 CALLDATALOAD AND PUSH1 0x40 PUSH1 0x0 KECCAK256 SSTORE PUSH2 0xDB8 DUP9 PUSH2 0x44FB JUMP JUMPDEST POP PUSH1 0x1 PUSH1 0x1 PUSH1 0xA0 SHL SUB PUSH2 0x104 CALLDATALOAD AND PUSH1 0x0 MSTORE PUSH2 0x1F8 PUSH1 0x20 MSTORE PUSH2 0xDDD DUP9 PUSH1 0x40 PUSH1 0x0 KECCAK256 PUSH2 0x45A1 JUMP JUMPDEST POP PUSH2 0x144 CALLDATALOAD PUSH1 0x0 MSTORE PUSH2 0x1FC PUSH1 0x20 MSTORE DUP8 PUSH1 0x40 PUSH1 0x0 KECCAK256 SSTORE PUSH1 0x64 CALLDATALOAD ISZERO PUSH2 0x1956 JUMPI PUSH2 0xE11 PUSH1 0x1 PUSH1 0x1 PUSH1 0xA0 SHL SUB PUSH2 0x104 CALLDATALOAD AND ISZERO ISZERO PUSH2 0x4145 JUMP JUMPDEST DUP1 MLOAD ISZERO PUSH2 0x1911 JUMPI PUSH1 0x40 MLOAD PUSH2 0xE24 DUP2 PUSH2 0x320D JUMP JUMPDEST PUSH1 0x64 CALLDATALOAD DUP2 MSTORE PUSH2 0x144 CALLDATALOAD PUSH1 0x20 DUP3 ADD MSTORE TIMESTAMP PUSH1 0x40 DUP3 ADD MSTORE PUSH1 0x1 PUSH1 0x1 PUSH1 0xA0 SHL SUB PUSH2 0x104 CALLDATALOAD AND PUSH1 0x60 DUP3 ADD MSTORE DUP8 PUSH1 0x80 DUP3 ADD MSTORE DUP3 PUSH1 0xA0 DUP3 ADD MSTORE DUP6 PUSH1 0xC0 DUP3 ADD MSTORE DUP2 PUSH1 0xE0 DUP3 ADD MSTORE DUP10 PUSH2 0x100 DUP3 ADD MSTORE DUP4 PUSH2 0x120 DUP3 ADD MSTORE DUP5 PUSH2 0x140 DUP3 ADD MSTORE DUP7 PUSH2 0x160 DUP3 ADD MSTORE DUP9 PUSH1 0x0 MSTORE PUSH2 0x1F7 PUSH1 0x20 MSTORE PUSH1 0x40 PUSH1 0x0 KECCAK256 SWAP1 DUP1 MLOAD DUP3 SSTORE PUSH1 0x20 DUP2 ADD MLOAD PUSH1 0x1 DUP4 ADD SSTORE PUSH1 0x40 DUP2 ADD MLOAD PUSH1 0x2 DUP4 ADD SSTORE PUSH1 0x3 DUP3 ADD PUSH1 0x1 PUSH1 0x1 PUSH1 0xA0 SHL SUB PUSH1 0x60 DUP4 ADD MLOAD AND PUSH1 0x1 PUSH1 0x1 PUSH1 0xA0 SHL SUB NOT DUP3 SLOAD AND OR SWAP1 SSTORE PUSH1 0x80 DUP2 ADD MLOAD DUP1 MLOAD SWAP1 PUSH8 0xFFFFFFFFFFFFFFFF DUP3 GT PUSH2 0x581 JUMPI DUP2 SWAP1 PUSH2 0xEED PUSH1 0x4 DUP7 ADD SLOAD PUSH2 0x35E9 JUMP JUMPDEST PUSH1 0x1F DUP2 GT PUSH2 0x18BE JUMPI JUMPDEST POP PUSH1 0x20 SWAP1 PUSH1 0x1F DUP4 GT PUSH1 0x1 EQ PUSH2 0x184C JUMPI PUSH1 0x0 SWAP3 PUSH2 0x1841 JUMPI JUMPDEST POP POP DUP2 PUSH1 0x1 SHL SWAP2 PUSH1 0x0 NOT SWAP1 PUSH1 0x3 SHL SHR NOT AND OR PUSH1 0x4 DUP4 ADD SSTORE JUMPDEST PUSH1 0xA0 DUP2 ADD MLOAD DUP1 MLOAD SWAP1 PUSH8 0xFFFFFFFFFFFFFFFF DUP3 GT PUSH2 0x581 JUMPI DUP2 SWAP1 PUSH2 0xF4B PUSH1 0x5 DUP7 ADD SLOAD PUSH2 0x35E9 JUMP JUMPDEST PUSH1 0x1F DUP2 GT PUSH2 0x17EE JUMPI JUMPDEST POP PUSH1 0x20 SWAP1 PUSH1 0x1F DUP4 GT PUSH1 0x1 EQ PUSH2 0x177C JUMPI PUSH1 0x0 SWAP3 PUSH2 0x1771 JUMPI JUMPDEST POP POP DUP2 PUSH1 0x1 SHL SWAP2 PUSH1 0x0 NOT SWAP1 PUSH1 0x3 SHL SHR NOT AND OR PUSH1 0x5 DUP4 ADD SSTORE JUMPDEST PUSH1 0xC0 DUP2 ADD MLOAD DUP1 MLOAD SWAP1 PUSH8 0xFFFFFFFFFFFFFFFF DUP3 GT PUSH2 0x581 JUMPI DUP2 SWAP1 PUSH2 0xFA9 PUSH1 0x6 DUP7 ADD SLOAD PUSH2 0x35E9 JUMP JUMPDEST PUSH1 0x1F DUP2 GT PUSH2 0x171E JUMPI JUMPDEST POP PUSH1 0x20 SWAP1 PUSH1 0x1F DUP4 GT PUSH1 0x1 EQ PUSH2 0x16AC JUMPI PUSH1 0x0 SWAP3 PUSH2 0x16A1 JUMPI JUMPDEST POP POP DUP2 PUSH1 0x1 SHL SWAP2 PUSH1 0x0 NOT SWAP1 PUSH1 0x3 SHL SHR NOT AND OR PUSH1 0x6 DUP4 ADD SSTORE JUMPDEST PUSH1 0xE0 DUP2 ADD MLOAD DUP1 MLOAD SWAP1 PUSH8 0xFFFFFFFFFFFFFFFF DUP3 GT PUSH2 0x581 JUMPI DUP2 SWAP1 PUSH2 0x1007 PUSH1 0x7 DUP7 ADD SLOAD PUSH2 0x35E9 JUMP JUMPDEST PUSH1 0x1F DUP2 GT PUSH2 0x164E JUMPI JUMPDEST POP PUSH1 0x20 SWAP1 PUSH1 0x1F DUP4 GT PUSH1 0x1 EQ PUSH2 0x15DC JUMPI PUSH1 0x0 SWAP3 PUSH2 0x15D1 JUMPI JUMPDEST POP POP DUP2 PUSH1 0x1 SHL SWAP2 PUSH1 0x0 NOT SWAP1 PUSH1 0x3 SHL SHR NOT AND OR PUSH1 0x7 DUP4 ADD SSTORE JUMPDEST PUSH2 0x100 DUP2 ADD MLOAD DUP1 MLOAD SWAP1 PUSH8 0xFFFFFFFFFFFFFFFF DUP3 GT PUSH2 0x581 JUMPI DUP2 SWAP1 PUSH2 0x1066 PUSH1 0x8 DUP7 ADD SLOAD PUSH2 0x35E9 JUMP JUMPDEST PUSH1 0x1F DUP2 GT PUSH2 0x157E JUMPI JUMPDEST POP PUSH1 0x20 SWAP1 PUSH1 0x1F DUP4 GT PUSH1 0x1 EQ PUSH2 0x150C JUMPI PUSH1 0x0 SWAP3 PUSH2 0x1501 JUMPI JUMPDEST POP POP DUP2 PUSH1 0x1 SHL SWAP2 PUSH1 0x0 NOT SWAP1 PUSH1 0x3 SHL SHR NOT AND OR PUSH1 0x8 DUP4 ADD SSTORE JUMPDEST PUSH2 0x120 DUP2 ADD MLOAD DUP1 MLOAD SWAP1 PUSH8 0xFFFFFFFFFFFFFFFF DUP3 GT PUSH2 0x581 JUMPI DUP2 SWAP1 PUSH2 0x10C5 PUSH1 0x9 DUP7 ADD SLOAD PUSH2 0x35E9 JUMP JUMPDEST PUSH1 0x1F DUP2 GT PUSH2 0x14AE JUMPI JUMPDEST POP PUSH1 0x20 SWAP1 PUSH1 0x1F DUP4 GT PUSH1 0x1 EQ PUSH2 0x143C JUMPI PUSH1 0x0 SWAP3 PUSH2 0x1431 JUMPI JUMPDEST POP POP DUP2 PUSH1 0x1 SHL SWAP2 PUSH1 0x0 NOT SWAP1 PUSH1 0x3 SHL SHR NOT AND OR PUSH1 0x9 DUP4 ADD SSTORE JUMPDEST PUSH2 0x140 DUP2 ADD MLOAD DUP1 MLOAD SWAP1 PUSH8 0xFFFFFFFFFFFFFFFF DUP3 GT PUSH2 0x581 JUMPI PUSH2 0x1122 PUSH1 0xA DUP6 ADD SLOAD PUSH2 0x35E9 JUMP JUMPDEST PUSH1 0x1F DUP2 GT PUSH2 0x13EA JUMPI JUMPDEST POP PUSH1 0x20 SWAP1 PUSH1 0x1F DUP4 GT PUSH1 0x1 EQ PUSH2 0x1376 JUMPI PUSH2 0x160 SWAP4 SWAP3 SWAP2 PUSH1 0x0 SWAP2 DUP4 PUSH2 0x136B JUMPI JUMPDEST POP POP DUP2 PUSH1 0x1 SHL SWAP2 PUSH1 0x0 NOT SWAP1 PUSH1 0x3 SHL SHR NOT AND OR PUSH1 0xA DUP5 ADD SSTORE JUMPDEST ADD MLOAD DUP1 MLOAD SWAP1 PUSH8 0xFFFFFFFFFFFFFFFF DUP3 GT PUSH2 0x581 JUMPI PUSH2 0x1182 PUSH1 0xB DUP5 ADD SLOAD PUSH2 0x35E9 JUMP JUMPDEST PUSH1 0x1F DUP2 GT PUSH2 0x1324 JUMPI JUMPDEST POP PUSH1 0x20 SWAP1 PUSH1 0x1F DUP4 GT PUSH1 0x1 EQ PUSH2 0x12AF JUMPI SWAP2 DUP1 PUSH1 0xB SWAP3 PUSH2 0x11C7 SWAP7 SWAP6 SWAP5 PUSH1 0x0 SWAP3 PUSH2 0x12A4 JUMPI JUMPDEST POP POP DUP2 PUSH1 0x1 SHL SWAP2 PUSH1 0x0 NOT SWAP1 PUSH1 0x3 SHL SHR NOT AND OR SWAP2 ADD SSTORE PUSH2 0x3DA1 JUMP JUMPDEST SWAP8 PUSH1 0x40 MLOAD SWAP8 DUP9 SWAP8 PUSH2 0x180 DUP1 DUP11 MSTORE DUP10 ADD PUSH2 0x11DF SWAP2 PUSH2 0x30A3 JUMP JUMPDEST SWAP1 PUSH2 0x144 CALLDATALOAD PUSH1 0x20 DUP11 ADD MSTORE PUSH1 0x40 DUP10 ADD MSTORE TIMESTAMP PUSH1 0x60 DUP10 ADD MSTORE PUSH1 0x64 CALLDATALOAD PUSH1 0x80 DUP10 ADD MSTORE PUSH2 0x104 CALLDATALOAD PUSH1 0x1 PUSH1 0x1 PUSH1 0xA0 SHL SUB AND PUSH1 0xA0 DUP10 ADD MSTORE DUP8 DUP2 SUB PUSH1 0xC0 DUP10 ADD MSTORE PUSH2 0x121F SWAP2 PUSH2 0x30A3 JUMP JUMPDEST DUP7 DUP2 SUB PUSH1 0xE0 DUP9 ADD MSTORE PUSH2 0x1230 SWAP2 PUSH2 0x30A3 JUMP JUMPDEST DUP6 DUP2 SUB PUSH2 0x100 DUP8 ADD MSTORE PUSH2 0x1242 SWAP2 PUSH2 0x30A3 JUMP JUMPDEST DUP5 DUP2 SUB PUSH2 0x120 DUP7 ADD MSTORE PUSH2 0x1254 SWAP2 PUSH2 0x30A3 JUMP JUMPDEST DUP4 DUP2 SUB PUSH2 0x140 DUP6 ADD MSTORE PUSH2 0x1266 SWAP2 PUSH2 0x30A3 JUMP JUMPDEST DUP3 DUP2 SUB PUSH2 0x160 DUP5 ADD MSTORE PUSH2 0x1278 SWAP2 PUSH2 0x30A3 JUMP JUMPDEST SUB PUSH32 0xE03DCB5FD6B12F1739F057896DB270C0503A7C04675836911F911094612022EB SWAP2 LOG2 PUSH1 0x1 PUSH2 0x1C3 SSTORE STOP JUMPDEST ADD MLOAD SWAP1 POP DUP15 DUP1 PUSH2 0x11AD JUMP JUMPDEST SWAP1 PUSH1 0xB DUP5 ADD PUSH1 0x0 MSTORE PUSH1 0x20 PUSH1 0x0 KECCAK256 SWAP2 PUSH1 0x0 JUMPDEST PUSH1 0x1F NOT DUP6 AND DUP2 LT PUSH2 0x130C JUMPI POP SWAP3 PUSH1 0xB SWAP3 PUSH1 0x1 SWAP3 PUSH2 0x11C7 SWAP8 SWAP7 SWAP6 DUP4 PUSH1 0x1F NOT DUP2 AND LT PUSH2 0x12F3 JUMPI JUMPDEST POP POP POP DUP2 SHL ADD SWAP2 ADD SSTORE PUSH2 0x3DA1 JUMP JUMPDEST ADD MLOAD PUSH1 0x0 NOT PUSH1 0xF8 DUP5 PUSH1 0x3 SHL AND SHR NOT AND SWAP1 SSTORE DUP15 DUP1 DUP1 PUSH2 0x12E5 JUMP JUMPDEST SWAP2 SWAP3 PUSH1 0x20 PUSH1 0x1 DUP2 SWAP3 DUP7 DUP6 ADD MLOAD DUP2 SSTORE ADD SWAP5 ADD SWAP3 ADD PUSH2 0x12C0 JUMP JUMPDEST PUSH1 0xB DUP5 ADD PUSH1 0x0 MSTORE PUSH1 0x20 PUSH1 0x0 KECCAK256 PUSH1 0x1F DUP5 ADD PUSH1 0x5 SHR DUP2 ADD PUSH1 0x20 DUP6 LT PUSH2 0x1364 JUMPI JUMPDEST PUSH1 0x1F DUP4 ADD PUSH1 0x5 SHR DUP3 ADD DUP2 LT PUSH2 0x1358 JUMPI POP POP PUSH2 0x118B JUMP JUMPDEST PUSH1 0x0 DUP2 SSTORE PUSH1 0x1 ADD PUSH2 0x1342 JUMP JUMPDEST POP DUP1 PUSH2 0x1342 JUMP JUMPDEST ADD MLOAD SWAP1 POP DUP15 DUP1 PUSH2 0x1149 JUMP JUMPDEST SWAP1 PUSH1 0xA DUP6 ADD PUSH1 0x0 MSTORE PUSH1 0x20 PUSH1 0x0 KECCAK256 SWAP2 PUSH1 0x0 JUMPDEST PUSH1 0x1F NOT DUP6 AND DUP2 LT PUSH2 0x13D2 JUMPI POP SWAP2 DUP4 SWAP2 PUSH1 0x1 SWAP4 PUSH2 0x160 SWAP7 SWAP6 PUSH1 0x1F NOT DUP2 AND LT PUSH2 0x13B9 JUMPI JUMPDEST POP POP POP DUP2 SHL ADD PUSH1 0xA DUP5 ADD SSTORE PUSH2 0x1161 JUMP JUMPDEST ADD MLOAD PUSH1 0x0 NOT PUSH1 0xF8 DUP5 PUSH1 0x3 SHL AND SHR NOT AND SWAP1 SSTORE DUP15 DUP1 DUP1 PUSH2 0x13A9 JUMP JUMPDEST SWAP2 SWAP3 PUSH1 0x20 PUSH1 0x1 DUP2 SWAP3 DUP7 DUP6 ADD MLOAD DUP2 SSTORE ADD SWAP5 ADD SWAP3 ADD PUSH2 0x1387 JUMP JUMPDEST PUSH1 0xA DUP6 ADD PUSH1 0x0 MSTORE PUSH1 0x20 PUSH1 0x0 KECCAK256 PUSH1 0x1F DUP5 ADD PUSH1 0x5 SHR DUP2 ADD PUSH1 0x20 DUP6 LT PUSH2 0x142A JUMPI JUMPDEST PUSH1 0x1F DUP4 ADD PUSH1 0x5 SHR DUP3 ADD DUP2 LT PUSH2 0x141E JUMPI POP POP PUSH2 0x112B JUMP JUMPDEST PUSH1 0x0 DUP2 SSTORE PUSH1 0x1 ADD PUSH2 0x1408 JUMP JUMPDEST POP DUP1 PUSH2 0x1408 JUMP JUMPDEST ADD MLOAD SWAP1 POP DUP14 DUP1 PUSH2 0x10E5 JUMP JUMPDEST SWAP3 POP PUSH1 0x9 DUP6 ADD PUSH1 0x0 MSTORE PUSH1 0x20 PUSH1 0x0 KECCAK256 SWAP1 PUSH1 0x0 SWAP4 JUMPDEST PUSH1 0x1F NOT DUP5 AND DUP6 LT PUSH2 0x1493 JUMPI PUSH1 0x1 SWAP5 POP DUP4 PUSH1 0x1F NOT DUP2 AND LT PUSH2 0x147A JUMPI JUMPDEST POP POP POP DUP2 SHL ADD PUSH1 0x9 DUP4 ADD SSTORE PUSH2 0x10FD JUMP JUMPDEST ADD MLOAD PUSH1 0x0 NOT PUSH1 0xF8 DUP5 PUSH1 0x3 SHL AND SHR NOT AND SWAP1 SSTORE DUP14 DUP1 DUP1 PUSH2 0x146A JUMP JUMPDEST DUP2 DUP2 ADD MLOAD DUP4 SSTORE PUSH1 0x20 SWAP5 DUP6 ADD SWAP5 PUSH1 0x1 SWAP1 SWAP4 ADD SWAP3 SWAP1 SWAP2 ADD SWAP1 PUSH2 0x144F JUMP JUMPDEST SWAP1 SWAP2 POP PUSH1 0x9 DUP6 ADD PUSH1 0x0 MSTORE PUSH1 0x20 PUSH1 0x0 KECCAK256 PUSH1 0x1F DUP5 ADD PUSH1 0x5 SHR DUP2 ADD PUSH1 0x20 DUP6 LT PUSH2 0x14FA JUMPI JUMPDEST SWAP1 DUP5 SWAP4 SWAP3 SWAP2 JUMPDEST PUSH1 0x1F DUP4 ADD PUSH1 0x5 SHR DUP3 ADD DUP2 LT PUSH2 0x14EB JUMPI POP POP PUSH2 0x10CE JUMP JUMPDEST PUSH1 0x0 DUP2 SSTORE DUP6 SWAP5 POP PUSH1 0x1 ADD PUSH2 0x14D5 JUMP JUMPDEST POP DUP1 PUSH2 0x14CF JUMP JUMPDEST ADD MLOAD SWAP1 POP DUP14 DUP1 PUSH2 0x1086 JUMP JUMPDEST SWAP3 POP PUSH1 0x8 DUP6 ADD PUSH1 0x0 MSTORE PUSH1 0x20 PUSH1 0x0 KECCAK256 SWAP1 PUSH1 0x0 SWAP4 JUMPDEST PUSH1 0x1F NOT DUP5 AND DUP6 LT PUSH2 0x1563 JUMPI PUSH1 0x1 SWAP5 POP DUP4 PUSH1 0x1F NOT DUP2 AND LT PUSH2 0x154A JUMPI JUMPDEST POP POP POP DUP2 SHL ADD PUSH1 0x8 DUP4 ADD SSTORE PUSH2 0x109E JUMP JUMPDEST ADD MLOAD PUSH1 0x0 NOT PUSH1 0xF8 DUP5 PUSH1 0x3 SHL AND SHR NOT AND SWAP1 SSTORE DUP14 DUP1 DUP1 PUSH2 0x153A JUMP JUMPDEST DUP2 DUP2 ADD MLOAD DUP4 SSTORE PUSH1 0x20 SWAP5 DUP6 ADD SWAP5 PUSH1 0x1 SWAP1 SWAP4 ADD SWAP3 SWAP1 SWAP2 ADD SWAP1 PUSH2 0x151F JUMP JUMPDEST SWAP1 SWAP2 POP PUSH1 0x8 DUP6 ADD PUSH1 0x0 MSTORE PUSH1 0x20 PUSH1 0x0 KECCAK256 PUSH1 0x1F DUP5 ADD PUSH1 0x5 SHR DUP2 ADD PUSH1 0x20 DUP6 LT PUSH2 0x15CA JUMPI JUMPDEST SWAP1 DUP5 SWAP4 SWAP3 SWAP2 JUMPDEST PUSH1 0x1F DUP4 ADD PUSH1 0x5 SHR DUP3 ADD DUP2 LT PUSH2 0x15BB JUMPI POP POP PUSH2 0x106F JUMP JUMPDEST PUSH1 0x0 DUP2 SSTORE DUP6 SWAP5 POP PUSH1 0x1 ADD PUSH2 0x15A5 JUMP JUMPDEST POP DUP1 PUSH2 0x159F JUMP JUMPDEST ADD MLOAD SWAP1 POP DUP14 DUP1 PUSH2 0x1027 JUMP JUMPDEST SWAP3 POP PUSH1 0x7 DUP6 ADD PUSH1 0x0 MSTORE PUSH1 0x20 PUSH1 0x0 KECCAK256 SWAP1 PUSH1 0x0 SWAP4 JUMPDEST PUSH1 0x1F NOT DUP5 AND DUP6 LT PUSH2 0x1633 JUMPI PUSH1 0x1 SWAP5 POP DUP4 PUSH1 0x1F NOT DUP2 AND LT PUSH2 0x161A JUMPI JUMPDEST POP POP POP DUP2 SHL ADD PUSH1 0x7 DUP4 ADD SSTORE PUSH2 0x103F JUMP JUMPDEST ADD MLOAD PUSH1 0x0 NOT PUSH1 0xF8 DUP5 PUSH1 0x3 SHL AND SHR NOT AND SWAP1 SSTORE DUP14 DUP1 DUP1 PUSH2 0x160A JUMP JUMPDEST DUP2 DUP2 ADD MLOAD DUP4 SSTORE PUSH1 0x20 SWAP5 DUP6 ADD SWAP5 PUSH1 0x1 SWAP1 SWAP4 ADD SWAP3 SWAP1 SWAP2 ADD SWAP1 PUSH2 0x15EF JUMP JUMPDEST SWAP1 SWAP2 POP PUSH1 0x7 DUP6 ADD PUSH1 0x0 MSTORE PUSH1 0x20 PUSH1 0x0 KECCAK256 PUSH1 0x1F DUP5 ADD PUSH1 0x5 SHR DUP2 ADD PUSH1 0x20 DUP6 LT PUSH2 0x169A JUMPI JUMPDEST SWAP1 DUP5 SWAP4 SWAP3 SWAP2 JUMPDEST PUSH1 0x1F DUP4 ADD PUSH1 0x5 SHR DUP3 ADD DUP2 LT PUSH2 0x168B JUMPI POP POP PUSH2 0x1010 JUMP JUMPDEST PUSH1 0x0 DUP2 SSTORE DUP6 SWAP5 POP PUSH1 0x1 ADD PUSH2 0x1675 JUMP JUMPDEST POP DUP1 PUSH2 0x166F JUMP JUMPDEST ADD MLOAD SWAP1 POP DUP14 DUP1 PUSH2 0xFC9 JUMP JUMPDEST SWAP3 POP PUSH1 0x6 DUP6 ADD PUSH1 0x0 MSTORE PUSH1 0x20 PUSH1 0x0 KECCAK256 SWAP1 PUSH1 0x0 SWAP4 JUMPDEST PUSH1 0x1F NOT DUP5 AND DUP6 LT PUSH2 0x1703 JUMPI PUSH1 0x1 SWAP5 POP DUP4 PUSH1 0x1F NOT DUP2 AND LT PUSH2 0x16EA JUMPI JUMPDEST POP POP POP DUP2 SHL ADD PUSH1 0x6 DUP4 ADD SSTORE PUSH2 0xFE1 JUMP JUMPDEST ADD MLOAD PUSH1 0x0 NOT PUSH1 0xF8 DUP5 PUSH1 0x3 SHL AND SHR NOT AND SWAP1 SSTORE DUP14 DUP1 DUP1 PUSH2 0x16DA JUMP JUMPDEST DUP2 DUP2 ADD MLOAD DUP4 SSTORE PUSH1 0x20 SWAP5 DUP6 ADD SWAP5 PUSH1 0x1 SWAP1 SWAP4 ADD SWAP3 SWAP1 SWAP2 ADD SWAP1 PUSH2 0x16BF JUMP JUMPDEST SWAP1 SWAP2 POP PUSH1 0x6 DUP6 ADD PUSH1 0x0 MSTORE PUSH1 0x20 PUSH1 0x0 KECCAK256 PUSH1 0x1F DUP5 ADD PUSH1 0x5 SHR DUP2 ADD PUSH1 0x20 DUP6 LT PUSH2 0x176A JUMPI JUMPDEST SWAP1 DUP5 SWAP4 SWAP3 SWAP2 JUMPDEST PUSH1 0x1F DUP4 ADD PUSH1 0x5 SHR DUP3 ADD DUP2 LT PUSH2 0x175B JUMPI POP POP PUSH2 0xFB2 JUMP JUMPDEST PUSH1 0x0 DUP2 SSTORE DUP6 SWAP5 POP PUSH1 0x1 ADD PUSH2 0x1745 JUMP JUMPDEST POP DUP1 PUSH2 0x173F JUMP JUMPDEST ADD MLOAD SWAP1 POP DUP14 DUP1 PUSH2 0xF6B JUMP JUMPDEST SWAP3 POP PUSH1 0x5 DUP6 ADD PUSH1 0x0 MSTORE PUSH1 0x20 PUSH1 0x0 KECCAK256 SWAP1 PUSH1 0x0 SWAP4 JUMPDEST PUSH1 0x1F NOT DUP5 AND DUP6 LT PUSH2 0x17D3 JUMPI PUSH1 0x1 SWAP5 POP DUP4 PUSH1 0x1F NOT DUP2 AND LT PUSH2 0x17BA JUMPI JUMPDEST POP POP POP DUP2 SHL ADD PUSH1 0x5 DUP4 ADD SSTORE PUSH2 0xF83 JUMP JUMPDEST ADD MLOAD PUSH1 0x0 NOT PUSH1 0xF8 DUP5 PUSH1 0x3 SHL AND SHR NOT AND SWAP1 SSTORE DUP14 DUP1 DUP1 PUSH2 0x17AA JUMP JUMPDEST DUP2 DUP2 ADD MLOAD DUP4 SSTORE PUSH1 0x20 SWAP5 DUP6 ADD SWAP5 PUSH1 0x1 SWAP1 SWAP4 ADD SWAP3 SWAP1 SWAP2 ADD SWAP1 PUSH2 0x178F JUMP JUMPDEST SWAP1 SWAP2 POP PUSH1 0x5 DUP6 ADD PUSH1 0x0 MSTORE PUSH1 0x20 PUSH1 0x0 KECCAK256 PUSH1 0x1F DUP5 ADD PUSH1 0x5 SHR DUP2 ADD PUSH1 0x20 DUP6 LT PUSH2 0x183A JUMPI JUMPDEST SWAP1 DUP5 SWAP4 SWAP3 SWAP2 JUMPDEST PUSH1 0x1F DUP4 ADD PUSH1 0x5 SHR DUP3 ADD DUP2 LT PUSH2 0x182B JUMPI POP POP PUSH2 0xF54 JUMP JUMPDEST PUSH1 0x0 DUP2 SSTORE DUP6 SWAP5 POP PUSH1 0x1 ADD PUSH2 0x1815 JUMP JUMPDEST POP DUP1 PUSH2 0x180F JUMP JUMPDEST ADD MLOAD SWAP1 POP DUP14 DUP1 PUSH2 0xF0D JUMP JUMPDEST SWAP3 POP PUSH1 0x4 DUP6 ADD PUSH1 0x0 MSTORE PUSH1 0x20 PUSH1 0x0 KECCAK256 SWAP1 PUSH1 0x0 SWAP4 JUMPDEST PUSH1 0x1F NOT DUP5 AND DUP6 LT PUSH2 0x18A3 JUMPI PUSH1 0x1 SWAP5 POP DUP4 PUSH1 0x1F NOT DUP2 AND LT PUSH2 0x188A JUMPI JUMPDEST POP POP POP DUP2 SHL ADD PUSH1 0x4 DUP4 ADD SSTORE PUSH2 0xF25 JUMP JUMPDEST ADD MLOAD PUSH1 0x0 NOT PUSH1 0xF8 DUP5 PUSH1 0x3 SHL AND SHR NOT AND SWAP1 SSTORE DUP14 DUP1 DUP1 PUSH2 0x187A JUMP JUMPDEST DUP2 DUP2 ADD MLOAD DUP4 SSTORE PUSH1 0x20 SWAP5 DUP6 ADD SWAP5 PUSH1 0x1 SWAP1 SWAP4 ADD SWAP3 SWAP1 SWAP2 ADD SWAP1 PUSH2 0x185F JUMP JUMPDEST SWAP1 SWAP2 POP PUSH1 0x4 DUP6 ADD PUSH1 0x0 MSTORE PUSH1 0x20 PUSH1 0x0 KECCAK256 PUSH1 0x1F DUP5 ADD PUSH1 0x5 SHR DUP2 ADD PUSH1 0x20 DUP6 LT PUSH2 0x190A JUMPI JUMPDEST SWAP1 DUP5 SWAP4 SWAP3 SWAP2 JUMPDEST PUSH1 0x1F DUP4 ADD PUSH1 0x5 SHR DUP3 ADD DUP2 LT PUSH2 0x18FB JUMPI POP POP PUSH2 0xEF6 JUMP JUMPDEST PUSH1 0x0 DUP2 SSTORE DUP6 SWAP5 POP PUSH1 0x1 ADD PUSH2 0x18E5 JUMP JUMPDEST POP DUP1 PUSH2 0x18DF JUMP JUMPDEST PUSH1 0x40 MLOAD PUSH3 0x461BCD PUSH1 0xE5 SHL DUP2 MSTORE PUSH1 0x20 PUSH1 0x4 DUP3 ADD MSTORE PUSH1 0x13 PUSH1 0x24 DUP3 ADD MSTORE PUSH32 0x546F6B656E2075726C2069732020656D70747900000000000000000000000000 PUSH1 0x44 DUP3 ADD MSTORE PUSH1 0x64 SWAP1 REVERT JUMPDEST PUSH1 0x40 MLOAD PUSH3 0x461BCD PUSH1 0xE5 SHL DUP2 MSTORE PUSH1 0x20 PUSH1 0x4 DUP3 ADD MSTORE PUSH1 0x1C PUSH1 0x24 DUP3 ADD MSTORE PUSH32 0x5072696365206D757374206265206174206C6561737420312077656900000000 PUSH1 0x44 DUP3 ADD MSTORE PUSH1 0x64 SWAP1 REVERT JUMPDEST SWAP1 POP DUP4 ADD MLOAD DUP13 PUSH2 0xD7E JUMP JUMPDEST SWAP2 POP DUP3 PUSH1 0x0 MSTORE PUSH1 0x20 PUSH1 0x0 KECCAK256 PUSH1 0x0 SWAP3 JUMPDEST PUSH1 0x1F NOT DUP4 AND DUP5 LT PUSH2 0x19F5 JUMPI PUSH1 0x1 SWAP4 POP DUP3 PUSH1 0x1F NOT DUP2 AND LT PUSH2 0x19DC JUMPI JUMPDEST POP POP DUP2 SHL ADD SWAP1 SSTORE PUSH2 0xD92 JUMP JUMPDEST DUP6 ADD MLOAD PUSH1 0x0 NOT PUSH1 0xF8 DUP5 PUSH1 0x3 SHL AND SHR NOT AND SWAP1 SSTORE DUP13 DUP1 PUSH2 0x19D0 JUMP JUMPDEST DUP6 DUP2 ADD MLOAD DUP3 SSTORE PUSH1 0x20 SWAP4 DUP5 ADD SWAP4 PUSH1 0x1 SWAP1 SWAP3 ADD SWAP2 ADD PUSH2 0x19B5 JUMP JUMPDEST DUP3 PUSH1 0x0 MSTORE PUSH1 0x20 PUSH1 0x0 KECCAK256 PUSH1 0x1F DUP4 ADD PUSH1 0x5 SHR DUP2 ADD PUSH1 0x20 DUP5 LT PUSH2 0x1A4A JUMPI JUMPDEST PUSH1 0x1F DUP4 ADD PUSH1 0x5 SHR DUP3 ADD DUP2 LT PUSH2 0x1A3E JUMPI POP POP PUSH2 0xD67 JUMP JUMPDEST PUSH1 0x0 DUP2 SSTORE PUSH1 0x1 ADD PUSH2 0x1A28 JUMP JUMPDEST POP DUP1 PUSH2 0x1A28 JUMP JUMPDEST PUSH1 0x40 MLOAD PUSH3 0x461BCD PUSH1 0xE5 SHL DUP2 MSTORE PUSH1 0x20 PUSH1 0x4 DUP3 ADD MSTORE PUSH1 0x2E PUSH1 0x24 DUP3 ADD MSTORE PUSH32 0x45524337323155524953746F726167653A2055524920736574206F66206E6F6E PUSH1 0x44 DUP3 ADD MSTORE PUSH32 0x6578697374656E7420746F6B656E000000000000000000000000000000000000 PUSH1 0x64 DUP3 ADD MSTORE PUSH1 0x84 SWAP1 REVERT JUMPDEST PUSH1 0x64 PUSH1 0x40 MLOAD PUSH3 0x461BCD PUSH1 0xE5 SHL DUP2 MSTORE PUSH1 0x20 PUSH1 0x4 DUP3 ADD MSTORE PUSH1 0x20 PUSH1 0x24 DUP3 ADD MSTORE PUSH32 0x4552433732313A2070766E20746F6B656E20616C7265616479206D696E746564 PUSH1 0x44 DUP3 ADD MSTORE REVERT JUMPDEST PUSH1 0x40 MLOAD PUSH3 0x461BCD PUSH1 0xE5 SHL DUP2 MSTORE PUSH1 0x20 PUSH1 0x4 DUP3 ADD MSTORE PUSH1 0x1F PUSH1 0x24 DUP3 ADD MSTORE PUSH32 0x5265656E7472616E637947756172643A207265656E7472616E742063616C6C00 PUSH1 0x44 DUP3 ADD MSTORE PUSH1 0x64 SWAP1 REVERT JUMPDEST CALLVALUE PUSH2 0x905 JUMPI PUSH1 0x20 CALLDATASIZE PUSH1 0x3 NOT ADD SLT PUSH2 0x905 JUMPI PUSH1 0x4 CALLDATALOAD PUSH2 0x1B79 DUP2 PUSH1 0x0 MSTORE PUSH1 0x67 PUSH1 0x20 MSTORE PUSH1 0x1 PUSH1 0x1 PUSH1 0xA0 SHL SUB PUSH1 0x40 PUSH1 0x0 KECCAK256 SLOAD AND ISZERO ISZERO SWAP1 JUMP JUMPDEST ISZERO PUSH2 0x1BA2 JUMPI PUSH2 0x1B8A PUSH2 0x1B9E SWAP2 PUSH2 0x3E6B JUMP JUMPDEST PUSH1 0x40 MLOAD SWAP2 DUP3 SWAP2 PUSH1 0x20 DUP4 MSTORE PUSH1 0x20 DUP4 ADD SWAP1 PUSH2 0x30A3 JUMP JUMPDEST SUB SWAP1 RETURN JUMPDEST PUSH1 0x40 MLOAD PUSH3 0x461BCD PUSH1 0xE5 SHL DUP2 MSTORE PUSH1 0x20 PUSH1 0x4 DUP3 ADD MSTORE PUSH1 0x31 PUSH1 0x24 DUP3 ADD MSTORE PUSH32 0x45524337323155524953746F726167653A2055524920717565727920666F7220 PUSH1 0x44 DUP3 ADD MSTORE PUSH32 0x6E6F6E6578697374656E7420746F6B656E000000000000000000000000000000 PUSH1 0x64 DUP3 ADD MSTORE PUSH1 0x84 SWAP1 REVERT JUMPDEST CALLVALUE PUSH2 0x905 JUMPI PUSH1 0x20 CALLDATASIZE PUSH1 0x3 NOT ADD SLT PUSH2 0x905 JUMPI PUSH2 0x1C26 PUSH2 0x30C8 JUMP JUMPDEST CALLER ISZERO PUSH2 0x905 JUMPI PUSH2 0x1C37 PUSH1 0x20 SWAP2 PUSH2 0x43B1 JUMP JUMPDEST PUSH1 0x40 MLOAD SWAP1 DUP2 MSTORE RETURN JUMPDEST CALLVALUE PUSH2 0x905 JUMPI PUSH1 0x0 CALLDATASIZE PUSH1 0x3 NOT ADD SLT PUSH2 0x905 JUMPI PUSH1 0x20 PUSH2 0x1F6 SLOAD PUSH1 0x40 MLOAD SWAP1 DUP2 MSTORE RETURN JUMPDEST CALLVALUE PUSH2 0x905 JUMPI PUSH1 0x80 CALLDATASIZE PUSH1 0x3 NOT ADD SLT PUSH2 0x905 JUMPI PUSH2 0x1C77 PUSH2 0x30C8 JUMP JUMPDEST PUSH2 0x1C7F PUSH2 0x30DE JUMP JUMPDEST SWAP1 PUSH1 0x64 CALLDATALOAD SWAP1 PUSH1 0x44 CALLDATALOAD PUSH8 0xFFFFFFFFFFFFFFFF DUP4 GT PUSH2 0x905 JUMPI PUSH2 0x456 SWAP4 PUSH2 0x1CAB PUSH2 0xD05 SWAP5 CALLDATASIZE SWAP1 PUSH1 0x4 ADD PUSH2 0x32DC JUMP JUMPDEST SWAP3 PUSH2 0x1CBE PUSH2 0x1CB9 DUP5 CALLER PUSH2 0x3920 JUMP JUMPDEST PUSH2 0x3838 JUMP JUMPDEST PUSH2 0x1CC9 DUP4 DUP4 DUP4 PUSH2 0x3A00 JUMP JUMPDEST PUSH2 0x3C8E JUMP JUMPDEST CALLVALUE PUSH2 0x905 JUMPI PUSH1 0x40 CALLDATASIZE PUSH1 0x3 NOT ADD SLT PUSH2 0x905 JUMPI PUSH2 0x1CE7 PUSH2 0x30C8 JUMP JUMPDEST PUSH1 0x24 CALLDATALOAD SWAP1 DUP2 ISZERO ISZERO DUP1 SWAP3 SUB PUSH2 0x905 JUMPI PUSH1 0x1 PUSH1 0x1 PUSH1 0xA0 SHL SUB AND SWAP1 DUP2 CALLER EQ PUSH2 0x1D5B JUMPI CALLER PUSH1 0x0 MSTORE PUSH1 0x6A PUSH1 0x20 MSTORE PUSH1 0x40 PUSH1 0x0 KECCAK256 DUP3 PUSH1 0x0 MSTORE PUSH1 0x20 MSTORE PUSH1 0x40 PUSH1 0x0 KECCAK256 PUSH1 0xFF NOT DUP2 SLOAD AND PUSH1 0xFF DUP4 AND OR SWAP1 SSTORE PUSH1 0x40 MLOAD SWAP1 DUP2 MSTORE PUSH32 0x17307EAB39AB6107E8899845AD3D59BD9653F200F220920489CA2B5937696C31 PUSH1 0x20 CALLER SWAP3 LOG3 STOP JUMPDEST PUSH1 0x40 MLOAD PUSH3 0x461BCD PUSH1 0xE5 SHL DUP2 MSTORE PUSH1 0x20 PUSH1 0x4 DUP3 ADD MSTORE PUSH1 0x19 PUSH1 0x24 DUP3 ADD MSTORE PUSH32 0x4552433732313A20617070726F766520746F2063616C6C657200000000000000 PUSH1 0x44 DUP3 ADD MSTORE PUSH1 0x64 SWAP1 REVERT JUMPDEST CALLVALUE PUSH2 0x905 JUMPI PUSH1 0x0 CALLDATASIZE PUSH1 0x3 NOT ADD SLT PUSH2 0x905 JUMPI PUSH1 0x40 MLOAD PUSH1 0x0 PUSH1 0x66 SLOAD PUSH2 0x1DC2 DUP2 PUSH2 0x35E9 JUMP JUMPDEST DUP1 DUP5 MSTORE SWAP1 PUSH1 0x1 SWAP1 DUP2 DUP2 AND SWAP1 DUP2 ISZERO PUSH2 0x1E47 JUMPI POP PUSH1 0x1 EQ PUSH2 0x1DEC JUMPI JUMPDEST PUSH2 0x1B9E DUP5 PUSH2 0x1B8A DUP2 DUP7 SUB DUP3 PUSH2 0x327E JUMP JUMPDEST PUSH1 0x66 PUSH1 0x0 SWAP1 DUP2 MSTORE SWAP3 POP PUSH32 0x46501879B8CA8525E8C2FD519E2FBFCFA2EBEA26501294AA02CBFCFB12E94354 JUMPDEST DUP3 DUP5 LT PUSH2 0x1E2F JUMPI POP POP POP DUP2 ADD PUSH1 0x20 ADD PUSH2 0x1B8A DUP3 PUSH2 0x1DDC JUMP JUMPDEST DUP1 SLOAD PUSH1 0x20 DUP6 DUP8 ADD DUP2 ADD SWAP2 SWAP1 SWAP2 MSTORE SWAP1 SWAP4 ADD SWAP3 DUP2 ADD PUSH2 0x1E17 JUMP JUMPDEST PUSH1 0xFF NOT AND PUSH1 0x20 DUP1 DUP8 ADD SWAP2 SWAP1 SWAP2 MSTORE SWAP3 ISZERO ISZERO PUSH1 0x5 SHL DUP6 ADD SWAP1 SWAP3 ADD SWAP3 POP PUSH2 0x1B8A SWAP2 POP DUP4 SWAP1 POP PUSH2 0x1DDC JUMP JUMPDEST CALLVALUE PUSH2 0x905 JUMPI PUSH1 0x0 CALLDATASIZE PUSH1 0x3 NOT ADD SLT PUSH2 0x905 JUMPI PUSH2 0x1F6 SLOAD PUSH2 0x1E8C DUP2 PUSH2 0x42C3 JUMP JUMPDEST SWAP1 PUSH1 0x0 JUMPDEST DUP2 DUP2 LT PUSH2 0x1EA5 JUMPI PUSH1 0x40 MLOAD DUP1 PUSH2 0x1B9E DUP6 DUP3 PUSH2 0x3323 JUMP JUMPDEST PUSH2 0x1EAE DUP2 PUSH2 0x433D JUMP JUMPDEST PUSH1 0x0 MSTORE PUSH1 0x20 SWAP1 PUSH2 0x1F7 DUP3 MSTORE PUSH1 0x40 PUSH1 0x0 KECCAK256 PUSH2 0x1F7C PUSH1 0xB PUSH1 0x40 MLOAD SWAP3 PUSH2 0x1ED0 DUP5 PUSH2 0x320D JUMP JUMPDEST DUP1 SLOAD DUP5 MSTORE PUSH1 0x1 SWAP6 DUP7 DUP3 ADD SLOAD SWAP1 DUP6 ADD MSTORE PUSH1 0x2 DUP2 ADD SLOAD PUSH1 0x40 DUP6 ADD MSTORE PUSH1 0x1 PUSH1 0x1 PUSH1 0xA0 SHL SUB PUSH1 0x3 DUP3 ADD SLOAD AND PUSH1 0x60 DUP6 ADD MSTORE PUSH2 0x1F08 PUSH1 0x4 DUP3 ADD PUSH2 0x36E5 JUMP JUMPDEST PUSH1 0x80 DUP6 ADD MSTORE PUSH2 0x1F19 PUSH1 0x5 DUP3 ADD PUSH2 0x36E5 JUMP JUMPDEST PUSH1 0xA0 DUP6 ADD MSTORE PUSH2 0x1F2A PUSH1 0x6 DUP3 ADD PUSH2 0x36E5 JUMP JUMPDEST PUSH1 0xC0 DUP6 ADD MSTORE PUSH2 0x1F3B PUSH1 0x7 DUP3 ADD PUSH2 0x36E5 JUMP JUMPDEST PUSH1 0xE0 DUP6 ADD MSTORE PUSH2 0x1F4C PUSH1 0x8 DUP3 ADD PUSH2 0x36E5 JUMP JUMPDEST PUSH2 0x100 DUP6 ADD MSTORE PUSH2 0x1F5E PUSH1 0x9 DUP3 ADD PUSH2 0x36E5 JUMP JUMPDEST PUSH2 0x120 DUP6 ADD MSTORE PUSH2 0x1F70 PUSH1 0xA DUP3 ADD PUSH2 0x36E5 JUMP JUMPDEST PUSH2 0x140 DUP6 ADD MSTORE ADD PUSH2 0x36E5 JUMP JUMPDEST PUSH2 0x160 DUP3 ADD MSTORE PUSH2 0x1F8C DUP3 DUP7 PUSH2 0x4313 JUMP JUMPDEST MSTORE PUSH2 0x1F97 DUP2 DUP6 PUSH2 0x4313 JUMP JUMPDEST POP ADD PUSH2 0x1E90 JUMP JUMPDEST CALLVALUE PUSH2 0x905 JUMPI PUSH1 0x40 CALLDATASIZE PUSH1 0x3 NOT ADD SLT PUSH2 0x905 JUMPI PUSH1 0x4 CALLDATALOAD PUSH1 0x24 CALLDATALOAD PUSH2 0x1FBD PUSH2 0x3385 JUMP JUMPDEST DUP1 ISZERO PUSH2 0x205D JUMPI PUSH32 0x598B48A1AAD5D72FCEDBC7ED6AAC08AD920501EEDCA72D3DACE23490F11F7812 SWAP2 PUSH1 0x60 SWAP2 PUSH2 0x1FF3 CALLER ISZERO ISZERO PUSH2 0x40F9 JUMP JUMPDEST DUP2 PUSH1 0x0 MSTORE PUSH2 0x1FC DUP1 PUSH1 0x20 MSTORE PUSH2 0x2023 PUSH2 0x201E PUSH1 0x40 PUSH1 0x0 KECCAK256 SLOAD PUSH1 0x0 MSTORE PUSH2 0x1FA PUSH1 0x20 MSTORE PUSH1 0x40 PUSH1 0x0 KECCAK256 SLOAD ISZERO ISZERO SWAP1 JUMP JUMPDEST PUSH2 0x41DC JUMP JUMPDEST DUP3 PUSH1 0x0 MSTORE PUSH1 0x20 MSTORE PUSH1 0x40 PUSH1 0x0 KECCAK256 SLOAD PUSH1 0x0 MSTORE PUSH2 0x1F7 PUSH1 0x20 MSTORE DUP1 PUSH1 0x40 PUSH1 0x0 KECCAK256 SSTORE PUSH1 0x40 MLOAD SWAP2 CALLER DUP4 MSTORE PUSH1 0x20 DUP4 ADD MSTORE PUSH1 0x40 DUP3 ADD MSTORE LOG1 PUSH1 0x20 PUSH1 0x40 MLOAD PUSH1 0x1 DUP2 MSTORE RETURN JUMPDEST PUSH1 0x40 MLOAD PUSH3 0x461BCD PUSH1 0xE5 SHL DUP2 MSTORE PUSH1 0x20 PUSH1 0x4 DUP3 ADD MSTORE PUSH1 0x22 PUSH1 0x24 DUP3 ADD MSTORE PUSH32 0x506C6F74205072696365206D7573742062652067726561746572207468616E20 PUSH1 0x44 DUP3 ADD MSTORE PUSH2 0x1817 PUSH1 0xF1 SHL PUSH1 0x64 DUP3 ADD MSTORE PUSH1 0x84 SWAP1 REVERT JUMPDEST CALLVALUE PUSH2 0x905 JUMPI PUSH1 0x0 CALLDATASIZE PUSH1 0x3 NOT ADD SLT PUSH2 0x905 JUMPI PUSH1 0x20 PUSH1 0x1 PUSH1 0x1 PUSH1 0xA0 SHL SUB PUSH1 0xFB SLOAD AND PUSH1 0x40 MLOAD SWAP1 DUP2 MSTORE RETURN JUMPDEST CALLVALUE PUSH2 0x905 JUMPI PUSH1 0x0 CALLDATASIZE PUSH1 0x3 NOT ADD SLT PUSH2 0x905 JUMPI PUSH2 0x20ED PUSH2 0x3385 JUMP JUMPDEST PUSH1 0xC9 SLOAD PUSH1 0xFF DUP2 AND PUSH2 0x212F JUMPI PUSH1 0x1 SWAP1 PUSH1 0xFF NOT AND OR PUSH1 0xC9 SSTORE PUSH32 0x62E78CEA01BEE320CD4E420270B5EA74000D11B0C9F74754EBDBFC544B05A258 PUSH1 0x20 PUSH1 0x40 MLOAD CALLER DUP2 MSTORE LOG1 STOP JUMPDEST PUSH1 0x40 MLOAD PUSH3 0x461BCD PUSH1 0xE5 SHL DUP2 MSTORE PUSH1 0x20 PUSH1 0x4 DUP3 ADD MSTORE PUSH1 0x10 PUSH1 0x24 DUP3 ADD MSTORE PUSH32 0x5061757361626C653A2070617573656400000000000000000000000000000000 PUSH1 0x44 DUP3 ADD MSTORE PUSH1 0x64 SWAP1 REVERT JUMPDEST CALLVALUE PUSH2 0x905 JUMPI PUSH1 0x0 CALLDATASIZE PUSH1 0x3 NOT ADD SLT PUSH2 0x905 JUMPI PUSH2 0x218D PUSH2 0x3385 JUMP JUMPDEST PUSH1 0x0 PUSH1 0xFB SLOAD PUSH1 0x1 PUSH1 0x1 PUSH1 0xA0 SHL SUB NOT DUP2 AND PUSH1 0xFB SSTORE DUP2 PUSH1 0x1 PUSH1 0x1 PUSH1 0xA0 SHL SUB PUSH1 0x40 MLOAD SWAP3 AND PUSH32 0x8BE0079C531659141344CD1FD0A4F28419497F9722A3DAAFE3B4186F6B6457E0 DUP3 DUP5 LOG3 RETURN JUMPDEST CALLVALUE PUSH2 0x905 JUMPI PUSH1 0x20 CALLDATASIZE PUSH1 0x3 NOT ADD SLT PUSH2 0x905 JUMPI PUSH1 0x20 PUSH2 0x1C37 PUSH2 0x21F2 PUSH2 0x30C8 JUMP JUMPDEST PUSH2 0x43B1 JUMP JUMPDEST CALLVALUE PUSH2 0x905 JUMPI PUSH1 0x20 CALLDATASIZE PUSH1 0x3 NOT ADD SLT PUSH2 0x905 JUMPI PUSH1 0x20 PUSH2 0xA32 PUSH1 0x4 CALLDATALOAD PUSH2 0x3DC1 JUMP JUMPDEST CALLVALUE PUSH2 0x905 JUMPI PUSH1 0x0 CALLDATASIZE PUSH1 0x3 NOT ADD SLT PUSH2 0x905 JUMPI PUSH1 0x20 PUSH1 0xFF PUSH1 0xC9 SLOAD AND PUSH1 0x40 MLOAD SWAP1 ISZERO ISZERO DUP2 MSTORE RETURN JUMPDEST CALLVALUE PUSH2 0x905 JUMPI PUSH1 0x20 DUP1 PUSH1 0x3 NOT CALLDATASIZE ADD SLT PUSH2 0x905 JUMPI PUSH2 0x2252 PUSH2 0x30C8 JUMP JUMPDEST PUSH2 0x225B DUP2 PUSH2 0x43B1 JUMP JUMPDEST PUSH2 0x2264 DUP2 PUSH2 0x42C3 JUMP JUMPDEST SWAP2 PUSH1 0x0 JUMPDEST DUP3 DUP2 LT PUSH2 0x227D JUMPI PUSH1 0x40 MLOAD DUP1 PUSH2 0x1B9E DUP7 DUP3 PUSH2 0x3323 JUMP JUMPDEST PUSH2 0x2287 DUP2 DUP4 PUSH2 0x443D JUMP JUMPDEST PUSH1 0x0 MSTORE PUSH2 0x1F7 DUP6 MSTORE PUSH1 0x40 PUSH1 0x0 KECCAK256 SWAP1 PUSH1 0x40 MLOAD PUSH2 0x22A1 DUP2 PUSH2 0x320D JUMP JUMPDEST DUP3 SLOAD DUP2 MSTORE PUSH2 0x22DE PUSH1 0xB PUSH1 0x1 SWAP5 DUP6 DUP2 ADD SLOAD DUP11 DUP6 ADD MSTORE PUSH1 0x2 DUP2 ADD SLOAD PUSH1 0x40 DUP6 ADD MSTORE PUSH1 0x1 PUSH1 0x1 PUSH1 0xA0 SHL SUB PUSH1 0x3 DUP3 ADD SLOAD AND PUSH1 0x60 DUP6 ADD MSTORE PUSH2 0x1F08 PUSH1 0x4 DUP3 ADD PUSH2 0x36E5 JUMP JUMPDEST PUSH2 0x160 DUP3 ADD MSTORE PUSH2 0x22EE DUP3 DUP8 PUSH2 0x4313 JUMP JUMPDEST MSTORE PUSH2 0x22F9 DUP2 DUP7 PUSH2 0x4313 JUMP JUMPDEST POP ADD PUSH2 0x2268 JUMP JUMPDEST CALLVALUE PUSH2 0x905 JUMPI PUSH1 0x20 DUP1 PUSH1 0x3 NOT CALLDATASIZE ADD SLT PUSH2 0x905 JUMPI PUSH8 0xFFFFFFFFFFFFFFFF PUSH1 0x4 CALLDATALOAD DUP2 DUP2 GT PUSH2 0x905 JUMPI PUSH2 0x2333 SWAP1 CALLDATASIZE SWAP1 PUSH1 0x4 ADD PUSH2 0x32DC JUMP JUMPDEST SWAP1 PUSH2 0x233C PUSH2 0x3385 JUMP JUMPDEST PUSH1 0x40 MLOAD SWAP3 PUSH1 0x0 SWAP3 PUSH2 0x1F5 SWAP5 DUP6 SLOAD SWAP1 DUP1 PUSH2 0x2354 DUP4 PUSH2 0x35E9 JUMP JUMPDEST PUSH1 0x1 SWAP8 SWAP1 DUP5 DUP10 AND DUP1 ISZERO PUSH2 0x2531 JUMPI PUSH1 0x1 EQ PUSH2 0x24D9 JUMPI JUMPDEST POP SUB SWAP1 KECCAK256 PUSH2 0x2376 DUP4 PUSH2 0x3DA1 JUMP JUMPDEST SWAP1 PUSH32 0x309B29DED109B9E28FB9885757B3E0096EB75C51D23AA4635D68BCD569F6ADC1 PUSH1 0x0 PUSH1 0x40 MLOAD LOG3 DUP2 MLOAD SWAP4 DUP5 GT PUSH2 0x581 JUMPI PUSH2 0x23B0 SWAP1 PUSH2 0x35E9 JUMP JUMPDEST PUSH1 0x1F DUP2 GT PUSH2 0x2473 JUMPI JUMPDEST POP DUP2 PUSH1 0x1F DUP5 GT PUSH1 0x1 EQ PUSH2 0x23F3 JUMPI POP SWAP3 DUP3 SWAP4 SWAP2 DUP4 SWAP3 PUSH1 0x0 SWAP5 PUSH2 0x23E8 JUMPI JUMPDEST POP POP SHL SWAP2 PUSH1 0x0 NOT SWAP1 PUSH1 0x3 SHL SHR NOT AND OR SWAP1 SSTORE STOP JUMPDEST ADD MLOAD SWAP3 POP DUP6 DUP1 PUSH2 0x23D5 JUMP JUMPDEST SWAP2 SWAP1 DUP4 PUSH1 0x1F NOT DUP2 AND DUP8 PUSH1 0x0 MSTORE PUSH32 0x734CCDFECF0C98F1F610E13E821EEAAB95DC92184BA090032AB8CF544A28F167 SWAP5 PUSH1 0x0 SWAP1 JUMPDEST DUP9 DUP4 DUP4 LT PUSH2 0x2459 JUMPI POP POP POP LT PUSH2 0x2440 JUMPI JUMPDEST POP POP POP DUP2 SHL ADD SWAP1 SSTORE STOP JUMPDEST ADD MLOAD PUSH1 0x0 NOT PUSH1 0xF8 DUP5 PUSH1 0x3 SHL AND SHR NOT AND SWAP1 SSTORE DUP4 DUP1 DUP1 PUSH2 0x2436 JUMP JUMPDEST DUP6 DUP8 ADD MLOAD DUP9 SSTORE SWAP1 SWAP7 ADD SWAP6 SWAP5 DUP6 ADD SWAP5 DUP8 SWAP4 POP SWAP1 DUP2 ADD SWAP1 PUSH2 0x2425 JUMP JUMPDEST DUP6 PUSH1 0x0 MSTORE PUSH32 0x734CCDFECF0C98F1F610E13E821EEAAB95DC92184BA090032AB8CF544A28F167 PUSH1 0x1F DUP6 ADD PUSH1 0x5 SHR DUP2 ADD SWAP2 DUP5 DUP7 LT PUSH2 0x24CF JUMPI JUMPDEST PUSH1 0x1F ADD PUSH1 0x5 SHR ADD SWAP1 DUP6 SWAP1 JUMPDEST DUP3 DUP2 LT PUSH2 0x24C3 JUMPI POP POP PUSH2 0x23B9 JUMP JUMPDEST PUSH1 0x0 DUP2 SSTORE ADD DUP6 SWAP1 PUSH2 0x24B5 JUMP JUMPDEST SWAP1 SWAP2 POP DUP2 SWAP1 PUSH2 0x24AA JUMP JUMPDEST SWAP1 POP DUP9 PUSH1 0x0 MSTORE PUSH32 0x734CCDFECF0C98F1F610E13E821EEAAB95DC92184BA090032AB8CF544A28F167 DUP7 DUP10 PUSH1 0x0 SWAP3 JUMPDEST DUP5 DUP5 LT PUSH2 0x2519 JUMPI POP POP POP POP DUP2 ADD DUP10 PUSH2 0x2369 JUMP JUMPDEST DUP1 SLOAD DUP8 DUP6 ADD MSTORE DUP7 SWAP6 POP SWAP3 SWAP1 SWAP2 ADD SWAP2 DUP9 SWAP2 DUP12 SWAP2 ADD PUSH2 0x2506 JUMP JUMPDEST POP PUSH1 0xFF NOT DUP6 AND DUP4 MSTORE DUP1 ISZERO ISZERO MUL DUP3 ADD SWAP1 POP DUP10 PUSH2 0x2369 JUMP JUMPDEST CALLVALUE PUSH2 0x905 JUMPI PUSH1 0x0 CALLDATASIZE PUSH1 0x3 NOT ADD SLT PUSH2 0x905 JUMPI PUSH1 0x1 PUSH1 0x1 PUSH1 0xA0 SHL SUB PUSH32 0x0 AND ADDRESS SUB PUSH2 0x25B2 JUMPI PUSH1 0x20 PUSH1 0x40 MLOAD PUSH32 0x360894A13BA1A3210667C828492DB98DCA3E2076CC3735A920A3CA505D382BBC DUP2 MSTORE RETURN JUMPDEST PUSH1 0x40 MLOAD PUSH3 0x461BCD PUSH1 0xE5 SHL DUP2 MSTORE PUSH1 0x20 PUSH1 0x4 DUP3 ADD MSTORE PUSH1 0x38 PUSH1 0x24 DUP3 ADD MSTORE PUSH32 0x555550535570677261646561626C653A206D757374206E6F742062652063616C PUSH1 0x44 DUP3 ADD MSTORE PUSH32 0x6C6564207468726F7567682064656C656761746563616C6C0000000000000000 PUSH1 0x64 DUP3 ADD MSTORE PUSH1 0x84 SWAP1 REVERT JUMPDEST CALLVALUE PUSH2 0x905 JUMPI PUSH1 0x20 CALLDATASIZE PUSH1 0x3 NOT ADD SLT PUSH2 0x905 JUMPI PUSH1 0x20 PUSH2 0x1C37 PUSH1 0x4 CALLDATALOAD PUSH2 0x433D JUMP JUMPDEST PUSH1 0x40 CALLDATASIZE PUSH1 0x3 NOT ADD SLT PUSH2 0x905 JUMPI PUSH2 0x264F PUSH2 0x30C8 JUMP JUMPDEST PUSH1 0x24 CALLDATALOAD PUSH8 0xFFFFFFFFFFFFFFFF DUP2 GT PUSH2 0x905 JUMPI PUSH2 0x266F SWAP1 CALLDATASIZE SWAP1 PUSH1 0x4 ADD PUSH2 0x32DC JUMP JUMPDEST SWAP1 PUSH1 0x1 PUSH1 0x1 PUSH1 0xA0 SHL SUB SWAP2 DUP3 PUSH32 0x0 AND SWAP3 PUSH2 0x26A9 DUP5 ADDRESS EQ ISZERO PUSH2 0x3427 JUMP JUMPDEST PUSH2 0x26D8 PUSH32 0x360894A13BA1A3210667C828492DB98DCA3E2076CC3735A920A3CA505D382BBC SWAP5 DUP3 DUP7 SLOAD AND EQ PUSH2 0x3499 JUMP JUMPDEST PUSH2 0x26E0 PUSH2 0x3385 JUMP JUMPDEST PUSH32 0x4910FDFA16FED3260ED0E7147F7CC6DA11A60208B5B9406D12A635614FFD9143 SLOAD PUSH1 0xFF AND ISZERO PUSH2 0x2716 JUMPI POP POP PUSH2 0x456 SWAP2 POP PUSH2 0x350B JUMP JUMPDEST DUP3 SWAP2 SWAP3 AND PUSH1 0x40 MLOAD SWAP4 PUSH4 0x52D1902D PUSH1 0xE0 SHL DUP6 MSTORE PUSH1 0x20 SWAP5 DUP6 DUP2 PUSH1 0x4 DUP2 DUP7 GAS STATICCALL PUSH1 0x0 SWAP2 DUP2 PUSH2 0x2942 JUMPI JUMPDEST POP PUSH2 0x279D JUMPI PUSH1 0x40 MLOAD PUSH3 0x461BCD PUSH1 0xE5 SHL DUP2 MSTORE PUSH1 0x4 DUP2 ADD DUP8 SWAP1 MSTORE PUSH1 0x2E PUSH1 0x24 DUP3 ADD MSTORE PUSH32 0x45524331393637557067726164653A206E657720696D706C656D656E74617469 PUSH1 0x44 DUP3 ADD MSTORE PUSH14 0x6F6E206973206E6F742055555053 PUSH1 0x90 SHL PUSH1 0x64 DUP3 ADD MSTORE PUSH1 0x84 SWAP1 REVERT JUMPDEST SUB PUSH2 0x28D7 JUMPI PUSH2 0x27AB DUP3 PUSH2 0x350B JUMP JUMPDEST PUSH1 0x40 MLOAD SWAP1 PUSH32 0xBC7CD75A20EE27FD9ADEBAB32041F755214DBC6BFFA90CC0225B39DA2E5C2D3B PUSH1 0x0 DUP4 LOG2 DUP3 MLOAD ISZERO DUP1 ISZERO SWAP1 PUSH2 0x28CF JUMPI JUMPDEST PUSH2 0x27E5 JUMPI STOP JUMPDEST DUP2 EXTCODESIZE ISZERO PUSH2 0x2867 JUMPI POP PUSH1 0x0 DUP3 DUP2 SWAP3 DUP6 PUSH2 0x456 SWAP7 SWAP6 MLOAD SWAP3 ADD SWAP1 GAS DELEGATECALL PUSH2 0x2806 PUSH2 0x35B9 JUMP JUMPDEST SWAP1 PUSH32 0x416464726573733A206C6F772D6C6576656C2064656C65676174652063616C6C PUSH1 0x40 MLOAD SWAP4 PUSH2 0x2835 DUP6 PUSH2 0x3246 JUMP JUMPDEST PUSH1 0x27 DUP6 MSTORE DUP5 ADD MSTORE PUSH32 0x206661696C656400000000000000000000000000000000000000000000000000 PUSH1 0x40 DUP5 ADD MSTORE PUSH2 0x3CEF JUMP JUMPDEST PUSH3 0x461BCD PUSH1 0xE5 SHL DUP2 MSTORE PUSH1 0x4 DUP2 ADD DUP5 SWAP1 MSTORE PUSH1 0x26 PUSH1 0x24 DUP3 ADD MSTORE PUSH32 0x416464726573733A2064656C65676174652063616C6C20746F206E6F6E2D636F PUSH1 0x44 DUP3 ADD MSTORE PUSH32 0x6E74726163740000000000000000000000000000000000000000000000000000 PUSH1 0x64 DUP3 ADD MSTORE PUSH1 0x84 SWAP1 REVERT JUMPDEST POP PUSH1 0x1 PUSH2 0x27DF JUMP JUMPDEST PUSH1 0x40 MLOAD PUSH3 0x461BCD PUSH1 0xE5 SHL DUP2 MSTORE PUSH1 0x4 DUP2 ADD DUP6 SWAP1 MSTORE PUSH1 0x29 PUSH1 0x24 DUP3 ADD MSTORE PUSH32 0x45524331393637557067726164653A20756E737570706F727465642070726F78 PUSH1 0x44 DUP3 ADD MSTORE PUSH32 0x6961626C65555549440000000000000000000000000000000000000000000000 PUSH1 0x64 DUP3 ADD MSTORE PUSH1 0x84 SWAP1 REVERT JUMPDEST SWAP1 SWAP2 POP DUP7 DUP2 DUP2 RETURNDATASIZE DUP4 GT PUSH2 0x296A JUMPI JUMPDEST PUSH2 0x295A DUP2 DUP4 PUSH2 0x327E JUMP JUMPDEST DUP2 ADD SUB SLT PUSH2 0x905 JUMPI MLOAD SWAP1 DUP8 PUSH2 0x273C JUMP JUMPDEST POP RETURNDATASIZE PUSH2 0x2950 JUMP JUMPDEST CALLVALUE PUSH2 0x905 JUMPI PUSH1 0x20 CALLDATASIZE PUSH1 0x3 NOT ADD SLT PUSH2 0x905 JUMPI PUSH2 0x456 PUSH2 0x1CB9 PUSH1 0x4 CALLDATALOAD CALLER PUSH2 0x3920 JUMP JUMPDEST CALLVALUE PUSH2 0x905 JUMPI PUSH2 0x456 PUSH2 0xD05 PUSH2 0x29A5 CALLDATASIZE PUSH2 0x30F4 JUMP JUMPDEST SWAP1 PUSH1 0x40 MLOAD SWAP3 PUSH2 0x29B3 DUP5 PUSH2 0x322A JUMP JUMPDEST PUSH1 0x0 DUP5 MSTORE PUSH2 0x1CBE PUSH2 0x1CB9 DUP5 CALLER PUSH2 0x3920 JUMP JUMPDEST CALLVALUE PUSH2 0x905 JUMPI PUSH1 0x0 CALLDATASIZE PUSH1 0x3 NOT ADD SLT PUSH2 0x905 JUMPI PUSH2 0x29DD PUSH2 0x3385 JUMP JUMPDEST PUSH1 0xC9 SLOAD PUSH1 0xFF DUP2 AND ISZERO PUSH2 0x2A1C JUMPI PUSH1 0xFF NOT AND PUSH1 0xC9 SSTORE PUSH32 0x5DB9EE0A495BF2E6FF9C91A7834C1BA4FDD244A5E8AA4E537BD38AEAE4B073AA PUSH1 0x20 PUSH1 0x40 MLOAD CALLER DUP2 MSTORE LOG1 STOP JUMPDEST PUSH1 0x40 MLOAD PUSH3 0x461BCD PUSH1 0xE5 SHL DUP2 MSTORE PUSH1 0x20 PUSH1 0x4 DUP3 ADD MSTORE PUSH1 0x14 PUSH1 0x24 DUP3 ADD MSTORE PUSH32 0x5061757361626C653A206E6F7420706175736564000000000000000000000000 PUSH1 0x44 DUP3 ADD MSTORE PUSH1 0x64 SWAP1 REVERT JUMPDEST CALLVALUE PUSH2 0x905 JUMPI PUSH1 0x0 CALLDATASIZE PUSH1 0x3 NOT ADD SLT PUSH2 0x905 JUMPI PUSH2 0x1B9E PUSH2 0x1B8A PUSH2 0x32BC JUMP JUMPDEST CALLVALUE PUSH2 0x905 JUMPI PUSH1 0x20 DUP1 PUSH1 0x3 NOT CALLDATASIZE ADD SLT PUSH2 0x905 JUMPI PUSH2 0x2A97 PUSH2 0x30C8 JUMP JUMPDEST PUSH1 0x1 PUSH1 0x1 PUSH1 0xA0 SHL SUB DUP1 PUSH32 0x0 AND PUSH2 0x2ACE DUP2 ADDRESS EQ ISZERO PUSH2 0x3427 JUMP JUMPDEST PUSH2 0x2AFD PUSH32 0x360894A13BA1A3210667C828492DB98DCA3E2076CC3735A920A3CA505D382BBC SWAP2 DUP4 DUP4 SLOAD AND EQ PUSH2 0x3499 JUMP JUMPDEST PUSH2 0x2B05 PUSH2 0x3385 JUMP JUMPDEST PUSH1 0x40 MLOAD SWAP2 PUSH2 0x2B12 DUP4 PUSH2 0x322A JUMP JUMPDEST PUSH1 0x0 DUP4 MSTORE PUSH32 0x4910FDFA16FED3260ED0E7147F7CC6DA11A60208B5B9406D12A635614FFD9143 SLOAD PUSH1 0xFF AND ISZERO PUSH2 0x2B4D JUMPI POP POP POP PUSH2 0x456 SWAP2 POP PUSH2 0x350B JUMP JUMPDEST DUP4 SWAP3 SWAP4 AND SWAP1 PUSH1 0x40 MLOAD PUSH4 0x52D1902D PUSH1 0xE0 SHL DUP2 MSTORE DUP6 DUP2 PUSH1 0x4 DUP2 DUP7 GAS STATICCALL PUSH1 0x0 SWAP2 DUP2 PUSH2 0x2C20 JUMPI JUMPDEST POP PUSH2 0x2BD1 JUMPI PUSH1 0x40 MLOAD PUSH3 0x461BCD PUSH1 0xE5 SHL DUP2 MSTORE PUSH1 0x4 DUP2 ADD DUP8 SWAP1 MSTORE PUSH1 0x2E PUSH1 0x24 DUP3 ADD MSTORE PUSH32 0x45524331393637557067726164653A206E657720696D706C656D656E74617469 PUSH1 0x44 DUP3 ADD MSTORE PUSH14 0x6F6E206973206E6F742055555053 PUSH1 0x90 SHL PUSH1 0x64 DUP3 ADD MSTORE PUSH1 0x84 SWAP1 REVERT JUMPDEST SUB PUSH2 0x28D7 JUMPI PUSH2 0x2BDF DUP3 PUSH2 0x350B JUMP JUMPDEST PUSH1 0x40 MLOAD SWAP1 PUSH32 0xBC7CD75A20EE27FD9ADEBAB32041F755214DBC6BFFA90CC0225B39DA2E5C2D3B PUSH1 0x0 DUP4 LOG2 DUP3 MLOAD ISZERO DUP1 ISZERO SWAP1 PUSH2 0x2C18 JUMPI PUSH2 0x27E5 JUMPI STOP JUMPDEST POP PUSH1 0x0 PUSH2 0x27DF JUMP JUMPDEST SWAP1 SWAP2 POP DUP7 DUP2 DUP2 RETURNDATASIZE DUP4 GT PUSH2 0x2C48 JUMPI JUMPDEST PUSH2 0x2C38 DUP2 DUP4 PUSH2 0x327E JUMP JUMPDEST DUP2 ADD SUB SLT PUSH2 0x905 JUMPI MLOAD SWAP1 DUP8 PUSH2 0x2B70 JUMP JUMPDEST POP RETURNDATASIZE PUSH2 0x2C2E JUMP JUMPDEST CALLVALUE PUSH2 0x905 JUMPI PUSH1 0x40 CALLDATASIZE PUSH1 0x3 NOT ADD SLT PUSH2 0x905 JUMPI PUSH1 0x20 PUSH2 0x1C37 PUSH2 0x2C6D PUSH2 0x30C8 JUMP JUMPDEST PUSH1 0x24 CALLDATALOAD SWAP1 PUSH2 0x443D JUMP JUMPDEST CALLVALUE PUSH2 0x905 JUMPI PUSH1 0x20 DUP1 PUSH1 0x3 NOT CALLDATASIZE ADD SLT PUSH2 0x905 JUMPI PUSH1 0x4 CALLDATALOAD PUSH2 0x2C93 PUSH2 0x424E JUMP JUMPDEST POP DUP1 PUSH1 0x0 MSTORE PUSH2 0x1FC SWAP1 DUP2 DUP4 MSTORE PUSH2 0x2CBF PUSH2 0x201E PUSH1 0x40 PUSH1 0x0 KECCAK256 SLOAD PUSH1 0x0 MSTORE PUSH2 0x1FA PUSH1 0x20 MSTORE PUSH1 0x40 PUSH1 0x0 KECCAK256 SLOAD ISZERO ISZERO SWAP1 JUMP JUMPDEST PUSH1 0x0 MSTORE DUP2 MSTORE PUSH1 0x40 PUSH1 0x0 KECCAK256 SLOAD PUSH1 0x0 MSTORE PUSH2 0x1F7 DUP2 MSTORE PUSH1 0x40 PUSH1 0x0 KECCAK256 SWAP1 PUSH2 0x2D94 PUSH1 0xB PUSH1 0x40 MLOAD SWAP4 PUSH2 0x2CEA DUP6 PUSH2 0x320D JUMP JUMPDEST DUP1 SLOAD DUP6 MSTORE PUSH1 0x1 DUP2 ADD SLOAD DUP5 DUP7 ADD MSTORE PUSH1 0x2 DUP2 ADD SLOAD PUSH1 0x40 DUP7 ADD MSTORE PUSH1 0x1 PUSH1 0x1 PUSH1 0xA0 SHL SUB PUSH1 0x3 DUP3 ADD SLOAD AND PUSH1 0x60 DUP7 ADD MSTORE PUSH2 0x2D20 PUSH1 0x4 DUP3 ADD PUSH2 0x36E5 JUMP JUMPDEST PUSH1 0x80 DUP7 ADD MSTORE PUSH2 0x2D31 PUSH1 0x5 DUP3 ADD PUSH2 0x36E5 JUMP JUMPDEST PUSH1 0xA0 DUP7 ADD MSTORE PUSH2 0x2D42 PUSH1 0x6 DUP3 ADD PUSH2 0x36E5 JUMP JUMPDEST PUSH1 0xC0 DUP7 ADD MSTORE PUSH2 0x2D53 PUSH1 0x7 DUP3 ADD PUSH2 0x36E5 JUMP JUMPDEST PUSH1 0xE0 DUP7 ADD MSTORE PUSH2 0x2D64 PUSH1 0x8 DUP3 ADD PUSH2 0x36E5 JUMP JUMPDEST PUSH2 0x100 DUP7 ADD MSTORE PUSH2 0x2D76 PUSH1 0x9 DUP3 ADD PUSH2 0x36E5 JUMP JUMPDEST PUSH2 0x120 DUP7 ADD MSTORE PUSH2 0x2D88 PUSH1 0xA DUP3 ADD PUSH2 0x36E5 JUMP JUMPDEST PUSH2 0x140 DUP7 ADD MSTORE ADD PUSH2 0x36E5 JUMP JUMPDEST PUSH2 0x160 DUP4 ADD MSTORE PUSH2 0x1B9E PUSH1 0x40 MLOAD SWAP3 DUP3 DUP5 SWAP4 DUP5 MSTORE DUP4 ADD SWAP1 PUSH2 0x3129 JUMP JUMPDEST CALLVALUE PUSH2 0x905 JUMPI PUSH2 0x456 PUSH2 0x2DBF CALLDATASIZE PUSH2 0x30F4 JUMP JUMPDEST SWAP2 PUSH2 0x2DCD PUSH2 0x1CB9 DUP5 CALLER PUSH2 0x3920 JUMP JUMPDEST PUSH2 0x3A00 JUMP JUMPDEST CALLVALUE PUSH2 0x905 JUMPI PUSH1 0x40 CALLDATASIZE PUSH1 0x3 NOT ADD SLT PUSH2 0x905 JUMPI PUSH2 0x2DEB PUSH2 0x30C8 JUMP JUMPDEST PUSH1 0x1 PUSH1 0x1 PUSH1 0xA0 SHL SUB SWAP1 PUSH1 0x24 CALLDATALOAD DUP3 DUP1 PUSH2 0x2E02 DUP4 PUSH2 0x37D4 JUMP JUMPDEST AND SWAP3 AND SWAP2 DUP1 DUP4 EQ PUSH2 0x2F02 JUMPI DUP1 CALLER EQ SWAP1 DUP2 ISZERO PUSH2 0x2EDD JUMPI JUMPDEST POP ISZERO PUSH2 0x2E72 JUMPI PUSH1 0x0 SWAP3 DUP2 DUP5 MSTORE PUSH1 0x69 PUSH1 0x20 MSTORE PUSH1 0x40 DUP5 KECCAK256 DUP4 PUSH1 0x1 PUSH1 0x1 PUSH1 0xA0 SHL SUB NOT DUP3 SLOAD AND OR SWAP1 SSTORE PUSH2 0x2E46 DUP3 PUSH2 0x37D4 JUMP JUMPDEST AND SWAP2 PUSH1 0x40 MLOAD SWAP3 PUSH32 0x8C5BE1E5EBEC7D5BD14F71427D1E84F3DD0314C0F7B2291E5B200AC8C7C3B925 DUP6 DUP6 LOG4 RETURN JUMPDEST PUSH1 0x40 MLOAD PUSH3 0x461BCD PUSH1 0xE5 SHL DUP2 MSTORE PUSH1 0x20 PUSH1 0x4 DUP3 ADD MSTORE PUSH1 0x3D PUSH1 0x24 DUP3 ADD MSTORE PUSH32 0x4552433732313A20617070726F76652063616C6C6572206973206E6F7420746F PUSH1 0x44 DUP3 ADD MSTORE PUSH32 0x6B656E206F776E6572206F7220617070726F76656420666F7220616C6C000000 PUSH1 0x64 DUP3 ADD MSTORE PUSH1 0x84 SWAP1 REVERT JUMPDEST SWAP1 POP PUSH1 0x0 MSTORE PUSH1 0x6A PUSH1 0x20 MSTORE PUSH1 0x40 PUSH1 0x0 KECCAK256 CALLER PUSH1 0x0 MSTORE PUSH1 0x20 MSTORE PUSH1 0xFF PUSH1 0x40 PUSH1 0x0 KECCAK256 SLOAD AND DUP5 PUSH2 0x2E18 JUMP JUMPDEST PUSH1 0x40 MLOAD PUSH3 0x461BCD PUSH1 0xE5 SHL DUP2 MSTORE PUSH1 0x20 PUSH1 0x4 DUP3 ADD MSTORE PUSH1 0x21 PUSH1 0x24 DUP3 ADD MSTORE PUSH32 0x4552433732313A20617070726F76616C20746F2063757272656E74206F776E65 PUSH1 0x44 DUP3 ADD MSTORE PUSH1 0x39 PUSH1 0xF9 SHL PUSH1 0x64 DUP3 ADD MSTORE PUSH1 0x84 SWAP1 REVERT JUMPDEST CALLVALUE PUSH2 0x905 JUMPI PUSH1 0x20 CALLDATASIZE PUSH1 0x3 NOT ADD SLT PUSH2 0x905 JUMPI PUSH1 0x20 PUSH2 0xA32 PUSH1 0x4 CALLDATALOAD PUSH2 0x37F6 JUMP JUMPDEST CALLVALUE PUSH2 0x905 JUMPI PUSH1 0x0 CALLDATASIZE PUSH1 0x3 NOT ADD SLT PUSH2 0x905 JUMPI PUSH1 0x40 MLOAD PUSH1 0x0 PUSH1 0x65 SLOAD PUSH2 0x2F91 DUP2 PUSH2 0x35E9 JUMP JUMPDEST DUP1 DUP5 MSTORE SWAP1 PUSH1 0x1 SWAP1 DUP2 DUP2 AND SWAP1 DUP2 ISZERO PUSH2 0x1E47 JUMPI POP PUSH1 0x1 EQ PUSH2 0x2FBA JUMPI PUSH2 0x1B9E DUP5 PUSH2 0x1B8A DUP2 DUP7 SUB DUP3 PUSH2 0x327E JUMP JUMPDEST PUSH1 0x65 PUSH1 0x0 SWAP1 DUP2 MSTORE SWAP3 POP PUSH32 0x8FF97419363FFD7000167F130EF7168FBEA05FAF9251824CA5043F113CC6A7C7 JUMPDEST DUP3 DUP5 LT PUSH2 0x2FFD JUMPI POP POP POP DUP2 ADD PUSH1 0x20 ADD PUSH2 0x1B8A DUP3 PUSH2 0x1DDC JUMP JUMPDEST DUP1 SLOAD PUSH1 0x20 DUP6 DUP8 ADD DUP2 ADD SWAP2 SWAP1 SWAP2 MSTORE SWAP1 SWAP4 ADD SWAP3 DUP2 ADD PUSH2 0x2FE5 JUMP JUMPDEST CALLVALUE PUSH2 0x905 JUMPI PUSH1 0x20 CALLDATASIZE PUSH1 0x3 NOT ADD SLT PUSH2 0x905 JUMPI PUSH1 0x4 CALLDATALOAD SWAP1 PUSH4 0xFFFFFFFF PUSH1 0xE0 SHL DUP3 AND DUP1 SWAP3 SUB PUSH2 0x905 JUMPI PUSH1 0x20 SWAP2 PUSH4 0x80AC58CD PUSH1 0xE0 SHL DUP2 EQ SWAP1 DUP2 ISZERO PUSH2 0x306F JUMPI JUMPDEST DUP2 ISZERO PUSH2 0x305E JUMPI JUMPDEST POP ISZERO ISZERO DUP2 MSTORE RETURN JUMPDEST PUSH4 0x1FFC9A7 PUSH1 0xE0 SHL EQ SWAP1 POP DUP4 PUSH2 0x3057 JUMP JUMPDEST PUSH4 0x5B5E139F PUSH1 0xE0 SHL DUP2 EQ SWAP2 POP PUSH2 0x3050 JUMP JUMPDEST PUSH1 0x0 JUMPDEST DUP4 DUP2 LT PUSH2 0x3093 JUMPI POP POP PUSH1 0x0 SWAP2 ADD MSTORE JUMP JUMPDEST DUP2 DUP2 ADD MLOAD DUP4 DUP3 ADD MSTORE PUSH1 0x20 ADD PUSH2 0x3083 JUMP JUMPDEST SWAP1 PUSH1 0x20 SWAP2 PUSH2 0x30BC DUP2 MLOAD DUP1 SWAP3 DUP2 DUP6 MSTORE DUP6 DUP1 DUP7 ADD SWAP2 ADD PUSH2 0x3080 JUMP JUMPDEST PUSH1 0x1F ADD PUSH1 0x1F NOT AND ADD ADD SWAP1 JUMP JUMPDEST PUSH1 0x4 CALLDATALOAD SWAP1 PUSH1 0x1 PUSH1 0x1 PUSH1 0xA0 SHL SUB DUP3 AND DUP3 SUB PUSH2 0x905 JUMPI JUMP JUMPDEST PUSH1 0x24 CALLDATALOAD SWAP1 PUSH1 0x1 PUSH1 0x1 PUSH1 0xA0 SHL SUB DUP3 AND DUP3 SUB PUSH2 0x905 JUMPI JUMP JUMPDEST PUSH1 0x60 SWAP1 PUSH1 0x3 NOT ADD SLT PUSH2 0x905 JUMPI PUSH1 0x1 PUSH1 0x1 PUSH1 0xA0 SHL SUB SWAP1 PUSH1 0x4 CALLDATALOAD DUP3 DUP2 AND DUP2 SUB PUSH2 0x905 JUMPI SWAP2 PUSH1 0x24 CALLDATALOAD SWAP1 DUP2 AND DUP2 SUB PUSH2 0x905 JUMPI SWAP1 PUSH1 0x44 CALLDATALOAD SWAP1 JUMP JUMPDEST SWAP1 PUSH2 0x320A SWAP2 DUP1 MLOAD DUP3 MSTORE PUSH1 0x20 DUP2 ADD MLOAD PUSH1 0x20 DUP4 ADD MSTORE PUSH1 0x40 DUP2 ADD MLOAD PUSH1 0x40 DUP4 ADD MSTORE PUSH1 0x1 PUSH1 0x1 PUSH1 0xA0 SHL SUB PUSH1 0x60 DUP3 ADD MLOAD AND PUSH1 0x60 DUP4 ADD MSTORE PUSH2 0x31F6 PUSH2 0x31E2 PUSH2 0x31CE PUSH2 0x31BA PUSH2 0x31A8 PUSH2 0x3196 PUSH2 0x3184 PUSH1 0x80 DUP9 ADD MLOAD PUSH2 0x180 DUP1 PUSH1 0x80 DUP13 ADD MSTORE DUP11 ADD SWAP1 PUSH2 0x30A3 JUMP JUMPDEST PUSH1 0xA0 DUP9 ADD MLOAD DUP10 DUP3 SUB PUSH1 0xA0 DUP12 ADD MSTORE PUSH2 0x30A3 JUMP JUMPDEST PUSH1 0xC0 DUP8 ADD MLOAD DUP9 DUP3 SUB PUSH1 0xC0 DUP11 ADD MSTORE PUSH2 0x30A3 JUMP JUMPDEST PUSH1 0xE0 DUP7 ADD MLOAD DUP8 DUP3 SUB PUSH1 0xE0 DUP10 ADD MSTORE PUSH2 0x30A3 JUMP JUMPDEST PUSH2 0x100 DUP1 DUP7 ADD MLOAD SWAP1 DUP8 DUP4 SUB SWAP1 DUP9 ADD MSTORE PUSH2 0x30A3 JUMP JUMPDEST PUSH2 0x120 DUP1 DUP6 ADD MLOAD SWAP1 DUP7 DUP4 SUB SWAP1 DUP8 ADD MSTORE PUSH2 0x30A3 JUMP JUMPDEST PUSH2 0x140 DUP1 DUP5 ADD MLOAD SWAP1 DUP6 DUP4 SUB SWAP1 DUP7 ADD MSTORE PUSH2 0x30A3 JUMP JUMPDEST SWAP2 PUSH2 0x160 DUP1 SWAP3 ADD MLOAD SWAP2 DUP2 DUP5 SUB SWAP2 ADD MSTORE PUSH2 0x30A3 JUMP JUMPDEST SWAP1 JUMP JUMPDEST PUSH2 0x180 DUP2 ADD SWAP1 DUP2 LT PUSH8 0xFFFFFFFFFFFFFFFF DUP3 GT OR PUSH2 0x581 JUMPI PUSH1 0x40 MSTORE JUMP JUMPDEST PUSH1 0x20 DUP2 ADD SWAP1 DUP2 LT PUSH8 0xFFFFFFFFFFFFFFFF DUP3 GT OR PUSH2 0x581 JUMPI PUSH1 0x40 MSTORE JUMP JUMPDEST PUSH1 0x60 DUP2 ADD SWAP1 DUP2 LT PUSH8 0xFFFFFFFFFFFFFFFF DUP3 GT OR PUSH2 0x581 JUMPI PUSH1 0x40 MSTORE JUMP JUMPDEST PUSH1 0x40 DUP2 ADD SWAP1 DUP2 LT PUSH8 0xFFFFFFFFFFFFFFFF DUP3 GT OR PUSH2 0x581 JUMPI PUSH1 0x40 MSTORE JUMP JUMPDEST SWAP1 PUSH1 0x1F DUP1 NOT SWAP2 ADD AND DUP2 ADD SWAP1 DUP2 LT PUSH8 0xFFFFFFFFFFFFFFFF DUP3 GT OR PUSH2 0x581 JUMPI PUSH1 0x40 MSTORE JUMP JUMPDEST PUSH8 0xFFFFFFFFFFFFFFFF DUP2 GT PUSH2 0x581 JUMPI PUSH1 0x1F ADD PUSH1 0x1F NOT AND PUSH1 0x20 ADD SWAP1 JUMP JUMPDEST PUSH1 0x40 MLOAD SWAP1 PUSH2 0x32C9 DUP3 PUSH2 0x3262 JUMP JUMPDEST PUSH1 0x4 DUP3 MSTORE PUSH4 0x53545945 PUSH1 0xE0 SHL PUSH1 0x20 DUP4 ADD MSTORE JUMP JUMPDEST DUP2 PUSH1 0x1F DUP3 ADD SLT ISZERO PUSH2 0x905 JUMPI DUP1 CALLDATALOAD SWAP1 PUSH2 0x32F3 DUP3 PUSH2 0x32A0 JUMP JUMPDEST SWAP3 PUSH2 0x3301 PUSH1 0x40 MLOAD SWAP5 DUP6 PUSH2 0x327E JUMP JUMPDEST DUP3 DUP5 MSTORE PUSH1 0x20 DUP4 DUP4 ADD ADD GT PUSH2 0x905 JUMPI DUP2 PUSH1 0x0 SWAP3 PUSH1 0x20 DUP1 SWAP4 ADD DUP4 DUP7 ADD CALLDATACOPY DUP4 ADD ADD MSTORE SWAP1 JUMP JUMPDEST PUSH1 0x20 DUP1 DUP3 ADD SWAP1 DUP1 DUP4 MSTORE DUP4 MLOAD DUP1 SWAP3 MSTORE PUSH1 0x40 DUP4 ADD SWAP3 DUP2 PUSH1 0x40 DUP5 PUSH1 0x5 SHL DUP4 ADD ADD SWAP6 ADD SWAP4 PUSH1 0x0 SWAP2 JUMPDEST DUP5 DUP4 LT PUSH2 0x3357 JUMPI POP POP POP POP POP POP SWAP1 JUMP JUMPDEST SWAP1 SWAP2 SWAP3 SWAP4 SWAP5 SWAP6 DUP5 DUP1 PUSH2 0x3375 PUSH1 0x1 SWAP4 PUSH1 0x3F NOT DUP7 DUP3 SUB ADD DUP8 MSTORE DUP11 MLOAD PUSH2 0x3129 JUMP JUMPDEST SWAP9 ADD SWAP4 ADD SWAP4 ADD SWAP2 SWAP5 SWAP4 SWAP3 SWAP1 PUSH2 0x3347 JUMP JUMPDEST PUSH1 0x1 PUSH1 0x1 PUSH1 0xA0 SHL SUB PUSH1 0xFB SLOAD AND CALLER SUB PUSH2 0x3399 JUMPI JUMP JUMPDEST PUSH1 0x64 PUSH1 0x40 MLOAD PUSH3 0x461BCD PUSH1 0xE5 SHL DUP2 MSTORE PUSH1 0x20 PUSH1 0x4 DUP3 ADD MSTORE PUSH1 0x20 PUSH1 0x24 DUP3 ADD MSTORE PUSH32 0x4F776E61626C653A2063616C6C6572206973206E6F7420746865206F776E6572 PUSH1 0x44 DUP3 ADD MSTORE REVERT JUMPDEST PUSH1 0xFB SLOAD SWAP1 PUSH1 0x1 PUSH1 0x1 PUSH1 0xA0 SHL SUB DUP1 SWAP2 AND SWAP2 DUP3 PUSH1 0x1 PUSH1 0x1 PUSH1 0xA0 SHL SUB NOT DUP3 AND OR PUSH1 0xFB SSTORE AND PUSH32 0x8BE0079C531659141344CD1FD0A4F28419497F9722A3DAAFE3B4186F6B6457E0 PUSH1 0x0 PUSH1 0x40 MLOAD LOG3 JUMP JUMPDEST ISZERO PUSH2 0x342E JUMPI JUMP JUMPDEST PUSH1 0x40 MLOAD PUSH3 0x461BCD PUSH1 0xE5 SHL DUP2 MSTORE PUSH1 0x20 PUSH1 0x4 DUP3 ADD MSTORE PUSH1 0x2C PUSH1 0x24 DUP3 ADD MSTORE PUSH32 0x46756E6374696F6E206D7573742062652063616C6C6564207468726F75676820 PUSH1 0x44 DUP3 ADD MSTORE PUSH32 0x64656C656761746563616C6C0000000000000000000000000000000000000000 PUSH1 0x64 DUP3 ADD MSTORE PUSH1 0x84 SWAP1 REVERT JUMPDEST ISZERO PUSH2 0x34A0 JUMPI JUMP JUMPDEST PUSH1 0x40 MLOAD PUSH3 0x461BCD PUSH1 0xE5 SHL DUP2 MSTORE PUSH1 0x20 PUSH1 0x4 DUP3 ADD MSTORE PUSH1 0x2C PUSH1 0x24 DUP3 ADD MSTORE PUSH32 0x46756E6374696F6E206D7573742062652063616C6C6564207468726F75676820 PUSH1 0x44 DUP3 ADD MSTORE PUSH32 0x6163746976652070726F78790000000000000000000000000000000000000000 PUSH1 0x64 DUP3 ADD MSTORE PUSH1 0x84 SWAP1 REVERT JUMPDEST DUP1 EXTCODESIZE ISZERO PUSH2 0x354E JUMPI PUSH1 0x1 PUSH1 0x1 PUSH1 0xA0 SHL SUB PUSH32 0x360894A13BA1A3210667C828492DB98DCA3E2076CC3735A920A3CA505D382BBC SWAP2 AND PUSH1 0x1 PUSH1 0x1 PUSH1 0xA0 SHL SUB NOT DUP3 SLOAD AND OR SWAP1 SSTORE JUMP JUMPDEST PUSH1 0x40 MLOAD PUSH3 0x461BCD PUSH1 0xE5 SHL DUP2 MSTORE PUSH1 0x20 PUSH1 0x4 DUP3 ADD MSTORE PUSH1 0x2D PUSH1 0x24 DUP3 ADD MSTORE PUSH32 0x455243313936373A206E657720696D706C656D656E746174696F6E206973206E PUSH1 0x44 DUP3 ADD MSTORE PUSH32 0x6F74206120636F6E747261637400000000000000000000000000000000000000 PUSH1 0x64 DUP3 ADD MSTORE PUSH1 0x84 SWAP1 REVERT JUMPDEST RETURNDATASIZE ISZERO PUSH2 0x35E4 JUMPI RETURNDATASIZE SWAP1 PUSH2 0x35CA DUP3 PUSH2 0x32A0 JUMP JUMPDEST SWAP2 PUSH2 0x35D8 PUSH1 0x40 MLOAD SWAP4 DUP5 PUSH2 0x327E JUMP JUMPDEST DUP3 MSTORE RETURNDATASIZE PUSH1 0x0 PUSH1 0x20 DUP5 ADD RETURNDATACOPY JUMP JUMPDEST PUSH1 0x60 SWAP1 JUMP JUMPDEST SWAP1 PUSH1 0x1 DUP3 DUP2 SHR SWAP3 AND DUP1 ISZERO PUSH2 0x3619 JUMPI JUMPDEST PUSH1 0x20 DUP4 LT EQ PUSH2 0x3603 JUMPI JUMP JUMPDEST PUSH4 0x4E487B71 PUSH1 0xE0 SHL PUSH1 0x0 MSTORE PUSH1 0x22 PUSH1 0x4 MSTORE PUSH1 0x24 PUSH1 0x0 REVERT JUMPDEST SWAP2 PUSH1 0x7F AND SWAP2 PUSH2 0x35F8 JUMP JUMPDEST PUSH1 0x40 MLOAD SWAP1 PUSH1 0x0 DUP3 PUSH2 0x1F5 SWAP2 DUP3 SLOAD PUSH2 0x3639 DUP2 PUSH2 0x35E9 JUMP JUMPDEST DUP1 DUP5 MSTORE SWAP4 PUSH1 0x1 SWAP2 DUP1 DUP4 AND SWAP1 DUP2 ISZERO PUSH2 0x36C1 JUMPI POP PUSH1 0x1 EQ PUSH2 0x3663 JUMPI JUMPDEST POP POP PUSH2 0x3661 SWAP3 POP SUB DUP4 PUSH2 0x327E JUMP JUMPDEST JUMP JUMPDEST PUSH1 0x0 SWAP1 DUP2 MSTORE SWAP2 POP PUSH32 0x734CCDFECF0C98F1F610E13E821EEAAB95DC92184BA090032AB8CF544A28F167 JUMPDEST DUP5 DUP4 LT PUSH2 0x36A6 JUMPI POP PUSH2 0x3661 SWAP4 POP POP DUP2 ADD PUSH1 0x20 ADD CODESIZE DUP1 PUSH2 0x3653 JUMP JUMPDEST DUP2 SWAP4 POP SWAP1 DUP2 PUSH1 0x20 SWAP3 SLOAD DUP4 DUP6 DUP11 ADD ADD MSTORE ADD SWAP2 ADD SWAP1 SWAP2 DUP6 SWAP3 PUSH2 0x368C JUMP JUMPDEST SWAP2 POP POP PUSH1 0x20 SWAP3 POP PUSH2 0x3661 SWAP5 SWAP2 POP PUSH1 0xFF NOT AND DUP3 DUP5 ADD MSTORE ISZERO ISZERO PUSH1 0x5 SHL DUP3 ADD ADD CODESIZE DUP1 PUSH2 0x3653 JUMP JUMPDEST SWAP1 PUSH1 0x40 MLOAD SWAP2 DUP3 PUSH1 0x0 DUP3 SLOAD SWAP3 PUSH2 0x36F9 DUP5 PUSH2 0x35E9 JUMP JUMPDEST SWAP1 DUP2 DUP5 MSTORE PUSH1 0x1 SWAP5 DUP6 DUP2 AND SWAP1 DUP2 PUSH1 0x0 EQ PUSH2 0x3765 JUMPI POP PUSH1 0x1 EQ PUSH2 0x3722 JUMPI POP POP PUSH2 0x3661 SWAP3 POP SUB DUP4 PUSH2 0x327E JUMP JUMPDEST SWAP1 SWAP4 SWAP2 POP PUSH1 0x0 MSTORE PUSH1 0x20 SWAP1 DUP2 PUSH1 0x0 KECCAK256 SWAP4 PUSH1 0x0 SWAP2 JUMPDEST DUP2 DUP4 LT PUSH2 0x374D JUMPI POP POP PUSH2 0x3661 SWAP4 POP DUP3 ADD ADD CODESIZE DUP1 PUSH2 0x3653 JUMP JUMPDEST DUP6 SLOAD DUP9 DUP5 ADD DUP6 ADD MSTORE SWAP5 DUP6 ADD SWAP5 DUP8 SWAP5 POP SWAP2 DUP4 ADD SWAP2 PUSH2 0x3735 JUMP JUMPDEST SWAP2 POP POP PUSH2 0x3661 SWAP5 POP PUSH1 0x20 SWAP3 POP PUSH1 0xFF NOT AND DUP3 DUP5 ADD MSTORE ISZERO ISZERO PUSH1 0x5 SHL DUP3 ADD ADD CODESIZE DUP1 PUSH2 0x3653 JUMP JUMPDEST ISZERO PUSH2 0x378F JUMPI JUMP JUMPDEST PUSH1 0x40 MLOAD PUSH3 0x461BCD PUSH1 0xE5 SHL DUP2 MSTORE PUSH1 0x20 PUSH1 0x4 DUP3 ADD MSTORE PUSH1 0x18 PUSH1 0x24 DUP3 ADD MSTORE PUSH32 0x4552433732313A20696E76616C696420746F6B656E2049440000000000000000 PUSH1 0x44 DUP3 ADD MSTORE PUSH1 0x64 SWAP1 REVERT JUMPDEST PUSH1 0x0 MSTORE PUSH1 0x67 PUSH1 0x20 MSTORE PUSH1 0x1 PUSH1 0x1 PUSH1 0xA0 SHL SUB PUSH1 0x40 PUSH1 0x0 KECCAK256 SLOAD AND PUSH2 0x320A DUP2 ISZERO ISZERO PUSH2 0x3788 JUMP JUMPDEST PUSH2 0x381E PUSH2 0x3819 DUP3 PUSH1 0x0 MSTORE PUSH1 0x67 PUSH1 0x20 MSTORE PUSH1 0x1 PUSH1 0x1 PUSH1 0xA0 SHL SUB PUSH1 0x40 PUSH1 0x0 KECCAK256 SLOAD AND ISZERO ISZERO SWAP1 JUMP JUMPDEST PUSH2 0x3788 JUMP JUMPDEST PUSH1 0x0 MSTORE PUSH1 0x69 PUSH1 0x20 MSTORE PUSH1 0x1 PUSH1 0x1 PUSH1 0xA0 SHL SUB PUSH1 0x40 PUSH1 0x0 KECCAK256 SLOAD AND SWAP1 JUMP JUMPDEST ISZERO PUSH2 0x383F JUMPI JUMP JUMPDEST PUSH1 0x40 MLOAD PUSH3 0x461BCD PUSH1 0xE5 SHL DUP2 MSTORE PUSH1 0x20 PUSH1 0x4 DUP3 ADD MSTORE PUSH1 0x2D PUSH1 0x24 DUP3 ADD MSTORE PUSH32 0x4552433732313A2063616C6C6572206973206E6F7420746F6B656E206F776E65 PUSH1 0x44 DUP3 ADD MSTORE PUSH32 0x72206F7220617070726F76656400000000000000000000000000000000000000 PUSH1 0x64 DUP3 ADD MSTORE PUSH1 0x84 SWAP1 REVERT JUMPDEST ISZERO PUSH2 0x38B1 JUMPI JUMP JUMPDEST PUSH1 0x40 MLOAD PUSH3 0x461BCD PUSH1 0xE5 SHL DUP2 MSTORE PUSH1 0x20 PUSH1 0x4 DUP3 ADD MSTORE PUSH1 0x32 PUSH1 0x24 DUP3 ADD MSTORE PUSH32 0x4552433732313A207472616E7366657220746F206E6F6E204552433732315265 PUSH1 0x44 DUP3 ADD MSTORE PUSH32 0x63656976657220696D706C656D656E7465720000000000000000000000000000 PUSH1 0x64 DUP3 ADD MSTORE PUSH1 0x84 SWAP1 REVERT JUMPDEST SUB SWAP1 REVERT JUMPDEST SWAP1 PUSH1 0x1 PUSH1 0x1 PUSH1 0xA0 SHL SUB DUP1 DUP1 PUSH2 0x3934 DUP5 PUSH2 0x37D4 JUMP JUMPDEST AND SWAP4 AND SWAP2 DUP4 DUP4 EQ SWAP4 DUP5 ISZERO PUSH2 0x3967 JUMPI JUMPDEST POP DUP4 ISZERO PUSH2 0x3951 JUMPI JUMPDEST POP POP POP SWAP1 JUMP JUMPDEST PUSH2 0x395D SWAP2 SWAP3 SWAP4 POP PUSH2 0x37F6 JUMP JUMPDEST AND EQ CODESIZE DUP1 DUP1 PUSH2 0x394B JUMP JUMPDEST SWAP1 SWAP4 POP PUSH1 0x0 MSTORE PUSH1 0x6A PUSH1 0x20 MSTORE PUSH1 0x40 PUSH1 0x0 KECCAK256 DUP3 PUSH1 0x0 MSTORE PUSH1 0x20 MSTORE PUSH1 0xFF PUSH1 0x40 PUSH1 0x0 KECCAK256 SLOAD AND SWAP3 CODESIZE PUSH2 0x3943 JUMP JUMPDEST ISZERO PUSH2 0x3995 JUMPI JUMP JUMPDEST PUSH1 0x40 MLOAD PUSH3 0x461BCD PUSH1 0xE5 SHL DUP2 MSTORE PUSH1 0x20 PUSH1 0x4 DUP3 ADD MSTORE PUSH1 0x25 PUSH1 0x24 DUP3 ADD MSTORE PUSH32 0x4552433732313A207472616E736665722066726F6D20696E636F727265637420 PUSH1 0x44 DUP3 ADD MSTORE PUSH32 0x6F776E6572000000000000000000000000000000000000000000000000000000 PUSH1 0x64 DUP3 ADD MSTORE PUSH1 0x84 SWAP1 REVERT JUMPDEST SWAP1 PUSH2 0x3A28 SWAP2 PUSH2 0x3A0E DUP5 PUSH2 0x37D4 JUMP JUMPDEST SWAP2 PUSH1 0x1 PUSH1 0x1 PUSH1 0xA0 SHL SUB SWAP4 DUP5 SWAP4 DUP5 DUP1 SWAP5 AND SWAP5 DUP6 SWAP2 AND EQ PUSH2 0x398E JUMP JUMPDEST AND SWAP2 DUP3 ISZERO PUSH2 0x3AC0 JUMPI DUP2 PUSH2 0x3A45 SWAP2 PUSH2 0x3A3E DUP7 PUSH2 0x37D4 JUMP JUMPDEST AND EQ PUSH2 0x398E JUMP JUMPDEST PUSH32 0xDDF252AD1BE2C89B69C2B068FC378DAA952BA7F163C4A11628F55A4DF523B3EF PUSH1 0x0 DUP5 DUP2 MSTORE PUSH1 0x69 PUSH1 0x20 MSTORE PUSH1 0x40 DUP2 KECCAK256 PUSH1 0x1 PUSH1 0x1 PUSH1 0xA0 SHL SUB NOT SWAP1 DUP2 DUP2 SLOAD AND SWAP1 SSTORE DUP4 DUP3 MSTORE PUSH1 0x68 PUSH1 0x20 MSTORE PUSH1 0x40 DUP3 KECCAK256 PUSH1 0x0 NOT DUP2 SLOAD ADD SWAP1 SSTORE DUP5 DUP3 MSTORE PUSH1 0x40 DUP3 KECCAK256 PUSH1 0x1 DUP2 SLOAD ADD SWAP1 SSTORE DUP6 DUP3 MSTORE PUSH1 0x67 PUSH1 0x20 MSTORE DUP5 PUSH1 0x40 DUP4 KECCAK256 SWAP2 DUP3 SLOAD AND OR SWAP1 SSTORE PUSH1 0x40 MLOAD LOG4 JUMP JUMPDEST PUSH1 0x40 MLOAD PUSH3 0x461BCD PUSH1 0xE5 SHL DUP2 MSTORE PUSH1 0x20 PUSH1 0x4 DUP3 ADD MSTORE PUSH1 0x24 DUP1 DUP3 ADD MSTORE PUSH32 0x4552433732313A207472616E7366657220746F20746865207A65726F20616464 PUSH1 0x44 DUP3 ADD MSTORE PUSH4 0x72657373 PUSH1 0xE0 SHL PUSH1 0x64 DUP3 ADD MSTORE PUSH1 0x84 SWAP1 REVERT JUMPDEST SWAP1 SWAP2 PUSH1 0x0 SWAP2 DUP1 EXTCODESIZE ISZERO PUSH2 0x3C85 JUMPI PUSH2 0x3B64 PUSH1 0x20 SWAP2 PUSH1 0x1 PUSH1 0x1 PUSH1 0xA0 SHL SUB SWAP4 DUP6 PUSH1 0x40 MLOAD SWAP6 DUP7 DUP1 SWAP6 DUP2 SWAP5 PUSH4 0xA85BD01 PUSH1 0xE1 SHL SWAP12 DUP13 DUP5 MSTORE CALLER PUSH1 0x4 DUP6 ADD MSTORE DUP6 PUSH1 0x24 DUP6 ADD MSTORE PUSH1 0x44 DUP5 ADD MSTORE PUSH1 0x80 PUSH1 0x64 DUP5 ADD MSTORE PUSH1 0x84 DUP4 ADD SWAP1 PUSH2 0x30A3 JUMP JUMPDEST SUB SWAP4 AND GAS CALL SWAP1 DUP3 SWAP1 DUP3 PUSH2 0x3C1E JUMPI JUMPDEST POP POP PUSH2 0x3BF8 JUMPI PUSH2 0x3B80 PUSH2 0x35B9 JUMP JUMPDEST DUP1 MLOAD SWAP1 DUP2 PUSH2 0x3BF3 JUMPI PUSH1 0x40 MLOAD PUSH3 0x461BCD PUSH1 0xE5 SHL DUP2 MSTORE PUSH1 0x20 PUSH1 0x4 DUP3 ADD MSTORE PUSH1 0x32 PUSH1 0x24 DUP3 ADD MSTORE PUSH32 0x4552433732313A207472616E7366657220746F206E6F6E204552433732315265 PUSH1 0x44 DUP3 ADD MSTORE PUSH32 0x63656976657220696D706C656D656E7465720000000000000000000000000000 PUSH1 0x64 DUP3 ADD MSTORE PUSH1 0x84 SWAP1 REVERT JUMPDEST PUSH1 0x20 ADD REVERT JUMPDEST PUSH32 0xFFFFFFFF00000000000000000000000000000000000000000000000000000000 AND EQ SWAP1 JUMP JUMPDEST SWAP1 SWAP2 SWAP3 POP PUSH1 0x20 DUP2 RETURNDATASIZE DUP3 GT PUSH2 0x3C7D JUMPI JUMPDEST DUP2 PUSH2 0x3C3A PUSH1 0x20 SWAP4 DUP4 PUSH2 0x327E JUMP JUMPDEST DUP2 ADD SUB SLT PUSH2 0x3C79 JUMPI MLOAD SWAP1 PUSH32 0xFFFFFFFF00000000000000000000000000000000000000000000000000000000 DUP3 AND DUP3 SUB PUSH2 0x3C76 JUMPI POP SWAP1 CODESIZE DUP1 PUSH2 0x3B72 JUMP JUMPDEST DUP1 REVERT JUMPDEST POP DUP1 REVERT JUMPDEST RETURNDATASIZE SWAP2 POP PUSH2 0x3C2D JUMP JUMPDEST POP POP POP POP PUSH1 0x1 SWAP1 JUMP JUMPDEST SWAP2 SWAP3 PUSH1 0x0 SWAP3 SWAP2 SWAP1 DUP2 EXTCODESIZE ISZERO PUSH2 0x3CE5 JUMPI PUSH1 0x20 SWAP2 PUSH2 0x3B64 SWAP2 DUP6 PUSH1 0x40 MLOAD SWAP6 DUP7 DUP1 SWAP6 DUP2 SWAP5 PUSH4 0xA85BD01 PUSH1 0xE1 SHL SWAP12 DUP13 DUP5 MSTORE CALLER PUSH1 0x4 DUP6 ADD MSTORE PUSH1 0x1 PUSH1 0x1 PUSH1 0xA0 SHL SUB DUP1 SWAP6 AND PUSH1 0x24 DUP6 ADD MSTORE PUSH1 0x44 DUP5 ADD MSTORE PUSH1 0x80 PUSH1 0x64 DUP5 ADD MSTORE PUSH1 0x84 DUP4 ADD SWAP1 PUSH2 0x30A3 JUMP JUMPDEST POP POP POP POP POP PUSH1 0x1 SWAP1 JUMP JUMPDEST SWAP1 SWAP2 SWAP1 ISZERO PUSH2 0x3CFB JUMPI POP SWAP1 JUMP JUMPDEST DUP2 MLOAD ISZERO PUSH2 0x3D0B JUMPI POP DUP1 MLOAD SWAP1 PUSH1 0x20 ADD REVERT JUMPDEST PUSH1 0x40 MLOAD PUSH3 0x461BCD PUSH1 0xE5 SHL DUP2 MSTORE PUSH1 0x20 PUSH1 0x4 DUP3 ADD MSTORE SWAP1 DUP2 SWAP1 PUSH2 0x391C SWAP1 PUSH1 0x24 DUP4 ADD SWAP1 PUSH2 0x30A3 JUMP JUMPDEST ISZERO PUSH2 0x3D36 JUMPI JUMP JUMPDEST PUSH1 0x40 MLOAD PUSH3 0x461BCD PUSH1 0xE5 SHL DUP2 MSTORE PUSH1 0x20 PUSH1 0x4 DUP3 ADD MSTORE PUSH1 0x2B PUSH1 0x24 DUP3 ADD MSTORE PUSH32 0x496E697469616C697A61626C653A20636F6E7472616374206973206E6F742069 PUSH1 0x44 DUP3 ADD MSTORE PUSH32 0x6E697469616C697A696E67000000000000000000000000000000000000000000 PUSH1 0x64 DUP3 ADD MSTORE PUSH1 0x84 SWAP1 REVERT JUMPDEST PUSH2 0x3DB9 SWAP1 PUSH1 0x20 PUSH1 0x40 MLOAD SWAP3 DUP3 DUP5 DUP1 SWAP5 MLOAD SWAP4 DUP5 SWAP3 ADD PUSH2 0x3080 JUMP JUMPDEST DUP2 ADD SUB SWAP1 KECCAK256 SWAP1 JUMP JUMPDEST PUSH1 0x40 MLOAD PUSH2 0x3DCD DUP2 PUSH2 0x3246 JUMP JUMPDEST PUSH1 0x29 DUP2 MSTORE PUSH32 0x4552433732313A206F776E657220717565727920666F72206E6F6E6578697374 PUSH1 0x20 DUP3 ADD MSTORE PUSH32 0x656E7420746F6B656E0000000000000000000000000000000000000000000000 PUSH1 0x40 DUP3 ADD MSTORE DUP2 PUSH1 0x0 MSTORE PUSH2 0x1FB PUSH1 0x20 MSTORE PUSH1 0x40 PUSH1 0x0 KECCAK256 SLOAD SWAP2 DUP3 ISZERO SWAP1 DUP2 ISZERO SWAP2 PUSH2 0x3E4C JUMPI JUMPDEST POP ISZERO PUSH2 0x3D0B JUMPI POP PUSH1 0x1 PUSH1 0x1 PUSH1 0xA0 SHL SUB AND SWAP1 JUMP JUMPDEST PUSH2 0x3E65 SWAP2 POP PUSH1 0x0 MSTORE PUSH2 0x1FA PUSH1 0x20 MSTORE PUSH1 0x40 PUSH1 0x0 KECCAK256 SLOAD ISZERO ISZERO SWAP1 JUMP JUMPDEST CODESIZE PUSH2 0x3E39 JUMP JUMPDEST PUSH2 0x3E8E PUSH2 0x3819 DUP3 PUSH1 0x0 MSTORE PUSH1 0x67 PUSH1 0x20 MSTORE PUSH1 0x1 PUSH1 0x1 PUSH1 0xA0 SHL SUB PUSH1 0x40 PUSH1 0x0 KECCAK256 SLOAD AND ISZERO ISZERO SWAP1 JUMP JUMPDEST PUSH1 0x0 DUP2 DUP2 MSTORE PUSH1 0x20 SWAP1 PUSH1 0x97 DUP3 MSTORE PUSH1 0x40 SWAP1 PUSH2 0x3EA8 DUP3 DUP3 KECCAK256 PUSH2 0x36E5 JUMP JUMPDEST PUSH2 0x3EB0 PUSH2 0x3623 JUMP JUMPDEST DUP1 MLOAD SWAP2 DUP3 ISZERO PUSH2 0x40EF JUMPI DUP1 MLOAD PUSH2 0x40BE JUMPI POP POP POP PUSH2 0x3EE5 PUSH2 0x3819 DUP6 PUSH1 0x0 MSTORE PUSH1 0x67 PUSH1 0x20 MSTORE PUSH1 0x1 PUSH1 0x1 PUSH1 0xA0 SHL SUB PUSH1 0x40 PUSH1 0x0 KECCAK256 SLOAD AND ISZERO ISZERO SWAP1 JUMP JUMPDEST PUSH2 0x3EED PUSH2 0x3623 JUMP JUMPDEST DUP1 MLOAD SWAP1 SWAP3 SWAP1 ISZERO PUSH2 0x40A9 JUMPI DUP5 DUP6 SWAP1 DUP4 SWAP7 PUSH27 0x184F03E93FF9F4DAA797ED6E38ED64BF6A1F010000000000000000 SWAP1 DUP2 DUP2 LT ISZERO PUSH2 0x409A JUMPI JUMPDEST POP POP PUSH14 0x4EE2D6D415B85ACEF8100000000 DUP1 DUP4 LT ISZERO PUSH2 0x408C JUMPI JUMPDEST POP PUSH7 0x2386F26FC10000 DUP1 DUP4 LT ISZERO PUSH2 0x407D JUMPI JUMPDEST POP PUSH4 0x5F5E100 DUP1 DUP4 LT ISZERO PUSH2 0x406E JUMPI JUMPDEST POP PUSH2 0x2710 DUP1 DUP4 LT ISZERO PUSH2 0x405F JUMPI JUMPDEST POP PUSH1 0x64 DUP3 LT ISZERO PUSH2 0x404F JUMPI JUMPDEST PUSH1 0xA DUP1 SWAP3 LT ISZERO PUSH2 0x4045 JUMPI JUMPDEST PUSH1 0x1 SWAP1 DUP2 PUSH1 0x21 DUP2 DUP11 ADD SWAP10 PUSH2 0x3FAB PUSH2 0x3F96 DUP13 PUSH2 0x32A0 JUMP JUMPDEST SWAP12 PUSH2 0x3FA3 DUP10 MLOAD SWAP14 DUP15 PUSH2 0x327E JUMP JUMPDEST DUP1 DUP14 MSTORE PUSH2 0x32A0 JUMP JUMPDEST DUP12 DUP12 ADD SWAP9 SWAP1 PUSH1 0x1F NOT ADD CALLDATASIZE DUP11 CALLDATACOPY POP DUP11 ADD ADD SWAP1 JUMPDEST PUSH2 0x4002 JUMPI JUMPDEST POP POP POP POP SWAP1 PUSH2 0x3FF6 SWAP5 PUSH2 0x320A SWAP5 SWAP4 SWAP3 MLOAD SWAP6 DUP4 PUSH2 0x3FE7 DUP9 SWAP6 MLOAD DUP1 SWAP3 DUP9 DUP1 DUP10 ADD SWAP2 ADD PUSH2 0x3080 JUMP JUMPDEST DUP5 ADD SWAP2 MLOAD DUP1 SWAP4 DUP7 DUP5 ADD SWAP1 PUSH2 0x3080 JUMP JUMPDEST ADD SUB DUP1 DUP5 MSTORE ADD DUP3 PUSH2 0x327E JUMP JUMPDEST PUSH1 0x0 NOT ADD SWAP1 DUP4 SWAP1 PUSH32 0x3031323334353637383961626364656600000000000000000000000000000000 DUP3 DUP3 MOD BYTE DUP4 MSTORE8 DIV SWAP2 DUP3 ISZERO PUSH2 0x4040 JUMPI SWAP2 SWAP1 DUP3 PUSH2 0x3FBD JUMP JUMPDEST PUSH2 0x3FC2 JUMP JUMPDEST SWAP6 PUSH1 0x1 ADD SWAP6 PUSH2 0x3F80 JUMP JUMPDEST SWAP6 SWAP1 PUSH1 0x64 PUSH1 0x2 SWAP2 DIV SWAP2 ADD SWAP6 PUSH2 0x3F75 JUMP JUMPDEST PUSH1 0x4 SWAP2 SWAP8 SWAP3 DIV SWAP2 ADD SWAP6 CODESIZE PUSH2 0x3F6A JUMP JUMPDEST PUSH1 0x8 SWAP2 SWAP8 SWAP3 DIV SWAP2 ADD SWAP6 CODESIZE PUSH2 0x3F5D JUMP JUMPDEST PUSH1 0x10 SWAP2 SWAP8 SWAP3 DIV SWAP2 ADD SWAP6 CODESIZE PUSH2 0x3F4E JUMP JUMPDEST DUP7 SWAP2 SWAP8 SWAP3 DIV SWAP2 ADD SWAP6 CODESIZE PUSH2 0x3F3C JUMP JUMPDEST SWAP2 SWAP8 POP SWAP2 POP DIV DUP2 SWAP6 CODESIZE DUP1 PUSH2 0x3F22 JUMP JUMPDEST SWAP3 POP SWAP3 POP POP MLOAD SWAP1 PUSH2 0x40B9 DUP3 PUSH2 0x322A JUMP JUMPDEST DUP2 MSTORE SWAP1 JUMP JUMPDEST SWAP2 SWAP6 POP SWAP2 POP DUP5 PUSH2 0x40DB PUSH2 0x320A SWAP6 SWAP5 MLOAD SWAP7 DUP8 SWAP5 DUP7 DUP1 DUP8 ADD SWAP2 ADD PUSH2 0x3080 JUMP JUMPDEST DUP3 ADD PUSH2 0x3FF6 DUP3 MLOAD DUP1 SWAP4 DUP7 DUP1 DUP6 ADD SWAP2 ADD PUSH2 0x3080 JUMP JUMPDEST SWAP6 POP POP POP POP POP POP SWAP1 JUMP JUMPDEST ISZERO PUSH2 0x4100 JUMPI JUMP JUMPDEST PUSH1 0x40 MLOAD PUSH3 0x461BCD PUSH1 0xE5 SHL DUP2 MSTORE PUSH1 0x20 PUSH1 0x4 DUP3 ADD MSTORE PUSH1 0x17 PUSH1 0x24 DUP3 ADD MSTORE PUSH32 0x4552433732313A20696E76616C69642061646472657373000000000000000000 PUSH1 0x44 DUP3 ADD MSTORE PUSH1 0x64 SWAP1 REVERT JUMPDEST ISZERO PUSH2 0x414C JUMPI JUMP JUMPDEST PUSH1 0x64 PUSH1 0x40 MLOAD PUSH3 0x461BCD PUSH1 0xE5 SHL DUP2 MSTORE PUSH1 0x20 PUSH1 0x4 DUP3 ADD MSTORE PUSH1 0x20 PUSH1 0x24 DUP3 ADD MSTORE PUSH32 0x4552433732313A206D696E7420746F20746865207A65726F2061646472657373 PUSH1 0x44 DUP3 ADD MSTORE REVERT JUMPDEST ISZERO PUSH2 0x4197 JUMPI JUMP JUMPDEST PUSH1 0x40 MLOAD PUSH3 0x461BCD PUSH1 0xE5 SHL DUP2 MSTORE PUSH1 0x20 PUSH1 0x4 DUP3 ADD MSTORE PUSH1 0x1C PUSH1 0x24 DUP3 ADD MSTORE PUSH32 0x4552433732313A20746F6B656E20616C7265616479206D696E74656400000000 PUSH1 0x44 DUP3 ADD MSTORE PUSH1 0x64 SWAP1 REVERT JUMPDEST ISZERO PUSH2 0x41E3 JUMPI JUMP JUMPDEST PUSH1 0x40 MLOAD PUSH3 0x461BCD PUSH1 0xE5 SHL DUP2 MSTORE PUSH1 0x20 PUSH1 0x4 DUP3 ADD MSTORE PUSH1 0x33 PUSH1 0x24 DUP3 ADD MSTORE PUSH32 0x4552433732313A2070766E20746F6B656E20646F6573206E6F74206578697374 PUSH1 0x44 DUP3 ADD MSTORE PUSH32 0x206F72206E6F74206265656E206D696E74656400000000000000000000000000 PUSH1 0x64 DUP3 ADD MSTORE PUSH1 0x84 SWAP1 REVERT JUMPDEST PUSH1 0x40 MLOAD SWAP1 PUSH2 0x425B DUP3 PUSH2 0x320D JUMP JUMPDEST DUP2 PUSH1 0x0 DUP2 MSTORE PUSH1 0x0 PUSH1 0x20 DUP3 ADD MSTORE PUSH1 0x0 PUSH1 0x40 DUP3 ADD MSTORE PUSH2 0x160 PUSH1 0x60 SWAP2 PUSH1 0x0 DUP4 DUP3 ADD MSTORE DUP3 PUSH1 0x80 DUP3 ADD MSTORE DUP3 PUSH1 0xA0 DUP3 ADD MSTORE DUP3 PUSH1 0xC0 DUP3 ADD MSTORE DUP3 PUSH1 0xE0 DUP3 ADD MSTORE DUP3 PUSH2 0x100 DUP3 ADD MSTORE DUP3 PUSH2 0x120 DUP3 ADD MSTORE DUP3 PUSH2 0x140 DUP3 ADD MSTORE ADD MSTORE JUMP JUMPDEST PUSH8 0xFFFFFFFFFFFFFFFF DUP2 GT PUSH2 0x581 JUMPI PUSH1 0x5 SHL PUSH1 0x20 ADD SWAP1 JUMP JUMPDEST SWAP1 PUSH2 0x42CD DUP3 PUSH2 0x42AB JUMP JUMPDEST PUSH2 0x42DA PUSH1 0x40 MLOAD SWAP2 DUP3 PUSH2 0x327E JUMP JUMPDEST DUP3 DUP2 MSTORE DUP1 SWAP3 PUSH2 0x42EB PUSH1 0x1F NOT SWAP2 PUSH2 0x42AB JUMP JUMPDEST ADD SWAP1 PUSH1 0x0 JUMPDEST DUP3 DUP2 LT PUSH2 0x42FC JUMPI POP POP POP JUMP JUMPDEST PUSH1 0x20 SWAP1 PUSH2 0x4307 PUSH2 0x424E JUMP JUMPDEST DUP3 DUP3 DUP6 ADD ADD MSTORE ADD PUSH2 0x42F0 JUMP JUMPDEST DUP1 MLOAD DUP3 LT ISZERO PUSH2 0x4327 JUMPI PUSH1 0x20 SWAP2 PUSH1 0x5 SHL ADD ADD SWAP1 JUMP JUMPDEST PUSH4 0x4E487B71 PUSH1 0xE0 SHL PUSH1 0x0 MSTORE PUSH1 0x32 PUSH1 0x4 MSTORE PUSH1 0x24 PUSH1 0x0 REVERT JUMPDEST PUSH2 0x1F6 SLOAD DUP2 LT ISZERO PUSH2 0x436C JUMPI PUSH1 0x1 DUP2 ADD DUP1 SWAP2 GT PUSH2 0x4356 JUMPI SWAP1 JUMP JUMPDEST PUSH4 0x4E487B71 PUSH1 0xE0 SHL PUSH1 0x0 MSTORE PUSH1 0x11 PUSH1 0x4 MSTORE PUSH1 0x24 PUSH1 0x0 REVERT JUMPDEST PUSH1 0x40 MLOAD PUSH3 0x461BCD PUSH1 0xE5 SHL DUP2 MSTORE PUSH1 0x20 PUSH1 0x4 DUP3 ADD MSTORE PUSH1 0x1F PUSH1 0x24 DUP3 ADD MSTORE PUSH32 0x455243373231456E756D657261626C653A20696E76616C696420696E64657800 PUSH1 0x44 DUP3 ADD MSTORE PUSH1 0x64 SWAP1 REVERT JUMPDEST PUSH1 0x1 PUSH1 0x1 PUSH1 0xA0 SHL SUB AND DUP1 ISZERO PUSH2 0x43D2 JUMPI PUSH1 0x0 MSTORE PUSH2 0x1F8 PUSH1 0x20 MSTORE PUSH1 0x40 PUSH1 0x0 KECCAK256 SLOAD SWAP1 JUMP JUMPDEST PUSH1 0x40 MLOAD PUSH3 0x461BCD PUSH1 0xE5 SHL DUP2 MSTORE PUSH1 0x20 PUSH1 0x4 DUP3 ADD MSTORE PUSH1 0x2A PUSH1 0x24 DUP3 ADD MSTORE PUSH32 0x4552433732313A2062616C616E636520717565727920666F7220746865207A65 PUSH1 0x44 DUP3 ADD MSTORE PUSH32 0x726F206164647265737300000000000000000000000000000000000000000000 PUSH1 0x64 DUP3 ADD MSTORE PUSH1 0x84 SWAP1 REVERT JUMPDEST SWAP1 PUSH2 0x4447 DUP3 PUSH2 0x43B1 JUMP JUMPDEST DUP2 LT ISZERO PUSH2 0x4478 JUMPI PUSH1 0x1 PUSH1 0x1 PUSH1 0xA0 SHL SUB PUSH2 0x446E SWAP3 AND PUSH1 0x0 MSTORE PUSH2 0x1F8 PUSH1 0x20 MSTORE PUSH1 0x40 PUSH1 0x0 KECCAK256 PUSH2 0x44E3 JUMP JUMPDEST SWAP1 SLOAD SWAP1 PUSH1 0x3 SHL SHR SWAP1 JUMP JUMPDEST PUSH1 0x40 MLOAD PUSH3 0x461BCD PUSH1 0xE5 SHL DUP2 MSTORE PUSH1 0x20 PUSH1 0x4 DUP3 ADD MSTORE PUSH1 0x2B PUSH1 0x24 DUP3 ADD MSTORE PUSH32 0x455243373231456E756D657261626C653A206F776E657220696E646578206F75 PUSH1 0x44 DUP3 ADD MSTORE PUSH32 0x74206F6620626F756E6473000000000000000000000000000000000000000000 PUSH1 0x64 DUP3 ADD MSTORE PUSH1 0x84 SWAP1 REVERT JUMPDEST DUP1 SLOAD DUP3 LT ISZERO PUSH2 0x4327 JUMPI PUSH1 0x0 MSTORE PUSH1 0x20 PUSH1 0x0 KECCAK256 ADD SWAP1 PUSH1 0x0 SWAP1 JUMP JUMPDEST SWAP1 PUSH1 0x0 SWAP2 DUP1 DUP4 MSTORE PUSH2 0x1FA SWAP3 DUP4 PUSH1 0x20 MSTORE PUSH1 0x40 DUP2 KECCAK256 SLOAD ISZERO PUSH1 0x0 EQ PUSH2 0x459C JUMPI PUSH2 0x1F9 SWAP4 DUP5 SLOAD SWAP5 PUSH9 0x10000000000000000 DUP7 LT ISZERO PUSH2 0x4588 JUMPI PUSH1 0x1 DUP7 ADD DUP1 DUP3 SSTORE DUP7 LT ISZERO PUSH2 0x4574 JUMPI DUP4 PUSH1 0x40 SWAP5 SWAP6 SWAP7 PUSH32 0x29EBA5F30CA2030A69ED2D7F74871C83BBC526B071320256F127653C7DFFF4E9 ADD SSTORE SLOAD SWAP4 DUP3 MSTORE PUSH1 0x20 MSTORE KECCAK256 SSTORE PUSH1 0x1 SWAP1 JUMP JUMPDEST PUSH4 0x4E487B71 PUSH1 0xE0 SHL DUP4 MSTORE PUSH1 0x32 PUSH1 0x4 MSTORE PUSH1 0x24 DUP4 REVERT JUMPDEST PUSH4 0x4E487B71 PUSH1 0xE0 SHL DUP4 MSTORE PUSH1 0x41 PUSH1 0x4 MSTORE PUSH1 0x24 DUP4 REVERT JUMPDEST SWAP3 POP POP JUMP JUMPDEST SWAP2 SWAP1 PUSH1 0x1 DUP4 ADD PUSH1 0x0 SWAP1 DUP3 DUP3 MSTORE DUP1 PUSH1 0x20 MSTORE PUSH1 0x40 DUP3 KECCAK256 SLOAD ISZERO PUSH1 0x0 EQ PUSH2 0x460D JUMPI DUP5 SLOAD SWAP5 PUSH9 0x10000000000000000 DUP7 LT ISZERO PUSH2 0x4588 JUMPI DUP4 PUSH2 0x45E7 DUP8 PUSH1 0x1 PUSH1 0x40 SWAP8 SWAP9 SWAP10 ADD DUP5 SSTORE DUP4 PUSH2 0x44E3 JUMP JUMPDEST DUP2 SWAP3 SWAP2 SLOAD SWAP1 PUSH1 0x3 SHL PUSH1 0x0 NOT DUP2 SHL SWAP3 DUP4 SWAP2 SHL AND SWAP2 NOT AND OR SWAP1 SSTORE SLOAD SWAP4 DUP3 MSTORE PUSH1 0x20 MSTORE KECCAK256 SSTORE PUSH1 0x1 SWAP1 JUMP JUMPDEST POP SWAP3 POP POP JUMP INVALID LOG1 PUSH5 0x736F6C6343 STOP ADDMOD LT STOP EXP "},"methodIdentifiers":{"SYTEMAP_SYMBOL()":"3f35198e","approve(address,uint256)":"095ea7b3","balanceOf(address)":"70a08231","burn(uint256)":"42966c68","changePropertyPriceByOwner(uint256,uint256)":"90cbe759","getAllMintedPropertyDetails()":"93d3e755","getAllPropertyDetailsByOwner(address)":"5939f777","getApproved(uint256)":"081812fc","getNumberOfPropertyTokensMinted()":"c5719298","getPropertyInfoDetailsByPVN(uint256)":"245f0ca4","getPropertyVerificationNoOwner(uint256)":"e4a9614a","getTotalNumberOfPropertyOwnedByAnAddress(address)":"c62e5581","initialize(string)":"f62d1888","isApprovedForAll(address,address)":"e985e9c5","name()":"06fdde03","owner()":"8da5cb5b","ownerOf(uint256)":"6352211e","pause()":"8456cb59","paused()":"5c975abb","proxiableUUID()":"52d1902d","renounceOwnership()":"715018a6","safeMintNewPropertyInfo(string,string,string,uint256,string,string,string,string,address,string,uint256)":"dfd64930","safeTransferFrom(address,address,uint256)":"42842e0e","safeTransferFrom(address,address,uint256,bytes)":"b88d4fde","setApprovalForAll(address,bool)":"a22cb465","setBaseURI(string)":"55f804b3","supportsInterface(bytes4)":"01ffc9a7","symbol()":"95d89b41","tokenByIndex(uint256)":"4f6ccce7","tokenOfOwnerByIndex(address,uint256)":"2f745c59","tokenURI(uint256)":"c87b56dd","totalSupply()":"18160ddd","transferFrom(address,address,uint256)":"23b872dd","transferOwnership(address)":"f2fde38b","unpause()":"3f4ba83a","upgradeTo(address)":"3659cfe6","upgradeToAndCall(address,bytes)":"4f1ef286"}},"storageLayout":{"storage":[{"astId":534,"contract":"contracts/SytemapAssetRegistry.sol:SytemapAssetRegistry","label":"_initialized","offset":0,"slot":"0","type":"t_uint8"},{"astId":537,"contract":"contracts/SytemapAssetRegistry.sol:SytemapAssetRegistry","label":"_initializing","offset":1,"slot":"0","type":"t_bool"},{"astId":3070,"contract":"contracts/SytemapAssetRegistry.sol:SytemapAssetRegistry","label":"__gap","offset":0,"slot":"1","type":"t_array(t_uint256)50_storage"},{"astId":3423,"contract":"contracts/SytemapAssetRegistry.sol:SytemapAssetRegistry","label":"__gap","offset":0,"slot":"51","type":"t_array(t_uint256)50_storage"},{"astId":1061,"contract":"contracts/SytemapAssetRegistry.sol:SytemapAssetRegistry","label":"_name","offset":0,"slot":"101","type":"t_string_storage"},{"astId":1063,"contract":"contracts/SytemapAssetRegistry.sol:SytemapAssetRegistry","label":"_symbol","offset":0,"slot":"102","type":"t_string_storage"},{"astId":1067,"contract":"contracts/SytemapAssetRegistry.sol:SytemapAssetRegistry","label":"_owners","offset":0,"slot":"103","type":"t_mapping(t_uint256,t_address)"},{"astId":1071,"contract":"contracts/SytemapAssetRegistry.sol:SytemapAssetRegistry","label":"_balances","offset":0,"slot":"104","type":"t_mapping(t_address,t_uint256)"},{"astId":1075,"contract":"contracts/SytemapAssetRegistry.sol:SytemapAssetRegistry","label":"_tokenApprovals","offset":0,"slot":"105","type":"t_mapping(t_uint256,t_address)"},{"astId":1081,"contract":"contracts/SytemapAssetRegistry.sol:SytemapAssetRegistry","label":"_operatorApprovals","offset":0,"slot":"106","type":"t_mapping(t_address,t_mapping(t_address,t_bool))"},{"astId":1983,"contract":"contracts/SytemapAssetRegistry.sol:SytemapAssetRegistry","label":"__gap","offset":0,"slot":"107","type":"t_array(t_uint256)44_storage"},{"astId":2570,"contract":"contracts/SytemapAssetRegistry.sol:SytemapAssetRegistry","label":"_tokenURIs","offset":0,"slot":"151","type":"t_mapping(t_uint256,t_string_storage)"},{"astId":2686,"contract":"contracts/SytemapAssetRegistry.sol:SytemapAssetRegistry","label":"__gap","offset":0,"slot":"152","type":"t_array(t_uint256)49_storage"},{"astId":853,"contract":"contracts/SytemapAssetRegistry.sol:SytemapAssetRegistry","label":"_paused","offset":0,"slot":"201","type":"t_bool"},{"astId":958,"contract":"contracts/SytemapAssetRegistry.sol:SytemapAssetRegistry","label":"__gap","offset":0,"slot":"202","type":"t_array(t_uint256)49_storage"},{"astId":10,"contract":"contracts/SytemapAssetRegistry.sol:SytemapAssetRegistry","label":"_owner","offset":0,"slot":"251","type":"t_address"},{"astId":130,"contract":"contracts/SytemapAssetRegistry.sol:SytemapAssetRegistry","label":"__gap","offset":0,"slot":"252","type":"t_array(t_uint256)49_storage"},{"astId":2167,"contract":"contracts/SytemapAssetRegistry.sol:SytemapAssetRegistry","label":"__gap","offset":0,"slot":"301","type":"t_array(t_uint256)50_storage"},{"astId":516,"contract":"contracts/SytemapAssetRegistry.sol:SytemapAssetRegistry","label":"__gap","offset":0,"slot":"351","type":"t_array(t_uint256)50_storage"},{"astId":831,"contract":"contracts/SytemapAssetRegistry.sol:SytemapAssetRegistry","label":"__gap","offset":0,"slot":"401","type":"t_array(t_uint256)50_storage"},{"astId":973,"contract":"contracts/SytemapAssetRegistry.sol:SytemapAssetRegistry","label":"_status","offset":0,"slot":"451","type":"t_uint256"},{"astId":1031,"contract":"contracts/SytemapAssetRegistry.sol:SytemapAssetRegistry","label":"__gap","offset":0,"slot":"452","type":"t_array(t_uint256)49_storage"},{"astId":6085,"contract":"contracts/SytemapAssetRegistry.sol:SytemapAssetRegistry","label":"baseTokenURI","offset":0,"slot":"501","type":"t_string_storage"},{"astId":6096,"contract":"contracts/SytemapAssetRegistry.sol:SytemapAssetRegistry","label":"_tokenIdTracker","offset":0,"slot":"502","type":"t_struct(Counter)3077_storage"},{"astId":6102,"contract":"contracts/SytemapAssetRegistry.sol:SytemapAssetRegistry","label":"_pvnToPropertInfo","offset":0,"slot":"503","type":"t_mapping(t_uint256,t_struct(PropertyInffo)6939_storage)"},{"astId":6107,"contract":"contracts/SytemapAssetRegistry.sol:SytemapAssetRegistry","label":"_holderTokens","offset":0,"slot":"504","type":"t_mapping(t_address,t_struct(UintSet)5906_storage)"},{"astId":6110,"contract":"contracts/SytemapAssetRegistry.sol:SytemapAssetRegistry","label":"_tokenOwners","offset":0,"slot":"505","type":"t_struct(UintToAddressMap)4754_storage"},{"astId":6114,"contract":"contracts/SytemapAssetRegistry.sol:SytemapAssetRegistry","label":"_propertyVerificationNumberToTokenId","offset":0,"slot":"508","type":"t_mapping(t_uint256,t_uint256)"}],"types":{"t_address":{"encoding":"inplace","label":"address","numberOfBytes":"20"},"t_array(t_bytes32)dyn_storage":{"base":"t_bytes32","encoding":"dynamic_array","label":"bytes32[]","numberOfBytes":"32"},"t_array(t_uint256)44_storage":{"base":"t_uint256","encoding":"inplace","label":"uint256[44]","numberOfBytes":"1408"},"t_array(t_uint256)49_storage":{"base":"t_uint256","encoding":"inplace","label":"uint256[49]","numberOfBytes":"1568"},"t_array(t_uint256)50_storage":{"base":"t_uint256","encoding":"inplace","label":"uint256[50]","numberOfBytes":"1600"},"t_bool":{"encoding":"inplace","label":"bool","numberOfBytes":"1"},"t_bytes32":{"encoding":"inplace","label":"bytes32","numberOfBytes":"32"},"t_mapping(t_address,t_bool)":{"encoding":"mapping","key":"t_address","label":"mapping(address => bool)","numberOfBytes":"32","value":"t_bool"},"t_mapping(t_address,t_mapping(t_address,t_bool))":{"encoding":"mapping","key":"t_address","label":"mapping(address => mapping(address => bool))","numberOfBytes":"32","value":"t_mapping(t_address,t_bool)"},"t_mapping(t_address,t_struct(UintSet)5906_storage)":{"encoding":"mapping","key":"t_address","label":"mapping(address => struct EnumerableSetUpgradeable.UintSet)","numberOfBytes":"32","value":"t_struct(UintSet)5906_storage"},"t_mapping(t_address,t_uint256)":{"encoding":"mapping","key":"t_address","label":"mapping(address => uint256)","numberOfBytes":"32","value":"t_uint256"},"t_mapping(t_bytes32,t_bytes32)":{"encoding":"mapping","key":"t_bytes32","label":"mapping(bytes32 => bytes32)","numberOfBytes":"32","value":"t_bytes32"},"t_mapping(t_bytes32,t_uint256)":{"encoding":"mapping","key":"t_bytes32","label":"mapping(bytes32 => uint256)","numberOfBytes":"32","value":"t_uint256"},"t_mapping(t_uint256,t_address)":{"encoding":"mapping","key":"t_uint256","label":"mapping(uint256 => address)","numberOfBytes":"32","value":"t_address"},"t_mapping(t_uint256,t_string_storage)":{"encoding":"mapping","key":"t_uint256","label":"mapping(uint256 => string)","numberOfBytes":"32","value":"t_string_storage"},"t_mapping(t_uint256,t_struct(PropertyInffo)6939_storage)":{"encoding":"mapping","key":"t_uint256","label":"mapping(uint256 => struct ISytemapAssetRegistry.PropertyInffo)","numberOfBytes":"32","value":"t_struct(PropertyInffo)6939_storage"},"t_mapping(t_uint256,t_uint256)":{"encoding":"mapping","key":"t_uint256","label":"mapping(uint256 => uint256)","numberOfBytes":"32","value":"t_uint256"},"t_string_storage":{"encoding":"bytes","label":"string","numberOfBytes":"32"},"t_struct(Bytes32Set)5628_storage":{"encoding":"inplace","label":"struct EnumerableSetUpgradeable.Bytes32Set","members":[{"astId":5627,"contract":"contracts/SytemapAssetRegistry.sol:SytemapAssetRegistry","label":"_inner","offset":0,"slot":"0","type":"t_struct(Set)5434_storage"}],"numberOfBytes":"64"},"t_struct(Bytes32ToBytes32Map)4317_storage":{"encoding":"inplace","label":"struct EnumerableMapUpgradeable.Bytes32ToBytes32Map","members":[{"astId":4312,"contract":"contracts/SytemapAssetRegistry.sol:SytemapAssetRegistry","label":"_keys","offset":0,"slot":"0","type":"t_struct(Bytes32Set)5628_storage"},{"astId":4316,"contract":"contracts/SytemapAssetRegistry.sol:SytemapAssetRegistry","label":"_values","offset":0,"slot":"2","type":"t_mapping(t_bytes32,t_bytes32)"}],"numberOfBytes":"96"},"t_struct(Counter)3077_storage":{"encoding":"inplace","label":"struct CountersUpgradeable.Counter","members":[{"astId":3076,"contract":"contracts/SytemapAssetRegistry.sol:SytemapAssetRegistry","label":"_value","offset":0,"slot":"0","type":"t_uint256"}],"numberOfBytes":"32"},"t_struct(PropertyInffo)6939_storage":{"encoding":"inplace","label":"struct ISytemapAssetRegistry.PropertyInffo","members":[{"astId":6916,"contract":"contracts/SytemapAssetRegistry.sol:SytemapAssetRegistry","label":"priceOfPlot","offset":0,"slot":"0","type":"t_uint256"},{"astId":6918,"contract":"contracts/SytemapAssetRegistry.sol:SytemapAssetRegistry","label":"propertyVerificationNo","offset":0,"slot":"1","type":"t_uint256"},{"astId":6920,"contract":"contracts/SytemapAssetRegistry.sol:SytemapAssetRegistry","label":"timestamp","offset":0,"slot":"2","type":"t_uint256"},{"astId":6922,"contract":"contracts/SytemapAssetRegistry.sol:SytemapAssetRegistry","label":"buyerWalletId","offset":0,"slot":"3","type":"t_address"},{"astId":6924,"contract":"contracts/SytemapAssetRegistry.sol:SytemapAssetRegistry","label":"plotNo","offset":0,"slot":"4","type":"t_string_storage"},{"astId":6926,"contract":"contracts/SytemapAssetRegistry.sol:SytemapAssetRegistry","label":"sizeOfPlot","offset":0,"slot":"5","type":"t_string_storage"},{"astId":6928,"contract":"contracts/SytemapAssetRegistry.sol:SytemapAssetRegistry","label":"coordinateOfPlot","offset":0,"slot":"6","type":"t_string_storage"},{"astId":6930,"contract":"contracts/SytemapAssetRegistry.sol:SytemapAssetRegistry","label":"tokenURL","offset":0,"slot":"7","type":"t_string_storage"},{"astId":6932,"contract":"contracts/SytemapAssetRegistry.sol:SytemapAssetRegistry","label":"estateName","offset":0,"slot":"8","type":"t_string_storage"},{"astId":6934,"contract":"contracts/SytemapAssetRegistry.sol:SytemapAssetRegistry","label":"plotUrl","offset":0,"slot":"9","type":"t_string_storage"},{"astId":6936,"contract":"contracts/SytemapAssetRegistry.sol:SytemapAssetRegistry","label":"dateOfAllocation","offset":0,"slot":"10","type":"t_string_storage"},{"astId":6938,"contract":"contracts/SytemapAssetRegistry.sol:SytemapAssetRegistry","label":"estateCompanyName","offset":0,"slot":"11","type":"t_string_storage"}],"numberOfBytes":"384"},"t_struct(Set)5434_storage":{"encoding":"inplace","label":"struct EnumerableSetUpgradeable.Set","members":[{"astId":5429,"contract":"contracts/SytemapAssetRegistry.sol:SytemapAssetRegistry","label":"_values","offset":0,"slot":"0","type":"t_array(t_bytes32)dyn_storage"},{"astId":5433,"contract":"contracts/SytemapAssetRegistry.sol:SytemapAssetRegistry","label":"_indexes","offset":0,"slot":"1","type":"t_mapping(t_bytes32,t_uint256)"}],"numberOfBytes":"64"},"t_struct(UintSet)5906_storage":{"encoding":"inplace","label":"struct EnumerableSetUpgradeable.UintSet","members":[{"astId":5905,"contract":"contracts/SytemapAssetRegistry.sol:SytemapAssetRegistry","label":"_inner","offset":0,"slot":"0","type":"t_struct(Set)5434_storage"}],"numberOfBytes":"64"},"t_struct(UintToAddressMap)4754_storage":{"encoding":"inplace","label":"struct EnumerableMapUpgradeable.UintToAddressMap","members":[{"astId":4753,"contract":"contracts/SytemapAssetRegistry.sol:SytemapAssetRegistry","label":"_inner","offset":0,"slot":"0","type":"t_struct(Bytes32ToBytes32Map)4317_storage"}],"numberOfBytes":"96"},"t_uint256":{"encoding":"inplace","label":"uint256","numberOfBytes":"32"},"t_uint8":{"encoding":"inplace","label":"uint8","numberOfBytes":"1"}}}}}}