{"contracts/SytemapAssetRegistry.sol":{"SytemapAssetRegistry":{"abi":[{"anonymous":false,"inputs":[{"indexed":false,"internalType":"address","name":"previousAdmin","type":"address"},{"indexed":false,"internalType":"address","name":"newAdmin","type":"address"}],"name":"AdminChanged","type":"event"},{"anonymous":false,"inputs":[{"indexed":true,"internalType":"address","name":"owner","type":"address"},{"indexed":true,"internalType":"address","name":"approved","type":"address"},{"indexed":true,"internalType":"uint256","name":"tokenId","type":"uint256"}],"name":"Approval","type":"event"},{"anonymous":false,"inputs":[{"indexed":true,"internalType":"address","name":"owner","type":"address"},{"indexed":true,"internalType":"address","name":"operator","type":"address"},{"indexed":false,"internalType":"bool","name":"approved","type":"bool"}],"name":"ApprovalForAll","type":"event"},{"anonymous":false,"inputs":[{"indexed":true,"internalType":"string","name":"oldValue","type":"string"},{"indexed":true,"internalType":"string","name":"newValue","type":"string"}],"name":"BaseURIUpdated","type":"event"},{"anonymous":false,"inputs":[{"indexed":true,"internalType":"address","name":"beacon","type":"address"}],"name":"BeaconUpgraded","type":"event"},{"anonymous":false,"inputs":[{"indexed":false,"internalType":"uint8","name":"version","type":"uint8"}],"name":"Initialized","type":"event"},{"anonymous":false,"inputs":[{"indexed":false,"internalType":"uint256","name":"plotNo","type":"uint256"},{"indexed":true,"internalType":"string","name":"tokenURL","type":"string"},{"indexed":false,"internalType":"string","name":"estateName","type":"string"},{"indexed":false,"internalType":"uint256","name":"priceOfPlot","type":"uint256"},{"indexed":false,"internalType":"uint256","name":"sizeOfPlot","type":"uint256"},{"indexed":false,"internalType":"string","name":"plotUrl","type":"string"},{"indexed":false,"internalType":"string","name":"dateOfAllocation","type":"string"},{"indexed":false,"internalType":"uint256","name":"coordinateOfPlot","type":"uint256"},{"indexed":false,"internalType":"address","name":"buyerWalletId","type":"address"},{"indexed":false,"internalType":"string","name":"estateCompanyName","type":"string"},{"indexed":false,"internalType":"uint256","name":"propertyVerificationNo","type":"uint256"},{"indexed":false,"internalType":"uint256","name":"tokenId","type":"uint256"},{"indexed":false,"internalType":"uint256","name":"timestamp","type":"uint256"}],"name":"NewPropertyInfoAdded","type":"event"},{"anonymous":false,"inputs":[{"indexed":true,"internalType":"address","name":"previousOwner","type":"address"},{"indexed":true,"internalType":"address","name":"newOwner","type":"address"}],"name":"OwnershipTransferred","type":"event"},{"anonymous":false,"inputs":[{"indexed":false,"internalType":"address","name":"account","type":"address"}],"name":"Paused","type":"event"},{"anonymous":false,"inputs":[{"indexed":false,"internalType":"address","name":"owner","type":"address"},{"indexed":false,"internalType":"uint256","name":"propertyVerificationNo","type":"uint256"},{"indexed":false,"internalType":"uint256","name":"newPrice","type":"uint256"}],"name":"PropertyInfoPriceChanged","type":"event"},{"anonymous":false,"inputs":[{"indexed":true,"internalType":"uint256","name":"tokenId","type":"uint256"},{"indexed":true,"internalType":"uint256","name":"propertyVerificationNo","type":"uint256"},{"indexed":false,"internalType":"string","name":"tokenURL","type":"string"}],"name":"TokenMinted","type":"event"},{"anonymous":false,"inputs":[{"indexed":true,"internalType":"address","name":"from","type":"address"},{"indexed":true,"internalType":"address","name":"to","type":"address"},{"indexed":true,"internalType":"uint256","name":"tokenId","type":"uint256"}],"name":"Transfer","type":"event"},{"anonymous":false,"inputs":[{"indexed":false,"internalType":"address","name":"account","type":"address"}],"name":"Unpaused","type":"event"},{"anonymous":false,"inputs":[{"indexed":true,"internalType":"address","name":"implementation","type":"address"}],"name":"Upgraded","type":"event"},{"inputs":[],"name":"SYTEMAP_SYMBOL","outputs":[{"internalType":"string","name":"","type":"string"}],"stateMutability":"view","type":"function"},{"inputs":[{"internalType":"address","name":"to","type":"address"},{"internalType":"uint256","name":"tokenId","type":"uint256"}],"name":"approve","outputs":[],"stateMutability":"nonpayable","type":"function"},{"inputs":[{"internalType":"address","name":"_owner","type":"address"}],"name":"balanceOf","outputs":[{"internalType":"uint256","name":"","type":"uint256"}],"stateMutability":"view","type":"function"},{"inputs":[{"internalType":"uint256","name":"tokenId","type":"uint256"}],"name":"burn","outputs":[],"stateMutability":"nonpayable","type":"function"},{"inputs":[{"internalType":"uint256","name":"_propertyVerificationNo","type":"uint256"},{"internalType":"uint256","name":"_priceOfPlot","type":"uint256"}],"name":"changePropertyPriceByOwner","outputs":[{"internalType":"bool","name":"","type":"bool"}],"stateMutability":"nonpayable","type":"function"},{"inputs":[],"name":"getAllMintedPropertyDetails","outputs":[{"components":[{"internalType":"uint256","name":"plotNo","type":"uint256"},{"internalType":"uint256","name":"priceOfPlot","type":"uint256"},{"internalType":"uint256","name":"sizeOfPlot","type":"uint256"},{"internalType":"uint256","name":"coordinateOfPlot","type":"uint256"},{"internalType":"uint256","name":"propertyVerificationNo","type":"uint256"},{"internalType":"uint256","name":"timestamp","type":"uint256"},{"internalType":"address","name":"buyerWalletId","type":"address"},{"internalType":"string","name":"tokenURL","type":"string"},{"internalType":"string","name":"estateName","type":"string"},{"internalType":"string","name":"plotUrl","type":"string"},{"internalType":"string","name":"dateOfAllocation","type":"string"},{"internalType":"string","name":"estateCompanyName","type":"string"}],"internalType":"struct ISytemapAssetRegistry.PropertyInffo[]","name":"","type":"tuple[]"}],"stateMutability":"view","type":"function"},{"inputs":[{"internalType":"address","name":"_owner","type":"address"}],"name":"getAllPropertyDetailsByOwner","outputs":[{"components":[{"internalType":"uint256","name":"plotNo","type":"uint256"},{"internalType":"uint256","name":"priceOfPlot","type":"uint256"},{"internalType":"uint256","name":"sizeOfPlot","type":"uint256"},{"internalType":"uint256","name":"coordinateOfPlot","type":"uint256"},{"internalType":"uint256","name":"propertyVerificationNo","type":"uint256"},{"internalType":"uint256","name":"timestamp","type":"uint256"},{"internalType":"address","name":"buyerWalletId","type":"address"},{"internalType":"string","name":"tokenURL","type":"string"},{"internalType":"string","name":"estateName","type":"string"},{"internalType":"string","name":"plotUrl","type":"string"},{"internalType":"string","name":"dateOfAllocation","type":"string"},{"internalType":"string","name":"estateCompanyName","type":"string"}],"internalType":"struct ISytemapAssetRegistry.PropertyInffo[]","name":"","type":"tuple[]"}],"stateMutability":"view","type":"function"},{"inputs":[{"internalType":"uint256","name":"tokenId","type":"uint256"}],"name":"getApproved","outputs":[{"internalType":"address","name":"","type":"address"}],"stateMutability":"view","type":"function"},{"inputs":[],"name":"getNumberOfPropertyTokensMinted","outputs":[{"internalType":"uint256","name":"","type":"uint256"}],"stateMutability":"view","type":"function"},{"inputs":[{"internalType":"uint256","name":"_propertyVerificationNo","type":"uint256"}],"name":"getPropertyInfoDetailsByPVN","outputs":[{"components":[{"internalType":"uint256","name":"plotNo","type":"uint256"},{"internalType":"uint256","name":"priceOfPlot","type":"uint256"},{"internalType":"uint256","name":"sizeOfPlot","type":"uint256"},{"internalType":"uint256","name":"coordinateOfPlot","type":"uint256"},{"internalType":"uint256","name":"propertyVerificationNo","type":"uint256"},{"internalType":"uint256","name":"timestamp","type":"uint256"},{"internalType":"address","name":"buyerWalletId","type":"address"},{"internalType":"string","name":"tokenURL","type":"string"},{"internalType":"string","name":"estateName","type":"string"},{"internalType":"string","name":"plotUrl","type":"string"},{"internalType":"string","name":"dateOfAllocation","type":"string"},{"internalType":"string","name":"estateCompanyName","type":"string"}],"internalType":"struct ISytemapAssetRegistry.PropertyInffo","name":"","type":"tuple"}],"stateMutability":"view","type":"function"},{"inputs":[{"internalType":"uint256","name":"_propertyVerificationNo","type":"uint256"}],"name":"getPropertyVerificationNoOwner","outputs":[{"internalType":"address","name":"","type":"address"}],"stateMutability":"view","type":"function"},{"inputs":[{"internalType":"address","name":"_owner","type":"address"}],"name":"getTotalNumberOfPropertyOwnedByAnAddress","outputs":[{"internalType":"uint256","name":"","type":"uint256"}],"stateMutability":"view","type":"function"},{"inputs":[{"internalType":"string","name":"_baseTokenURI","type":"string"}],"name":"initialize","outputs":[],"stateMutability":"nonpayable","type":"function"},{"inputs":[{"internalType":"address","name":"owner","type":"address"},{"internalType":"address","name":"operator","type":"address"}],"name":"isApprovedForAll","outputs":[{"internalType":"bool","name":"","type":"bool"}],"stateMutability":"view","type":"function"},{"inputs":[],"name":"name","outputs":[{"internalType":"string","name":"","type":"string"}],"stateMutability":"view","type":"function"},{"inputs":[],"name":"owner","outputs":[{"internalType":"address","name":"","type":"address"}],"stateMutability":"view","type":"function"},{"inputs":[{"internalType":"uint256","name":"_tokenId","type":"uint256"}],"name":"ownerOf","outputs":[{"internalType":"address","name":"","type":"address"}],"stateMutability":"view","type":"function"},{"inputs":[],"name":"pause","outputs":[],"stateMutability":"nonpayable","type":"function"},{"inputs":[],"name":"paused","outputs":[{"internalType":"bool","name":"","type":"bool"}],"stateMutability":"view","type":"function"},{"inputs":[],"name":"proxiableUUID","outputs":[{"internalType":"bytes32","name":"","type":"bytes32"}],"stateMutability":"view","type":"function"},{"inputs":[],"name":"renounceOwnership","outputs":[],"stateMutability":"nonpayable","type":"function"},{"inputs":[{"internalType":"uint256","name":"_plotNo","type":"uint256"},{"internalType":"string","name":"_tokenURL","type":"string"},{"internalType":"string","name":"_estateName","type":"string"},{"internalType":"uint256","name":"_priceOfPlot","type":"uint256"},{"internalType":"uint256","name":"_sizeOfPlot","type":"uint256"},{"internalType":"string","name":"_plotUrl","type":"string"},{"internalType":"string","name":"_dateOfAllocation","type":"string"},{"internalType":"uint256","name":"_coordinateOfPlot","type":"uint256"},{"internalType":"address","name":"_buyerWalletId","type":"address"},{"internalType":"string","name":"_estateCompanyName","type":"string"},{"internalType":"uint256","name":"_propertyVerificationNo","type":"uint256"}],"name":"safeMintNewPropertyInfo","outputs":[],"stateMutability":"nonpayable","type":"function"},{"inputs":[{"internalType":"address","name":"from","type":"address"},{"internalType":"address","name":"to","type":"address"},{"internalType":"uint256","name":"tokenId","type":"uint256"}],"name":"safeTransferFrom","outputs":[],"stateMutability":"nonpayable","type":"function"},{"inputs":[{"internalType":"address","name":"from","type":"address"},{"internalType":"address","name":"to","type":"address"},{"internalType":"uint256","name":"tokenId","type":"uint256"},{"internalType":"bytes","name":"data","type":"bytes"}],"name":"safeTransferFrom","outputs":[],"stateMutability":"nonpayable","type":"function"},{"inputs":[{"internalType":"address","name":"operator","type":"address"},{"internalType":"bool","name":"approved","type":"bool"}],"name":"setApprovalForAll","outputs":[],"stateMutability":"nonpayable","type":"function"},{"inputs":[{"internalType":"string","name":"_newBaseURI","type":"string"}],"name":"setBaseURI","outputs":[],"stateMutability":"nonpayable","type":"function"},{"inputs":[{"internalType":"bytes4","name":"interfaceId","type":"bytes4"}],"name":"supportsInterface","outputs":[{"internalType":"bool","name":"","type":"bool"}],"stateMutability":"view","type":"function"},{"inputs":[],"name":"symbol","outputs":[{"internalType":"string","name":"","type":"string"}],"stateMutability":"view","type":"function"},{"inputs":[{"internalType":"uint256","name":"index","type":"uint256"}],"name":"tokenByIndex","outputs":[{"internalType":"uint256","name":"","type":"uint256"}],"stateMutability":"view","type":"function"},{"inputs":[{"internalType":"address","name":"_owner","type":"address"},{"internalType":"uint256","name":"index","type":"uint256"}],"name":"tokenOfOwnerByIndex","outputs":[{"internalType":"uint256","name":"","type":"uint256"}],"stateMutability":"view","type":"function"},{"inputs":[{"internalType":"uint256","name":"_propertyVerificationNo","type":"uint256"}],"name":"tokenURI","outputs":[{"internalType":"string","name":"","type":"string"}],"stateMutability":"view","type":"function"},{"inputs":[],"name":"totalSupply","outputs":[{"internalType":"uint256","name":"","type":"uint256"}],"stateMutability":"view","type":"function"},{"inputs":[{"internalType":"address","name":"from","type":"address"},{"internalType":"address","name":"to","type":"address"},{"internalType":"uint256","name":"tokenId","type":"uint256"}],"name":"transferFrom","outputs":[],"stateMutability":"nonpayable","type":"function"},{"inputs":[{"internalType":"address","name":"newOwner","type":"address"}],"name":"transferOwnership","outputs":[],"stateMutability":"nonpayable","type":"function"},{"inputs":[],"name":"unpause","outputs":[],"stateMutability":"nonpayable","type":"function"},{"inputs":[{"internalType":"address","name":"newImplementation","type":"address"}],"name":"upgradeTo","outputs":[],"stateMutability":"nonpayable","type":"function"},{"inputs":[{"internalType":"address","name":"newImplementation","type":"address"},{"internalType":"bytes","name":"data","type":"bytes"}],"name":"upgradeToAndCall","outputs":[],"stateMutability":"payable","type":"function"}],"evm":{"bytecode":{"linkReferences":{},"object":"60a06040523060805234801561001457600080fd5b5060805161485861004c60003960008181610ed701528181610f5c015281816110ea0152818161116f01526112bc01526148586000f3fe60806040526004361061026a5760003560e01c80635c975abb1161015357806395d89b41116100cb578063c87b56dd1161007f578063e985e9c511610064578063e985e9c5146106a9578063f2fde38b146106f2578063f62d18881461071257600080fd5b8063c87b56dd14610669578063e4a9614a1461068957600080fd5b8063b88d4fde116100b0578063b88d4fde14610614578063c571929814610634578063c62e55811461064957600080fd5b806395d89b41146105df578063a22cb465146105f457600080fd5b806380b0fd0a116101225780638da5cb5b116101075780638da5cb5b1461058c57806390cbe759146105aa57806393d3e755146105ca57600080fd5b806380b0fd0a146105575780638456cb591461057757600080fd5b80635c975abb146104ea5780636352211e1461050257806370a0823114610522578063715018a61461054257600080fd5b80633f35198e116101e65780634f1ef286116101b557806352d1902d1161019a57806352d1902d1461048857806355f804b31461049d5780635939f777146104bd57600080fd5b80634f1ef286146104555780634f6ccce71461046857600080fd5b80633f35198e146103d05780633f4ba83a1461040057806342842e0e1461041557806342966c681461043557600080fd5b806318160ddd1161023d578063245f0ca411610222578063245f0ca4146103635780632f745c59146103905780633659cfe6146103b057600080fd5b806318160ddd1461032057806323b872dd1461034357600080fd5b806301ffc9a71461026f57806306fdde03146102a4578063081812fc146102c6578063095ea7b3146102fe575b600080fd5b34801561027b57600080fd5b5061028f61028a366004613ec6565b610732565b60405190151581526020015b60405180910390f35b3480156102b057600080fd5b506102b9610784565b60405161029b9190613f33565b3480156102d257600080fd5b506102e66102e1366004613f46565b610816565b6040516001600160a01b03909116815260200161029b565b34801561030a57600080fd5b5061031e610319366004613f7b565b61083d565b005b34801561032c57600080fd5b50610335610957565b60405190815260200161029b565b34801561034f57600080fd5b5061031e61035e366004613fa5565b610968565b34801561036f57600080fd5b5061038361037e366004613f46565b6109e0565b60405161029b91906140c7565b34801561039c57600080fd5b506103356103ab366004613f7b565b610e24565b3480156103bc57600080fd5b5061031e6103cb3660046140da565b610ecd565b3480156103dc57600080fd5b506102b9604051806040016040528060048152602001635354594560e01b81525081565b34801561040c57600080fd5b5061031e611048565b34801561042157600080fd5b5061031e610430366004613fa5565b61105a565b34801561044157600080fd5b5061031e610450366004613f46565b611075565b61031e610463366004614198565b6110e0565b34801561047457600080fd5b50610335610483366004613f46565b61124c565b34801561049457600080fd5b506103356112af565b3480156104a957600080fd5b5061031e6104b83660046141e6565b611374565b3480156104c957600080fd5b506104dd6104d83660046140da565b6113df565b60405161029b919061421b565b3480156104f657600080fd5b5060c95460ff1661028f565b34801561050e57600080fd5b506102e661051d366004613f46565b61183c565b34801561052e57600080fd5b5061033561053d3660046140da565b611865565b34801561054e57600080fd5b5061031e611905565b34801561056357600080fd5b5061031e61057236600461427d565b611917565b34801561058357600080fd5b5061031e611aed565b34801561059857600080fd5b5060fb546001600160a01b03166102e6565b3480156105b657600080fd5b5061028f6105c536600461439a565b611afd565b3480156105d657600080fd5b506104dd611c95565b3480156105eb57600080fd5b506102b96120f1565b34801561060057600080fd5b5061031e61060f3660046143bc565b612100565b34801561062057600080fd5b5061031e61062f3660046143f8565b61210b565b34801561064057600080fd5b50610335612189565b34801561065557600080fd5b506103356106643660046140da565b612194565b34801561067557600080fd5b506102b9610684366004613f46565b6121ab565b34801561069557600080fd5b506102e66106a4366004613f46565b612241565b3480156106b557600080fd5b5061028f6106c4366004614460565b6001600160a01b039182166000908152606a6020908152604080832093909416825291909152205460ff1690565b3480156106fe57600080fd5b5061031e61070d3660046140da565b612264565b34801561071e57600080fd5b5061031e61072d3660046141e6565b6122f1565b60006001600160e01b031982166380ac58cd60e01b148061076357506001600160e01b03198216635b5e139f60e01b145b8061077e57506301ffc9a760e01b6001600160e01b03198316145b92915050565b60606065805461079390614493565b80601f01602080910402602001604051908101604052809291908181526020018280546107bf90614493565b801561080c5780601f106107e15761010080835404028352916020019161080c565b820191906000526020600020905b8154815290600101906020018083116107ef57829003601f168201915b5050505050905090565b6000610821826124a5565b506000908152606960205260409020546001600160a01b031690565b600061084882612509565b9050806001600160a01b0316836001600160a01b0316036108ba5760405162461bcd60e51b815260206004820152602160248201527f4552433732313a20617070726f76616c20746f2063757272656e74206f776e656044820152603960f91b60648201526084015b60405180910390fd5b336001600160a01b03821614806108d657506108d681336106c4565b6109485760405162461bcd60e51b815260206004820152603d60248201527f4552433732313a20617070726f76652063616c6c6572206973206e6f7420746f60448201527f6b656e206f776e6572206f7220617070726f76656420666f7220616c6c00000060648201526084016108b1565b610952838361256e565b505050565b60006109636101f65490565b905090565b610973335b826125dc565b6109d55760405162461bcd60e51b815260206004820152602d60248201527f4552433732313a2063616c6c6572206973206e6f7420746f6b656e206f776e6560448201526c1c881bdc88185c1c1c9bdd9959609a1b60648201526084016108b1565b61095283838361265a565b610a4d60405180610180016040528060008152602001600081526020016000815260200160008152602001600081526020016000815260200160006001600160a01b0316815260200160608152602001606081526020016060815260200160608152602001606081525090565b610a568261283a565b610ac85760405162461bcd60e51b815260206004820152603360248201527f4552433732313a2070766e20746f6b656e20646f6573206e6f7420657869737460448201527f206f72206e6f74206265656e206d696e7465640000000000000000000000000060648201526084016108b1565b60008281526101fc60209081526040808320548084526101f7835292819020815161018081018352815481526001820154938101939093526002810154918301919091526003810154606083015260048101546080830152600581015460a083015260068101546001600160a01b031660c083015260078101805460e084019190610b5290614493565b80601f0160208091040260200160405190810160405280929190818152602001828054610b7e90614493565b8015610bcb5780601f10610ba057610100808354040283529160200191610bcb565b820191906000526020600020905b815481529060010190602001808311610bae57829003601f168201915b50505050508152602001600882018054610be490614493565b80601f0160208091040260200160405190810160405280929190818152602001828054610c1090614493565b8015610c5d5780601f10610c3257610100808354040283529160200191610c5d565b820191906000526020600020905b815481529060010190602001808311610c4057829003601f168201915b50505050508152602001600982018054610c7690614493565b80601f0160208091040260200160405190810160405280929190818152602001828054610ca290614493565b8015610cef5780601f10610cc457610100808354040283529160200191610cef565b820191906000526020600020905b815481529060010190602001808311610cd257829003601f168201915b50505050508152602001600a82018054610d0890614493565b80601f0160208091040260200160405190810160405280929190818152602001828054610d3490614493565b8015610d815780601f10610d5657610100808354040283529160200191610d81565b820191906000526020600020905b815481529060010190602001808311610d6457829003601f168201915b50505050508152602001600b82018054610d9a90614493565b80601f0160208091040260200160405190810160405280929190818152602001828054610dc690614493565b8015610e135780601f10610de857610100808354040283529160200191610e13565b820191906000526020600020905b815481529060010190602001808311610df657829003601f168201915b505050505081525050915050919050565b6000610e2f83611865565b8210610ea35760405162461bcd60e51b815260206004820152602b60248201527f455243373231456e756d657261626c653a206f776e657220696e646578206f7560448201527f74206f6620626f756e647300000000000000000000000000000000000000000060648201526084016108b1565b6001600160a01b03831660009081526101f860205260409020610ec69083612856565b9392505050565b6001600160a01b037f0000000000000000000000000000000000000000000000000000000000000000163003610f5a5760405162461bcd60e51b815260206004820152602c60248201527f46756e6374696f6e206d7573742062652063616c6c6564207468726f7567682060448201526b19195b1959d85d1958d85b1b60a21b60648201526084016108b1565b7f00000000000000000000000000000000000000000000000000000000000000006001600160a01b0316610fb57f360894a13ba1a3210667c828492db98dca3e2076cc3735a920a3ca505d382bbc546001600160a01b031690565b6001600160a01b0316146110205760405162461bcd60e51b815260206004820152602c60248201527f46756e6374696f6e206d7573742062652063616c6c6564207468726f7567682060448201526b6163746976652070726f787960a01b60648201526084016108b1565b61102981612862565b604080516000808252602082019092526110459183919061286a565b50565b611050612a0a565b611058612a64565b565b6109528383836040518060200160405280600081525061210b565b61107e3361096d565b6110455760405162461bcd60e51b815260206004820152602d60248201527f4552433732313a2063616c6c6572206973206e6f7420746f6b656e206f776e6560448201526c1c881bdc88185c1c1c9bdd9959609a1b60648201526084016108b1565b6001600160a01b037f000000000000000000000000000000000000000000000000000000000000000016300361116d5760405162461bcd60e51b815260206004820152602c60248201527f46756e6374696f6e206d7573742062652063616c6c6564207468726f7567682060448201526b19195b1959d85d1958d85b1b60a21b60648201526084016108b1565b7f00000000000000000000000000000000000000000000000000000000000000006001600160a01b03166111c87f360894a13ba1a3210667c828492db98dca3e2076cc3735a920a3ca505d382bbc546001600160a01b031690565b6001600160a01b0316146112335760405162461bcd60e51b815260206004820152602c60248201527f46756e6374696f6e206d7573742062652063616c6c6564207468726f7567682060448201526b6163746976652070726f787960a01b60648201526084016108b1565b61123c82612862565b6112488282600161286a565b5050565b6000611256610957565b82106112a45760405162461bcd60e51b815260206004820152601f60248201527f455243373231456e756d657261626c653a20696e76616c696420696e6465780060448201526064016108b1565b61077e8260016144cd565b6000306001600160a01b037f0000000000000000000000000000000000000000000000000000000000000000161461134f5760405162461bcd60e51b815260206004820152603860248201527f555550535570677261646561626c653a206d757374206e6f742062652063616c60448201527f6c6564207468726f7567682064656c656761746563616c6c000000000000000060648201526084016108b1565b507f360894a13ba1a3210667c828492db98dca3e2076cc3735a920a3ca505d382bbc90565b61137c612a0a565b8060405161138a91906144ee565b60405180910390206101f56040516113a2919061450a565b604051908190038120907f309b29ded109b9e28fb9885757b3e0096eb75c51d23aa4635d68bcd569f6adc190600090a36101f561124882826145ce565b606060006113ec83611865565b905060008167ffffffffffffffff811115611409576114096140f5565b6040519080825280602002602001820160405280156114a757816020015b61149460405180610180016040528060008152602001600081526020016000815260200160008152602001600081526020016000815260200160006001600160a01b0316815260200160608152602001606081526020016060815260200160608152602001606081525090565b8152602001906001900390816114275790505b50905060005b828110156118345760006114c18683610e24565b60008181526101f76020908152604091829020825161018081018452815481526001820154928101929092526002810154928201929092526003820154606082015260048201546080820152600582015460a082015260068201546001600160a01b031660c0820152600782018054939450909260e08401919061154490614493565b80601f016020809104026020016040519081016040528092919081815260200182805461157090614493565b80156115bd5780601f10611592576101008083540402835291602001916115bd565b820191906000526020600020905b8154815290600101906020018083116115a057829003601f168201915b505050505081526020016008820180546115d690614493565b80601f016020809104026020016040519081016040528092919081815260200182805461160290614493565b801561164f5780601f106116245761010080835404028352916020019161164f565b820191906000526020600020905b81548152906001019060200180831161163257829003601f168201915b5050505050815260200160098201805461166890614493565b80601f016020809104026020016040519081016040528092919081815260200182805461169490614493565b80156116e15780601f106116b6576101008083540402835291602001916116e1565b820191906000526020600020905b8154815290600101906020018083116116c457829003601f168201915b50505050508152602001600a820180546116fa90614493565b80601f016020809104026020016040519081016040528092919081815260200182805461172690614493565b80156117735780601f1061174857610100808354040283529160200191611773565b820191906000526020600020905b81548152906001019060200180831161175657829003601f168201915b50505050508152602001600b8201805461178c90614493565b80601f01602080910402602001604051908101604052809291908181526020018280546117b890614493565b80156118055780601f106117da57610100808354040283529160200191611805565b820191906000526020600020905b8154815290600101906020018083116117e857829003601f168201915b5050505050815250508383815181106118205761182061468e565b6020908102919091010152506001016114ad565b509392505050565b600061077e826040518060600160405280602981526020016147dc602991396101f99190612ab6565b60006001600160a01b0382166118e35760405162461bcd60e51b815260206004820152602a60248201527f4552433732313a2062616c616e636520717565727920666f7220746865207a6560448201527f726f20616464726573730000000000000000000000000000000000000000000060648201526084016108b1565b6001600160a01b03821660009081526101f86020526040902061077e90612ac3565b61190d612a0a565b6110586000612acd565b61191f612a0a565b611927612b1f565b6119308161283a565b1561197d5760405162461bcd60e51b815260206004820181905260248201527f4552433732313a2070766e20746f6b656e20616c7265616479206d696e74656460448201526064016108b1565b6001600160a01b0383166119d35760405162461bcd60e51b815260206004820152601760248201527f4552433732313a20696e76616c6964206164647265737300000000000000000060448201526064016108b1565b306001600160a01b03841603611a2b5760405162461bcd60e51b815260206004820152601760248201527f4552433732313a20696e76616c6964206164647265737300000000000000000060448201526064016108b1565b611a3a6101f680546001019055565b6000611a466101f65490565b9050611a528483612b7a565b611a5c828c612b94565b611a668482612c36565b611a708482612c43565b611a87818360009081526101fc6020526040902055565b611a9b8c8c8c8c8c8c8c8c8c8c8c8c612c66565b81817f30b042f6d29a39b7c10c2dfbd81016db37ea3d11e72ec5764fb0d0f7a1012a3a8d604051611acc9190613f33565b60405180910390a350611ae060016101c355565b5050505050505050505050565b611af5612a0a565b611058612f24565b6000611b07612a0a565b60008211611b625760405162461bcd60e51b815260206004820152602260248201527f506c6f74205072696365206d7573742062652067726561746572207468616e20604482015261181760f11b60648201526084016108b1565b33611baf5760405162461bcd60e51b815260206004820152601760248201527f4552433732313a20696e76616c6964206164647265737300000000000000000060448201526064016108b1565b611bb88361283a565b611c2a5760405162461bcd60e51b815260206004820152603360248201527f4552433732313a2070766e20746f6b656e20646f6573206e6f7420657869737460448201527f206f72206e6f74206265656e206d696e7465640000000000000000000000000060648201526084016108b1565b60008381526101fc60209081526040808320548084526101f78352928190206001018590558051338152918201869052818101859052517f598b48a1aad5d72fcedbc7ed6aac08ad920501eedca72d3dace23490f11f78129181900360600190a15060019392505050565b60606000611ca36101f65490565b905060008167ffffffffffffffff811115611cc057611cc06140f5565b604051908082528060200260200182016040528015611d5e57816020015b611d4b60405180610180016040528060008152602001600081526020016000815260200160008152602001600081526020016000815260200160006001600160a01b0316815260200160608152602001606081526020016060815260200160608152602001606081525090565b815260200190600190039081611cde5790505b50905060005b828110156120ea576000611d778261124c565b60008181526101f76020908152604091829020825161018081018452815481526001820154928101929092526002810154928201929092526003820154606082015260048201546080820152600582015460a082015260068201546001600160a01b031660c0820152600782018054939450909260e084019190611dfa90614493565b80601f0160208091040260200160405190810160405280929190818152602001828054611e2690614493565b8015611e735780601f10611e4857610100808354040283529160200191611e73565b820191906000526020600020905b815481529060010190602001808311611e5657829003601f168201915b50505050508152602001600882018054611e8c90614493565b80601f0160208091040260200160405190810160405280929190818152602001828054611eb890614493565b8015611f055780601f10611eda57610100808354040283529160200191611f05565b820191906000526020600020905b815481529060010190602001808311611ee857829003601f168201915b50505050508152602001600982018054611f1e90614493565b80601f0160208091040260200160405190810160405280929190818152602001828054611f4a90614493565b8015611f975780601f10611f6c57610100808354040283529160200191611f97565b820191906000526020600020905b815481529060010190602001808311611f7a57829003601f168201915b50505050508152602001600a82018054611fb090614493565b80601f0160208091040260200160405190810160405280929190818152602001828054611fdc90614493565b80156120295780601f10611ffe57610100808354040283529160200191612029565b820191906000526020600020905b81548152906001019060200180831161200c57829003601f168201915b50505050508152602001600b8201805461204290614493565b80601f016020809104026020016040519081016040528092919081815260200182805461206e90614493565b80156120bb5780601f10612090576101008083540402835291602001916120bb565b820191906000526020600020905b81548152906001019060200180831161209e57829003601f168201915b5050505050815250508383815181106120d6576120d661468e565b602090810291909101015250600101611d64565b5092915050565b60606066805461079390614493565b611248338383612f61565b61211533836125dc565b6121775760405162461bcd60e51b815260206004820152602d60248201527f4552433732313a2063616c6c6572206973206e6f7420746f6b656e206f776e6560448201526c1c881bdc88185c1c1c9bdd9959609a1b60648201526084016108b1565b6121838484848461302f565b50505050565b60008061077e610957565b6000336121a057600080fd5b6000610ec683611865565b6000818152606760205260409020546060906001600160a01b03166122385760405162461bcd60e51b815260206004820152603160248201527f45524337323155524953746f726167653a2055524920717565727920666f722060448201527f6e6f6e6578697374656e7420746f6b656e00000000000000000000000000000060648201526084016108b1565b61077e826130ad565b60008181526101fc6020526040812054600061225c8261183c565b949350505050565b61226c612a0a565b6001600160a01b0381166122e85760405162461bcd60e51b815260206004820152602660248201527f4f776e61626c653a206e6577206f776e657220697320746865207a65726f206160448201527f646472657373000000000000000000000000000000000000000000000000000060648201526084016108b1565b61104581612acd565b600054610100900460ff16158080156123115750600054600160ff909116105b8061232b5750303b15801561232b575060005460ff166001145b61239d5760405162461bcd60e51b815260206004820152602e60248201527f496e697469616c697a61626c653a20636f6e747261637420697320616c72656160448201527f647920696e697469616c697a656400000000000000000000000000000000000060648201526084016108b1565b6000805460ff1916600117905580156123c0576000805461ff0019166101001790555b61241b6040518060400160405280600c81526020017f537974656d617020436f696e0000000000000000000000000000000000000000815250604051806040016040528060048152602001635354594560e01b8152506131a8565b61242361320b565b61242b613264565b6124336132c5565b61243b61320b565b61244361320b565b61244b61320b565b612453613326565b61245c82611374565b8015611248576000805461ff0019169055604051600181527f7f26b83ff96e1f2b6a682f133852f6798a09c465da95921460cefb38474024989060200160405180910390a15050565b6000818152606760205260409020546001600160a01b03166110455760405162461bcd60e51b815260206004820152601860248201527f4552433732313a20696e76616c696420746f6b656e204944000000000000000060448201526064016108b1565b6000818152606760205260408120546001600160a01b03168061077e5760405162461bcd60e51b815260206004820152601860248201527f4552433732313a20696e76616c696420746f6b656e204944000000000000000060448201526064016108b1565b600081815260696020526040902080546001600160a01b0319166001600160a01b03841690811790915581906125a382612509565b6001600160a01b03167f8c5be1e5ebec7d5bd14f71427d1e84f3dd0314c0f7b2291e5b200ac8c7c3b92560405160405180910390a45050565b6000806125e883612509565b9050806001600160a01b0316846001600160a01b0316148061262f57506001600160a01b038082166000908152606a602090815260408083209388168352929052205460ff165b8061225c5750836001600160a01b031661264884610816565b6001600160a01b031614949350505050565b826001600160a01b031661266d82612509565b6001600160a01b0316146126d15760405162461bcd60e51b815260206004820152602560248201527f4552433732313a207472616e736665722066726f6d20696e636f72726563742060448201526437bbb732b960d91b60648201526084016108b1565b6001600160a01b0382166127335760405162461bcd60e51b8152602060048201526024808201527f4552433732313a207472616e7366657220746f20746865207a65726f206164646044820152637265737360e01b60648201526084016108b1565b826001600160a01b031661274682612509565b6001600160a01b0316146127aa5760405162461bcd60e51b815260206004820152602560248201527f4552433732313a207472616e736665722066726f6d20696e636f72726563742060448201526437bbb732b960d91b60648201526084016108b1565b600081815260696020908152604080832080546001600160a01b03199081169091556001600160a01b0387811680865260688552838620805460001901905590871680865283862080546001019055868652606790945282852080549092168417909155905184937fddf252ad1be2c89b69c2b068fc378daa952ba7f163c4a11628f55a4df523b3ef91a4505050565b60008181526101fc6020526040812054610ec66101f982613387565b6000610ec68383613393565b611045612a0a565b7f4910fdfa16fed3260ed0e7147f7cc6da11a60208b5b9406d12a635614ffd91435460ff161561289d57610952836133bd565b826001600160a01b03166352d1902d6040518163ffffffff1660e01b8152600401602060405180830381865afa9250505080156128f7575060408051601f3d908101601f191682019092526128f4918101906146a4565b60015b6129695760405162461bcd60e51b815260206004820152602e60248201527f45524331393637557067726164653a206e657720696d706c656d656e7461746960448201527f6f6e206973206e6f74205555505300000000000000000000000000000000000060648201526084016108b1565b7f360894a13ba1a3210667c828492db98dca3e2076cc3735a920a3ca505d382bbc81146129fe5760405162461bcd60e51b815260206004820152602960248201527f45524331393637557067726164653a20756e737570706f727465642070726f7860448201527f6961626c6555554944000000000000000000000000000000000000000000000060648201526084016108b1565b5061095283838361347b565b60fb546001600160a01b031633146110585760405162461bcd60e51b815260206004820181905260248201527f4f776e61626c653a2063616c6c6572206973206e6f7420746865206f776e657260448201526064016108b1565b612a6c6134a0565b60c9805460ff191690557f5db9ee0a495bf2e6ff9c91a7834c1ba4fdd244a5e8aa4e537bd38aeae4b073aa335b6040516001600160a01b03909116815260200160405180910390a1565b600061225c8484846134f2565b600061077e825490565b60fb80546001600160a01b038381166001600160a01b0319831681179093556040519116919082907f8be0079c531659141344cd1fd0a4f28419497f9722a3daafe3b4186f6b6457e090600090a35050565b60026101c35403612b725760405162461bcd60e51b815260206004820152601f60248201527f5265656e7472616e637947756172643a207265656e7472616e742063616c6c0060448201526064016108b1565b60026101c355565b61124882826040518060200160405280600081525061353e565b6000828152606760205260409020546001600160a01b0316612c1e5760405162461bcd60e51b815260206004820152602e60248201527f45524337323155524953746f726167653a2055524920736574206f66206e6f6e60448201527f6578697374656e7420746f6b656e00000000000000000000000000000000000060648201526084016108b1565b600082815260976020526040902061095282826145ce565b6109526101f982846135bc565b6001600160a01b03821660009081526101f86020526040902061095290826135d2565b60008911612cb65760405162461bcd60e51b815260206004820152601c60248201527f5072696365206d757374206265206174206c656173742031207765690000000060448201526064016108b1565b6001600160a01b038416612d0c5760405162461bcd60e51b815260206004820181905260248201527f4552433732313a206d696e7420746f20746865207a65726f206164647265737360448201526064016108b1565b60008b5111612d5d5760405162461bcd60e51b815260206004820152601360248201527f546f6b656e2075726c2069732020656d7074790000000000000000000000000060448201526064016108b1565b60006040518061018001604052808e81526020018b81526020018a8152602001878152602001848152602001428152602001866001600160a01b031681526020018d81526020018c8152602001898152602001888152602001858152509050806101f76000848152602001908152602001600020600082015181600001556020820151816001015560408201518160020155606082015181600301556080820151816004015560a0820151816005015560c08201518160060160006101000a8154816001600160a01b0302191690836001600160a01b0316021790555060e0820151816007019081612e4f91906145ce565b506101008201516008820190612e6590826145ce565b506101208201516009820190612e7b90826145ce565b50610140820151600a820190612e9190826145ce565b50610160820151600b820190612ea790826145ce565b5050604051612eb891508d906144ee565b60405180910390207f559ec41a5550336295d32c5d36cb700618ce142acec86ae0b0555fb1ae7d65998e8d8d8d8d8d8d8d8d8d8d42604051612f059c9b9a999897969594939291906146bd565b60405180910390a250505050505050505050505050565b60016101c355565b612f2c6135de565b60c9805460ff191660011790557f62e78cea01bee320cd4e420270b5ea74000d11b0c9f74754ebdbfc544b05a258612a993390565b816001600160a01b0316836001600160a01b031603612fc25760405162461bcd60e51b815260206004820152601960248201527f4552433732313a20617070726f766520746f2063616c6c65720000000000000060448201526064016108b1565b6001600160a01b038381166000818152606a6020908152604080832094871680845294825291829020805460ff191686151590811790915591519182527f17307eab39ab6107e8899845ad3d59bd9653f200f220920489ca2b5937696c31910160405180910390a3505050565b61303a84848461265a565b61304684848484613631565b6121835760405162461bcd60e51b815260206004820152603260248201527f4552433732313a207472616e7366657220746f206e6f6e20455243373231526560448201527131b2b4bb32b91034b6b83632b6b2b73a32b960711b60648201526084016108b1565b60606130b8826124a5565b600082815260976020526040812080546130d190614493565b80601f01602080910402602001604051908101604052809291908181526020018280546130fd90614493565b801561314a5780601f1061311f5761010080835404028352916020019161314a565b820191906000526020600020905b81548152906001019060200180831161312d57829003601f168201915b50505050509050600061315b61377d565b9050805160000361316d575092915050565b81511561319f57808260405160200161318792919061475d565b60405160208183030381529060405292505050919050565b61225c8461378d565b600054610100900460ff166132015760405162461bcd60e51b815260206004820152602b602482015260008051602061480583398151915260448201526a6e697469616c697a696e6760a81b60648201526084016108b1565b61124882826137f3565b600054610100900460ff166110585760405162461bcd60e51b815260206004820152602b602482015260008051602061480583398151915260448201526a6e697469616c697a696e6760a81b60648201526084016108b1565b600054610100900460ff166132bd5760405162461bcd60e51b815260206004820152602b602482015260008051602061480583398151915260448201526a6e697469616c697a696e6760a81b60648201526084016108b1565b611058613865565b600054610100900460ff1661331e5760405162461bcd60e51b815260206004820152602b602482015260008051602061480583398151915260448201526a6e697469616c697a696e6760a81b60648201526084016108b1565b6110586138ca565b600054610100900460ff1661337f5760405162461bcd60e51b815260206004820152602b602482015260008051602061480583398151915260448201526a6e697469616c697a696e6760a81b60648201526084016108b1565b61105861392c565b6000610ec68383613985565b60008260000182815481106133aa576133aa61468e565b9060005260206000200154905092915050565b6001600160a01b0381163b61343a5760405162461bcd60e51b815260206004820152602d60248201527f455243313936373a206e657720696d706c656d656e746174696f6e206973206e60448201527f6f74206120636f6e74726163740000000000000000000000000000000000000060648201526084016108b1565b7f360894a13ba1a3210667c828492db98dca3e2076cc3735a920a3ca505d382bbc80546001600160a01b0319166001600160a01b0392909216919091179055565b61348483613991565b6000825111806134915750805b156109525761218383836139d1565b60c95460ff166110585760405162461bcd60e51b815260206004820152601460248201527f5061757361626c653a206e6f742070617573656400000000000000000000000060448201526064016108b1565b60008281526002840160205260408120548015158061351657506135168585613985565b83906135355760405162461bcd60e51b81526004016108b19190613f33565b50949350505050565b6135488383613adc565b6135556000848484613631565b6109525760405162461bcd60e51b815260206004820152603260248201527f4552433732313a207472616e7366657220746f206e6f6e20455243373231526560448201527131b2b4bb32b91034b6b83632b6b2b73a32b960711b60648201526084016108b1565b600061225c84846001600160a01b038516613c67565b6000610ec68383613c84565b60c95460ff16156110585760405162461bcd60e51b815260206004820152601060248201527f5061757361626c653a207061757365640000000000000000000000000000000060448201526064016108b1565b60006001600160a01b0384163b1561377257604051630a85bd0160e11b81526001600160a01b0385169063150b7a029061367590339089908890889060040161478c565b6020604051808303816000875af19250505080156136b0575060408051601f3d908101601f191682019092526136ad918101906147be565b60015b613758573d8080156136de576040519150601f19603f3d011682016040523d82523d6000602084013e6136e3565b606091505b5080516000036137505760405162461bcd60e51b815260206004820152603260248201527f4552433732313a207472616e7366657220746f206e6f6e20455243373231526560448201527131b2b4bb32b91034b6b83632b6b2b73a32b960711b60648201526084016108b1565b805181602001fd5b6001600160e01b031916630a85bd0160e11b14905061225c565b506001949350505050565b60606101f5805461079390614493565b6060613798826124a5565b60006137a261377d565b905060008151116137c25760405180602001604052806000815250610ec6565b806137cc84613cd3565b6040516020016137dd92919061475d565b6040516020818303038152906040529392505050565b600054610100900460ff1661384c5760405162461bcd60e51b815260206004820152602b602482015260008051602061480583398151915260448201526a6e697469616c697a696e6760a81b60648201526084016108b1565b606561385883826145ce565b50606661095282826145ce565b600054610100900460ff166138be5760405162461bcd60e51b815260206004820152602b602482015260008051602061480583398151915260448201526a6e697469616c697a696e6760a81b60648201526084016108b1565b60c9805460ff19169055565b600054610100900460ff166139235760405162461bcd60e51b815260206004820152602b602482015260008051602061480583398151915260448201526a6e697469616c697a696e6760a81b60648201526084016108b1565b61105833612acd565b600054610100900460ff16612f1c5760405162461bcd60e51b815260206004820152602b602482015260008051602061480583398151915260448201526a6e697469616c697a696e6760a81b60648201526084016108b1565b6000610ec68383613d73565b61399a816133bd565b6040516001600160a01b038216907fbc7cd75a20ee27fd9adebab32041f755214dbc6bffa90cc0225b39da2e5c2d3b90600090a250565b60606001600160a01b0383163b613a505760405162461bcd60e51b815260206004820152602660248201527f416464726573733a2064656c65676174652063616c6c20746f206e6f6e2d636f60448201527f6e7472616374000000000000000000000000000000000000000000000000000060648201526084016108b1565b600080846001600160a01b031684604051613a6b91906144ee565b600060405180830381855af49150503d8060008114613aa6576040519150601f19603f3d011682016040523d82523d6000602084013e613aab565b606091505b5091509150613ad3828260405180606001604052806027815260200161482560279139613d8b565b95945050505050565b6001600160a01b038216613b325760405162461bcd60e51b815260206004820181905260248201527f4552433732313a206d696e7420746f20746865207a65726f206164647265737360448201526064016108b1565b6000818152606760205260409020546001600160a01b031615613b975760405162461bcd60e51b815260206004820152601c60248201527f4552433732313a20746f6b656e20616c7265616479206d696e7465640000000060448201526064016108b1565b6000818152606760205260409020546001600160a01b031615613bfc5760405162461bcd60e51b815260206004820152601c60248201527f4552433732313a20746f6b656e20616c7265616479206d696e7465640000000060448201526064016108b1565b6001600160a01b038216600081815260686020908152604080832080546001019055848352606790915280822080546001600160a01b0319168417905551839291907fddf252ad1be2c89b69c2b068fc378daa952ba7f163c4a11628f55a4df523b3ef908290a45050565b6000828152600284016020526040812082905561225c84846135d2565b6000818152600183016020526040812054613ccb5750815460018181018455600084815260208082209093018490558454848252828601909352604090209190915561077e565b50600061077e565b60606000613ce083613da4565b600101905060008167ffffffffffffffff811115613d0057613d006140f5565b6040519080825280601f01601f191660200182016040528015613d2a576020820181803683370190505b5090508181016020015b600019017f3031323334353637383961626364656600000000000000000000000000000000600a86061a8153600a8504945084613d3457509392505050565b60008181526001830160205260408120541515610ec6565b60608315613d9a575081610ec6565b610ec68383613e86565b6000807a184f03e93ff9f4daa797ed6e38ed64bf6a1f0100000000000000008310613ded577a184f03e93ff9f4daa797ed6e38ed64bf6a1f010000000000000000830492506040015b6d04ee2d6d415b85acef81000000008310613e19576d04ee2d6d415b85acef8100000000830492506020015b662386f26fc100008310613e3757662386f26fc10000830492506010015b6305f5e1008310613e4f576305f5e100830492506008015b6127108310613e6357612710830492506004015b60648310613e75576064830492506002015b600a831061077e5760010192915050565b815115613e965781518083602001fd5b8060405162461bcd60e51b81526004016108b19190613f33565b6001600160e01b03198116811461104557600080fd5b600060208284031215613ed857600080fd5b8135610ec681613eb0565b60005b83811015613efe578181015183820152602001613ee6565b50506000910152565b60008151808452613f1f816020860160208601613ee3565b601f01601f19169290920160200192915050565b602081526000610ec66020830184613f07565b600060208284031215613f5857600080fd5b5035919050565b80356001600160a01b0381168114613f7657600080fd5b919050565b60008060408385031215613f8e57600080fd5b613f9783613f5f565b946020939093013593505050565b600080600060608486031215613fba57600080fd5b613fc384613f5f565b9250613fd160208501613f5f565b9150604084013590509250925092565b6000610180825184526020830151602085015260408301516040850152606083015160608501526080830151608085015260a083015160a085015260c083015161403660c08601826001600160a01b03169052565b5060e08301518160e086015261404e82860182613f07565b91505061010080840151858303828701526140698382613f07565b9250505061012080840151858303828701526140858382613f07565b9250505061014080840151858303828701526140a18382613f07565b9250505061016080840151858303828701526140bd8382613f07565b9695505050505050565b602081526000610ec66020830184613fe1565b6000602082840312156140ec57600080fd5b610ec682613f5f565b634e487b7160e01b600052604160045260246000fd5b600082601f83011261411c57600080fd5b813567ffffffffffffffff80821115614137576141376140f5565b604051601f8301601f19908116603f0116810190828211818310171561415f5761415f6140f5565b8160405283815286602085880101111561417857600080fd5b836020870160208301376000602085830101528094505050505092915050565b600080604083850312156141ab57600080fd5b6141b483613f5f565b9150602083013567ffffffffffffffff8111156141d057600080fd5b6141dc8582860161410b565b9150509250929050565b6000602082840312156141f857600080fd5b813567ffffffffffffffff81111561420f57600080fd5b61225c8482850161410b565b6000602080830181845280855180835260408601915060408160051b870101925083870160005b8281101561427057603f1988860301845261425e858351613fe1565b94509285019290850190600101614242565b5092979650505050505050565b60008060008060008060008060008060006101608c8e03121561429f57600080fd5b8b359a5067ffffffffffffffff8060208e013511156142bd57600080fd5b6142cd8e60208f01358f0161410b565b9a508060408e013511156142e057600080fd5b6142f08e60408f01358f0161410b565b995060608d0135985060808d013597508060a08e0135111561431157600080fd5b6143218e60a08f01358f0161410b565b96508060c08e0135111561433457600080fd5b6143448e60c08f01358f0161410b565b955060e08d0135945061435a6101008e01613f5f565b9350806101208e0135111561436e57600080fd5b506143808d6101208e01358e0161410b565b91506101408c013590509295989b509295989b9093969950565b600080604083850312156143ad57600080fd5b50508035926020909101359150565b600080604083850312156143cf57600080fd5b6143d883613f5f565b9150602083013580151581146143ed57600080fd5b809150509250929050565b6000806000806080858703121561440e57600080fd5b61441785613f5f565b935061442560208601613f5f565b925060408501359150606085013567ffffffffffffffff81111561444857600080fd5b6144548782880161410b565b91505092959194509250565b6000806040838503121561447357600080fd5b61447c83613f5f565b915061448a60208401613f5f565b90509250929050565b600181811c908216806144a757607f821691505b6020821081036144c757634e487b7160e01b600052602260045260246000fd5b50919050565b8082018082111561077e57634e487b7160e01b600052601160045260246000fd5b60008251614500818460208701613ee3565b9190910192915050565b600080835461451881614493565b60018281168015614530576001811461454557614574565b60ff1984168752821515830287019450614574565b8760005260208060002060005b8581101561456b5781548a820152908401908201614552565b50505082870194505b50929695505050505050565b601f82111561095257600081815260208120601f850160051c810160208610156145a75750805b601f850160051c820191505b818110156145c6578281556001016145b3565b505050505050565b815167ffffffffffffffff8111156145e8576145e86140f5565b6145fc816145f68454614493565b84614580565b602080601f83116001811461463157600084156146195750858301515b600019600386901b1c1916600185901b1785556145c6565b600085815260208120601f198616915b8281101561466057888601518255948401946001909101908401614641565b508582101561467e5787850151600019600388901b60f8161c191681555b5050505050600190811b01905550565b634e487b7160e01b600052603260045260246000fd5b6000602082840312156146b657600080fd5b5051919050565b60006101808e83528060208401526146d78184018f613f07565b90508c60408401528b606084015282810360808401526146f7818c613f07565b905082810360a084015261470b818b613f07565b90508860c08401526001600160a01b03881660e08401528281036101008401526147358188613f07565b6101208401969096525050610140810192909252610160909101529998505050505050505050565b6000835161476f818460208801613ee3565b835190830190614783818360208801613ee3565b01949350505050565b60006001600160a01b038087168352808616602084015250836040830152608060608301526140bd6080830184613f07565b6000602082840312156147d057600080fd5b8151610ec681613eb056fe4552433732313a206f776e657220717565727920666f72206e6f6e6578697374656e7420746f6b656e496e697469616c697a61626c653a20636f6e7472616374206973206e6f742069416464726573733a206c6f772d6c6576656c2064656c65676174652063616c6c206661696c6564a164736f6c6343000810000a","opcodes":"PUSH1 0xA0 PUSH1 0x40 MSTORE ADDRESS PUSH1 0x80 MSTORE CALLVALUE DUP1 ISZERO PUSH2 0x14 JUMPI PUSH1 0x0 DUP1 REVERT JUMPDEST POP PUSH1 0x80 MLOAD PUSH2 0x4858 PUSH2 0x4C PUSH1 0x0 CODECOPY PUSH1 0x0 DUP2 DUP2 PUSH2 0xED7 ADD MSTORE DUP2 DUP2 PUSH2 0xF5C ADD MSTORE DUP2 DUP2 PUSH2 0x10EA ADD MSTORE DUP2 DUP2 PUSH2 0x116F ADD MSTORE PUSH2 0x12BC ADD MSTORE PUSH2 0x4858 PUSH1 0x0 RETURN INVALID PUSH1 0x80 PUSH1 0x40 MSTORE PUSH1 0x4 CALLDATASIZE LT PUSH2 0x26A JUMPI PUSH1 0x0 CALLDATALOAD PUSH1 0xE0 SHR DUP1 PUSH4 0x5C975ABB GT PUSH2 0x153 JUMPI DUP1 PUSH4 0x95D89B41 GT PUSH2 0xCB JUMPI DUP1 PUSH4 0xC87B56DD GT PUSH2 0x7F JUMPI DUP1 PUSH4 0xE985E9C5 GT PUSH2 0x64 JUMPI DUP1 PUSH4 0xE985E9C5 EQ PUSH2 0x6A9 JUMPI DUP1 PUSH4 0xF2FDE38B EQ PUSH2 0x6F2 JUMPI DUP1 PUSH4 0xF62D1888 EQ PUSH2 0x712 JUMPI PUSH1 0x0 DUP1 REVERT JUMPDEST DUP1 PUSH4 0xC87B56DD EQ PUSH2 0x669 JUMPI DUP1 PUSH4 0xE4A9614A EQ PUSH2 0x689 JUMPI PUSH1 0x0 DUP1 REVERT JUMPDEST DUP1 PUSH4 0xB88D4FDE GT PUSH2 0xB0 JUMPI DUP1 PUSH4 0xB88D4FDE EQ PUSH2 0x614 JUMPI DUP1 PUSH4 0xC5719298 EQ PUSH2 0x634 JUMPI DUP1 PUSH4 0xC62E5581 EQ PUSH2 0x649 JUMPI PUSH1 0x0 DUP1 REVERT JUMPDEST DUP1 PUSH4 0x95D89B41 EQ PUSH2 0x5DF JUMPI DUP1 PUSH4 0xA22CB465 EQ PUSH2 0x5F4 JUMPI PUSH1 0x0 DUP1 REVERT JUMPDEST DUP1 PUSH4 0x80B0FD0A GT PUSH2 0x122 JUMPI DUP1 PUSH4 0x8DA5CB5B GT PUSH2 0x107 JUMPI DUP1 PUSH4 0x8DA5CB5B EQ PUSH2 0x58C JUMPI DUP1 PUSH4 0x90CBE759 EQ PUSH2 0x5AA JUMPI DUP1 PUSH4 0x93D3E755 EQ PUSH2 0x5CA JUMPI PUSH1 0x0 DUP1 REVERT JUMPDEST DUP1 PUSH4 0x80B0FD0A EQ PUSH2 0x557 JUMPI DUP1 PUSH4 0x8456CB59 EQ PUSH2 0x577 JUMPI PUSH1 0x0 DUP1 REVERT JUMPDEST DUP1 PUSH4 0x5C975ABB EQ PUSH2 0x4EA JUMPI DUP1 PUSH4 0x6352211E EQ PUSH2 0x502 JUMPI DUP1 PUSH4 0x70A08231 EQ PUSH2 0x522 JUMPI DUP1 PUSH4 0x715018A6 EQ PUSH2 0x542 JUMPI PUSH1 0x0 DUP1 REVERT JUMPDEST DUP1 PUSH4 0x3F35198E GT PUSH2 0x1E6 JUMPI DUP1 PUSH4 0x4F1EF286 GT PUSH2 0x1B5 JUMPI DUP1 PUSH4 0x52D1902D GT PUSH2 0x19A JUMPI DUP1 PUSH4 0x52D1902D EQ PUSH2 0x488 JUMPI DUP1 PUSH4 0x55F804B3 EQ PUSH2 0x49D JUMPI DUP1 PUSH4 0x5939F777 EQ PUSH2 0x4BD JUMPI PUSH1 0x0 DUP1 REVERT JUMPDEST DUP1 PUSH4 0x4F1EF286 EQ PUSH2 0x455 JUMPI DUP1 PUSH4 0x4F6CCCE7 EQ PUSH2 0x468 JUMPI PUSH1 0x0 DUP1 REVERT JUMPDEST DUP1 PUSH4 0x3F35198E EQ PUSH2 0x3D0 JUMPI DUP1 PUSH4 0x3F4BA83A EQ PUSH2 0x400 JUMPI DUP1 PUSH4 0x42842E0E EQ PUSH2 0x415 JUMPI DUP1 PUSH4 0x42966C68 EQ PUSH2 0x435 JUMPI PUSH1 0x0 DUP1 REVERT JUMPDEST DUP1 PUSH4 0x18160DDD GT PUSH2 0x23D JUMPI DUP1 PUSH4 0x245F0CA4 GT PUSH2 0x222 JUMPI DUP1 PUSH4 0x245F0CA4 EQ PUSH2 0x363 JUMPI DUP1 PUSH4 0x2F745C59 EQ PUSH2 0x390 JUMPI DUP1 PUSH4 0x3659CFE6 EQ PUSH2 0x3B0 JUMPI PUSH1 0x0 DUP1 REVERT JUMPDEST DUP1 PUSH4 0x18160DDD EQ PUSH2 0x320 JUMPI DUP1 PUSH4 0x23B872DD EQ PUSH2 0x343 JUMPI PUSH1 0x0 DUP1 REVERT JUMPDEST DUP1 PUSH4 0x1FFC9A7 EQ PUSH2 0x26F JUMPI DUP1 PUSH4 0x6FDDE03 EQ PUSH2 0x2A4 JUMPI DUP1 PUSH4 0x81812FC EQ PUSH2 0x2C6 JUMPI DUP1 PUSH4 0x95EA7B3 EQ PUSH2 0x2FE JUMPI JUMPDEST PUSH1 0x0 DUP1 REVERT JUMPDEST CALLVALUE DUP1 ISZERO PUSH2 0x27B JUMPI PUSH1 0x0 DUP1 REVERT JUMPDEST POP PUSH2 0x28F PUSH2 0x28A CALLDATASIZE PUSH1 0x4 PUSH2 0x3EC6 JUMP JUMPDEST PUSH2 0x732 JUMP JUMPDEST PUSH1 0x40 MLOAD SWAP1 ISZERO ISZERO DUP2 MSTORE PUSH1 0x20 ADD JUMPDEST PUSH1 0x40 MLOAD DUP1 SWAP2 SUB SWAP1 RETURN JUMPDEST CALLVALUE DUP1 ISZERO PUSH2 0x2B0 JUMPI PUSH1 0x0 DUP1 REVERT JUMPDEST POP PUSH2 0x2B9 PUSH2 0x784 JUMP JUMPDEST PUSH1 0x40 MLOAD PUSH2 0x29B SWAP2 SWAP1 PUSH2 0x3F33 JUMP JUMPDEST CALLVALUE DUP1 ISZERO PUSH2 0x2D2 JUMPI PUSH1 0x0 DUP1 REVERT JUMPDEST POP PUSH2 0x2E6 PUSH2 0x2E1 CALLDATASIZE PUSH1 0x4 PUSH2 0x3F46 JUMP JUMPDEST PUSH2 0x816 JUMP JUMPDEST PUSH1 0x40 MLOAD PUSH1 0x1 PUSH1 0x1 PUSH1 0xA0 SHL SUB SWAP1 SWAP2 AND DUP2 MSTORE PUSH1 0x20 ADD PUSH2 0x29B JUMP JUMPDEST CALLVALUE DUP1 ISZERO PUSH2 0x30A JUMPI PUSH1 0x0 DUP1 REVERT JUMPDEST POP PUSH2 0x31E PUSH2 0x319 CALLDATASIZE PUSH1 0x4 PUSH2 0x3F7B JUMP JUMPDEST PUSH2 0x83D JUMP JUMPDEST STOP JUMPDEST CALLVALUE DUP1 ISZERO PUSH2 0x32C JUMPI PUSH1 0x0 DUP1 REVERT JUMPDEST POP PUSH2 0x335 PUSH2 0x957 JUMP JUMPDEST PUSH1 0x40 MLOAD SWAP1 DUP2 MSTORE PUSH1 0x20 ADD PUSH2 0x29B JUMP JUMPDEST CALLVALUE DUP1 ISZERO PUSH2 0x34F JUMPI PUSH1 0x0 DUP1 REVERT JUMPDEST POP PUSH2 0x31E PUSH2 0x35E CALLDATASIZE PUSH1 0x4 PUSH2 0x3FA5 JUMP JUMPDEST PUSH2 0x968 JUMP JUMPDEST CALLVALUE DUP1 ISZERO PUSH2 0x36F JUMPI PUSH1 0x0 DUP1 REVERT JUMPDEST POP PUSH2 0x383 PUSH2 0x37E CALLDATASIZE PUSH1 0x4 PUSH2 0x3F46 JUMP JUMPDEST PUSH2 0x9E0 JUMP JUMPDEST PUSH1 0x40 MLOAD PUSH2 0x29B SWAP2 SWAP1 PUSH2 0x40C7 JUMP JUMPDEST CALLVALUE DUP1 ISZERO PUSH2 0x39C JUMPI PUSH1 0x0 DUP1 REVERT JUMPDEST POP PUSH2 0x335 PUSH2 0x3AB CALLDATASIZE PUSH1 0x4 PUSH2 0x3F7B JUMP JUMPDEST PUSH2 0xE24 JUMP JUMPDEST CALLVALUE DUP1 ISZERO PUSH2 0x3BC JUMPI PUSH1 0x0 DUP1 REVERT JUMPDEST POP PUSH2 0x31E PUSH2 0x3CB CALLDATASIZE PUSH1 0x4 PUSH2 0x40DA JUMP JUMPDEST PUSH2 0xECD JUMP JUMPDEST CALLVALUE DUP1 ISZERO PUSH2 0x3DC JUMPI PUSH1 0x0 DUP1 REVERT JUMPDEST POP PUSH2 0x2B9 PUSH1 0x40 MLOAD DUP1 PUSH1 0x40 ADD PUSH1 0x40 MSTORE DUP1 PUSH1 0x4 DUP2 MSTORE PUSH1 0x20 ADD PUSH4 0x53545945 PUSH1 0xE0 SHL DUP2 MSTORE POP DUP2 JUMP JUMPDEST CALLVALUE DUP1 ISZERO PUSH2 0x40C JUMPI PUSH1 0x0 DUP1 REVERT JUMPDEST POP PUSH2 0x31E PUSH2 0x1048 JUMP JUMPDEST CALLVALUE DUP1 ISZERO PUSH2 0x421 JUMPI PUSH1 0x0 DUP1 REVERT JUMPDEST POP PUSH2 0x31E PUSH2 0x430 CALLDATASIZE PUSH1 0x4 PUSH2 0x3FA5 JUMP JUMPDEST PUSH2 0x105A JUMP JUMPDEST CALLVALUE DUP1 ISZERO PUSH2 0x441 JUMPI PUSH1 0x0 DUP1 REVERT JUMPDEST POP PUSH2 0x31E PUSH2 0x450 CALLDATASIZE PUSH1 0x4 PUSH2 0x3F46 JUMP JUMPDEST PUSH2 0x1075 JUMP JUMPDEST PUSH2 0x31E PUSH2 0x463 CALLDATASIZE PUSH1 0x4 PUSH2 0x4198 JUMP JUMPDEST PUSH2 0x10E0 JUMP JUMPDEST CALLVALUE DUP1 ISZERO PUSH2 0x474 JUMPI PUSH1 0x0 DUP1 REVERT JUMPDEST POP PUSH2 0x335 PUSH2 0x483 CALLDATASIZE PUSH1 0x4 PUSH2 0x3F46 JUMP JUMPDEST PUSH2 0x124C JUMP JUMPDEST CALLVALUE DUP1 ISZERO PUSH2 0x494 JUMPI PUSH1 0x0 DUP1 REVERT JUMPDEST POP PUSH2 0x335 PUSH2 0x12AF JUMP JUMPDEST CALLVALUE DUP1 ISZERO PUSH2 0x4A9 JUMPI PUSH1 0x0 DUP1 REVERT JUMPDEST POP PUSH2 0x31E PUSH2 0x4B8 CALLDATASIZE PUSH1 0x4 PUSH2 0x41E6 JUMP JUMPDEST PUSH2 0x1374 JUMP JUMPDEST CALLVALUE DUP1 ISZERO PUSH2 0x4C9 JUMPI PUSH1 0x0 DUP1 REVERT JUMPDEST POP PUSH2 0x4DD PUSH2 0x4D8 CALLDATASIZE PUSH1 0x4 PUSH2 0x40DA JUMP JUMPDEST PUSH2 0x13DF JUMP JUMPDEST PUSH1 0x40 MLOAD PUSH2 0x29B SWAP2 SWAP1 PUSH2 0x421B JUMP JUMPDEST CALLVALUE DUP1 ISZERO PUSH2 0x4F6 JUMPI PUSH1 0x0 DUP1 REVERT JUMPDEST POP PUSH1 0xC9 SLOAD PUSH1 0xFF AND PUSH2 0x28F JUMP JUMPDEST CALLVALUE DUP1 ISZERO PUSH2 0x50E JUMPI PUSH1 0x0 DUP1 REVERT JUMPDEST POP PUSH2 0x2E6 PUSH2 0x51D CALLDATASIZE PUSH1 0x4 PUSH2 0x3F46 JUMP JUMPDEST PUSH2 0x183C JUMP JUMPDEST CALLVALUE DUP1 ISZERO PUSH2 0x52E JUMPI PUSH1 0x0 DUP1 REVERT JUMPDEST POP PUSH2 0x335 PUSH2 0x53D CALLDATASIZE PUSH1 0x4 PUSH2 0x40DA JUMP JUMPDEST PUSH2 0x1865 JUMP JUMPDEST CALLVALUE DUP1 ISZERO PUSH2 0x54E JUMPI PUSH1 0x0 DUP1 REVERT JUMPDEST POP PUSH2 0x31E PUSH2 0x1905 JUMP JUMPDEST CALLVALUE DUP1 ISZERO PUSH2 0x563 JUMPI PUSH1 0x0 DUP1 REVERT JUMPDEST POP PUSH2 0x31E PUSH2 0x572 CALLDATASIZE PUSH1 0x4 PUSH2 0x427D JUMP JUMPDEST PUSH2 0x1917 JUMP JUMPDEST CALLVALUE DUP1 ISZERO PUSH2 0x583 JUMPI PUSH1 0x0 DUP1 REVERT JUMPDEST POP PUSH2 0x31E PUSH2 0x1AED JUMP JUMPDEST CALLVALUE DUP1 ISZERO PUSH2 0x598 JUMPI PUSH1 0x0 DUP1 REVERT JUMPDEST POP PUSH1 0xFB SLOAD PUSH1 0x1 PUSH1 0x1 PUSH1 0xA0 SHL SUB AND PUSH2 0x2E6 JUMP JUMPDEST CALLVALUE DUP1 ISZERO PUSH2 0x5B6 JUMPI PUSH1 0x0 DUP1 REVERT JUMPDEST POP PUSH2 0x28F PUSH2 0x5C5 CALLDATASIZE PUSH1 0x4 PUSH2 0x439A JUMP JUMPDEST PUSH2 0x1AFD JUMP JUMPDEST CALLVALUE DUP1 ISZERO PUSH2 0x5D6 JUMPI PUSH1 0x0 DUP1 REVERT JUMPDEST POP PUSH2 0x4DD PUSH2 0x1C95 JUMP JUMPDEST CALLVALUE DUP1 ISZERO PUSH2 0x5EB JUMPI PUSH1 0x0 DUP1 REVERT JUMPDEST POP PUSH2 0x2B9 PUSH2 0x20F1 JUMP JUMPDEST CALLVALUE DUP1 ISZERO PUSH2 0x600 JUMPI PUSH1 0x0 DUP1 REVERT JUMPDEST POP PUSH2 0x31E PUSH2 0x60F CALLDATASIZE PUSH1 0x4 PUSH2 0x43BC JUMP JUMPDEST PUSH2 0x2100 JUMP JUMPDEST CALLVALUE DUP1 ISZERO PUSH2 0x620 JUMPI PUSH1 0x0 DUP1 REVERT JUMPDEST POP PUSH2 0x31E PUSH2 0x62F CALLDATASIZE PUSH1 0x4 PUSH2 0x43F8 JUMP JUMPDEST PUSH2 0x210B JUMP JUMPDEST CALLVALUE DUP1 ISZERO PUSH2 0x640 JUMPI PUSH1 0x0 DUP1 REVERT JUMPDEST POP PUSH2 0x335 PUSH2 0x2189 JUMP JUMPDEST CALLVALUE DUP1 ISZERO PUSH2 0x655 JUMPI PUSH1 0x0 DUP1 REVERT JUMPDEST POP PUSH2 0x335 PUSH2 0x664 CALLDATASIZE PUSH1 0x4 PUSH2 0x40DA JUMP JUMPDEST PUSH2 0x2194 JUMP JUMPDEST CALLVALUE DUP1 ISZERO PUSH2 0x675 JUMPI PUSH1 0x0 DUP1 REVERT JUMPDEST POP PUSH2 0x2B9 PUSH2 0x684 CALLDATASIZE PUSH1 0x4 PUSH2 0x3F46 JUMP JUMPDEST PUSH2 0x21AB JUMP JUMPDEST CALLVALUE DUP1 ISZERO PUSH2 0x695 JUMPI PUSH1 0x0 DUP1 REVERT JUMPDEST POP PUSH2 0x2E6 PUSH2 0x6A4 CALLDATASIZE PUSH1 0x4 PUSH2 0x3F46 JUMP JUMPDEST PUSH2 0x2241 JUMP JUMPDEST CALLVALUE DUP1 ISZERO PUSH2 0x6B5 JUMPI PUSH1 0x0 DUP1 REVERT JUMPDEST POP PUSH2 0x28F PUSH2 0x6C4 CALLDATASIZE PUSH1 0x4 PUSH2 0x4460 JUMP JUMPDEST PUSH1 0x1 PUSH1 0x1 PUSH1 0xA0 SHL SUB SWAP2 DUP3 AND PUSH1 0x0 SWAP1 DUP2 MSTORE PUSH1 0x6A PUSH1 0x20 SWAP1 DUP2 MSTORE PUSH1 0x40 DUP1 DUP4 KECCAK256 SWAP4 SWAP1 SWAP5 AND DUP3 MSTORE SWAP2 SWAP1 SWAP2 MSTORE KECCAK256 SLOAD PUSH1 0xFF AND SWAP1 JUMP JUMPDEST CALLVALUE DUP1 ISZERO PUSH2 0x6FE JUMPI PUSH1 0x0 DUP1 REVERT JUMPDEST POP PUSH2 0x31E PUSH2 0x70D CALLDATASIZE PUSH1 0x4 PUSH2 0x40DA JUMP JUMPDEST PUSH2 0x2264 JUMP JUMPDEST CALLVALUE DUP1 ISZERO PUSH2 0x71E JUMPI PUSH1 0x0 DUP1 REVERT JUMPDEST POP PUSH2 0x31E PUSH2 0x72D CALLDATASIZE PUSH1 0x4 PUSH2 0x41E6 JUMP JUMPDEST PUSH2 0x22F1 JUMP JUMPDEST PUSH1 0x0 PUSH1 0x1 PUSH1 0x1 PUSH1 0xE0 SHL SUB NOT DUP3 AND PUSH4 0x80AC58CD PUSH1 0xE0 SHL EQ DUP1 PUSH2 0x763 JUMPI POP PUSH1 0x1 PUSH1 0x1 PUSH1 0xE0 SHL SUB NOT DUP3 AND PUSH4 0x5B5E139F PUSH1 0xE0 SHL EQ JUMPDEST DUP1 PUSH2 0x77E JUMPI POP PUSH4 0x1FFC9A7 PUSH1 0xE0 SHL PUSH1 0x1 PUSH1 0x1 PUSH1 0xE0 SHL SUB NOT DUP4 AND EQ JUMPDEST SWAP3 SWAP2 POP POP JUMP JUMPDEST PUSH1 0x60 PUSH1 0x65 DUP1 SLOAD PUSH2 0x793 SWAP1 PUSH2 0x4493 JUMP JUMPDEST DUP1 PUSH1 0x1F ADD PUSH1 0x20 DUP1 SWAP2 DIV MUL PUSH1 0x20 ADD PUSH1 0x40 MLOAD SWAP1 DUP2 ADD PUSH1 0x40 MSTORE DUP1 SWAP3 SWAP2 SWAP1 DUP2 DUP2 MSTORE PUSH1 0x20 ADD DUP3 DUP1 SLOAD PUSH2 0x7BF SWAP1 PUSH2 0x4493 JUMP JUMPDEST DUP1 ISZERO PUSH2 0x80C JUMPI DUP1 PUSH1 0x1F LT PUSH2 0x7E1 JUMPI PUSH2 0x100 DUP1 DUP4 SLOAD DIV MUL DUP4 MSTORE SWAP2 PUSH1 0x20 ADD SWAP2 PUSH2 0x80C JUMP JUMPDEST DUP3 ADD SWAP2 SWAP1 PUSH1 0x0 MSTORE PUSH1 0x20 PUSH1 0x0 KECCAK256 SWAP1 JUMPDEST DUP2 SLOAD DUP2 MSTORE SWAP1 PUSH1 0x1 ADD SWAP1 PUSH1 0x20 ADD DUP1 DUP4 GT PUSH2 0x7EF JUMPI DUP3 SWAP1 SUB PUSH1 0x1F AND DUP3 ADD SWAP2 JUMPDEST POP POP POP POP POP SWAP1 POP SWAP1 JUMP JUMPDEST PUSH1 0x0 PUSH2 0x821 DUP3 PUSH2 0x24A5 JUMP JUMPDEST POP PUSH1 0x0 SWAP1 DUP2 MSTORE PUSH1 0x69 PUSH1 0x20 MSTORE PUSH1 0x40 SWAP1 KECCAK256 SLOAD PUSH1 0x1 PUSH1 0x1 PUSH1 0xA0 SHL SUB AND SWAP1 JUMP JUMPDEST PUSH1 0x0 PUSH2 0x848 DUP3 PUSH2 0x2509 JUMP JUMPDEST SWAP1 POP DUP1 PUSH1 0x1 PUSH1 0x1 PUSH1 0xA0 SHL SUB AND DUP4 PUSH1 0x1 PUSH1 0x1 PUSH1 0xA0 SHL SUB AND SUB PUSH2 0x8BA JUMPI PUSH1 0x40 MLOAD PUSH3 0x461BCD PUSH1 0xE5 SHL DUP2 MSTORE PUSH1 0x20 PUSH1 0x4 DUP3 ADD MSTORE PUSH1 0x21 PUSH1 0x24 DUP3 ADD MSTORE PUSH32 0x4552433732313A20617070726F76616C20746F2063757272656E74206F776E65 PUSH1 0x44 DUP3 ADD MSTORE PUSH1 0x39 PUSH1 0xF9 SHL PUSH1 0x64 DUP3 ADD MSTORE PUSH1 0x84 ADD JUMPDEST PUSH1 0x40 MLOAD DUP1 SWAP2 SUB SWAP1 REVERT JUMPDEST CALLER PUSH1 0x1 PUSH1 0x1 PUSH1 0xA0 SHL SUB DUP3 AND EQ DUP1 PUSH2 0x8D6 JUMPI POP PUSH2 0x8D6 DUP2 CALLER PUSH2 0x6C4 JUMP JUMPDEST PUSH2 0x948 JUMPI PUSH1 0x40 MLOAD PUSH3 0x461BCD PUSH1 0xE5 SHL DUP2 MSTORE PUSH1 0x20 PUSH1 0x4 DUP3 ADD MSTORE PUSH1 0x3D PUSH1 0x24 DUP3 ADD MSTORE PUSH32 0x4552433732313A20617070726F76652063616C6C6572206973206E6F7420746F PUSH1 0x44 DUP3 ADD MSTORE PUSH32 0x6B656E206F776E6572206F7220617070726F76656420666F7220616C6C000000 PUSH1 0x64 DUP3 ADD MSTORE PUSH1 0x84 ADD PUSH2 0x8B1 JUMP JUMPDEST PUSH2 0x952 DUP4 DUP4 PUSH2 0x256E JUMP JUMPDEST POP POP POP JUMP JUMPDEST PUSH1 0x0 PUSH2 0x963 PUSH2 0x1F6 SLOAD SWAP1 JUMP JUMPDEST SWAP1 POP SWAP1 JUMP JUMPDEST PUSH2 0x973 CALLER JUMPDEST DUP3 PUSH2 0x25DC JUMP JUMPDEST PUSH2 0x9D5 JUMPI PUSH1 0x40 MLOAD PUSH3 0x461BCD PUSH1 0xE5 SHL DUP2 MSTORE PUSH1 0x20 PUSH1 0x4 DUP3 ADD MSTORE PUSH1 0x2D PUSH1 0x24 DUP3 ADD MSTORE PUSH32 0x4552433732313A2063616C6C6572206973206E6F7420746F6B656E206F776E65 PUSH1 0x44 DUP3 ADD MSTORE PUSH13 0x1C881BDC88185C1C1C9BDD9959 PUSH1 0x9A SHL PUSH1 0x64 DUP3 ADD MSTORE PUSH1 0x84 ADD PUSH2 0x8B1 JUMP JUMPDEST PUSH2 0x952 DUP4 DUP4 DUP4 PUSH2 0x265A JUMP JUMPDEST PUSH2 0xA4D PUSH1 0x40 MLOAD DUP1 PUSH2 0x180 ADD PUSH1 0x40 MSTORE DUP1 PUSH1 0x0 DUP2 MSTORE PUSH1 0x20 ADD PUSH1 0x0 DUP2 MSTORE PUSH1 0x20 ADD PUSH1 0x0 DUP2 MSTORE PUSH1 0x20 ADD PUSH1 0x0 DUP2 MSTORE PUSH1 0x20 ADD PUSH1 0x0 DUP2 MSTORE PUSH1 0x20 ADD PUSH1 0x0 DUP2 MSTORE PUSH1 0x20 ADD PUSH1 0x0 PUSH1 0x1 PUSH1 0x1 PUSH1 0xA0 SHL SUB AND DUP2 MSTORE PUSH1 0x20 ADD PUSH1 0x60 DUP2 MSTORE PUSH1 0x20 ADD PUSH1 0x60 DUP2 MSTORE PUSH1 0x20 ADD PUSH1 0x60 DUP2 MSTORE PUSH1 0x20 ADD PUSH1 0x60 DUP2 MSTORE PUSH1 0x20 ADD PUSH1 0x60 DUP2 MSTORE POP SWAP1 JUMP JUMPDEST PUSH2 0xA56 DUP3 PUSH2 0x283A JUMP JUMPDEST PUSH2 0xAC8 JUMPI PUSH1 0x40 MLOAD PUSH3 0x461BCD PUSH1 0xE5 SHL DUP2 MSTORE PUSH1 0x20 PUSH1 0x4 DUP3 ADD MSTORE PUSH1 0x33 PUSH1 0x24 DUP3 ADD MSTORE PUSH32 0x4552433732313A2070766E20746F6B656E20646F6573206E6F74206578697374 PUSH1 0x44 DUP3 ADD MSTORE PUSH32 0x206F72206E6F74206265656E206D696E74656400000000000000000000000000 PUSH1 0x64 DUP3 ADD MSTORE PUSH1 0x84 ADD PUSH2 0x8B1 JUMP JUMPDEST PUSH1 0x0 DUP3 DUP2 MSTORE PUSH2 0x1FC PUSH1 0x20 SWAP1 DUP2 MSTORE PUSH1 0x40 DUP1 DUP4 KECCAK256 SLOAD DUP1 DUP5 MSTORE PUSH2 0x1F7 DUP4 MSTORE SWAP3 DUP2 SWAP1 KECCAK256 DUP2 MLOAD PUSH2 0x180 DUP2 ADD DUP4 MSTORE DUP2 SLOAD DUP2 MSTORE PUSH1 0x1 DUP3 ADD SLOAD SWAP4 DUP2 ADD SWAP4 SWAP1 SWAP4 MSTORE PUSH1 0x2 DUP2 ADD SLOAD SWAP2 DUP4 ADD SWAP2 SWAP1 SWAP2 MSTORE PUSH1 0x3 DUP2 ADD SLOAD PUSH1 0x60 DUP4 ADD MSTORE PUSH1 0x4 DUP2 ADD SLOAD PUSH1 0x80 DUP4 ADD MSTORE PUSH1 0x5 DUP2 ADD SLOAD PUSH1 0xA0 DUP4 ADD MSTORE PUSH1 0x6 DUP2 ADD SLOAD PUSH1 0x1 PUSH1 0x1 PUSH1 0xA0 SHL SUB AND PUSH1 0xC0 DUP4 ADD MSTORE PUSH1 0x7 DUP2 ADD DUP1 SLOAD PUSH1 0xE0 DUP5 ADD SWAP2 SWAP1 PUSH2 0xB52 SWAP1 PUSH2 0x4493 JUMP JUMPDEST DUP1 PUSH1 0x1F ADD PUSH1 0x20 DUP1 SWAP2 DIV MUL PUSH1 0x20 ADD PUSH1 0x40 MLOAD SWAP1 DUP2 ADD PUSH1 0x40 MSTORE DUP1 SWAP3 SWAP2 SWAP1 DUP2 DUP2 MSTORE PUSH1 0x20 ADD DUP3 DUP1 SLOAD PUSH2 0xB7E SWAP1 PUSH2 0x4493 JUMP JUMPDEST DUP1 ISZERO PUSH2 0xBCB JUMPI DUP1 PUSH1 0x1F LT PUSH2 0xBA0 JUMPI PUSH2 0x100 DUP1 DUP4 SLOAD DIV MUL DUP4 MSTORE SWAP2 PUSH1 0x20 ADD SWAP2 PUSH2 0xBCB JUMP JUMPDEST DUP3 ADD SWAP2 SWAP1 PUSH1 0x0 MSTORE PUSH1 0x20 PUSH1 0x0 KECCAK256 SWAP1 JUMPDEST DUP2 SLOAD DUP2 MSTORE SWAP1 PUSH1 0x1 ADD SWAP1 PUSH1 0x20 ADD DUP1 DUP4 GT PUSH2 0xBAE JUMPI DUP3 SWAP1 SUB PUSH1 0x1F AND DUP3 ADD SWAP2 JUMPDEST POP POP POP POP POP DUP2 MSTORE PUSH1 0x20 ADD PUSH1 0x8 DUP3 ADD DUP1 SLOAD PUSH2 0xBE4 SWAP1 PUSH2 0x4493 JUMP JUMPDEST DUP1 PUSH1 0x1F ADD PUSH1 0x20 DUP1 SWAP2 DIV MUL PUSH1 0x20 ADD PUSH1 0x40 MLOAD SWAP1 DUP2 ADD PUSH1 0x40 MSTORE DUP1 SWAP3 SWAP2 SWAP1 DUP2 DUP2 MSTORE PUSH1 0x20 ADD DUP3 DUP1 SLOAD PUSH2 0xC10 SWAP1 PUSH2 0x4493 JUMP JUMPDEST DUP1 ISZERO PUSH2 0xC5D JUMPI DUP1 PUSH1 0x1F LT PUSH2 0xC32 JUMPI PUSH2 0x100 DUP1 DUP4 SLOAD DIV MUL DUP4 MSTORE SWAP2 PUSH1 0x20 ADD SWAP2 PUSH2 0xC5D JUMP JUMPDEST DUP3 ADD SWAP2 SWAP1 PUSH1 0x0 MSTORE PUSH1 0x20 PUSH1 0x0 KECCAK256 SWAP1 JUMPDEST DUP2 SLOAD DUP2 MSTORE SWAP1 PUSH1 0x1 ADD SWAP1 PUSH1 0x20 ADD DUP1 DUP4 GT PUSH2 0xC40 JUMPI DUP3 SWAP1 SUB PUSH1 0x1F AND DUP3 ADD SWAP2 JUMPDEST POP POP POP POP POP DUP2 MSTORE PUSH1 0x20 ADD PUSH1 0x9 DUP3 ADD DUP1 SLOAD PUSH2 0xC76 SWAP1 PUSH2 0x4493 JUMP JUMPDEST DUP1 PUSH1 0x1F ADD PUSH1 0x20 DUP1 SWAP2 DIV MUL PUSH1 0x20 ADD PUSH1 0x40 MLOAD SWAP1 DUP2 ADD PUSH1 0x40 MSTORE DUP1 SWAP3 SWAP2 SWAP1 DUP2 DUP2 MSTORE PUSH1 0x20 ADD DUP3 DUP1 SLOAD PUSH2 0xCA2 SWAP1 PUSH2 0x4493 JUMP JUMPDEST DUP1 ISZERO PUSH2 0xCEF JUMPI DUP1 PUSH1 0x1F LT PUSH2 0xCC4 JUMPI PUSH2 0x100 DUP1 DUP4 SLOAD DIV MUL DUP4 MSTORE SWAP2 PUSH1 0x20 ADD SWAP2 PUSH2 0xCEF JUMP JUMPDEST DUP3 ADD SWAP2 SWAP1 PUSH1 0x0 MSTORE PUSH1 0x20 PUSH1 0x0 KECCAK256 SWAP1 JUMPDEST DUP2 SLOAD DUP2 MSTORE SWAP1 PUSH1 0x1 ADD SWAP1 PUSH1 0x20 ADD DUP1 DUP4 GT PUSH2 0xCD2 JUMPI DUP3 SWAP1 SUB PUSH1 0x1F AND DUP3 ADD SWAP2 JUMPDEST POP POP POP POP POP DUP2 MSTORE PUSH1 0x20 ADD PUSH1 0xA DUP3 ADD DUP1 SLOAD PUSH2 0xD08 SWAP1 PUSH2 0x4493 JUMP JUMPDEST DUP1 PUSH1 0x1F ADD PUSH1 0x20 DUP1 SWAP2 DIV MUL PUSH1 0x20 ADD PUSH1 0x40 MLOAD SWAP1 DUP2 ADD PUSH1 0x40 MSTORE DUP1 SWAP3 SWAP2 SWAP1 DUP2 DUP2 MSTORE PUSH1 0x20 ADD DUP3 DUP1 SLOAD PUSH2 0xD34 SWAP1 PUSH2 0x4493 JUMP JUMPDEST DUP1 ISZERO PUSH2 0xD81 JUMPI DUP1 PUSH1 0x1F LT PUSH2 0xD56 JUMPI PUSH2 0x100 DUP1 DUP4 SLOAD DIV MUL DUP4 MSTORE SWAP2 PUSH1 0x20 ADD SWAP2 PUSH2 0xD81 JUMP JUMPDEST DUP3 ADD SWAP2 SWAP1 PUSH1 0x0 MSTORE PUSH1 0x20 PUSH1 0x0 KECCAK256 SWAP1 JUMPDEST DUP2 SLOAD DUP2 MSTORE SWAP1 PUSH1 0x1 ADD SWAP1 PUSH1 0x20 ADD DUP1 DUP4 GT PUSH2 0xD64 JUMPI DUP3 SWAP1 SUB PUSH1 0x1F AND DUP3 ADD SWAP2 JUMPDEST POP POP POP POP POP DUP2 MSTORE PUSH1 0x20 ADD PUSH1 0xB DUP3 ADD DUP1 SLOAD PUSH2 0xD9A SWAP1 PUSH2 0x4493 JUMP JUMPDEST DUP1 PUSH1 0x1F ADD PUSH1 0x20 DUP1 SWAP2 DIV MUL PUSH1 0x20 ADD PUSH1 0x40 MLOAD SWAP1 DUP2 ADD PUSH1 0x40 MSTORE DUP1 SWAP3 SWAP2 SWAP1 DUP2 DUP2 MSTORE PUSH1 0x20 ADD DUP3 DUP1 SLOAD PUSH2 0xDC6 SWAP1 PUSH2 0x4493 JUMP JUMPDEST DUP1 ISZERO PUSH2 0xE13 JUMPI DUP1 PUSH1 0x1F LT PUSH2 0xDE8 JUMPI PUSH2 0x100 DUP1 DUP4 SLOAD DIV MUL DUP4 MSTORE SWAP2 PUSH1 0x20 ADD SWAP2 PUSH2 0xE13 JUMP JUMPDEST DUP3 ADD SWAP2 SWAP1 PUSH1 0x0 MSTORE PUSH1 0x20 PUSH1 0x0 KECCAK256 SWAP1 JUMPDEST DUP2 SLOAD DUP2 MSTORE SWAP1 PUSH1 0x1 ADD SWAP1 PUSH1 0x20 ADD DUP1 DUP4 GT PUSH2 0xDF6 JUMPI DUP3 SWAP1 SUB PUSH1 0x1F AND DUP3 ADD SWAP2 JUMPDEST POP POP POP POP POP DUP2 MSTORE POP POP SWAP2 POP POP SWAP2 SWAP1 POP JUMP JUMPDEST PUSH1 0x0 PUSH2 0xE2F DUP4 PUSH2 0x1865 JUMP JUMPDEST DUP3 LT PUSH2 0xEA3 JUMPI PUSH1 0x40 MLOAD PUSH3 0x461BCD PUSH1 0xE5 SHL DUP2 MSTORE PUSH1 0x20 PUSH1 0x4 DUP3 ADD MSTORE PUSH1 0x2B PUSH1 0x24 DUP3 ADD MSTORE PUSH32 0x455243373231456E756D657261626C653A206F776E657220696E646578206F75 PUSH1 0x44 DUP3 ADD MSTORE PUSH32 0x74206F6620626F756E6473000000000000000000000000000000000000000000 PUSH1 0x64 DUP3 ADD MSTORE PUSH1 0x84 ADD PUSH2 0x8B1 JUMP JUMPDEST PUSH1 0x1 PUSH1 0x1 PUSH1 0xA0 SHL SUB DUP4 AND PUSH1 0x0 SWAP1 DUP2 MSTORE PUSH2 0x1F8 PUSH1 0x20 MSTORE PUSH1 0x40 SWAP1 KECCAK256 PUSH2 0xEC6 SWAP1 DUP4 PUSH2 0x2856 JUMP JUMPDEST SWAP4 SWAP3 POP POP POP JUMP JUMPDEST PUSH1 0x1 PUSH1 0x1 PUSH1 0xA0 SHL SUB PUSH32 0x0 AND ADDRESS SUB PUSH2 0xF5A JUMPI PUSH1 0x40 MLOAD PUSH3 0x461BCD PUSH1 0xE5 SHL DUP2 MSTORE PUSH1 0x20 PUSH1 0x4 DUP3 ADD MSTORE PUSH1 0x2C PUSH1 0x24 DUP3 ADD MSTORE PUSH32 0x46756E6374696F6E206D7573742062652063616C6C6564207468726F75676820 PUSH1 0x44 DUP3 ADD MSTORE PUSH12 0x19195B1959D85D1958D85B1B PUSH1 0xA2 SHL PUSH1 0x64 DUP3 ADD MSTORE PUSH1 0x84 ADD PUSH2 0x8B1 JUMP JUMPDEST PUSH32 0x0 PUSH1 0x1 PUSH1 0x1 PUSH1 0xA0 SHL SUB AND PUSH2 0xFB5 PUSH32 0x360894A13BA1A3210667C828492DB98DCA3E2076CC3735A920A3CA505D382BBC SLOAD PUSH1 0x1 PUSH1 0x1 PUSH1 0xA0 SHL SUB AND SWAP1 JUMP JUMPDEST PUSH1 0x1 PUSH1 0x1 PUSH1 0xA0 SHL SUB AND EQ PUSH2 0x1020 JUMPI PUSH1 0x40 MLOAD PUSH3 0x461BCD PUSH1 0xE5 SHL DUP2 MSTORE PUSH1 0x20 PUSH1 0x4 DUP3 ADD MSTORE PUSH1 0x2C PUSH1 0x24 DUP3 ADD MSTORE PUSH32 0x46756E6374696F6E206D7573742062652063616C6C6564207468726F75676820 PUSH1 0x44 DUP3 ADD MSTORE PUSH12 0x6163746976652070726F7879 PUSH1 0xA0 SHL PUSH1 0x64 DUP3 ADD MSTORE PUSH1 0x84 ADD PUSH2 0x8B1 JUMP JUMPDEST PUSH2 0x1029 DUP2 PUSH2 0x2862 JUMP JUMPDEST PUSH1 0x40 DUP1 MLOAD PUSH1 0x0 DUP1 DUP3 MSTORE PUSH1 0x20 DUP3 ADD SWAP1 SWAP3 MSTORE PUSH2 0x1045 SWAP2 DUP4 SWAP2 SWAP1 PUSH2 0x286A JUMP JUMPDEST POP JUMP JUMPDEST PUSH2 0x1050 PUSH2 0x2A0A JUMP JUMPDEST PUSH2 0x1058 PUSH2 0x2A64 JUMP JUMPDEST JUMP JUMPDEST PUSH2 0x952 DUP4 DUP4 DUP4 PUSH1 0x40 MLOAD DUP1 PUSH1 0x20 ADD PUSH1 0x40 MSTORE DUP1 PUSH1 0x0 DUP2 MSTORE POP PUSH2 0x210B JUMP JUMPDEST PUSH2 0x107E CALLER PUSH2 0x96D JUMP JUMPDEST PUSH2 0x1045 JUMPI PUSH1 0x40 MLOAD PUSH3 0x461BCD PUSH1 0xE5 SHL DUP2 MSTORE PUSH1 0x20 PUSH1 0x4 DUP3 ADD MSTORE PUSH1 0x2D PUSH1 0x24 DUP3 ADD MSTORE PUSH32 0x4552433732313A2063616C6C6572206973206E6F7420746F6B656E206F776E65 PUSH1 0x44 DUP3 ADD MSTORE PUSH13 0x1C881BDC88185C1C1C9BDD9959 PUSH1 0x9A SHL PUSH1 0x64 DUP3 ADD MSTORE PUSH1 0x84 ADD PUSH2 0x8B1 JUMP JUMPDEST PUSH1 0x1 PUSH1 0x1 PUSH1 0xA0 SHL SUB PUSH32 0x0 AND ADDRESS SUB PUSH2 0x116D JUMPI PUSH1 0x40 MLOAD PUSH3 0x461BCD PUSH1 0xE5 SHL DUP2 MSTORE PUSH1 0x20 PUSH1 0x4 DUP3 ADD MSTORE PUSH1 0x2C PUSH1 0x24 DUP3 ADD MSTORE PUSH32 0x46756E6374696F6E206D7573742062652063616C6C6564207468726F75676820 PUSH1 0x44 DUP3 ADD MSTORE PUSH12 0x19195B1959D85D1958D85B1B PUSH1 0xA2 SHL PUSH1 0x64 DUP3 ADD MSTORE PUSH1 0x84 ADD PUSH2 0x8B1 JUMP JUMPDEST PUSH32 0x0 PUSH1 0x1 PUSH1 0x1 PUSH1 0xA0 SHL SUB AND PUSH2 0x11C8 PUSH32 0x360894A13BA1A3210667C828492DB98DCA3E2076CC3735A920A3CA505D382BBC SLOAD PUSH1 0x1 PUSH1 0x1 PUSH1 0xA0 SHL SUB AND SWAP1 JUMP JUMPDEST PUSH1 0x1 PUSH1 0x1 PUSH1 0xA0 SHL SUB AND EQ PUSH2 0x1233 JUMPI PUSH1 0x40 MLOAD PUSH3 0x461BCD PUSH1 0xE5 SHL DUP2 MSTORE PUSH1 0x20 PUSH1 0x4 DUP3 ADD MSTORE PUSH1 0x2C PUSH1 0x24 DUP3 ADD MSTORE PUSH32 0x46756E6374696F6E206D7573742062652063616C6C6564207468726F75676820 PUSH1 0x44 DUP3 ADD MSTORE PUSH12 0x6163746976652070726F7879 PUSH1 0xA0 SHL PUSH1 0x64 DUP3 ADD MSTORE PUSH1 0x84 ADD PUSH2 0x8B1 JUMP JUMPDEST PUSH2 0x123C DUP3 PUSH2 0x2862 JUMP JUMPDEST PUSH2 0x1248 DUP3 DUP3 PUSH1 0x1 PUSH2 0x286A JUMP JUMPDEST POP POP JUMP JUMPDEST PUSH1 0x0 PUSH2 0x1256 PUSH2 0x957 JUMP JUMPDEST DUP3 LT PUSH2 0x12A4 JUMPI PUSH1 0x40 MLOAD PUSH3 0x461BCD PUSH1 0xE5 SHL DUP2 MSTORE PUSH1 0x20 PUSH1 0x4 DUP3 ADD MSTORE PUSH1 0x1F PUSH1 0x24 DUP3 ADD MSTORE PUSH32 0x455243373231456E756D657261626C653A20696E76616C696420696E64657800 PUSH1 0x44 DUP3 ADD MSTORE PUSH1 0x64 ADD PUSH2 0x8B1 JUMP JUMPDEST PUSH2 0x77E DUP3 PUSH1 0x1 PUSH2 0x44CD JUMP JUMPDEST PUSH1 0x0 ADDRESS PUSH1 0x1 PUSH1 0x1 PUSH1 0xA0 SHL SUB PUSH32 0x0 AND EQ PUSH2 0x134F JUMPI PUSH1 0x40 MLOAD PUSH3 0x461BCD PUSH1 0xE5 SHL DUP2 MSTORE PUSH1 0x20 PUSH1 0x4 DUP3 ADD MSTORE PUSH1 0x38 PUSH1 0x24 DUP3 ADD MSTORE PUSH32 0x555550535570677261646561626C653A206D757374206E6F742062652063616C PUSH1 0x44 DUP3 ADD MSTORE PUSH32 0x6C6564207468726F7567682064656C656761746563616C6C0000000000000000 PUSH1 0x64 DUP3 ADD MSTORE PUSH1 0x84 ADD PUSH2 0x8B1 JUMP JUMPDEST POP PUSH32 0x360894A13BA1A3210667C828492DB98DCA3E2076CC3735A920A3CA505D382BBC SWAP1 JUMP JUMPDEST PUSH2 0x137C PUSH2 0x2A0A JUMP JUMPDEST DUP1 PUSH1 0x40 MLOAD PUSH2 0x138A SWAP2 SWAP1 PUSH2 0x44EE JUMP JUMPDEST PUSH1 0x40 MLOAD DUP1 SWAP2 SUB SWAP1 KECCAK256 PUSH2 0x1F5 PUSH1 0x40 MLOAD PUSH2 0x13A2 SWAP2 SWAP1 PUSH2 0x450A JUMP JUMPDEST PUSH1 0x40 MLOAD SWAP1 DUP2 SWAP1 SUB DUP2 KECCAK256 SWAP1 PUSH32 0x309B29DED109B9E28FB9885757B3E0096EB75C51D23AA4635D68BCD569F6ADC1 SWAP1 PUSH1 0x0 SWAP1 LOG3 PUSH2 0x1F5 PUSH2 0x1248 DUP3 DUP3 PUSH2 0x45CE JUMP JUMPDEST PUSH1 0x60 PUSH1 0x0 PUSH2 0x13EC DUP4 PUSH2 0x1865 JUMP JUMPDEST SWAP1 POP PUSH1 0x0 DUP2 PUSH8 0xFFFFFFFFFFFFFFFF DUP2 GT ISZERO PUSH2 0x1409 JUMPI PUSH2 0x1409 PUSH2 0x40F5 JUMP JUMPDEST PUSH1 0x40 MLOAD SWAP1 DUP1 DUP3 MSTORE DUP1 PUSH1 0x20 MUL PUSH1 0x20 ADD DUP3 ADD PUSH1 0x40 MSTORE DUP1 ISZERO PUSH2 0x14A7 JUMPI DUP2 PUSH1 0x20 ADD JUMPDEST PUSH2 0x1494 PUSH1 0x40 MLOAD DUP1 PUSH2 0x180 ADD PUSH1 0x40 MSTORE DUP1 PUSH1 0x0 DUP2 MSTORE PUSH1 0x20 ADD PUSH1 0x0 DUP2 MSTORE PUSH1 0x20 ADD PUSH1 0x0 DUP2 MSTORE PUSH1 0x20 ADD PUSH1 0x0 DUP2 MSTORE PUSH1 0x20 ADD PUSH1 0x0 DUP2 MSTORE PUSH1 0x20 ADD PUSH1 0x0 DUP2 MSTORE PUSH1 0x20 ADD PUSH1 0x0 PUSH1 0x1 PUSH1 0x1 PUSH1 0xA0 SHL SUB AND DUP2 MSTORE PUSH1 0x20 ADD PUSH1 0x60 DUP2 MSTORE PUSH1 0x20 ADD PUSH1 0x60 DUP2 MSTORE PUSH1 0x20 ADD PUSH1 0x60 DUP2 MSTORE PUSH1 0x20 ADD PUSH1 0x60 DUP2 MSTORE PUSH1 0x20 ADD PUSH1 0x60 DUP2 MSTORE POP SWAP1 JUMP JUMPDEST DUP2 MSTORE PUSH1 0x20 ADD SWAP1 PUSH1 0x1 SWAP1 SUB SWAP1 DUP2 PUSH2 0x1427 JUMPI SWAP1 POP JUMPDEST POP SWAP1 POP PUSH1 0x0 JUMPDEST DUP3 DUP2 LT ISZERO PUSH2 0x1834 JUMPI PUSH1 0x0 PUSH2 0x14C1 DUP7 DUP4 PUSH2 0xE24 JUMP JUMPDEST PUSH1 0x0 DUP2 DUP2 MSTORE PUSH2 0x1F7 PUSH1 0x20 SWAP1 DUP2 MSTORE PUSH1 0x40 SWAP2 DUP3 SWAP1 KECCAK256 DUP3 MLOAD PUSH2 0x180 DUP2 ADD DUP5 MSTORE DUP2 SLOAD DUP2 MSTORE PUSH1 0x1 DUP3 ADD SLOAD SWAP3 DUP2 ADD SWAP3 SWAP1 SWAP3 MSTORE PUSH1 0x2 DUP2 ADD SLOAD SWAP3 DUP3 ADD SWAP3 SWAP1 SWAP3 MSTORE PUSH1 0x3 DUP3 ADD SLOAD PUSH1 0x60 DUP3 ADD MSTORE PUSH1 0x4 DUP3 ADD SLOAD PUSH1 0x80 DUP3 ADD MSTORE PUSH1 0x5 DUP3 ADD SLOAD PUSH1 0xA0 DUP3 ADD MSTORE PUSH1 0x6 DUP3 ADD SLOAD PUSH1 0x1 PUSH1 0x1 PUSH1 0xA0 SHL SUB AND PUSH1 0xC0 DUP3 ADD MSTORE PUSH1 0x7 DUP3 ADD DUP1 SLOAD SWAP4 SWAP5 POP SWAP1 SWAP3 PUSH1 0xE0 DUP5 ADD SWAP2 SWAP1 PUSH2 0x1544 SWAP1 PUSH2 0x4493 JUMP JUMPDEST DUP1 PUSH1 0x1F ADD PUSH1 0x20 DUP1 SWAP2 DIV MUL PUSH1 0x20 ADD PUSH1 0x40 MLOAD SWAP1 DUP2 ADD PUSH1 0x40 MSTORE DUP1 SWAP3 SWAP2 SWAP1 DUP2 DUP2 MSTORE PUSH1 0x20 ADD DUP3 DUP1 SLOAD PUSH2 0x1570 SWAP1 PUSH2 0x4493 JUMP JUMPDEST DUP1 ISZERO PUSH2 0x15BD JUMPI DUP1 PUSH1 0x1F LT PUSH2 0x1592 JUMPI PUSH2 0x100 DUP1 DUP4 SLOAD DIV MUL DUP4 MSTORE SWAP2 PUSH1 0x20 ADD SWAP2 PUSH2 0x15BD JUMP JUMPDEST DUP3 ADD SWAP2 SWAP1 PUSH1 0x0 MSTORE PUSH1 0x20 PUSH1 0x0 KECCAK256 SWAP1 JUMPDEST DUP2 SLOAD DUP2 MSTORE SWAP1 PUSH1 0x1 ADD SWAP1 PUSH1 0x20 ADD DUP1 DUP4 GT PUSH2 0x15A0 JUMPI DUP3 SWAP1 SUB PUSH1 0x1F AND DUP3 ADD SWAP2 JUMPDEST POP POP POP POP POP DUP2 MSTORE PUSH1 0x20 ADD PUSH1 0x8 DUP3 ADD DUP1 SLOAD PUSH2 0x15D6 SWAP1 PUSH2 0x4493 JUMP JUMPDEST DUP1 PUSH1 0x1F ADD PUSH1 0x20 DUP1 SWAP2 DIV MUL PUSH1 0x20 ADD PUSH1 0x40 MLOAD SWAP1 DUP2 ADD PUSH1 0x40 MSTORE DUP1 SWAP3 SWAP2 SWAP1 DUP2 DUP2 MSTORE PUSH1 0x20 ADD DUP3 DUP1 SLOAD PUSH2 0x1602 SWAP1 PUSH2 0x4493 JUMP JUMPDEST DUP1 ISZERO PUSH2 0x164F JUMPI DUP1 PUSH1 0x1F LT PUSH2 0x1624 JUMPI PUSH2 0x100 DUP1 DUP4 SLOAD DIV MUL DUP4 MSTORE SWAP2 PUSH1 0x20 ADD SWAP2 PUSH2 0x164F JUMP JUMPDEST DUP3 ADD SWAP2 SWAP1 PUSH1 0x0 MSTORE PUSH1 0x20 PUSH1 0x0 KECCAK256 SWAP1 JUMPDEST DUP2 SLOAD DUP2 MSTORE SWAP1 PUSH1 0x1 ADD SWAP1 PUSH1 0x20 ADD DUP1 DUP4 GT PUSH2 0x1632 JUMPI DUP3 SWAP1 SUB PUSH1 0x1F AND DUP3 ADD SWAP2 JUMPDEST POP POP POP POP POP DUP2 MSTORE PUSH1 0x20 ADD PUSH1 0x9 DUP3 ADD DUP1 SLOAD PUSH2 0x1668 SWAP1 PUSH2 0x4493 JUMP JUMPDEST DUP1 PUSH1 0x1F ADD PUSH1 0x20 DUP1 SWAP2 DIV MUL PUSH1 0x20 ADD PUSH1 0x40 MLOAD SWAP1 DUP2 ADD PUSH1 0x40 MSTORE DUP1 SWAP3 SWAP2 SWAP1 DUP2 DUP2 MSTORE PUSH1 0x20 ADD DUP3 DUP1 SLOAD PUSH2 0x1694 SWAP1 PUSH2 0x4493 JUMP JUMPDEST DUP1 ISZERO PUSH2 0x16E1 JUMPI DUP1 PUSH1 0x1F LT PUSH2 0x16B6 JUMPI PUSH2 0x100 DUP1 DUP4 SLOAD DIV MUL DUP4 MSTORE SWAP2 PUSH1 0x20 ADD SWAP2 PUSH2 0x16E1 JUMP JUMPDEST DUP3 ADD SWAP2 SWAP1 PUSH1 0x0 MSTORE PUSH1 0x20 PUSH1 0x0 KECCAK256 SWAP1 JUMPDEST DUP2 SLOAD DUP2 MSTORE SWAP1 PUSH1 0x1 ADD SWAP1 PUSH1 0x20 ADD DUP1 DUP4 GT PUSH2 0x16C4 JUMPI DUP3 SWAP1 SUB PUSH1 0x1F AND DUP3 ADD SWAP2 JUMPDEST POP POP POP POP POP DUP2 MSTORE PUSH1 0x20 ADD PUSH1 0xA DUP3 ADD DUP1 SLOAD PUSH2 0x16FA SWAP1 PUSH2 0x4493 JUMP JUMPDEST DUP1 PUSH1 0x1F ADD PUSH1 0x20 DUP1 SWAP2 DIV MUL PUSH1 0x20 ADD PUSH1 0x40 MLOAD SWAP1 DUP2 ADD PUSH1 0x40 MSTORE DUP1 SWAP3 SWAP2 SWAP1 DUP2 DUP2 MSTORE PUSH1 0x20 ADD DUP3 DUP1 SLOAD PUSH2 0x1726 SWAP1 PUSH2 0x4493 JUMP JUMPDEST DUP1 ISZERO PUSH2 0x1773 JUMPI DUP1 PUSH1 0x1F LT PUSH2 0x1748 JUMPI PUSH2 0x100 DUP1 DUP4 SLOAD DIV MUL DUP4 MSTORE SWAP2 PUSH1 0x20 ADD SWAP2 PUSH2 0x1773 JUMP JUMPDEST DUP3 ADD SWAP2 SWAP1 PUSH1 0x0 MSTORE PUSH1 0x20 PUSH1 0x0 KECCAK256 SWAP1 JUMPDEST DUP2 SLOAD DUP2 MSTORE SWAP1 PUSH1 0x1 ADD SWAP1 PUSH1 0x20 ADD DUP1 DUP4 GT PUSH2 0x1756 JUMPI DUP3 SWAP1 SUB PUSH1 0x1F AND DUP3 ADD SWAP2 JUMPDEST POP POP POP POP POP DUP2 MSTORE PUSH1 0x20 ADD PUSH1 0xB DUP3 ADD DUP1 SLOAD PUSH2 0x178C SWAP1 PUSH2 0x4493 JUMP JUMPDEST DUP1 PUSH1 0x1F ADD PUSH1 0x20 DUP1 SWAP2 DIV MUL PUSH1 0x20 ADD PUSH1 0x40 MLOAD SWAP1 DUP2 ADD PUSH1 0x40 MSTORE DUP1 SWAP3 SWAP2 SWAP1 DUP2 DUP2 MSTORE PUSH1 0x20 ADD DUP3 DUP1 SLOAD PUSH2 0x17B8 SWAP1 PUSH2 0x4493 JUMP JUMPDEST DUP1 ISZERO PUSH2 0x1805 JUMPI DUP1 PUSH1 0x1F LT PUSH2 0x17DA JUMPI PUSH2 0x100 DUP1 DUP4 SLOAD DIV MUL DUP4 MSTORE SWAP2 PUSH1 0x20 ADD SWAP2 PUSH2 0x1805 JUMP JUMPDEST DUP3 ADD SWAP2 SWAP1 PUSH1 0x0 MSTORE PUSH1 0x20 PUSH1 0x0 KECCAK256 SWAP1 JUMPDEST DUP2 SLOAD DUP2 MSTORE SWAP1 PUSH1 0x1 ADD SWAP1 PUSH1 0x20 ADD DUP1 DUP4 GT PUSH2 0x17E8 JUMPI DUP3 SWAP1 SUB PUSH1 0x1F AND DUP3 ADD SWAP2 JUMPDEST POP POP POP POP POP DUP2 MSTORE POP POP DUP4 DUP4 DUP2 MLOAD DUP2 LT PUSH2 0x1820 JUMPI PUSH2 0x1820 PUSH2 0x468E JUMP JUMPDEST PUSH1 0x20 SWAP1 DUP2 MUL SWAP2 SWAP1 SWAP2 ADD ADD MSTORE POP PUSH1 0x1 ADD PUSH2 0x14AD JUMP JUMPDEST POP SWAP4 SWAP3 POP POP POP JUMP JUMPDEST PUSH1 0x0 PUSH2 0x77E DUP3 PUSH1 0x40 MLOAD DUP1 PUSH1 0x60 ADD PUSH1 0x40 MSTORE DUP1 PUSH1 0x29 DUP2 MSTORE PUSH1 0x20 ADD PUSH2 0x47DC PUSH1 0x29 SWAP2 CODECOPY PUSH2 0x1F9 SWAP2 SWAP1 PUSH2 0x2AB6 JUMP JUMPDEST PUSH1 0x0 PUSH1 0x1 PUSH1 0x1 PUSH1 0xA0 SHL SUB DUP3 AND PUSH2 0x18E3 JUMPI PUSH1 0x40 MLOAD PUSH3 0x461BCD PUSH1 0xE5 SHL DUP2 MSTORE PUSH1 0x20 PUSH1 0x4 DUP3 ADD MSTORE PUSH1 0x2A PUSH1 0x24 DUP3 ADD MSTORE PUSH32 0x4552433732313A2062616C616E636520717565727920666F7220746865207A65 PUSH1 0x44 DUP3 ADD MSTORE PUSH32 0x726F206164647265737300000000000000000000000000000000000000000000 PUSH1 0x64 DUP3 ADD MSTORE PUSH1 0x84 ADD PUSH2 0x8B1 JUMP JUMPDEST PUSH1 0x1 PUSH1 0x1 PUSH1 0xA0 SHL SUB DUP3 AND PUSH1 0x0 SWAP1 DUP2 MSTORE PUSH2 0x1F8 PUSH1 0x20 MSTORE PUSH1 0x40 SWAP1 KECCAK256 PUSH2 0x77E SWAP1 PUSH2 0x2AC3 JUMP JUMPDEST PUSH2 0x190D PUSH2 0x2A0A JUMP JUMPDEST PUSH2 0x1058 PUSH1 0x0 PUSH2 0x2ACD JUMP JUMPDEST PUSH2 0x191F PUSH2 0x2A0A JUMP JUMPDEST PUSH2 0x1927 PUSH2 0x2B1F JUMP JUMPDEST PUSH2 0x1930 DUP2 PUSH2 0x283A JUMP JUMPDEST ISZERO PUSH2 0x197D JUMPI PUSH1 0x40 MLOAD PUSH3 0x461BCD PUSH1 0xE5 SHL DUP2 MSTORE PUSH1 0x20 PUSH1 0x4 DUP3 ADD DUP2 SWAP1 MSTORE PUSH1 0x24 DUP3 ADD MSTORE PUSH32 0x4552433732313A2070766E20746F6B656E20616C7265616479206D696E746564 PUSH1 0x44 DUP3 ADD MSTORE PUSH1 0x64 ADD PUSH2 0x8B1 JUMP JUMPDEST PUSH1 0x1 PUSH1 0x1 PUSH1 0xA0 SHL SUB DUP4 AND PUSH2 0x19D3 JUMPI PUSH1 0x40 MLOAD PUSH3 0x461BCD PUSH1 0xE5 SHL DUP2 MSTORE PUSH1 0x20 PUSH1 0x4 DUP3 ADD MSTORE PUSH1 0x17 PUSH1 0x24 DUP3 ADD MSTORE PUSH32 0x4552433732313A20696E76616C69642061646472657373000000000000000000 PUSH1 0x44 DUP3 ADD MSTORE PUSH1 0x64 ADD PUSH2 0x8B1 JUMP JUMPDEST ADDRESS PUSH1 0x1 PUSH1 0x1 PUSH1 0xA0 SHL SUB DUP5 AND SUB PUSH2 0x1A2B JUMPI PUSH1 0x40 MLOAD PUSH3 0x461BCD PUSH1 0xE5 SHL DUP2 MSTORE PUSH1 0x20 PUSH1 0x4 DUP3 ADD MSTORE PUSH1 0x17 PUSH1 0x24 DUP3 ADD MSTORE PUSH32 0x4552433732313A20696E76616C69642061646472657373000000000000000000 PUSH1 0x44 DUP3 ADD MSTORE PUSH1 0x64 ADD PUSH2 0x8B1 JUMP JUMPDEST PUSH2 0x1A3A PUSH2 0x1F6 DUP1 SLOAD PUSH1 0x1 ADD SWAP1 SSTORE JUMP JUMPDEST PUSH1 0x0 PUSH2 0x1A46 PUSH2 0x1F6 SLOAD SWAP1 JUMP JUMPDEST SWAP1 POP PUSH2 0x1A52 DUP5 DUP4 PUSH2 0x2B7A JUMP JUMPDEST PUSH2 0x1A5C DUP3 DUP13 PUSH2 0x2B94 JUMP JUMPDEST PUSH2 0x1A66 DUP5 DUP3 PUSH2 0x2C36 JUMP JUMPDEST PUSH2 0x1A70 DUP5 DUP3 PUSH2 0x2C43 JUMP JUMPDEST PUSH2 0x1A87 DUP2 DUP4 PUSH1 0x0 SWAP1 DUP2 MSTORE PUSH2 0x1FC PUSH1 0x20 MSTORE PUSH1 0x40 SWAP1 KECCAK256 SSTORE JUMP JUMPDEST PUSH2 0x1A9B DUP13 DUP13 DUP13 DUP13 DUP13 DUP13 DUP13 DUP13 DUP13 DUP13 DUP13 DUP13 PUSH2 0x2C66 JUMP JUMPDEST DUP2 DUP2 PUSH32 0x30B042F6D29A39B7C10C2DFBD81016DB37EA3D11E72EC5764FB0D0F7A1012A3A DUP14 PUSH1 0x40 MLOAD PUSH2 0x1ACC SWAP2 SWAP1 PUSH2 0x3F33 JUMP JUMPDEST PUSH1 0x40 MLOAD DUP1 SWAP2 SUB SWAP1 LOG3 POP PUSH2 0x1AE0 PUSH1 0x1 PUSH2 0x1C3 SSTORE JUMP JUMPDEST POP POP POP POP POP POP POP POP POP POP POP JUMP JUMPDEST PUSH2 0x1AF5 PUSH2 0x2A0A JUMP JUMPDEST PUSH2 0x1058 PUSH2 0x2F24 JUMP JUMPDEST PUSH1 0x0 PUSH2 0x1B07 PUSH2 0x2A0A JUMP JUMPDEST PUSH1 0x0 DUP3 GT PUSH2 0x1B62 JUMPI PUSH1 0x40 MLOAD PUSH3 0x461BCD PUSH1 0xE5 SHL DUP2 MSTORE PUSH1 0x20 PUSH1 0x4 DUP3 ADD MSTORE PUSH1 0x22 PUSH1 0x24 DUP3 ADD MSTORE PUSH32 0x506C6F74205072696365206D7573742062652067726561746572207468616E20 PUSH1 0x44 DUP3 ADD MSTORE PUSH2 0x1817 PUSH1 0xF1 SHL PUSH1 0x64 DUP3 ADD MSTORE PUSH1 0x84 ADD PUSH2 0x8B1 JUMP JUMPDEST CALLER PUSH2 0x1BAF JUMPI PUSH1 0x40 MLOAD PUSH3 0x461BCD PUSH1 0xE5 SHL DUP2 MSTORE PUSH1 0x20 PUSH1 0x4 DUP3 ADD MSTORE PUSH1 0x17 PUSH1 0x24 DUP3 ADD MSTORE PUSH32 0x4552433732313A20696E76616C69642061646472657373000000000000000000 PUSH1 0x44 DUP3 ADD MSTORE PUSH1 0x64 ADD PUSH2 0x8B1 JUMP JUMPDEST PUSH2 0x1BB8 DUP4 PUSH2 0x283A JUMP JUMPDEST PUSH2 0x1C2A JUMPI PUSH1 0x40 MLOAD PUSH3 0x461BCD PUSH1 0xE5 SHL DUP2 MSTORE PUSH1 0x20 PUSH1 0x4 DUP3 ADD MSTORE PUSH1 0x33 PUSH1 0x24 DUP3 ADD MSTORE PUSH32 0x4552433732313A2070766E20746F6B656E20646F6573206E6F74206578697374 PUSH1 0x44 DUP3 ADD MSTORE PUSH32 0x206F72206E6F74206265656E206D696E74656400000000000000000000000000 PUSH1 0x64 DUP3 ADD MSTORE PUSH1 0x84 ADD PUSH2 0x8B1 JUMP JUMPDEST PUSH1 0x0 DUP4 DUP2 MSTORE PUSH2 0x1FC PUSH1 0x20 SWAP1 DUP2 MSTORE PUSH1 0x40 DUP1 DUP4 KECCAK256 SLOAD DUP1 DUP5 MSTORE PUSH2 0x1F7 DUP4 MSTORE SWAP3 DUP2 SWAP1 KECCAK256 PUSH1 0x1 ADD DUP6 SWAP1 SSTORE DUP1 MLOAD CALLER DUP2 MSTORE SWAP2 DUP3 ADD DUP7 SWAP1 MSTORE DUP2 DUP2 ADD DUP6 SWAP1 MSTORE MLOAD PUSH32 0x598B48A1AAD5D72FCEDBC7ED6AAC08AD920501EEDCA72D3DACE23490F11F7812 SWAP2 DUP2 SWAP1 SUB PUSH1 0x60 ADD SWAP1 LOG1 POP PUSH1 0x1 SWAP4 SWAP3 POP POP POP JUMP JUMPDEST PUSH1 0x60 PUSH1 0x0 PUSH2 0x1CA3 PUSH2 0x1F6 SLOAD SWAP1 JUMP JUMPDEST SWAP1 POP PUSH1 0x0 DUP2 PUSH8 0xFFFFFFFFFFFFFFFF DUP2 GT ISZERO PUSH2 0x1CC0 JUMPI PUSH2 0x1CC0 PUSH2 0x40F5 JUMP JUMPDEST PUSH1 0x40 MLOAD SWAP1 DUP1 DUP3 MSTORE DUP1 PUSH1 0x20 MUL PUSH1 0x20 ADD DUP3 ADD PUSH1 0x40 MSTORE DUP1 ISZERO PUSH2 0x1D5E JUMPI DUP2 PUSH1 0x20 ADD JUMPDEST PUSH2 0x1D4B PUSH1 0x40 MLOAD DUP1 PUSH2 0x180 ADD PUSH1 0x40 MSTORE DUP1 PUSH1 0x0 DUP2 MSTORE PUSH1 0x20 ADD PUSH1 0x0 DUP2 MSTORE PUSH1 0x20 ADD PUSH1 0x0 DUP2 MSTORE PUSH1 0x20 ADD PUSH1 0x0 DUP2 MSTORE PUSH1 0x20 ADD PUSH1 0x0 DUP2 MSTORE PUSH1 0x20 ADD PUSH1 0x0 DUP2 MSTORE PUSH1 0x20 ADD PUSH1 0x0 PUSH1 0x1 PUSH1 0x1 PUSH1 0xA0 SHL SUB AND DUP2 MSTORE PUSH1 0x20 ADD PUSH1 0x60 DUP2 MSTORE PUSH1 0x20 ADD PUSH1 0x60 DUP2 MSTORE PUSH1 0x20 ADD PUSH1 0x60 DUP2 MSTORE PUSH1 0x20 ADD PUSH1 0x60 DUP2 MSTORE PUSH1 0x20 ADD PUSH1 0x60 DUP2 MSTORE POP SWAP1 JUMP JUMPDEST DUP2 MSTORE PUSH1 0x20 ADD SWAP1 PUSH1 0x1 SWAP1 SUB SWAP1 DUP2 PUSH2 0x1CDE JUMPI SWAP1 POP JUMPDEST POP SWAP1 POP PUSH1 0x0 JUMPDEST DUP3 DUP2 LT ISZERO PUSH2 0x20EA JUMPI PUSH1 0x0 PUSH2 0x1D77 DUP3 PUSH2 0x124C JUMP JUMPDEST PUSH1 0x0 DUP2 DUP2 MSTORE PUSH2 0x1F7 PUSH1 0x20 SWAP1 DUP2 MSTORE PUSH1 0x40 SWAP2 DUP3 SWAP1 KECCAK256 DUP3 MLOAD PUSH2 0x180 DUP2 ADD DUP5 MSTORE DUP2 SLOAD DUP2 MSTORE PUSH1 0x1 DUP3 ADD SLOAD SWAP3 DUP2 ADD SWAP3 SWAP1 SWAP3 MSTORE PUSH1 0x2 DUP2 ADD SLOAD SWAP3 DUP3 ADD SWAP3 SWAP1 SWAP3 MSTORE PUSH1 0x3 DUP3 ADD SLOAD PUSH1 0x60 DUP3 ADD MSTORE PUSH1 0x4 DUP3 ADD SLOAD PUSH1 0x80 DUP3 ADD MSTORE PUSH1 0x5 DUP3 ADD SLOAD PUSH1 0xA0 DUP3 ADD MSTORE PUSH1 0x6 DUP3 ADD SLOAD PUSH1 0x1 PUSH1 0x1 PUSH1 0xA0 SHL SUB AND PUSH1 0xC0 DUP3 ADD MSTORE PUSH1 0x7 DUP3 ADD DUP1 SLOAD SWAP4 SWAP5 POP SWAP1 SWAP3 PUSH1 0xE0 DUP5 ADD SWAP2 SWAP1 PUSH2 0x1DFA SWAP1 PUSH2 0x4493 JUMP JUMPDEST DUP1 PUSH1 0x1F ADD PUSH1 0x20 DUP1 SWAP2 DIV MUL PUSH1 0x20 ADD PUSH1 0x40 MLOAD SWAP1 DUP2 ADD PUSH1 0x40 MSTORE DUP1 SWAP3 SWAP2 SWAP1 DUP2 DUP2 MSTORE PUSH1 0x20 ADD DUP3 DUP1 SLOAD PUSH2 0x1E26 SWAP1 PUSH2 0x4493 JUMP JUMPDEST DUP1 ISZERO PUSH2 0x1E73 JUMPI DUP1 PUSH1 0x1F LT PUSH2 0x1E48 JUMPI PUSH2 0x100 DUP1 DUP4 SLOAD DIV MUL DUP4 MSTORE SWAP2 PUSH1 0x20 ADD SWAP2 PUSH2 0x1E73 JUMP JUMPDEST DUP3 ADD SWAP2 SWAP1 PUSH1 0x0 MSTORE PUSH1 0x20 PUSH1 0x0 KECCAK256 SWAP1 JUMPDEST DUP2 SLOAD DUP2 MSTORE SWAP1 PUSH1 0x1 ADD SWAP1 PUSH1 0x20 ADD DUP1 DUP4 GT PUSH2 0x1E56 JUMPI DUP3 SWAP1 SUB PUSH1 0x1F AND DUP3 ADD SWAP2 JUMPDEST POP POP POP POP POP DUP2 MSTORE PUSH1 0x20 ADD PUSH1 0x8 DUP3 ADD DUP1 SLOAD PUSH2 0x1E8C SWAP1 PUSH2 0x4493 JUMP JUMPDEST DUP1 PUSH1 0x1F ADD PUSH1 0x20 DUP1 SWAP2 DIV MUL PUSH1 0x20 ADD PUSH1 0x40 MLOAD SWAP1 DUP2 ADD PUSH1 0x40 MSTORE DUP1 SWAP3 SWAP2 SWAP1 DUP2 DUP2 MSTORE PUSH1 0x20 ADD DUP3 DUP1 SLOAD PUSH2 0x1EB8 SWAP1 PUSH2 0x4493 JUMP JUMPDEST DUP1 ISZERO PUSH2 0x1F05 JUMPI DUP1 PUSH1 0x1F LT PUSH2 0x1EDA JUMPI PUSH2 0x100 DUP1 DUP4 SLOAD DIV MUL DUP4 MSTORE SWAP2 PUSH1 0x20 ADD SWAP2 PUSH2 0x1F05 JUMP JUMPDEST DUP3 ADD SWAP2 SWAP1 PUSH1 0x0 MSTORE PUSH1 0x20 PUSH1 0x0 KECCAK256 SWAP1 JUMPDEST DUP2 SLOAD DUP2 MSTORE SWAP1 PUSH1 0x1 ADD SWAP1 PUSH1 0x20 ADD DUP1 DUP4 GT PUSH2 0x1EE8 JUMPI DUP3 SWAP1 SUB PUSH1 0x1F AND DUP3 ADD SWAP2 JUMPDEST POP POP POP POP POP DUP2 MSTORE PUSH1 0x20 ADD PUSH1 0x9 DUP3 ADD DUP1 SLOAD PUSH2 0x1F1E SWAP1 PUSH2 0x4493 JUMP JUMPDEST DUP1 PUSH1 0x1F ADD PUSH1 0x20 DUP1 SWAP2 DIV MUL PUSH1 0x20 ADD PUSH1 0x40 MLOAD SWAP1 DUP2 ADD PUSH1 0x40 MSTORE DUP1 SWAP3 SWAP2 SWAP1 DUP2 DUP2 MSTORE PUSH1 0x20 ADD DUP3 DUP1 SLOAD PUSH2 0x1F4A SWAP1 PUSH2 0x4493 JUMP JUMPDEST DUP1 ISZERO PUSH2 0x1F97 JUMPI DUP1 PUSH1 0x1F LT PUSH2 0x1F6C JUMPI PUSH2 0x100 DUP1 DUP4 SLOAD DIV MUL DUP4 MSTORE SWAP2 PUSH1 0x20 ADD SWAP2 PUSH2 0x1F97 JUMP JUMPDEST DUP3 ADD SWAP2 SWAP1 PUSH1 0x0 MSTORE PUSH1 0x20 PUSH1 0x0 KECCAK256 SWAP1 JUMPDEST DUP2 SLOAD DUP2 MSTORE SWAP1 PUSH1 0x1 ADD SWAP1 PUSH1 0x20 ADD DUP1 DUP4 GT PUSH2 0x1F7A JUMPI DUP3 SWAP1 SUB PUSH1 0x1F AND DUP3 ADD SWAP2 JUMPDEST POP POP POP POP POP DUP2 MSTORE PUSH1 0x20 ADD PUSH1 0xA DUP3 ADD DUP1 SLOAD PUSH2 0x1FB0 SWAP1 PUSH2 0x4493 JUMP JUMPDEST DUP1 PUSH1 0x1F ADD PUSH1 0x20 DUP1 SWAP2 DIV MUL PUSH1 0x20 ADD PUSH1 0x40 MLOAD SWAP1 DUP2 ADD PUSH1 0x40 MSTORE DUP1 SWAP3 SWAP2 SWAP1 DUP2 DUP2 MSTORE PUSH1 0x20 ADD DUP3 DUP1 SLOAD PUSH2 0x1FDC SWAP1 PUSH2 0x4493 JUMP JUMPDEST DUP1 ISZERO PUSH2 0x2029 JUMPI DUP1 PUSH1 0x1F LT PUSH2 0x1FFE JUMPI PUSH2 0x100 DUP1 DUP4 SLOAD DIV MUL DUP4 MSTORE SWAP2 PUSH1 0x20 ADD SWAP2 PUSH2 0x2029 JUMP JUMPDEST DUP3 ADD SWAP2 SWAP1 PUSH1 0x0 MSTORE PUSH1 0x20 PUSH1 0x0 KECCAK256 SWAP1 JUMPDEST DUP2 SLOAD DUP2 MSTORE SWAP1 PUSH1 0x1 ADD SWAP1 PUSH1 0x20 ADD DUP1 DUP4 GT PUSH2 0x200C JUMPI DUP3 SWAP1 SUB PUSH1 0x1F AND DUP3 ADD SWAP2 JUMPDEST POP POP POP POP POP DUP2 MSTORE PUSH1 0x20 ADD PUSH1 0xB DUP3 ADD DUP1 SLOAD PUSH2 0x2042 SWAP1 PUSH2 0x4493 JUMP JUMPDEST DUP1 PUSH1 0x1F ADD PUSH1 0x20 DUP1 SWAP2 DIV MUL PUSH1 0x20 ADD PUSH1 0x40 MLOAD SWAP1 DUP2 ADD PUSH1 0x40 MSTORE DUP1 SWAP3 SWAP2 SWAP1 DUP2 DUP2 MSTORE PUSH1 0x20 ADD DUP3 DUP1 SLOAD PUSH2 0x206E SWAP1 PUSH2 0x4493 JUMP JUMPDEST DUP1 ISZERO PUSH2 0x20BB JUMPI DUP1 PUSH1 0x1F LT PUSH2 0x2090 JUMPI PUSH2 0x100 DUP1 DUP4 SLOAD DIV MUL DUP4 MSTORE SWAP2 PUSH1 0x20 ADD SWAP2 PUSH2 0x20BB JUMP JUMPDEST DUP3 ADD SWAP2 SWAP1 PUSH1 0x0 MSTORE PUSH1 0x20 PUSH1 0x0 KECCAK256 SWAP1 JUMPDEST DUP2 SLOAD DUP2 MSTORE SWAP1 PUSH1 0x1 ADD SWAP1 PUSH1 0x20 ADD DUP1 DUP4 GT PUSH2 0x209E JUMPI DUP3 SWAP1 SUB PUSH1 0x1F AND DUP3 ADD SWAP2 JUMPDEST POP POP POP POP POP DUP2 MSTORE POP POP DUP4 DUP4 DUP2 MLOAD DUP2 LT PUSH2 0x20D6 JUMPI PUSH2 0x20D6 PUSH2 0x468E JUMP JUMPDEST PUSH1 0x20 SWAP1 DUP2 MUL SWAP2 SWAP1 SWAP2 ADD ADD MSTORE POP PUSH1 0x1 ADD PUSH2 0x1D64 JUMP JUMPDEST POP SWAP3 SWAP2 POP POP JUMP JUMPDEST PUSH1 0x60 PUSH1 0x66 DUP1 SLOAD PUSH2 0x793 SWAP1 PUSH2 0x4493 JUMP JUMPDEST PUSH2 0x1248 CALLER DUP4 DUP4 PUSH2 0x2F61 JUMP JUMPDEST PUSH2 0x2115 CALLER DUP4 PUSH2 0x25DC JUMP JUMPDEST PUSH2 0x2177 JUMPI PUSH1 0x40 MLOAD PUSH3 0x461BCD PUSH1 0xE5 SHL DUP2 MSTORE PUSH1 0x20 PUSH1 0x4 DUP3 ADD MSTORE PUSH1 0x2D PUSH1 0x24 DUP3 ADD MSTORE PUSH32 0x4552433732313A2063616C6C6572206973206E6F7420746F6B656E206F776E65 PUSH1 0x44 DUP3 ADD MSTORE PUSH13 0x1C881BDC88185C1C1C9BDD9959 PUSH1 0x9A SHL PUSH1 0x64 DUP3 ADD MSTORE PUSH1 0x84 ADD PUSH2 0x8B1 JUMP JUMPDEST PUSH2 0x2183 DUP5 DUP5 DUP5 DUP5 PUSH2 0x302F JUMP JUMPDEST POP POP POP POP JUMP JUMPDEST PUSH1 0x0 DUP1 PUSH2 0x77E PUSH2 0x957 JUMP JUMPDEST PUSH1 0x0 CALLER PUSH2 0x21A0 JUMPI PUSH1 0x0 DUP1 REVERT JUMPDEST PUSH1 0x0 PUSH2 0xEC6 DUP4 PUSH2 0x1865 JUMP JUMPDEST PUSH1 0x0 DUP2 DUP2 MSTORE PUSH1 0x67 PUSH1 0x20 MSTORE PUSH1 0x40 SWAP1 KECCAK256 SLOAD PUSH1 0x60 SWAP1 PUSH1 0x1 PUSH1 0x1 PUSH1 0xA0 SHL SUB AND PUSH2 0x2238 JUMPI PUSH1 0x40 MLOAD PUSH3 0x461BCD PUSH1 0xE5 SHL DUP2 MSTORE PUSH1 0x20 PUSH1 0x4 DUP3 ADD MSTORE PUSH1 0x31 PUSH1 0x24 DUP3 ADD MSTORE PUSH32 0x45524337323155524953746F726167653A2055524920717565727920666F7220 PUSH1 0x44 DUP3 ADD MSTORE PUSH32 0x6E6F6E6578697374656E7420746F6B656E000000000000000000000000000000 PUSH1 0x64 DUP3 ADD MSTORE PUSH1 0x84 ADD PUSH2 0x8B1 JUMP JUMPDEST PUSH2 0x77E DUP3 PUSH2 0x30AD JUMP JUMPDEST PUSH1 0x0 DUP2 DUP2 MSTORE PUSH2 0x1FC PUSH1 0x20 MSTORE PUSH1 0x40 DUP2 KECCAK256 SLOAD PUSH1 0x0 PUSH2 0x225C DUP3 PUSH2 0x183C JUMP JUMPDEST SWAP5 SWAP4 POP POP POP POP JUMP JUMPDEST PUSH2 0x226C PUSH2 0x2A0A JUMP JUMPDEST PUSH1 0x1 PUSH1 0x1 PUSH1 0xA0 SHL SUB DUP2 AND PUSH2 0x22E8 JUMPI PUSH1 0x40 MLOAD PUSH3 0x461BCD PUSH1 0xE5 SHL DUP2 MSTORE PUSH1 0x20 PUSH1 0x4 DUP3 ADD MSTORE PUSH1 0x26 PUSH1 0x24 DUP3 ADD MSTORE PUSH32 0x4F776E61626C653A206E6577206F776E657220697320746865207A65726F2061 PUSH1 0x44 DUP3 ADD MSTORE PUSH32 0x6464726573730000000000000000000000000000000000000000000000000000 PUSH1 0x64 DUP3 ADD MSTORE PUSH1 0x84 ADD PUSH2 0x8B1 JUMP JUMPDEST PUSH2 0x1045 DUP2 PUSH2 0x2ACD JUMP JUMPDEST PUSH1 0x0 SLOAD PUSH2 0x100 SWAP1 DIV PUSH1 0xFF AND ISZERO DUP1 DUP1 ISZERO PUSH2 0x2311 JUMPI POP PUSH1 0x0 SLOAD PUSH1 0x1 PUSH1 0xFF SWAP1 SWAP2 AND LT JUMPDEST DUP1 PUSH2 0x232B JUMPI POP ADDRESS EXTCODESIZE ISZERO DUP1 ISZERO PUSH2 0x232B JUMPI POP PUSH1 0x0 SLOAD PUSH1 0xFF AND PUSH1 0x1 EQ JUMPDEST PUSH2 0x239D JUMPI PUSH1 0x40 MLOAD PUSH3 0x461BCD PUSH1 0xE5 SHL DUP2 MSTORE PUSH1 0x20 PUSH1 0x4 DUP3 ADD MSTORE PUSH1 0x2E PUSH1 0x24 DUP3 ADD MSTORE PUSH32 0x496E697469616C697A61626C653A20636F6E747261637420697320616C726561 PUSH1 0x44 DUP3 ADD MSTORE PUSH32 0x647920696E697469616C697A6564000000000000000000000000000000000000 PUSH1 0x64 DUP3 ADD MSTORE PUSH1 0x84 ADD PUSH2 0x8B1 JUMP JUMPDEST PUSH1 0x0 DUP1 SLOAD PUSH1 0xFF NOT AND PUSH1 0x1 OR SWAP1 SSTORE DUP1 ISZERO PUSH2 0x23C0 JUMPI PUSH1 0x0 DUP1 SLOAD PUSH2 0xFF00 NOT AND PUSH2 0x100 OR SWAP1 SSTORE JUMPDEST PUSH2 0x241B PUSH1 0x40 MLOAD DUP1 PUSH1 0x40 ADD PUSH1 0x40 MSTORE DUP1 PUSH1 0xC DUP2 MSTORE PUSH1 0x20 ADD PUSH32 0x537974656D617020436F696E0000000000000000000000000000000000000000 DUP2 MSTORE POP PUSH1 0x40 MLOAD DUP1 PUSH1 0x40 ADD PUSH1 0x40 MSTORE DUP1 PUSH1 0x4 DUP2 MSTORE PUSH1 0x20 ADD PUSH4 0x53545945 PUSH1 0xE0 SHL DUP2 MSTORE POP PUSH2 0x31A8 JUMP JUMPDEST PUSH2 0x2423 PUSH2 0x320B JUMP JUMPDEST PUSH2 0x242B PUSH2 0x3264 JUMP JUMPDEST PUSH2 0x2433 PUSH2 0x32C5 JUMP JUMPDEST PUSH2 0x243B PUSH2 0x320B JUMP JUMPDEST PUSH2 0x2443 PUSH2 0x320B JUMP JUMPDEST PUSH2 0x244B PUSH2 0x320B JUMP JUMPDEST PUSH2 0x2453 PUSH2 0x3326 JUMP JUMPDEST PUSH2 0x245C DUP3 PUSH2 0x1374 JUMP JUMPDEST DUP1 ISZERO PUSH2 0x1248 JUMPI PUSH1 0x0 DUP1 SLOAD PUSH2 0xFF00 NOT AND SWAP1 SSTORE PUSH1 0x40 MLOAD PUSH1 0x1 DUP2 MSTORE PUSH32 0x7F26B83FF96E1F2B6A682F133852F6798A09C465DA95921460CEFB3847402498 SWAP1 PUSH1 0x20 ADD PUSH1 0x40 MLOAD DUP1 SWAP2 SUB SWAP1 LOG1 POP POP JUMP JUMPDEST PUSH1 0x0 DUP2 DUP2 MSTORE PUSH1 0x67 PUSH1 0x20 MSTORE PUSH1 0x40 SWAP1 KECCAK256 SLOAD PUSH1 0x1 PUSH1 0x1 PUSH1 0xA0 SHL SUB AND PUSH2 0x1045 JUMPI PUSH1 0x40 MLOAD PUSH3 0x461BCD PUSH1 0xE5 SHL DUP2 MSTORE PUSH1 0x20 PUSH1 0x4 DUP3 ADD MSTORE PUSH1 0x18 PUSH1 0x24 DUP3 ADD MSTORE PUSH32 0x4552433732313A20696E76616C696420746F6B656E2049440000000000000000 PUSH1 0x44 DUP3 ADD MSTORE PUSH1 0x64 ADD PUSH2 0x8B1 JUMP JUMPDEST PUSH1 0x0 DUP2 DUP2 MSTORE PUSH1 0x67 PUSH1 0x20 MSTORE PUSH1 0x40 DUP2 KECCAK256 SLOAD PUSH1 0x1 PUSH1 0x1 PUSH1 0xA0 SHL SUB AND DUP1 PUSH2 0x77E JUMPI PUSH1 0x40 MLOAD PUSH3 0x461BCD PUSH1 0xE5 SHL DUP2 MSTORE PUSH1 0x20 PUSH1 0x4 DUP3 ADD MSTORE PUSH1 0x18 PUSH1 0x24 DUP3 ADD MSTORE PUSH32 0x4552433732313A20696E76616C696420746F6B656E2049440000000000000000 PUSH1 0x44 DUP3 ADD MSTORE PUSH1 0x64 ADD PUSH2 0x8B1 JUMP JUMPDEST PUSH1 0x0 DUP2 DUP2 MSTORE PUSH1 0x69 PUSH1 0x20 MSTORE PUSH1 0x40 SWAP1 KECCAK256 DUP1 SLOAD PUSH1 0x1 PUSH1 0x1 PUSH1 0xA0 SHL SUB NOT AND PUSH1 0x1 PUSH1 0x1 PUSH1 0xA0 SHL SUB DUP5 AND SWAP1 DUP2 OR SWAP1 SWAP2 SSTORE DUP2 SWAP1 PUSH2 0x25A3 DUP3 PUSH2 0x2509 JUMP JUMPDEST PUSH1 0x1 PUSH1 0x1 PUSH1 0xA0 SHL SUB AND PUSH32 0x8C5BE1E5EBEC7D5BD14F71427D1E84F3DD0314C0F7B2291E5B200AC8C7C3B925 PUSH1 0x40 MLOAD PUSH1 0x40 MLOAD DUP1 SWAP2 SUB SWAP1 LOG4 POP POP JUMP JUMPDEST PUSH1 0x0 DUP1 PUSH2 0x25E8 DUP4 PUSH2 0x2509 JUMP JUMPDEST SWAP1 POP DUP1 PUSH1 0x1 PUSH1 0x1 PUSH1 0xA0 SHL SUB AND DUP5 PUSH1 0x1 PUSH1 0x1 PUSH1 0xA0 SHL SUB AND EQ DUP1 PUSH2 0x262F JUMPI POP PUSH1 0x1 PUSH1 0x1 PUSH1 0xA0 SHL SUB DUP1 DUP3 AND PUSH1 0x0 SWAP1 DUP2 MSTORE PUSH1 0x6A PUSH1 0x20 SWAP1 DUP2 MSTORE PUSH1 0x40 DUP1 DUP4 KECCAK256 SWAP4 DUP9 AND DUP4 MSTORE SWAP3 SWAP1 MSTORE KECCAK256 SLOAD PUSH1 0xFF AND JUMPDEST DUP1 PUSH2 0x225C JUMPI POP DUP4 PUSH1 0x1 PUSH1 0x1 PUSH1 0xA0 SHL SUB AND PUSH2 0x2648 DUP5 PUSH2 0x816 JUMP JUMPDEST PUSH1 0x1 PUSH1 0x1 PUSH1 0xA0 SHL SUB AND EQ SWAP5 SWAP4 POP POP POP POP JUMP JUMPDEST DUP3 PUSH1 0x1 PUSH1 0x1 PUSH1 0xA0 SHL SUB AND PUSH2 0x266D DUP3 PUSH2 0x2509 JUMP JUMPDEST PUSH1 0x1 PUSH1 0x1 PUSH1 0xA0 SHL SUB AND EQ PUSH2 0x26D1 JUMPI PUSH1 0x40 MLOAD PUSH3 0x461BCD PUSH1 0xE5 SHL DUP2 MSTORE PUSH1 0x20 PUSH1 0x4 DUP3 ADD MSTORE PUSH1 0x25 PUSH1 0x24 DUP3 ADD MSTORE PUSH32 0x4552433732313A207472616E736665722066726F6D20696E636F727265637420 PUSH1 0x44 DUP3 ADD MSTORE PUSH5 0x37BBB732B9 PUSH1 0xD9 SHL PUSH1 0x64 DUP3 ADD MSTORE PUSH1 0x84 ADD PUSH2 0x8B1 JUMP JUMPDEST PUSH1 0x1 PUSH1 0x1 PUSH1 0xA0 SHL SUB DUP3 AND PUSH2 0x2733 JUMPI PUSH1 0x40 MLOAD PUSH3 0x461BCD PUSH1 0xE5 SHL DUP2 MSTORE PUSH1 0x20 PUSH1 0x4 DUP3 ADD MSTORE PUSH1 0x24 DUP1 DUP3 ADD MSTORE PUSH32 0x4552433732313A207472616E7366657220746F20746865207A65726F20616464 PUSH1 0x44 DUP3 ADD MSTORE PUSH4 0x72657373 PUSH1 0xE0 SHL PUSH1 0x64 DUP3 ADD MSTORE PUSH1 0x84 ADD PUSH2 0x8B1 JUMP JUMPDEST DUP3 PUSH1 0x1 PUSH1 0x1 PUSH1 0xA0 SHL SUB AND PUSH2 0x2746 DUP3 PUSH2 0x2509 JUMP JUMPDEST PUSH1 0x1 PUSH1 0x1 PUSH1 0xA0 SHL SUB AND EQ PUSH2 0x27AA JUMPI PUSH1 0x40 MLOAD PUSH3 0x461BCD PUSH1 0xE5 SHL DUP2 MSTORE PUSH1 0x20 PUSH1 0x4 DUP3 ADD MSTORE PUSH1 0x25 PUSH1 0x24 DUP3 ADD MSTORE PUSH32 0x4552433732313A207472616E736665722066726F6D20696E636F727265637420 PUSH1 0x44 DUP3 ADD MSTORE PUSH5 0x37BBB732B9 PUSH1 0xD9 SHL PUSH1 0x64 DUP3 ADD MSTORE PUSH1 0x84 ADD PUSH2 0x8B1 JUMP JUMPDEST PUSH1 0x0 DUP2 DUP2 MSTORE PUSH1 0x69 PUSH1 0x20 SWAP1 DUP2 MSTORE PUSH1 0x40 DUP1 DUP4 KECCAK256 DUP1 SLOAD PUSH1 0x1 PUSH1 0x1 PUSH1 0xA0 SHL SUB NOT SWAP1 DUP2 AND SWAP1 SWAP2 SSTORE PUSH1 0x1 PUSH1 0x1 PUSH1 0xA0 SHL SUB DUP8 DUP2 AND DUP1 DUP7 MSTORE PUSH1 0x68 DUP6 MSTORE DUP4 DUP7 KECCAK256 DUP1 SLOAD PUSH1 0x0 NOT ADD SWAP1 SSTORE SWAP1 DUP8 AND DUP1 DUP7 MSTORE DUP4 DUP7 KECCAK256 DUP1 SLOAD PUSH1 0x1 ADD SWAP1 SSTORE DUP7 DUP7 MSTORE PUSH1 0x67 SWAP1 SWAP5 MSTORE DUP3 DUP6 KECCAK256 DUP1 SLOAD SWAP1 SWAP3 AND DUP5 OR SWAP1 SWAP2 SSTORE SWAP1 MLOAD DUP5 SWAP4 PUSH32 0xDDF252AD1BE2C89B69C2B068FC378DAA952BA7F163C4A11628F55A4DF523B3EF SWAP2 LOG4 POP POP POP JUMP JUMPDEST PUSH1 0x0 DUP2 DUP2 MSTORE PUSH2 0x1FC PUSH1 0x20 MSTORE PUSH1 0x40 DUP2 KECCAK256 SLOAD PUSH2 0xEC6 PUSH2 0x1F9 DUP3 PUSH2 0x3387 JUMP JUMPDEST PUSH1 0x0 PUSH2 0xEC6 DUP4 DUP4 PUSH2 0x3393 JUMP JUMPDEST PUSH2 0x1045 PUSH2 0x2A0A JUMP JUMPDEST PUSH32 0x4910FDFA16FED3260ED0E7147F7CC6DA11A60208B5B9406D12A635614FFD9143 SLOAD PUSH1 0xFF AND ISZERO PUSH2 0x289D JUMPI PUSH2 0x952 DUP4 PUSH2 0x33BD JUMP JUMPDEST DUP3 PUSH1 0x1 PUSH1 0x1 PUSH1 0xA0 SHL SUB AND PUSH4 0x52D1902D PUSH1 0x40 MLOAD DUP2 PUSH4 0xFFFFFFFF AND PUSH1 0xE0 SHL DUP2 MSTORE PUSH1 0x4 ADD PUSH1 0x20 PUSH1 0x40 MLOAD DUP1 DUP4 SUB DUP2 DUP7 GAS STATICCALL SWAP3 POP POP POP DUP1 ISZERO PUSH2 0x28F7 JUMPI POP PUSH1 0x40 DUP1 MLOAD PUSH1 0x1F RETURNDATASIZE SWAP1 DUP2 ADD PUSH1 0x1F NOT AND DUP3 ADD SWAP1 SWAP3 MSTORE PUSH2 0x28F4 SWAP2 DUP2 ADD SWAP1 PUSH2 0x46A4 JUMP JUMPDEST PUSH1 0x1 JUMPDEST PUSH2 0x2969 JUMPI PUSH1 0x40 MLOAD PUSH3 0x461BCD PUSH1 0xE5 SHL DUP2 MSTORE PUSH1 0x20 PUSH1 0x4 DUP3 ADD MSTORE PUSH1 0x2E PUSH1 0x24 DUP3 ADD MSTORE PUSH32 0x45524331393637557067726164653A206E657720696D706C656D656E74617469 PUSH1 0x44 DUP3 ADD MSTORE PUSH32 0x6F6E206973206E6F742055555053000000000000000000000000000000000000 PUSH1 0x64 DUP3 ADD MSTORE PUSH1 0x84 ADD PUSH2 0x8B1 JUMP JUMPDEST PUSH32 0x360894A13BA1A3210667C828492DB98DCA3E2076CC3735A920A3CA505D382BBC DUP2 EQ PUSH2 0x29FE JUMPI PUSH1 0x40 MLOAD PUSH3 0x461BCD PUSH1 0xE5 SHL DUP2 MSTORE PUSH1 0x20 PUSH1 0x4 DUP3 ADD MSTORE PUSH1 0x29 PUSH1 0x24 DUP3 ADD MSTORE PUSH32 0x45524331393637557067726164653A20756E737570706F727465642070726F78 PUSH1 0x44 DUP3 ADD MSTORE PUSH32 0x6961626C65555549440000000000000000000000000000000000000000000000 PUSH1 0x64 DUP3 ADD MSTORE PUSH1 0x84 ADD PUSH2 0x8B1 JUMP JUMPDEST POP PUSH2 0x952 DUP4 DUP4 DUP4 PUSH2 0x347B JUMP JUMPDEST PUSH1 0xFB SLOAD PUSH1 0x1 PUSH1 0x1 PUSH1 0xA0 SHL SUB AND CALLER EQ PUSH2 0x1058 JUMPI PUSH1 0x40 MLOAD PUSH3 0x461BCD PUSH1 0xE5 SHL DUP2 MSTORE PUSH1 0x20 PUSH1 0x4 DUP3 ADD DUP2 SWAP1 MSTORE PUSH1 0x24 DUP3 ADD MSTORE PUSH32 0x4F776E61626C653A2063616C6C6572206973206E6F7420746865206F776E6572 PUSH1 0x44 DUP3 ADD MSTORE PUSH1 0x64 ADD PUSH2 0x8B1 JUMP JUMPDEST PUSH2 0x2A6C PUSH2 0x34A0 JUMP JUMPDEST PUSH1 0xC9 DUP1 SLOAD PUSH1 0xFF NOT AND SWAP1 SSTORE PUSH32 0x5DB9EE0A495BF2E6FF9C91A7834C1BA4FDD244A5E8AA4E537BD38AEAE4B073AA CALLER JUMPDEST PUSH1 0x40 MLOAD PUSH1 0x1 PUSH1 0x1 PUSH1 0xA0 SHL SUB SWAP1 SWAP2 AND DUP2 MSTORE PUSH1 0x20 ADD PUSH1 0x40 MLOAD DUP1 SWAP2 SUB SWAP1 LOG1 JUMP JUMPDEST PUSH1 0x0 PUSH2 0x225C DUP5 DUP5 DUP5 PUSH2 0x34F2 JUMP JUMPDEST PUSH1 0x0 PUSH2 0x77E DUP3 SLOAD SWAP1 JUMP JUMPDEST PUSH1 0xFB DUP1 SLOAD PUSH1 0x1 PUSH1 0x1 PUSH1 0xA0 SHL SUB DUP4 DUP2 AND PUSH1 0x1 PUSH1 0x1 PUSH1 0xA0 SHL SUB NOT DUP4 AND DUP2 OR SWAP1 SWAP4 SSTORE PUSH1 0x40 MLOAD SWAP2 AND SWAP2 SWAP1 DUP3 SWAP1 PUSH32 0x8BE0079C531659141344CD1FD0A4F28419497F9722A3DAAFE3B4186F6B6457E0 SWAP1 PUSH1 0x0 SWAP1 LOG3 POP POP JUMP JUMPDEST PUSH1 0x2 PUSH2 0x1C3 SLOAD SUB PUSH2 0x2B72 JUMPI PUSH1 0x40 MLOAD PUSH3 0x461BCD PUSH1 0xE5 SHL DUP2 MSTORE PUSH1 0x20 PUSH1 0x4 DUP3 ADD MSTORE PUSH1 0x1F PUSH1 0x24 DUP3 ADD MSTORE PUSH32 0x5265656E7472616E637947756172643A207265656E7472616E742063616C6C00 PUSH1 0x44 DUP3 ADD MSTORE PUSH1 0x64 ADD PUSH2 0x8B1 JUMP JUMPDEST PUSH1 0x2 PUSH2 0x1C3 SSTORE JUMP JUMPDEST PUSH2 0x1248 DUP3 DUP3 PUSH1 0x40 MLOAD DUP1 PUSH1 0x20 ADD PUSH1 0x40 MSTORE DUP1 PUSH1 0x0 DUP2 MSTORE POP PUSH2 0x353E JUMP JUMPDEST PUSH1 0x0 DUP3 DUP2 MSTORE PUSH1 0x67 PUSH1 0x20 MSTORE PUSH1 0x40 SWAP1 KECCAK256 SLOAD PUSH1 0x1 PUSH1 0x1 PUSH1 0xA0 SHL SUB AND PUSH2 0x2C1E JUMPI PUSH1 0x40 MLOAD PUSH3 0x461BCD PUSH1 0xE5 SHL DUP2 MSTORE PUSH1 0x20 PUSH1 0x4 DUP3 ADD MSTORE PUSH1 0x2E PUSH1 0x24 DUP3 ADD MSTORE PUSH32 0x45524337323155524953746F726167653A2055524920736574206F66206E6F6E PUSH1 0x44 DUP3 ADD MSTORE PUSH32 0x6578697374656E7420746F6B656E000000000000000000000000000000000000 PUSH1 0x64 DUP3 ADD MSTORE PUSH1 0x84 ADD PUSH2 0x8B1 JUMP JUMPDEST PUSH1 0x0 DUP3 DUP2 MSTORE PUSH1 0x97 PUSH1 0x20 MSTORE PUSH1 0x40 SWAP1 KECCAK256 PUSH2 0x952 DUP3 DUP3 PUSH2 0x45CE JUMP JUMPDEST PUSH2 0x952 PUSH2 0x1F9 DUP3 DUP5 PUSH2 0x35BC JUMP JUMPDEST PUSH1 0x1 PUSH1 0x1 PUSH1 0xA0 SHL SUB DUP3 AND PUSH1 0x0 SWAP1 DUP2 MSTORE PUSH2 0x1F8 PUSH1 0x20 MSTORE PUSH1 0x40 SWAP1 KECCAK256 PUSH2 0x952 SWAP1 DUP3 PUSH2 0x35D2 JUMP JUMPDEST PUSH1 0x0 DUP10 GT PUSH2 0x2CB6 JUMPI PUSH1 0x40 MLOAD PUSH3 0x461BCD PUSH1 0xE5 SHL DUP2 MSTORE PUSH1 0x20 PUSH1 0x4 DUP3 ADD MSTORE PUSH1 0x1C PUSH1 0x24 DUP3 ADD MSTORE PUSH32 0x5072696365206D757374206265206174206C6561737420312077656900000000 PUSH1 0x44 DUP3 ADD MSTORE PUSH1 0x64 ADD PUSH2 0x8B1 JUMP JUMPDEST PUSH1 0x1 PUSH1 0x1 PUSH1 0xA0 SHL SUB DUP5 AND PUSH2 0x2D0C JUMPI PUSH1 0x40 MLOAD PUSH3 0x461BCD PUSH1 0xE5 SHL DUP2 MSTORE PUSH1 0x20 PUSH1 0x4 DUP3 ADD DUP2 SWAP1 MSTORE PUSH1 0x24 DUP3 ADD MSTORE PUSH32 0x4552433732313A206D696E7420746F20746865207A65726F2061646472657373 PUSH1 0x44 DUP3 ADD MSTORE PUSH1 0x64 ADD PUSH2 0x8B1 JUMP JUMPDEST PUSH1 0x0 DUP12 MLOAD GT PUSH2 0x2D5D JUMPI PUSH1 0x40 MLOAD PUSH3 0x461BCD PUSH1 0xE5 SHL DUP2 MSTORE PUSH1 0x20 PUSH1 0x4 DUP3 ADD MSTORE PUSH1 0x13 PUSH1 0x24 DUP3 ADD MSTORE PUSH32 0x546F6B656E2075726C2069732020656D70747900000000000000000000000000 PUSH1 0x44 DUP3 ADD MSTORE PUSH1 0x64 ADD PUSH2 0x8B1 JUMP JUMPDEST PUSH1 0x0 PUSH1 0x40 MLOAD DUP1 PUSH2 0x180 ADD PUSH1 0x40 MSTORE DUP1 DUP15 DUP2 MSTORE PUSH1 0x20 ADD DUP12 DUP2 MSTORE PUSH1 0x20 ADD DUP11 DUP2 MSTORE PUSH1 0x20 ADD DUP8 DUP2 MSTORE PUSH1 0x20 ADD DUP5 DUP2 MSTORE PUSH1 0x20 ADD TIMESTAMP DUP2 MSTORE PUSH1 0x20 ADD DUP7 PUSH1 0x1 PUSH1 0x1 PUSH1 0xA0 SHL SUB AND DUP2 MSTORE PUSH1 0x20 ADD DUP14 DUP2 MSTORE PUSH1 0x20 ADD DUP13 DUP2 MSTORE PUSH1 0x20 ADD DUP10 DUP2 MSTORE PUSH1 0x20 ADD DUP9 DUP2 MSTORE PUSH1 0x20 ADD DUP6 DUP2 MSTORE POP SWAP1 POP DUP1 PUSH2 0x1F7 PUSH1 0x0 DUP5 DUP2 MSTORE PUSH1 0x20 ADD SWAP1 DUP2 MSTORE PUSH1 0x20 ADD PUSH1 0x0 KECCAK256 PUSH1 0x0 DUP3 ADD MLOAD DUP2 PUSH1 0x0 ADD SSTORE PUSH1 0x20 DUP3 ADD MLOAD DUP2 PUSH1 0x1 ADD SSTORE PUSH1 0x40 DUP3 ADD MLOAD DUP2 PUSH1 0x2 ADD SSTORE PUSH1 0x60 DUP3 ADD MLOAD DUP2 PUSH1 0x3 ADD SSTORE PUSH1 0x80 DUP3 ADD MLOAD DUP2 PUSH1 0x4 ADD SSTORE PUSH1 0xA0 DUP3 ADD MLOAD DUP2 PUSH1 0x5 ADD SSTORE PUSH1 0xC0 DUP3 ADD MLOAD DUP2 PUSH1 0x6 ADD PUSH1 0x0 PUSH2 0x100 EXP DUP2 SLOAD DUP2 PUSH1 0x1 PUSH1 0x1 PUSH1 0xA0 SHL SUB MUL NOT AND SWAP1 DUP4 PUSH1 0x1 PUSH1 0x1 PUSH1 0xA0 SHL SUB AND MUL OR SWAP1 SSTORE POP PUSH1 0xE0 DUP3 ADD MLOAD DUP2 PUSH1 0x7 ADD SWAP1 DUP2 PUSH2 0x2E4F SWAP2 SWAP1 PUSH2 0x45CE JUMP JUMPDEST POP PUSH2 0x100 DUP3 ADD MLOAD PUSH1 0x8 DUP3 ADD SWAP1 PUSH2 0x2E65 SWAP1 DUP3 PUSH2 0x45CE JUMP JUMPDEST POP PUSH2 0x120 DUP3 ADD MLOAD PUSH1 0x9 DUP3 ADD SWAP1 PUSH2 0x2E7B SWAP1 DUP3 PUSH2 0x45CE JUMP JUMPDEST POP PUSH2 0x140 DUP3 ADD MLOAD PUSH1 0xA DUP3 ADD SWAP1 PUSH2 0x2E91 SWAP1 DUP3 PUSH2 0x45CE JUMP JUMPDEST POP PUSH2 0x160 DUP3 ADD MLOAD PUSH1 0xB DUP3 ADD SWAP1 PUSH2 0x2EA7 SWAP1 DUP3 PUSH2 0x45CE JUMP JUMPDEST POP POP PUSH1 0x40 MLOAD PUSH2 0x2EB8 SWAP2 POP DUP14 SWAP1 PUSH2 0x44EE JUMP JUMPDEST PUSH1 0x40 MLOAD DUP1 SWAP2 SUB SWAP1 KECCAK256 PUSH32 0x559EC41A5550336295D32C5D36CB700618CE142ACEC86AE0B0555FB1AE7D6599 DUP15 DUP14 DUP14 DUP14 DUP14 DUP14 DUP14 DUP14 DUP14 DUP14 DUP14 TIMESTAMP PUSH1 0x40 MLOAD PUSH2 0x2F05 SWAP13 SWAP12 SWAP11 SWAP10 SWAP9 SWAP8 SWAP7 SWAP6 SWAP5 SWAP4 SWAP3 SWAP2 SWAP1 PUSH2 0x46BD JUMP JUMPDEST PUSH1 0x40 MLOAD DUP1 SWAP2 SUB SWAP1 LOG2 POP POP POP POP POP POP POP POP POP POP POP POP POP JUMP JUMPDEST PUSH1 0x1 PUSH2 0x1C3 SSTORE JUMP JUMPDEST PUSH2 0x2F2C PUSH2 0x35DE JUMP JUMPDEST PUSH1 0xC9 DUP1 SLOAD PUSH1 0xFF NOT AND PUSH1 0x1 OR SWAP1 SSTORE PUSH32 0x62E78CEA01BEE320CD4E420270B5EA74000D11B0C9F74754EBDBFC544B05A258 PUSH2 0x2A99 CALLER SWAP1 JUMP JUMPDEST DUP2 PUSH1 0x1 PUSH1 0x1 PUSH1 0xA0 SHL SUB AND DUP4 PUSH1 0x1 PUSH1 0x1 PUSH1 0xA0 SHL SUB AND SUB PUSH2 0x2FC2 JUMPI PUSH1 0x40 MLOAD PUSH3 0x461BCD PUSH1 0xE5 SHL DUP2 MSTORE PUSH1 0x20 PUSH1 0x4 DUP3 ADD MSTORE PUSH1 0x19 PUSH1 0x24 DUP3 ADD MSTORE PUSH32 0x4552433732313A20617070726F766520746F2063616C6C657200000000000000 PUSH1 0x44 DUP3 ADD MSTORE PUSH1 0x64 ADD PUSH2 0x8B1 JUMP JUMPDEST PUSH1 0x1 PUSH1 0x1 PUSH1 0xA0 SHL SUB DUP4 DUP2 AND PUSH1 0x0 DUP2 DUP2 MSTORE PUSH1 0x6A PUSH1 0x20 SWAP1 DUP2 MSTORE PUSH1 0x40 DUP1 DUP4 KECCAK256 SWAP5 DUP8 AND DUP1 DUP5 MSTORE SWAP5 DUP3 MSTORE SWAP2 DUP3 SWAP1 KECCAK256 DUP1 SLOAD PUSH1 0xFF NOT AND DUP7 ISZERO ISZERO SWAP1 DUP2 OR SWAP1 SWAP2 SSTORE SWAP2 MLOAD SWAP2 DUP3 MSTORE PUSH32 0x17307EAB39AB6107E8899845AD3D59BD9653F200F220920489CA2B5937696C31 SWAP2 ADD PUSH1 0x40 MLOAD DUP1 SWAP2 SUB SWAP1 LOG3 POP POP POP JUMP JUMPDEST PUSH2 0x303A DUP5 DUP5 DUP5 PUSH2 0x265A JUMP JUMPDEST PUSH2 0x3046 DUP5 DUP5 DUP5 DUP5 PUSH2 0x3631 JUMP JUMPDEST PUSH2 0x2183 JUMPI PUSH1 0x40 MLOAD PUSH3 0x461BCD PUSH1 0xE5 SHL DUP2 MSTORE PUSH1 0x20 PUSH1 0x4 DUP3 ADD MSTORE PUSH1 0x32 PUSH1 0x24 DUP3 ADD MSTORE PUSH32 0x4552433732313A207472616E7366657220746F206E6F6E204552433732315265 PUSH1 0x44 DUP3 ADD MSTORE PUSH18 0x31B2B4BB32B91034B6B83632B6B2B73A32B9 PUSH1 0x71 SHL PUSH1 0x64 DUP3 ADD MSTORE PUSH1 0x84 ADD PUSH2 0x8B1 JUMP JUMPDEST PUSH1 0x60 PUSH2 0x30B8 DUP3 PUSH2 0x24A5 JUMP JUMPDEST PUSH1 0x0 DUP3 DUP2 MSTORE PUSH1 0x97 PUSH1 0x20 MSTORE PUSH1 0x40 DUP2 KECCAK256 DUP1 SLOAD PUSH2 0x30D1 SWAP1 PUSH2 0x4493 JUMP JUMPDEST DUP1 PUSH1 0x1F ADD PUSH1 0x20 DUP1 SWAP2 DIV MUL PUSH1 0x20 ADD PUSH1 0x40 MLOAD SWAP1 DUP2 ADD PUSH1 0x40 MSTORE DUP1 SWAP3 SWAP2 SWAP1 DUP2 DUP2 MSTORE PUSH1 0x20 ADD DUP3 DUP1 SLOAD PUSH2 0x30FD SWAP1 PUSH2 0x4493 JUMP JUMPDEST DUP1 ISZERO PUSH2 0x314A JUMPI DUP1 PUSH1 0x1F LT PUSH2 0x311F JUMPI PUSH2 0x100 DUP1 DUP4 SLOAD DIV MUL DUP4 MSTORE SWAP2 PUSH1 0x20 ADD SWAP2 PUSH2 0x314A JUMP JUMPDEST DUP3 ADD SWAP2 SWAP1 PUSH1 0x0 MSTORE PUSH1 0x20 PUSH1 0x0 KECCAK256 SWAP1 JUMPDEST DUP2 SLOAD DUP2 MSTORE SWAP1 PUSH1 0x1 ADD SWAP1 PUSH1 0x20 ADD DUP1 DUP4 GT PUSH2 0x312D JUMPI DUP3 SWAP1 SUB PUSH1 0x1F AND DUP3 ADD SWAP2 JUMPDEST POP POP POP POP POP SWAP1 POP PUSH1 0x0 PUSH2 0x315B PUSH2 0x377D JUMP JUMPDEST SWAP1 POP DUP1 MLOAD PUSH1 0x0 SUB PUSH2 0x316D JUMPI POP SWAP3 SWAP2 POP POP JUMP JUMPDEST DUP2 MLOAD ISZERO PUSH2 0x319F JUMPI DUP1 DUP3 PUSH1 0x40 MLOAD PUSH1 0x20 ADD PUSH2 0x3187 SWAP3 SWAP2 SWAP1 PUSH2 0x475D JUMP JUMPDEST PUSH1 0x40 MLOAD PUSH1 0x20 DUP2 DUP4 SUB SUB DUP2 MSTORE SWAP1 PUSH1 0x40 MSTORE SWAP3 POP POP POP SWAP2 SWAP1 POP JUMP JUMPDEST PUSH2 0x225C DUP5 PUSH2 0x378D JUMP JUMPDEST PUSH1 0x0 SLOAD PUSH2 0x100 SWAP1 DIV PUSH1 0xFF AND PUSH2 0x3201 JUMPI PUSH1 0x40 MLOAD PUSH3 0x461BCD PUSH1 0xE5 SHL DUP2 MSTORE PUSH1 0x20 PUSH1 0x4 DUP3 ADD MSTORE PUSH1 0x2B PUSH1 0x24 DUP3 ADD MSTORE PUSH1 0x0 DUP1 MLOAD PUSH1 0x20 PUSH2 0x4805 DUP4 CODECOPY DUP2 MLOAD SWAP2 MSTORE PUSH1 0x44 DUP3 ADD MSTORE PUSH11 0x6E697469616C697A696E67 PUSH1 0xA8 SHL PUSH1 0x64 DUP3 ADD MSTORE PUSH1 0x84 ADD PUSH2 0x8B1 JUMP JUMPDEST PUSH2 0x1248 DUP3 DUP3 PUSH2 0x37F3 JUMP JUMPDEST PUSH1 0x0 SLOAD PUSH2 0x100 SWAP1 DIV PUSH1 0xFF AND PUSH2 0x1058 JUMPI PUSH1 0x40 MLOAD PUSH3 0x461BCD PUSH1 0xE5 SHL DUP2 MSTORE PUSH1 0x20 PUSH1 0x4 DUP3 ADD MSTORE PUSH1 0x2B PUSH1 0x24 DUP3 ADD MSTORE PUSH1 0x0 DUP1 MLOAD PUSH1 0x20 PUSH2 0x4805 DUP4 CODECOPY DUP2 MLOAD SWAP2 MSTORE PUSH1 0x44 DUP3 ADD MSTORE PUSH11 0x6E697469616C697A696E67 PUSH1 0xA8 SHL PUSH1 0x64 DUP3 ADD MSTORE PUSH1 0x84 ADD PUSH2 0x8B1 JUMP JUMPDEST PUSH1 0x0 SLOAD PUSH2 0x100 SWAP1 DIV PUSH1 0xFF AND PUSH2 0x32BD JUMPI PUSH1 0x40 MLOAD PUSH3 0x461BCD PUSH1 0xE5 SHL DUP2 MSTORE PUSH1 0x20 PUSH1 0x4 DUP3 ADD MSTORE PUSH1 0x2B PUSH1 0x24 DUP3 ADD MSTORE PUSH1 0x0 DUP1 MLOAD PUSH1 0x20 PUSH2 0x4805 DUP4 CODECOPY DUP2 MLOAD SWAP2 MSTORE PUSH1 0x44 DUP3 ADD MSTORE PUSH11 0x6E697469616C697A696E67 PUSH1 0xA8 SHL PUSH1 0x64 DUP3 ADD MSTORE PUSH1 0x84 ADD PUSH2 0x8B1 JUMP JUMPDEST PUSH2 0x1058 PUSH2 0x3865 JUMP JUMPDEST PUSH1 0x0 SLOAD PUSH2 0x100 SWAP1 DIV PUSH1 0xFF AND PUSH2 0x331E JUMPI PUSH1 0x40 MLOAD PUSH3 0x461BCD PUSH1 0xE5 SHL DUP2 MSTORE PUSH1 0x20 PUSH1 0x4 DUP3 ADD MSTORE PUSH1 0x2B PUSH1 0x24 DUP3 ADD MSTORE PUSH1 0x0 DUP1 MLOAD PUSH1 0x20 PUSH2 0x4805 DUP4 CODECOPY DUP2 MLOAD SWAP2 MSTORE PUSH1 0x44 DUP3 ADD MSTORE PUSH11 0x6E697469616C697A696E67 PUSH1 0xA8 SHL PUSH1 0x64 DUP3 ADD MSTORE PUSH1 0x84 ADD PUSH2 0x8B1 JUMP JUMPDEST PUSH2 0x1058 PUSH2 0x38CA JUMP JUMPDEST PUSH1 0x0 SLOAD PUSH2 0x100 SWAP1 DIV PUSH1 0xFF AND PUSH2 0x337F JUMPI PUSH1 0x40 MLOAD PUSH3 0x461BCD PUSH1 0xE5 SHL DUP2 MSTORE PUSH1 0x20 PUSH1 0x4 DUP3 ADD MSTORE PUSH1 0x2B PUSH1 0x24 DUP3 ADD MSTORE PUSH1 0x0 DUP1 MLOAD PUSH1 0x20 PUSH2 0x4805 DUP4 CODECOPY DUP2 MLOAD SWAP2 MSTORE PUSH1 0x44 DUP3 ADD MSTORE PUSH11 0x6E697469616C697A696E67 PUSH1 0xA8 SHL PUSH1 0x64 DUP3 ADD MSTORE PUSH1 0x84 ADD PUSH2 0x8B1 JUMP JUMPDEST PUSH2 0x1058 PUSH2 0x392C JUMP JUMPDEST PUSH1 0x0 PUSH2 0xEC6 DUP4 DUP4 PUSH2 0x3985 JUMP JUMPDEST PUSH1 0x0 DUP3 PUSH1 0x0 ADD DUP3 DUP2 SLOAD DUP2 LT PUSH2 0x33AA JUMPI PUSH2 0x33AA PUSH2 0x468E JUMP JUMPDEST SWAP1 PUSH1 0x0 MSTORE PUSH1 0x20 PUSH1 0x0 KECCAK256 ADD SLOAD SWAP1 POP SWAP3 SWAP2 POP POP JUMP JUMPDEST PUSH1 0x1 PUSH1 0x1 PUSH1 0xA0 SHL SUB DUP2 AND EXTCODESIZE PUSH2 0x343A JUMPI PUSH1 0x40 MLOAD PUSH3 0x461BCD PUSH1 0xE5 SHL DUP2 MSTORE PUSH1 0x20 PUSH1 0x4 DUP3 ADD MSTORE PUSH1 0x2D PUSH1 0x24 DUP3 ADD MSTORE PUSH32 0x455243313936373A206E657720696D706C656D656E746174696F6E206973206E PUSH1 0x44 DUP3 ADD MSTORE PUSH32 0x6F74206120636F6E747261637400000000000000000000000000000000000000 PUSH1 0x64 DUP3 ADD MSTORE PUSH1 0x84 ADD PUSH2 0x8B1 JUMP JUMPDEST PUSH32 0x360894A13BA1A3210667C828492DB98DCA3E2076CC3735A920A3CA505D382BBC DUP1 SLOAD PUSH1 0x1 PUSH1 0x1 PUSH1 0xA0 SHL SUB NOT AND PUSH1 0x1 PUSH1 0x1 PUSH1 0xA0 SHL SUB SWAP3 SWAP1 SWAP3 AND SWAP2 SWAP1 SWAP2 OR SWAP1 SSTORE JUMP JUMPDEST PUSH2 0x3484 DUP4 PUSH2 0x3991 JUMP JUMPDEST PUSH1 0x0 DUP3 MLOAD GT DUP1 PUSH2 0x3491 JUMPI POP DUP1 JUMPDEST ISZERO PUSH2 0x952 JUMPI PUSH2 0x2183 DUP4 DUP4 PUSH2 0x39D1 JUMP JUMPDEST PUSH1 0xC9 SLOAD PUSH1 0xFF AND PUSH2 0x1058 JUMPI PUSH1 0x40 MLOAD PUSH3 0x461BCD PUSH1 0xE5 SHL DUP2 MSTORE PUSH1 0x20 PUSH1 0x4 DUP3 ADD MSTORE PUSH1 0x14 PUSH1 0x24 DUP3 ADD MSTORE PUSH32 0x5061757361626C653A206E6F7420706175736564000000000000000000000000 PUSH1 0x44 DUP3 ADD MSTORE PUSH1 0x64 ADD PUSH2 0x8B1 JUMP JUMPDEST PUSH1 0x0 DUP3 DUP2 MSTORE PUSH1 0x2 DUP5 ADD PUSH1 0x20 MSTORE PUSH1 0x40 DUP2 KECCAK256 SLOAD DUP1 ISZERO ISZERO DUP1 PUSH2 0x3516 JUMPI POP PUSH2 0x3516 DUP6 DUP6 PUSH2 0x3985 JUMP JUMPDEST DUP4 SWAP1 PUSH2 0x3535 JUMPI PUSH1 0x40 MLOAD PUSH3 0x461BCD PUSH1 0xE5 SHL DUP2 MSTORE PUSH1 0x4 ADD PUSH2 0x8B1 SWAP2 SWAP1 PUSH2 0x3F33 JUMP JUMPDEST POP SWAP5 SWAP4 POP POP POP POP JUMP JUMPDEST PUSH2 0x3548 DUP4 DUP4 PUSH2 0x3ADC JUMP JUMPDEST PUSH2 0x3555 PUSH1 0x0 DUP5 DUP5 DUP5 PUSH2 0x3631 JUMP JUMPDEST PUSH2 0x952 JUMPI PUSH1 0x40 MLOAD PUSH3 0x461BCD PUSH1 0xE5 SHL DUP2 MSTORE PUSH1 0x20 PUSH1 0x4 DUP3 ADD MSTORE PUSH1 0x32 PUSH1 0x24 DUP3 ADD MSTORE PUSH32 0x4552433732313A207472616E7366657220746F206E6F6E204552433732315265 PUSH1 0x44 DUP3 ADD MSTORE PUSH18 0x31B2B4BB32B91034B6B83632B6B2B73A32B9 PUSH1 0x71 SHL PUSH1 0x64 DUP3 ADD MSTORE PUSH1 0x84 ADD PUSH2 0x8B1 JUMP JUMPDEST PUSH1 0x0 PUSH2 0x225C DUP5 DUP5 PUSH1 0x1 PUSH1 0x1 PUSH1 0xA0 SHL SUB DUP6 AND PUSH2 0x3C67 JUMP JUMPDEST PUSH1 0x0 PUSH2 0xEC6 DUP4 DUP4 PUSH2 0x3C84 JUMP JUMPDEST PUSH1 0xC9 SLOAD PUSH1 0xFF AND ISZERO PUSH2 0x1058 JUMPI PUSH1 0x40 MLOAD PUSH3 0x461BCD PUSH1 0xE5 SHL DUP2 MSTORE PUSH1 0x20 PUSH1 0x4 DUP3 ADD MSTORE PUSH1 0x10 PUSH1 0x24 DUP3 ADD MSTORE PUSH32 0x5061757361626C653A2070617573656400000000000000000000000000000000 PUSH1 0x44 DUP3 ADD MSTORE PUSH1 0x64 ADD PUSH2 0x8B1 JUMP JUMPDEST PUSH1 0x0 PUSH1 0x1 PUSH1 0x1 PUSH1 0xA0 SHL SUB DUP5 AND EXTCODESIZE ISZERO PUSH2 0x3772 JUMPI PUSH1 0x40 MLOAD PUSH4 0xA85BD01 PUSH1 0xE1 SHL DUP2 MSTORE PUSH1 0x1 PUSH1 0x1 PUSH1 0xA0 SHL SUB DUP6 AND SWAP1 PUSH4 0x150B7A02 SWAP1 PUSH2 0x3675 SWAP1 CALLER SWAP1 DUP10 SWAP1 DUP9 SWAP1 DUP9 SWAP1 PUSH1 0x4 ADD PUSH2 0x478C JUMP JUMPDEST PUSH1 0x20 PUSH1 0x40 MLOAD DUP1 DUP4 SUB DUP2 PUSH1 0x0 DUP8 GAS CALL SWAP3 POP POP POP DUP1 ISZERO PUSH2 0x36B0 JUMPI POP PUSH1 0x40 DUP1 MLOAD PUSH1 0x1F RETURNDATASIZE SWAP1 DUP2 ADD PUSH1 0x1F NOT AND DUP3 ADD SWAP1 SWAP3 MSTORE PUSH2 0x36AD SWAP2 DUP2 ADD SWAP1 PUSH2 0x47BE JUMP JUMPDEST PUSH1 0x1 JUMPDEST PUSH2 0x3758 JUMPI RETURNDATASIZE DUP1 DUP1 ISZERO PUSH2 0x36DE JUMPI PUSH1 0x40 MLOAD SWAP2 POP PUSH1 0x1F NOT PUSH1 0x3F RETURNDATASIZE ADD AND DUP3 ADD PUSH1 0x40 MSTORE RETURNDATASIZE DUP3 MSTORE RETURNDATASIZE PUSH1 0x0 PUSH1 0x20 DUP5 ADD RETURNDATACOPY PUSH2 0x36E3 JUMP JUMPDEST PUSH1 0x60 SWAP2 POP JUMPDEST POP DUP1 MLOAD PUSH1 0x0 SUB PUSH2 0x3750 JUMPI PUSH1 0x40 MLOAD PUSH3 0x461BCD PUSH1 0xE5 SHL DUP2 MSTORE PUSH1 0x20 PUSH1 0x4 DUP3 ADD MSTORE PUSH1 0x32 PUSH1 0x24 DUP3 ADD MSTORE PUSH32 0x4552433732313A207472616E7366657220746F206E6F6E204552433732315265 PUSH1 0x44 DUP3 ADD MSTORE PUSH18 0x31B2B4BB32B91034B6B83632B6B2B73A32B9 PUSH1 0x71 SHL PUSH1 0x64 DUP3 ADD MSTORE PUSH1 0x84 ADD PUSH2 0x8B1 JUMP JUMPDEST DUP1 MLOAD DUP2 PUSH1 0x20 ADD REVERT JUMPDEST PUSH1 0x1 PUSH1 0x1 PUSH1 0xE0 SHL SUB NOT AND PUSH4 0xA85BD01 PUSH1 0xE1 SHL EQ SWAP1 POP PUSH2 0x225C JUMP JUMPDEST POP PUSH1 0x1 SWAP5 SWAP4 POP POP POP POP JUMP JUMPDEST PUSH1 0x60 PUSH2 0x1F5 DUP1 SLOAD PUSH2 0x793 SWAP1 PUSH2 0x4493 JUMP JUMPDEST PUSH1 0x60 PUSH2 0x3798 DUP3 PUSH2 0x24A5 JUMP JUMPDEST PUSH1 0x0 PUSH2 0x37A2 PUSH2 0x377D JUMP JUMPDEST SWAP1 POP PUSH1 0x0 DUP2 MLOAD GT PUSH2 0x37C2 JUMPI PUSH1 0x40 MLOAD DUP1 PUSH1 0x20 ADD PUSH1 0x40 MSTORE DUP1 PUSH1 0x0 DUP2 MSTORE POP PUSH2 0xEC6 JUMP JUMPDEST DUP1 PUSH2 0x37CC DUP5 PUSH2 0x3CD3 JUMP JUMPDEST PUSH1 0x40 MLOAD PUSH1 0x20 ADD PUSH2 0x37DD SWAP3 SWAP2 SWAP1 PUSH2 0x475D JUMP JUMPDEST PUSH1 0x40 MLOAD PUSH1 0x20 DUP2 DUP4 SUB SUB DUP2 MSTORE SWAP1 PUSH1 0x40 MSTORE SWAP4 SWAP3 POP POP POP JUMP JUMPDEST PUSH1 0x0 SLOAD PUSH2 0x100 SWAP1 DIV PUSH1 0xFF AND PUSH2 0x384C JUMPI PUSH1 0x40 MLOAD PUSH3 0x461BCD PUSH1 0xE5 SHL DUP2 MSTORE PUSH1 0x20 PUSH1 0x4 DUP3 ADD MSTORE PUSH1 0x2B PUSH1 0x24 DUP3 ADD MSTORE PUSH1 0x0 DUP1 MLOAD PUSH1 0x20 PUSH2 0x4805 DUP4 CODECOPY DUP2 MLOAD SWAP2 MSTORE PUSH1 0x44 DUP3 ADD MSTORE PUSH11 0x6E697469616C697A696E67 PUSH1 0xA8 SHL PUSH1 0x64 DUP3 ADD MSTORE PUSH1 0x84 ADD PUSH2 0x8B1 JUMP JUMPDEST PUSH1 0x65 PUSH2 0x3858 DUP4 DUP3 PUSH2 0x45CE JUMP JUMPDEST POP PUSH1 0x66 PUSH2 0x952 DUP3 DUP3 PUSH2 0x45CE JUMP JUMPDEST PUSH1 0x0 SLOAD PUSH2 0x100 SWAP1 DIV PUSH1 0xFF AND PUSH2 0x38BE JUMPI PUSH1 0x40 MLOAD PUSH3 0x461BCD PUSH1 0xE5 SHL DUP2 MSTORE PUSH1 0x20 PUSH1 0x4 DUP3 ADD MSTORE PUSH1 0x2B PUSH1 0x24 DUP3 ADD MSTORE PUSH1 0x0 DUP1 MLOAD PUSH1 0x20 PUSH2 0x4805 DUP4 CODECOPY DUP2 MLOAD SWAP2 MSTORE PUSH1 0x44 DUP3 ADD MSTORE PUSH11 0x6E697469616C697A696E67 PUSH1 0xA8 SHL PUSH1 0x64 DUP3 ADD MSTORE PUSH1 0x84 ADD PUSH2 0x8B1 JUMP JUMPDEST PUSH1 0xC9 DUP1 SLOAD PUSH1 0xFF NOT AND SWAP1 SSTORE JUMP JUMPDEST PUSH1 0x0 SLOAD PUSH2 0x100 SWAP1 DIV PUSH1 0xFF AND PUSH2 0x3923 JUMPI PUSH1 0x40 MLOAD PUSH3 0x461BCD PUSH1 0xE5 SHL DUP2 MSTORE PUSH1 0x20 PUSH1 0x4 DUP3 ADD MSTORE PUSH1 0x2B PUSH1 0x24 DUP3 ADD MSTORE PUSH1 0x0 DUP1 MLOAD PUSH1 0x20 PUSH2 0x4805 DUP4 CODECOPY DUP2 MLOAD SWAP2 MSTORE PUSH1 0x44 DUP3 ADD MSTORE PUSH11 0x6E697469616C697A696E67 PUSH1 0xA8 SHL PUSH1 0x64 DUP3 ADD MSTORE PUSH1 0x84 ADD PUSH2 0x8B1 JUMP JUMPDEST PUSH2 0x1058 CALLER PUSH2 0x2ACD JUMP JUMPDEST PUSH1 0x0 SLOAD PUSH2 0x100 SWAP1 DIV PUSH1 0xFF AND PUSH2 0x2F1C JUMPI PUSH1 0x40 MLOAD PUSH3 0x461BCD PUSH1 0xE5 SHL DUP2 MSTORE PUSH1 0x20 PUSH1 0x4 DUP3 ADD MSTORE PUSH1 0x2B PUSH1 0x24 DUP3 ADD MSTORE PUSH1 0x0 DUP1 MLOAD PUSH1 0x20 PUSH2 0x4805 DUP4 CODECOPY DUP2 MLOAD SWAP2 MSTORE PUSH1 0x44 DUP3 ADD MSTORE PUSH11 0x6E697469616C697A696E67 PUSH1 0xA8 SHL PUSH1 0x64 DUP3 ADD MSTORE PUSH1 0x84 ADD PUSH2 0x8B1 JUMP JUMPDEST PUSH1 0x0 PUSH2 0xEC6 DUP4 DUP4 PUSH2 0x3D73 JUMP JUMPDEST PUSH2 0x399A DUP2 PUSH2 0x33BD JUMP JUMPDEST PUSH1 0x40 MLOAD PUSH1 0x1 PUSH1 0x1 PUSH1 0xA0 SHL SUB DUP3 AND SWAP1 PUSH32 0xBC7CD75A20EE27FD9ADEBAB32041F755214DBC6BFFA90CC0225B39DA2E5C2D3B SWAP1 PUSH1 0x0 SWAP1 LOG2 POP JUMP JUMPDEST PUSH1 0x60 PUSH1 0x1 PUSH1 0x1 PUSH1 0xA0 SHL SUB DUP4 AND EXTCODESIZE PUSH2 0x3A50 JUMPI PUSH1 0x40 MLOAD PUSH3 0x461BCD PUSH1 0xE5 SHL DUP2 MSTORE PUSH1 0x20 PUSH1 0x4 DUP3 ADD MSTORE PUSH1 0x26 PUSH1 0x24 DUP3 ADD MSTORE PUSH32 0x416464726573733A2064656C65676174652063616C6C20746F206E6F6E2D636F PUSH1 0x44 DUP3 ADD MSTORE PUSH32 0x6E74726163740000000000000000000000000000000000000000000000000000 PUSH1 0x64 DUP3 ADD MSTORE PUSH1 0x84 ADD PUSH2 0x8B1 JUMP JUMPDEST PUSH1 0x0 DUP1 DUP5 PUSH1 0x1 PUSH1 0x1 PUSH1 0xA0 SHL SUB AND DUP5 PUSH1 0x40 MLOAD PUSH2 0x3A6B SWAP2 SWAP1 PUSH2 0x44EE JUMP JUMPDEST PUSH1 0x0 PUSH1 0x40 MLOAD DUP1 DUP4 SUB DUP2 DUP6 GAS DELEGATECALL SWAP2 POP POP RETURNDATASIZE DUP1 PUSH1 0x0 DUP2 EQ PUSH2 0x3AA6 JUMPI PUSH1 0x40 MLOAD SWAP2 POP PUSH1 0x1F NOT PUSH1 0x3F RETURNDATASIZE ADD AND DUP3 ADD PUSH1 0x40 MSTORE RETURNDATASIZE DUP3 MSTORE RETURNDATASIZE PUSH1 0x0 PUSH1 0x20 DUP5 ADD RETURNDATACOPY PUSH2 0x3AAB JUMP JUMPDEST PUSH1 0x60 SWAP2 POP JUMPDEST POP SWAP2 POP SWAP2 POP PUSH2 0x3AD3 DUP3 DUP3 PUSH1 0x40 MLOAD DUP1 PUSH1 0x60 ADD PUSH1 0x40 MSTORE DUP1 PUSH1 0x27 DUP2 MSTORE PUSH1 0x20 ADD PUSH2 0x4825 PUSH1 0x27 SWAP2 CODECOPY PUSH2 0x3D8B JUMP JUMPDEST SWAP6 SWAP5 POP POP POP POP POP JUMP JUMPDEST PUSH1 0x1 PUSH1 0x1 PUSH1 0xA0 SHL SUB DUP3 AND PUSH2 0x3B32 JUMPI PUSH1 0x40 MLOAD PUSH3 0x461BCD PUSH1 0xE5 SHL DUP2 MSTORE PUSH1 0x20 PUSH1 0x4 DUP3 ADD DUP2 SWAP1 MSTORE PUSH1 0x24 DUP3 ADD MSTORE PUSH32 0x4552433732313A206D696E7420746F20746865207A65726F2061646472657373 PUSH1 0x44 DUP3 ADD MSTORE PUSH1 0x64 ADD PUSH2 0x8B1 JUMP JUMPDEST PUSH1 0x0 DUP2 DUP2 MSTORE PUSH1 0x67 PUSH1 0x20 MSTORE PUSH1 0x40 SWAP1 KECCAK256 SLOAD PUSH1 0x1 PUSH1 0x1 PUSH1 0xA0 SHL SUB AND ISZERO PUSH2 0x3B97 JUMPI PUSH1 0x40 MLOAD PUSH3 0x461BCD PUSH1 0xE5 SHL DUP2 MSTORE PUSH1 0x20 PUSH1 0x4 DUP3 ADD MSTORE PUSH1 0x1C PUSH1 0x24 DUP3 ADD MSTORE PUSH32 0x4552433732313A20746F6B656E20616C7265616479206D696E74656400000000 PUSH1 0x44 DUP3 ADD MSTORE PUSH1 0x64 ADD PUSH2 0x8B1 JUMP JUMPDEST PUSH1 0x0 DUP2 DUP2 MSTORE PUSH1 0x67 PUSH1 0x20 MSTORE PUSH1 0x40 SWAP1 KECCAK256 SLOAD PUSH1 0x1 PUSH1 0x1 PUSH1 0xA0 SHL SUB AND ISZERO PUSH2 0x3BFC JUMPI PUSH1 0x40 MLOAD PUSH3 0x461BCD PUSH1 0xE5 SHL DUP2 MSTORE PUSH1 0x20 PUSH1 0x4 DUP3 ADD MSTORE PUSH1 0x1C PUSH1 0x24 DUP3 ADD MSTORE PUSH32 0x4552433732313A20746F6B656E20616C7265616479206D696E74656400000000 PUSH1 0x44 DUP3 ADD MSTORE PUSH1 0x64 ADD PUSH2 0x8B1 JUMP JUMPDEST PUSH1 0x1 PUSH1 0x1 PUSH1 0xA0 SHL SUB DUP3 AND PUSH1 0x0 DUP2 DUP2 MSTORE PUSH1 0x68 PUSH1 0x20 SWAP1 DUP2 MSTORE PUSH1 0x40 DUP1 DUP4 KECCAK256 DUP1 SLOAD PUSH1 0x1 ADD SWAP1 SSTORE DUP5 DUP4 MSTORE PUSH1 0x67 SWAP1 SWAP2 MSTORE DUP1 DUP3 KECCAK256 DUP1 SLOAD PUSH1 0x1 PUSH1 0x1 PUSH1 0xA0 SHL SUB NOT AND DUP5 OR SWAP1 SSTORE MLOAD DUP4 SWAP3 SWAP2 SWAP1 PUSH32 0xDDF252AD1BE2C89B69C2B068FC378DAA952BA7F163C4A11628F55A4DF523B3EF SWAP1 DUP3 SWAP1 LOG4 POP POP JUMP JUMPDEST PUSH1 0x0 DUP3 DUP2 MSTORE PUSH1 0x2 DUP5 ADD PUSH1 0x20 MSTORE PUSH1 0x40 DUP2 KECCAK256 DUP3 SWAP1 SSTORE PUSH2 0x225C DUP5 DUP5 PUSH2 0x35D2 JUMP JUMPDEST PUSH1 0x0 DUP2 DUP2 MSTORE PUSH1 0x1 DUP4 ADD PUSH1 0x20 MSTORE PUSH1 0x40 DUP2 KECCAK256 SLOAD PUSH2 0x3CCB JUMPI POP DUP2 SLOAD PUSH1 0x1 DUP2 DUP2 ADD DUP5 SSTORE PUSH1 0x0 DUP5 DUP2 MSTORE PUSH1 0x20 DUP1 DUP3 KECCAK256 SWAP1 SWAP4 ADD DUP5 SWAP1 SSTORE DUP5 SLOAD DUP5 DUP3 MSTORE DUP3 DUP7 ADD SWAP1 SWAP4 MSTORE PUSH1 0x40 SWAP1 KECCAK256 SWAP2 SWAP1 SWAP2 SSTORE PUSH2 0x77E JUMP JUMPDEST POP PUSH1 0x0 PUSH2 0x77E JUMP JUMPDEST PUSH1 0x60 PUSH1 0x0 PUSH2 0x3CE0 DUP4 PUSH2 0x3DA4 JUMP JUMPDEST PUSH1 0x1 ADD SWAP1 POP PUSH1 0x0 DUP2 PUSH8 0xFFFFFFFFFFFFFFFF DUP2 GT ISZERO PUSH2 0x3D00 JUMPI PUSH2 0x3D00 PUSH2 0x40F5 JUMP JUMPDEST PUSH1 0x40 MLOAD SWAP1 DUP1 DUP3 MSTORE DUP1 PUSH1 0x1F ADD PUSH1 0x1F NOT AND PUSH1 0x20 ADD DUP3 ADD PUSH1 0x40 MSTORE DUP1 ISZERO PUSH2 0x3D2A JUMPI PUSH1 0x20 DUP3 ADD DUP2 DUP1 CALLDATASIZE DUP4 CALLDATACOPY ADD SWAP1 POP JUMPDEST POP SWAP1 POP DUP2 DUP2 ADD PUSH1 0x20 ADD JUMPDEST PUSH1 0x0 NOT ADD PUSH32 0x3031323334353637383961626364656600000000000000000000000000000000 PUSH1 0xA DUP7 MOD BYTE DUP2 MSTORE8 PUSH1 0xA DUP6 DIV SWAP5 POP DUP5 PUSH2 0x3D34 JUMPI POP SWAP4 SWAP3 POP POP POP JUMP JUMPDEST PUSH1 0x0 DUP2 DUP2 MSTORE PUSH1 0x1 DUP4 ADD PUSH1 0x20 MSTORE PUSH1 0x40 DUP2 KECCAK256 SLOAD ISZERO ISZERO PUSH2 0xEC6 JUMP JUMPDEST PUSH1 0x60 DUP4 ISZERO PUSH2 0x3D9A JUMPI POP DUP2 PUSH2 0xEC6 JUMP JUMPDEST PUSH2 0xEC6 DUP4 DUP4 PUSH2 0x3E86 JUMP JUMPDEST PUSH1 0x0 DUP1 PUSH27 0x184F03E93FF9F4DAA797ED6E38ED64BF6A1F010000000000000000 DUP4 LT PUSH2 0x3DED JUMPI PUSH27 0x184F03E93FF9F4DAA797ED6E38ED64BF6A1F010000000000000000 DUP4 DIV SWAP3 POP PUSH1 0x40 ADD JUMPDEST PUSH14 0x4EE2D6D415B85ACEF8100000000 DUP4 LT PUSH2 0x3E19 JUMPI PUSH14 0x4EE2D6D415B85ACEF8100000000 DUP4 DIV SWAP3 POP PUSH1 0x20 ADD JUMPDEST PUSH7 0x2386F26FC10000 DUP4 LT PUSH2 0x3E37 JUMPI PUSH7 0x2386F26FC10000 DUP4 DIV SWAP3 POP PUSH1 0x10 ADD JUMPDEST PUSH4 0x5F5E100 DUP4 LT PUSH2 0x3E4F JUMPI PUSH4 0x5F5E100 DUP4 DIV SWAP3 POP PUSH1 0x8 ADD JUMPDEST PUSH2 0x2710 DUP4 LT PUSH2 0x3E63 JUMPI PUSH2 0x2710 DUP4 DIV SWAP3 POP PUSH1 0x4 ADD JUMPDEST PUSH1 0x64 DUP4 LT PUSH2 0x3E75 JUMPI PUSH1 0x64 DUP4 DIV SWAP3 POP PUSH1 0x2 ADD JUMPDEST PUSH1 0xA DUP4 LT PUSH2 0x77E JUMPI PUSH1 0x1 ADD SWAP3 SWAP2 POP POP JUMP JUMPDEST DUP2 MLOAD ISZERO PUSH2 0x3E96 JUMPI DUP2 MLOAD DUP1 DUP4 PUSH1 0x20 ADD REVERT JUMPDEST DUP1 PUSH1 0x40 MLOAD PUSH3 0x461BCD PUSH1 0xE5 SHL DUP2 MSTORE PUSH1 0x4 ADD PUSH2 0x8B1 SWAP2 SWAP1 PUSH2 0x3F33 JUMP JUMPDEST PUSH1 0x1 PUSH1 0x1 PUSH1 0xE0 SHL SUB NOT DUP2 AND DUP2 EQ PUSH2 0x1045 JUMPI PUSH1 0x0 DUP1 REVERT JUMPDEST PUSH1 0x0 PUSH1 0x20 DUP3 DUP5 SUB SLT ISZERO PUSH2 0x3ED8 JUMPI PUSH1 0x0 DUP1 REVERT JUMPDEST DUP2 CALLDATALOAD PUSH2 0xEC6 DUP2 PUSH2 0x3EB0 JUMP JUMPDEST PUSH1 0x0 JUMPDEST DUP4 DUP2 LT ISZERO PUSH2 0x3EFE JUMPI DUP2 DUP2 ADD MLOAD DUP4 DUP3 ADD MSTORE PUSH1 0x20 ADD PUSH2 0x3EE6 JUMP JUMPDEST POP POP PUSH1 0x0 SWAP2 ADD MSTORE JUMP JUMPDEST PUSH1 0x0 DUP2 MLOAD DUP1 DUP5 MSTORE PUSH2 0x3F1F DUP2 PUSH1 0x20 DUP7 ADD PUSH1 0x20 DUP7 ADD PUSH2 0x3EE3 JUMP JUMPDEST PUSH1 0x1F ADD PUSH1 0x1F NOT AND SWAP3 SWAP1 SWAP3 ADD PUSH1 0x20 ADD SWAP3 SWAP2 POP POP JUMP JUMPDEST PUSH1 0x20 DUP2 MSTORE PUSH1 0x0 PUSH2 0xEC6 PUSH1 0x20 DUP4 ADD DUP5 PUSH2 0x3F07 JUMP JUMPDEST PUSH1 0x0 PUSH1 0x20 DUP3 DUP5 SUB SLT ISZERO PUSH2 0x3F58 JUMPI PUSH1 0x0 DUP1 REVERT JUMPDEST POP CALLDATALOAD SWAP2 SWAP1 POP JUMP JUMPDEST DUP1 CALLDATALOAD PUSH1 0x1 PUSH1 0x1 PUSH1 0xA0 SHL SUB DUP2 AND DUP2 EQ PUSH2 0x3F76 JUMPI PUSH1 0x0 DUP1 REVERT JUMPDEST SWAP2 SWAP1 POP JUMP JUMPDEST PUSH1 0x0 DUP1 PUSH1 0x40 DUP4 DUP6 SUB SLT ISZERO PUSH2 0x3F8E JUMPI PUSH1 0x0 DUP1 REVERT JUMPDEST PUSH2 0x3F97 DUP4 PUSH2 0x3F5F JUMP JUMPDEST SWAP5 PUSH1 0x20 SWAP4 SWAP1 SWAP4 ADD CALLDATALOAD SWAP4 POP POP POP JUMP JUMPDEST PUSH1 0x0 DUP1 PUSH1 0x0 PUSH1 0x60 DUP5 DUP7 SUB SLT ISZERO PUSH2 0x3FBA JUMPI PUSH1 0x0 DUP1 REVERT JUMPDEST PUSH2 0x3FC3 DUP5 PUSH2 0x3F5F JUMP JUMPDEST SWAP3 POP PUSH2 0x3FD1 PUSH1 0x20 DUP6 ADD PUSH2 0x3F5F JUMP JUMPDEST SWAP2 POP PUSH1 0x40 DUP5 ADD CALLDATALOAD SWAP1 POP SWAP3 POP SWAP3 POP SWAP3 JUMP JUMPDEST PUSH1 0x0 PUSH2 0x180 DUP3 MLOAD DUP5 MSTORE PUSH1 0x20 DUP4 ADD MLOAD PUSH1 0x20 DUP6 ADD MSTORE PUSH1 0x40 DUP4 ADD MLOAD PUSH1 0x40 DUP6 ADD MSTORE PUSH1 0x60 DUP4 ADD MLOAD PUSH1 0x60 DUP6 ADD MSTORE PUSH1 0x80 DUP4 ADD MLOAD PUSH1 0x80 DUP6 ADD MSTORE PUSH1 0xA0 DUP4 ADD MLOAD PUSH1 0xA0 DUP6 ADD MSTORE PUSH1 0xC0 DUP4 ADD MLOAD PUSH2 0x4036 PUSH1 0xC0 DUP7 ADD DUP3 PUSH1 0x1 PUSH1 0x1 PUSH1 0xA0 SHL SUB AND SWAP1 MSTORE JUMP JUMPDEST POP PUSH1 0xE0 DUP4 ADD MLOAD DUP2 PUSH1 0xE0 DUP7 ADD MSTORE PUSH2 0x404E DUP3 DUP7 ADD DUP3 PUSH2 0x3F07 JUMP JUMPDEST SWAP2 POP POP PUSH2 0x100 DUP1 DUP5 ADD MLOAD DUP6 DUP4 SUB DUP3 DUP8 ADD MSTORE PUSH2 0x4069 DUP4 DUP3 PUSH2 0x3F07 JUMP JUMPDEST SWAP3 POP POP POP PUSH2 0x120 DUP1 DUP5 ADD MLOAD DUP6 DUP4 SUB DUP3 DUP8 ADD MSTORE PUSH2 0x4085 DUP4 DUP3 PUSH2 0x3F07 JUMP JUMPDEST SWAP3 POP POP POP PUSH2 0x140 DUP1 DUP5 ADD MLOAD DUP6 DUP4 SUB DUP3 DUP8 ADD MSTORE PUSH2 0x40A1 DUP4 DUP3 PUSH2 0x3F07 JUMP JUMPDEST SWAP3 POP POP POP PUSH2 0x160 DUP1 DUP5 ADD MLOAD DUP6 DUP4 SUB DUP3 DUP8 ADD MSTORE PUSH2 0x40BD DUP4 DUP3 PUSH2 0x3F07 JUMP JUMPDEST SWAP7 SWAP6 POP POP POP POP POP POP JUMP JUMPDEST PUSH1 0x20 DUP2 MSTORE PUSH1 0x0 PUSH2 0xEC6 PUSH1 0x20 DUP4 ADD DUP5 PUSH2 0x3FE1 JUMP JUMPDEST PUSH1 0x0 PUSH1 0x20 DUP3 DUP5 SUB SLT ISZERO PUSH2 0x40EC JUMPI PUSH1 0x0 DUP1 REVERT JUMPDEST PUSH2 0xEC6 DUP3 PUSH2 0x3F5F JUMP JUMPDEST PUSH4 0x4E487B71 PUSH1 0xE0 SHL PUSH1 0x0 MSTORE PUSH1 0x41 PUSH1 0x4 MSTORE PUSH1 0x24 PUSH1 0x0 REVERT JUMPDEST PUSH1 0x0 DUP3 PUSH1 0x1F DUP4 ADD SLT PUSH2 0x411C JUMPI PUSH1 0x0 DUP1 REVERT JUMPDEST DUP2 CALLDATALOAD PUSH8 0xFFFFFFFFFFFFFFFF DUP1 DUP3 GT ISZERO PUSH2 0x4137 JUMPI PUSH2 0x4137 PUSH2 0x40F5 JUMP JUMPDEST PUSH1 0x40 MLOAD PUSH1 0x1F DUP4 ADD PUSH1 0x1F NOT SWAP1 DUP2 AND PUSH1 0x3F ADD AND DUP2 ADD SWAP1 DUP3 DUP3 GT DUP2 DUP4 LT OR ISZERO PUSH2 0x415F JUMPI PUSH2 0x415F PUSH2 0x40F5 JUMP JUMPDEST DUP2 PUSH1 0x40 MSTORE DUP4 DUP2 MSTORE DUP7 PUSH1 0x20 DUP6 DUP9 ADD ADD GT ISZERO PUSH2 0x4178 JUMPI PUSH1 0x0 DUP1 REVERT JUMPDEST DUP4 PUSH1 0x20 DUP8 ADD PUSH1 0x20 DUP4 ADD CALLDATACOPY PUSH1 0x0 PUSH1 0x20 DUP6 DUP4 ADD ADD MSTORE DUP1 SWAP5 POP POP POP POP POP SWAP3 SWAP2 POP POP JUMP JUMPDEST PUSH1 0x0 DUP1 PUSH1 0x40 DUP4 DUP6 SUB SLT ISZERO PUSH2 0x41AB JUMPI PUSH1 0x0 DUP1 REVERT JUMPDEST PUSH2 0x41B4 DUP4 PUSH2 0x3F5F JUMP JUMPDEST SWAP2 POP PUSH1 0x20 DUP4 ADD CALLDATALOAD PUSH8 0xFFFFFFFFFFFFFFFF DUP2 GT ISZERO PUSH2 0x41D0 JUMPI PUSH1 0x0 DUP1 REVERT JUMPDEST PUSH2 0x41DC DUP6 DUP3 DUP7 ADD PUSH2 0x410B JUMP JUMPDEST SWAP2 POP POP SWAP3 POP SWAP3 SWAP1 POP JUMP JUMPDEST PUSH1 0x0 PUSH1 0x20 DUP3 DUP5 SUB SLT ISZERO PUSH2 0x41F8 JUMPI PUSH1 0x0 DUP1 REVERT JUMPDEST DUP2 CALLDATALOAD PUSH8 0xFFFFFFFFFFFFFFFF DUP2 GT ISZERO PUSH2 0x420F JUMPI PUSH1 0x0 DUP1 REVERT JUMPDEST PUSH2 0x225C DUP5 DUP3 DUP6 ADD PUSH2 0x410B JUMP JUMPDEST PUSH1 0x0 PUSH1 0x20 DUP1 DUP4 ADD DUP2 DUP5 MSTORE DUP1 DUP6 MLOAD DUP1 DUP4 MSTORE PUSH1 0x40 DUP7 ADD SWAP2 POP PUSH1 0x40 DUP2 PUSH1 0x5 SHL DUP8 ADD ADD SWAP3 POP DUP4 DUP8 ADD PUSH1 0x0 JUMPDEST DUP3 DUP2 LT ISZERO PUSH2 0x4270 JUMPI PUSH1 0x3F NOT DUP9 DUP7 SUB ADD DUP5 MSTORE PUSH2 0x425E DUP6 DUP4 MLOAD PUSH2 0x3FE1 JUMP JUMPDEST SWAP5 POP SWAP3 DUP6 ADD SWAP3 SWAP1 DUP6 ADD SWAP1 PUSH1 0x1 ADD PUSH2 0x4242 JUMP JUMPDEST POP SWAP3 SWAP8 SWAP7 POP POP POP POP POP POP POP JUMP JUMPDEST PUSH1 0x0 DUP1 PUSH1 0x0 DUP1 PUSH1 0x0 DUP1 PUSH1 0x0 DUP1 PUSH1 0x0 DUP1 PUSH1 0x0 PUSH2 0x160 DUP13 DUP15 SUB SLT ISZERO PUSH2 0x429F JUMPI PUSH1 0x0 DUP1 REVERT JUMPDEST DUP12 CALLDATALOAD SWAP11 POP PUSH8 0xFFFFFFFFFFFFFFFF DUP1 PUSH1 0x20 DUP15 ADD CALLDATALOAD GT ISZERO PUSH2 0x42BD JUMPI PUSH1 0x0 DUP1 REVERT JUMPDEST PUSH2 0x42CD DUP15 PUSH1 0x20 DUP16 ADD CALLDATALOAD DUP16 ADD PUSH2 0x410B JUMP JUMPDEST SWAP11 POP DUP1 PUSH1 0x40 DUP15 ADD CALLDATALOAD GT ISZERO PUSH2 0x42E0 JUMPI PUSH1 0x0 DUP1 REVERT JUMPDEST PUSH2 0x42F0 DUP15 PUSH1 0x40 DUP16 ADD CALLDATALOAD DUP16 ADD PUSH2 0x410B JUMP JUMPDEST SWAP10 POP PUSH1 0x60 DUP14 ADD CALLDATALOAD SWAP9 POP PUSH1 0x80 DUP14 ADD CALLDATALOAD SWAP8 POP DUP1 PUSH1 0xA0 DUP15 ADD CALLDATALOAD GT ISZERO PUSH2 0x4311 JUMPI PUSH1 0x0 DUP1 REVERT JUMPDEST PUSH2 0x4321 DUP15 PUSH1 0xA0 DUP16 ADD CALLDATALOAD DUP16 ADD PUSH2 0x410B JUMP JUMPDEST SWAP7 POP DUP1 PUSH1 0xC0 DUP15 ADD CALLDATALOAD GT ISZERO PUSH2 0x4334 JUMPI PUSH1 0x0 DUP1 REVERT JUMPDEST PUSH2 0x4344 DUP15 PUSH1 0xC0 DUP16 ADD CALLDATALOAD DUP16 ADD PUSH2 0x410B JUMP JUMPDEST SWAP6 POP PUSH1 0xE0 DUP14 ADD CALLDATALOAD SWAP5 POP PUSH2 0x435A PUSH2 0x100 DUP15 ADD PUSH2 0x3F5F JUMP JUMPDEST SWAP4 POP DUP1 PUSH2 0x120 DUP15 ADD CALLDATALOAD GT ISZERO PUSH2 0x436E JUMPI PUSH1 0x0 DUP1 REVERT JUMPDEST POP PUSH2 0x4380 DUP14 PUSH2 0x120 DUP15 ADD CALLDATALOAD DUP15 ADD PUSH2 0x410B JUMP JUMPDEST SWAP2 POP PUSH2 0x140 DUP13 ADD CALLDATALOAD SWAP1 POP SWAP3 SWAP6 SWAP9 SWAP12 POP SWAP3 SWAP6 SWAP9 SWAP12 SWAP1 SWAP4 SWAP7 SWAP10 POP JUMP JUMPDEST PUSH1 0x0 DUP1 PUSH1 0x40 DUP4 DUP6 SUB SLT ISZERO PUSH2 0x43AD JUMPI PUSH1 0x0 DUP1 REVERT JUMPDEST POP POP DUP1 CALLDATALOAD SWAP3 PUSH1 0x20 SWAP1 SWAP2 ADD CALLDATALOAD SWAP2 POP JUMP JUMPDEST PUSH1 0x0 DUP1 PUSH1 0x40 DUP4 DUP6 SUB SLT ISZERO PUSH2 0x43CF JUMPI PUSH1 0x0 DUP1 REVERT JUMPDEST PUSH2 0x43D8 DUP4 PUSH2 0x3F5F JUMP JUMPDEST SWAP2 POP PUSH1 0x20 DUP4 ADD CALLDATALOAD DUP1 ISZERO ISZERO DUP2 EQ PUSH2 0x43ED JUMPI PUSH1 0x0 DUP1 REVERT JUMPDEST DUP1 SWAP2 POP POP SWAP3 POP SWAP3 SWAP1 POP JUMP JUMPDEST PUSH1 0x0 DUP1 PUSH1 0x0 DUP1 PUSH1 0x80 DUP6 DUP8 SUB SLT ISZERO PUSH2 0x440E JUMPI PUSH1 0x0 DUP1 REVERT JUMPDEST PUSH2 0x4417 DUP6 PUSH2 0x3F5F JUMP JUMPDEST SWAP4 POP PUSH2 0x4425 PUSH1 0x20 DUP7 ADD PUSH2 0x3F5F JUMP JUMPDEST SWAP3 POP PUSH1 0x40 DUP6 ADD CALLDATALOAD SWAP2 POP PUSH1 0x60 DUP6 ADD CALLDATALOAD PUSH8 0xFFFFFFFFFFFFFFFF DUP2 GT ISZERO PUSH2 0x4448 JUMPI PUSH1 0x0 DUP1 REVERT JUMPDEST PUSH2 0x4454 DUP8 DUP3 DUP9 ADD PUSH2 0x410B JUMP JUMPDEST SWAP2 POP POP SWAP3 SWAP6 SWAP2 SWAP5 POP SWAP3 POP JUMP JUMPDEST PUSH1 0x0 DUP1 PUSH1 0x40 DUP4 DUP6 SUB SLT ISZERO PUSH2 0x4473 JUMPI PUSH1 0x0 DUP1 REVERT JUMPDEST PUSH2 0x447C DUP4 PUSH2 0x3F5F JUMP JUMPDEST SWAP2 POP PUSH2 0x448A PUSH1 0x20 DUP5 ADD PUSH2 0x3F5F JUMP JUMPDEST SWAP1 POP SWAP3 POP SWAP3 SWAP1 POP JUMP JUMPDEST PUSH1 0x1 DUP2 DUP2 SHR SWAP1 DUP3 AND DUP1 PUSH2 0x44A7 JUMPI PUSH1 0x7F DUP3 AND SWAP2 POP JUMPDEST PUSH1 0x20 DUP3 LT DUP2 SUB PUSH2 0x44C7 JUMPI PUSH4 0x4E487B71 PUSH1 0xE0 SHL PUSH1 0x0 MSTORE PUSH1 0x22 PUSH1 0x4 MSTORE PUSH1 0x24 PUSH1 0x0 REVERT JUMPDEST POP SWAP2 SWAP1 POP JUMP JUMPDEST DUP1 DUP3 ADD DUP1 DUP3 GT ISZERO PUSH2 0x77E JUMPI PUSH4 0x4E487B71 PUSH1 0xE0 SHL PUSH1 0x0 MSTORE PUSH1 0x11 PUSH1 0x4 MSTORE PUSH1 0x24 PUSH1 0x0 REVERT JUMPDEST PUSH1 0x0 DUP3 MLOAD PUSH2 0x4500 DUP2 DUP5 PUSH1 0x20 DUP8 ADD PUSH2 0x3EE3 JUMP JUMPDEST SWAP2 SWAP1 SWAP2 ADD SWAP3 SWAP2 POP POP JUMP JUMPDEST PUSH1 0x0 DUP1 DUP4 SLOAD PUSH2 0x4518 DUP2 PUSH2 0x4493 JUMP JUMPDEST PUSH1 0x1 DUP3 DUP2 AND DUP1 ISZERO PUSH2 0x4530 JUMPI PUSH1 0x1 DUP2 EQ PUSH2 0x4545 JUMPI PUSH2 0x4574 JUMP JUMPDEST PUSH1 0xFF NOT DUP5 AND DUP8 MSTORE DUP3 ISZERO ISZERO DUP4 MUL DUP8 ADD SWAP5 POP PUSH2 0x4574 JUMP JUMPDEST DUP8 PUSH1 0x0 MSTORE PUSH1 0x20 DUP1 PUSH1 0x0 KECCAK256 PUSH1 0x0 JUMPDEST DUP6 DUP2 LT ISZERO PUSH2 0x456B JUMPI DUP2 SLOAD DUP11 DUP3 ADD MSTORE SWAP1 DUP5 ADD SWAP1 DUP3 ADD PUSH2 0x4552 JUMP JUMPDEST POP POP POP DUP3 DUP8 ADD SWAP5 POP JUMPDEST POP SWAP3 SWAP7 SWAP6 POP POP POP POP POP POP JUMP JUMPDEST PUSH1 0x1F DUP3 GT ISZERO PUSH2 0x952 JUMPI PUSH1 0x0 DUP2 DUP2 MSTORE PUSH1 0x20 DUP2 KECCAK256 PUSH1 0x1F DUP6 ADD PUSH1 0x5 SHR DUP2 ADD PUSH1 0x20 DUP7 LT ISZERO PUSH2 0x45A7 JUMPI POP DUP1 JUMPDEST PUSH1 0x1F DUP6 ADD PUSH1 0x5 SHR DUP3 ADD SWAP2 POP JUMPDEST DUP2 DUP2 LT ISZERO PUSH2 0x45C6 JUMPI DUP3 DUP2 SSTORE PUSH1 0x1 ADD PUSH2 0x45B3 JUMP JUMPDEST POP POP POP POP POP POP JUMP JUMPDEST DUP2 MLOAD PUSH8 0xFFFFFFFFFFFFFFFF DUP2 GT ISZERO PUSH2 0x45E8 JUMPI PUSH2 0x45E8 PUSH2 0x40F5 JUMP JUMPDEST PUSH2 0x45FC DUP2 PUSH2 0x45F6 DUP5 SLOAD PUSH2 0x4493 JUMP JUMPDEST DUP5 PUSH2 0x4580 JUMP JUMPDEST PUSH1 0x20 DUP1 PUSH1 0x1F DUP4 GT PUSH1 0x1 DUP2 EQ PUSH2 0x4631 JUMPI PUSH1 0x0 DUP5 ISZERO PUSH2 0x4619 JUMPI POP DUP6 DUP4 ADD MLOAD JUMPDEST PUSH1 0x0 NOT PUSH1 0x3 DUP7 SWAP1 SHL SHR NOT AND PUSH1 0x1 DUP6 SWAP1 SHL OR DUP6 SSTORE PUSH2 0x45C6 JUMP JUMPDEST PUSH1 0x0 DUP6 DUP2 MSTORE PUSH1 0x20 DUP2 KECCAK256 PUSH1 0x1F NOT DUP7 AND SWAP2 JUMPDEST DUP3 DUP2 LT ISZERO PUSH2 0x4660 JUMPI DUP9 DUP7 ADD MLOAD DUP3 SSTORE SWAP5 DUP5 ADD SWAP5 PUSH1 0x1 SWAP1 SWAP2 ADD SWAP1 DUP5 ADD PUSH2 0x4641 JUMP JUMPDEST POP DUP6 DUP3 LT ISZERO PUSH2 0x467E JUMPI DUP8 DUP6 ADD MLOAD PUSH1 0x0 NOT PUSH1 0x3 DUP9 SWAP1 SHL PUSH1 0xF8 AND SHR NOT AND DUP2 SSTORE JUMPDEST POP POP POP POP POP PUSH1 0x1 SWAP1 DUP2 SHL ADD SWAP1 SSTORE POP JUMP JUMPDEST PUSH4 0x4E487B71 PUSH1 0xE0 SHL PUSH1 0x0 MSTORE PUSH1 0x32 PUSH1 0x4 MSTORE PUSH1 0x24 PUSH1 0x0 REVERT JUMPDEST PUSH1 0x0 PUSH1 0x20 DUP3 DUP5 SUB SLT ISZERO PUSH2 0x46B6 JUMPI PUSH1 0x0 DUP1 REVERT JUMPDEST POP MLOAD SWAP2 SWAP1 POP JUMP JUMPDEST PUSH1 0x0 PUSH2 0x180 DUP15 DUP4 MSTORE DUP1 PUSH1 0x20 DUP5 ADD MSTORE PUSH2 0x46D7 DUP2 DUP5 ADD DUP16 PUSH2 0x3F07 JUMP JUMPDEST SWAP1 POP DUP13 PUSH1 0x40 DUP5 ADD MSTORE DUP12 PUSH1 0x60 DUP5 ADD MSTORE DUP3 DUP2 SUB PUSH1 0x80 DUP5 ADD MSTORE PUSH2 0x46F7 DUP2 DUP13 PUSH2 0x3F07 JUMP JUMPDEST SWAP1 POP DUP3 DUP2 SUB PUSH1 0xA0 DUP5 ADD MSTORE PUSH2 0x470B DUP2 DUP12 PUSH2 0x3F07 JUMP JUMPDEST SWAP1 POP DUP9 PUSH1 0xC0 DUP5 ADD MSTORE PUSH1 0x1 PUSH1 0x1 PUSH1 0xA0 SHL SUB DUP9 AND PUSH1 0xE0 DUP5 ADD MSTORE DUP3 DUP2 SUB PUSH2 0x100 DUP5 ADD MSTORE PUSH2 0x4735 DUP2 DUP9 PUSH2 0x3F07 JUMP JUMPDEST PUSH2 0x120 DUP5 ADD SWAP7 SWAP1 SWAP7 MSTORE POP POP PUSH2 0x140 DUP2 ADD SWAP3 SWAP1 SWAP3 MSTORE PUSH2 0x160 SWAP1 SWAP2 ADD MSTORE SWAP10 SWAP9 POP POP POP POP POP POP POP POP POP JUMP JUMPDEST PUSH1 0x0 DUP4 MLOAD PUSH2 0x476F DUP2 DUP5 PUSH1 0x20 DUP9 ADD PUSH2 0x3EE3 JUMP JUMPDEST DUP4 MLOAD SWAP1 DUP4 ADD SWAP1 PUSH2 0x4783 DUP2 DUP4 PUSH1 0x20 DUP9 ADD PUSH2 0x3EE3 JUMP JUMPDEST ADD SWAP5 SWAP4 POP POP POP POP JUMP JUMPDEST PUSH1 0x0 PUSH1 0x1 PUSH1 0x1 PUSH1 0xA0 SHL SUB DUP1 DUP8 AND DUP4 MSTORE DUP1 DUP7 AND PUSH1 0x20 DUP5 ADD MSTORE POP DUP4 PUSH1 0x40 DUP4 ADD MSTORE PUSH1 0x80 PUSH1 0x60 DUP4 ADD MSTORE PUSH2 0x40BD PUSH1 0x80 DUP4 ADD DUP5 PUSH2 0x3F07 JUMP JUMPDEST PUSH1 0x0 PUSH1 0x20 DUP3 DUP5 SUB SLT ISZERO PUSH2 0x47D0 JUMPI PUSH1 0x0 DUP1 REVERT JUMPDEST DUP2 MLOAD PUSH2 0xEC6 DUP2 PUSH2 0x3EB0 JUMP INVALID GASLIMIT MSTORE NUMBER CALLDATACOPY ORIGIN BALANCE GASPRICE KECCAK256 PUSH16 0x776E657220717565727920666F72206E PUSH16 0x6E6578697374656E7420746F6B656E49 PUSH15 0x697469616C697A61626C653A20636F PUSH15 0x7472616374206973206E6F74206941 PUSH5 0x6472657373 GASPRICE KECCAK256 PUSH13 0x6F772D6C6576656C2064656C65 PUSH8 0x6174652063616C6C KECCAK256 PUSH7 0x61696C6564A164 PUSH20 0x6F6C6343000810000A0000000000000000000000 "},"methodIdentifiers":{"SYTEMAP_SYMBOL()":"3f35198e","approve(address,uint256)":"095ea7b3","balanceOf(address)":"70a08231","burn(uint256)":"42966c68","changePropertyPriceByOwner(uint256,uint256)":"90cbe759","getAllMintedPropertyDetails()":"93d3e755","getAllPropertyDetailsByOwner(address)":"5939f777","getApproved(uint256)":"081812fc","getNumberOfPropertyTokensMinted()":"c5719298","getPropertyInfoDetailsByPVN(uint256)":"245f0ca4","getPropertyVerificationNoOwner(uint256)":"e4a9614a","getTotalNumberOfPropertyOwnedByAnAddress(address)":"c62e5581","initialize(string)":"f62d1888","isApprovedForAll(address,address)":"e985e9c5","name()":"06fdde03","owner()":"8da5cb5b","ownerOf(uint256)":"6352211e","pause()":"8456cb59","paused()":"5c975abb","proxiableUUID()":"52d1902d","renounceOwnership()":"715018a6","safeMintNewPropertyInfo(uint256,string,string,uint256,uint256,string,string,uint256,address,string,uint256)":"80b0fd0a","safeTransferFrom(address,address,uint256)":"42842e0e","safeTransferFrom(address,address,uint256,bytes)":"b88d4fde","setApprovalForAll(address,bool)":"a22cb465","setBaseURI(string)":"55f804b3","supportsInterface(bytes4)":"01ffc9a7","symbol()":"95d89b41","tokenByIndex(uint256)":"4f6ccce7","tokenOfOwnerByIndex(address,uint256)":"2f745c59","tokenURI(uint256)":"c87b56dd","totalSupply()":"18160ddd","transferFrom(address,address,uint256)":"23b872dd","transferOwnership(address)":"f2fde38b","unpause()":"3f4ba83a","upgradeTo(address)":"3659cfe6","upgradeToAndCall(address,bytes)":"4f1ef286"}},"storageLayout":{"storage":[{"astId":534,"contract":"contracts/SytemapAssetRegistry.sol:SytemapAssetRegistry","label":"_initialized","offset":0,"slot":"0","type":"t_uint8"},{"astId":537,"contract":"contracts/SytemapAssetRegistry.sol:SytemapAssetRegistry","label":"_initializing","offset":1,"slot":"0","type":"t_bool"},{"astId":3070,"contract":"contracts/SytemapAssetRegistry.sol:SytemapAssetRegistry","label":"__gap","offset":0,"slot":"1","type":"t_array(t_uint256)50_storage"},{"astId":3423,"contract":"contracts/SytemapAssetRegistry.sol:SytemapAssetRegistry","label":"__gap","offset":0,"slot":"51","type":"t_array(t_uint256)50_storage"},{"astId":1061,"contract":"contracts/SytemapAssetRegistry.sol:SytemapAssetRegistry","label":"_name","offset":0,"slot":"101","type":"t_string_storage"},{"astId":1063,"contract":"contracts/SytemapAssetRegistry.sol:SytemapAssetRegistry","label":"_symbol","offset":0,"slot":"102","type":"t_string_storage"},{"astId":1067,"contract":"contracts/SytemapAssetRegistry.sol:SytemapAssetRegistry","label":"_owners","offset":0,"slot":"103","type":"t_mapping(t_uint256,t_address)"},{"astId":1071,"contract":"contracts/SytemapAssetRegistry.sol:SytemapAssetRegistry","label":"_balances","offset":0,"slot":"104","type":"t_mapping(t_address,t_uint256)"},{"astId":1075,"contract":"contracts/SytemapAssetRegistry.sol:SytemapAssetRegistry","label":"_tokenApprovals","offset":0,"slot":"105","type":"t_mapping(t_uint256,t_address)"},{"astId":1081,"contract":"contracts/SytemapAssetRegistry.sol:SytemapAssetRegistry","label":"_operatorApprovals","offset":0,"slot":"106","type":"t_mapping(t_address,t_mapping(t_address,t_bool))"},{"astId":1983,"contract":"contracts/SytemapAssetRegistry.sol:SytemapAssetRegistry","label":"__gap","offset":0,"slot":"107","type":"t_array(t_uint256)44_storage"},{"astId":2570,"contract":"contracts/SytemapAssetRegistry.sol:SytemapAssetRegistry","label":"_tokenURIs","offset":0,"slot":"151","type":"t_mapping(t_uint256,t_string_storage)"},{"astId":2686,"contract":"contracts/SytemapAssetRegistry.sol:SytemapAssetRegistry","label":"__gap","offset":0,"slot":"152","type":"t_array(t_uint256)49_storage"},{"astId":853,"contract":"contracts/SytemapAssetRegistry.sol:SytemapAssetRegistry","label":"_paused","offset":0,"slot":"201","type":"t_bool"},{"astId":958,"contract":"contracts/SytemapAssetRegistry.sol:SytemapAssetRegistry","label":"__gap","offset":0,"slot":"202","type":"t_array(t_uint256)49_storage"},{"astId":10,"contract":"contracts/SytemapAssetRegistry.sol:SytemapAssetRegistry","label":"_owner","offset":0,"slot":"251","type":"t_address"},{"astId":130,"contract":"contracts/SytemapAssetRegistry.sol:SytemapAssetRegistry","label":"__gap","offset":0,"slot":"252","type":"t_array(t_uint256)49_storage"},{"astId":2167,"contract":"contracts/SytemapAssetRegistry.sol:SytemapAssetRegistry","label":"__gap","offset":0,"slot":"301","type":"t_array(t_uint256)50_storage"},{"astId":516,"contract":"contracts/SytemapAssetRegistry.sol:SytemapAssetRegistry","label":"__gap","offset":0,"slot":"351","type":"t_array(t_uint256)50_storage"},{"astId":831,"contract":"contracts/SytemapAssetRegistry.sol:SytemapAssetRegistry","label":"__gap","offset":0,"slot":"401","type":"t_array(t_uint256)50_storage"},{"astId":973,"contract":"contracts/SytemapAssetRegistry.sol:SytemapAssetRegistry","label":"_status","offset":0,"slot":"451","type":"t_uint256"},{"astId":1031,"contract":"contracts/SytemapAssetRegistry.sol:SytemapAssetRegistry","label":"__gap","offset":0,"slot":"452","type":"t_array(t_uint256)49_storage"},{"astId":6085,"contract":"contracts/SytemapAssetRegistry.sol:SytemapAssetRegistry","label":"baseTokenURI","offset":0,"slot":"501","type":"t_string_storage"},{"astId":6096,"contract":"contracts/SytemapAssetRegistry.sol:SytemapAssetRegistry","label":"_tokenIdTracker","offset":0,"slot":"502","type":"t_struct(Counter)3077_storage"},{"astId":6102,"contract":"contracts/SytemapAssetRegistry.sol:SytemapAssetRegistry","label":"_pvnToPropertInfo","offset":0,"slot":"503","type":"t_mapping(t_uint256,t_struct(PropertyInffo)6945_storage)"},{"astId":6107,"contract":"contracts/SytemapAssetRegistry.sol:SytemapAssetRegistry","label":"_holderTokens","offset":0,"slot":"504","type":"t_mapping(t_address,t_struct(UintSet)5906_storage)"},{"astId":6110,"contract":"contracts/SytemapAssetRegistry.sol:SytemapAssetRegistry","label":"_tokenOwners","offset":0,"slot":"505","type":"t_struct(UintToAddressMap)4754_storage"},{"astId":6114,"contract":"contracts/SytemapAssetRegistry.sol:SytemapAssetRegistry","label":"_propertyVerificationNumberToTokenId","offset":0,"slot":"508","type":"t_mapping(t_uint256,t_uint256)"}],"types":{"t_address":{"encoding":"inplace","label":"address","numberOfBytes":"20"},"t_array(t_bytes32)dyn_storage":{"base":"t_bytes32","encoding":"dynamic_array","label":"bytes32[]","numberOfBytes":"32"},"t_array(t_uint256)44_storage":{"base":"t_uint256","encoding":"inplace","label":"uint256[44]","numberOfBytes":"1408"},"t_array(t_uint256)49_storage":{"base":"t_uint256","encoding":"inplace","label":"uint256[49]","numberOfBytes":"1568"},"t_array(t_uint256)50_storage":{"base":"t_uint256","encoding":"inplace","label":"uint256[50]","numberOfBytes":"1600"},"t_bool":{"encoding":"inplace","label":"bool","numberOfBytes":"1"},"t_bytes32":{"encoding":"inplace","label":"bytes32","numberOfBytes":"32"},"t_mapping(t_address,t_bool)":{"encoding":"mapping","key":"t_address","label":"mapping(address => bool)","numberOfBytes":"32","value":"t_bool"},"t_mapping(t_address,t_mapping(t_address,t_bool))":{"encoding":"mapping","key":"t_address","label":"mapping(address => mapping(address => bool))","numberOfBytes":"32","value":"t_mapping(t_address,t_bool)"},"t_mapping(t_address,t_struct(UintSet)5906_storage)":{"encoding":"mapping","key":"t_address","label":"mapping(address => struct EnumerableSetUpgradeable.UintSet)","numberOfBytes":"32","value":"t_struct(UintSet)5906_storage"},"t_mapping(t_address,t_uint256)":{"encoding":"mapping","key":"t_address","label":"mapping(address => uint256)","numberOfBytes":"32","value":"t_uint256"},"t_mapping(t_bytes32,t_bytes32)":{"encoding":"mapping","key":"t_bytes32","label":"mapping(bytes32 => bytes32)","numberOfBytes":"32","value":"t_bytes32"},"t_mapping(t_bytes32,t_uint256)":{"encoding":"mapping","key":"t_bytes32","label":"mapping(bytes32 => uint256)","numberOfBytes":"32","value":"t_uint256"},"t_mapping(t_uint256,t_address)":{"encoding":"mapping","key":"t_uint256","label":"mapping(uint256 => address)","numberOfBytes":"32","value":"t_address"},"t_mapping(t_uint256,t_string_storage)":{"encoding":"mapping","key":"t_uint256","label":"mapping(uint256 => string)","numberOfBytes":"32","value":"t_string_storage"},"t_mapping(t_uint256,t_struct(PropertyInffo)6945_storage)":{"encoding":"mapping","key":"t_uint256","label":"mapping(uint256 => struct ISytemapAssetRegistry.PropertyInffo)","numberOfBytes":"32","value":"t_struct(PropertyInffo)6945_storage"},"t_mapping(t_uint256,t_uint256)":{"encoding":"mapping","key":"t_uint256","label":"mapping(uint256 => uint256)","numberOfBytes":"32","value":"t_uint256"},"t_string_storage":{"encoding":"bytes","label":"string","numberOfBytes":"32"},"t_struct(Bytes32Set)5628_storage":{"encoding":"inplace","label":"struct EnumerableSetUpgradeable.Bytes32Set","members":[{"astId":5627,"contract":"contracts/SytemapAssetRegistry.sol:SytemapAssetRegistry","label":"_inner","offset":0,"slot":"0","type":"t_struct(Set)5434_storage"}],"numberOfBytes":"64"},"t_struct(Bytes32ToBytes32Map)4317_storage":{"encoding":"inplace","label":"struct EnumerableMapUpgradeable.Bytes32ToBytes32Map","members":[{"astId":4312,"contract":"contracts/SytemapAssetRegistry.sol:SytemapAssetRegistry","label":"_keys","offset":0,"slot":"0","type":"t_struct(Bytes32Set)5628_storage"},{"astId":4316,"contract":"contracts/SytemapAssetRegistry.sol:SytemapAssetRegistry","label":"_values","offset":0,"slot":"2","type":"t_mapping(t_bytes32,t_bytes32)"}],"numberOfBytes":"96"},"t_struct(Counter)3077_storage":{"encoding":"inplace","label":"struct CountersUpgradeable.Counter","members":[{"astId":3076,"contract":"contracts/SytemapAssetRegistry.sol:SytemapAssetRegistry","label":"_value","offset":0,"slot":"0","type":"t_uint256"}],"numberOfBytes":"32"},"t_struct(PropertyInffo)6945_storage":{"encoding":"inplace","label":"struct ISytemapAssetRegistry.PropertyInffo","members":[{"astId":6922,"contract":"contracts/SytemapAssetRegistry.sol:SytemapAssetRegistry","label":"plotNo","offset":0,"slot":"0","type":"t_uint256"},{"astId":6924,"contract":"contracts/SytemapAssetRegistry.sol:SytemapAssetRegistry","label":"priceOfPlot","offset":0,"slot":"1","type":"t_uint256"},{"astId":6926,"contract":"contracts/SytemapAssetRegistry.sol:SytemapAssetRegistry","label":"sizeOfPlot","offset":0,"slot":"2","type":"t_uint256"},{"astId":6928,"contract":"contracts/SytemapAssetRegistry.sol:SytemapAssetRegistry","label":"coordinateOfPlot","offset":0,"slot":"3","type":"t_uint256"},{"astId":6930,"contract":"contracts/SytemapAssetRegistry.sol:SytemapAssetRegistry","label":"propertyVerificationNo","offset":0,"slot":"4","type":"t_uint256"},{"astId":6932,"contract":"contracts/SytemapAssetRegistry.sol:SytemapAssetRegistry","label":"timestamp","offset":0,"slot":"5","type":"t_uint256"},{"astId":6934,"contract":"contracts/SytemapAssetRegistry.sol:SytemapAssetRegistry","label":"buyerWalletId","offset":0,"slot":"6","type":"t_address"},{"astId":6936,"contract":"contracts/SytemapAssetRegistry.sol:SytemapAssetRegistry","label":"tokenURL","offset":0,"slot":"7","type":"t_string_storage"},{"astId":6938,"contract":"contracts/SytemapAssetRegistry.sol:SytemapAssetRegistry","label":"estateName","offset":0,"slot":"8","type":"t_string_storage"},{"astId":6940,"contract":"contracts/SytemapAssetRegistry.sol:SytemapAssetRegistry","label":"plotUrl","offset":0,"slot":"9","type":"t_string_storage"},{"astId":6942,"contract":"contracts/SytemapAssetRegistry.sol:SytemapAssetRegistry","label":"dateOfAllocation","offset":0,"slot":"10","type":"t_string_storage"},{"astId":6944,"contract":"contracts/SytemapAssetRegistry.sol:SytemapAssetRegistry","label":"estateCompanyName","offset":0,"slot":"11","type":"t_string_storage"}],"numberOfBytes":"384"},"t_struct(Set)5434_storage":{"encoding":"inplace","label":"struct EnumerableSetUpgradeable.Set","members":[{"astId":5429,"contract":"contracts/SytemapAssetRegistry.sol:SytemapAssetRegistry","label":"_values","offset":0,"slot":"0","type":"t_array(t_bytes32)dyn_storage"},{"astId":5433,"contract":"contracts/SytemapAssetRegistry.sol:SytemapAssetRegistry","label":"_indexes","offset":0,"slot":"1","type":"t_mapping(t_bytes32,t_uint256)"}],"numberOfBytes":"64"},"t_struct(UintSet)5906_storage":{"encoding":"inplace","label":"struct EnumerableSetUpgradeable.UintSet","members":[{"astId":5905,"contract":"contracts/SytemapAssetRegistry.sol:SytemapAssetRegistry","label":"_inner","offset":0,"slot":"0","type":"t_struct(Set)5434_storage"}],"numberOfBytes":"64"},"t_struct(UintToAddressMap)4754_storage":{"encoding":"inplace","label":"struct EnumerableMapUpgradeable.UintToAddressMap","members":[{"astId":4753,"contract":"contracts/SytemapAssetRegistry.sol:SytemapAssetRegistry","label":"_inner","offset":0,"slot":"0","type":"t_struct(Bytes32ToBytes32Map)4317_storage"}],"numberOfBytes":"96"},"t_uint256":{"encoding":"inplace","label":"uint256","numberOfBytes":"32"},"t_uint8":{"encoding":"inplace","label":"uint8","numberOfBytes":"1"}}}}}}