{"contracts/SytemapAssetRegistry.sol":{"SytemapAssetRegistry":{"abi":[{"inputs":[{"internalType":"string","name":"baseURI","type":"string"}],"stateMutability":"nonpayable","type":"constructor"},{"anonymous":false,"inputs":[{"indexed":true,"internalType":"address","name":"owner","type":"address"},{"indexed":true,"internalType":"address","name":"approved","type":"address"},{"indexed":true,"internalType":"uint256","name":"tokenId","type":"uint256"}],"name":"Approval","type":"event"},{"anonymous":false,"inputs":[{"indexed":true,"internalType":"address","name":"owner","type":"address"},{"indexed":true,"internalType":"address","name":"operator","type":"address"},{"indexed":false,"internalType":"bool","name":"approved","type":"bool"}],"name":"ApprovalForAll","type":"event"},{"anonymous":false,"inputs":[{"indexed":false,"internalType":"uint256","name":"plotNo","type":"uint256"},{"indexed":true,"internalType":"string","name":"tokenURL","type":"string"},{"indexed":false,"internalType":"string","name":"estateName","type":"string"},{"indexed":false,"internalType":"uint256","name":"priceOfPlot","type":"uint256"},{"indexed":false,"internalType":"uint256","name":"sizeOfPlot","type":"uint256"},{"indexed":false,"internalType":"string","name":"plotUrl","type":"string"},{"indexed":false,"internalType":"string","name":"dateOfAllocation","type":"string"},{"indexed":false,"internalType":"uint256","name":"coordinateOfPlot","type":"uint256"},{"indexed":false,"internalType":"address","name":"buyerWalletId","type":"address"},{"indexed":false,"internalType":"string","name":"estateCompanyName","type":"string"},{"indexed":false,"internalType":"uint256","name":"propertyVerificationNo","type":"uint256"},{"indexed":false,"internalType":"uint256","name":"tokenId","type":"uint256"},{"indexed":false,"internalType":"uint256","name":"timestamp","type":"uint256"}],"name":"NewPropertyInfoAdded","type":"event"},{"anonymous":false,"inputs":[{"indexed":true,"internalType":"address","name":"previousOwner","type":"address"},{"indexed":true,"internalType":"address","name":"newOwner","type":"address"}],"name":"OwnershipTransferred","type":"event"},{"anonymous":false,"inputs":[{"indexed":false,"internalType":"address","name":"owner","type":"address"},{"indexed":false,"internalType":"uint256","name":"propertyVerificationNo","type":"uint256"},{"indexed":false,"internalType":"uint256","name":"newPrice","type":"uint256"}],"name":"PropertyInfoPriceChanged","type":"event"},{"anonymous":false,"inputs":[{"indexed":true,"internalType":"uint256","name":"tokenId","type":"uint256"},{"indexed":true,"internalType":"uint256","name":"propertyVerificationNo","type":"uint256"},{"indexed":false,"internalType":"string","name":"tokenURL","type":"string"}],"name":"TokenMinted","type":"event"},{"anonymous":false,"inputs":[{"indexed":true,"internalType":"address","name":"from","type":"address"},{"indexed":true,"internalType":"address","name":"to","type":"address"},{"indexed":true,"internalType":"uint256","name":"tokenId","type":"uint256"}],"name":"Transfer","type":"event"},{"inputs":[],"name":"SYTEMAP_NAME","outputs":[{"internalType":"string","name":"","type":"string"}],"stateMutability":"view","type":"function"},{"inputs":[],"name":"SYTEMAP_SYMBOL","outputs":[{"internalType":"string","name":"","type":"string"}],"stateMutability":"view","type":"function"},{"inputs":[{"internalType":"address","name":"to","type":"address"},{"internalType":"uint256","name":"tokenId","type":"uint256"}],"name":"approve","outputs":[],"stateMutability":"nonpayable","type":"function"},{"inputs":[{"internalType":"address","name":"owner","type":"address"}],"name":"balanceOf","outputs":[{"internalType":"uint256","name":"","type":"uint256"}],"stateMutability":"view","type":"function"},{"inputs":[{"internalType":"uint256","name":"_propertyVerificationNo","type":"uint256"},{"internalType":"uint256","name":"_priceOfPlot","type":"uint256"}],"name":"changePropertyPriceByOwner","outputs":[{"internalType":"bool","name":"","type":"bool"}],"stateMutability":"nonpayable","type":"function"},{"inputs":[],"name":"getAllMintedPropertyDetails","outputs":[{"components":[{"internalType":"uint256","name":"plotNo","type":"uint256"},{"internalType":"uint256","name":"priceOfPlot","type":"uint256"},{"internalType":"uint256","name":"sizeOfPlot","type":"uint256"},{"internalType":"uint256","name":"coordinateOfPlot","type":"uint256"},{"internalType":"uint256","name":"propertyVerificationNo","type":"uint256"},{"internalType":"uint256","name":"timestamp","type":"uint256"},{"internalType":"address","name":"buyerWalletId","type":"address"},{"internalType":"string","name":"tokenURL","type":"string"},{"internalType":"string","name":"estateName","type":"string"},{"internalType":"string","name":"plotUrl","type":"string"},{"internalType":"string","name":"dateOfAllocation","type":"string"},{"internalType":"string","name":"estateCompanyName","type":"string"}],"internalType":"struct ISytemapAssetRegistry.PropertyInffo[]","name":"","type":"tuple[]"}],"stateMutability":"view","type":"function"},{"inputs":[{"internalType":"address","name":"owner","type":"address"}],"name":"getAllPropertyDetailsByOwner","outputs":[{"components":[{"internalType":"uint256","name":"plotNo","type":"uint256"},{"internalType":"uint256","name":"priceOfPlot","type":"uint256"},{"internalType":"uint256","name":"sizeOfPlot","type":"uint256"},{"internalType":"uint256","name":"coordinateOfPlot","type":"uint256"},{"internalType":"uint256","name":"propertyVerificationNo","type":"uint256"},{"internalType":"uint256","name":"timestamp","type":"uint256"},{"internalType":"address","name":"buyerWalletId","type":"address"},{"internalType":"string","name":"tokenURL","type":"string"},{"internalType":"string","name":"estateName","type":"string"},{"internalType":"string","name":"plotUrl","type":"string"},{"internalType":"string","name":"dateOfAllocation","type":"string"},{"internalType":"string","name":"estateCompanyName","type":"string"}],"internalType":"struct ISytemapAssetRegistry.PropertyInffo[]","name":"","type":"tuple[]"}],"stateMutability":"view","type":"function"},{"inputs":[{"internalType":"uint256","name":"tokenId","type":"uint256"}],"name":"getApproved","outputs":[{"internalType":"address","name":"","type":"address"}],"stateMutability":"view","type":"function"},{"inputs":[],"name":"getNumberOfPropertyTokensMinted","outputs":[{"internalType":"uint256","name":"","type":"uint256"}],"stateMutability":"view","type":"function"},{"inputs":[{"internalType":"uint256","name":"_propertyVerificationNo","type":"uint256"}],"name":"getPropertyInfoDetailsByPVN","outputs":[{"components":[{"internalType":"uint256","name":"plotNo","type":"uint256"},{"internalType":"uint256","name":"priceOfPlot","type":"uint256"},{"internalType":"uint256","name":"sizeOfPlot","type":"uint256"},{"internalType":"uint256","name":"coordinateOfPlot","type":"uint256"},{"internalType":"uint256","name":"propertyVerificationNo","type":"uint256"},{"internalType":"uint256","name":"timestamp","type":"uint256"},{"internalType":"address","name":"buyerWalletId","type":"address"},{"internalType":"string","name":"tokenURL","type":"string"},{"internalType":"string","name":"estateName","type":"string"},{"internalType":"string","name":"plotUrl","type":"string"},{"internalType":"string","name":"dateOfAllocation","type":"string"},{"internalType":"string","name":"estateCompanyName","type":"string"}],"internalType":"struct ISytemapAssetRegistry.PropertyInffo","name":"","type":"tuple"}],"stateMutability":"view","type":"function"},{"inputs":[{"internalType":"uint256","name":"_propertyVerificationNo","type":"uint256"}],"name":"getPropertyVerificationNoOwner","outputs":[{"internalType":"address","name":"","type":"address"}],"stateMutability":"view","type":"function"},{"inputs":[{"internalType":"address","name":"_owner","type":"address"}],"name":"getTotalNumberOfPropertyOwnedByAnAddress","outputs":[{"internalType":"uint256","name":"","type":"uint256"}],"stateMutability":"view","type":"function"},{"inputs":[{"internalType":"address","name":"owner","type":"address"},{"internalType":"address","name":"operator","type":"address"}],"name":"isApprovedForAll","outputs":[{"internalType":"bool","name":"","type":"bool"}],"stateMutability":"view","type":"function"},{"inputs":[],"name":"name","outputs":[{"internalType":"string","name":"","type":"string"}],"stateMutability":"view","type":"function"},{"inputs":[],"name":"owner","outputs":[{"internalType":"address","name":"","type":"address"}],"stateMutability":"view","type":"function"},{"inputs":[{"internalType":"uint256","name":"_tokenId","type":"uint256"}],"name":"ownerOf","outputs":[{"internalType":"address","name":"","type":"address"}],"stateMutability":"view","type":"function"},{"inputs":[],"name":"renounceOwnership","outputs":[],"stateMutability":"nonpayable","type":"function"},{"inputs":[{"internalType":"uint256","name":"_plotNo","type":"uint256"},{"internalType":"string","name":"_tokenURL","type":"string"},{"internalType":"string","name":"_estateName","type":"string"},{"internalType":"uint256","name":"_priceOfPlot","type":"uint256"},{"internalType":"uint256","name":"_sizeOfPlot","type":"uint256"},{"internalType":"string","name":"_plotUrl","type":"string"},{"internalType":"string","name":"_dateOfAllocation","type":"string"},{"internalType":"uint256","name":"_coordinateOfPlot","type":"uint256"},{"internalType":"address","name":"_buyerWalletId","type":"address"},{"internalType":"string","name":"_estateCompanyName","type":"string"},{"internalType":"uint256","name":"_propertyVerificationNo","type":"uint256"}],"name":"safeMintNewPropertyInfo","outputs":[],"stateMutability":"nonpayable","type":"function"},{"inputs":[{"internalType":"address","name":"from","type":"address"},{"internalType":"address","name":"to","type":"address"},{"internalType":"uint256","name":"tokenId","type":"uint256"}],"name":"safeTransferFrom","outputs":[],"stateMutability":"nonpayable","type":"function"},{"inputs":[{"internalType":"address","name":"from","type":"address"},{"internalType":"address","name":"to","type":"address"},{"internalType":"uint256","name":"tokenId","type":"uint256"},{"internalType":"bytes","name":"data","type":"bytes"}],"name":"safeTransferFrom","outputs":[],"stateMutability":"nonpayable","type":"function"},{"inputs":[{"internalType":"address","name":"operator","type":"address"},{"internalType":"bool","name":"approved","type":"bool"}],"name":"setApprovalForAll","outputs":[],"stateMutability":"nonpayable","type":"function"},{"inputs":[{"internalType":"string","name":"_baseTokenURI","type":"string"}],"name":"setBaseURI","outputs":[],"stateMutability":"nonpayable","type":"function"},{"inputs":[{"internalType":"bytes4","name":"interfaceId","type":"bytes4"}],"name":"supportsInterface","outputs":[{"internalType":"bool","name":"","type":"bool"}],"stateMutability":"view","type":"function"},{"inputs":[],"name":"symbol","outputs":[{"internalType":"string","name":"","type":"string"}],"stateMutability":"view","type":"function"},{"inputs":[{"internalType":"uint256","name":"index","type":"uint256"}],"name":"tokenByIndex","outputs":[{"internalType":"uint256","name":"","type":"uint256"}],"stateMutability":"view","type":"function"},{"inputs":[{"internalType":"address","name":"owner","type":"address"},{"internalType":"uint256","name":"index","type":"uint256"}],"name":"tokenOfOwnerByIndex","outputs":[{"internalType":"uint256","name":"","type":"uint256"}],"stateMutability":"view","type":"function"},{"inputs":[{"internalType":"uint256","name":"_propertyVerificationNo","type":"uint256"}],"name":"tokenURI","outputs":[{"internalType":"string","name":"","type":"string"}],"stateMutability":"view","type":"function"},{"inputs":[],"name":"totalSupply","outputs":[{"internalType":"uint256","name":"","type":"uint256"}],"stateMutability":"view","type":"function"},{"inputs":[{"internalType":"address","name":"from","type":"address"},{"internalType":"address","name":"to","type":"address"},{"internalType":"uint256","name":"tokenId","type":"uint256"}],"name":"transferFrom","outputs":[],"stateMutability":"nonpayable","type":"function"},{"inputs":[{"internalType":"address","name":"newOwner","type":"address"}],"name":"transferOwnership","outputs":[],"stateMutability":"nonpayable","type":"function"}],"evm":{"bytecode":{"linkReferences":{},"object":"60806040523480156200001157600080fd5b5060405162003984380380620039848339810160408190526200003491620001b3565b6040518060400160405280600c81526020016b29bcba32b6b0b81021b7b4b760a11b815250604051806040016040528060048152602001635354594560e01b815250816000908162000087919062000317565b50600162000096828262000317565b505050620000b3620000ad620000ca60201b60201c565b620000ce565b6001600855620000c38162000120565b50620003e3565b3390565b600680546001600160a01b038381166001600160a01b0319831681179093556040519116919082907f8be0079c531659141344cd1fd0a4f28419497f9722a3daafe3b4186f6b6457e090600090a35050565b6200012a6200013c565b600962000138828262000317565b5050565b6006546001600160a01b031633146200019b5760405162461bcd60e51b815260206004820181905260248201527f4f776e61626c653a2063616c6c6572206973206e6f7420746865206f776e6572604482015260640160405180910390fd5b565b634e487b7160e01b600052604160045260246000fd5b60006020808385031215620001c757600080fd5b82516001600160401b0380821115620001df57600080fd5b818501915085601f830112620001f457600080fd5b8151818111156200020957620002096200019d565b604051601f8201601f19908116603f011681019083821181831017156200023457620002346200019d565b8160405282815288868487010111156200024d57600080fd5b600093505b8284101562000271578484018601518185018701529285019262000252565b600086848301015280965050505050505092915050565b600181811c908216806200029d57607f821691505b602082108103620002be57634e487b7160e01b600052602260045260246000fd5b50919050565b601f8211156200031257600081815260208120601f850160051c81016020861015620002ed5750805b601f850160051c820191505b818110156200030e57828155600101620002f9565b5050505b505050565b81516001600160401b038111156200033357620003336200019d565b6200034b8162000344845462000288565b84620002c4565b602080601f8311600181146200038357600084156200036a5750858301515b600019600386901b1c1916600185901b1785556200030e565b600085815260208120601f198616915b82811015620003b45788860151825594840194600190910190840162000393565b5085821015620003d35787850151600019600388901b60f8161c191681555b5050505050600190811b01905550565b61359180620003f36000396000f3fe608060405234801561001057600080fd5b50600436106101da5760003560e01c8063715018a611610104578063b88d4fde116100a2578063db7e792611610071578063db7e7926146103fd578063e4a9614a14610439578063e985e9c51461044c578063f2fde38b1461048857600080fd5b8063b88d4fde146103bc578063c5719298146103cf578063c62e5581146103d7578063c87b56dd146103ea57600080fd5b806390cbe759116100de57806390cbe7591461038657806393d3e7551461039957806395d89b41146103a1578063a22cb465146103a957600080fd5b8063715018a61461035a57806380b0fd0a146103625780638da5cb5b1461037557600080fd5b80632f745c591161017c57806355f804b31161014b57806355f804b3146103015780635939f777146103145780636352211e1461033457806370a082311461034757600080fd5b80632f745c59146102a55780633f35198e146102b857806342842e0e146102db5780634f6ccce7146102ee57600080fd5b8063095ea7b3116101b8578063095ea7b31461024757806318160ddd1461025c57806323b872dd14610272578063245f0ca41461028557600080fd5b806301ffc9a7146101df57806306fdde0314610207578063081812fc1461021c575b600080fd5b6101f26101ed366004612d06565b61049b565b60405190151581526020015b60405180910390f35b61020f6104ed565b6040516101fe9190612d73565b61022f61022a366004612d86565b61057f565b6040516001600160a01b0390911681526020016101fe565b61025a610255366004612dbb565b6105a6565b005b6102646106c0565b6040519081526020016101fe565b61025a610280366004612de5565b6106d1565b610298610293366004612d86565b610748565b6040516101fe9190612f07565b6102646102b3366004612dbb565b610b8a565b61020f604051806040016040528060048152602001635354594560e01b81525081565b61025a6102e9366004612de5565b610c0c565b6102646102fc366004612d86565b610c27565b61025a61030f366004612fc6565b610c8a565b610327610322366004612ffb565b610ca2565b6040516101fe9190613016565b61022f610342366004612d86565b6110fe565b610264610355366004612ffb565b611126565b61025a6111c5565b61025a610370366004613078565b6111d9565b6006546001600160a01b031661022f565b6101f2610394366004613195565b6113ab565b610327611541565b61020f61199b565b61025a6103b73660046131b7565b6119aa565b61025a6103ca3660046131f3565b6119b5565b610264611a33565b6102646103e5366004612ffb565b611a3e565b61020f6103f8366004612d86565b611a55565b61020f6040518060400160405280600c81526020017f537974656d617020436f696e000000000000000000000000000000000000000081525081565b61022f610447366004612d86565b611aeb565b6101f261045a36600461326f565b6001600160a01b03918216600090815260056020908152604080832093909416825291909152205460ff1690565b61025a610496366004612ffb565b611b0d565b60006001600160e01b031982166380ac58cd60e01b14806104cc57506001600160e01b03198216635b5e139f60e01b145b806104e757506301ffc9a760e01b6001600160e01b03198316145b92915050565b6060600080546104fc906132a2565b80601f0160208091040260200160405190810160405280929190818152602001828054610528906132a2565b80156105755780601f1061054a57610100808354040283529160200191610575565b820191906000526020600020905b81548152906001019060200180831161055857829003601f168201915b5050505050905090565b600061058a82611b9d565b506000908152600460205260409020546001600160a01b031690565b60006105b182611c01565b9050806001600160a01b0316836001600160a01b0316036106235760405162461bcd60e51b815260206004820152602160248201527f4552433732313a20617070726f76616c20746f2063757272656e74206f776e656044820152603960f91b60648201526084015b60405180910390fd5b336001600160a01b038216148061063f575061063f813361045a565b6106b15760405162461bcd60e51b815260206004820152603d60248201527f4552433732313a20617070726f76652063616c6c6572206973206e6f7420746f60448201527f6b656e206f776e6572206f7220617070726f76656420666f7220616c6c000000606482015260840161061a565b6106bb8383611c66565b505050565b60006106cc600d611cd4565b905090565b6106db3382611cdf565b61073d5760405162461bcd60e51b815260206004820152602d60248201527f4552433732313a2063616c6c6572206973206e6f7420746f6b656e206f776e6560448201526c1c881bdc88185c1c1c9bdd9959609a1b606482015260840161061a565b6106bb838383611d5d565b6107b560405180610180016040528060008152602001600081526020016000815260200160008152602001600081526020016000815260200160006001600160a01b0316815260200160608152602001606081526020016060815260200160608152602001606081525090565b6107be82611f3d565b6108305760405162461bcd60e51b815260206004820152603360248201527f4552433732313a2070766e20746f6b656e20646f6573206e6f7420657869737460448201527f206f72206e6f74206265656e206d696e74656400000000000000000000000000606482015260840161061a565b600082815260106020908152604080832054808452600b835292819020815161018081018352815481526001820154938101939093526002810154918301919091526003810154606083015260048101546080830152600581015460a083015260068101546001600160a01b031660c083015260078101805460e0840191906108b8906132a2565b80601f01602080910402602001604051908101604052809291908181526020018280546108e4906132a2565b80156109315780601f1061090657610100808354040283529160200191610931565b820191906000526020600020905b81548152906001019060200180831161091457829003601f168201915b5050505050815260200160088201805461094a906132a2565b80601f0160208091040260200160405190810160405280929190818152602001828054610976906132a2565b80156109c35780601f10610998576101008083540402835291602001916109c3565b820191906000526020600020905b8154815290600101906020018083116109a657829003601f168201915b505050505081526020016009820180546109dc906132a2565b80601f0160208091040260200160405190810160405280929190818152602001828054610a08906132a2565b8015610a555780601f10610a2a57610100808354040283529160200191610a55565b820191906000526020600020905b815481529060010190602001808311610a3857829003601f168201915b50505050508152602001600a82018054610a6e906132a2565b80601f0160208091040260200160405190810160405280929190818152602001828054610a9a906132a2565b8015610ae75780601f10610abc57610100808354040283529160200191610ae7565b820191906000526020600020905b815481529060010190602001808311610aca57829003601f168201915b50505050508152602001600b82018054610b00906132a2565b80601f0160208091040260200160405190810160405280929190818152602001828054610b2c906132a2565b8015610b795780601f10610b4e57610100808354040283529160200191610b79565b820191906000526020600020905b815481529060010190602001808311610b5c57829003601f168201915b505050505081525050915050919050565b6000610b9583611126565b8210610be35760405162461bcd60e51b815260206004820152601360248201527f496e646578206f7574206f6620626f756e647300000000000000000000000000604482015260640161061a565b6001600160a01b0383166000908152600c60205260409020610c059083611f57565b9392505050565b6106bb838383604051806020016040528060008152506119b5565b6000610c316106c0565b8210610c7f5760405162461bcd60e51b815260206004820152601f60248201527f455243373231456e756d657261626c653a20696e76616c696420696e64657800604482015260640161061a565b6104e78260016132dc565b610c92611f63565b6009610c9e828261334b565b5050565b60606000610caf83611126565b905060008167ffffffffffffffff811115610ccc57610ccc612f1a565b604051908082528060200260200182016040528015610d6a57816020015b610d5760405180610180016040528060008152602001600081526020016000815260200160008152602001600081526020016000815260200160006001600160a01b0316815260200160608152602001606081526020016060815260200160608152602001606081525090565b815260200190600190039081610cea5790505b50905060005b828110156110f6576000610d848683610b8a565b6000818152600b6020908152604091829020825161018081018452815481526001820154928101929092526002810154928201929092526003820154606082015260048201546080820152600582015460a082015260068201546001600160a01b031660c0820152600782018054939450909260e084019190610e06906132a2565b80601f0160208091040260200160405190810160405280929190818152602001828054610e32906132a2565b8015610e7f5780601f10610e5457610100808354040283529160200191610e7f565b820191906000526020600020905b815481529060010190602001808311610e6257829003601f168201915b50505050508152602001600882018054610e98906132a2565b80601f0160208091040260200160405190810160405280929190818152602001828054610ec4906132a2565b8015610f115780601f10610ee657610100808354040283529160200191610f11565b820191906000526020600020905b815481529060010190602001808311610ef457829003601f168201915b50505050508152602001600982018054610f2a906132a2565b80601f0160208091040260200160405190810160405280929190818152602001828054610f56906132a2565b8015610fa35780601f10610f7857610100808354040283529160200191610fa3565b820191906000526020600020905b815481529060010190602001808311610f8657829003601f168201915b50505050508152602001600a82018054610fbc906132a2565b80601f0160208091040260200160405190810160405280929190818152602001828054610fe8906132a2565b80156110355780601f1061100a57610100808354040283529160200191611035565b820191906000526020600020905b81548152906001019060200180831161101857829003601f168201915b50505050508152602001600b8201805461104e906132a2565b80601f016020809104026020016040519081016040528092919081815260200182805461107a906132a2565b80156110c75780601f1061109c576101008083540402835291602001916110c7565b820191906000526020600020905b8154815290600101906020018083116110aa57829003601f168201915b5050505050815250508383815181106110e2576110e261340b565b602090810291909101015250600101610d70565b509392505050565b60006104e78260405180606001604052806029815260200161355c60299139600d9190611fbd565b60006001600160a01b0382166111a45760405162461bcd60e51b815260206004820152602a60248201527f4552433732313a2062616c616e636520717565727920666f7220746865207a6560448201527f726f206164647265737300000000000000000000000000000000000000000000606482015260840161061a565b6001600160a01b0382166000908152600c602052604090206104e790611fca565b6111cd611f63565b6111d76000611fd4565b565b6111e1611f63565b6111e9612026565b6111f281611f3d565b1561123f5760405162461bcd60e51b815260206004820181905260248201527f4552433732313a2070766e20746f6b656e20616c7265616479206d696e746564604482015260640161061a565b6001600160a01b0383166112955760405162461bcd60e51b815260206004820152601760248201527f4552433732313a20696e76616c69642061646472657373000000000000000000604482015260640161061a565b306001600160a01b038416036112ed5760405162461bcd60e51b815260206004820152601760248201527f4552433732313a20696e76616c69642061646472657373000000000000000000604482015260640161061a565b6112fb600a80546001019055565b6000611306600a5490565b9050611312848361207f565b61131c828c612099565b611326848261213b565b6113308482612147565b6113468183600090815260106020526040902055565b61135a8c8c8c8c8c8c8c8c8c8c8c8c612169565b81817f30b042f6d29a39b7c10c2dfbd81016db37ea3d11e72ec5764fb0d0f7a1012a3a8d60405161138b9190612d73565b60405180910390a35061139e6001600855565b5050505050505050505050565b60006113b5611f63565b600082116114105760405162461bcd60e51b815260206004820152602260248201527f506c6f74205072696365206d7573742062652067726561746572207468616e20604482015261181760f11b606482015260840161061a565b3361145d5760405162461bcd60e51b815260206004820152601760248201527f4552433732313a20696e76616c69642061646472657373000000000000000000604482015260640161061a565b61146683611f3d565b6114d85760405162461bcd60e51b815260206004820152603360248201527f4552433732313a2070766e20746f6b656e20646f6573206e6f7420657869737460448201527f206f72206e6f74206265656e206d696e74656400000000000000000000000000606482015260840161061a565b600083815260106020908152604080832054808452600b8352928190206001018590558051338152918201869052818101859052517f598b48a1aad5d72fcedbc7ed6aac08ad920501eedca72d3dace23490f11f78129181900360600190a15060019392505050565b6060600061154e600a5490565b905060008167ffffffffffffffff81111561156b5761156b612f1a565b60405190808252806020026020018201604052801561160957816020015b6115f660405180610180016040528060008152602001600081526020016000815260200160008152602001600081526020016000815260200160006001600160a01b0316815260200160608152602001606081526020016060815260200160608152602001606081525090565b8152602001906001900390816115895790505b50905060005b8281101561199457600061162282610c27565b6000818152600b6020908152604091829020825161018081018452815481526001820154928101929092526002810154928201929092526003820154606082015260048201546080820152600582015460a082015260068201546001600160a01b031660c0820152600782018054939450909260e0840191906116a4906132a2565b80601f01602080910402602001604051908101604052809291908181526020018280546116d0906132a2565b801561171d5780601f106116f25761010080835404028352916020019161171d565b820191906000526020600020905b81548152906001019060200180831161170057829003601f168201915b50505050508152602001600882018054611736906132a2565b80601f0160208091040260200160405190810160405280929190818152602001828054611762906132a2565b80156117af5780601f10611784576101008083540402835291602001916117af565b820191906000526020600020905b81548152906001019060200180831161179257829003601f168201915b505050505081526020016009820180546117c8906132a2565b80601f01602080910402602001604051908101604052809291908181526020018280546117f4906132a2565b80156118415780601f1061181657610100808354040283529160200191611841565b820191906000526020600020905b81548152906001019060200180831161182457829003601f168201915b50505050508152602001600a8201805461185a906132a2565b80601f0160208091040260200160405190810160405280929190818152602001828054611886906132a2565b80156118d35780601f106118a8576101008083540402835291602001916118d3565b820191906000526020600020905b8154815290600101906020018083116118b657829003601f168201915b50505050508152602001600b820180546118ec906132a2565b80601f0160208091040260200160405190810160405280929190818152602001828054611918906132a2565b80156119655780601f1061193a57610100808354040283529160200191611965565b820191906000526020600020905b81548152906001019060200180831161194857829003601f168201915b5050505050815250508383815181106119805761198061340b565b60209081029190910101525060010161160f565b5092915050565b6060600180546104fc906132a2565b610c9e33838361241e565b6119bf3383611cdf565b611a215760405162461bcd60e51b815260206004820152602d60248201527f4552433732313a2063616c6c6572206973206e6f7420746f6b656e206f776e6560448201526c1c881bdc88185c1c1c9bdd9959609a1b606482015260840161061a565b611a2d848484846124ec565b50505050565b6000806104e76106c0565b600033611a4a57600080fd5b6000610c0583611126565b6000818152600260205260409020546060906001600160a01b0316611ae25760405162461bcd60e51b815260206004820152603160248201527f45524337323155524953746f726167653a2055524920717565727920666f722060448201527f6e6f6e6578697374656e7420746f6b656e000000000000000000000000000000606482015260840161061a565b6104e78261256a565b6000818152601060205260408120546000611b05826110fe565b949350505050565b611b15611f63565b6001600160a01b038116611b915760405162461bcd60e51b815260206004820152602660248201527f4f776e61626c653a206e6577206f776e657220697320746865207a65726f206160448201527f6464726573730000000000000000000000000000000000000000000000000000606482015260840161061a565b611b9a81611fd4565b50565b6000818152600260205260409020546001600160a01b0316611b9a5760405162461bcd60e51b815260206004820152601860248201527f4552433732313a20696e76616c696420746f6b656e2049440000000000000000604482015260640161061a565b6000818152600260205260408120546001600160a01b0316806104e75760405162461bcd60e51b815260206004820152601860248201527f4552433732313a20696e76616c696420746f6b656e2049440000000000000000604482015260640161061a565b600081815260046020526040902080546001600160a01b0319166001600160a01b0384169081179091558190611c9b82611c01565b6001600160a01b03167f8c5be1e5ebec7d5bd14f71427d1e84f3dd0314c0f7b2291e5b200ac8c7c3b92560405160405180910390a45050565b60006104e782612665565b600080611ceb83611c01565b9050806001600160a01b0316846001600160a01b03161480611d3257506001600160a01b0380821660009081526005602090815260408083209388168352929052205460ff165b80611b055750836001600160a01b0316611d4b8461057f565b6001600160a01b031614949350505050565b826001600160a01b0316611d7082611c01565b6001600160a01b031614611dd45760405162461bcd60e51b815260206004820152602560248201527f4552433732313a207472616e736665722066726f6d20696e636f72726563742060448201526437bbb732b960d91b606482015260840161061a565b6001600160a01b038216611e365760405162461bcd60e51b8152602060048201526024808201527f4552433732313a207472616e7366657220746f20746865207a65726f206164646044820152637265737360e01b606482015260840161061a565b826001600160a01b0316611e4982611c01565b6001600160a01b031614611ead5760405162461bcd60e51b815260206004820152602560248201527f4552433732313a207472616e736665722066726f6d20696e636f72726563742060448201526437bbb732b960d91b606482015260840161061a565b600081815260046020908152604080832080546001600160a01b03199081169091556001600160a01b0387811680865260038552838620805460001901905590871680865283862080546001019055868652600290945282852080549092168417909155905184937fddf252ad1be2c89b69c2b068fc378daa952ba7f163c4a11628f55a4df523b3ef91a4505050565b600081815260106020526040812054610c05600d82612670565b6000610c05838361267c565b6006546001600160a01b031633146111d75760405162461bcd60e51b815260206004820181905260248201527f4f776e61626c653a2063616c6c6572206973206e6f7420746865206f776e6572604482015260640161061a565b6000611b058484846126a6565b60006104e7825490565b600680546001600160a01b038381166001600160a01b0319831681179093556040519116919082907f8be0079c531659141344cd1fd0a4f28419497f9722a3daafe3b4186f6b6457e090600090a35050565b6002600854036120785760405162461bcd60e51b815260206004820152601f60248201527f5265656e7472616e637947756172643a207265656e7472616e742063616c6c00604482015260640161061a565b6002600855565b610c9e8282604051806020016040528060008152506126f2565b6000828152600260205260409020546001600160a01b03166121235760405162461bcd60e51b815260206004820152602e60248201527f45524337323155524953746f726167653a2055524920736574206f66206e6f6e60448201527f6578697374656e7420746f6b656e000000000000000000000000000000000000606482015260840161061a565b60008281526007602052604090206106bb828261334b565b6106bb600d8284612770565b6001600160a01b0382166000908152600c602052604090206106bb9082612786565b600089116121b95760405162461bcd60e51b815260206004820152601c60248201527f5072696365206d757374206265206174206c6561737420312077656900000000604482015260640161061a565b6001600160a01b03841661220f5760405162461bcd60e51b815260206004820181905260248201527f4552433732313a206d696e7420746f20746865207a65726f2061646472657373604482015260640161061a565b60008b51116122605760405162461bcd60e51b815260206004820152601360248201527f546f6b656e2075726c2069732020656d70747900000000000000000000000000604482015260640161061a565b60006040518061018001604052808e81526020018b81526020018a8152602001878152602001848152602001428152602001866001600160a01b031681526020018d81526020018c815260200189815260200188815260200185815250905080600b6000848152602001908152602001600020600082015181600001556020820151816001015560408201518160020155606082015181600301556080820151816004015560a0820151816005015560c08201518160060160006101000a8154816001600160a01b0302191690836001600160a01b0316021790555060e0820151816007019081612351919061334b565b506101008201516008820190612367908261334b565b50610120820151600982019061237d908261334b565b50610140820151600a820190612393908261334b565b50610160820151600b8201906123a9908261334b565b50506040516123ba91508d90613421565b60405180910390207f559ec41a5550336295d32c5d36cb700618ce142acec86ae0b0555fb1ae7d65998e8d8d8d8d8d8d8d8d8d8d426040516124079c9b9a9998979695949392919061343d565b60405180910390a250505050505050505050505050565b816001600160a01b0316836001600160a01b03160361247f5760405162461bcd60e51b815260206004820152601960248201527f4552433732313a20617070726f766520746f2063616c6c657200000000000000604482015260640161061a565b6001600160a01b03838116600081815260056020908152604080832094871680845294825291829020805460ff191686151590811790915591519182527f17307eab39ab6107e8899845ad3d59bd9653f200f220920489ca2b5937696c31910160405180910390a3505050565b6124f7848484611d5d565b61250384848484612792565b611a2d5760405162461bcd60e51b815260206004820152603260248201527f4552433732313a207472616e7366657220746f206e6f6e20455243373231526560448201527131b2b4bb32b91034b6b83632b6b2b73a32b960711b606482015260840161061a565b606061257582611b9d565b6000828152600760205260408120805461258e906132a2565b80601f01602080910402602001604051908101604052809291908181526020018280546125ba906132a2565b80156126075780601f106125dc57610100808354040283529160200191612607565b820191906000526020600020905b8154815290600101906020018083116125ea57829003601f168201915b5050505050905060006126186128de565b9050805160000361262a575092915050565b81511561265c5780826040516020016126449291906134dd565b60405160208183030381529060405292505050919050565b611b05846128ed565b60006104e782611fca565b6000610c058383612953565b60008260000182815481106126935761269361340b565b9060005260206000200154905092915050565b6000828152600284016020526040812054801515806126ca57506126ca8585612953565b83906126e95760405162461bcd60e51b815260040161061a9190612d73565b50949350505050565b6126fc838361295f565b6127096000848484612792565b6106bb5760405162461bcd60e51b815260206004820152603260248201527f4552433732313a207472616e7366657220746f206e6f6e20455243373231526560448201527131b2b4bb32b91034b6b83632b6b2b73a32b960711b606482015260840161061a565b6000611b0584846001600160a01b038516612aea565b6000610c058383612b07565b60006001600160a01b0384163b156128d357604051630a85bd0160e11b81526001600160a01b0385169063150b7a02906127d690339089908890889060040161350c565b6020604051808303816000875af1925050508015612811575060408051601f3d908101601f1916820190925261280e9181019061353e565b60015b6128b9573d80801561283f576040519150601f19603f3d011682016040523d82523d6000602084013e612844565b606091505b5080516000036128b15760405162461bcd60e51b815260206004820152603260248201527f4552433732313a207472616e7366657220746f206e6f6e20455243373231526560448201527131b2b4bb32b91034b6b83632b6b2b73a32b960711b606482015260840161061a565b805181602001fd5b6001600160e01b031916630a85bd0160e11b149050611b05565b506001949350505050565b6060600980546104fc906132a2565b60606128f882611b9d565b60006129026128de565b905060008151116129225760405180602001604052806000815250610c05565b8061292c84612b56565b60405160200161293d9291906134dd565b6040516020818303038152906040529392505050565b6000610c058383612bf6565b6001600160a01b0382166129b55760405162461bcd60e51b815260206004820181905260248201527f4552433732313a206d696e7420746f20746865207a65726f2061646472657373604482015260640161061a565b6000818152600260205260409020546001600160a01b031615612a1a5760405162461bcd60e51b815260206004820152601c60248201527f4552433732313a20746f6b656e20616c7265616479206d696e74656400000000604482015260640161061a565b6000818152600260205260409020546001600160a01b031615612a7f5760405162461bcd60e51b815260206004820152601c60248201527f4552433732313a20746f6b656e20616c7265616479206d696e74656400000000604482015260640161061a565b6001600160a01b038216600081815260036020908152604080832080546001019055848352600290915280822080546001600160a01b0319168417905551839291907fddf252ad1be2c89b69c2b068fc378daa952ba7f163c4a11628f55a4df523b3ef908290a45050565b60008281526002840160205260408120829055611b058484612786565b6000818152600183016020526040812054612b4e575081546001818101845560008481526020808220909301849055845484825282860190935260409020919091556104e7565b5060006104e7565b60606000612b6383612c0e565b600101905060008167ffffffffffffffff811115612b8357612b83612f1a565b6040519080825280601f01601f191660200182016040528015612bad576020820181803683370190505b5090508181016020015b600019017f3031323334353637383961626364656600000000000000000000000000000000600a86061a8153600a8504945084612bb757509392505050565b60008181526001830160205260408120541515610c05565b6000807a184f03e93ff9f4daa797ed6e38ed64bf6a1f0100000000000000008310612c57577a184f03e93ff9f4daa797ed6e38ed64bf6a1f010000000000000000830492506040015b6d04ee2d6d415b85acef81000000008310612c83576d04ee2d6d415b85acef8100000000830492506020015b662386f26fc100008310612ca157662386f26fc10000830492506010015b6305f5e1008310612cb9576305f5e100830492506008015b6127108310612ccd57612710830492506004015b60648310612cdf576064830492506002015b600a83106104e75760010192915050565b6001600160e01b031981168114611b9a57600080fd5b600060208284031215612d1857600080fd5b8135610c0581612cf0565b60005b83811015612d3e578181015183820152602001612d26565b50506000910152565b60008151808452612d5f816020860160208601612d23565b601f01601f19169290920160200192915050565b602081526000610c056020830184612d47565b600060208284031215612d9857600080fd5b5035919050565b80356001600160a01b0381168114612db657600080fd5b919050565b60008060408385031215612dce57600080fd5b612dd783612d9f565b946020939093013593505050565b600080600060608486031215612dfa57600080fd5b612e0384612d9f565b9250612e1160208501612d9f565b9150604084013590509250925092565b6000610180825184526020830151602085015260408301516040850152606083015160608501526080830151608085015260a083015160a085015260c0830151612e7660c08601826001600160a01b03169052565b5060e08301518160e0860152612e8e82860182612d47565b9150506101008084015185830382870152612ea98382612d47565b925050506101208084015185830382870152612ec58382612d47565b925050506101408084015185830382870152612ee18382612d47565b925050506101608084015185830382870152612efd8382612d47565b9695505050505050565b602081526000610c056020830184612e21565b634e487b7160e01b600052604160045260246000fd5b600067ffffffffffffffff80841115612f4b57612f4b612f1a565b604051601f8501601f19908116603f01168101908282118183101715612f7357612f73612f1a565b81604052809350858152868686011115612f8c57600080fd5b858560208301376000602087830101525050509392505050565b600082601f830112612fb757600080fd5b610c0583833560208501612f30565b600060208284031215612fd857600080fd5b813567ffffffffffffffff811115612fef57600080fd5b611b0584828501612fa6565b60006020828403121561300d57600080fd5b610c0582612d9f565b6000602080830181845280855180835260408601915060408160051b870101925083870160005b8281101561306b57603f19888603018452613059858351612e21565b9450928501929085019060010161303d565b5092979650505050505050565b60008060008060008060008060008060006101608c8e03121561309a57600080fd5b8b359a5067ffffffffffffffff8060208e013511156130b857600080fd5b6130c88e60208f01358f01612fa6565b9a508060408e013511156130db57600080fd5b6130eb8e60408f01358f01612fa6565b995060608d0135985060808d013597508060a08e0135111561310c57600080fd5b61311c8e60a08f01358f01612fa6565b96508060c08e0135111561312f57600080fd5b61313f8e60c08f01358f01612fa6565b955060e08d013594506131556101008e01612d9f565b9350806101208e0135111561316957600080fd5b5061317b8d6101208e01358e01612fa6565b91506101408c013590509295989b509295989b9093969950565b600080604083850312156131a857600080fd5b50508035926020909101359150565b600080604083850312156131ca57600080fd5b6131d383612d9f565b9150602083013580151581146131e857600080fd5b809150509250929050565b6000806000806080858703121561320957600080fd5b61321285612d9f565b935061322060208601612d9f565b925060408501359150606085013567ffffffffffffffff81111561324357600080fd5b8501601f8101871361325457600080fd5b61326387823560208401612f30565b91505092959194509250565b6000806040838503121561328257600080fd5b61328b83612d9f565b915061329960208401612d9f565b90509250929050565b600181811c908216806132b657607f821691505b6020821081036132d657634e487b7160e01b600052602260045260246000fd5b50919050565b808201808211156104e757634e487b7160e01b600052601160045260246000fd5b601f8211156106bb57600081815260208120601f850160051c810160208610156133245750805b601f850160051c820191505b8181101561334357828155600101613330565b505050505050565b815167ffffffffffffffff81111561336557613365612f1a565b6133798161337384546132a2565b846132fd565b602080601f8311600181146133ae57600084156133965750858301515b600019600386901b1c1916600185901b178555613343565b600085815260208120601f198616915b828110156133dd578886015182559484019460019091019084016133be565b50858210156133fb5787850151600019600388901b60f8161c191681555b5050505050600190811b01905550565b634e487b7160e01b600052603260045260246000fd5b60008251613433818460208701612d23565b9190910192915050565b60006101808e83528060208401526134578184018f612d47565b90508c60408401528b60608401528281036080840152613477818c612d47565b905082810360a084015261348b818b612d47565b90508860c08401526001600160a01b03881660e08401528281036101008401526134b58188612d47565b6101208401969096525050610140810192909252610160909101529998505050505050505050565b600083516134ef818460208801612d23565b835190830190613503818360208801612d23565b01949350505050565b60006001600160a01b03808716835280861660208401525083604083015260806060830152612efd6080830184612d47565b60006020828403121561355057600080fd5b8151610c0581612cf056fe4552433732313a206f776e657220717565727920666f72206e6f6e6578697374656e7420746f6b656ea164736f6c6343000810000a","opcodes":"PUSH1 0x80 PUSH1 0x40 MSTORE CALLVALUE DUP1 ISZERO PUSH3 0x11 JUMPI PUSH1 0x0 DUP1 REVERT JUMPDEST POP PUSH1 0x40 MLOAD PUSH3 0x3984 CODESIZE SUB DUP1 PUSH3 0x3984 DUP4 CODECOPY DUP2 ADD PUSH1 0x40 DUP2 SWAP1 MSTORE PUSH3 0x34 SWAP2 PUSH3 0x1B3 JUMP JUMPDEST PUSH1 0x40 MLOAD DUP1 PUSH1 0x40 ADD PUSH1 0x40 MSTORE DUP1 PUSH1 0xC DUP2 MSTORE PUSH1 0x20 ADD PUSH12 0x29BCBA32B6B0B81021B7B4B7 PUSH1 0xA1 SHL DUP2 MSTORE POP PUSH1 0x40 MLOAD DUP1 PUSH1 0x40 ADD PUSH1 0x40 MSTORE DUP1 PUSH1 0x4 DUP2 MSTORE PUSH1 0x20 ADD PUSH4 0x53545945 PUSH1 0xE0 SHL DUP2 MSTORE POP DUP2 PUSH1 0x0 SWAP1 DUP2 PUSH3 0x87 SWAP2 SWAP1 PUSH3 0x317 JUMP JUMPDEST POP PUSH1 0x1 PUSH3 0x96 DUP3 DUP3 PUSH3 0x317 JUMP JUMPDEST POP POP POP PUSH3 0xB3 PUSH3 0xAD PUSH3 0xCA PUSH1 0x20 SHL PUSH1 0x20 SHR JUMP JUMPDEST PUSH3 0xCE JUMP JUMPDEST PUSH1 0x1 PUSH1 0x8 SSTORE PUSH3 0xC3 DUP2 PUSH3 0x120 JUMP JUMPDEST POP PUSH3 0x3E3 JUMP JUMPDEST CALLER SWAP1 JUMP JUMPDEST PUSH1 0x6 DUP1 SLOAD PUSH1 0x1 PUSH1 0x1 PUSH1 0xA0 SHL SUB DUP4 DUP2 AND PUSH1 0x1 PUSH1 0x1 PUSH1 0xA0 SHL SUB NOT DUP4 AND DUP2 OR SWAP1 SWAP4 SSTORE PUSH1 0x40 MLOAD SWAP2 AND SWAP2 SWAP1 DUP3 SWAP1 PUSH32 0x8BE0079C531659141344CD1FD0A4F28419497F9722A3DAAFE3B4186F6B6457E0 SWAP1 PUSH1 0x0 SWAP1 LOG3 POP POP JUMP JUMPDEST PUSH3 0x12A PUSH3 0x13C JUMP JUMPDEST PUSH1 0x9 PUSH3 0x138 DUP3 DUP3 PUSH3 0x317 JUMP JUMPDEST POP POP JUMP JUMPDEST PUSH1 0x6 SLOAD PUSH1 0x1 PUSH1 0x1 PUSH1 0xA0 SHL SUB AND CALLER EQ PUSH3 0x19B JUMPI PUSH1 0x40 MLOAD PUSH3 0x461BCD PUSH1 0xE5 SHL DUP2 MSTORE PUSH1 0x20 PUSH1 0x4 DUP3 ADD DUP2 SWAP1 MSTORE PUSH1 0x24 DUP3 ADD MSTORE PUSH32 0x4F776E61626C653A2063616C6C6572206973206E6F7420746865206F776E6572 PUSH1 0x44 DUP3 ADD MSTORE PUSH1 0x64 ADD PUSH1 0x40 MLOAD DUP1 SWAP2 SUB SWAP1 REVERT JUMPDEST JUMP JUMPDEST PUSH4 0x4E487B71 PUSH1 0xE0 SHL PUSH1 0x0 MSTORE PUSH1 0x41 PUSH1 0x4 MSTORE PUSH1 0x24 PUSH1 0x0 REVERT JUMPDEST PUSH1 0x0 PUSH1 0x20 DUP1 DUP4 DUP6 SUB SLT ISZERO PUSH3 0x1C7 JUMPI PUSH1 0x0 DUP1 REVERT JUMPDEST DUP3 MLOAD PUSH1 0x1 PUSH1 0x1 PUSH1 0x40 SHL SUB DUP1 DUP3 GT ISZERO PUSH3 0x1DF JUMPI PUSH1 0x0 DUP1 REVERT JUMPDEST DUP2 DUP6 ADD SWAP2 POP DUP6 PUSH1 0x1F DUP4 ADD SLT PUSH3 0x1F4 JUMPI PUSH1 0x0 DUP1 REVERT JUMPDEST DUP2 MLOAD DUP2 DUP2 GT ISZERO PUSH3 0x209 JUMPI PUSH3 0x209 PUSH3 0x19D JUMP JUMPDEST PUSH1 0x40 MLOAD PUSH1 0x1F DUP3 ADD PUSH1 0x1F NOT SWAP1 DUP2 AND PUSH1 0x3F ADD AND DUP2 ADD SWAP1 DUP4 DUP3 GT DUP2 DUP4 LT OR ISZERO PUSH3 0x234 JUMPI PUSH3 0x234 PUSH3 0x19D JUMP JUMPDEST DUP2 PUSH1 0x40 MSTORE DUP3 DUP2 MSTORE DUP9 DUP7 DUP5 DUP8 ADD ADD GT ISZERO PUSH3 0x24D JUMPI PUSH1 0x0 DUP1 REVERT JUMPDEST PUSH1 0x0 SWAP4 POP JUMPDEST DUP3 DUP5 LT ISZERO PUSH3 0x271 JUMPI DUP5 DUP5 ADD DUP7 ADD MLOAD DUP2 DUP6 ADD DUP8 ADD MSTORE SWAP3 DUP6 ADD SWAP3 PUSH3 0x252 JUMP JUMPDEST PUSH1 0x0 DUP7 DUP5 DUP4 ADD ADD MSTORE DUP1 SWAP7 POP POP POP POP POP POP POP SWAP3 SWAP2 POP POP JUMP JUMPDEST PUSH1 0x1 DUP2 DUP2 SHR SWAP1 DUP3 AND DUP1 PUSH3 0x29D JUMPI PUSH1 0x7F DUP3 AND SWAP2 POP JUMPDEST PUSH1 0x20 DUP3 LT DUP2 SUB PUSH3 0x2BE JUMPI PUSH4 0x4E487B71 PUSH1 0xE0 SHL PUSH1 0x0 MSTORE PUSH1 0x22 PUSH1 0x4 MSTORE PUSH1 0x24 PUSH1 0x0 REVERT JUMPDEST POP SWAP2 SWAP1 POP JUMP JUMPDEST PUSH1 0x1F DUP3 GT ISZERO PUSH3 0x312 JUMPI PUSH1 0x0 DUP2 DUP2 MSTORE PUSH1 0x20 DUP2 KECCAK256 PUSH1 0x1F DUP6 ADD PUSH1 0x5 SHR DUP2 ADD PUSH1 0x20 DUP7 LT ISZERO PUSH3 0x2ED JUMPI POP DUP1 JUMPDEST PUSH1 0x1F DUP6 ADD PUSH1 0x5 SHR DUP3 ADD SWAP2 POP JUMPDEST DUP2 DUP2 LT ISZERO PUSH3 0x30E JUMPI DUP3 DUP2 SSTORE PUSH1 0x1 ADD PUSH3 0x2F9 JUMP JUMPDEST POP POP POP JUMPDEST POP POP POP JUMP JUMPDEST DUP2 MLOAD PUSH1 0x1 PUSH1 0x1 PUSH1 0x40 SHL SUB DUP2 GT ISZERO PUSH3 0x333 JUMPI PUSH3 0x333 PUSH3 0x19D JUMP JUMPDEST PUSH3 0x34B DUP2 PUSH3 0x344 DUP5 SLOAD PUSH3 0x288 JUMP JUMPDEST DUP5 PUSH3 0x2C4 JUMP JUMPDEST PUSH1 0x20 DUP1 PUSH1 0x1F DUP4 GT PUSH1 0x1 DUP2 EQ PUSH3 0x383 JUMPI PUSH1 0x0 DUP5 ISZERO PUSH3 0x36A JUMPI POP DUP6 DUP4 ADD MLOAD JUMPDEST PUSH1 0x0 NOT PUSH1 0x3 DUP7 SWAP1 SHL SHR NOT AND PUSH1 0x1 DUP6 SWAP1 SHL OR DUP6 SSTORE PUSH3 0x30E JUMP JUMPDEST PUSH1 0x0 DUP6 DUP2 MSTORE PUSH1 0x20 DUP2 KECCAK256 PUSH1 0x1F NOT DUP7 AND SWAP2 JUMPDEST DUP3 DUP2 LT ISZERO PUSH3 0x3B4 JUMPI DUP9 DUP7 ADD MLOAD DUP3 SSTORE SWAP5 DUP5 ADD SWAP5 PUSH1 0x1 SWAP1 SWAP2 ADD SWAP1 DUP5 ADD PUSH3 0x393 JUMP JUMPDEST POP DUP6 DUP3 LT ISZERO PUSH3 0x3D3 JUMPI DUP8 DUP6 ADD MLOAD PUSH1 0x0 NOT PUSH1 0x3 DUP9 SWAP1 SHL PUSH1 0xF8 AND SHR NOT AND DUP2 SSTORE JUMPDEST POP POP POP POP POP PUSH1 0x1 SWAP1 DUP2 SHL ADD SWAP1 SSTORE POP JUMP JUMPDEST PUSH2 0x3591 DUP1 PUSH3 0x3F3 PUSH1 0x0 CODECOPY PUSH1 0x0 RETURN INVALID PUSH1 0x80 PUSH1 0x40 MSTORE CALLVALUE DUP1 ISZERO PUSH2 0x10 JUMPI PUSH1 0x0 DUP1 REVERT JUMPDEST POP PUSH1 0x4 CALLDATASIZE LT PUSH2 0x1DA JUMPI PUSH1 0x0 CALLDATALOAD PUSH1 0xE0 SHR DUP1 PUSH4 0x715018A6 GT PUSH2 0x104 JUMPI DUP1 PUSH4 0xB88D4FDE GT PUSH2 0xA2 JUMPI DUP1 PUSH4 0xDB7E7926 GT PUSH2 0x71 JUMPI DUP1 PUSH4 0xDB7E7926 EQ PUSH2 0x3FD JUMPI DUP1 PUSH4 0xE4A9614A EQ PUSH2 0x439 JUMPI DUP1 PUSH4 0xE985E9C5 EQ PUSH2 0x44C JUMPI DUP1 PUSH4 0xF2FDE38B EQ PUSH2 0x488 JUMPI PUSH1 0x0 DUP1 REVERT JUMPDEST DUP1 PUSH4 0xB88D4FDE EQ PUSH2 0x3BC JUMPI DUP1 PUSH4 0xC5719298 EQ PUSH2 0x3CF JUMPI DUP1 PUSH4 0xC62E5581 EQ PUSH2 0x3D7 JUMPI DUP1 PUSH4 0xC87B56DD EQ PUSH2 0x3EA JUMPI PUSH1 0x0 DUP1 REVERT JUMPDEST DUP1 PUSH4 0x90CBE759 GT PUSH2 0xDE JUMPI DUP1 PUSH4 0x90CBE759 EQ PUSH2 0x386 JUMPI DUP1 PUSH4 0x93D3E755 EQ PUSH2 0x399 JUMPI DUP1 PUSH4 0x95D89B41 EQ PUSH2 0x3A1 JUMPI DUP1 PUSH4 0xA22CB465 EQ PUSH2 0x3A9 JUMPI PUSH1 0x0 DUP1 REVERT JUMPDEST DUP1 PUSH4 0x715018A6 EQ PUSH2 0x35A JUMPI DUP1 PUSH4 0x80B0FD0A EQ PUSH2 0x362 JUMPI DUP1 PUSH4 0x8DA5CB5B EQ PUSH2 0x375 JUMPI PUSH1 0x0 DUP1 REVERT JUMPDEST DUP1 PUSH4 0x2F745C59 GT PUSH2 0x17C JUMPI DUP1 PUSH4 0x55F804B3 GT PUSH2 0x14B JUMPI DUP1 PUSH4 0x55F804B3 EQ PUSH2 0x301 JUMPI DUP1 PUSH4 0x5939F777 EQ PUSH2 0x314 JUMPI DUP1 PUSH4 0x6352211E EQ PUSH2 0x334 JUMPI DUP1 PUSH4 0x70A08231 EQ PUSH2 0x347 JUMPI PUSH1 0x0 DUP1 REVERT JUMPDEST DUP1 PUSH4 0x2F745C59 EQ PUSH2 0x2A5 JUMPI DUP1 PUSH4 0x3F35198E EQ PUSH2 0x2B8 JUMPI DUP1 PUSH4 0x42842E0E EQ PUSH2 0x2DB JUMPI DUP1 PUSH4 0x4F6CCCE7 EQ PUSH2 0x2EE JUMPI PUSH1 0x0 DUP1 REVERT JUMPDEST DUP1 PUSH4 0x95EA7B3 GT PUSH2 0x1B8 JUMPI DUP1 PUSH4 0x95EA7B3 EQ PUSH2 0x247 JUMPI DUP1 PUSH4 0x18160DDD EQ PUSH2 0x25C JUMPI DUP1 PUSH4 0x23B872DD EQ PUSH2 0x272 JUMPI DUP1 PUSH4 0x245F0CA4 EQ PUSH2 0x285 JUMPI PUSH1 0x0 DUP1 REVERT JUMPDEST DUP1 PUSH4 0x1FFC9A7 EQ PUSH2 0x1DF JUMPI DUP1 PUSH4 0x6FDDE03 EQ PUSH2 0x207 JUMPI DUP1 PUSH4 0x81812FC EQ PUSH2 0x21C JUMPI JUMPDEST PUSH1 0x0 DUP1 REVERT JUMPDEST PUSH2 0x1F2 PUSH2 0x1ED CALLDATASIZE PUSH1 0x4 PUSH2 0x2D06 JUMP JUMPDEST PUSH2 0x49B JUMP JUMPDEST PUSH1 0x40 MLOAD SWAP1 ISZERO ISZERO DUP2 MSTORE PUSH1 0x20 ADD JUMPDEST PUSH1 0x40 MLOAD DUP1 SWAP2 SUB SWAP1 RETURN JUMPDEST PUSH2 0x20F PUSH2 0x4ED JUMP JUMPDEST PUSH1 0x40 MLOAD PUSH2 0x1FE SWAP2 SWAP1 PUSH2 0x2D73 JUMP JUMPDEST PUSH2 0x22F PUSH2 0x22A CALLDATASIZE PUSH1 0x4 PUSH2 0x2D86 JUMP JUMPDEST PUSH2 0x57F JUMP JUMPDEST PUSH1 0x40 MLOAD PUSH1 0x1 PUSH1 0x1 PUSH1 0xA0 SHL SUB SWAP1 SWAP2 AND DUP2 MSTORE PUSH1 0x20 ADD PUSH2 0x1FE JUMP JUMPDEST PUSH2 0x25A PUSH2 0x255 CALLDATASIZE PUSH1 0x4 PUSH2 0x2DBB JUMP JUMPDEST PUSH2 0x5A6 JUMP JUMPDEST STOP JUMPDEST PUSH2 0x264 PUSH2 0x6C0 JUMP JUMPDEST PUSH1 0x40 MLOAD SWAP1 DUP2 MSTORE PUSH1 0x20 ADD PUSH2 0x1FE JUMP JUMPDEST PUSH2 0x25A PUSH2 0x280 CALLDATASIZE PUSH1 0x4 PUSH2 0x2DE5 JUMP JUMPDEST PUSH2 0x6D1 JUMP JUMPDEST PUSH2 0x298 PUSH2 0x293 CALLDATASIZE PUSH1 0x4 PUSH2 0x2D86 JUMP JUMPDEST PUSH2 0x748 JUMP JUMPDEST PUSH1 0x40 MLOAD PUSH2 0x1FE SWAP2 SWAP1 PUSH2 0x2F07 JUMP JUMPDEST PUSH2 0x264 PUSH2 0x2B3 CALLDATASIZE PUSH1 0x4 PUSH2 0x2DBB JUMP JUMPDEST PUSH2 0xB8A JUMP JUMPDEST PUSH2 0x20F PUSH1 0x40 MLOAD DUP1 PUSH1 0x40 ADD PUSH1 0x40 MSTORE DUP1 PUSH1 0x4 DUP2 MSTORE PUSH1 0x20 ADD PUSH4 0x53545945 PUSH1 0xE0 SHL DUP2 MSTORE POP DUP2 JUMP JUMPDEST PUSH2 0x25A PUSH2 0x2E9 CALLDATASIZE PUSH1 0x4 PUSH2 0x2DE5 JUMP JUMPDEST PUSH2 0xC0C JUMP JUMPDEST PUSH2 0x264 PUSH2 0x2FC CALLDATASIZE PUSH1 0x4 PUSH2 0x2D86 JUMP JUMPDEST PUSH2 0xC27 JUMP JUMPDEST PUSH2 0x25A PUSH2 0x30F CALLDATASIZE PUSH1 0x4 PUSH2 0x2FC6 JUMP JUMPDEST PUSH2 0xC8A JUMP JUMPDEST PUSH2 0x327 PUSH2 0x322 CALLDATASIZE PUSH1 0x4 PUSH2 0x2FFB JUMP JUMPDEST PUSH2 0xCA2 JUMP JUMPDEST PUSH1 0x40 MLOAD PUSH2 0x1FE SWAP2 SWAP1 PUSH2 0x3016 JUMP JUMPDEST PUSH2 0x22F PUSH2 0x342 CALLDATASIZE PUSH1 0x4 PUSH2 0x2D86 JUMP JUMPDEST PUSH2 0x10FE JUMP JUMPDEST PUSH2 0x264 PUSH2 0x355 CALLDATASIZE PUSH1 0x4 PUSH2 0x2FFB JUMP JUMPDEST PUSH2 0x1126 JUMP JUMPDEST PUSH2 0x25A PUSH2 0x11C5 JUMP JUMPDEST PUSH2 0x25A PUSH2 0x370 CALLDATASIZE PUSH1 0x4 PUSH2 0x3078 JUMP JUMPDEST PUSH2 0x11D9 JUMP JUMPDEST PUSH1 0x6 SLOAD PUSH1 0x1 PUSH1 0x1 PUSH1 0xA0 SHL SUB AND PUSH2 0x22F JUMP JUMPDEST PUSH2 0x1F2 PUSH2 0x394 CALLDATASIZE PUSH1 0x4 PUSH2 0x3195 JUMP JUMPDEST PUSH2 0x13AB JUMP JUMPDEST PUSH2 0x327 PUSH2 0x1541 JUMP JUMPDEST PUSH2 0x20F PUSH2 0x199B JUMP JUMPDEST PUSH2 0x25A PUSH2 0x3B7 CALLDATASIZE PUSH1 0x4 PUSH2 0x31B7 JUMP JUMPDEST PUSH2 0x19AA JUMP JUMPDEST PUSH2 0x25A PUSH2 0x3CA CALLDATASIZE PUSH1 0x4 PUSH2 0x31F3 JUMP JUMPDEST PUSH2 0x19B5 JUMP JUMPDEST PUSH2 0x264 PUSH2 0x1A33 JUMP JUMPDEST PUSH2 0x264 PUSH2 0x3E5 CALLDATASIZE PUSH1 0x4 PUSH2 0x2FFB JUMP JUMPDEST PUSH2 0x1A3E JUMP JUMPDEST PUSH2 0x20F PUSH2 0x3F8 CALLDATASIZE PUSH1 0x4 PUSH2 0x2D86 JUMP JUMPDEST PUSH2 0x1A55 JUMP JUMPDEST PUSH2 0x20F PUSH1 0x40 MLOAD DUP1 PUSH1 0x40 ADD PUSH1 0x40 MSTORE DUP1 PUSH1 0xC DUP2 MSTORE PUSH1 0x20 ADD PUSH32 0x537974656D617020436F696E0000000000000000000000000000000000000000 DUP2 MSTORE POP DUP2 JUMP JUMPDEST PUSH2 0x22F PUSH2 0x447 CALLDATASIZE PUSH1 0x4 PUSH2 0x2D86 JUMP JUMPDEST PUSH2 0x1AEB JUMP JUMPDEST PUSH2 0x1F2 PUSH2 0x45A CALLDATASIZE PUSH1 0x4 PUSH2 0x326F JUMP JUMPDEST PUSH1 0x1 PUSH1 0x1 PUSH1 0xA0 SHL SUB SWAP2 DUP3 AND PUSH1 0x0 SWAP1 DUP2 MSTORE PUSH1 0x5 PUSH1 0x20 SWAP1 DUP2 MSTORE PUSH1 0x40 DUP1 DUP4 KECCAK256 SWAP4 SWAP1 SWAP5 AND DUP3 MSTORE SWAP2 SWAP1 SWAP2 MSTORE KECCAK256 SLOAD PUSH1 0xFF AND SWAP1 JUMP JUMPDEST PUSH2 0x25A PUSH2 0x496 CALLDATASIZE PUSH1 0x4 PUSH2 0x2FFB JUMP JUMPDEST PUSH2 0x1B0D JUMP JUMPDEST PUSH1 0x0 PUSH1 0x1 PUSH1 0x1 PUSH1 0xE0 SHL SUB NOT DUP3 AND PUSH4 0x80AC58CD PUSH1 0xE0 SHL EQ DUP1 PUSH2 0x4CC JUMPI POP PUSH1 0x1 PUSH1 0x1 PUSH1 0xE0 SHL SUB NOT DUP3 AND PUSH4 0x5B5E139F PUSH1 0xE0 SHL EQ JUMPDEST DUP1 PUSH2 0x4E7 JUMPI POP PUSH4 0x1FFC9A7 PUSH1 0xE0 SHL PUSH1 0x1 PUSH1 0x1 PUSH1 0xE0 SHL SUB NOT DUP4 AND EQ JUMPDEST SWAP3 SWAP2 POP POP JUMP JUMPDEST PUSH1 0x60 PUSH1 0x0 DUP1 SLOAD PUSH2 0x4FC SWAP1 PUSH2 0x32A2 JUMP JUMPDEST DUP1 PUSH1 0x1F ADD PUSH1 0x20 DUP1 SWAP2 DIV MUL PUSH1 0x20 ADD PUSH1 0x40 MLOAD SWAP1 DUP2 ADD PUSH1 0x40 MSTORE DUP1 SWAP3 SWAP2 SWAP1 DUP2 DUP2 MSTORE PUSH1 0x20 ADD DUP3 DUP1 SLOAD PUSH2 0x528 SWAP1 PUSH2 0x32A2 JUMP JUMPDEST DUP1 ISZERO PUSH2 0x575 JUMPI DUP1 PUSH1 0x1F LT PUSH2 0x54A JUMPI PUSH2 0x100 DUP1 DUP4 SLOAD DIV MUL DUP4 MSTORE SWAP2 PUSH1 0x20 ADD SWAP2 PUSH2 0x575 JUMP JUMPDEST DUP3 ADD SWAP2 SWAP1 PUSH1 0x0 MSTORE PUSH1 0x20 PUSH1 0x0 KECCAK256 SWAP1 JUMPDEST DUP2 SLOAD DUP2 MSTORE SWAP1 PUSH1 0x1 ADD SWAP1 PUSH1 0x20 ADD DUP1 DUP4 GT PUSH2 0x558 JUMPI DUP3 SWAP1 SUB PUSH1 0x1F AND DUP3 ADD SWAP2 JUMPDEST POP POP POP POP POP SWAP1 POP SWAP1 JUMP JUMPDEST PUSH1 0x0 PUSH2 0x58A DUP3 PUSH2 0x1B9D JUMP JUMPDEST POP PUSH1 0x0 SWAP1 DUP2 MSTORE PUSH1 0x4 PUSH1 0x20 MSTORE PUSH1 0x40 SWAP1 KECCAK256 SLOAD PUSH1 0x1 PUSH1 0x1 PUSH1 0xA0 SHL SUB AND SWAP1 JUMP JUMPDEST PUSH1 0x0 PUSH2 0x5B1 DUP3 PUSH2 0x1C01 JUMP JUMPDEST SWAP1 POP DUP1 PUSH1 0x1 PUSH1 0x1 PUSH1 0xA0 SHL SUB AND DUP4 PUSH1 0x1 PUSH1 0x1 PUSH1 0xA0 SHL SUB AND SUB PUSH2 0x623 JUMPI PUSH1 0x40 MLOAD PUSH3 0x461BCD PUSH1 0xE5 SHL DUP2 MSTORE PUSH1 0x20 PUSH1 0x4 DUP3 ADD MSTORE PUSH1 0x21 PUSH1 0x24 DUP3 ADD MSTORE PUSH32 0x4552433732313A20617070726F76616C20746F2063757272656E74206F776E65 PUSH1 0x44 DUP3 ADD MSTORE PUSH1 0x39 PUSH1 0xF9 SHL PUSH1 0x64 DUP3 ADD MSTORE PUSH1 0x84 ADD JUMPDEST PUSH1 0x40 MLOAD DUP1 SWAP2 SUB SWAP1 REVERT JUMPDEST CALLER PUSH1 0x1 PUSH1 0x1 PUSH1 0xA0 SHL SUB DUP3 AND EQ DUP1 PUSH2 0x63F JUMPI POP PUSH2 0x63F DUP2 CALLER PUSH2 0x45A JUMP JUMPDEST PUSH2 0x6B1 JUMPI PUSH1 0x40 MLOAD PUSH3 0x461BCD PUSH1 0xE5 SHL DUP2 MSTORE PUSH1 0x20 PUSH1 0x4 DUP3 ADD MSTORE PUSH1 0x3D PUSH1 0x24 DUP3 ADD MSTORE PUSH32 0x4552433732313A20617070726F76652063616C6C6572206973206E6F7420746F PUSH1 0x44 DUP3 ADD MSTORE PUSH32 0x6B656E206F776E6572206F7220617070726F76656420666F7220616C6C000000 PUSH1 0x64 DUP3 ADD MSTORE PUSH1 0x84 ADD PUSH2 0x61A JUMP JUMPDEST PUSH2 0x6BB DUP4 DUP4 PUSH2 0x1C66 JUMP JUMPDEST POP POP POP JUMP JUMPDEST PUSH1 0x0 PUSH2 0x6CC PUSH1 0xD PUSH2 0x1CD4 JUMP JUMPDEST SWAP1 POP SWAP1 JUMP JUMPDEST PUSH2 0x6DB CALLER DUP3 PUSH2 0x1CDF JUMP JUMPDEST PUSH2 0x73D JUMPI PUSH1 0x40 MLOAD PUSH3 0x461BCD PUSH1 0xE5 SHL DUP2 MSTORE PUSH1 0x20 PUSH1 0x4 DUP3 ADD MSTORE PUSH1 0x2D PUSH1 0x24 DUP3 ADD MSTORE PUSH32 0x4552433732313A2063616C6C6572206973206E6F7420746F6B656E206F776E65 PUSH1 0x44 DUP3 ADD MSTORE PUSH13 0x1C881BDC88185C1C1C9BDD9959 PUSH1 0x9A SHL PUSH1 0x64 DUP3 ADD MSTORE PUSH1 0x84 ADD PUSH2 0x61A JUMP JUMPDEST PUSH2 0x6BB DUP4 DUP4 DUP4 PUSH2 0x1D5D JUMP JUMPDEST PUSH2 0x7B5 PUSH1 0x40 MLOAD DUP1 PUSH2 0x180 ADD PUSH1 0x40 MSTORE DUP1 PUSH1 0x0 DUP2 MSTORE PUSH1 0x20 ADD PUSH1 0x0 DUP2 MSTORE PUSH1 0x20 ADD PUSH1 0x0 DUP2 MSTORE PUSH1 0x20 ADD PUSH1 0x0 DUP2 MSTORE PUSH1 0x20 ADD PUSH1 0x0 DUP2 MSTORE PUSH1 0x20 ADD PUSH1 0x0 DUP2 MSTORE PUSH1 0x20 ADD PUSH1 0x0 PUSH1 0x1 PUSH1 0x1 PUSH1 0xA0 SHL SUB AND DUP2 MSTORE PUSH1 0x20 ADD PUSH1 0x60 DUP2 MSTORE PUSH1 0x20 ADD PUSH1 0x60 DUP2 MSTORE PUSH1 0x20 ADD PUSH1 0x60 DUP2 MSTORE PUSH1 0x20 ADD PUSH1 0x60 DUP2 MSTORE PUSH1 0x20 ADD PUSH1 0x60 DUP2 MSTORE POP SWAP1 JUMP JUMPDEST PUSH2 0x7BE DUP3 PUSH2 0x1F3D JUMP JUMPDEST PUSH2 0x830 JUMPI PUSH1 0x40 MLOAD PUSH3 0x461BCD PUSH1 0xE5 SHL DUP2 MSTORE PUSH1 0x20 PUSH1 0x4 DUP3 ADD MSTORE PUSH1 0x33 PUSH1 0x24 DUP3 ADD MSTORE PUSH32 0x4552433732313A2070766E20746F6B656E20646F6573206E6F74206578697374 PUSH1 0x44 DUP3 ADD MSTORE PUSH32 0x206F72206E6F74206265656E206D696E74656400000000000000000000000000 PUSH1 0x64 DUP3 ADD MSTORE PUSH1 0x84 ADD PUSH2 0x61A JUMP JUMPDEST PUSH1 0x0 DUP3 DUP2 MSTORE PUSH1 0x10 PUSH1 0x20 SWAP1 DUP2 MSTORE PUSH1 0x40 DUP1 DUP4 KECCAK256 SLOAD DUP1 DUP5 MSTORE PUSH1 0xB DUP4 MSTORE SWAP3 DUP2 SWAP1 KECCAK256 DUP2 MLOAD PUSH2 0x180 DUP2 ADD DUP4 MSTORE DUP2 SLOAD DUP2 MSTORE PUSH1 0x1 DUP3 ADD SLOAD SWAP4 DUP2 ADD SWAP4 SWAP1 SWAP4 MSTORE PUSH1 0x2 DUP2 ADD SLOAD SWAP2 DUP4 ADD SWAP2 SWAP1 SWAP2 MSTORE PUSH1 0x3 DUP2 ADD SLOAD PUSH1 0x60 DUP4 ADD MSTORE PUSH1 0x4 DUP2 ADD SLOAD PUSH1 0x80 DUP4 ADD MSTORE PUSH1 0x5 DUP2 ADD SLOAD PUSH1 0xA0 DUP4 ADD MSTORE PUSH1 0x6 DUP2 ADD SLOAD PUSH1 0x1 PUSH1 0x1 PUSH1 0xA0 SHL SUB AND PUSH1 0xC0 DUP4 ADD MSTORE PUSH1 0x7 DUP2 ADD DUP1 SLOAD PUSH1 0xE0 DUP5 ADD SWAP2 SWAP1 PUSH2 0x8B8 SWAP1 PUSH2 0x32A2 JUMP JUMPDEST DUP1 PUSH1 0x1F ADD PUSH1 0x20 DUP1 SWAP2 DIV MUL PUSH1 0x20 ADD PUSH1 0x40 MLOAD SWAP1 DUP2 ADD PUSH1 0x40 MSTORE DUP1 SWAP3 SWAP2 SWAP1 DUP2 DUP2 MSTORE PUSH1 0x20 ADD DUP3 DUP1 SLOAD PUSH2 0x8E4 SWAP1 PUSH2 0x32A2 JUMP JUMPDEST DUP1 ISZERO PUSH2 0x931 JUMPI DUP1 PUSH1 0x1F LT PUSH2 0x906 JUMPI PUSH2 0x100 DUP1 DUP4 SLOAD DIV MUL DUP4 MSTORE SWAP2 PUSH1 0x20 ADD SWAP2 PUSH2 0x931 JUMP JUMPDEST DUP3 ADD SWAP2 SWAP1 PUSH1 0x0 MSTORE PUSH1 0x20 PUSH1 0x0 KECCAK256 SWAP1 JUMPDEST DUP2 SLOAD DUP2 MSTORE SWAP1 PUSH1 0x1 ADD SWAP1 PUSH1 0x20 ADD DUP1 DUP4 GT PUSH2 0x914 JUMPI DUP3 SWAP1 SUB PUSH1 0x1F AND DUP3 ADD SWAP2 JUMPDEST POP POP POP POP POP DUP2 MSTORE PUSH1 0x20 ADD PUSH1 0x8 DUP3 ADD DUP1 SLOAD PUSH2 0x94A SWAP1 PUSH2 0x32A2 JUMP JUMPDEST DUP1 PUSH1 0x1F ADD PUSH1 0x20 DUP1 SWAP2 DIV MUL PUSH1 0x20 ADD PUSH1 0x40 MLOAD SWAP1 DUP2 ADD PUSH1 0x40 MSTORE DUP1 SWAP3 SWAP2 SWAP1 DUP2 DUP2 MSTORE PUSH1 0x20 ADD DUP3 DUP1 SLOAD PUSH2 0x976 SWAP1 PUSH2 0x32A2 JUMP JUMPDEST DUP1 ISZERO PUSH2 0x9C3 JUMPI DUP1 PUSH1 0x1F LT PUSH2 0x998 JUMPI PUSH2 0x100 DUP1 DUP4 SLOAD DIV MUL DUP4 MSTORE SWAP2 PUSH1 0x20 ADD SWAP2 PUSH2 0x9C3 JUMP JUMPDEST DUP3 ADD SWAP2 SWAP1 PUSH1 0x0 MSTORE PUSH1 0x20 PUSH1 0x0 KECCAK256 SWAP1 JUMPDEST DUP2 SLOAD DUP2 MSTORE SWAP1 PUSH1 0x1 ADD SWAP1 PUSH1 0x20 ADD DUP1 DUP4 GT PUSH2 0x9A6 JUMPI DUP3 SWAP1 SUB PUSH1 0x1F AND DUP3 ADD SWAP2 JUMPDEST POP POP POP POP POP DUP2 MSTORE PUSH1 0x20 ADD PUSH1 0x9 DUP3 ADD DUP1 SLOAD PUSH2 0x9DC SWAP1 PUSH2 0x32A2 JUMP JUMPDEST DUP1 PUSH1 0x1F ADD PUSH1 0x20 DUP1 SWAP2 DIV MUL PUSH1 0x20 ADD PUSH1 0x40 MLOAD SWAP1 DUP2 ADD PUSH1 0x40 MSTORE DUP1 SWAP3 SWAP2 SWAP1 DUP2 DUP2 MSTORE PUSH1 0x20 ADD DUP3 DUP1 SLOAD PUSH2 0xA08 SWAP1 PUSH2 0x32A2 JUMP JUMPDEST DUP1 ISZERO PUSH2 0xA55 JUMPI DUP1 PUSH1 0x1F LT PUSH2 0xA2A JUMPI PUSH2 0x100 DUP1 DUP4 SLOAD DIV MUL DUP4 MSTORE SWAP2 PUSH1 0x20 ADD SWAP2 PUSH2 0xA55 JUMP JUMPDEST DUP3 ADD SWAP2 SWAP1 PUSH1 0x0 MSTORE PUSH1 0x20 PUSH1 0x0 KECCAK256 SWAP1 JUMPDEST DUP2 SLOAD DUP2 MSTORE SWAP1 PUSH1 0x1 ADD SWAP1 PUSH1 0x20 ADD DUP1 DUP4 GT PUSH2 0xA38 JUMPI DUP3 SWAP1 SUB PUSH1 0x1F AND DUP3 ADD SWAP2 JUMPDEST POP POP POP POP POP DUP2 MSTORE PUSH1 0x20 ADD PUSH1 0xA DUP3 ADD DUP1 SLOAD PUSH2 0xA6E SWAP1 PUSH2 0x32A2 JUMP JUMPDEST DUP1 PUSH1 0x1F ADD PUSH1 0x20 DUP1 SWAP2 DIV MUL PUSH1 0x20 ADD PUSH1 0x40 MLOAD SWAP1 DUP2 ADD PUSH1 0x40 MSTORE DUP1 SWAP3 SWAP2 SWAP1 DUP2 DUP2 MSTORE PUSH1 0x20 ADD DUP3 DUP1 SLOAD PUSH2 0xA9A SWAP1 PUSH2 0x32A2 JUMP JUMPDEST DUP1 ISZERO PUSH2 0xAE7 JUMPI DUP1 PUSH1 0x1F LT PUSH2 0xABC JUMPI PUSH2 0x100 DUP1 DUP4 SLOAD DIV MUL DUP4 MSTORE SWAP2 PUSH1 0x20 ADD SWAP2 PUSH2 0xAE7 JUMP JUMPDEST DUP3 ADD SWAP2 SWAP1 PUSH1 0x0 MSTORE PUSH1 0x20 PUSH1 0x0 KECCAK256 SWAP1 JUMPDEST DUP2 SLOAD DUP2 MSTORE SWAP1 PUSH1 0x1 ADD SWAP1 PUSH1 0x20 ADD DUP1 DUP4 GT PUSH2 0xACA JUMPI DUP3 SWAP1 SUB PUSH1 0x1F AND DUP3 ADD SWAP2 JUMPDEST POP POP POP POP POP DUP2 MSTORE PUSH1 0x20 ADD PUSH1 0xB DUP3 ADD DUP1 SLOAD PUSH2 0xB00 SWAP1 PUSH2 0x32A2 JUMP JUMPDEST DUP1 PUSH1 0x1F ADD PUSH1 0x20 DUP1 SWAP2 DIV MUL PUSH1 0x20 ADD PUSH1 0x40 MLOAD SWAP1 DUP2 ADD PUSH1 0x40 MSTORE DUP1 SWAP3 SWAP2 SWAP1 DUP2 DUP2 MSTORE PUSH1 0x20 ADD DUP3 DUP1 SLOAD PUSH2 0xB2C SWAP1 PUSH2 0x32A2 JUMP JUMPDEST DUP1 ISZERO PUSH2 0xB79 JUMPI DUP1 PUSH1 0x1F LT PUSH2 0xB4E JUMPI PUSH2 0x100 DUP1 DUP4 SLOAD DIV MUL DUP4 MSTORE SWAP2 PUSH1 0x20 ADD SWAP2 PUSH2 0xB79 JUMP JUMPDEST DUP3 ADD SWAP2 SWAP1 PUSH1 0x0 MSTORE PUSH1 0x20 PUSH1 0x0 KECCAK256 SWAP1 JUMPDEST DUP2 SLOAD DUP2 MSTORE SWAP1 PUSH1 0x1 ADD SWAP1 PUSH1 0x20 ADD DUP1 DUP4 GT PUSH2 0xB5C JUMPI DUP3 SWAP1 SUB PUSH1 0x1F AND DUP3 ADD SWAP2 JUMPDEST POP POP POP POP POP DUP2 MSTORE POP POP SWAP2 POP POP SWAP2 SWAP1 POP JUMP JUMPDEST PUSH1 0x0 PUSH2 0xB95 DUP4 PUSH2 0x1126 JUMP JUMPDEST DUP3 LT PUSH2 0xBE3 JUMPI PUSH1 0x40 MLOAD PUSH3 0x461BCD PUSH1 0xE5 SHL DUP2 MSTORE PUSH1 0x20 PUSH1 0x4 DUP3 ADD MSTORE PUSH1 0x13 PUSH1 0x24 DUP3 ADD MSTORE PUSH32 0x496E646578206F7574206F6620626F756E647300000000000000000000000000 PUSH1 0x44 DUP3 ADD MSTORE PUSH1 0x64 ADD PUSH2 0x61A JUMP JUMPDEST PUSH1 0x1 PUSH1 0x1 PUSH1 0xA0 SHL SUB DUP4 AND PUSH1 0x0 SWAP1 DUP2 MSTORE PUSH1 0xC PUSH1 0x20 MSTORE PUSH1 0x40 SWAP1 KECCAK256 PUSH2 0xC05 SWAP1 DUP4 PUSH2 0x1F57 JUMP JUMPDEST SWAP4 SWAP3 POP POP POP JUMP JUMPDEST PUSH2 0x6BB DUP4 DUP4 DUP4 PUSH1 0x40 MLOAD DUP1 PUSH1 0x20 ADD PUSH1 0x40 MSTORE DUP1 PUSH1 0x0 DUP2 MSTORE POP PUSH2 0x19B5 JUMP JUMPDEST PUSH1 0x0 PUSH2 0xC31 PUSH2 0x6C0 JUMP JUMPDEST DUP3 LT PUSH2 0xC7F JUMPI PUSH1 0x40 MLOAD PUSH3 0x461BCD PUSH1 0xE5 SHL DUP2 MSTORE PUSH1 0x20 PUSH1 0x4 DUP3 ADD MSTORE PUSH1 0x1F PUSH1 0x24 DUP3 ADD MSTORE PUSH32 0x455243373231456E756D657261626C653A20696E76616C696420696E64657800 PUSH1 0x44 DUP3 ADD MSTORE PUSH1 0x64 ADD PUSH2 0x61A JUMP JUMPDEST PUSH2 0x4E7 DUP3 PUSH1 0x1 PUSH2 0x32DC JUMP JUMPDEST PUSH2 0xC92 PUSH2 0x1F63 JUMP JUMPDEST PUSH1 0x9 PUSH2 0xC9E DUP3 DUP3 PUSH2 0x334B JUMP JUMPDEST POP POP JUMP JUMPDEST PUSH1 0x60 PUSH1 0x0 PUSH2 0xCAF DUP4 PUSH2 0x1126 JUMP JUMPDEST SWAP1 POP PUSH1 0x0 DUP2 PUSH8 0xFFFFFFFFFFFFFFFF DUP2 GT ISZERO PUSH2 0xCCC JUMPI PUSH2 0xCCC PUSH2 0x2F1A JUMP JUMPDEST PUSH1 0x40 MLOAD SWAP1 DUP1 DUP3 MSTORE DUP1 PUSH1 0x20 MUL PUSH1 0x20 ADD DUP3 ADD PUSH1 0x40 MSTORE DUP1 ISZERO PUSH2 0xD6A JUMPI DUP2 PUSH1 0x20 ADD JUMPDEST PUSH2 0xD57 PUSH1 0x40 MLOAD DUP1 PUSH2 0x180 ADD PUSH1 0x40 MSTORE DUP1 PUSH1 0x0 DUP2 MSTORE PUSH1 0x20 ADD PUSH1 0x0 DUP2 MSTORE PUSH1 0x20 ADD PUSH1 0x0 DUP2 MSTORE PUSH1 0x20 ADD PUSH1 0x0 DUP2 MSTORE PUSH1 0x20 ADD PUSH1 0x0 DUP2 MSTORE PUSH1 0x20 ADD PUSH1 0x0 DUP2 MSTORE PUSH1 0x20 ADD PUSH1 0x0 PUSH1 0x1 PUSH1 0x1 PUSH1 0xA0 SHL SUB AND DUP2 MSTORE PUSH1 0x20 ADD PUSH1 0x60 DUP2 MSTORE PUSH1 0x20 ADD PUSH1 0x60 DUP2 MSTORE PUSH1 0x20 ADD PUSH1 0x60 DUP2 MSTORE PUSH1 0x20 ADD PUSH1 0x60 DUP2 MSTORE PUSH1 0x20 ADD PUSH1 0x60 DUP2 MSTORE POP SWAP1 JUMP JUMPDEST DUP2 MSTORE PUSH1 0x20 ADD SWAP1 PUSH1 0x1 SWAP1 SUB SWAP1 DUP2 PUSH2 0xCEA JUMPI SWAP1 POP JUMPDEST POP SWAP1 POP PUSH1 0x0 JUMPDEST DUP3 DUP2 LT ISZERO PUSH2 0x10F6 JUMPI PUSH1 0x0 PUSH2 0xD84 DUP7 DUP4 PUSH2 0xB8A JUMP JUMPDEST PUSH1 0x0 DUP2 DUP2 MSTORE PUSH1 0xB PUSH1 0x20 SWAP1 DUP2 MSTORE PUSH1 0x40 SWAP2 DUP3 SWAP1 KECCAK256 DUP3 MLOAD PUSH2 0x180 DUP2 ADD DUP5 MSTORE DUP2 SLOAD DUP2 MSTORE PUSH1 0x1 DUP3 ADD SLOAD SWAP3 DUP2 ADD SWAP3 SWAP1 SWAP3 MSTORE PUSH1 0x2 DUP2 ADD SLOAD SWAP3 DUP3 ADD SWAP3 SWAP1 SWAP3 MSTORE PUSH1 0x3 DUP3 ADD SLOAD PUSH1 0x60 DUP3 ADD MSTORE PUSH1 0x4 DUP3 ADD SLOAD PUSH1 0x80 DUP3 ADD MSTORE PUSH1 0x5 DUP3 ADD SLOAD PUSH1 0xA0 DUP3 ADD MSTORE PUSH1 0x6 DUP3 ADD SLOAD PUSH1 0x1 PUSH1 0x1 PUSH1 0xA0 SHL SUB AND PUSH1 0xC0 DUP3 ADD MSTORE PUSH1 0x7 DUP3 ADD DUP1 SLOAD SWAP4 SWAP5 POP SWAP1 SWAP3 PUSH1 0xE0 DUP5 ADD SWAP2 SWAP1 PUSH2 0xE06 SWAP1 PUSH2 0x32A2 JUMP JUMPDEST DUP1 PUSH1 0x1F ADD PUSH1 0x20 DUP1 SWAP2 DIV MUL PUSH1 0x20 ADD PUSH1 0x40 MLOAD SWAP1 DUP2 ADD PUSH1 0x40 MSTORE DUP1 SWAP3 SWAP2 SWAP1 DUP2 DUP2 MSTORE PUSH1 0x20 ADD DUP3 DUP1 SLOAD PUSH2 0xE32 SWAP1 PUSH2 0x32A2 JUMP JUMPDEST DUP1 ISZERO PUSH2 0xE7F JUMPI DUP1 PUSH1 0x1F LT PUSH2 0xE54 JUMPI PUSH2 0x100 DUP1 DUP4 SLOAD DIV MUL DUP4 MSTORE SWAP2 PUSH1 0x20 ADD SWAP2 PUSH2 0xE7F JUMP JUMPDEST DUP3 ADD SWAP2 SWAP1 PUSH1 0x0 MSTORE PUSH1 0x20 PUSH1 0x0 KECCAK256 SWAP1 JUMPDEST DUP2 SLOAD DUP2 MSTORE SWAP1 PUSH1 0x1 ADD SWAP1 PUSH1 0x20 ADD DUP1 DUP4 GT PUSH2 0xE62 JUMPI DUP3 SWAP1 SUB PUSH1 0x1F AND DUP3 ADD SWAP2 JUMPDEST POP POP POP POP POP DUP2 MSTORE PUSH1 0x20 ADD PUSH1 0x8 DUP3 ADD DUP1 SLOAD PUSH2 0xE98 SWAP1 PUSH2 0x32A2 JUMP JUMPDEST DUP1 PUSH1 0x1F ADD PUSH1 0x20 DUP1 SWAP2 DIV MUL PUSH1 0x20 ADD PUSH1 0x40 MLOAD SWAP1 DUP2 ADD PUSH1 0x40 MSTORE DUP1 SWAP3 SWAP2 SWAP1 DUP2 DUP2 MSTORE PUSH1 0x20 ADD DUP3 DUP1 SLOAD PUSH2 0xEC4 SWAP1 PUSH2 0x32A2 JUMP JUMPDEST DUP1 ISZERO PUSH2 0xF11 JUMPI DUP1 PUSH1 0x1F LT PUSH2 0xEE6 JUMPI PUSH2 0x100 DUP1 DUP4 SLOAD DIV MUL DUP4 MSTORE SWAP2 PUSH1 0x20 ADD SWAP2 PUSH2 0xF11 JUMP JUMPDEST DUP3 ADD SWAP2 SWAP1 PUSH1 0x0 MSTORE PUSH1 0x20 PUSH1 0x0 KECCAK256 SWAP1 JUMPDEST DUP2 SLOAD DUP2 MSTORE SWAP1 PUSH1 0x1 ADD SWAP1 PUSH1 0x20 ADD DUP1 DUP4 GT PUSH2 0xEF4 JUMPI DUP3 SWAP1 SUB PUSH1 0x1F AND DUP3 ADD SWAP2 JUMPDEST POP POP POP POP POP DUP2 MSTORE PUSH1 0x20 ADD PUSH1 0x9 DUP3 ADD DUP1 SLOAD PUSH2 0xF2A SWAP1 PUSH2 0x32A2 JUMP JUMPDEST DUP1 PUSH1 0x1F ADD PUSH1 0x20 DUP1 SWAP2 DIV MUL PUSH1 0x20 ADD PUSH1 0x40 MLOAD SWAP1 DUP2 ADD PUSH1 0x40 MSTORE DUP1 SWAP3 SWAP2 SWAP1 DUP2 DUP2 MSTORE PUSH1 0x20 ADD DUP3 DUP1 SLOAD PUSH2 0xF56 SWAP1 PUSH2 0x32A2 JUMP JUMPDEST DUP1 ISZERO PUSH2 0xFA3 JUMPI DUP1 PUSH1 0x1F LT PUSH2 0xF78 JUMPI PUSH2 0x100 DUP1 DUP4 SLOAD DIV MUL DUP4 MSTORE SWAP2 PUSH1 0x20 ADD SWAP2 PUSH2 0xFA3 JUMP JUMPDEST DUP3 ADD SWAP2 SWAP1 PUSH1 0x0 MSTORE PUSH1 0x20 PUSH1 0x0 KECCAK256 SWAP1 JUMPDEST DUP2 SLOAD DUP2 MSTORE SWAP1 PUSH1 0x1 ADD SWAP1 PUSH1 0x20 ADD DUP1 DUP4 GT PUSH2 0xF86 JUMPI DUP3 SWAP1 SUB PUSH1 0x1F AND DUP3 ADD SWAP2 JUMPDEST POP POP POP POP POP DUP2 MSTORE PUSH1 0x20 ADD PUSH1 0xA DUP3 ADD DUP1 SLOAD PUSH2 0xFBC SWAP1 PUSH2 0x32A2 JUMP JUMPDEST DUP1 PUSH1 0x1F ADD PUSH1 0x20 DUP1 SWAP2 DIV MUL PUSH1 0x20 ADD PUSH1 0x40 MLOAD SWAP1 DUP2 ADD PUSH1 0x40 MSTORE DUP1 SWAP3 SWAP2 SWAP1 DUP2 DUP2 MSTORE PUSH1 0x20 ADD DUP3 DUP1 SLOAD PUSH2 0xFE8 SWAP1 PUSH2 0x32A2 JUMP JUMPDEST DUP1 ISZERO PUSH2 0x1035 JUMPI DUP1 PUSH1 0x1F LT PUSH2 0x100A JUMPI PUSH2 0x100 DUP1 DUP4 SLOAD DIV MUL DUP4 MSTORE SWAP2 PUSH1 0x20 ADD SWAP2 PUSH2 0x1035 JUMP JUMPDEST DUP3 ADD SWAP2 SWAP1 PUSH1 0x0 MSTORE PUSH1 0x20 PUSH1 0x0 KECCAK256 SWAP1 JUMPDEST DUP2 SLOAD DUP2 MSTORE SWAP1 PUSH1 0x1 ADD SWAP1 PUSH1 0x20 ADD DUP1 DUP4 GT PUSH2 0x1018 JUMPI DUP3 SWAP1 SUB PUSH1 0x1F AND DUP3 ADD SWAP2 JUMPDEST POP POP POP POP POP DUP2 MSTORE PUSH1 0x20 ADD PUSH1 0xB DUP3 ADD DUP1 SLOAD PUSH2 0x104E SWAP1 PUSH2 0x32A2 JUMP JUMPDEST DUP1 PUSH1 0x1F ADD PUSH1 0x20 DUP1 SWAP2 DIV MUL PUSH1 0x20 ADD PUSH1 0x40 MLOAD SWAP1 DUP2 ADD PUSH1 0x40 MSTORE DUP1 SWAP3 SWAP2 SWAP1 DUP2 DUP2 MSTORE PUSH1 0x20 ADD DUP3 DUP1 SLOAD PUSH2 0x107A SWAP1 PUSH2 0x32A2 JUMP JUMPDEST DUP1 ISZERO PUSH2 0x10C7 JUMPI DUP1 PUSH1 0x1F LT PUSH2 0x109C JUMPI PUSH2 0x100 DUP1 DUP4 SLOAD DIV MUL DUP4 MSTORE SWAP2 PUSH1 0x20 ADD SWAP2 PUSH2 0x10C7 JUMP JUMPDEST DUP3 ADD SWAP2 SWAP1 PUSH1 0x0 MSTORE PUSH1 0x20 PUSH1 0x0 KECCAK256 SWAP1 JUMPDEST DUP2 SLOAD DUP2 MSTORE SWAP1 PUSH1 0x1 ADD SWAP1 PUSH1 0x20 ADD DUP1 DUP4 GT PUSH2 0x10AA JUMPI DUP3 SWAP1 SUB PUSH1 0x1F AND DUP3 ADD SWAP2 JUMPDEST POP POP POP POP POP DUP2 MSTORE POP POP DUP4 DUP4 DUP2 MLOAD DUP2 LT PUSH2 0x10E2 JUMPI PUSH2 0x10E2 PUSH2 0x340B JUMP JUMPDEST PUSH1 0x20 SWAP1 DUP2 MUL SWAP2 SWAP1 SWAP2 ADD ADD MSTORE POP PUSH1 0x1 ADD PUSH2 0xD70 JUMP JUMPDEST POP SWAP4 SWAP3 POP POP POP JUMP JUMPDEST PUSH1 0x0 PUSH2 0x4E7 DUP3 PUSH1 0x40 MLOAD DUP1 PUSH1 0x60 ADD PUSH1 0x40 MSTORE DUP1 PUSH1 0x29 DUP2 MSTORE PUSH1 0x20 ADD PUSH2 0x355C PUSH1 0x29 SWAP2 CODECOPY PUSH1 0xD SWAP2 SWAP1 PUSH2 0x1FBD JUMP JUMPDEST PUSH1 0x0 PUSH1 0x1 PUSH1 0x1 PUSH1 0xA0 SHL SUB DUP3 AND PUSH2 0x11A4 JUMPI PUSH1 0x40 MLOAD PUSH3 0x461BCD PUSH1 0xE5 SHL DUP2 MSTORE PUSH1 0x20 PUSH1 0x4 DUP3 ADD MSTORE PUSH1 0x2A PUSH1 0x24 DUP3 ADD MSTORE PUSH32 0x4552433732313A2062616C616E636520717565727920666F7220746865207A65 PUSH1 0x44 DUP3 ADD MSTORE PUSH32 0x726F206164647265737300000000000000000000000000000000000000000000 PUSH1 0x64 DUP3 ADD MSTORE PUSH1 0x84 ADD PUSH2 0x61A JUMP JUMPDEST PUSH1 0x1 PUSH1 0x1 PUSH1 0xA0 SHL SUB DUP3 AND PUSH1 0x0 SWAP1 DUP2 MSTORE PUSH1 0xC PUSH1 0x20 MSTORE PUSH1 0x40 SWAP1 KECCAK256 PUSH2 0x4E7 SWAP1 PUSH2 0x1FCA JUMP JUMPDEST PUSH2 0x11CD PUSH2 0x1F63 JUMP JUMPDEST PUSH2 0x11D7 PUSH1 0x0 PUSH2 0x1FD4 JUMP JUMPDEST JUMP JUMPDEST PUSH2 0x11E1 PUSH2 0x1F63 JUMP JUMPDEST PUSH2 0x11E9 PUSH2 0x2026 JUMP JUMPDEST PUSH2 0x11F2 DUP2 PUSH2 0x1F3D JUMP JUMPDEST ISZERO PUSH2 0x123F JUMPI PUSH1 0x40 MLOAD PUSH3 0x461BCD PUSH1 0xE5 SHL DUP2 MSTORE PUSH1 0x20 PUSH1 0x4 DUP3 ADD DUP2 SWAP1 MSTORE PUSH1 0x24 DUP3 ADD MSTORE PUSH32 0x4552433732313A2070766E20746F6B656E20616C7265616479206D696E746564 PUSH1 0x44 DUP3 ADD MSTORE PUSH1 0x64 ADD PUSH2 0x61A JUMP JUMPDEST PUSH1 0x1 PUSH1 0x1 PUSH1 0xA0 SHL SUB DUP4 AND PUSH2 0x1295 JUMPI PUSH1 0x40 MLOAD PUSH3 0x461BCD PUSH1 0xE5 SHL DUP2 MSTORE PUSH1 0x20 PUSH1 0x4 DUP3 ADD MSTORE PUSH1 0x17 PUSH1 0x24 DUP3 ADD MSTORE PUSH32 0x4552433732313A20696E76616C69642061646472657373000000000000000000 PUSH1 0x44 DUP3 ADD MSTORE PUSH1 0x64 ADD PUSH2 0x61A JUMP JUMPDEST ADDRESS PUSH1 0x1 PUSH1 0x1 PUSH1 0xA0 SHL SUB DUP5 AND SUB PUSH2 0x12ED JUMPI PUSH1 0x40 MLOAD PUSH3 0x461BCD PUSH1 0xE5 SHL DUP2 MSTORE PUSH1 0x20 PUSH1 0x4 DUP3 ADD MSTORE PUSH1 0x17 PUSH1 0x24 DUP3 ADD MSTORE PUSH32 0x4552433732313A20696E76616C69642061646472657373000000000000000000 PUSH1 0x44 DUP3 ADD MSTORE PUSH1 0x64 ADD PUSH2 0x61A JUMP JUMPDEST PUSH2 0x12FB PUSH1 0xA DUP1 SLOAD PUSH1 0x1 ADD SWAP1 SSTORE JUMP JUMPDEST PUSH1 0x0 PUSH2 0x1306 PUSH1 0xA SLOAD SWAP1 JUMP JUMPDEST SWAP1 POP PUSH2 0x1312 DUP5 DUP4 PUSH2 0x207F JUMP JUMPDEST PUSH2 0x131C DUP3 DUP13 PUSH2 0x2099 JUMP JUMPDEST PUSH2 0x1326 DUP5 DUP3 PUSH2 0x213B JUMP JUMPDEST PUSH2 0x1330 DUP5 DUP3 PUSH2 0x2147 JUMP JUMPDEST PUSH2 0x1346 DUP2 DUP4 PUSH1 0x0 SWAP1 DUP2 MSTORE PUSH1 0x10 PUSH1 0x20 MSTORE PUSH1 0x40 SWAP1 KECCAK256 SSTORE JUMP JUMPDEST PUSH2 0x135A DUP13 DUP13 DUP13 DUP13 DUP13 DUP13 DUP13 DUP13 DUP13 DUP13 DUP13 DUP13 PUSH2 0x2169 JUMP JUMPDEST DUP2 DUP2 PUSH32 0x30B042F6D29A39B7C10C2DFBD81016DB37EA3D11E72EC5764FB0D0F7A1012A3A DUP14 PUSH1 0x40 MLOAD PUSH2 0x138B SWAP2 SWAP1 PUSH2 0x2D73 JUMP JUMPDEST PUSH1 0x40 MLOAD DUP1 SWAP2 SUB SWAP1 LOG3 POP PUSH2 0x139E PUSH1 0x1 PUSH1 0x8 SSTORE JUMP JUMPDEST POP POP POP POP POP POP POP POP POP POP POP JUMP JUMPDEST PUSH1 0x0 PUSH2 0x13B5 PUSH2 0x1F63 JUMP JUMPDEST PUSH1 0x0 DUP3 GT PUSH2 0x1410 JUMPI PUSH1 0x40 MLOAD PUSH3 0x461BCD PUSH1 0xE5 SHL DUP2 MSTORE PUSH1 0x20 PUSH1 0x4 DUP3 ADD MSTORE PUSH1 0x22 PUSH1 0x24 DUP3 ADD MSTORE PUSH32 0x506C6F74205072696365206D7573742062652067726561746572207468616E20 PUSH1 0x44 DUP3 ADD MSTORE PUSH2 0x1817 PUSH1 0xF1 SHL PUSH1 0x64 DUP3 ADD MSTORE PUSH1 0x84 ADD PUSH2 0x61A JUMP JUMPDEST CALLER PUSH2 0x145D JUMPI PUSH1 0x40 MLOAD PUSH3 0x461BCD PUSH1 0xE5 SHL DUP2 MSTORE PUSH1 0x20 PUSH1 0x4 DUP3 ADD MSTORE PUSH1 0x17 PUSH1 0x24 DUP3 ADD MSTORE PUSH32 0x4552433732313A20696E76616C69642061646472657373000000000000000000 PUSH1 0x44 DUP3 ADD MSTORE PUSH1 0x64 ADD PUSH2 0x61A JUMP JUMPDEST PUSH2 0x1466 DUP4 PUSH2 0x1F3D JUMP JUMPDEST PUSH2 0x14D8 JUMPI PUSH1 0x40 MLOAD PUSH3 0x461BCD PUSH1 0xE5 SHL DUP2 MSTORE PUSH1 0x20 PUSH1 0x4 DUP3 ADD MSTORE PUSH1 0x33 PUSH1 0x24 DUP3 ADD MSTORE PUSH32 0x4552433732313A2070766E20746F6B656E20646F6573206E6F74206578697374 PUSH1 0x44 DUP3 ADD MSTORE PUSH32 0x206F72206E6F74206265656E206D696E74656400000000000000000000000000 PUSH1 0x64 DUP3 ADD MSTORE PUSH1 0x84 ADD PUSH2 0x61A JUMP JUMPDEST PUSH1 0x0 DUP4 DUP2 MSTORE PUSH1 0x10 PUSH1 0x20 SWAP1 DUP2 MSTORE PUSH1 0x40 DUP1 DUP4 KECCAK256 SLOAD DUP1 DUP5 MSTORE PUSH1 0xB DUP4 MSTORE SWAP3 DUP2 SWAP1 KECCAK256 PUSH1 0x1 ADD DUP6 SWAP1 SSTORE DUP1 MLOAD CALLER DUP2 MSTORE SWAP2 DUP3 ADD DUP7 SWAP1 MSTORE DUP2 DUP2 ADD DUP6 SWAP1 MSTORE MLOAD PUSH32 0x598B48A1AAD5D72FCEDBC7ED6AAC08AD920501EEDCA72D3DACE23490F11F7812 SWAP2 DUP2 SWAP1 SUB PUSH1 0x60 ADD SWAP1 LOG1 POP PUSH1 0x1 SWAP4 SWAP3 POP POP POP JUMP JUMPDEST PUSH1 0x60 PUSH1 0x0 PUSH2 0x154E PUSH1 0xA SLOAD SWAP1 JUMP JUMPDEST SWAP1 POP PUSH1 0x0 DUP2 PUSH8 0xFFFFFFFFFFFFFFFF DUP2 GT ISZERO PUSH2 0x156B JUMPI PUSH2 0x156B PUSH2 0x2F1A JUMP JUMPDEST PUSH1 0x40 MLOAD SWAP1 DUP1 DUP3 MSTORE DUP1 PUSH1 0x20 MUL PUSH1 0x20 ADD DUP3 ADD PUSH1 0x40 MSTORE DUP1 ISZERO PUSH2 0x1609 JUMPI DUP2 PUSH1 0x20 ADD JUMPDEST PUSH2 0x15F6 PUSH1 0x40 MLOAD DUP1 PUSH2 0x180 ADD PUSH1 0x40 MSTORE DUP1 PUSH1 0x0 DUP2 MSTORE PUSH1 0x20 ADD PUSH1 0x0 DUP2 MSTORE PUSH1 0x20 ADD PUSH1 0x0 DUP2 MSTORE PUSH1 0x20 ADD PUSH1 0x0 DUP2 MSTORE PUSH1 0x20 ADD PUSH1 0x0 DUP2 MSTORE PUSH1 0x20 ADD PUSH1 0x0 DUP2 MSTORE PUSH1 0x20 ADD PUSH1 0x0 PUSH1 0x1 PUSH1 0x1 PUSH1 0xA0 SHL SUB AND DUP2 MSTORE PUSH1 0x20 ADD PUSH1 0x60 DUP2 MSTORE PUSH1 0x20 ADD PUSH1 0x60 DUP2 MSTORE PUSH1 0x20 ADD PUSH1 0x60 DUP2 MSTORE PUSH1 0x20 ADD PUSH1 0x60 DUP2 MSTORE PUSH1 0x20 ADD PUSH1 0x60 DUP2 MSTORE POP SWAP1 JUMP JUMPDEST DUP2 MSTORE PUSH1 0x20 ADD SWAP1 PUSH1 0x1 SWAP1 SUB SWAP1 DUP2 PUSH2 0x1589 JUMPI SWAP1 POP JUMPDEST POP SWAP1 POP PUSH1 0x0 JUMPDEST DUP3 DUP2 LT ISZERO PUSH2 0x1994 JUMPI PUSH1 0x0 PUSH2 0x1622 DUP3 PUSH2 0xC27 JUMP JUMPDEST PUSH1 0x0 DUP2 DUP2 MSTORE PUSH1 0xB PUSH1 0x20 SWAP1 DUP2 MSTORE PUSH1 0x40 SWAP2 DUP3 SWAP1 KECCAK256 DUP3 MLOAD PUSH2 0x180 DUP2 ADD DUP5 MSTORE DUP2 SLOAD DUP2 MSTORE PUSH1 0x1 DUP3 ADD SLOAD SWAP3 DUP2 ADD SWAP3 SWAP1 SWAP3 MSTORE PUSH1 0x2 DUP2 ADD SLOAD SWAP3 DUP3 ADD SWAP3 SWAP1 SWAP3 MSTORE PUSH1 0x3 DUP3 ADD SLOAD PUSH1 0x60 DUP3 ADD MSTORE PUSH1 0x4 DUP3 ADD SLOAD PUSH1 0x80 DUP3 ADD MSTORE PUSH1 0x5 DUP3 ADD SLOAD PUSH1 0xA0 DUP3 ADD MSTORE PUSH1 0x6 DUP3 ADD SLOAD PUSH1 0x1 PUSH1 0x1 PUSH1 0xA0 SHL SUB AND PUSH1 0xC0 DUP3 ADD MSTORE PUSH1 0x7 DUP3 ADD DUP1 SLOAD SWAP4 SWAP5 POP SWAP1 SWAP3 PUSH1 0xE0 DUP5 ADD SWAP2 SWAP1 PUSH2 0x16A4 SWAP1 PUSH2 0x32A2 JUMP JUMPDEST DUP1 PUSH1 0x1F ADD PUSH1 0x20 DUP1 SWAP2 DIV MUL PUSH1 0x20 ADD PUSH1 0x40 MLOAD SWAP1 DUP2 ADD PUSH1 0x40 MSTORE DUP1 SWAP3 SWAP2 SWAP1 DUP2 DUP2 MSTORE PUSH1 0x20 ADD DUP3 DUP1 SLOAD PUSH2 0x16D0 SWAP1 PUSH2 0x32A2 JUMP JUMPDEST DUP1 ISZERO PUSH2 0x171D JUMPI DUP1 PUSH1 0x1F LT PUSH2 0x16F2 JUMPI PUSH2 0x100 DUP1 DUP4 SLOAD DIV MUL DUP4 MSTORE SWAP2 PUSH1 0x20 ADD SWAP2 PUSH2 0x171D JUMP JUMPDEST DUP3 ADD SWAP2 SWAP1 PUSH1 0x0 MSTORE PUSH1 0x20 PUSH1 0x0 KECCAK256 SWAP1 JUMPDEST DUP2 SLOAD DUP2 MSTORE SWAP1 PUSH1 0x1 ADD SWAP1 PUSH1 0x20 ADD DUP1 DUP4 GT PUSH2 0x1700 JUMPI DUP3 SWAP1 SUB PUSH1 0x1F AND DUP3 ADD SWAP2 JUMPDEST POP POP POP POP POP DUP2 MSTORE PUSH1 0x20 ADD PUSH1 0x8 DUP3 ADD DUP1 SLOAD PUSH2 0x1736 SWAP1 PUSH2 0x32A2 JUMP JUMPDEST DUP1 PUSH1 0x1F ADD PUSH1 0x20 DUP1 SWAP2 DIV MUL PUSH1 0x20 ADD PUSH1 0x40 MLOAD SWAP1 DUP2 ADD PUSH1 0x40 MSTORE DUP1 SWAP3 SWAP2 SWAP1 DUP2 DUP2 MSTORE PUSH1 0x20 ADD DUP3 DUP1 SLOAD PUSH2 0x1762 SWAP1 PUSH2 0x32A2 JUMP JUMPDEST DUP1 ISZERO PUSH2 0x17AF JUMPI DUP1 PUSH1 0x1F LT PUSH2 0x1784 JUMPI PUSH2 0x100 DUP1 DUP4 SLOAD DIV MUL DUP4 MSTORE SWAP2 PUSH1 0x20 ADD SWAP2 PUSH2 0x17AF JUMP JUMPDEST DUP3 ADD SWAP2 SWAP1 PUSH1 0x0 MSTORE PUSH1 0x20 PUSH1 0x0 KECCAK256 SWAP1 JUMPDEST DUP2 SLOAD DUP2 MSTORE SWAP1 PUSH1 0x1 ADD SWAP1 PUSH1 0x20 ADD DUP1 DUP4 GT PUSH2 0x1792 JUMPI DUP3 SWAP1 SUB PUSH1 0x1F AND DUP3 ADD SWAP2 JUMPDEST POP POP POP POP POP DUP2 MSTORE PUSH1 0x20 ADD PUSH1 0x9 DUP3 ADD DUP1 SLOAD PUSH2 0x17C8 SWAP1 PUSH2 0x32A2 JUMP JUMPDEST DUP1 PUSH1 0x1F ADD PUSH1 0x20 DUP1 SWAP2 DIV MUL PUSH1 0x20 ADD PUSH1 0x40 MLOAD SWAP1 DUP2 ADD PUSH1 0x40 MSTORE DUP1 SWAP3 SWAP2 SWAP1 DUP2 DUP2 MSTORE PUSH1 0x20 ADD DUP3 DUP1 SLOAD PUSH2 0x17F4 SWAP1 PUSH2 0x32A2 JUMP JUMPDEST DUP1 ISZERO PUSH2 0x1841 JUMPI DUP1 PUSH1 0x1F LT PUSH2 0x1816 JUMPI PUSH2 0x100 DUP1 DUP4 SLOAD DIV MUL DUP4 MSTORE SWAP2 PUSH1 0x20 ADD SWAP2 PUSH2 0x1841 JUMP JUMPDEST DUP3 ADD SWAP2 SWAP1 PUSH1 0x0 MSTORE PUSH1 0x20 PUSH1 0x0 KECCAK256 SWAP1 JUMPDEST DUP2 SLOAD DUP2 MSTORE SWAP1 PUSH1 0x1 ADD SWAP1 PUSH1 0x20 ADD DUP1 DUP4 GT PUSH2 0x1824 JUMPI DUP3 SWAP1 SUB PUSH1 0x1F AND DUP3 ADD SWAP2 JUMPDEST POP POP POP POP POP DUP2 MSTORE PUSH1 0x20 ADD PUSH1 0xA DUP3 ADD DUP1 SLOAD PUSH2 0x185A SWAP1 PUSH2 0x32A2 JUMP JUMPDEST DUP1 PUSH1 0x1F ADD PUSH1 0x20 DUP1 SWAP2 DIV MUL PUSH1 0x20 ADD PUSH1 0x40 MLOAD SWAP1 DUP2 ADD PUSH1 0x40 MSTORE DUP1 SWAP3 SWAP2 SWAP1 DUP2 DUP2 MSTORE PUSH1 0x20 ADD DUP3 DUP1 SLOAD PUSH2 0x1886 SWAP1 PUSH2 0x32A2 JUMP JUMPDEST DUP1 ISZERO PUSH2 0x18D3 JUMPI DUP1 PUSH1 0x1F LT PUSH2 0x18A8 JUMPI PUSH2 0x100 DUP1 DUP4 SLOAD DIV MUL DUP4 MSTORE SWAP2 PUSH1 0x20 ADD SWAP2 PUSH2 0x18D3 JUMP JUMPDEST DUP3 ADD SWAP2 SWAP1 PUSH1 0x0 MSTORE PUSH1 0x20 PUSH1 0x0 KECCAK256 SWAP1 JUMPDEST DUP2 SLOAD DUP2 MSTORE SWAP1 PUSH1 0x1 ADD SWAP1 PUSH1 0x20 ADD DUP1 DUP4 GT PUSH2 0x18B6 JUMPI DUP3 SWAP1 SUB PUSH1 0x1F AND DUP3 ADD SWAP2 JUMPDEST POP POP POP POP POP DUP2 MSTORE PUSH1 0x20 ADD PUSH1 0xB DUP3 ADD DUP1 SLOAD PUSH2 0x18EC SWAP1 PUSH2 0x32A2 JUMP JUMPDEST DUP1 PUSH1 0x1F ADD PUSH1 0x20 DUP1 SWAP2 DIV MUL PUSH1 0x20 ADD PUSH1 0x40 MLOAD SWAP1 DUP2 ADD PUSH1 0x40 MSTORE DUP1 SWAP3 SWAP2 SWAP1 DUP2 DUP2 MSTORE PUSH1 0x20 ADD DUP3 DUP1 SLOAD PUSH2 0x1918 SWAP1 PUSH2 0x32A2 JUMP JUMPDEST DUP1 ISZERO PUSH2 0x1965 JUMPI DUP1 PUSH1 0x1F LT PUSH2 0x193A JUMPI PUSH2 0x100 DUP1 DUP4 SLOAD DIV MUL DUP4 MSTORE SWAP2 PUSH1 0x20 ADD SWAP2 PUSH2 0x1965 JUMP JUMPDEST DUP3 ADD SWAP2 SWAP1 PUSH1 0x0 MSTORE PUSH1 0x20 PUSH1 0x0 KECCAK256 SWAP1 JUMPDEST DUP2 SLOAD DUP2 MSTORE SWAP1 PUSH1 0x1 ADD SWAP1 PUSH1 0x20 ADD DUP1 DUP4 GT PUSH2 0x1948 JUMPI DUP3 SWAP1 SUB PUSH1 0x1F AND DUP3 ADD SWAP2 JUMPDEST POP POP POP POP POP DUP2 MSTORE POP POP DUP4 DUP4 DUP2 MLOAD DUP2 LT PUSH2 0x1980 JUMPI PUSH2 0x1980 PUSH2 0x340B JUMP JUMPDEST PUSH1 0x20 SWAP1 DUP2 MUL SWAP2 SWAP1 SWAP2 ADD ADD MSTORE POP PUSH1 0x1 ADD PUSH2 0x160F JUMP JUMPDEST POP SWAP3 SWAP2 POP POP JUMP JUMPDEST PUSH1 0x60 PUSH1 0x1 DUP1 SLOAD PUSH2 0x4FC SWAP1 PUSH2 0x32A2 JUMP JUMPDEST PUSH2 0xC9E CALLER DUP4 DUP4 PUSH2 0x241E JUMP JUMPDEST PUSH2 0x19BF CALLER DUP4 PUSH2 0x1CDF JUMP JUMPDEST PUSH2 0x1A21 JUMPI PUSH1 0x40 MLOAD PUSH3 0x461BCD PUSH1 0xE5 SHL DUP2 MSTORE PUSH1 0x20 PUSH1 0x4 DUP3 ADD MSTORE PUSH1 0x2D PUSH1 0x24 DUP3 ADD MSTORE PUSH32 0x4552433732313A2063616C6C6572206973206E6F7420746F6B656E206F776E65 PUSH1 0x44 DUP3 ADD MSTORE PUSH13 0x1C881BDC88185C1C1C9BDD9959 PUSH1 0x9A SHL PUSH1 0x64 DUP3 ADD MSTORE PUSH1 0x84 ADD PUSH2 0x61A JUMP JUMPDEST PUSH2 0x1A2D DUP5 DUP5 DUP5 DUP5 PUSH2 0x24EC JUMP JUMPDEST POP POP POP POP JUMP JUMPDEST PUSH1 0x0 DUP1 PUSH2 0x4E7 PUSH2 0x6C0 JUMP JUMPDEST PUSH1 0x0 CALLER PUSH2 0x1A4A JUMPI PUSH1 0x0 DUP1 REVERT JUMPDEST PUSH1 0x0 PUSH2 0xC05 DUP4 PUSH2 0x1126 JUMP JUMPDEST PUSH1 0x0 DUP2 DUP2 MSTORE PUSH1 0x2 PUSH1 0x20 MSTORE PUSH1 0x40 SWAP1 KECCAK256 SLOAD PUSH1 0x60 SWAP1 PUSH1 0x1 PUSH1 0x1 PUSH1 0xA0 SHL SUB AND PUSH2 0x1AE2 JUMPI PUSH1 0x40 MLOAD PUSH3 0x461BCD PUSH1 0xE5 SHL DUP2 MSTORE PUSH1 0x20 PUSH1 0x4 DUP3 ADD MSTORE PUSH1 0x31 PUSH1 0x24 DUP3 ADD MSTORE PUSH32 0x45524337323155524953746F726167653A2055524920717565727920666F7220 PUSH1 0x44 DUP3 ADD MSTORE PUSH32 0x6E6F6E6578697374656E7420746F6B656E000000000000000000000000000000 PUSH1 0x64 DUP3 ADD MSTORE PUSH1 0x84 ADD PUSH2 0x61A JUMP JUMPDEST PUSH2 0x4E7 DUP3 PUSH2 0x256A JUMP JUMPDEST PUSH1 0x0 DUP2 DUP2 MSTORE PUSH1 0x10 PUSH1 0x20 MSTORE PUSH1 0x40 DUP2 KECCAK256 SLOAD PUSH1 0x0 PUSH2 0x1B05 DUP3 PUSH2 0x10FE JUMP JUMPDEST SWAP5 SWAP4 POP POP POP POP JUMP JUMPDEST PUSH2 0x1B15 PUSH2 0x1F63 JUMP JUMPDEST PUSH1 0x1 PUSH1 0x1 PUSH1 0xA0 SHL SUB DUP2 AND PUSH2 0x1B91 JUMPI PUSH1 0x40 MLOAD PUSH3 0x461BCD PUSH1 0xE5 SHL DUP2 MSTORE PUSH1 0x20 PUSH1 0x4 DUP3 ADD MSTORE PUSH1 0x26 PUSH1 0x24 DUP3 ADD MSTORE PUSH32 0x4F776E61626C653A206E6577206F776E657220697320746865207A65726F2061 PUSH1 0x44 DUP3 ADD MSTORE PUSH32 0x6464726573730000000000000000000000000000000000000000000000000000 PUSH1 0x64 DUP3 ADD MSTORE PUSH1 0x84 ADD PUSH2 0x61A JUMP JUMPDEST PUSH2 0x1B9A DUP2 PUSH2 0x1FD4 JUMP JUMPDEST POP JUMP JUMPDEST PUSH1 0x0 DUP2 DUP2 MSTORE PUSH1 0x2 PUSH1 0x20 MSTORE PUSH1 0x40 SWAP1 KECCAK256 SLOAD PUSH1 0x1 PUSH1 0x1 PUSH1 0xA0 SHL SUB AND PUSH2 0x1B9A JUMPI PUSH1 0x40 MLOAD PUSH3 0x461BCD PUSH1 0xE5 SHL DUP2 MSTORE PUSH1 0x20 PUSH1 0x4 DUP3 ADD MSTORE PUSH1 0x18 PUSH1 0x24 DUP3 ADD MSTORE PUSH32 0x4552433732313A20696E76616C696420746F6B656E2049440000000000000000 PUSH1 0x44 DUP3 ADD MSTORE PUSH1 0x64 ADD PUSH2 0x61A JUMP JUMPDEST PUSH1 0x0 DUP2 DUP2 MSTORE PUSH1 0x2 PUSH1 0x20 MSTORE PUSH1 0x40 DUP2 KECCAK256 SLOAD PUSH1 0x1 PUSH1 0x1 PUSH1 0xA0 SHL SUB AND DUP1 PUSH2 0x4E7 JUMPI PUSH1 0x40 MLOAD PUSH3 0x461BCD PUSH1 0xE5 SHL DUP2 MSTORE PUSH1 0x20 PUSH1 0x4 DUP3 ADD MSTORE PUSH1 0x18 PUSH1 0x24 DUP3 ADD MSTORE PUSH32 0x4552433732313A20696E76616C696420746F6B656E2049440000000000000000 PUSH1 0x44 DUP3 ADD MSTORE PUSH1 0x64 ADD PUSH2 0x61A JUMP JUMPDEST PUSH1 0x0 DUP2 DUP2 MSTORE PUSH1 0x4 PUSH1 0x20 MSTORE PUSH1 0x40 SWAP1 KECCAK256 DUP1 SLOAD PUSH1 0x1 PUSH1 0x1 PUSH1 0xA0 SHL SUB NOT AND PUSH1 0x1 PUSH1 0x1 PUSH1 0xA0 SHL SUB DUP5 AND SWAP1 DUP2 OR SWAP1 SWAP2 SSTORE DUP2 SWAP1 PUSH2 0x1C9B DUP3 PUSH2 0x1C01 JUMP JUMPDEST PUSH1 0x1 PUSH1 0x1 PUSH1 0xA0 SHL SUB AND PUSH32 0x8C5BE1E5EBEC7D5BD14F71427D1E84F3DD0314C0F7B2291E5B200AC8C7C3B925 PUSH1 0x40 MLOAD PUSH1 0x40 MLOAD DUP1 SWAP2 SUB SWAP1 LOG4 POP POP JUMP JUMPDEST PUSH1 0x0 PUSH2 0x4E7 DUP3 PUSH2 0x2665 JUMP JUMPDEST PUSH1 0x0 DUP1 PUSH2 0x1CEB DUP4 PUSH2 0x1C01 JUMP JUMPDEST SWAP1 POP DUP1 PUSH1 0x1 PUSH1 0x1 PUSH1 0xA0 SHL SUB AND DUP5 PUSH1 0x1 PUSH1 0x1 PUSH1 0xA0 SHL SUB AND EQ DUP1 PUSH2 0x1D32 JUMPI POP PUSH1 0x1 PUSH1 0x1 PUSH1 0xA0 SHL SUB DUP1 DUP3 AND PUSH1 0x0 SWAP1 DUP2 MSTORE PUSH1 0x5 PUSH1 0x20 SWAP1 DUP2 MSTORE PUSH1 0x40 DUP1 DUP4 KECCAK256 SWAP4 DUP9 AND DUP4 MSTORE SWAP3 SWAP1 MSTORE KECCAK256 SLOAD PUSH1 0xFF AND JUMPDEST DUP1 PUSH2 0x1B05 JUMPI POP DUP4 PUSH1 0x1 PUSH1 0x1 PUSH1 0xA0 SHL SUB AND PUSH2 0x1D4B DUP5 PUSH2 0x57F JUMP JUMPDEST PUSH1 0x1 PUSH1 0x1 PUSH1 0xA0 SHL SUB AND EQ SWAP5 SWAP4 POP POP POP POP JUMP JUMPDEST DUP3 PUSH1 0x1 PUSH1 0x1 PUSH1 0xA0 SHL SUB AND PUSH2 0x1D70 DUP3 PUSH2 0x1C01 JUMP JUMPDEST PUSH1 0x1 PUSH1 0x1 PUSH1 0xA0 SHL SUB AND EQ PUSH2 0x1DD4 JUMPI PUSH1 0x40 MLOAD PUSH3 0x461BCD PUSH1 0xE5 SHL DUP2 MSTORE PUSH1 0x20 PUSH1 0x4 DUP3 ADD MSTORE PUSH1 0x25 PUSH1 0x24 DUP3 ADD MSTORE PUSH32 0x4552433732313A207472616E736665722066726F6D20696E636F727265637420 PUSH1 0x44 DUP3 ADD MSTORE PUSH5 0x37BBB732B9 PUSH1 0xD9 SHL PUSH1 0x64 DUP3 ADD MSTORE PUSH1 0x84 ADD PUSH2 0x61A JUMP JUMPDEST PUSH1 0x1 PUSH1 0x1 PUSH1 0xA0 SHL SUB DUP3 AND PUSH2 0x1E36 JUMPI PUSH1 0x40 MLOAD PUSH3 0x461BCD PUSH1 0xE5 SHL DUP2 MSTORE PUSH1 0x20 PUSH1 0x4 DUP3 ADD MSTORE PUSH1 0x24 DUP1 DUP3 ADD MSTORE PUSH32 0x4552433732313A207472616E7366657220746F20746865207A65726F20616464 PUSH1 0x44 DUP3 ADD MSTORE PUSH4 0x72657373 PUSH1 0xE0 SHL PUSH1 0x64 DUP3 ADD MSTORE PUSH1 0x84 ADD PUSH2 0x61A JUMP JUMPDEST DUP3 PUSH1 0x1 PUSH1 0x1 PUSH1 0xA0 SHL SUB AND PUSH2 0x1E49 DUP3 PUSH2 0x1C01 JUMP JUMPDEST PUSH1 0x1 PUSH1 0x1 PUSH1 0xA0 SHL SUB AND EQ PUSH2 0x1EAD JUMPI PUSH1 0x40 MLOAD PUSH3 0x461BCD PUSH1 0xE5 SHL DUP2 MSTORE PUSH1 0x20 PUSH1 0x4 DUP3 ADD MSTORE PUSH1 0x25 PUSH1 0x24 DUP3 ADD MSTORE PUSH32 0x4552433732313A207472616E736665722066726F6D20696E636F727265637420 PUSH1 0x44 DUP3 ADD MSTORE PUSH5 0x37BBB732B9 PUSH1 0xD9 SHL PUSH1 0x64 DUP3 ADD MSTORE PUSH1 0x84 ADD PUSH2 0x61A JUMP JUMPDEST PUSH1 0x0 DUP2 DUP2 MSTORE PUSH1 0x4 PUSH1 0x20 SWAP1 DUP2 MSTORE PUSH1 0x40 DUP1 DUP4 KECCAK256 DUP1 SLOAD PUSH1 0x1 PUSH1 0x1 PUSH1 0xA0 SHL SUB NOT SWAP1 DUP2 AND SWAP1 SWAP2 SSTORE PUSH1 0x1 PUSH1 0x1 PUSH1 0xA0 SHL SUB DUP8 DUP2 AND DUP1 DUP7 MSTORE PUSH1 0x3 DUP6 MSTORE DUP4 DUP7 KECCAK256 DUP1 SLOAD PUSH1 0x0 NOT ADD SWAP1 SSTORE SWAP1 DUP8 AND DUP1 DUP7 MSTORE DUP4 DUP7 KECCAK256 DUP1 SLOAD PUSH1 0x1 ADD SWAP1 SSTORE DUP7 DUP7 MSTORE PUSH1 0x2 SWAP1 SWAP5 MSTORE DUP3 DUP6 KECCAK256 DUP1 SLOAD SWAP1 SWAP3 AND DUP5 OR SWAP1 SWAP2 SSTORE SWAP1 MLOAD DUP5 SWAP4 PUSH32 0xDDF252AD1BE2C89B69C2B068FC378DAA952BA7F163C4A11628F55A4DF523B3EF SWAP2 LOG4 POP POP POP JUMP JUMPDEST PUSH1 0x0 DUP2 DUP2 MSTORE PUSH1 0x10 PUSH1 0x20 MSTORE PUSH1 0x40 DUP2 KECCAK256 SLOAD PUSH2 0xC05 PUSH1 0xD DUP3 PUSH2 0x2670 JUMP JUMPDEST PUSH1 0x0 PUSH2 0xC05 DUP4 DUP4 PUSH2 0x267C JUMP JUMPDEST PUSH1 0x6 SLOAD PUSH1 0x1 PUSH1 0x1 PUSH1 0xA0 SHL SUB AND CALLER EQ PUSH2 0x11D7 JUMPI PUSH1 0x40 MLOAD PUSH3 0x461BCD PUSH1 0xE5 SHL DUP2 MSTORE PUSH1 0x20 PUSH1 0x4 DUP3 ADD DUP2 SWAP1 MSTORE PUSH1 0x24 DUP3 ADD MSTORE PUSH32 0x4F776E61626C653A2063616C6C6572206973206E6F7420746865206F776E6572 PUSH1 0x44 DUP3 ADD MSTORE PUSH1 0x64 ADD PUSH2 0x61A JUMP JUMPDEST PUSH1 0x0 PUSH2 0x1B05 DUP5 DUP5 DUP5 PUSH2 0x26A6 JUMP JUMPDEST PUSH1 0x0 PUSH2 0x4E7 DUP3 SLOAD SWAP1 JUMP JUMPDEST PUSH1 0x6 DUP1 SLOAD PUSH1 0x1 PUSH1 0x1 PUSH1 0xA0 SHL SUB DUP4 DUP2 AND PUSH1 0x1 PUSH1 0x1 PUSH1 0xA0 SHL SUB NOT DUP4 AND DUP2 OR SWAP1 SWAP4 SSTORE PUSH1 0x40 MLOAD SWAP2 AND SWAP2 SWAP1 DUP3 SWAP1 PUSH32 0x8BE0079C531659141344CD1FD0A4F28419497F9722A3DAAFE3B4186F6B6457E0 SWAP1 PUSH1 0x0 SWAP1 LOG3 POP POP JUMP JUMPDEST PUSH1 0x2 PUSH1 0x8 SLOAD SUB PUSH2 0x2078 JUMPI PUSH1 0x40 MLOAD PUSH3 0x461BCD PUSH1 0xE5 SHL DUP2 MSTORE PUSH1 0x20 PUSH1 0x4 DUP3 ADD MSTORE PUSH1 0x1F PUSH1 0x24 DUP3 ADD MSTORE PUSH32 0x5265656E7472616E637947756172643A207265656E7472616E742063616C6C00 PUSH1 0x44 DUP3 ADD MSTORE PUSH1 0x64 ADD PUSH2 0x61A JUMP JUMPDEST PUSH1 0x2 PUSH1 0x8 SSTORE JUMP JUMPDEST PUSH2 0xC9E DUP3 DUP3 PUSH1 0x40 MLOAD DUP1 PUSH1 0x20 ADD PUSH1 0x40 MSTORE DUP1 PUSH1 0x0 DUP2 MSTORE POP PUSH2 0x26F2 JUMP JUMPDEST PUSH1 0x0 DUP3 DUP2 MSTORE PUSH1 0x2 PUSH1 0x20 MSTORE PUSH1 0x40 SWAP1 KECCAK256 SLOAD PUSH1 0x1 PUSH1 0x1 PUSH1 0xA0 SHL SUB AND PUSH2 0x2123 JUMPI PUSH1 0x40 MLOAD PUSH3 0x461BCD PUSH1 0xE5 SHL DUP2 MSTORE PUSH1 0x20 PUSH1 0x4 DUP3 ADD MSTORE PUSH1 0x2E PUSH1 0x24 DUP3 ADD MSTORE PUSH32 0x45524337323155524953746F726167653A2055524920736574206F66206E6F6E PUSH1 0x44 DUP3 ADD MSTORE PUSH32 0x6578697374656E7420746F6B656E000000000000000000000000000000000000 PUSH1 0x64 DUP3 ADD MSTORE PUSH1 0x84 ADD PUSH2 0x61A JUMP JUMPDEST PUSH1 0x0 DUP3 DUP2 MSTORE PUSH1 0x7 PUSH1 0x20 MSTORE PUSH1 0x40 SWAP1 KECCAK256 PUSH2 0x6BB DUP3 DUP3 PUSH2 0x334B JUMP JUMPDEST PUSH2 0x6BB PUSH1 0xD DUP3 DUP5 PUSH2 0x2770 JUMP JUMPDEST PUSH1 0x1 PUSH1 0x1 PUSH1 0xA0 SHL SUB DUP3 AND PUSH1 0x0 SWAP1 DUP2 MSTORE PUSH1 0xC PUSH1 0x20 MSTORE PUSH1 0x40 SWAP1 KECCAK256 PUSH2 0x6BB SWAP1 DUP3 PUSH2 0x2786 JUMP JUMPDEST PUSH1 0x0 DUP10 GT PUSH2 0x21B9 JUMPI PUSH1 0x40 MLOAD PUSH3 0x461BCD PUSH1 0xE5 SHL DUP2 MSTORE PUSH1 0x20 PUSH1 0x4 DUP3 ADD MSTORE PUSH1 0x1C PUSH1 0x24 DUP3 ADD MSTORE PUSH32 0x5072696365206D757374206265206174206C6561737420312077656900000000 PUSH1 0x44 DUP3 ADD MSTORE PUSH1 0x64 ADD PUSH2 0x61A JUMP JUMPDEST PUSH1 0x1 PUSH1 0x1 PUSH1 0xA0 SHL SUB DUP5 AND PUSH2 0x220F JUMPI PUSH1 0x40 MLOAD PUSH3 0x461BCD PUSH1 0xE5 SHL DUP2 MSTORE PUSH1 0x20 PUSH1 0x4 DUP3 ADD DUP2 SWAP1 MSTORE PUSH1 0x24 DUP3 ADD MSTORE PUSH32 0x4552433732313A206D696E7420746F20746865207A65726F2061646472657373 PUSH1 0x44 DUP3 ADD MSTORE PUSH1 0x64 ADD PUSH2 0x61A JUMP JUMPDEST PUSH1 0x0 DUP12 MLOAD GT PUSH2 0x2260 JUMPI PUSH1 0x40 MLOAD PUSH3 0x461BCD PUSH1 0xE5 SHL DUP2 MSTORE PUSH1 0x20 PUSH1 0x4 DUP3 ADD MSTORE PUSH1 0x13 PUSH1 0x24 DUP3 ADD MSTORE PUSH32 0x546F6B656E2075726C2069732020656D70747900000000000000000000000000 PUSH1 0x44 DUP3 ADD MSTORE PUSH1 0x64 ADD PUSH2 0x61A JUMP JUMPDEST PUSH1 0x0 PUSH1 0x40 MLOAD DUP1 PUSH2 0x180 ADD PUSH1 0x40 MSTORE DUP1 DUP15 DUP2 MSTORE PUSH1 0x20 ADD DUP12 DUP2 MSTORE PUSH1 0x20 ADD DUP11 DUP2 MSTORE PUSH1 0x20 ADD DUP8 DUP2 MSTORE PUSH1 0x20 ADD DUP5 DUP2 MSTORE PUSH1 0x20 ADD TIMESTAMP DUP2 MSTORE PUSH1 0x20 ADD DUP7 PUSH1 0x1 PUSH1 0x1 PUSH1 0xA0 SHL SUB AND DUP2 MSTORE PUSH1 0x20 ADD DUP14 DUP2 MSTORE PUSH1 0x20 ADD DUP13 DUP2 MSTORE PUSH1 0x20 ADD DUP10 DUP2 MSTORE PUSH1 0x20 ADD DUP9 DUP2 MSTORE PUSH1 0x20 ADD DUP6 DUP2 MSTORE POP SWAP1 POP DUP1 PUSH1 0xB PUSH1 0x0 DUP5 DUP2 MSTORE PUSH1 0x20 ADD SWAP1 DUP2 MSTORE PUSH1 0x20 ADD PUSH1 0x0 KECCAK256 PUSH1 0x0 DUP3 ADD MLOAD DUP2 PUSH1 0x0 ADD SSTORE PUSH1 0x20 DUP3 ADD MLOAD DUP2 PUSH1 0x1 ADD SSTORE PUSH1 0x40 DUP3 ADD MLOAD DUP2 PUSH1 0x2 ADD SSTORE PUSH1 0x60 DUP3 ADD MLOAD DUP2 PUSH1 0x3 ADD SSTORE PUSH1 0x80 DUP3 ADD MLOAD DUP2 PUSH1 0x4 ADD SSTORE PUSH1 0xA0 DUP3 ADD MLOAD DUP2 PUSH1 0x5 ADD SSTORE PUSH1 0xC0 DUP3 ADD MLOAD DUP2 PUSH1 0x6 ADD PUSH1 0x0 PUSH2 0x100 EXP DUP2 SLOAD DUP2 PUSH1 0x1 PUSH1 0x1 PUSH1 0xA0 SHL SUB MUL NOT AND SWAP1 DUP4 PUSH1 0x1 PUSH1 0x1 PUSH1 0xA0 SHL SUB AND MUL OR SWAP1 SSTORE POP PUSH1 0xE0 DUP3 ADD MLOAD DUP2 PUSH1 0x7 ADD SWAP1 DUP2 PUSH2 0x2351 SWAP2 SWAP1 PUSH2 0x334B JUMP JUMPDEST POP PUSH2 0x100 DUP3 ADD MLOAD PUSH1 0x8 DUP3 ADD SWAP1 PUSH2 0x2367 SWAP1 DUP3 PUSH2 0x334B JUMP JUMPDEST POP PUSH2 0x120 DUP3 ADD MLOAD PUSH1 0x9 DUP3 ADD SWAP1 PUSH2 0x237D SWAP1 DUP3 PUSH2 0x334B JUMP JUMPDEST POP PUSH2 0x140 DUP3 ADD MLOAD PUSH1 0xA DUP3 ADD SWAP1 PUSH2 0x2393 SWAP1 DUP3 PUSH2 0x334B JUMP JUMPDEST POP PUSH2 0x160 DUP3 ADD MLOAD PUSH1 0xB DUP3 ADD SWAP1 PUSH2 0x23A9 SWAP1 DUP3 PUSH2 0x334B JUMP JUMPDEST POP POP PUSH1 0x40 MLOAD PUSH2 0x23BA SWAP2 POP DUP14 SWAP1 PUSH2 0x3421 JUMP JUMPDEST PUSH1 0x40 MLOAD DUP1 SWAP2 SUB SWAP1 KECCAK256 PUSH32 0x559EC41A5550336295D32C5D36CB700618CE142ACEC86AE0B0555FB1AE7D6599 DUP15 DUP14 DUP14 DUP14 DUP14 DUP14 DUP14 DUP14 DUP14 DUP14 DUP14 TIMESTAMP PUSH1 0x40 MLOAD PUSH2 0x2407 SWAP13 SWAP12 SWAP11 SWAP10 SWAP9 SWAP8 SWAP7 SWAP6 SWAP5 SWAP4 SWAP3 SWAP2 SWAP1 PUSH2 0x343D JUMP JUMPDEST PUSH1 0x40 MLOAD DUP1 SWAP2 SUB SWAP1 LOG2 POP POP POP POP POP POP POP POP POP POP POP POP POP JUMP JUMPDEST DUP2 PUSH1 0x1 PUSH1 0x1 PUSH1 0xA0 SHL SUB AND DUP4 PUSH1 0x1 PUSH1 0x1 PUSH1 0xA0 SHL SUB AND SUB PUSH2 0x247F JUMPI PUSH1 0x40 MLOAD PUSH3 0x461BCD PUSH1 0xE5 SHL DUP2 MSTORE PUSH1 0x20 PUSH1 0x4 DUP3 ADD MSTORE PUSH1 0x19 PUSH1 0x24 DUP3 ADD MSTORE PUSH32 0x4552433732313A20617070726F766520746F2063616C6C657200000000000000 PUSH1 0x44 DUP3 ADD MSTORE PUSH1 0x64 ADD PUSH2 0x61A JUMP JUMPDEST PUSH1 0x1 PUSH1 0x1 PUSH1 0xA0 SHL SUB DUP4 DUP2 AND PUSH1 0x0 DUP2 DUP2 MSTORE PUSH1 0x5 PUSH1 0x20 SWAP1 DUP2 MSTORE PUSH1 0x40 DUP1 DUP4 KECCAK256 SWAP5 DUP8 AND DUP1 DUP5 MSTORE SWAP5 DUP3 MSTORE SWAP2 DUP3 SWAP1 KECCAK256 DUP1 SLOAD PUSH1 0xFF NOT AND DUP7 ISZERO ISZERO SWAP1 DUP2 OR SWAP1 SWAP2 SSTORE SWAP2 MLOAD SWAP2 DUP3 MSTORE PUSH32 0x17307EAB39AB6107E8899845AD3D59BD9653F200F220920489CA2B5937696C31 SWAP2 ADD PUSH1 0x40 MLOAD DUP1 SWAP2 SUB SWAP1 LOG3 POP POP POP JUMP JUMPDEST PUSH2 0x24F7 DUP5 DUP5 DUP5 PUSH2 0x1D5D JUMP JUMPDEST PUSH2 0x2503 DUP5 DUP5 DUP5 DUP5 PUSH2 0x2792 JUMP JUMPDEST PUSH2 0x1A2D JUMPI PUSH1 0x40 MLOAD PUSH3 0x461BCD PUSH1 0xE5 SHL DUP2 MSTORE PUSH1 0x20 PUSH1 0x4 DUP3 ADD MSTORE PUSH1 0x32 PUSH1 0x24 DUP3 ADD MSTORE PUSH32 0x4552433732313A207472616E7366657220746F206E6F6E204552433732315265 PUSH1 0x44 DUP3 ADD MSTORE PUSH18 0x31B2B4BB32B91034B6B83632B6B2B73A32B9 PUSH1 0x71 SHL PUSH1 0x64 DUP3 ADD MSTORE PUSH1 0x84 ADD PUSH2 0x61A JUMP JUMPDEST PUSH1 0x60 PUSH2 0x2575 DUP3 PUSH2 0x1B9D JUMP JUMPDEST PUSH1 0x0 DUP3 DUP2 MSTORE PUSH1 0x7 PUSH1 0x20 MSTORE PUSH1 0x40 DUP2 KECCAK256 DUP1 SLOAD PUSH2 0x258E SWAP1 PUSH2 0x32A2 JUMP JUMPDEST DUP1 PUSH1 0x1F ADD PUSH1 0x20 DUP1 SWAP2 DIV MUL PUSH1 0x20 ADD PUSH1 0x40 MLOAD SWAP1 DUP2 ADD PUSH1 0x40 MSTORE DUP1 SWAP3 SWAP2 SWAP1 DUP2 DUP2 MSTORE PUSH1 0x20 ADD DUP3 DUP1 SLOAD PUSH2 0x25BA SWAP1 PUSH2 0x32A2 JUMP JUMPDEST DUP1 ISZERO PUSH2 0x2607 JUMPI DUP1 PUSH1 0x1F LT PUSH2 0x25DC JUMPI PUSH2 0x100 DUP1 DUP4 SLOAD DIV MUL DUP4 MSTORE SWAP2 PUSH1 0x20 ADD SWAP2 PUSH2 0x2607 JUMP JUMPDEST DUP3 ADD SWAP2 SWAP1 PUSH1 0x0 MSTORE PUSH1 0x20 PUSH1 0x0 KECCAK256 SWAP1 JUMPDEST DUP2 SLOAD DUP2 MSTORE SWAP1 PUSH1 0x1 ADD SWAP1 PUSH1 0x20 ADD DUP1 DUP4 GT PUSH2 0x25EA JUMPI DUP3 SWAP1 SUB PUSH1 0x1F AND DUP3 ADD SWAP2 JUMPDEST POP POP POP POP POP SWAP1 POP PUSH1 0x0 PUSH2 0x2618 PUSH2 0x28DE JUMP JUMPDEST SWAP1 POP DUP1 MLOAD PUSH1 0x0 SUB PUSH2 0x262A JUMPI POP SWAP3 SWAP2 POP POP JUMP JUMPDEST DUP2 MLOAD ISZERO PUSH2 0x265C JUMPI DUP1 DUP3 PUSH1 0x40 MLOAD PUSH1 0x20 ADD PUSH2 0x2644 SWAP3 SWAP2 SWAP1 PUSH2 0x34DD JUMP JUMPDEST PUSH1 0x40 MLOAD PUSH1 0x20 DUP2 DUP4 SUB SUB DUP2 MSTORE SWAP1 PUSH1 0x40 MSTORE SWAP3 POP POP POP SWAP2 SWAP1 POP JUMP JUMPDEST PUSH2 0x1B05 DUP5 PUSH2 0x28ED JUMP JUMPDEST PUSH1 0x0 PUSH2 0x4E7 DUP3 PUSH2 0x1FCA JUMP JUMPDEST PUSH1 0x0 PUSH2 0xC05 DUP4 DUP4 PUSH2 0x2953 JUMP JUMPDEST PUSH1 0x0 DUP3 PUSH1 0x0 ADD DUP3 DUP2 SLOAD DUP2 LT PUSH2 0x2693 JUMPI PUSH2 0x2693 PUSH2 0x340B JUMP JUMPDEST SWAP1 PUSH1 0x0 MSTORE PUSH1 0x20 PUSH1 0x0 KECCAK256 ADD SLOAD SWAP1 POP SWAP3 SWAP2 POP POP JUMP JUMPDEST PUSH1 0x0 DUP3 DUP2 MSTORE PUSH1 0x2 DUP5 ADD PUSH1 0x20 MSTORE PUSH1 0x40 DUP2 KECCAK256 SLOAD DUP1 ISZERO ISZERO DUP1 PUSH2 0x26CA JUMPI POP PUSH2 0x26CA DUP6 DUP6 PUSH2 0x2953 JUMP JUMPDEST DUP4 SWAP1 PUSH2 0x26E9 JUMPI PUSH1 0x40 MLOAD PUSH3 0x461BCD PUSH1 0xE5 SHL DUP2 MSTORE PUSH1 0x4 ADD PUSH2 0x61A SWAP2 SWAP1 PUSH2 0x2D73 JUMP JUMPDEST POP SWAP5 SWAP4 POP POP POP POP JUMP JUMPDEST PUSH2 0x26FC DUP4 DUP4 PUSH2 0x295F JUMP JUMPDEST PUSH2 0x2709 PUSH1 0x0 DUP5 DUP5 DUP5 PUSH2 0x2792 JUMP JUMPDEST PUSH2 0x6BB JUMPI PUSH1 0x40 MLOAD PUSH3 0x461BCD PUSH1 0xE5 SHL DUP2 MSTORE PUSH1 0x20 PUSH1 0x4 DUP3 ADD MSTORE PUSH1 0x32 PUSH1 0x24 DUP3 ADD MSTORE PUSH32 0x4552433732313A207472616E7366657220746F206E6F6E204552433732315265 PUSH1 0x44 DUP3 ADD MSTORE PUSH18 0x31B2B4BB32B91034B6B83632B6B2B73A32B9 PUSH1 0x71 SHL PUSH1 0x64 DUP3 ADD MSTORE PUSH1 0x84 ADD PUSH2 0x61A JUMP JUMPDEST PUSH1 0x0 PUSH2 0x1B05 DUP5 DUP5 PUSH1 0x1 PUSH1 0x1 PUSH1 0xA0 SHL SUB DUP6 AND PUSH2 0x2AEA JUMP JUMPDEST PUSH1 0x0 PUSH2 0xC05 DUP4 DUP4 PUSH2 0x2B07 JUMP JUMPDEST PUSH1 0x0 PUSH1 0x1 PUSH1 0x1 PUSH1 0xA0 SHL SUB DUP5 AND EXTCODESIZE ISZERO PUSH2 0x28D3 JUMPI PUSH1 0x40 MLOAD PUSH4 0xA85BD01 PUSH1 0xE1 SHL DUP2 MSTORE PUSH1 0x1 PUSH1 0x1 PUSH1 0xA0 SHL SUB DUP6 AND SWAP1 PUSH4 0x150B7A02 SWAP1 PUSH2 0x27D6 SWAP1 CALLER SWAP1 DUP10 SWAP1 DUP9 SWAP1 DUP9 SWAP1 PUSH1 0x4 ADD PUSH2 0x350C JUMP JUMPDEST PUSH1 0x20 PUSH1 0x40 MLOAD DUP1 DUP4 SUB DUP2 PUSH1 0x0 DUP8 GAS CALL SWAP3 POP POP POP DUP1 ISZERO PUSH2 0x2811 JUMPI POP PUSH1 0x40 DUP1 MLOAD PUSH1 0x1F RETURNDATASIZE SWAP1 DUP2 ADD PUSH1 0x1F NOT AND DUP3 ADD SWAP1 SWAP3 MSTORE PUSH2 0x280E SWAP2 DUP2 ADD SWAP1 PUSH2 0x353E JUMP JUMPDEST PUSH1 0x1 JUMPDEST PUSH2 0x28B9 JUMPI RETURNDATASIZE DUP1 DUP1 ISZERO PUSH2 0x283F JUMPI PUSH1 0x40 MLOAD SWAP2 POP PUSH1 0x1F NOT PUSH1 0x3F RETURNDATASIZE ADD AND DUP3 ADD PUSH1 0x40 MSTORE RETURNDATASIZE DUP3 MSTORE RETURNDATASIZE PUSH1 0x0 PUSH1 0x20 DUP5 ADD RETURNDATACOPY PUSH2 0x2844 JUMP JUMPDEST PUSH1 0x60 SWAP2 POP JUMPDEST POP DUP1 MLOAD PUSH1 0x0 SUB PUSH2 0x28B1 JUMPI PUSH1 0x40 MLOAD PUSH3 0x461BCD PUSH1 0xE5 SHL DUP2 MSTORE PUSH1 0x20 PUSH1 0x4 DUP3 ADD MSTORE PUSH1 0x32 PUSH1 0x24 DUP3 ADD MSTORE PUSH32 0x4552433732313A207472616E7366657220746F206E6F6E204552433732315265 PUSH1 0x44 DUP3 ADD MSTORE PUSH18 0x31B2B4BB32B91034B6B83632B6B2B73A32B9 PUSH1 0x71 SHL PUSH1 0x64 DUP3 ADD MSTORE PUSH1 0x84 ADD PUSH2 0x61A JUMP JUMPDEST DUP1 MLOAD DUP2 PUSH1 0x20 ADD REVERT JUMPDEST PUSH1 0x1 PUSH1 0x1 PUSH1 0xE0 SHL SUB NOT AND PUSH4 0xA85BD01 PUSH1 0xE1 SHL EQ SWAP1 POP PUSH2 0x1B05 JUMP JUMPDEST POP PUSH1 0x1 SWAP5 SWAP4 POP POP POP POP JUMP JUMPDEST PUSH1 0x60 PUSH1 0x9 DUP1 SLOAD PUSH2 0x4FC SWAP1 PUSH2 0x32A2 JUMP JUMPDEST PUSH1 0x60 PUSH2 0x28F8 DUP3 PUSH2 0x1B9D JUMP JUMPDEST PUSH1 0x0 PUSH2 0x2902 PUSH2 0x28DE JUMP JUMPDEST SWAP1 POP PUSH1 0x0 DUP2 MLOAD GT PUSH2 0x2922 JUMPI PUSH1 0x40 MLOAD DUP1 PUSH1 0x20 ADD PUSH1 0x40 MSTORE DUP1 PUSH1 0x0 DUP2 MSTORE POP PUSH2 0xC05 JUMP JUMPDEST DUP1 PUSH2 0x292C DUP5 PUSH2 0x2B56 JUMP JUMPDEST PUSH1 0x40 MLOAD PUSH1 0x20 ADD PUSH2 0x293D SWAP3 SWAP2 SWAP1 PUSH2 0x34DD JUMP JUMPDEST PUSH1 0x40 MLOAD PUSH1 0x20 DUP2 DUP4 SUB SUB DUP2 MSTORE SWAP1 PUSH1 0x40 MSTORE SWAP4 SWAP3 POP POP POP JUMP JUMPDEST PUSH1 0x0 PUSH2 0xC05 DUP4 DUP4 PUSH2 0x2BF6 JUMP JUMPDEST PUSH1 0x1 PUSH1 0x1 PUSH1 0xA0 SHL SUB DUP3 AND PUSH2 0x29B5 JUMPI PUSH1 0x40 MLOAD PUSH3 0x461BCD PUSH1 0xE5 SHL DUP2 MSTORE PUSH1 0x20 PUSH1 0x4 DUP3 ADD DUP2 SWAP1 MSTORE PUSH1 0x24 DUP3 ADD MSTORE PUSH32 0x4552433732313A206D696E7420746F20746865207A65726F2061646472657373 PUSH1 0x44 DUP3 ADD MSTORE PUSH1 0x64 ADD PUSH2 0x61A JUMP JUMPDEST PUSH1 0x0 DUP2 DUP2 MSTORE PUSH1 0x2 PUSH1 0x20 MSTORE PUSH1 0x40 SWAP1 KECCAK256 SLOAD PUSH1 0x1 PUSH1 0x1 PUSH1 0xA0 SHL SUB AND ISZERO PUSH2 0x2A1A JUMPI PUSH1 0x40 MLOAD PUSH3 0x461BCD PUSH1 0xE5 SHL DUP2 MSTORE PUSH1 0x20 PUSH1 0x4 DUP3 ADD MSTORE PUSH1 0x1C PUSH1 0x24 DUP3 ADD MSTORE PUSH32 0x4552433732313A20746F6B656E20616C7265616479206D696E74656400000000 PUSH1 0x44 DUP3 ADD MSTORE PUSH1 0x64 ADD PUSH2 0x61A JUMP JUMPDEST PUSH1 0x0 DUP2 DUP2 MSTORE PUSH1 0x2 PUSH1 0x20 MSTORE PUSH1 0x40 SWAP1 KECCAK256 SLOAD PUSH1 0x1 PUSH1 0x1 PUSH1 0xA0 SHL SUB AND ISZERO PUSH2 0x2A7F JUMPI PUSH1 0x40 MLOAD PUSH3 0x461BCD PUSH1 0xE5 SHL DUP2 MSTORE PUSH1 0x20 PUSH1 0x4 DUP3 ADD MSTORE PUSH1 0x1C PUSH1 0x24 DUP3 ADD MSTORE PUSH32 0x4552433732313A20746F6B656E20616C7265616479206D696E74656400000000 PUSH1 0x44 DUP3 ADD MSTORE PUSH1 0x64 ADD PUSH2 0x61A JUMP JUMPDEST PUSH1 0x1 PUSH1 0x1 PUSH1 0xA0 SHL SUB DUP3 AND PUSH1 0x0 DUP2 DUP2 MSTORE PUSH1 0x3 PUSH1 0x20 SWAP1 DUP2 MSTORE PUSH1 0x40 DUP1 DUP4 KECCAK256 DUP1 SLOAD PUSH1 0x1 ADD SWAP1 SSTORE DUP5 DUP4 MSTORE PUSH1 0x2 SWAP1 SWAP2 MSTORE DUP1 DUP3 KECCAK256 DUP1 SLOAD PUSH1 0x1 PUSH1 0x1 PUSH1 0xA0 SHL SUB NOT AND DUP5 OR SWAP1 SSTORE MLOAD DUP4 SWAP3 SWAP2 SWAP1 PUSH32 0xDDF252AD1BE2C89B69C2B068FC378DAA952BA7F163C4A11628F55A4DF523B3EF SWAP1 DUP3 SWAP1 LOG4 POP POP JUMP JUMPDEST PUSH1 0x0 DUP3 DUP2 MSTORE PUSH1 0x2 DUP5 ADD PUSH1 0x20 MSTORE PUSH1 0x40 DUP2 KECCAK256 DUP3 SWAP1 SSTORE PUSH2 0x1B05 DUP5 DUP5 PUSH2 0x2786 JUMP JUMPDEST PUSH1 0x0 DUP2 DUP2 MSTORE PUSH1 0x1 DUP4 ADD PUSH1 0x20 MSTORE PUSH1 0x40 DUP2 KECCAK256 SLOAD PUSH2 0x2B4E JUMPI POP DUP2 SLOAD PUSH1 0x1 DUP2 DUP2 ADD DUP5 SSTORE PUSH1 0x0 DUP5 DUP2 MSTORE PUSH1 0x20 DUP1 DUP3 KECCAK256 SWAP1 SWAP4 ADD DUP5 SWAP1 SSTORE DUP5 SLOAD DUP5 DUP3 MSTORE DUP3 DUP7 ADD SWAP1 SWAP4 MSTORE PUSH1 0x40 SWAP1 KECCAK256 SWAP2 SWAP1 SWAP2 SSTORE PUSH2 0x4E7 JUMP JUMPDEST POP PUSH1 0x0 PUSH2 0x4E7 JUMP JUMPDEST PUSH1 0x60 PUSH1 0x0 PUSH2 0x2B63 DUP4 PUSH2 0x2C0E JUMP JUMPDEST PUSH1 0x1 ADD SWAP1 POP PUSH1 0x0 DUP2 PUSH8 0xFFFFFFFFFFFFFFFF DUP2 GT ISZERO PUSH2 0x2B83 JUMPI PUSH2 0x2B83 PUSH2 0x2F1A JUMP JUMPDEST PUSH1 0x40 MLOAD SWAP1 DUP1 DUP3 MSTORE DUP1 PUSH1 0x1F ADD PUSH1 0x1F NOT AND PUSH1 0x20 ADD DUP3 ADD PUSH1 0x40 MSTORE DUP1 ISZERO PUSH2 0x2BAD JUMPI PUSH1 0x20 DUP3 ADD DUP2 DUP1 CALLDATASIZE DUP4 CALLDATACOPY ADD SWAP1 POP JUMPDEST POP SWAP1 POP DUP2 DUP2 ADD PUSH1 0x20 ADD JUMPDEST PUSH1 0x0 NOT ADD PUSH32 0x3031323334353637383961626364656600000000000000000000000000000000 PUSH1 0xA DUP7 MOD BYTE DUP2 MSTORE8 PUSH1 0xA DUP6 DIV SWAP5 POP DUP5 PUSH2 0x2BB7 JUMPI POP SWAP4 SWAP3 POP POP POP JUMP JUMPDEST PUSH1 0x0 DUP2 DUP2 MSTORE PUSH1 0x1 DUP4 ADD PUSH1 0x20 MSTORE PUSH1 0x40 DUP2 KECCAK256 SLOAD ISZERO ISZERO PUSH2 0xC05 JUMP JUMPDEST PUSH1 0x0 DUP1 PUSH27 0x184F03E93FF9F4DAA797ED6E38ED64BF6A1F010000000000000000 DUP4 LT PUSH2 0x2C57 JUMPI PUSH27 0x184F03E93FF9F4DAA797ED6E38ED64BF6A1F010000000000000000 DUP4 DIV SWAP3 POP PUSH1 0x40 ADD JUMPDEST PUSH14 0x4EE2D6D415B85ACEF8100000000 DUP4 LT PUSH2 0x2C83 JUMPI PUSH14 0x4EE2D6D415B85ACEF8100000000 DUP4 DIV SWAP3 POP PUSH1 0x20 ADD JUMPDEST PUSH7 0x2386F26FC10000 DUP4 LT PUSH2 0x2CA1 JUMPI PUSH7 0x2386F26FC10000 DUP4 DIV SWAP3 POP PUSH1 0x10 ADD JUMPDEST PUSH4 0x5F5E100 DUP4 LT PUSH2 0x2CB9 JUMPI PUSH4 0x5F5E100 DUP4 DIV SWAP3 POP PUSH1 0x8 ADD JUMPDEST PUSH2 0x2710 DUP4 LT PUSH2 0x2CCD JUMPI PUSH2 0x2710 DUP4 DIV SWAP3 POP PUSH1 0x4 ADD JUMPDEST PUSH1 0x64 DUP4 LT PUSH2 0x2CDF JUMPI PUSH1 0x64 DUP4 DIV SWAP3 POP PUSH1 0x2 ADD JUMPDEST PUSH1 0xA DUP4 LT PUSH2 0x4E7 JUMPI PUSH1 0x1 ADD SWAP3 SWAP2 POP POP JUMP JUMPDEST PUSH1 0x1 PUSH1 0x1 PUSH1 0xE0 SHL SUB NOT DUP2 AND DUP2 EQ PUSH2 0x1B9A JUMPI PUSH1 0x0 DUP1 REVERT JUMPDEST PUSH1 0x0 PUSH1 0x20 DUP3 DUP5 SUB SLT ISZERO PUSH2 0x2D18 JUMPI PUSH1 0x0 DUP1 REVERT JUMPDEST DUP2 CALLDATALOAD PUSH2 0xC05 DUP2 PUSH2 0x2CF0 JUMP JUMPDEST PUSH1 0x0 JUMPDEST DUP4 DUP2 LT ISZERO PUSH2 0x2D3E JUMPI DUP2 DUP2 ADD MLOAD DUP4 DUP3 ADD MSTORE PUSH1 0x20 ADD PUSH2 0x2D26 JUMP JUMPDEST POP POP PUSH1 0x0 SWAP2 ADD MSTORE JUMP JUMPDEST PUSH1 0x0 DUP2 MLOAD DUP1 DUP5 MSTORE PUSH2 0x2D5F DUP2 PUSH1 0x20 DUP7 ADD PUSH1 0x20 DUP7 ADD PUSH2 0x2D23 JUMP JUMPDEST PUSH1 0x1F ADD PUSH1 0x1F NOT AND SWAP3 SWAP1 SWAP3 ADD PUSH1 0x20 ADD SWAP3 SWAP2 POP POP JUMP JUMPDEST PUSH1 0x20 DUP2 MSTORE PUSH1 0x0 PUSH2 0xC05 PUSH1 0x20 DUP4 ADD DUP5 PUSH2 0x2D47 JUMP JUMPDEST PUSH1 0x0 PUSH1 0x20 DUP3 DUP5 SUB SLT ISZERO PUSH2 0x2D98 JUMPI PUSH1 0x0 DUP1 REVERT JUMPDEST POP CALLDATALOAD SWAP2 SWAP1 POP JUMP JUMPDEST DUP1 CALLDATALOAD PUSH1 0x1 PUSH1 0x1 PUSH1 0xA0 SHL SUB DUP2 AND DUP2 EQ PUSH2 0x2DB6 JUMPI PUSH1 0x0 DUP1 REVERT JUMPDEST SWAP2 SWAP1 POP JUMP JUMPDEST PUSH1 0x0 DUP1 PUSH1 0x40 DUP4 DUP6 SUB SLT ISZERO PUSH2 0x2DCE JUMPI PUSH1 0x0 DUP1 REVERT JUMPDEST PUSH2 0x2DD7 DUP4 PUSH2 0x2D9F JUMP JUMPDEST SWAP5 PUSH1 0x20 SWAP4 SWAP1 SWAP4 ADD CALLDATALOAD SWAP4 POP POP POP JUMP JUMPDEST PUSH1 0x0 DUP1 PUSH1 0x0 PUSH1 0x60 DUP5 DUP7 SUB SLT ISZERO PUSH2 0x2DFA JUMPI PUSH1 0x0 DUP1 REVERT JUMPDEST PUSH2 0x2E03 DUP5 PUSH2 0x2D9F JUMP JUMPDEST SWAP3 POP PUSH2 0x2E11 PUSH1 0x20 DUP6 ADD PUSH2 0x2D9F JUMP JUMPDEST SWAP2 POP PUSH1 0x40 DUP5 ADD CALLDATALOAD SWAP1 POP SWAP3 POP SWAP3 POP SWAP3 JUMP JUMPDEST PUSH1 0x0 PUSH2 0x180 DUP3 MLOAD DUP5 MSTORE PUSH1 0x20 DUP4 ADD MLOAD PUSH1 0x20 DUP6 ADD MSTORE PUSH1 0x40 DUP4 ADD MLOAD PUSH1 0x40 DUP6 ADD MSTORE PUSH1 0x60 DUP4 ADD MLOAD PUSH1 0x60 DUP6 ADD MSTORE PUSH1 0x80 DUP4 ADD MLOAD PUSH1 0x80 DUP6 ADD MSTORE PUSH1 0xA0 DUP4 ADD MLOAD PUSH1 0xA0 DUP6 ADD MSTORE PUSH1 0xC0 DUP4 ADD MLOAD PUSH2 0x2E76 PUSH1 0xC0 DUP7 ADD DUP3 PUSH1 0x1 PUSH1 0x1 PUSH1 0xA0 SHL SUB AND SWAP1 MSTORE JUMP JUMPDEST POP PUSH1 0xE0 DUP4 ADD MLOAD DUP2 PUSH1 0xE0 DUP7 ADD MSTORE PUSH2 0x2E8E DUP3 DUP7 ADD DUP3 PUSH2 0x2D47 JUMP JUMPDEST SWAP2 POP POP PUSH2 0x100 DUP1 DUP5 ADD MLOAD DUP6 DUP4 SUB DUP3 DUP8 ADD MSTORE PUSH2 0x2EA9 DUP4 DUP3 PUSH2 0x2D47 JUMP JUMPDEST SWAP3 POP POP POP PUSH2 0x120 DUP1 DUP5 ADD MLOAD DUP6 DUP4 SUB DUP3 DUP8 ADD MSTORE PUSH2 0x2EC5 DUP4 DUP3 PUSH2 0x2D47 JUMP JUMPDEST SWAP3 POP POP POP PUSH2 0x140 DUP1 DUP5 ADD MLOAD DUP6 DUP4 SUB DUP3 DUP8 ADD MSTORE PUSH2 0x2EE1 DUP4 DUP3 PUSH2 0x2D47 JUMP JUMPDEST SWAP3 POP POP POP PUSH2 0x160 DUP1 DUP5 ADD MLOAD DUP6 DUP4 SUB DUP3 DUP8 ADD MSTORE PUSH2 0x2EFD DUP4 DUP3 PUSH2 0x2D47 JUMP JUMPDEST SWAP7 SWAP6 POP POP POP POP POP POP JUMP JUMPDEST PUSH1 0x20 DUP2 MSTORE PUSH1 0x0 PUSH2 0xC05 PUSH1 0x20 DUP4 ADD DUP5 PUSH2 0x2E21 JUMP JUMPDEST PUSH4 0x4E487B71 PUSH1 0xE0 SHL PUSH1 0x0 MSTORE PUSH1 0x41 PUSH1 0x4 MSTORE PUSH1 0x24 PUSH1 0x0 REVERT JUMPDEST PUSH1 0x0 PUSH8 0xFFFFFFFFFFFFFFFF DUP1 DUP5 GT ISZERO PUSH2 0x2F4B JUMPI PUSH2 0x2F4B PUSH2 0x2F1A JUMP JUMPDEST PUSH1 0x40 MLOAD PUSH1 0x1F DUP6 ADD PUSH1 0x1F NOT SWAP1 DUP2 AND PUSH1 0x3F ADD AND DUP2 ADD SWAP1 DUP3 DUP3 GT DUP2 DUP4 LT OR ISZERO PUSH2 0x2F73 JUMPI PUSH2 0x2F73 PUSH2 0x2F1A JUMP JUMPDEST DUP2 PUSH1 0x40 MSTORE DUP1 SWAP4 POP DUP6 DUP2 MSTORE DUP7 DUP7 DUP7 ADD GT ISZERO PUSH2 0x2F8C JUMPI PUSH1 0x0 DUP1 REVERT JUMPDEST DUP6 DUP6 PUSH1 0x20 DUP4 ADD CALLDATACOPY PUSH1 0x0 PUSH1 0x20 DUP8 DUP4 ADD ADD MSTORE POP POP POP SWAP4 SWAP3 POP POP POP JUMP JUMPDEST PUSH1 0x0 DUP3 PUSH1 0x1F DUP4 ADD SLT PUSH2 0x2FB7 JUMPI PUSH1 0x0 DUP1 REVERT JUMPDEST PUSH2 0xC05 DUP4 DUP4 CALLDATALOAD PUSH1 0x20 DUP6 ADD PUSH2 0x2F30 JUMP JUMPDEST PUSH1 0x0 PUSH1 0x20 DUP3 DUP5 SUB SLT ISZERO PUSH2 0x2FD8 JUMPI PUSH1 0x0 DUP1 REVERT JUMPDEST DUP2 CALLDATALOAD PUSH8 0xFFFFFFFFFFFFFFFF DUP2 GT ISZERO PUSH2 0x2FEF JUMPI PUSH1 0x0 DUP1 REVERT JUMPDEST PUSH2 0x1B05 DUP5 DUP3 DUP6 ADD PUSH2 0x2FA6 JUMP JUMPDEST PUSH1 0x0 PUSH1 0x20 DUP3 DUP5 SUB SLT ISZERO PUSH2 0x300D JUMPI PUSH1 0x0 DUP1 REVERT JUMPDEST PUSH2 0xC05 DUP3 PUSH2 0x2D9F JUMP JUMPDEST PUSH1 0x0 PUSH1 0x20 DUP1 DUP4 ADD DUP2 DUP5 MSTORE DUP1 DUP6 MLOAD DUP1 DUP4 MSTORE PUSH1 0x40 DUP7 ADD SWAP2 POP PUSH1 0x40 DUP2 PUSH1 0x5 SHL DUP8 ADD ADD SWAP3 POP DUP4 DUP8 ADD PUSH1 0x0 JUMPDEST DUP3 DUP2 LT ISZERO PUSH2 0x306B JUMPI PUSH1 0x3F NOT DUP9 DUP7 SUB ADD DUP5 MSTORE PUSH2 0x3059 DUP6 DUP4 MLOAD PUSH2 0x2E21 JUMP JUMPDEST SWAP5 POP SWAP3 DUP6 ADD SWAP3 SWAP1 DUP6 ADD SWAP1 PUSH1 0x1 ADD PUSH2 0x303D JUMP JUMPDEST POP SWAP3 SWAP8 SWAP7 POP POP POP POP POP POP POP JUMP JUMPDEST PUSH1 0x0 DUP1 PUSH1 0x0 DUP1 PUSH1 0x0 DUP1 PUSH1 0x0 DUP1 PUSH1 0x0 DUP1 PUSH1 0x0 PUSH2 0x160 DUP13 DUP15 SUB SLT ISZERO PUSH2 0x309A JUMPI PUSH1 0x0 DUP1 REVERT JUMPDEST DUP12 CALLDATALOAD SWAP11 POP PUSH8 0xFFFFFFFFFFFFFFFF DUP1 PUSH1 0x20 DUP15 ADD CALLDATALOAD GT ISZERO PUSH2 0x30B8 JUMPI PUSH1 0x0 DUP1 REVERT JUMPDEST PUSH2 0x30C8 DUP15 PUSH1 0x20 DUP16 ADD CALLDATALOAD DUP16 ADD PUSH2 0x2FA6 JUMP JUMPDEST SWAP11 POP DUP1 PUSH1 0x40 DUP15 ADD CALLDATALOAD GT ISZERO PUSH2 0x30DB JUMPI PUSH1 0x0 DUP1 REVERT JUMPDEST PUSH2 0x30EB DUP15 PUSH1 0x40 DUP16 ADD CALLDATALOAD DUP16 ADD PUSH2 0x2FA6 JUMP JUMPDEST SWAP10 POP PUSH1 0x60 DUP14 ADD CALLDATALOAD SWAP9 POP PUSH1 0x80 DUP14 ADD CALLDATALOAD SWAP8 POP DUP1 PUSH1 0xA0 DUP15 ADD CALLDATALOAD GT ISZERO PUSH2 0x310C JUMPI PUSH1 0x0 DUP1 REVERT JUMPDEST PUSH2 0x311C DUP15 PUSH1 0xA0 DUP16 ADD CALLDATALOAD DUP16 ADD PUSH2 0x2FA6 JUMP JUMPDEST SWAP7 POP DUP1 PUSH1 0xC0 DUP15 ADD CALLDATALOAD GT ISZERO PUSH2 0x312F JUMPI PUSH1 0x0 DUP1 REVERT JUMPDEST PUSH2 0x313F DUP15 PUSH1 0xC0 DUP16 ADD CALLDATALOAD DUP16 ADD PUSH2 0x2FA6 JUMP JUMPDEST SWAP6 POP PUSH1 0xE0 DUP14 ADD CALLDATALOAD SWAP5 POP PUSH2 0x3155 PUSH2 0x100 DUP15 ADD PUSH2 0x2D9F JUMP JUMPDEST SWAP4 POP DUP1 PUSH2 0x120 DUP15 ADD CALLDATALOAD GT ISZERO PUSH2 0x3169 JUMPI PUSH1 0x0 DUP1 REVERT JUMPDEST POP PUSH2 0x317B DUP14 PUSH2 0x120 DUP15 ADD CALLDATALOAD DUP15 ADD PUSH2 0x2FA6 JUMP JUMPDEST SWAP2 POP PUSH2 0x140 DUP13 ADD CALLDATALOAD SWAP1 POP SWAP3 SWAP6 SWAP9 SWAP12 POP SWAP3 SWAP6 SWAP9 SWAP12 SWAP1 SWAP4 SWAP7 SWAP10 POP JUMP JUMPDEST PUSH1 0x0 DUP1 PUSH1 0x40 DUP4 DUP6 SUB SLT ISZERO PUSH2 0x31A8 JUMPI PUSH1 0x0 DUP1 REVERT JUMPDEST POP POP DUP1 CALLDATALOAD SWAP3 PUSH1 0x20 SWAP1 SWAP2 ADD CALLDATALOAD SWAP2 POP JUMP JUMPDEST PUSH1 0x0 DUP1 PUSH1 0x40 DUP4 DUP6 SUB SLT ISZERO PUSH2 0x31CA JUMPI PUSH1 0x0 DUP1 REVERT JUMPDEST PUSH2 0x31D3 DUP4 PUSH2 0x2D9F JUMP JUMPDEST SWAP2 POP PUSH1 0x20 DUP4 ADD CALLDATALOAD DUP1 ISZERO ISZERO DUP2 EQ PUSH2 0x31E8 JUMPI PUSH1 0x0 DUP1 REVERT JUMPDEST DUP1 SWAP2 POP POP SWAP3 POP SWAP3 SWAP1 POP JUMP JUMPDEST PUSH1 0x0 DUP1 PUSH1 0x0 DUP1 PUSH1 0x80 DUP6 DUP8 SUB SLT ISZERO PUSH2 0x3209 JUMPI PUSH1 0x0 DUP1 REVERT JUMPDEST PUSH2 0x3212 DUP6 PUSH2 0x2D9F JUMP JUMPDEST SWAP4 POP PUSH2 0x3220 PUSH1 0x20 DUP7 ADD PUSH2 0x2D9F JUMP JUMPDEST SWAP3 POP PUSH1 0x40 DUP6 ADD CALLDATALOAD SWAP2 POP PUSH1 0x60 DUP6 ADD CALLDATALOAD PUSH8 0xFFFFFFFFFFFFFFFF DUP2 GT ISZERO PUSH2 0x3243 JUMPI PUSH1 0x0 DUP1 REVERT JUMPDEST DUP6 ADD PUSH1 0x1F DUP2 ADD DUP8 SGT PUSH2 0x3254 JUMPI PUSH1 0x0 DUP1 REVERT JUMPDEST PUSH2 0x3263 DUP8 DUP3 CALLDATALOAD PUSH1 0x20 DUP5 ADD PUSH2 0x2F30 JUMP JUMPDEST SWAP2 POP POP SWAP3 SWAP6 SWAP2 SWAP5 POP SWAP3 POP JUMP JUMPDEST PUSH1 0x0 DUP1 PUSH1 0x40 DUP4 DUP6 SUB SLT ISZERO PUSH2 0x3282 JUMPI PUSH1 0x0 DUP1 REVERT JUMPDEST PUSH2 0x328B DUP4 PUSH2 0x2D9F JUMP JUMPDEST SWAP2 POP PUSH2 0x3299 PUSH1 0x20 DUP5 ADD PUSH2 0x2D9F JUMP JUMPDEST SWAP1 POP SWAP3 POP SWAP3 SWAP1 POP JUMP JUMPDEST PUSH1 0x1 DUP2 DUP2 SHR SWAP1 DUP3 AND DUP1 PUSH2 0x32B6 JUMPI PUSH1 0x7F DUP3 AND SWAP2 POP JUMPDEST PUSH1 0x20 DUP3 LT DUP2 SUB PUSH2 0x32D6 JUMPI PUSH4 0x4E487B71 PUSH1 0xE0 SHL PUSH1 0x0 MSTORE PUSH1 0x22 PUSH1 0x4 MSTORE PUSH1 0x24 PUSH1 0x0 REVERT JUMPDEST POP SWAP2 SWAP1 POP JUMP JUMPDEST DUP1 DUP3 ADD DUP1 DUP3 GT ISZERO PUSH2 0x4E7 JUMPI PUSH4 0x4E487B71 PUSH1 0xE0 SHL PUSH1 0x0 MSTORE PUSH1 0x11 PUSH1 0x4 MSTORE PUSH1 0x24 PUSH1 0x0 REVERT JUMPDEST PUSH1 0x1F DUP3 GT ISZERO PUSH2 0x6BB JUMPI PUSH1 0x0 DUP2 DUP2 MSTORE PUSH1 0x20 DUP2 KECCAK256 PUSH1 0x1F DUP6 ADD PUSH1 0x5 SHR DUP2 ADD PUSH1 0x20 DUP7 LT ISZERO PUSH2 0x3324 JUMPI POP DUP1 JUMPDEST PUSH1 0x1F DUP6 ADD PUSH1 0x5 SHR DUP3 ADD SWAP2 POP JUMPDEST DUP2 DUP2 LT ISZERO PUSH2 0x3343 JUMPI DUP3 DUP2 SSTORE PUSH1 0x1 ADD PUSH2 0x3330 JUMP JUMPDEST POP POP POP POP POP POP JUMP JUMPDEST DUP2 MLOAD PUSH8 0xFFFFFFFFFFFFFFFF DUP2 GT ISZERO PUSH2 0x3365 JUMPI PUSH2 0x3365 PUSH2 0x2F1A JUMP JUMPDEST PUSH2 0x3379 DUP2 PUSH2 0x3373 DUP5 SLOAD PUSH2 0x32A2 JUMP JUMPDEST DUP5 PUSH2 0x32FD JUMP JUMPDEST PUSH1 0x20 DUP1 PUSH1 0x1F DUP4 GT PUSH1 0x1 DUP2 EQ PUSH2 0x33AE JUMPI PUSH1 0x0 DUP5 ISZERO PUSH2 0x3396 JUMPI POP DUP6 DUP4 ADD MLOAD JUMPDEST PUSH1 0x0 NOT PUSH1 0x3 DUP7 SWAP1 SHL SHR NOT AND PUSH1 0x1 DUP6 SWAP1 SHL OR DUP6 SSTORE PUSH2 0x3343 JUMP JUMPDEST PUSH1 0x0 DUP6 DUP2 MSTORE PUSH1 0x20 DUP2 KECCAK256 PUSH1 0x1F NOT DUP7 AND SWAP2 JUMPDEST DUP3 DUP2 LT ISZERO PUSH2 0x33DD JUMPI DUP9 DUP7 ADD MLOAD DUP3 SSTORE SWAP5 DUP5 ADD SWAP5 PUSH1 0x1 SWAP1 SWAP2 ADD SWAP1 DUP5 ADD PUSH2 0x33BE JUMP JUMPDEST POP DUP6 DUP3 LT ISZERO PUSH2 0x33FB JUMPI DUP8 DUP6 ADD MLOAD PUSH1 0x0 NOT PUSH1 0x3 DUP9 SWAP1 SHL PUSH1 0xF8 AND SHR NOT AND DUP2 SSTORE JUMPDEST POP POP POP POP POP PUSH1 0x1 SWAP1 DUP2 SHL ADD SWAP1 SSTORE POP JUMP JUMPDEST PUSH4 0x4E487B71 PUSH1 0xE0 SHL PUSH1 0x0 MSTORE PUSH1 0x32 PUSH1 0x4 MSTORE PUSH1 0x24 PUSH1 0x0 REVERT JUMPDEST PUSH1 0x0 DUP3 MLOAD PUSH2 0x3433 DUP2 DUP5 PUSH1 0x20 DUP8 ADD PUSH2 0x2D23 JUMP JUMPDEST SWAP2 SWAP1 SWAP2 ADD SWAP3 SWAP2 POP POP JUMP JUMPDEST PUSH1 0x0 PUSH2 0x180 DUP15 DUP4 MSTORE DUP1 PUSH1 0x20 DUP5 ADD MSTORE PUSH2 0x3457 DUP2 DUP5 ADD DUP16 PUSH2 0x2D47 JUMP JUMPDEST SWAP1 POP DUP13 PUSH1 0x40 DUP5 ADD MSTORE DUP12 PUSH1 0x60 DUP5 ADD MSTORE DUP3 DUP2 SUB PUSH1 0x80 DUP5 ADD MSTORE PUSH2 0x3477 DUP2 DUP13 PUSH2 0x2D47 JUMP JUMPDEST SWAP1 POP DUP3 DUP2 SUB PUSH1 0xA0 DUP5 ADD MSTORE PUSH2 0x348B DUP2 DUP12 PUSH2 0x2D47 JUMP JUMPDEST SWAP1 POP DUP9 PUSH1 0xC0 DUP5 ADD MSTORE PUSH1 0x1 PUSH1 0x1 PUSH1 0xA0 SHL SUB DUP9 AND PUSH1 0xE0 DUP5 ADD MSTORE DUP3 DUP2 SUB PUSH2 0x100 DUP5 ADD MSTORE PUSH2 0x34B5 DUP2 DUP9 PUSH2 0x2D47 JUMP JUMPDEST PUSH2 0x120 DUP5 ADD SWAP7 SWAP1 SWAP7 MSTORE POP POP PUSH2 0x140 DUP2 ADD SWAP3 SWAP1 SWAP3 MSTORE PUSH2 0x160 SWAP1 SWAP2 ADD MSTORE SWAP10 SWAP9 POP POP POP POP POP POP POP POP POP JUMP JUMPDEST PUSH1 0x0 DUP4 MLOAD PUSH2 0x34EF DUP2 DUP5 PUSH1 0x20 DUP9 ADD PUSH2 0x2D23 JUMP JUMPDEST DUP4 MLOAD SWAP1 DUP4 ADD SWAP1 PUSH2 0x3503 DUP2 DUP4 PUSH1 0x20 DUP9 ADD PUSH2 0x2D23 JUMP JUMPDEST ADD SWAP5 SWAP4 POP POP POP POP JUMP JUMPDEST PUSH1 0x0 PUSH1 0x1 PUSH1 0x1 PUSH1 0xA0 SHL SUB DUP1 DUP8 AND DUP4 MSTORE DUP1 DUP7 AND PUSH1 0x20 DUP5 ADD MSTORE POP DUP4 PUSH1 0x40 DUP4 ADD MSTORE PUSH1 0x80 PUSH1 0x60 DUP4 ADD MSTORE PUSH2 0x2EFD PUSH1 0x80 DUP4 ADD DUP5 PUSH2 0x2D47 JUMP JUMPDEST PUSH1 0x0 PUSH1 0x20 DUP3 DUP5 SUB SLT ISZERO PUSH2 0x3550 JUMPI PUSH1 0x0 DUP1 REVERT JUMPDEST DUP2 MLOAD PUSH2 0xC05 DUP2 PUSH2 0x2CF0 JUMP INVALID GASLIMIT MSTORE NUMBER CALLDATACOPY ORIGIN BALANCE GASPRICE KECCAK256 PUSH16 0x776E657220717565727920666F72206E PUSH16 0x6E6578697374656E7420746F6B656EA1 PUSH5 0x736F6C6343 STOP ADDMOD LT STOP EXP "},"methodIdentifiers":{"SYTEMAP_NAME()":"db7e7926","SYTEMAP_SYMBOL()":"3f35198e","approve(address,uint256)":"095ea7b3","balanceOf(address)":"70a08231","changePropertyPriceByOwner(uint256,uint256)":"90cbe759","getAllMintedPropertyDetails()":"93d3e755","getAllPropertyDetailsByOwner(address)":"5939f777","getApproved(uint256)":"081812fc","getNumberOfPropertyTokensMinted()":"c5719298","getPropertyInfoDetailsByPVN(uint256)":"245f0ca4","getPropertyVerificationNoOwner(uint256)":"e4a9614a","getTotalNumberOfPropertyOwnedByAnAddress(address)":"c62e5581","isApprovedForAll(address,address)":"e985e9c5","name()":"06fdde03","owner()":"8da5cb5b","ownerOf(uint256)":"6352211e","renounceOwnership()":"715018a6","safeMintNewPropertyInfo(uint256,string,string,uint256,uint256,string,string,uint256,address,string,uint256)":"80b0fd0a","safeTransferFrom(address,address,uint256)":"42842e0e","safeTransferFrom(address,address,uint256,bytes)":"b88d4fde","setApprovalForAll(address,bool)":"a22cb465","setBaseURI(string)":"55f804b3","supportsInterface(bytes4)":"01ffc9a7","symbol()":"95d89b41","tokenByIndex(uint256)":"4f6ccce7","tokenOfOwnerByIndex(address,uint256)":"2f745c59","tokenURI(uint256)":"c87b56dd","totalSupply()":"18160ddd","transferFrom(address,address,uint256)":"23b872dd","transferOwnership(address)":"f2fde38b"}}}}}