{
  "_format": "hh-sol-artifact-1",
  "contractName": "SytemapAssetRegistry",
  "sourceName": "contracts/SytemapAssetRegistry.sol",
  "abi": [
    {
      "inputs": [
        {
          "internalType": "string",
          "name": "baseURI",
          "type": "string"
        }
      ],
      "stateMutability": "nonpayable",
      "type": "constructor"
    },
    {
      "anonymous": false,
      "inputs": [
        {
          "indexed": true,
          "internalType": "address",
          "name": "owner",
          "type": "address"
        },
        {
          "indexed": true,
          "internalType": "address",
          "name": "approved",
          "type": "address"
        },
        {
          "indexed": true,
          "internalType": "uint256",
          "name": "tokenId",
          "type": "uint256"
        }
      ],
      "name": "Approval",
      "type": "event"
    },
    {
      "anonymous": false,
      "inputs": [
        {
          "indexed": true,
          "internalType": "address",
          "name": "owner",
          "type": "address"
        },
        {
          "indexed": true,
          "internalType": "address",
          "name": "operator",
          "type": "address"
        },
        {
          "indexed": false,
          "internalType": "bool",
          "name": "approved",
          "type": "bool"
        }
      ],
      "name": "ApprovalForAll",
      "type": "event"
    },
    {
      "anonymous": false,
      "inputs": [
        {
          "indexed": false,
          "internalType": "uint256",
          "name": "plotNo",
          "type": "uint256"
        },
        {
          "indexed": true,
          "internalType": "string",
          "name": "tokenURL",
          "type": "string"
        },
        {
          "indexed": false,
          "internalType": "string",
          "name": "estateName",
          "type": "string"
        },
        {
          "indexed": false,
          "internalType": "uint256",
          "name": "priceOfPlot",
          "type": "uint256"
        },
        {
          "indexed": false,
          "internalType": "uint256",
          "name": "sizeOfPlot",
          "type": "uint256"
        },
        {
          "indexed": false,
          "internalType": "string",
          "name": "plotUrl",
          "type": "string"
        },
        {
          "indexed": false,
          "internalType": "string",
          "name": "dateOfAllocation",
          "type": "string"
        },
        {
          "indexed": false,
          "internalType": "uint256",
          "name": "coordinateOfPlot",
          "type": "uint256"
        },
        {
          "indexed": false,
          "internalType": "address",
          "name": "buyerWalletId",
          "type": "address"
        },
        {
          "indexed": false,
          "internalType": "string",
          "name": "estateCompanyName",
          "type": "string"
        },
        {
          "indexed": false,
          "internalType": "uint256",
          "name": "propertyVerificationNo",
          "type": "uint256"
        },
        {
          "indexed": false,
          "internalType": "uint256",
          "name": "tokenId",
          "type": "uint256"
        },
        {
          "indexed": false,
          "internalType": "uint256",
          "name": "timestamp",
          "type": "uint256"
        }
      ],
      "name": "NewPropertyInfoAdded",
      "type": "event"
    },
    {
      "anonymous": false,
      "inputs": [
        {
          "indexed": true,
          "internalType": "address",
          "name": "previousOwner",
          "type": "address"
        },
        {
          "indexed": true,
          "internalType": "address",
          "name": "newOwner",
          "type": "address"
        }
      ],
      "name": "OwnershipTransferred",
      "type": "event"
    },
    {
      "anonymous": false,
      "inputs": [
        {
          "indexed": false,
          "internalType": "address",
          "name": "owner",
          "type": "address"
        },
        {
          "indexed": false,
          "internalType": "uint256",
          "name": "propertyVerificationNo",
          "type": "uint256"
        },
        {
          "indexed": false,
          "internalType": "uint256",
          "name": "newPrice",
          "type": "uint256"
        }
      ],
      "name": "PropertyInfoPriceChanged",
      "type": "event"
    },
    {
      "anonymous": false,
      "inputs": [
        {
          "indexed": true,
          "internalType": "uint256",
          "name": "tokenId",
          "type": "uint256"
        },
        {
          "indexed": true,
          "internalType": "uint256",
          "name": "propertyVerificationNo",
          "type": "uint256"
        },
        {
          "indexed": false,
          "internalType": "string",
          "name": "tokenURL",
          "type": "string"
        }
      ],
      "name": "TokenMinted",
      "type": "event"
    },
    {
      "anonymous": false,
      "inputs": [
        {
          "indexed": true,
          "internalType": "address",
          "name": "from",
          "type": "address"
        },
        {
          "indexed": true,
          "internalType": "address",
          "name": "to",
          "type": "address"
        },
        {
          "indexed": true,
          "internalType": "uint256",
          "name": "tokenId",
          "type": "uint256"
        }
      ],
      "name": "Transfer",
      "type": "event"
    },
    {
      "inputs": [],
      "name": "_sytemapName",
      "outputs": [
        {
          "internalType": "string",
          "name": "",
          "type": "string"
        }
      ],
      "stateMutability": "view",
      "type": "function"
    },
    {
      "inputs": [],
      "name": "_sytemapSymbol",
      "outputs": [
        {
          "internalType": "string",
          "name": "",
          "type": "string"
        }
      ],
      "stateMutability": "view",
      "type": "function"
    },
    {
      "inputs": [
        {
          "internalType": "address",
          "name": "to",
          "type": "address"
        },
        {
          "internalType": "uint256",
          "name": "tokenId",
          "type": "uint256"
        }
      ],
      "name": "approve",
      "outputs": [],
      "stateMutability": "nonpayable",
      "type": "function"
    },
    {
      "inputs": [
        {
          "internalType": "address",
          "name": "owner",
          "type": "address"
        }
      ],
      "name": "balanceOf",
      "outputs": [
        {
          "internalType": "uint256",
          "name": "",
          "type": "uint256"
        }
      ],
      "stateMutability": "view",
      "type": "function"
    },
    {
      "inputs": [
        {
          "internalType": "uint256",
          "name": "_propertyVerificationNo",
          "type": "uint256"
        },
        {
          "internalType": "uint256",
          "name": "_priceOfPlot",
          "type": "uint256"
        }
      ],
      "name": "changePropertyPriceByOwner",
      "outputs": [
        {
          "internalType": "bool",
          "name": "",
          "type": "bool"
        }
      ],
      "stateMutability": "nonpayable",
      "type": "function"
    },
    {
      "inputs": [],
      "name": "getAllMintedPropertyDetails",
      "outputs": [
        {
          "components": [
            {
              "internalType": "uint256",
              "name": "plotNo",
              "type": "uint256"
            },
            {
              "internalType": "uint256",
              "name": "priceOfPlot",
              "type": "uint256"
            },
            {
              "internalType": "uint256",
              "name": "sizeOfPlot",
              "type": "uint256"
            },
            {
              "internalType": "uint256",
              "name": "coordinateOfPlot",
              "type": "uint256"
            },
            {
              "internalType": "uint256",
              "name": "propertyVerificationNo",
              "type": "uint256"
            },
            {
              "internalType": "uint256",
              "name": "timestamp",
              "type": "uint256"
            },
            {
              "internalType": "address",
              "name": "buyerWalletId",
              "type": "address"
            },
            {
              "internalType": "string",
              "name": "tokenURL",
              "type": "string"
            },
            {
              "internalType": "string",
              "name": "estateName",
              "type": "string"
            },
            {
              "internalType": "string",
              "name": "plotUrl",
              "type": "string"
            },
            {
              "internalType": "string",
              "name": "dateOfAllocation",
              "type": "string"
            },
            {
              "internalType": "string",
              "name": "estateCompanyName",
              "type": "string"
            }
          ],
          "internalType": "struct ISytemapAssetRegistry.PropertyInffo[]",
          "name": "",
          "type": "tuple[]"
        }
      ],
      "stateMutability": "view",
      "type": "function"
    },
    {
      "inputs": [
        {
          "internalType": "address",
          "name": "owner",
          "type": "address"
        }
      ],
      "name": "getAllPropertyDetailsByOwner",
      "outputs": [
        {
          "components": [
            {
              "internalType": "uint256",
              "name": "plotNo",
              "type": "uint256"
            },
            {
              "internalType": "uint256",
              "name": "priceOfPlot",
              "type": "uint256"
            },
            {
              "internalType": "uint256",
              "name": "sizeOfPlot",
              "type": "uint256"
            },
            {
              "internalType": "uint256",
              "name": "coordinateOfPlot",
              "type": "uint256"
            },
            {
              "internalType": "uint256",
              "name": "propertyVerificationNo",
              "type": "uint256"
            },
            {
              "internalType": "uint256",
              "name": "timestamp",
              "type": "uint256"
            },
            {
              "internalType": "address",
              "name": "buyerWalletId",
              "type": "address"
            },
            {
              "internalType": "string",
              "name": "tokenURL",
              "type": "string"
            },
            {
              "internalType": "string",
              "name": "estateName",
              "type": "string"
            },
            {
              "internalType": "string",
              "name": "plotUrl",
              "type": "string"
            },
            {
              "internalType": "string",
              "name": "dateOfAllocation",
              "type": "string"
            },
            {
              "internalType": "string",
              "name": "estateCompanyName",
              "type": "string"
            }
          ],
          "internalType": "struct ISytemapAssetRegistry.PropertyInffo[]",
          "name": "",
          "type": "tuple[]"
        }
      ],
      "stateMutability": "view",
      "type": "function"
    },
    {
      "inputs": [
        {
          "internalType": "uint256",
          "name": "tokenId",
          "type": "uint256"
        }
      ],
      "name": "getApproved",
      "outputs": [
        {
          "internalType": "address",
          "name": "",
          "type": "address"
        }
      ],
      "stateMutability": "view",
      "type": "function"
    },
    {
      "inputs": [],
      "name": "getNumberOfPropertyTokensMinted",
      "outputs": [
        {
          "internalType": "uint256",
          "name": "",
          "type": "uint256"
        }
      ],
      "stateMutability": "view",
      "type": "function"
    },
    {
      "inputs": [
        {
          "internalType": "uint256",
          "name": "_propertyVerificationNo",
          "type": "uint256"
        }
      ],
      "name": "getPropertyInfoDetailsByPVN",
      "outputs": [
        {
          "components": [
            {
              "internalType": "uint256",
              "name": "plotNo",
              "type": "uint256"
            },
            {
              "internalType": "uint256",
              "name": "priceOfPlot",
              "type": "uint256"
            },
            {
              "internalType": "uint256",
              "name": "sizeOfPlot",
              "type": "uint256"
            },
            {
              "internalType": "uint256",
              "name": "coordinateOfPlot",
              "type": "uint256"
            },
            {
              "internalType": "uint256",
              "name": "propertyVerificationNo",
              "type": "uint256"
            },
            {
              "internalType": "uint256",
              "name": "timestamp",
              "type": "uint256"
            },
            {
              "internalType": "address",
              "name": "buyerWalletId",
              "type": "address"
            },
            {
              "internalType": "string",
              "name": "tokenURL",
              "type": "string"
            },
            {
              "internalType": "string",
              "name": "estateName",
              "type": "string"
            },
            {
              "internalType": "string",
              "name": "plotUrl",
              "type": "string"
            },
            {
              "internalType": "string",
              "name": "dateOfAllocation",
              "type": "string"
            },
            {
              "internalType": "string",
              "name": "estateCompanyName",
              "type": "string"
            }
          ],
          "internalType": "struct ISytemapAssetRegistry.PropertyInffo",
          "name": "",
          "type": "tuple"
        }
      ],
      "stateMutability": "view",
      "type": "function"
    },
    {
      "inputs": [
        {
          "internalType": "uint256",
          "name": "_propertyVerificationNo",
          "type": "uint256"
        }
      ],
      "name": "getPropertyVerificationNoOwner",
      "outputs": [
        {
          "internalType": "address",
          "name": "",
          "type": "address"
        }
      ],
      "stateMutability": "view",
      "type": "function"
    },
    {
      "inputs": [
        {
          "internalType": "address",
          "name": "_owner",
          "type": "address"
        }
      ],
      "name": "getTotalNumberOfPropertyOwnedByAnAddress",
      "outputs": [
        {
          "internalType": "uint256",
          "name": "",
          "type": "uint256"
        }
      ],
      "stateMutability": "view",
      "type": "function"
    },
    {
      "inputs": [
        {
          "internalType": "address",
          "name": "owner",
          "type": "address"
        },
        {
          "internalType": "address",
          "name": "operator",
          "type": "address"
        }
      ],
      "name": "isApprovedForAll",
      "outputs": [
        {
          "internalType": "bool",
          "name": "",
          "type": "bool"
        }
      ],
      "stateMutability": "view",
      "type": "function"
    },
    {
      "inputs": [],
      "name": "name",
      "outputs": [
        {
          "internalType": "string",
          "name": "",
          "type": "string"
        }
      ],
      "stateMutability": "view",
      "type": "function"
    },
    {
      "inputs": [],
      "name": "owner",
      "outputs": [
        {
          "internalType": "address",
          "name": "",
          "type": "address"
        }
      ],
      "stateMutability": "view",
      "type": "function"
    },
    {
      "inputs": [
        {
          "internalType": "uint256",
          "name": "_tokenId",
          "type": "uint256"
        }
      ],
      "name": "ownerOf",
      "outputs": [
        {
          "internalType": "address",
          "name": "",
          "type": "address"
        }
      ],
      "stateMutability": "view",
      "type": "function"
    },
    {
      "inputs": [],
      "name": "renounceOwnership",
      "outputs": [],
      "stateMutability": "nonpayable",
      "type": "function"
    },
    {
      "inputs": [
        {
          "internalType": "uint256",
          "name": "_plotNo",
          "type": "uint256"
        },
        {
          "internalType": "string",
          "name": "_tokenURL",
          "type": "string"
        },
        {
          "internalType": "string",
          "name": "_estateName",
          "type": "string"
        },
        {
          "internalType": "uint256",
          "name": "_priceOfPlot",
          "type": "uint256"
        },
        {
          "internalType": "uint256",
          "name": "_sizeOfPlot",
          "type": "uint256"
        },
        {
          "internalType": "string",
          "name": "_plotUrl",
          "type": "string"
        },
        {
          "internalType": "string",
          "name": "_dateOfAllocation",
          "type": "string"
        },
        {
          "internalType": "uint256",
          "name": "_coordinateOfPlot",
          "type": "uint256"
        },
        {
          "internalType": "address",
          "name": "_buyerWalletId",
          "type": "address"
        },
        {
          "internalType": "string",
          "name": "_estateCompanyName",
          "type": "string"
        },
        {
          "internalType": "uint256",
          "name": "_propertyVerificationNo",
          "type": "uint256"
        }
      ],
      "name": "safeMintNewPropertyInfo",
      "outputs": [],
      "stateMutability": "payable",
      "type": "function"
    },
    {
      "inputs": [
        {
          "internalType": "address",
          "name": "from",
          "type": "address"
        },
        {
          "internalType": "address",
          "name": "to",
          "type": "address"
        },
        {
          "internalType": "uint256",
          "name": "tokenId",
          "type": "uint256"
        }
      ],
      "name": "safeTransferFrom",
      "outputs": [],
      "stateMutability": "nonpayable",
      "type": "function"
    },
    {
      "inputs": [
        {
          "internalType": "address",
          "name": "from",
          "type": "address"
        },
        {
          "internalType": "address",
          "name": "to",
          "type": "address"
        },
        {
          "internalType": "uint256",
          "name": "tokenId",
          "type": "uint256"
        },
        {
          "internalType": "bytes",
          "name": "data",
          "type": "bytes"
        }
      ],
      "name": "safeTransferFrom",
      "outputs": [],
      "stateMutability": "nonpayable",
      "type": "function"
    },
    {
      "inputs": [
        {
          "internalType": "address",
          "name": "operator",
          "type": "address"
        },
        {
          "internalType": "bool",
          "name": "approved",
          "type": "bool"
        }
      ],
      "name": "setApprovalForAll",
      "outputs": [],
      "stateMutability": "nonpayable",
      "type": "function"
    },
    {
      "inputs": [
        {
          "internalType": "bytes4",
          "name": "interfaceId",
          "type": "bytes4"
        }
      ],
      "name": "supportsInterface",
      "outputs": [
        {
          "internalType": "bool",
          "name": "",
          "type": "bool"
        }
      ],
      "stateMutability": "view",
      "type": "function"
    },
    {
      "inputs": [],
      "name": "symbol",
      "outputs": [
        {
          "internalType": "string",
          "name": "",
          "type": "string"
        }
      ],
      "stateMutability": "view",
      "type": "function"
    },
    {
      "inputs": [
        {
          "internalType": "uint256",
          "name": "index",
          "type": "uint256"
        }
      ],
      "name": "tokenByIndex",
      "outputs": [
        {
          "internalType": "uint256",
          "name": "",
          "type": "uint256"
        }
      ],
      "stateMutability": "view",
      "type": "function"
    },
    {
      "inputs": [
        {
          "internalType": "address",
          "name": "owner",
          "type": "address"
        },
        {
          "internalType": "uint256",
          "name": "index",
          "type": "uint256"
        }
      ],
      "name": "tokenOfOwnerByIndex",
      "outputs": [
        {
          "internalType": "uint256",
          "name": "",
          "type": "uint256"
        }
      ],
      "stateMutability": "view",
      "type": "function"
    },
    {
      "inputs": [
        {
          "internalType": "uint256",
          "name": "tokenId",
          "type": "uint256"
        }
      ],
      "name": "tokenURI",
      "outputs": [
        {
          "internalType": "string",
          "name": "",
          "type": "string"
        }
      ],
      "stateMutability": "view",
      "type": "function"
    },
    {
      "inputs": [],
      "name": "totalSupply",
      "outputs": [
        {
          "internalType": "uint256",
          "name": "",
          "type": "uint256"
        }
      ],
      "stateMutability": "view",
      "type": "function"
    },
    {
      "inputs": [
        {
          "internalType": "address",
          "name": "from",
          "type": "address"
        },
        {
          "internalType": "address",
          "name": "to",
          "type": "address"
        },
        {
          "internalType": "uint256",
          "name": "tokenId",
          "type": "uint256"
        }
      ],
      "name": "transferFrom",
      "outputs": [],
      "stateMutability": "nonpayable",
      "type": "function"
    },
    {
      "inputs": [
        {
          "internalType": "address",
          "name": "newOwner",
          "type": "address"
        }
      ],
      "name": "transferOwnership",
      "outputs": [],
      "stateMutability": "nonpayable",
      "type": "function"
    }
  ],
  "bytecode": "0x60806040523480156200001157600080fd5b50604051620036e4380380620036e48339810160408190526200003491620001eb565b604080518082018252600c81526b29bcba32b6b0b81021b7b4b760a11b6020808301918252835180850190945260048452635354594560e01b90840152815191929162000084916000916200012f565b5080516200009a9060019060208401906200012f565b505050620000b7620000b1620000d960201b60201c565b620000dd565b60016008558051620000d19060099060208401906200012f565b505062000304565b3390565b600680546001600160a01b038381166001600160a01b0319831681179093556040519116919082907f8be0079c531659141344cd1fd0a4f28419497f9722a3daafe3b4186f6b6457e090600090a35050565b8280546200013d90620002c7565b90600052602060002090601f016020900481019282620001615760008555620001ac565b82601f106200017c57805160ff1916838001178555620001ac565b82800160010185558215620001ac579182015b82811115620001ac5782518255916020019190600101906200018f565b50620001ba929150620001be565b5090565b5b80821115620001ba5760008155600101620001bf565b634e487b7160e01b600052604160045260246000fd5b60006020808385031215620001ff57600080fd5b82516001600160401b03808211156200021757600080fd5b818501915085601f8301126200022c57600080fd5b815181811115620002415762000241620001d5565b604051601f8201601f19908116603f011681019083821181831017156200026c576200026c620001d5565b8160405282815288868487010111156200028557600080fd5b600093505b82841015620002a957848401860151818501870152928501926200028a565b82841115620002bb5760008684830101525b98975050505050505050565b600181811c90821680620002dc57607f821691505b60208210811415620002fe57634e487b7160e01b600052602260045260246000fd5b50919050565b6133d080620003146000396000f3fe6080604052600436106101c25760003560e01c806370a08231116100f7578063a22cb46511610095578063c87b56dd11610064578063c87b56dd14610533578063e4a9614a14610553578063e985e9c514610573578063f2fde38b146105bc57600080fd5b8063a22cb465146104be578063b88d4fde146104de578063c5719298146104fe578063c62e55811461051357600080fd5b80638da5cb5b116100d15780638da5cb5b1461045657806390cbe7591461047457806393d3e7551461049457806395d89b41146104a957600080fd5b806370a082311461040e578063715018a61461042e57806380b0fd0a1461044357600080fd5b806324d75af3116101645780634f6ccce71161013e5780634f6ccce7146103715780635939f777146103915780636352211e146103be57806365b46d53146103de57600080fd5b806324d75af3146102e85780632f745c591461033157806342842e0e1461035157600080fd5b8063095ea7b3116101a0578063095ea7b31461025657806318160ddd1461027857806323b872dd1461029b578063245f0ca4146102bb57600080fd5b806301ffc9a7146101c757806306fdde03146101fc578063081812fc1461021e575b600080fd5b3480156101d357600080fd5b506101e76101e2366004612ca9565b6105dc565b60405190151581526020015b60405180910390f35b34801561020857600080fd5b5061021161062e565b6040516101f39190612d1e565b34801561022a57600080fd5b5061023e610239366004612d31565b6106c0565b6040516001600160a01b0390911681526020016101f3565b34801561026257600080fd5b50610276610271366004612d66565b6106e7565b005b34801561028457600080fd5b5061028d610802565b6040519081526020016101f3565b3480156102a757600080fd5b506102766102b6366004612d90565b610813565b3480156102c757600080fd5b506102db6102d6366004612d31565b61088a565b6040516101f39190612eb2565b3480156102f457600080fd5b506102116040518060400160405280600c81526020017f537974656d617020436f696e000000000000000000000000000000000000000081525081565b34801561033d57600080fd5b5061028d61034c366004612d66565b610ccc565b34801561035d57600080fd5b5061027661036c366004612d90565b610d4e565b34801561037d57600080fd5b5061028d61038c366004612d31565b610d69565b34801561039d57600080fd5b506103b16103ac366004612ec5565b610dcc565b6040516101f39190612ee0565b3480156103ca57600080fd5b5061023e6103d9366004612d31565b611228565b3480156103ea57600080fd5b50610211604051806040016040528060048152602001635354594560e01b81525081565b34801561041a57600080fd5b5061028d610429366004612ec5565b611250565b34801561043a57600080fd5b506102766112ef565b610276610451366004612fee565b611303565b34801561046257600080fd5b506006546001600160a01b031661023e565b34801561048057600080fd5b506101e761048f36600461310b565b6114d6565b3480156104a057600080fd5b506103b161166c565b3480156104b557600080fd5b50610211611ac6565b3480156104ca57600080fd5b506102766104d936600461312d565b611ad5565b3480156104ea57600080fd5b506102766104f9366004613169565b611ae4565b34801561050a57600080fd5b5061028d611b62565b34801561051f57600080fd5b5061028d61052e366004612ec5565b611b6d565b34801561053f57600080fd5b5061021161054e366004612d31565b611b84565b34801561055f57600080fd5b5061023e61056e366004612d31565b611caf565b34801561057f57600080fd5b506101e761058e3660046131e5565b6001600160a01b03918216600090815260056020908152604080832093909416825291909152205460ff1690565b3480156105c857600080fd5b506102766105d7366004612ec5565b611cd1565b60006001600160e01b031982166380ac58cd60e01b148061060d57506001600160e01b03198216635b5e139f60e01b145b8061062857506301ffc9a760e01b6001600160e01b03198316145b92915050565b60606000805461063d90613218565b80601f016020809104026020016040519081016040528092919081815260200182805461066990613218565b80156106b65780601f1061068b576101008083540402835291602001916106b6565b820191906000526020600020905b81548152906001019060200180831161069957829003601f168201915b5050505050905090565b60006106cb82611d61565b506000908152600460205260409020546001600160a01b031690565b60006106f282611dc5565b9050806001600160a01b0316836001600160a01b031614156107655760405162461bcd60e51b815260206004820152602160248201527f4552433732313a20617070726f76616c20746f2063757272656e74206f776e656044820152603960f91b60648201526084015b60405180910390fd5b336001600160a01b03821614806107815750610781813361058e565b6107f35760405162461bcd60e51b815260206004820152603d60248201527f4552433732313a20617070726f76652063616c6c6572206973206e6f7420746f60448201527f6b656e206f776e6572206f7220617070726f76656420666f7220616c6c000000606482015260840161075c565b6107fd8383611e2a565b505050565b600061080e600e611e98565b905090565b61081d3382611ea3565b61087f5760405162461bcd60e51b815260206004820152602d60248201527f4552433732313a2063616c6c6572206973206e6f7420746f6b656e206f776e6560448201526c1c881bdc88185c1c1c9bdd9959609a1b606482015260840161075c565b6107fd838383611f21565b6108f760405180610180016040528060008152602001600081526020016000815260200160008152602001600081526020016000815260200160006001600160a01b0316815260200160608152602001606081526020016060815260200160608152602001606081525090565b61090082612101565b6109725760405162461bcd60e51b815260206004820152603360248201527f4552433732313a2070766e20746f6b656e20646f6573206e6f7420657869737460448201527f206f72206e6f74206265656e206d696e74656400000000000000000000000000606482015260840161075c565b600082815260116020908152604080832054808452600b835292819020815161018081018352815481526001820154938101939093526002810154918301919091526003810154606083015260048101546080830152600581015460a083015260068101546001600160a01b031660c083015260078101805460e0840191906109fa90613218565b80601f0160208091040260200160405190810160405280929190818152602001828054610a2690613218565b8015610a735780601f10610a4857610100808354040283529160200191610a73565b820191906000526020600020905b815481529060010190602001808311610a5657829003601f168201915b50505050508152602001600882018054610a8c90613218565b80601f0160208091040260200160405190810160405280929190818152602001828054610ab890613218565b8015610b055780601f10610ada57610100808354040283529160200191610b05565b820191906000526020600020905b815481529060010190602001808311610ae857829003601f168201915b50505050508152602001600982018054610b1e90613218565b80601f0160208091040260200160405190810160405280929190818152602001828054610b4a90613218565b8015610b975780601f10610b6c57610100808354040283529160200191610b97565b820191906000526020600020905b815481529060010190602001808311610b7a57829003601f168201915b50505050508152602001600a82018054610bb090613218565b80601f0160208091040260200160405190810160405280929190818152602001828054610bdc90613218565b8015610c295780601f10610bfe57610100808354040283529160200191610c29565b820191906000526020600020905b815481529060010190602001808311610c0c57829003601f168201915b50505050508152602001600b82018054610c4290613218565b80601f0160208091040260200160405190810160405280929190818152602001828054610c6e90613218565b8015610cbb5780601f10610c9057610100808354040283529160200191610cbb565b820191906000526020600020905b815481529060010190602001808311610c9e57829003601f168201915b505050505081525050915050919050565b6000610cd783611250565b8210610d255760405162461bcd60e51b815260206004820152601360248201527f496e646578206f7574206f6620626f756e647300000000000000000000000000604482015260640161075c565b6001600160a01b0383166000908152600d60205260409020610d47908361211b565b9392505050565b6107fd83838360405180602001604052806000815250611ae4565b6000610d73610802565b8210610dc15760405162461bcd60e51b815260206004820152601f60248201527f455243373231456e756d657261626c653a20696e76616c696420696e64657800604482015260640161075c565b610628826001613253565b60606000610dd983611250565b905060008167ffffffffffffffff811115610df657610df6612f42565b604051908082528060200260200182016040528015610e9457816020015b610e8160405180610180016040528060008152602001600081526020016000815260200160008152602001600081526020016000815260200160006001600160a01b0316815260200160608152602001606081526020016060815260200160608152602001606081525090565b815260200190600190039081610e145790505b50905060005b82811015611220576000610eae8683610ccc565b6000818152600b6020908152604091829020825161018081018452815481526001820154928101929092526002810154928201929092526003820154606082015260048201546080820152600582015460a082015260068201546001600160a01b031660c0820152600782018054939450909260e084019190610f3090613218565b80601f0160208091040260200160405190810160405280929190818152602001828054610f5c90613218565b8015610fa95780601f10610f7e57610100808354040283529160200191610fa9565b820191906000526020600020905b815481529060010190602001808311610f8c57829003601f168201915b50505050508152602001600882018054610fc290613218565b80601f0160208091040260200160405190810160405280929190818152602001828054610fee90613218565b801561103b5780601f106110105761010080835404028352916020019161103b565b820191906000526020600020905b81548152906001019060200180831161101e57829003601f168201915b5050505050815260200160098201805461105490613218565b80601f016020809104026020016040519081016040528092919081815260200182805461108090613218565b80156110cd5780601f106110a2576101008083540402835291602001916110cd565b820191906000526020600020905b8154815290600101906020018083116110b057829003601f168201915b50505050508152602001600a820180546110e690613218565b80601f016020809104026020016040519081016040528092919081815260200182805461111290613218565b801561115f5780601f106111345761010080835404028352916020019161115f565b820191906000526020600020905b81548152906001019060200180831161114257829003601f168201915b50505050508152602001600b8201805461117890613218565b80601f01602080910402602001604051908101604052809291908181526020018280546111a490613218565b80156111f15780601f106111c6576101008083540402835291602001916111f1565b820191906000526020600020905b8154815290600101906020018083116111d457829003601f168201915b50505050508152505083838151811061120c5761120c613279565b602090810291909101015250600101610e9a565b509392505050565b60006106288260405180606001604052806029815260200161339b60299139600e9190612127565b60006001600160a01b0382166112ce5760405162461bcd60e51b815260206004820152602a60248201527f4552433732313a2062616c616e636520717565727920666f7220746865207a6560448201527f726f206164647265737300000000000000000000000000000000000000000000606482015260840161075c565b6001600160a01b0382166000908152600d6020526040902061062890612134565b6112f761213e565b6113016000612198565b565b61130b61213e565b6113136121ea565b61131c81612101565b156113695760405162461bcd60e51b815260206004820181905260248201527f4552433732313a2070766e20746f6b656e20616c7265616479206d696e746564604482015260640161075c565b6001600160a01b0383166113bf5760405162461bcd60e51b815260206004820152601760248201527f4552433732313a20696e76616c69642061646472657373000000000000000000604482015260640161075c565b6001600160a01b0383163014156114185760405162461bcd60e51b815260206004820152601760248201527f4552433732313a20696e76616c69642061646472657373000000000000000000604482015260640161075c565b611426600a80546001019055565b6000611431600a5490565b905061143d8483612244565b611447828c61225e565b6114518482612307565b61145b8482612313565b6114718183600090815260116020526040902055565b6114858c8c8c8c8c8c8c8c8c8c8c8c612335565b81817f30b042f6d29a39b7c10c2dfbd81016db37ea3d11e72ec5764fb0d0f7a1012a3a8d6040516114b69190612d1e565b60405180910390a3506114c96001600855565b5050505050505050505050565b60006114e061213e565b6000821161153b5760405162461bcd60e51b815260206004820152602260248201527f506c6f74205072696365206d7573742062652067726561746572207468616e20604482015261181760f11b606482015260840161075c565b336115885760405162461bcd60e51b815260206004820152601760248201527f4552433732313a20696e76616c69642061646472657373000000000000000000604482015260640161075c565b61159183612101565b6116035760405162461bcd60e51b815260206004820152603360248201527f4552433732313a2070766e20746f6b656e20646f6573206e6f7420657869737460448201527f206f72206e6f74206265656e206d696e74656400000000000000000000000000606482015260840161075c565b600083815260116020908152604080832054808452600b8352928190206001018590558051338152918201869052818101859052517f598b48a1aad5d72fcedbc7ed6aac08ad920501eedca72d3dace23490f11f78129181900360600190a15060019392505050565b60606000611679600a5490565b905060008167ffffffffffffffff81111561169657611696612f42565b60405190808252806020026020018201604052801561173457816020015b61172160405180610180016040528060008152602001600081526020016000815260200160008152602001600081526020016000815260200160006001600160a01b0316815260200160608152602001606081526020016060815260200160608152602001606081525090565b8152602001906001900390816116b45790505b50905060005b82811015611abf57600061174d82610d69565b6000818152600b6020908152604091829020825161018081018452815481526001820154928101929092526002810154928201929092526003820154606082015260048201546080820152600582015460a082015260068201546001600160a01b031660c0820152600782018054939450909260e0840191906117cf90613218565b80601f01602080910402602001604051908101604052809291908181526020018280546117fb90613218565b80156118485780601f1061181d57610100808354040283529160200191611848565b820191906000526020600020905b81548152906001019060200180831161182b57829003601f168201915b5050505050815260200160088201805461186190613218565b80601f016020809104026020016040519081016040528092919081815260200182805461188d90613218565b80156118da5780601f106118af576101008083540402835291602001916118da565b820191906000526020600020905b8154815290600101906020018083116118bd57829003601f168201915b505050505081526020016009820180546118f390613218565b80601f016020809104026020016040519081016040528092919081815260200182805461191f90613218565b801561196c5780601f106119415761010080835404028352916020019161196c565b820191906000526020600020905b81548152906001019060200180831161194f57829003601f168201915b50505050508152602001600a8201805461198590613218565b80601f01602080910402602001604051908101604052809291908181526020018280546119b190613218565b80156119fe5780601f106119d3576101008083540402835291602001916119fe565b820191906000526020600020905b8154815290600101906020018083116119e157829003601f168201915b50505050508152602001600b82018054611a1790613218565b80601f0160208091040260200160405190810160405280929190818152602001828054611a4390613218565b8015611a905780601f10611a6557610100808354040283529160200191611a90565b820191906000526020600020905b815481529060010190602001808311611a7357829003601f168201915b505050505081525050838381518110611aab57611aab613279565b60209081029190910101525060010161173a565b5092915050565b60606001805461063d90613218565b611ae033838361260d565b5050565b611aee3383611ea3565b611b505760405162461bcd60e51b815260206004820152602d60248201527f4552433732313a2063616c6c6572206973206e6f7420746f6b656e206f776e6560448201526c1c881bdc88185c1c1c9bdd9959609a1b606482015260840161075c565b611b5c848484846126dc565b50505050565b600080610628610802565b600033611b7957600080fd5b6000610d4783611250565b6000818152600260205260409020546060906001600160a01b0316611c115760405162461bcd60e51b815260206004820152603160248201527f45524337323155524953746f726167653a2055524920717565727920666f722060448201527f6e6f6e6578697374656e7420746f6b656e000000000000000000000000000000606482015260840161075c565b6000828152600c602052604090208054611c2a90613218565b80601f0160208091040260200160405190810160405280929190818152602001828054611c5690613218565b8015611ca35780601f10611c7857610100808354040283529160200191611ca3565b820191906000526020600020905b815481529060010190602001808311611c8657829003601f168201915b50505050509050919050565b6000818152601160205260408120546000611cc982611228565b949350505050565b611cd961213e565b6001600160a01b038116611d555760405162461bcd60e51b815260206004820152602660248201527f4f776e61626c653a206e6577206f776e657220697320746865207a65726f206160448201527f6464726573730000000000000000000000000000000000000000000000000000606482015260840161075c565b611d5e81612198565b50565b6000818152600260205260409020546001600160a01b0316611d5e5760405162461bcd60e51b815260206004820152601860248201527f4552433732313a20696e76616c696420746f6b656e2049440000000000000000604482015260640161075c565b6000818152600260205260408120546001600160a01b0316806106285760405162461bcd60e51b815260206004820152601860248201527f4552433732313a20696e76616c696420746f6b656e2049440000000000000000604482015260640161075c565b600081815260046020526040902080546001600160a01b0319166001600160a01b0384169081179091558190611e5f82611dc5565b6001600160a01b03167f8c5be1e5ebec7d5bd14f71427d1e84f3dd0314c0f7b2291e5b200ac8c7c3b92560405160405180910390a45050565b60006106288261275a565b600080611eaf83611dc5565b9050806001600160a01b0316846001600160a01b03161480611ef657506001600160a01b0380821660009081526005602090815260408083209388168352929052205460ff165b80611cc95750836001600160a01b0316611f0f846106c0565b6001600160a01b031614949350505050565b826001600160a01b0316611f3482611dc5565b6001600160a01b031614611f985760405162461bcd60e51b815260206004820152602560248201527f4552433732313a207472616e736665722066726f6d20696e636f72726563742060448201526437bbb732b960d91b606482015260840161075c565b6001600160a01b038216611ffa5760405162461bcd60e51b8152602060048201526024808201527f4552433732313a207472616e7366657220746f20746865207a65726f206164646044820152637265737360e01b606482015260840161075c565b826001600160a01b031661200d82611dc5565b6001600160a01b0316146120715760405162461bcd60e51b815260206004820152602560248201527f4552433732313a207472616e736665722066726f6d20696e636f72726563742060448201526437bbb732b960d91b606482015260840161075c565b600081815260046020908152604080832080546001600160a01b03199081169091556001600160a01b0387811680865260038552838620805460001901905590871680865283862080546001019055868652600290945282852080549092168417909155905184937fddf252ad1be2c89b69c2b068fc378daa952ba7f163c4a11628f55a4df523b3ef91a4505050565b600081815260116020526040812054610d47600e82612765565b6000610d478383612771565b6000611cc984848461279b565b6000610628825490565b6006546001600160a01b031633146113015760405162461bcd60e51b815260206004820181905260248201527f4f776e61626c653a2063616c6c6572206973206e6f7420746865206f776e6572604482015260640161075c565b600680546001600160a01b038381166001600160a01b0319831681179093556040519116919082907f8be0079c531659141344cd1fd0a4f28419497f9722a3daafe3b4186f6b6457e090600090a35050565b6002600854141561223d5760405162461bcd60e51b815260206004820152601f60248201527f5265656e7472616e637947756172643a207265656e7472616e742063616c6c00604482015260640161075c565b6002600855565b611ae08282604051806020016040528060008152506127e7565b6000828152600260205260409020546001600160a01b03166122e85760405162461bcd60e51b815260206004820152602e60248201527f45524337323155524953746f726167653a2055524920736574206f66206e6f6e60448201527f6578697374656e7420746f6b656e000000000000000000000000000000000000606482015260840161075c565b600082815260076020908152604090912082516107fd92840190612bfa565b6107fd600e8284612865565b6001600160a01b0382166000908152600d602052604090206107fd908261287b565b600089116123855760405162461bcd60e51b815260206004820152601c60248201527f5072696365206d757374206265206174206c6561737420312077656900000000604482015260640161075c565b6001600160a01b0384166123db5760405162461bcd60e51b815260206004820181905260248201527f4552433732313a206d696e7420746f20746865207a65726f2061646472657373604482015260640161075c565b60008b511161242c5760405162461bcd60e51b815260206004820152601360248201527f546f6b656e2075726c2069732020656d70747900000000000000000000000000604482015260640161075c565b60006040518061018001604052808e81526020018b81526020018a8152602001878152602001848152602001428152602001866001600160a01b031681526020018d81526020018c815260200189815260200188815260200185815250905080600b6000848152602001908152602001600020600082015181600001556020820151816001015560408201518160020155606082015181600301556080820151816004015560a0820151816005015560c08201518160060160006101000a8154816001600160a01b0302191690836001600160a01b0316021790555060e0820151816007019080519060200190612524929190612bfa565b506101008201518051612541916008840191602090910190612bfa565b50610120820151805161255e916009840191602090910190612bfa565b50610140820151805161257b91600a840191602090910190612bfa565b50610160820151805161259891600b840191602090910190612bfa565b50506040516125a991508d9061328f565b60405180910390207f559ec41a5550336295d32c5d36cb700618ce142acec86ae0b0555fb1ae7d65998e8d8d8d8d8d8d8d8d8d8d426040516125f69c9b9a999897969594939291906132ab565b60405180910390a250505050505050505050505050565b816001600160a01b0316836001600160a01b0316141561266f5760405162461bcd60e51b815260206004820152601960248201527f4552433732313a20617070726f766520746f2063616c6c657200000000000000604482015260640161075c565b6001600160a01b03838116600081815260056020908152604080832094871680845294825291829020805460ff191686151590811790915591519182527f17307eab39ab6107e8899845ad3d59bd9653f200f220920489ca2b5937696c31910160405180910390a3505050565b6126e7848484611f21565b6126f384848484612887565b611b5c5760405162461bcd60e51b815260206004820152603260248201527f4552433732313a207472616e7366657220746f206e6f6e20455243373231526560448201527131b2b4bb32b91034b6b83632b6b2b73a32b960711b606482015260840161075c565b600061062882612134565b6000610d4783836129df565b600082600001828154811061278857612788613279565b9060005260206000200154905092915050565b6000828152600284016020526040812054801515806127bf57506127bf85856129df565b83906127de5760405162461bcd60e51b815260040161075c9190612d1e565b50949350505050565b6127f183836129eb565b6127fe6000848484612887565b6107fd5760405162461bcd60e51b815260206004820152603260248201527f4552433732313a207472616e7366657220746f206e6f6e20455243373231526560448201527131b2b4bb32b91034b6b83632b6b2b73a32b960711b606482015260840161075c565b6000611cc984846001600160a01b038516612b76565b6000610d478383612b93565b60006001600160a01b0384163b156129d457604051630a85bd0160e11b81526001600160a01b0385169063150b7a02906128cb90339089908890889060040161334b565b602060405180830381600087803b1580156128e557600080fd5b505af1925050508015612915575060408051601f3d908101601f191682019092526129129181019061337d565b60015b6129ba573d808015612943576040519150601f19603f3d011682016040523d82523d6000602084013e612948565b606091505b5080516129b25760405162461bcd60e51b815260206004820152603260248201527f4552433732313a207472616e7366657220746f206e6f6e20455243373231526560448201527131b2b4bb32b91034b6b83632b6b2b73a32b960711b606482015260840161075c565b805181602001fd5b6001600160e01b031916630a85bd0160e11b149050611cc9565b506001949350505050565b6000610d478383612be2565b6001600160a01b038216612a415760405162461bcd60e51b815260206004820181905260248201527f4552433732313a206d696e7420746f20746865207a65726f2061646472657373604482015260640161075c565b6000818152600260205260409020546001600160a01b031615612aa65760405162461bcd60e51b815260206004820152601c60248201527f4552433732313a20746f6b656e20616c7265616479206d696e74656400000000604482015260640161075c565b6000818152600260205260409020546001600160a01b031615612b0b5760405162461bcd60e51b815260206004820152601c60248201527f4552433732313a20746f6b656e20616c7265616479206d696e74656400000000604482015260640161075c565b6001600160a01b038216600081815260036020908152604080832080546001019055848352600290915280822080546001600160a01b0319168417905551839291907fddf252ad1be2c89b69c2b068fc378daa952ba7f163c4a11628f55a4df523b3ef908290a45050565b60008281526002840160205260408120829055611cc9848461287b565b6000818152600183016020526040812054612bda57508154600181810184556000848152602080822090930184905584548482528286019093526040902091909155610628565b506000610628565b60008181526001830160205260408120541515610d47565b828054612c0690613218565b90600052602060002090601f016020900481019282612c285760008555612c6e565b82601f10612c4157805160ff1916838001178555612c6e565b82800160010185558215612c6e579182015b82811115612c6e578251825591602001919060010190612c53565b50612c7a929150612c7e565b5090565b5b80821115612c7a5760008155600101612c7f565b6001600160e01b031981168114611d5e57600080fd5b600060208284031215612cbb57600080fd5b8135610d4781612c93565b60005b83811015612ce1578181015183820152602001612cc9565b83811115611b5c5750506000910152565b60008151808452612d0a816020860160208601612cc6565b601f01601f19169290920160200192915050565b602081526000610d476020830184612cf2565b600060208284031215612d4357600080fd5b5035919050565b80356001600160a01b0381168114612d6157600080fd5b919050565b60008060408385031215612d7957600080fd5b612d8283612d4a565b946020939093013593505050565b600080600060608486031215612da557600080fd5b612dae84612d4a565b9250612dbc60208501612d4a565b9150604084013590509250925092565b6000610180825184526020830151602085015260408301516040850152606083015160608501526080830151608085015260a083015160a085015260c0830151612e2160c08601826001600160a01b03169052565b5060e08301518160e0860152612e3982860182612cf2565b9150506101008084015185830382870152612e548382612cf2565b925050506101208084015185830382870152612e708382612cf2565b925050506101408084015185830382870152612e8c8382612cf2565b925050506101608084015185830382870152612ea88382612cf2565b9695505050505050565b602081526000610d476020830184612dcc565b600060208284031215612ed757600080fd5b610d4782612d4a565b6000602080830181845280855180835260408601915060408160051b870101925083870160005b82811015612f3557603f19888603018452612f23858351612dcc565b94509285019290850190600101612f07565b5092979650505050505050565b634e487b7160e01b600052604160045260246000fd5b600067ffffffffffffffff80841115612f7357612f73612f42565b604051601f8501601f19908116603f01168101908282118183101715612f9b57612f9b612f42565b81604052809350858152868686011115612fb457600080fd5b858560208301376000602087830101525050509392505050565b600082601f830112612fdf57600080fd5b610d4783833560208501612f58565b60008060008060008060008060008060006101608c8e03121561301057600080fd5b8b359a5067ffffffffffffffff8060208e0135111561302e57600080fd5b61303e8e60208f01358f01612fce565b9a508060408e0135111561305157600080fd5b6130618e60408f01358f01612fce565b995060608d0135985060808d013597508060a08e0135111561308257600080fd5b6130928e60a08f01358f01612fce565b96508060c08e013511156130a557600080fd5b6130b58e60c08f01358f01612fce565b955060e08d013594506130cb6101008e01612d4a565b9350806101208e013511156130df57600080fd5b506130f18d6101208e01358e01612fce565b91506101408c013590509295989b509295989b9093969950565b6000806040838503121561311e57600080fd5b50508035926020909101359150565b6000806040838503121561314057600080fd5b61314983612d4a565b91506020830135801515811461315e57600080fd5b809150509250929050565b6000806000806080858703121561317f57600080fd5b61318885612d4a565b935061319660208601612d4a565b925060408501359150606085013567ffffffffffffffff8111156131b957600080fd5b8501601f810187136131ca57600080fd5b6131d987823560208401612f58565b91505092959194509250565b600080604083850312156131f857600080fd5b61320183612d4a565b915061320f60208401612d4a565b90509250929050565b600181811c9082168061322c57607f821691505b6020821081141561324d57634e487b7160e01b600052602260045260246000fd5b50919050565b6000821982111561327457634e487b7160e01b600052601160045260246000fd5b500190565b634e487b7160e01b600052603260045260246000fd5b600082516132a1818460208701612cc6565b9190910192915050565b60006101808e83528060208401526132c58184018f612cf2565b90508c60408401528b606084015282810360808401526132e5818c612cf2565b905082810360a08401526132f9818b612cf2565b90508860c08401526001600160a01b03881660e08401528281036101008401526133238188612cf2565b6101208401969096525050610140810192909252610160909101529998505050505050505050565b60006001600160a01b03808716835280861660208401525083604083015260806060830152612ea86080830184612cf2565b60006020828403121561338f57600080fd5b8151610d4781612c9356fe4552433732313a206f776e657220717565727920666f72206e6f6e6578697374656e7420746f6b656ea164736f6c6343000809000a",
  "linkReferences": {},
  "deployedLinkReferences": {}
}