{
  "_format": "hh-sol-artifact-1",
  "contractName": "SytemapAssetRegistry",
  "sourceName": "contracts/SytemapAssetRegistry.sol",
  "abi": [
    {
      "inputs": [
        {
          "internalType": "string",
          "name": "baseURI",
          "type": "string"
        }
      ],
      "stateMutability": "nonpayable",
      "type": "constructor"
    },
    {
      "anonymous": false,
      "inputs": [
        {
          "indexed": true,
          "internalType": "address",
          "name": "owner",
          "type": "address"
        },
        {
          "indexed": true,
          "internalType": "address",
          "name": "approved",
          "type": "address"
        },
        {
          "indexed": true,
          "internalType": "uint256",
          "name": "tokenId",
          "type": "uint256"
        }
      ],
      "name": "Approval",
      "type": "event"
    },
    {
      "anonymous": false,
      "inputs": [
        {
          "indexed": true,
          "internalType": "address",
          "name": "owner",
          "type": "address"
        },
        {
          "indexed": true,
          "internalType": "address",
          "name": "operator",
          "type": "address"
        },
        {
          "indexed": false,
          "internalType": "bool",
          "name": "approved",
          "type": "bool"
        }
      ],
      "name": "ApprovalForAll",
      "type": "event"
    },
    {
      "anonymous": false,
      "inputs": [
        {
          "indexed": false,
          "internalType": "uint256",
          "name": "plotNo",
          "type": "uint256"
        },
        {
          "indexed": true,
          "internalType": "string",
          "name": "tokenURL",
          "type": "string"
        },
        {
          "indexed": false,
          "internalType": "string",
          "name": "estateName",
          "type": "string"
        },
        {
          "indexed": false,
          "internalType": "uint256",
          "name": "priceOfPlot",
          "type": "uint256"
        },
        {
          "indexed": false,
          "internalType": "uint256",
          "name": "sizeOfPlot",
          "type": "uint256"
        },
        {
          "indexed": false,
          "internalType": "string",
          "name": "plotUrl",
          "type": "string"
        },
        {
          "indexed": false,
          "internalType": "string",
          "name": "dateOfAllocation",
          "type": "string"
        },
        {
          "indexed": false,
          "internalType": "uint256",
          "name": "coordinateOfPlot",
          "type": "uint256"
        },
        {
          "indexed": false,
          "internalType": "address",
          "name": "buyerWalletId",
          "type": "address"
        },
        {
          "indexed": false,
          "internalType": "string",
          "name": "estateCompanyName",
          "type": "string"
        },
        {
          "indexed": false,
          "internalType": "uint256",
          "name": "propertyVerificationNo",
          "type": "uint256"
        },
        {
          "indexed": false,
          "internalType": "uint256",
          "name": "tokenId",
          "type": "uint256"
        },
        {
          "indexed": false,
          "internalType": "uint256",
          "name": "timestamp",
          "type": "uint256"
        }
      ],
      "name": "NewPropertyInfoAdded",
      "type": "event"
    },
    {
      "anonymous": false,
      "inputs": [
        {
          "indexed": true,
          "internalType": "address",
          "name": "previousOwner",
          "type": "address"
        },
        {
          "indexed": true,
          "internalType": "address",
          "name": "newOwner",
          "type": "address"
        }
      ],
      "name": "OwnershipTransferred",
      "type": "event"
    },
    {
      "anonymous": false,
      "inputs": [
        {
          "indexed": false,
          "internalType": "address",
          "name": "owner",
          "type": "address"
        },
        {
          "indexed": false,
          "internalType": "uint256",
          "name": "propertyVerificationNo",
          "type": "uint256"
        },
        {
          "indexed": false,
          "internalType": "uint256",
          "name": "newPrice",
          "type": "uint256"
        }
      ],
      "name": "PropertyInfoPriceChanged",
      "type": "event"
    },
    {
      "anonymous": false,
      "inputs": [
        {
          "indexed": true,
          "internalType": "uint256",
          "name": "tokenId",
          "type": "uint256"
        },
        {
          "indexed": true,
          "internalType": "uint256",
          "name": "propertyVerificationNo",
          "type": "uint256"
        },
        {
          "indexed": false,
          "internalType": "string",
          "name": "tokenURL",
          "type": "string"
        }
      ],
      "name": "TokenMinted",
      "type": "event"
    },
    {
      "anonymous": false,
      "inputs": [
        {
          "indexed": true,
          "internalType": "address",
          "name": "from",
          "type": "address"
        },
        {
          "indexed": true,
          "internalType": "address",
          "name": "to",
          "type": "address"
        },
        {
          "indexed": true,
          "internalType": "uint256",
          "name": "tokenId",
          "type": "uint256"
        }
      ],
      "name": "Transfer",
      "type": "event"
    },
    {
      "inputs": [],
      "name": "_sytemapName",
      "outputs": [
        {
          "internalType": "string",
          "name": "",
          "type": "string"
        }
      ],
      "stateMutability": "view",
      "type": "function"
    },
    {
      "inputs": [],
      "name": "_sytemapSymbol",
      "outputs": [
        {
          "internalType": "string",
          "name": "",
          "type": "string"
        }
      ],
      "stateMutability": "view",
      "type": "function"
    },
    {
      "inputs": [
        {
          "internalType": "address",
          "name": "to",
          "type": "address"
        },
        {
          "internalType": "uint256",
          "name": "tokenId",
          "type": "uint256"
        }
      ],
      "name": "approve",
      "outputs": [],
      "stateMutability": "nonpayable",
      "type": "function"
    },
    {
      "inputs": [
        {
          "internalType": "address",
          "name": "owner",
          "type": "address"
        }
      ],
      "name": "balanceOf",
      "outputs": [
        {
          "internalType": "uint256",
          "name": "",
          "type": "uint256"
        }
      ],
      "stateMutability": "view",
      "type": "function"
    },
    {
      "inputs": [
        {
          "internalType": "uint256",
          "name": "_propertyVerificationNo",
          "type": "uint256"
        },
        {
          "internalType": "uint256",
          "name": "_priceOfPlot",
          "type": "uint256"
        }
      ],
      "name": "changePropertyPriceByOwner",
      "outputs": [
        {
          "internalType": "bool",
          "name": "",
          "type": "bool"
        }
      ],
      "stateMutability": "nonpayable",
      "type": "function"
    },
    {
      "inputs": [],
      "name": "getAllMintedPropertyDetails",
      "outputs": [
        {
          "components": [
            {
              "internalType": "uint256",
              "name": "plotNo",
              "type": "uint256"
            },
            {
              "internalType": "uint256",
              "name": "priceOfPlot",
              "type": "uint256"
            },
            {
              "internalType": "uint256",
              "name": "sizeOfPlot",
              "type": "uint256"
            },
            {
              "internalType": "uint256",
              "name": "coordinateOfPlot",
              "type": "uint256"
            },
            {
              "internalType": "uint256",
              "name": "propertyVerificationNo",
              "type": "uint256"
            },
            {
              "internalType": "uint256",
              "name": "timestamp",
              "type": "uint256"
            },
            {
              "internalType": "address",
              "name": "buyerWalletId",
              "type": "address"
            },
            {
              "internalType": "string",
              "name": "tokenURL",
              "type": "string"
            },
            {
              "internalType": "string",
              "name": "estateName",
              "type": "string"
            },
            {
              "internalType": "string",
              "name": "plotUrl",
              "type": "string"
            },
            {
              "internalType": "string",
              "name": "dateOfAllocation",
              "type": "string"
            },
            {
              "internalType": "string",
              "name": "estateCompanyName",
              "type": "string"
            }
          ],
          "internalType": "struct ISytemapAssetRegistry.PropertyInffo[]",
          "name": "",
          "type": "tuple[]"
        }
      ],
      "stateMutability": "view",
      "type": "function"
    },
    {
      "inputs": [
        {
          "internalType": "address",
          "name": "owner",
          "type": "address"
        }
      ],
      "name": "getAllPropertyDetailsByOwner",
      "outputs": [
        {
          "components": [
            {
              "internalType": "uint256",
              "name": "plotNo",
              "type": "uint256"
            },
            {
              "internalType": "uint256",
              "name": "priceOfPlot",
              "type": "uint256"
            },
            {
              "internalType": "uint256",
              "name": "sizeOfPlot",
              "type": "uint256"
            },
            {
              "internalType": "uint256",
              "name": "coordinateOfPlot",
              "type": "uint256"
            },
            {
              "internalType": "uint256",
              "name": "propertyVerificationNo",
              "type": "uint256"
            },
            {
              "internalType": "uint256",
              "name": "timestamp",
              "type": "uint256"
            },
            {
              "internalType": "address",
              "name": "buyerWalletId",
              "type": "address"
            },
            {
              "internalType": "string",
              "name": "tokenURL",
              "type": "string"
            },
            {
              "internalType": "string",
              "name": "estateName",
              "type": "string"
            },
            {
              "internalType": "string",
              "name": "plotUrl",
              "type": "string"
            },
            {
              "internalType": "string",
              "name": "dateOfAllocation",
              "type": "string"
            },
            {
              "internalType": "string",
              "name": "estateCompanyName",
              "type": "string"
            }
          ],
          "internalType": "struct ISytemapAssetRegistry.PropertyInffo[]",
          "name": "",
          "type": "tuple[]"
        }
      ],
      "stateMutability": "view",
      "type": "function"
    },
    {
      "inputs": [
        {
          "internalType": "uint256",
          "name": "tokenId",
          "type": "uint256"
        }
      ],
      "name": "getApproved",
      "outputs": [
        {
          "internalType": "address",
          "name": "",
          "type": "address"
        }
      ],
      "stateMutability": "view",
      "type": "function"
    },
    {
      "inputs": [],
      "name": "getNumberOfPropertyTokensMinted",
      "outputs": [
        {
          "internalType": "uint256",
          "name": "",
          "type": "uint256"
        }
      ],
      "stateMutability": "view",
      "type": "function"
    },
    {
      "inputs": [
        {
          "internalType": "uint256",
          "name": "_propertyVerificationNo",
          "type": "uint256"
        }
      ],
      "name": "getPropertyInfoDetailsByPVN",
      "outputs": [
        {
          "components": [
            {
              "internalType": "uint256",
              "name": "plotNo",
              "type": "uint256"
            },
            {
              "internalType": "uint256",
              "name": "priceOfPlot",
              "type": "uint256"
            },
            {
              "internalType": "uint256",
              "name": "sizeOfPlot",
              "type": "uint256"
            },
            {
              "internalType": "uint256",
              "name": "coordinateOfPlot",
              "type": "uint256"
            },
            {
              "internalType": "uint256",
              "name": "propertyVerificationNo",
              "type": "uint256"
            },
            {
              "internalType": "uint256",
              "name": "timestamp",
              "type": "uint256"
            },
            {
              "internalType": "address",
              "name": "buyerWalletId",
              "type": "address"
            },
            {
              "internalType": "string",
              "name": "tokenURL",
              "type": "string"
            },
            {
              "internalType": "string",
              "name": "estateName",
              "type": "string"
            },
            {
              "internalType": "string",
              "name": "plotUrl",
              "type": "string"
            },
            {
              "internalType": "string",
              "name": "dateOfAllocation",
              "type": "string"
            },
            {
              "internalType": "string",
              "name": "estateCompanyName",
              "type": "string"
            }
          ],
          "internalType": "struct ISytemapAssetRegistry.PropertyInffo",
          "name": "",
          "type": "tuple"
        }
      ],
      "stateMutability": "view",
      "type": "function"
    },
    {
      "inputs": [
        {
          "internalType": "uint256",
          "name": "_propertyVerificationNo",
          "type": "uint256"
        }
      ],
      "name": "getPropertyVerificationNoOwner",
      "outputs": [
        {
          "internalType": "address",
          "name": "",
          "type": "address"
        }
      ],
      "stateMutability": "view",
      "type": "function"
    },
    {
      "inputs": [
        {
          "internalType": "address",
          "name": "_owner",
          "type": "address"
        }
      ],
      "name": "getTotalNumberOfPropertyOwnedByAnAddress",
      "outputs": [
        {
          "internalType": "uint256",
          "name": "",
          "type": "uint256"
        }
      ],
      "stateMutability": "view",
      "type": "function"
    },
    {
      "inputs": [
        {
          "internalType": "address",
          "name": "owner",
          "type": "address"
        },
        {
          "internalType": "address",
          "name": "operator",
          "type": "address"
        }
      ],
      "name": "isApprovedForAll",
      "outputs": [
        {
          "internalType": "bool",
          "name": "",
          "type": "bool"
        }
      ],
      "stateMutability": "view",
      "type": "function"
    },
    {
      "inputs": [],
      "name": "name",
      "outputs": [
        {
          "internalType": "string",
          "name": "",
          "type": "string"
        }
      ],
      "stateMutability": "view",
      "type": "function"
    },
    {
      "inputs": [],
      "name": "owner",
      "outputs": [
        {
          "internalType": "address",
          "name": "",
          "type": "address"
        }
      ],
      "stateMutability": "view",
      "type": "function"
    },
    {
      "inputs": [
        {
          "internalType": "uint256",
          "name": "_tokenId",
          "type": "uint256"
        }
      ],
      "name": "ownerOf",
      "outputs": [
        {
          "internalType": "address",
          "name": "",
          "type": "address"
        }
      ],
      "stateMutability": "view",
      "type": "function"
    },
    {
      "inputs": [],
      "name": "renounceOwnership",
      "outputs": [],
      "stateMutability": "nonpayable",
      "type": "function"
    },
    {
      "inputs": [
        {
          "internalType": "uint256",
          "name": "_plotNo",
          "type": "uint256"
        },
        {
          "internalType": "string",
          "name": "_tokenURL",
          "type": "string"
        },
        {
          "internalType": "string",
          "name": "_estateName",
          "type": "string"
        },
        {
          "internalType": "uint256",
          "name": "_priceOfPlot",
          "type": "uint256"
        },
        {
          "internalType": "uint256",
          "name": "_sizeOfPlot",
          "type": "uint256"
        },
        {
          "internalType": "string",
          "name": "_plotUrl",
          "type": "string"
        },
        {
          "internalType": "string",
          "name": "_dateOfAllocation",
          "type": "string"
        },
        {
          "internalType": "uint256",
          "name": "_coordinateOfPlot",
          "type": "uint256"
        },
        {
          "internalType": "address",
          "name": "_buyerWalletId",
          "type": "address"
        },
        {
          "internalType": "string",
          "name": "_estateCompanyName",
          "type": "string"
        },
        {
          "internalType": "uint256",
          "name": "_propertyVerificationNo",
          "type": "uint256"
        }
      ],
      "name": "safeMintNewPropertyInfo",
      "outputs": [],
      "stateMutability": "payable",
      "type": "function"
    },
    {
      "inputs": [
        {
          "internalType": "address",
          "name": "from",
          "type": "address"
        },
        {
          "internalType": "address",
          "name": "to",
          "type": "address"
        },
        {
          "internalType": "uint256",
          "name": "tokenId",
          "type": "uint256"
        }
      ],
      "name": "safeTransferFrom",
      "outputs": [],
      "stateMutability": "nonpayable",
      "type": "function"
    },
    {
      "inputs": [
        {
          "internalType": "address",
          "name": "from",
          "type": "address"
        },
        {
          "internalType": "address",
          "name": "to",
          "type": "address"
        },
        {
          "internalType": "uint256",
          "name": "tokenId",
          "type": "uint256"
        },
        {
          "internalType": "bytes",
          "name": "data",
          "type": "bytes"
        }
      ],
      "name": "safeTransferFrom",
      "outputs": [],
      "stateMutability": "nonpayable",
      "type": "function"
    },
    {
      "inputs": [
        {
          "internalType": "address",
          "name": "operator",
          "type": "address"
        },
        {
          "internalType": "bool",
          "name": "approved",
          "type": "bool"
        }
      ],
      "name": "setApprovalForAll",
      "outputs": [],
      "stateMutability": "nonpayable",
      "type": "function"
    },
    {
      "inputs": [
        {
          "internalType": "string",
          "name": "_baseTokenURI",
          "type": "string"
        }
      ],
      "name": "setBaseURI",
      "outputs": [],
      "stateMutability": "nonpayable",
      "type": "function"
    },
    {
      "inputs": [
        {
          "internalType": "bytes4",
          "name": "interfaceId",
          "type": "bytes4"
        }
      ],
      "name": "supportsInterface",
      "outputs": [
        {
          "internalType": "bool",
          "name": "",
          "type": "bool"
        }
      ],
      "stateMutability": "view",
      "type": "function"
    },
    {
      "inputs": [],
      "name": "symbol",
      "outputs": [
        {
          "internalType": "string",
          "name": "",
          "type": "string"
        }
      ],
      "stateMutability": "view",
      "type": "function"
    },
    {
      "inputs": [
        {
          "internalType": "uint256",
          "name": "index",
          "type": "uint256"
        }
      ],
      "name": "tokenByIndex",
      "outputs": [
        {
          "internalType": "uint256",
          "name": "",
          "type": "uint256"
        }
      ],
      "stateMutability": "view",
      "type": "function"
    },
    {
      "inputs": [
        {
          "internalType": "address",
          "name": "owner",
          "type": "address"
        },
        {
          "internalType": "uint256",
          "name": "index",
          "type": "uint256"
        }
      ],
      "name": "tokenOfOwnerByIndex",
      "outputs": [
        {
          "internalType": "uint256",
          "name": "",
          "type": "uint256"
        }
      ],
      "stateMutability": "view",
      "type": "function"
    },
    {
      "inputs": [
        {
          "internalType": "uint256",
          "name": "_propertyVerificationNo",
          "type": "uint256"
        }
      ],
      "name": "tokenURI",
      "outputs": [
        {
          "internalType": "string",
          "name": "",
          "type": "string"
        }
      ],
      "stateMutability": "view",
      "type": "function"
    },
    {
      "inputs": [],
      "name": "totalSupply",
      "outputs": [
        {
          "internalType": "uint256",
          "name": "",
          "type": "uint256"
        }
      ],
      "stateMutability": "view",
      "type": "function"
    },
    {
      "inputs": [
        {
          "internalType": "address",
          "name": "from",
          "type": "address"
        },
        {
          "internalType": "address",
          "name": "to",
          "type": "address"
        },
        {
          "internalType": "uint256",
          "name": "tokenId",
          "type": "uint256"
        }
      ],
      "name": "transferFrom",
      "outputs": [],
      "stateMutability": "nonpayable",
      "type": "function"
    },
    {
      "inputs": [
        {
          "internalType": "address",
          "name": "newOwner",
          "type": "address"
        }
      ],
      "name": "transferOwnership",
      "outputs": [],
      "stateMutability": "nonpayable",
      "type": "function"
    }
  ],
  "bytecode": "0x60806040523480156200001157600080fd5b5060405162003a6738038062003a67833981016040819052620000349162000264565b604080518082018252600c81526b29bcba32b6b0b81021b7b4b760a11b6020808301918252835180850190945260048452635354594560e01b9084015281519192916200008491600091620001a8565b5080516200009a906001906020840190620001a8565b505050620000b7620000b1620000ce60201b60201c565b620000d2565b6001600855620000c78162000124565b506200037d565b3390565b600680546001600160a01b038381166001600160a01b0319831681179093556040519116919082907f8be0079c531659141344cd1fd0a4f28419497f9722a3daafe3b4186f6b6457e090600090a35050565b6200012e62000147565b805162000143906009906020840190620001a8565b5050565b6006546001600160a01b03163314620001a65760405162461bcd60e51b815260206004820181905260248201527f4f776e61626c653a2063616c6c6572206973206e6f7420746865206f776e6572604482015260640160405180910390fd5b565b828054620001b69062000340565b90600052602060002090601f016020900481019282620001da576000855562000225565b82601f10620001f557805160ff191683800117855562000225565b8280016001018555821562000225579182015b828111156200022557825182559160200191906001019062000208565b506200023392915062000237565b5090565b5b8082111562000233576000815560010162000238565b634e487b7160e01b600052604160045260246000fd5b600060208083850312156200027857600080fd5b82516001600160401b03808211156200029057600080fd5b818501915085601f830112620002a557600080fd5b815181811115620002ba57620002ba6200024e565b604051601f8201601f19908116603f01168101908382118183101715620002e557620002e56200024e565b816040528281528886848701011115620002fe57600080fd5b600093505b8284101562000322578484018601518185018701529285019262000303565b82841115620003345760008684830101525b98975050505050505050565b600181811c908216806200035557607f821691505b602082108114156200037757634e487b7160e01b600052602260045260246000fd5b50919050565b6136da806200038d6000396000f3fe6080604052600436106101cd5760003560e01c806370a08231116100f7578063a22cb46511610095578063c87b56dd11610064578063c87b56dd1461055e578063e4a9614a1461057e578063e985e9c51461059e578063f2fde38b146105e757600080fd5b8063a22cb465146104e9578063b88d4fde14610509578063c571929814610529578063c62e55811461053e57600080fd5b80638da5cb5b116100d15780638da5cb5b1461048157806390cbe7591461049f57806393d3e755146104bf57806395d89b41146104d457600080fd5b806370a0823114610439578063715018a61461045957806380b0fd0a1461046e57600080fd5b806324d75af31161016f57806355f804b31161013e57806355f804b31461039c5780635939f777146103bc5780636352211e146103e957806365b46d531461040957600080fd5b806324d75af3146102f35780632f745c591461033c57806342842e0e1461035c5780634f6ccce71461037c57600080fd5b8063095ea7b3116101ab578063095ea7b31461026157806318160ddd1461028357806323b872dd146102a6578063245f0ca4146102c657600080fd5b806301ffc9a7146101d257806306fdde0314610207578063081812fc14610229575b600080fd5b3480156101de57600080fd5b506101f26101ed366004612f4f565b610607565b60405190151581526020015b60405180910390f35b34801561021357600080fd5b5061021c610659565b6040516101fe9190612fc4565b34801561023557600080fd5b50610249610244366004612fd7565b6106eb565b6040516001600160a01b0390911681526020016101fe565b34801561026d57600080fd5b5061028161027c36600461300c565b610712565b005b34801561028f57600080fd5b5061029861082d565b6040519081526020016101fe565b3480156102b257600080fd5b506102816102c1366004613036565b61083e565b3480156102d257600080fd5b506102e66102e1366004612fd7565b6108b5565b6040516101fe9190613158565b3480156102ff57600080fd5b5061021c6040518060400160405280600c81526020017f537974656d617020436f696e000000000000000000000000000000000000000081525081565b34801561034857600080fd5b5061029861035736600461300c565b610cf7565b34801561036857600080fd5b50610281610377366004613036565b610d79565b34801561038857600080fd5b50610298610397366004612fd7565b610d94565b3480156103a857600080fd5b506102816103b7366004613217565b610df7565b3480156103c857600080fd5b506103dc6103d736600461324c565b610e16565b6040516101fe9190613267565b3480156103f557600080fd5b50610249610404366004612fd7565b611272565b34801561041557600080fd5b5061021c604051806040016040528060048152602001635354594560e01b81525081565b34801561044557600080fd5b5061029861045436600461324c565b61129a565b34801561046557600080fd5b50610281611339565b61028161047c3660046132c9565b61134d565b34801561048d57600080fd5b506006546001600160a01b0316610249565b3480156104ab57600080fd5b506101f26104ba3660046133e6565b611520565b3480156104cb57600080fd5b506103dc6116b6565b3480156104e057600080fd5b5061021c611b10565b3480156104f557600080fd5b50610281610504366004613408565b611b1f565b34801561051557600080fd5b50610281610524366004613444565b611b2a565b34801561053557600080fd5b50610298611ba8565b34801561054a57600080fd5b5061029861055936600461324c565b611bb3565b34801561056a57600080fd5b5061021c610579366004612fd7565b611bca565b34801561058a57600080fd5b50610249610599366004612fd7565b611c60565b3480156105aa57600080fd5b506101f26105b93660046134c0565b6001600160a01b03918216600090815260056020908152604080832093909416825291909152205460ff1690565b3480156105f357600080fd5b5061028161060236600461324c565b611c82565b60006001600160e01b031982166380ac58cd60e01b148061063857506001600160e01b03198216635b5e139f60e01b145b8061065357506301ffc9a760e01b6001600160e01b03198316145b92915050565b606060008054610668906134f3565b80601f0160208091040260200160405190810160405280929190818152602001828054610694906134f3565b80156106e15780601f106106b6576101008083540402835291602001916106e1565b820191906000526020600020905b8154815290600101906020018083116106c457829003601f168201915b5050505050905090565b60006106f682611d12565b506000908152600460205260409020546001600160a01b031690565b600061071d82611d76565b9050806001600160a01b0316836001600160a01b031614156107905760405162461bcd60e51b815260206004820152602160248201527f4552433732313a20617070726f76616c20746f2063757272656e74206f776e656044820152603960f91b60648201526084015b60405180910390fd5b336001600160a01b03821614806107ac57506107ac81336105b9565b61081e5760405162461bcd60e51b815260206004820152603d60248201527f4552433732313a20617070726f76652063616c6c6572206973206e6f7420746f60448201527f6b656e206f776e6572206f7220617070726f76656420666f7220616c6c0000006064820152608401610787565b6108288383611ddb565b505050565b6000610839600e611e49565b905090565b6108483382611e54565b6108aa5760405162461bcd60e51b815260206004820152602d60248201527f4552433732313a2063616c6c6572206973206e6f7420746f6b656e206f776e6560448201526c1c881bdc88185c1c1c9bdd9959609a1b6064820152608401610787565b610828838383611ed2565b61092260405180610180016040528060008152602001600081526020016000815260200160008152602001600081526020016000815260200160006001600160a01b0316815260200160608152602001606081526020016060815260200160608152602001606081525090565b61092b826120b2565b61099d5760405162461bcd60e51b815260206004820152603360248201527f4552433732313a2070766e20746f6b656e20646f6573206e6f7420657869737460448201527f206f72206e6f74206265656e206d696e746564000000000000000000000000006064820152608401610787565b600082815260116020908152604080832054808452600b835292819020815161018081018352815481526001820154938101939093526002810154918301919091526003810154606083015260048101546080830152600581015460a083015260068101546001600160a01b031660c083015260078101805460e084019190610a25906134f3565b80601f0160208091040260200160405190810160405280929190818152602001828054610a51906134f3565b8015610a9e5780601f10610a7357610100808354040283529160200191610a9e565b820191906000526020600020905b815481529060010190602001808311610a8157829003601f168201915b50505050508152602001600882018054610ab7906134f3565b80601f0160208091040260200160405190810160405280929190818152602001828054610ae3906134f3565b8015610b305780601f10610b0557610100808354040283529160200191610b30565b820191906000526020600020905b815481529060010190602001808311610b1357829003601f168201915b50505050508152602001600982018054610b49906134f3565b80601f0160208091040260200160405190810160405280929190818152602001828054610b75906134f3565b8015610bc25780601f10610b9757610100808354040283529160200191610bc2565b820191906000526020600020905b815481529060010190602001808311610ba557829003601f168201915b50505050508152602001600a82018054610bdb906134f3565b80601f0160208091040260200160405190810160405280929190818152602001828054610c07906134f3565b8015610c545780601f10610c2957610100808354040283529160200191610c54565b820191906000526020600020905b815481529060010190602001808311610c3757829003601f168201915b50505050508152602001600b82018054610c6d906134f3565b80601f0160208091040260200160405190810160405280929190818152602001828054610c99906134f3565b8015610ce65780601f10610cbb57610100808354040283529160200191610ce6565b820191906000526020600020905b815481529060010190602001808311610cc957829003601f168201915b505050505081525050915050919050565b6000610d028361129a565b8210610d505760405162461bcd60e51b815260206004820152601360248201527f496e646578206f7574206f6620626f756e6473000000000000000000000000006044820152606401610787565b6001600160a01b0383166000908152600d60205260409020610d7290836120cc565b9392505050565b61082883838360405180602001604052806000815250611b2a565b6000610d9e61082d565b8210610dec5760405162461bcd60e51b815260206004820152601f60248201527f455243373231456e756d657261626c653a20696e76616c696420696e646578006044820152606401610787565b61065382600161352e565b610dff6120d8565b8051610e12906009906020840190612ea0565b5050565b60606000610e238361129a565b905060008167ffffffffffffffff811115610e4057610e4061316b565b604051908082528060200260200182016040528015610ede57816020015b610ecb60405180610180016040528060008152602001600081526020016000815260200160008152602001600081526020016000815260200160006001600160a01b0316815260200160608152602001606081526020016060815260200160608152602001606081525090565b815260200190600190039081610e5e5790505b50905060005b8281101561126a576000610ef88683610cf7565b6000818152600b6020908152604091829020825161018081018452815481526001820154928101929092526002810154928201929092526003820154606082015260048201546080820152600582015460a082015260068201546001600160a01b031660c0820152600782018054939450909260e084019190610f7a906134f3565b80601f0160208091040260200160405190810160405280929190818152602001828054610fa6906134f3565b8015610ff35780601f10610fc857610100808354040283529160200191610ff3565b820191906000526020600020905b815481529060010190602001808311610fd657829003601f168201915b5050505050815260200160088201805461100c906134f3565b80601f0160208091040260200160405190810160405280929190818152602001828054611038906134f3565b80156110855780601f1061105a57610100808354040283529160200191611085565b820191906000526020600020905b81548152906001019060200180831161106857829003601f168201915b5050505050815260200160098201805461109e906134f3565b80601f01602080910402602001604051908101604052809291908181526020018280546110ca906134f3565b80156111175780601f106110ec57610100808354040283529160200191611117565b820191906000526020600020905b8154815290600101906020018083116110fa57829003601f168201915b50505050508152602001600a82018054611130906134f3565b80601f016020809104026020016040519081016040528092919081815260200182805461115c906134f3565b80156111a95780601f1061117e576101008083540402835291602001916111a9565b820191906000526020600020905b81548152906001019060200180831161118c57829003601f168201915b50505050508152602001600b820180546111c2906134f3565b80601f01602080910402602001604051908101604052809291908181526020018280546111ee906134f3565b801561123b5780601f106112105761010080835404028352916020019161123b565b820191906000526020600020905b81548152906001019060200180831161121e57829003601f168201915b50505050508152505083838151811061125657611256613554565b602090810291909101015250600101610ee4565b509392505050565b6000610653826040518060600160405280602981526020016136a560299139600e9190612132565b60006001600160a01b0382166113185760405162461bcd60e51b815260206004820152602a60248201527f4552433732313a2062616c616e636520717565727920666f7220746865207a6560448201527f726f2061646472657373000000000000000000000000000000000000000000006064820152608401610787565b6001600160a01b0382166000908152600d602052604090206106539061213f565b6113416120d8565b61134b6000612149565b565b6113556120d8565b61135d61219b565b611366816120b2565b156113b35760405162461bcd60e51b815260206004820181905260248201527f4552433732313a2070766e20746f6b656e20616c7265616479206d696e7465646044820152606401610787565b6001600160a01b0383166114095760405162461bcd60e51b815260206004820152601760248201527f4552433732313a20696e76616c696420616464726573730000000000000000006044820152606401610787565b6001600160a01b0383163014156114625760405162461bcd60e51b815260206004820152601760248201527f4552433732313a20696e76616c696420616464726573730000000000000000006044820152606401610787565b611470600a80546001019055565b600061147b600a5490565b905061148784836121f5565b611491828c61220f565b61149b84826122b8565b6114a584826122c4565b6114bb8183600090815260116020526040902055565b6114cf8c8c8c8c8c8c8c8c8c8c8c8c6122e6565b81817f30b042f6d29a39b7c10c2dfbd81016db37ea3d11e72ec5764fb0d0f7a1012a3a8d6040516115009190612fc4565b60405180910390a3506115136001600855565b5050505050505050505050565b600061152a6120d8565b600082116115855760405162461bcd60e51b815260206004820152602260248201527f506c6f74205072696365206d7573742062652067726561746572207468616e20604482015261181760f11b6064820152608401610787565b336115d25760405162461bcd60e51b815260206004820152601760248201527f4552433732313a20696e76616c696420616464726573730000000000000000006044820152606401610787565b6115db836120b2565b61164d5760405162461bcd60e51b815260206004820152603360248201527f4552433732313a2070766e20746f6b656e20646f6573206e6f7420657869737460448201527f206f72206e6f74206265656e206d696e746564000000000000000000000000006064820152608401610787565b600083815260116020908152604080832054808452600b8352928190206001018590558051338152918201869052818101859052517f598b48a1aad5d72fcedbc7ed6aac08ad920501eedca72d3dace23490f11f78129181900360600190a15060019392505050565b606060006116c3600a5490565b905060008167ffffffffffffffff8111156116e0576116e061316b565b60405190808252806020026020018201604052801561177e57816020015b61176b60405180610180016040528060008152602001600081526020016000815260200160008152602001600081526020016000815260200160006001600160a01b0316815260200160608152602001606081526020016060815260200160608152602001606081525090565b8152602001906001900390816116fe5790505b50905060005b82811015611b0957600061179782610d94565b6000818152600b6020908152604091829020825161018081018452815481526001820154928101929092526002810154928201929092526003820154606082015260048201546080820152600582015460a082015260068201546001600160a01b031660c0820152600782018054939450909260e084019190611819906134f3565b80601f0160208091040260200160405190810160405280929190818152602001828054611845906134f3565b80156118925780601f1061186757610100808354040283529160200191611892565b820191906000526020600020905b81548152906001019060200180831161187557829003601f168201915b505050505081526020016008820180546118ab906134f3565b80601f01602080910402602001604051908101604052809291908181526020018280546118d7906134f3565b80156119245780601f106118f957610100808354040283529160200191611924565b820191906000526020600020905b81548152906001019060200180831161190757829003601f168201915b5050505050815260200160098201805461193d906134f3565b80601f0160208091040260200160405190810160405280929190818152602001828054611969906134f3565b80156119b65780601f1061198b576101008083540402835291602001916119b6565b820191906000526020600020905b81548152906001019060200180831161199957829003601f168201915b50505050508152602001600a820180546119cf906134f3565b80601f01602080910402602001604051908101604052809291908181526020018280546119fb906134f3565b8015611a485780601f10611a1d57610100808354040283529160200191611a48565b820191906000526020600020905b815481529060010190602001808311611a2b57829003601f168201915b50505050508152602001600b82018054611a61906134f3565b80601f0160208091040260200160405190810160405280929190818152602001828054611a8d906134f3565b8015611ada5780601f10611aaf57610100808354040283529160200191611ada565b820191906000526020600020905b815481529060010190602001808311611abd57829003601f168201915b505050505081525050838381518110611af557611af5613554565b602090810291909101015250600101611784565b5092915050565b606060018054610668906134f3565b610e123383836125be565b611b343383611e54565b611b965760405162461bcd60e51b815260206004820152602d60248201527f4552433732313a2063616c6c6572206973206e6f7420746f6b656e206f776e6560448201526c1c881bdc88185c1c1c9bdd9959609a1b6064820152608401610787565b611ba28484848461268d565b50505050565b60008061065361082d565b600033611bbf57600080fd5b6000610d728361129a565b6000818152600260205260409020546060906001600160a01b0316611c575760405162461bcd60e51b815260206004820152603160248201527f45524337323155524953746f726167653a2055524920717565727920666f722060448201527f6e6f6e6578697374656e7420746f6b656e0000000000000000000000000000006064820152608401610787565b6106538261270b565b6000818152601160205260408120546000611c7a82611272565b949350505050565b611c8a6120d8565b6001600160a01b038116611d065760405162461bcd60e51b815260206004820152602660248201527f4f776e61626c653a206e6577206f776e657220697320746865207a65726f206160448201527f64647265737300000000000000000000000000000000000000000000000000006064820152608401610787565b611d0f81612149565b50565b6000818152600260205260409020546001600160a01b0316611d0f5760405162461bcd60e51b815260206004820152601860248201527f4552433732313a20696e76616c696420746f6b656e20494400000000000000006044820152606401610787565b6000818152600260205260408120546001600160a01b0316806106535760405162461bcd60e51b815260206004820152601860248201527f4552433732313a20696e76616c696420746f6b656e20494400000000000000006044820152606401610787565b600081815260046020526040902080546001600160a01b0319166001600160a01b0384169081179091558190611e1082611d76565b6001600160a01b03167f8c5be1e5ebec7d5bd14f71427d1e84f3dd0314c0f7b2291e5b200ac8c7c3b92560405160405180910390a45050565b600061065382612807565b600080611e6083611d76565b9050806001600160a01b0316846001600160a01b03161480611ea757506001600160a01b0380821660009081526005602090815260408083209388168352929052205460ff165b80611c7a5750836001600160a01b0316611ec0846106eb565b6001600160a01b031614949350505050565b826001600160a01b0316611ee582611d76565b6001600160a01b031614611f495760405162461bcd60e51b815260206004820152602560248201527f4552433732313a207472616e736665722066726f6d20696e636f72726563742060448201526437bbb732b960d91b6064820152608401610787565b6001600160a01b038216611fab5760405162461bcd60e51b8152602060048201526024808201527f4552433732313a207472616e7366657220746f20746865207a65726f206164646044820152637265737360e01b6064820152608401610787565b826001600160a01b0316611fbe82611d76565b6001600160a01b0316146120225760405162461bcd60e51b815260206004820152602560248201527f4552433732313a207472616e736665722066726f6d20696e636f72726563742060448201526437bbb732b960d91b6064820152608401610787565b600081815260046020908152604080832080546001600160a01b03199081169091556001600160a01b0387811680865260038552838620805460001901905590871680865283862080546001019055868652600290945282852080549092168417909155905184937fddf252ad1be2c89b69c2b068fc378daa952ba7f163c4a11628f55a4df523b3ef91a4505050565b600081815260116020526040812054610d72600e82612812565b6000610d72838361281e565b6006546001600160a01b0316331461134b5760405162461bcd60e51b815260206004820181905260248201527f4f776e61626c653a2063616c6c6572206973206e6f7420746865206f776e65726044820152606401610787565b6000611c7a848484612848565b6000610653825490565b600680546001600160a01b038381166001600160a01b0319831681179093556040519116919082907f8be0079c531659141344cd1fd0a4f28419497f9722a3daafe3b4186f6b6457e090600090a35050565b600260085414156121ee5760405162461bcd60e51b815260206004820152601f60248201527f5265656e7472616e637947756172643a207265656e7472616e742063616c6c006044820152606401610787565b6002600855565b610e12828260405180602001604052806000815250612894565b6000828152600260205260409020546001600160a01b03166122995760405162461bcd60e51b815260206004820152602e60248201527f45524337323155524953746f726167653a2055524920736574206f66206e6f6e60448201527f6578697374656e7420746f6b656e0000000000000000000000000000000000006064820152608401610787565b6000828152600760209081526040909120825161082892840190612ea0565b610828600e8284612912565b6001600160a01b0382166000908152600d602052604090206108289082612928565b600089116123365760405162461bcd60e51b815260206004820152601c60248201527f5072696365206d757374206265206174206c65617374203120776569000000006044820152606401610787565b6001600160a01b03841661238c5760405162461bcd60e51b815260206004820181905260248201527f4552433732313a206d696e7420746f20746865207a65726f20616464726573736044820152606401610787565b60008b51116123dd5760405162461bcd60e51b815260206004820152601360248201527f546f6b656e2075726c2069732020656d707479000000000000000000000000006044820152606401610787565b60006040518061018001604052808e81526020018b81526020018a8152602001878152602001848152602001428152602001866001600160a01b031681526020018d81526020018c815260200189815260200188815260200185815250905080600b6000848152602001908152602001600020600082015181600001556020820151816001015560408201518160020155606082015181600301556080820151816004015560a0820151816005015560c08201518160060160006101000a8154816001600160a01b0302191690836001600160a01b0316021790555060e08201518160070190805190602001906124d5929190612ea0565b5061010082015180516124f2916008840191602090910190612ea0565b50610120820151805161250f916009840191602090910190612ea0565b50610140820151805161252c91600a840191602090910190612ea0565b50610160820151805161254991600b840191602090910190612ea0565b505060405161255a91508d9061356a565b60405180910390207f559ec41a5550336295d32c5d36cb700618ce142acec86ae0b0555fb1ae7d65998e8d8d8d8d8d8d8d8d8d8d426040516125a79c9b9a99989796959493929190613586565b60405180910390a250505050505050505050505050565b816001600160a01b0316836001600160a01b031614156126205760405162461bcd60e51b815260206004820152601960248201527f4552433732313a20617070726f766520746f2063616c6c6572000000000000006044820152606401610787565b6001600160a01b03838116600081815260056020908152604080832094871680845294825291829020805460ff191686151590811790915591519182527f17307eab39ab6107e8899845ad3d59bd9653f200f220920489ca2b5937696c31910160405180910390a3505050565b612698848484611ed2565b6126a484848484612934565b611ba25760405162461bcd60e51b815260206004820152603260248201527f4552433732313a207472616e7366657220746f206e6f6e20455243373231526560448201527131b2b4bb32b91034b6b83632b6b2b73a32b960711b6064820152608401610787565b606061271682611d12565b6000828152600760205260408120805461272f906134f3565b80601f016020809104026020016040519081016040528092919081815260200182805461275b906134f3565b80156127a85780601f1061277d576101008083540402835291602001916127a8565b820191906000526020600020905b81548152906001019060200180831161278b57829003601f168201915b5050505050905060006127b9612a8c565b90508051600014156127cc575092915050565b8151156127fe5780826040516020016127e6929190613626565b60405160208183030381529060405292505050919050565b611c7a84612a9b565b60006106538261213f565b6000610d728383612b01565b600082600001828154811061283557612835613554565b9060005260206000200154905092915050565b60008281526002840160205260408120548015158061286c575061286c8585612b01565b839061288b5760405162461bcd60e51b81526004016107879190612fc4565b50949350505050565b61289e8383612b0d565b6128ab6000848484612934565b6108285760405162461bcd60e51b815260206004820152603260248201527f4552433732313a207472616e7366657220746f206e6f6e20455243373231526560448201527131b2b4bb32b91034b6b83632b6b2b73a32b960711b6064820152608401610787565b6000611c7a84846001600160a01b038516612c98565b6000610d728383612cb5565b60006001600160a01b0384163b15612a8157604051630a85bd0160e11b81526001600160a01b0385169063150b7a0290612978903390899088908890600401613655565b602060405180830381600087803b15801561299257600080fd5b505af19250505080156129c2575060408051601f3d908101601f191682019092526129bf91810190613687565b60015b612a67573d8080156129f0576040519150601f19603f3d011682016040523d82523d6000602084013e6129f5565b606091505b508051612a5f5760405162461bcd60e51b815260206004820152603260248201527f4552433732313a207472616e7366657220746f206e6f6e20455243373231526560448201527131b2b4bb32b91034b6b83632b6b2b73a32b960711b6064820152608401610787565b805181602001fd5b6001600160e01b031916630a85bd0160e11b149050611c7a565b506001949350505050565b606060098054610668906134f3565b6060612aa682611d12565b6000612ab0612a8c565b90506000815111612ad05760405180602001604052806000815250610d72565b80612ada84612d04565b604051602001612aeb929190613626565b6040516020818303038152906040529392505050565b6000610d728383612da6565b6001600160a01b038216612b635760405162461bcd60e51b815260206004820181905260248201527f4552433732313a206d696e7420746f20746865207a65726f20616464726573736044820152606401610787565b6000818152600260205260409020546001600160a01b031615612bc85760405162461bcd60e51b815260206004820152601c60248201527f4552433732313a20746f6b656e20616c7265616479206d696e746564000000006044820152606401610787565b6000818152600260205260409020546001600160a01b031615612c2d5760405162461bcd60e51b815260206004820152601c60248201527f4552433732313a20746f6b656e20616c7265616479206d696e746564000000006044820152606401610787565b6001600160a01b038216600081815260036020908152604080832080546001019055848352600290915280822080546001600160a01b0319168417905551839291907fddf252ad1be2c89b69c2b068fc378daa952ba7f163c4a11628f55a4df523b3ef908290a45050565b60008281526002840160205260408120829055611c7a8484612928565b6000818152600183016020526040812054612cfc57508154600181810184556000848152602080822090930184905584548482528286019093526040902091909155610653565b506000610653565b60606000612d1183612dbe565b600101905060008167ffffffffffffffff811115612d3157612d3161316b565b6040519080825280601f01601f191660200182016040528015612d5b576020820181803683370190505b5090508181016020015b600019017f3031323334353637383961626364656600000000000000000000000000000000600a86061a8153600a8504945084612da15761126a565b612d65565b60008181526001830160205260408120541515610d72565b6000807a184f03e93ff9f4daa797ed6e38ed64bf6a1f0100000000000000008310612e07577a184f03e93ff9f4daa797ed6e38ed64bf6a1f010000000000000000830492506040015b6d04ee2d6d415b85acef81000000008310612e33576d04ee2d6d415b85acef8100000000830492506020015b662386f26fc100008310612e5157662386f26fc10000830492506010015b6305f5e1008310612e69576305f5e100830492506008015b6127108310612e7d57612710830492506004015b60648310612e8f576064830492506002015b600a83106106535760010192915050565b828054612eac906134f3565b90600052602060002090601f016020900481019282612ece5760008555612f14565b82601f10612ee757805160ff1916838001178555612f14565b82800160010185558215612f14579182015b82811115612f14578251825591602001919060010190612ef9565b50612f20929150612f24565b5090565b5b80821115612f205760008155600101612f25565b6001600160e01b031981168114611d0f57600080fd5b600060208284031215612f6157600080fd5b8135610d7281612f39565b60005b83811015612f87578181015183820152602001612f6f565b83811115611ba25750506000910152565b60008151808452612fb0816020860160208601612f6c565b601f01601f19169290920160200192915050565b602081526000610d726020830184612f98565b600060208284031215612fe957600080fd5b5035919050565b80356001600160a01b038116811461300757600080fd5b919050565b6000806040838503121561301f57600080fd5b61302883612ff0565b946020939093013593505050565b60008060006060848603121561304b57600080fd5b61305484612ff0565b925061306260208501612ff0565b9150604084013590509250925092565b6000610180825184526020830151602085015260408301516040850152606083015160608501526080830151608085015260a083015160a085015260c08301516130c760c08601826001600160a01b03169052565b5060e08301518160e08601526130df82860182612f98565b91505061010080840151858303828701526130fa8382612f98565b9250505061012080840151858303828701526131168382612f98565b9250505061014080840151858303828701526131328382612f98565b92505050610160808401518583038287015261314e8382612f98565b9695505050505050565b602081526000610d726020830184613072565b634e487b7160e01b600052604160045260246000fd5b600067ffffffffffffffff8084111561319c5761319c61316b565b604051601f8501601f19908116603f011681019082821181831017156131c4576131c461316b565b816040528093508581528686860111156131dd57600080fd5b858560208301376000602087830101525050509392505050565b600082601f83011261320857600080fd5b610d7283833560208501613181565b60006020828403121561322957600080fd5b813567ffffffffffffffff81111561324057600080fd5b611c7a848285016131f7565b60006020828403121561325e57600080fd5b610d7282612ff0565b6000602080830181845280855180835260408601915060408160051b870101925083870160005b828110156132bc57603f198886030184526132aa858351613072565b9450928501929085019060010161328e565b5092979650505050505050565b60008060008060008060008060008060006101608c8e0312156132eb57600080fd5b8b359a5067ffffffffffffffff8060208e0135111561330957600080fd5b6133198e60208f01358f016131f7565b9a508060408e0135111561332c57600080fd5b61333c8e60408f01358f016131f7565b995060608d0135985060808d013597508060a08e0135111561335d57600080fd5b61336d8e60a08f01358f016131f7565b96508060c08e0135111561338057600080fd5b6133908e60c08f01358f016131f7565b955060e08d013594506133a66101008e01612ff0565b9350806101208e013511156133ba57600080fd5b506133cc8d6101208e01358e016131f7565b91506101408c013590509295989b509295989b9093969950565b600080604083850312156133f957600080fd5b50508035926020909101359150565b6000806040838503121561341b57600080fd5b61342483612ff0565b91506020830135801515811461343957600080fd5b809150509250929050565b6000806000806080858703121561345a57600080fd5b61346385612ff0565b935061347160208601612ff0565b925060408501359150606085013567ffffffffffffffff81111561349457600080fd5b8501601f810187136134a557600080fd5b6134b487823560208401613181565b91505092959194509250565b600080604083850312156134d357600080fd5b6134dc83612ff0565b91506134ea60208401612ff0565b90509250929050565b600181811c9082168061350757607f821691505b6020821081141561352857634e487b7160e01b600052602260045260246000fd5b50919050565b6000821982111561354f57634e487b7160e01b600052601160045260246000fd5b500190565b634e487b7160e01b600052603260045260246000fd5b6000825161357c818460208701612f6c565b9190910192915050565b60006101808e83528060208401526135a08184018f612f98565b90508c60408401528b606084015282810360808401526135c0818c612f98565b905082810360a08401526135d4818b612f98565b90508860c08401526001600160a01b03881660e08401528281036101008401526135fe8188612f98565b6101208401969096525050610140810192909252610160909101529998505050505050505050565b60008351613638818460208801612f6c565b83519083019061364c818360208801612f6c565b01949350505050565b60006001600160a01b0380871683528086166020840152508360408301526080606083015261314e6080830184612f98565b60006020828403121561369957600080fd5b8151610d7281612f3956fe4552433732313a206f776e657220717565727920666f72206e6f6e6578697374656e7420746f6b656ea164736f6c6343000809000a",
  "linkReferences": {},
  "deployedLinkReferences": {}
}