{
  "_format": "hh-sol-artifact-1",
  "contractName": "SytemapAssetRegistry",
  "sourceName": "contracts/SytemapAssetRegistry.sol",
  "abi": [
    {
      "anonymous": false,
      "inputs": [
        {
          "indexed": false,
          "internalType": "address",
          "name": "previousAdmin",
          "type": "address"
        },
        {
          "indexed": false,
          "internalType": "address",
          "name": "newAdmin",
          "type": "address"
        }
      ],
      "name": "AdminChanged",
      "type": "event"
    },
    {
      "anonymous": false,
      "inputs": [
        {
          "indexed": true,
          "internalType": "address",
          "name": "owner",
          "type": "address"
        },
        {
          "indexed": true,
          "internalType": "address",
          "name": "approved",
          "type": "address"
        },
        {
          "indexed": true,
          "internalType": "uint256",
          "name": "tokenId",
          "type": "uint256"
        }
      ],
      "name": "Approval",
      "type": "event"
    },
    {
      "anonymous": false,
      "inputs": [
        {
          "indexed": true,
          "internalType": "address",
          "name": "owner",
          "type": "address"
        },
        {
          "indexed": true,
          "internalType": "address",
          "name": "operator",
          "type": "address"
        },
        {
          "indexed": false,
          "internalType": "bool",
          "name": "approved",
          "type": "bool"
        }
      ],
      "name": "ApprovalForAll",
      "type": "event"
    },
    {
      "anonymous": false,
      "inputs": [
        {
          "indexed": true,
          "internalType": "string",
          "name": "oldValue",
          "type": "string"
        },
        {
          "indexed": true,
          "internalType": "string",
          "name": "newValue",
          "type": "string"
        }
      ],
      "name": "BaseURIUpdated",
      "type": "event"
    },
    {
      "anonymous": false,
      "inputs": [
        {
          "indexed": true,
          "internalType": "address",
          "name": "beacon",
          "type": "address"
        }
      ],
      "name": "BeaconUpgraded",
      "type": "event"
    },
    {
      "anonymous": false,
      "inputs": [
        {
          "indexed": false,
          "internalType": "uint8",
          "name": "version",
          "type": "uint8"
        }
      ],
      "name": "Initialized",
      "type": "event"
    },
    {
      "anonymous": false,
      "inputs": [
        {
          "indexed": false,
          "internalType": "uint256",
          "name": "plotNo",
          "type": "uint256"
        },
        {
          "indexed": true,
          "internalType": "string",
          "name": "tokenURL",
          "type": "string"
        },
        {
          "indexed": false,
          "internalType": "string",
          "name": "estateName",
          "type": "string"
        },
        {
          "indexed": false,
          "internalType": "uint256",
          "name": "priceOfPlot",
          "type": "uint256"
        },
        {
          "indexed": false,
          "internalType": "uint256",
          "name": "sizeOfPlot",
          "type": "uint256"
        },
        {
          "indexed": false,
          "internalType": "string",
          "name": "plotUrl",
          "type": "string"
        },
        {
          "indexed": false,
          "internalType": "string",
          "name": "dateOfAllocation",
          "type": "string"
        },
        {
          "indexed": false,
          "internalType": "uint256",
          "name": "coordinateOfPlot",
          "type": "uint256"
        },
        {
          "indexed": false,
          "internalType": "address",
          "name": "buyerWalletId",
          "type": "address"
        },
        {
          "indexed": false,
          "internalType": "string",
          "name": "estateCompanyName",
          "type": "string"
        },
        {
          "indexed": false,
          "internalType": "uint256",
          "name": "propertyVerificationNo",
          "type": "uint256"
        },
        {
          "indexed": false,
          "internalType": "uint256",
          "name": "tokenId",
          "type": "uint256"
        },
        {
          "indexed": false,
          "internalType": "uint256",
          "name": "timestamp",
          "type": "uint256"
        }
      ],
      "name": "NewPropertyInfoAdded",
      "type": "event"
    },
    {
      "anonymous": false,
      "inputs": [
        {
          "indexed": true,
          "internalType": "address",
          "name": "previousOwner",
          "type": "address"
        },
        {
          "indexed": true,
          "internalType": "address",
          "name": "newOwner",
          "type": "address"
        }
      ],
      "name": "OwnershipTransferred",
      "type": "event"
    },
    {
      "anonymous": false,
      "inputs": [
        {
          "indexed": false,
          "internalType": "address",
          "name": "account",
          "type": "address"
        }
      ],
      "name": "Paused",
      "type": "event"
    },
    {
      "anonymous": false,
      "inputs": [
        {
          "indexed": false,
          "internalType": "address",
          "name": "owner",
          "type": "address"
        },
        {
          "indexed": false,
          "internalType": "uint256",
          "name": "propertyVerificationNo",
          "type": "uint256"
        },
        {
          "indexed": false,
          "internalType": "uint256",
          "name": "newPrice",
          "type": "uint256"
        }
      ],
      "name": "PropertyInfoPriceChanged",
      "type": "event"
    },
    {
      "anonymous": false,
      "inputs": [
        {
          "indexed": true,
          "internalType": "uint256",
          "name": "tokenId",
          "type": "uint256"
        },
        {
          "indexed": true,
          "internalType": "uint256",
          "name": "propertyVerificationNo",
          "type": "uint256"
        },
        {
          "indexed": false,
          "internalType": "string",
          "name": "tokenURL",
          "type": "string"
        }
      ],
      "name": "TokenMinted",
      "type": "event"
    },
    {
      "anonymous": false,
      "inputs": [
        {
          "indexed": true,
          "internalType": "address",
          "name": "from",
          "type": "address"
        },
        {
          "indexed": true,
          "internalType": "address",
          "name": "to",
          "type": "address"
        },
        {
          "indexed": true,
          "internalType": "uint256",
          "name": "tokenId",
          "type": "uint256"
        }
      ],
      "name": "Transfer",
      "type": "event"
    },
    {
      "anonymous": false,
      "inputs": [
        {
          "indexed": false,
          "internalType": "address",
          "name": "account",
          "type": "address"
        }
      ],
      "name": "Unpaused",
      "type": "event"
    },
    {
      "anonymous": false,
      "inputs": [
        {
          "indexed": true,
          "internalType": "address",
          "name": "implementation",
          "type": "address"
        }
      ],
      "name": "Upgraded",
      "type": "event"
    },
    {
      "inputs": [],
      "name": "SYTEMAP_NAME",
      "outputs": [
        {
          "internalType": "string",
          "name": "",
          "type": "string"
        }
      ],
      "stateMutability": "view",
      "type": "function"
    },
    {
      "inputs": [],
      "name": "SYTEMAP_SYMBOL",
      "outputs": [
        {
          "internalType": "string",
          "name": "",
          "type": "string"
        }
      ],
      "stateMutability": "view",
      "type": "function"
    },
    {
      "inputs": [
        {
          "internalType": "address",
          "name": "to",
          "type": "address"
        },
        {
          "internalType": "uint256",
          "name": "tokenId",
          "type": "uint256"
        }
      ],
      "name": "approve",
      "outputs": [],
      "stateMutability": "nonpayable",
      "type": "function"
    },
    {
      "inputs": [
        {
          "internalType": "address",
          "name": "_owner",
          "type": "address"
        }
      ],
      "name": "balanceOf",
      "outputs": [
        {
          "internalType": "uint256",
          "name": "",
          "type": "uint256"
        }
      ],
      "stateMutability": "view",
      "type": "function"
    },
    {
      "inputs": [
        {
          "internalType": "uint256",
          "name": "tokenId",
          "type": "uint256"
        }
      ],
      "name": "burn",
      "outputs": [],
      "stateMutability": "nonpayable",
      "type": "function"
    },
    {
      "inputs": [
        {
          "internalType": "uint256",
          "name": "_propertyVerificationNo",
          "type": "uint256"
        },
        {
          "internalType": "uint256",
          "name": "_priceOfPlot",
          "type": "uint256"
        }
      ],
      "name": "changePropertyPriceByOwner",
      "outputs": [
        {
          "internalType": "bool",
          "name": "",
          "type": "bool"
        }
      ],
      "stateMutability": "nonpayable",
      "type": "function"
    },
    {
      "inputs": [],
      "name": "getAllMintedPropertyDetails",
      "outputs": [
        {
          "components": [
            {
              "internalType": "uint256",
              "name": "plotNo",
              "type": "uint256"
            },
            {
              "internalType": "uint256",
              "name": "priceOfPlot",
              "type": "uint256"
            },
            {
              "internalType": "uint256",
              "name": "sizeOfPlot",
              "type": "uint256"
            },
            {
              "internalType": "uint256",
              "name": "coordinateOfPlot",
              "type": "uint256"
            },
            {
              "internalType": "uint256",
              "name": "propertyVerificationNo",
              "type": "uint256"
            },
            {
              "internalType": "uint256",
              "name": "timestamp",
              "type": "uint256"
            },
            {
              "internalType": "address",
              "name": "buyerWalletId",
              "type": "address"
            },
            {
              "internalType": "string",
              "name": "tokenURL",
              "type": "string"
            },
            {
              "internalType": "string",
              "name": "estateName",
              "type": "string"
            },
            {
              "internalType": "string",
              "name": "plotUrl",
              "type": "string"
            },
            {
              "internalType": "string",
              "name": "dateOfAllocation",
              "type": "string"
            },
            {
              "internalType": "string",
              "name": "estateCompanyName",
              "type": "string"
            }
          ],
          "internalType": "struct ISytemapAssetRegistry.PropertyInffo[]",
          "name": "",
          "type": "tuple[]"
        }
      ],
      "stateMutability": "view",
      "type": "function"
    },
    {
      "inputs": [
        {
          "internalType": "address",
          "name": "_owner",
          "type": "address"
        }
      ],
      "name": "getAllPropertyDetailsByOwner",
      "outputs": [
        {
          "components": [
            {
              "internalType": "uint256",
              "name": "plotNo",
              "type": "uint256"
            },
            {
              "internalType": "uint256",
              "name": "priceOfPlot",
              "type": "uint256"
            },
            {
              "internalType": "uint256",
              "name": "sizeOfPlot",
              "type": "uint256"
            },
            {
              "internalType": "uint256",
              "name": "coordinateOfPlot",
              "type": "uint256"
            },
            {
              "internalType": "uint256",
              "name": "propertyVerificationNo",
              "type": "uint256"
            },
            {
              "internalType": "uint256",
              "name": "timestamp",
              "type": "uint256"
            },
            {
              "internalType": "address",
              "name": "buyerWalletId",
              "type": "address"
            },
            {
              "internalType": "string",
              "name": "tokenURL",
              "type": "string"
            },
            {
              "internalType": "string",
              "name": "estateName",
              "type": "string"
            },
            {
              "internalType": "string",
              "name": "plotUrl",
              "type": "string"
            },
            {
              "internalType": "string",
              "name": "dateOfAllocation",
              "type": "string"
            },
            {
              "internalType": "string",
              "name": "estateCompanyName",
              "type": "string"
            }
          ],
          "internalType": "struct ISytemapAssetRegistry.PropertyInffo[]",
          "name": "",
          "type": "tuple[]"
        }
      ],
      "stateMutability": "view",
      "type": "function"
    },
    {
      "inputs": [
        {
          "internalType": "uint256",
          "name": "tokenId",
          "type": "uint256"
        }
      ],
      "name": "getApproved",
      "outputs": [
        {
          "internalType": "address",
          "name": "",
          "type": "address"
        }
      ],
      "stateMutability": "view",
      "type": "function"
    },
    {
      "inputs": [],
      "name": "getNumberOfPropertyTokensMinted",
      "outputs": [
        {
          "internalType": "uint256",
          "name": "",
          "type": "uint256"
        }
      ],
      "stateMutability": "view",
      "type": "function"
    },
    {
      "inputs": [
        {
          "internalType": "uint256",
          "name": "_propertyVerificationNo",
          "type": "uint256"
        }
      ],
      "name": "getPropertyInfoDetailsByPVN",
      "outputs": [
        {
          "components": [
            {
              "internalType": "uint256",
              "name": "plotNo",
              "type": "uint256"
            },
            {
              "internalType": "uint256",
              "name": "priceOfPlot",
              "type": "uint256"
            },
            {
              "internalType": "uint256",
              "name": "sizeOfPlot",
              "type": "uint256"
            },
            {
              "internalType": "uint256",
              "name": "coordinateOfPlot",
              "type": "uint256"
            },
            {
              "internalType": "uint256",
              "name": "propertyVerificationNo",
              "type": "uint256"
            },
            {
              "internalType": "uint256",
              "name": "timestamp",
              "type": "uint256"
            },
            {
              "internalType": "address",
              "name": "buyerWalletId",
              "type": "address"
            },
            {
              "internalType": "string",
              "name": "tokenURL",
              "type": "string"
            },
            {
              "internalType": "string",
              "name": "estateName",
              "type": "string"
            },
            {
              "internalType": "string",
              "name": "plotUrl",
              "type": "string"
            },
            {
              "internalType": "string",
              "name": "dateOfAllocation",
              "type": "string"
            },
            {
              "internalType": "string",
              "name": "estateCompanyName",
              "type": "string"
            }
          ],
          "internalType": "struct ISytemapAssetRegistry.PropertyInffo",
          "name": "",
          "type": "tuple"
        }
      ],
      "stateMutability": "view",
      "type": "function"
    },
    {
      "inputs": [
        {
          "internalType": "uint256",
          "name": "_propertyVerificationNo",
          "type": "uint256"
        }
      ],
      "name": "getPropertyVerificationNoOwner",
      "outputs": [
        {
          "internalType": "address",
          "name": "",
          "type": "address"
        }
      ],
      "stateMutability": "view",
      "type": "function"
    },
    {
      "inputs": [
        {
          "internalType": "address",
          "name": "_owner",
          "type": "address"
        }
      ],
      "name": "getTotalNumberOfPropertyOwnedByAnAddress",
      "outputs": [
        {
          "internalType": "uint256",
          "name": "",
          "type": "uint256"
        }
      ],
      "stateMutability": "view",
      "type": "function"
    },
    {
      "inputs": [
        {
          "internalType": "string",
          "name": "_baseTokenURI",
          "type": "string"
        }
      ],
      "name": "initialize",
      "outputs": [],
      "stateMutability": "nonpayable",
      "type": "function"
    },
    {
      "inputs": [
        {
          "internalType": "address",
          "name": "owner",
          "type": "address"
        },
        {
          "internalType": "address",
          "name": "operator",
          "type": "address"
        }
      ],
      "name": "isApprovedForAll",
      "outputs": [
        {
          "internalType": "bool",
          "name": "",
          "type": "bool"
        }
      ],
      "stateMutability": "view",
      "type": "function"
    },
    {
      "inputs": [],
      "name": "name",
      "outputs": [
        {
          "internalType": "string",
          "name": "",
          "type": "string"
        }
      ],
      "stateMutability": "view",
      "type": "function"
    },
    {
      "inputs": [],
      "name": "owner",
      "outputs": [
        {
          "internalType": "address",
          "name": "",
          "type": "address"
        }
      ],
      "stateMutability": "view",
      "type": "function"
    },
    {
      "inputs": [
        {
          "internalType": "uint256",
          "name": "_tokenId",
          "type": "uint256"
        }
      ],
      "name": "ownerOf",
      "outputs": [
        {
          "internalType": "address",
          "name": "",
          "type": "address"
        }
      ],
      "stateMutability": "view",
      "type": "function"
    },
    {
      "inputs": [],
      "name": "pause",
      "outputs": [],
      "stateMutability": "nonpayable",
      "type": "function"
    },
    {
      "inputs": [],
      "name": "paused",
      "outputs": [
        {
          "internalType": "bool",
          "name": "",
          "type": "bool"
        }
      ],
      "stateMutability": "view",
      "type": "function"
    },
    {
      "inputs": [],
      "name": "proxiableUUID",
      "outputs": [
        {
          "internalType": "bytes32",
          "name": "",
          "type": "bytes32"
        }
      ],
      "stateMutability": "view",
      "type": "function"
    },
    {
      "inputs": [],
      "name": "renounceOwnership",
      "outputs": [],
      "stateMutability": "nonpayable",
      "type": "function"
    },
    {
      "inputs": [
        {
          "internalType": "uint256",
          "name": "_plotNo",
          "type": "uint256"
        },
        {
          "internalType": "string",
          "name": "_tokenURL",
          "type": "string"
        },
        {
          "internalType": "string",
          "name": "_estateName",
          "type": "string"
        },
        {
          "internalType": "uint256",
          "name": "_priceOfPlot",
          "type": "uint256"
        },
        {
          "internalType": "uint256",
          "name": "_sizeOfPlot",
          "type": "uint256"
        },
        {
          "internalType": "string",
          "name": "_plotUrl",
          "type": "string"
        },
        {
          "internalType": "string",
          "name": "_dateOfAllocation",
          "type": "string"
        },
        {
          "internalType": "uint256",
          "name": "_coordinateOfPlot",
          "type": "uint256"
        },
        {
          "internalType": "address",
          "name": "_buyerWalletId",
          "type": "address"
        },
        {
          "internalType": "string",
          "name": "_estateCompanyName",
          "type": "string"
        },
        {
          "internalType": "uint256",
          "name": "_propertyVerificationNo",
          "type": "uint256"
        }
      ],
      "name": "safeMintNewPropertyInfo",
      "outputs": [],
      "stateMutability": "nonpayable",
      "type": "function"
    },
    {
      "inputs": [
        {
          "internalType": "address",
          "name": "from",
          "type": "address"
        },
        {
          "internalType": "address",
          "name": "to",
          "type": "address"
        },
        {
          "internalType": "uint256",
          "name": "tokenId",
          "type": "uint256"
        }
      ],
      "name": "safeTransferFrom",
      "outputs": [],
      "stateMutability": "nonpayable",
      "type": "function"
    },
    {
      "inputs": [
        {
          "internalType": "address",
          "name": "from",
          "type": "address"
        },
        {
          "internalType": "address",
          "name": "to",
          "type": "address"
        },
        {
          "internalType": "uint256",
          "name": "tokenId",
          "type": "uint256"
        },
        {
          "internalType": "bytes",
          "name": "data",
          "type": "bytes"
        }
      ],
      "name": "safeTransferFrom",
      "outputs": [],
      "stateMutability": "nonpayable",
      "type": "function"
    },
    {
      "inputs": [
        {
          "internalType": "address",
          "name": "operator",
          "type": "address"
        },
        {
          "internalType": "bool",
          "name": "approved",
          "type": "bool"
        }
      ],
      "name": "setApprovalForAll",
      "outputs": [],
      "stateMutability": "nonpayable",
      "type": "function"
    },
    {
      "inputs": [
        {
          "internalType": "string",
          "name": "_newBaseURI",
          "type": "string"
        }
      ],
      "name": "setBaseURI",
      "outputs": [],
      "stateMutability": "nonpayable",
      "type": "function"
    },
    {
      "inputs": [
        {
          "internalType": "bytes4",
          "name": "interfaceId",
          "type": "bytes4"
        }
      ],
      "name": "supportsInterface",
      "outputs": [
        {
          "internalType": "bool",
          "name": "",
          "type": "bool"
        }
      ],
      "stateMutability": "view",
      "type": "function"
    },
    {
      "inputs": [],
      "name": "symbol",
      "outputs": [
        {
          "internalType": "string",
          "name": "",
          "type": "string"
        }
      ],
      "stateMutability": "view",
      "type": "function"
    },
    {
      "inputs": [
        {
          "internalType": "uint256",
          "name": "index",
          "type": "uint256"
        }
      ],
      "name": "tokenByIndex",
      "outputs": [
        {
          "internalType": "uint256",
          "name": "",
          "type": "uint256"
        }
      ],
      "stateMutability": "view",
      "type": "function"
    },
    {
      "inputs": [
        {
          "internalType": "address",
          "name": "_owner",
          "type": "address"
        },
        {
          "internalType": "uint256",
          "name": "index",
          "type": "uint256"
        }
      ],
      "name": "tokenOfOwnerByIndex",
      "outputs": [
        {
          "internalType": "uint256",
          "name": "",
          "type": "uint256"
        }
      ],
      "stateMutability": "view",
      "type": "function"
    },
    {
      "inputs": [
        {
          "internalType": "uint256",
          "name": "_propertyVerificationNo",
          "type": "uint256"
        }
      ],
      "name": "tokenURI",
      "outputs": [
        {
          "internalType": "string",
          "name": "",
          "type": "string"
        }
      ],
      "stateMutability": "view",
      "type": "function"
    },
    {
      "inputs": [],
      "name": "totalSupply",
      "outputs": [
        {
          "internalType": "uint256",
          "name": "",
          "type": "uint256"
        }
      ],
      "stateMutability": "view",
      "type": "function"
    },
    {
      "inputs": [
        {
          "internalType": "address",
          "name": "from",
          "type": "address"
        },
        {
          "internalType": "address",
          "name": "to",
          "type": "address"
        },
        {
          "internalType": "uint256",
          "name": "tokenId",
          "type": "uint256"
        }
      ],
      "name": "transferFrom",
      "outputs": [],
      "stateMutability": "nonpayable",
      "type": "function"
    },
    {
      "inputs": [
        {
          "internalType": "address",
          "name": "newOwner",
          "type": "address"
        }
      ],
      "name": "transferOwnership",
      "outputs": [],
      "stateMutability": "nonpayable",
      "type": "function"
    },
    {
      "inputs": [],
      "name": "unpause",
      "outputs": [],
      "stateMutability": "nonpayable",
      "type": "function"
    },
    {
      "inputs": [
        {
          "internalType": "address",
          "name": "newImplementation",
          "type": "address"
        }
      ],
      "name": "upgradeTo",
      "outputs": [],
      "stateMutability": "nonpayable",
      "type": "function"
    },
    {
      "inputs": [
        {
          "internalType": "address",
          "name": "newImplementation",
          "type": "address"
        },
        {
          "internalType": "bytes",
          "name": "data",
          "type": "bytes"
        }
      ],
      "name": "upgradeToAndCall",
      "outputs": [],
      "stateMutability": "payable",
      "type": "function"
    }
  ],
  "bytecode": "0x60a06040523060805234801561001457600080fd5b5060805161489a61004c60003960008181610f2a01528181610faf0152818161113d015281816111c2015261130f015261489a6000f3fe6080604052600436106102855760003560e01c80636352211e11610153578063a22cb465116100cb578063db7e79261161007f578063e985e9c511610064578063e985e9c5146106fc578063f2fde38b14610745578063f62d18881461076557600080fd5b8063db7e7926146106a4578063e4a9614a146106dc57600080fd5b8063c5719298116100b0578063c57192981461064f578063c62e558114610664578063c87b56dd1461068457600080fd5b8063a22cb4651461060f578063b88d4fde1461062f57600080fd5b80638456cb591161012257806390cbe7591161010757806390cbe759146105c557806393d3e755146105e557806395d89b41146105fa57600080fd5b80638456cb59146105925780638da5cb5b146105a757600080fd5b80636352211e1461051d57806370a082311461053d578063715018a61461055d57806380b0fd0a1461057257600080fd5b80633f35198e116102015780634f6ccce7116101b557806355f804b31161019a57806355f804b3146104b85780635939f777146104d85780635c975abb1461050557600080fd5b80634f6ccce71461048357806352d1902d146104a357600080fd5b806342842e0e116101e657806342842e0e1461043057806342966c68146104505780634f1ef2861461047057600080fd5b80633f35198e146103eb5780633f4ba83a1461041b57600080fd5b806318160ddd11610258578063245f0ca41161023d578063245f0ca41461037e5780632f745c59146103ab5780633659cfe6146103cb57600080fd5b806318160ddd1461033b57806323b872dd1461035e57600080fd5b806301ffc9a71461028a57806306fdde03146102bf578063081812fc146102e1578063095ea7b314610319575b600080fd5b34801561029657600080fd5b506102aa6102a5366004613f08565b610785565b60405190151581526020015b60405180910390f35b3480156102cb57600080fd5b506102d46107d7565b6040516102b69190613f75565b3480156102ed57600080fd5b506103016102fc366004613f88565b610869565b6040516001600160a01b0390911681526020016102b6565b34801561032557600080fd5b50610339610334366004613fbd565b610890565b005b34801561034757600080fd5b506103506109aa565b6040519081526020016102b6565b34801561036a57600080fd5b50610339610379366004613fe7565b6109bb565b34801561038a57600080fd5b5061039e610399366004613f88565b610a33565b6040516102b69190614109565b3480156103b757600080fd5b506103506103c6366004613fbd565b610e77565b3480156103d757600080fd5b506103396103e636600461411c565b610f20565b3480156103f757600080fd5b506102d4604051806040016040528060048152602001635354594560e01b81525081565b34801561042757600080fd5b5061033961109b565b34801561043c57600080fd5b5061033961044b366004613fe7565b6110ad565b34801561045c57600080fd5b5061033961046b366004613f88565b6110c8565b61033961047e3660046141da565b611133565b34801561048f57600080fd5b5061035061049e366004613f88565b61129f565b3480156104af57600080fd5b50610350611302565b3480156104c457600080fd5b506103396104d3366004614228565b6113c7565b3480156104e457600080fd5b506104f86104f336600461411c565b611432565b6040516102b6919061425d565b34801561051157600080fd5b5060c95460ff166102aa565b34801561052957600080fd5b50610301610538366004613f88565b61188f565b34801561054957600080fd5b5061035061055836600461411c565b6118b8565b34801561056957600080fd5b50610339611958565b34801561057e57600080fd5b5061033961058d3660046142bf565b61196a565b34801561059e57600080fd5b50610339611b40565b3480156105b357600080fd5b5060fb546001600160a01b0316610301565b3480156105d157600080fd5b506102aa6105e03660046143dc565b611b50565b3480156105f157600080fd5b506104f8611ce8565b34801561060657600080fd5b506102d4612144565b34801561061b57600080fd5b5061033961062a3660046143fe565b612153565b34801561063b57600080fd5b5061033961064a36600461443a565b61215e565b34801561065b57600080fd5b506103506121dc565b34801561067057600080fd5b5061035061067f36600461411c565b6121e7565b34801561069057600080fd5b506102d461069f366004613f88565b6121fe565b3480156106b057600080fd5b506102d46040518060400160405280600c81526020016b29bcba32b6b0b81021b7b4b760a11b81525081565b3480156106e857600080fd5b506103016106f7366004613f88565b612294565b34801561070857600080fd5b506102aa6107173660046144a2565b6001600160a01b039182166000908152606a6020908152604080832093909416825291909152205460ff1690565b34801561075157600080fd5b5061033961076036600461411c565b6122b7565b34801561077157600080fd5b50610339610780366004614228565b612344565b60006001600160e01b031982166380ac58cd60e01b14806107b657506001600160e01b03198216635b5e139f60e01b145b806107d157506301ffc9a760e01b6001600160e01b03198316145b92915050565b6060606580546107e6906144d5565b80601f0160208091040260200160405190810160405280929190818152602001828054610812906144d5565b801561085f5780601f106108345761010080835404028352916020019161085f565b820191906000526020600020905b81548152906001019060200180831161084257829003601f168201915b5050505050905090565b6000610874826124e7565b506000908152606960205260409020546001600160a01b031690565b600061089b8261254b565b9050806001600160a01b0316836001600160a01b03160361090d5760405162461bcd60e51b815260206004820152602160248201527f4552433732313a20617070726f76616c20746f2063757272656e74206f776e656044820152603960f91b60648201526084015b60405180910390fd5b336001600160a01b038216148061092957506109298133610717565b61099b5760405162461bcd60e51b815260206004820152603d60248201527f4552433732313a20617070726f76652063616c6c6572206973206e6f7420746f60448201527f6b656e206f776e6572206f7220617070726f76656420666f7220616c6c0000006064820152608401610904565b6109a583836125b0565b505050565b60006109b66101f65490565b905090565b6109c6335b8261261e565b610a285760405162461bcd60e51b815260206004820152602d60248201527f4552433732313a2063616c6c6572206973206e6f7420746f6b656e206f776e6560448201526c1c881bdc88185c1c1c9bdd9959609a1b6064820152608401610904565b6109a583838361269c565b610aa060405180610180016040528060008152602001600081526020016000815260200160008152602001600081526020016000815260200160006001600160a01b0316815260200160608152602001606081526020016060815260200160608152602001606081525090565b610aa98261287c565b610b1b5760405162461bcd60e51b815260206004820152603360248201527f4552433732313a2070766e20746f6b656e20646f6573206e6f7420657869737460448201527f206f72206e6f74206265656e206d696e746564000000000000000000000000006064820152608401610904565b60008281526101fc60209081526040808320548084526101f7835292819020815161018081018352815481526001820154938101939093526002810154918301919091526003810154606083015260048101546080830152600581015460a083015260068101546001600160a01b031660c083015260078101805460e084019190610ba5906144d5565b80601f0160208091040260200160405190810160405280929190818152602001828054610bd1906144d5565b8015610c1e5780601f10610bf357610100808354040283529160200191610c1e565b820191906000526020600020905b815481529060010190602001808311610c0157829003601f168201915b50505050508152602001600882018054610c37906144d5565b80601f0160208091040260200160405190810160405280929190818152602001828054610c63906144d5565b8015610cb05780601f10610c8557610100808354040283529160200191610cb0565b820191906000526020600020905b815481529060010190602001808311610c9357829003601f168201915b50505050508152602001600982018054610cc9906144d5565b80601f0160208091040260200160405190810160405280929190818152602001828054610cf5906144d5565b8015610d425780601f10610d1757610100808354040283529160200191610d42565b820191906000526020600020905b815481529060010190602001808311610d2557829003601f168201915b50505050508152602001600a82018054610d5b906144d5565b80601f0160208091040260200160405190810160405280929190818152602001828054610d87906144d5565b8015610dd45780601f10610da957610100808354040283529160200191610dd4565b820191906000526020600020905b815481529060010190602001808311610db757829003601f168201915b50505050508152602001600b82018054610ded906144d5565b80601f0160208091040260200160405190810160405280929190818152602001828054610e19906144d5565b8015610e665780601f10610e3b57610100808354040283529160200191610e66565b820191906000526020600020905b815481529060010190602001808311610e4957829003601f168201915b505050505081525050915050919050565b6000610e82836118b8565b8210610ef65760405162461bcd60e51b815260206004820152602b60248201527f455243373231456e756d657261626c653a206f776e657220696e646578206f7560448201527f74206f6620626f756e64730000000000000000000000000000000000000000006064820152608401610904565b6001600160a01b03831660009081526101f860205260409020610f199083612898565b9392505050565b6001600160a01b037f0000000000000000000000000000000000000000000000000000000000000000163003610fad5760405162461bcd60e51b815260206004820152602c60248201527f46756e6374696f6e206d7573742062652063616c6c6564207468726f7567682060448201526b19195b1959d85d1958d85b1b60a21b6064820152608401610904565b7f00000000000000000000000000000000000000000000000000000000000000006001600160a01b03166110087f360894a13ba1a3210667c828492db98dca3e2076cc3735a920a3ca505d382bbc546001600160a01b031690565b6001600160a01b0316146110735760405162461bcd60e51b815260206004820152602c60248201527f46756e6374696f6e206d7573742062652063616c6c6564207468726f7567682060448201526b6163746976652070726f787960a01b6064820152608401610904565b61107c816128a4565b60408051600080825260208201909252611098918391906128ac565b50565b6110a3612a4c565b6110ab612aa6565b565b6109a58383836040518060200160405280600081525061215e565b6110d1336109c0565b6110985760405162461bcd60e51b815260206004820152602d60248201527f4552433732313a2063616c6c6572206973206e6f7420746f6b656e206f776e6560448201526c1c881bdc88185c1c1c9bdd9959609a1b6064820152608401610904565b6001600160a01b037f00000000000000000000000000000000000000000000000000000000000000001630036111c05760405162461bcd60e51b815260206004820152602c60248201527f46756e6374696f6e206d7573742062652063616c6c6564207468726f7567682060448201526b19195b1959d85d1958d85b1b60a21b6064820152608401610904565b7f00000000000000000000000000000000000000000000000000000000000000006001600160a01b031661121b7f360894a13ba1a3210667c828492db98dca3e2076cc3735a920a3ca505d382bbc546001600160a01b031690565b6001600160a01b0316146112865760405162461bcd60e51b815260206004820152602c60248201527f46756e6374696f6e206d7573742062652063616c6c6564207468726f7567682060448201526b6163746976652070726f787960a01b6064820152608401610904565b61128f826128a4565b61129b828260016128ac565b5050565b60006112a96109aa565b82106112f75760405162461bcd60e51b815260206004820152601f60248201527f455243373231456e756d657261626c653a20696e76616c696420696e646578006044820152606401610904565b6107d182600161450f565b6000306001600160a01b037f000000000000000000000000000000000000000000000000000000000000000016146113a25760405162461bcd60e51b815260206004820152603860248201527f555550535570677261646561626c653a206d757374206e6f742062652063616c60448201527f6c6564207468726f7567682064656c656761746563616c6c00000000000000006064820152608401610904565b507f360894a13ba1a3210667c828492db98dca3e2076cc3735a920a3ca505d382bbc90565b6113cf612a4c565b806040516113dd9190614530565b60405180910390206101f56040516113f5919061454c565b604051908190038120907f309b29ded109b9e28fb9885757b3e0096eb75c51d23aa4635d68bcd569f6adc190600090a36101f561129b8282614610565b6060600061143f836118b8565b905060008167ffffffffffffffff81111561145c5761145c614137565b6040519080825280602002602001820160405280156114fa57816020015b6114e760405180610180016040528060008152602001600081526020016000815260200160008152602001600081526020016000815260200160006001600160a01b0316815260200160608152602001606081526020016060815260200160608152602001606081525090565b81526020019060019003908161147a5790505b50905060005b828110156118875760006115148683610e77565b60008181526101f76020908152604091829020825161018081018452815481526001820154928101929092526002810154928201929092526003820154606082015260048201546080820152600582015460a082015260068201546001600160a01b031660c0820152600782018054939450909260e084019190611597906144d5565b80601f01602080910402602001604051908101604052809291908181526020018280546115c3906144d5565b80156116105780601f106115e557610100808354040283529160200191611610565b820191906000526020600020905b8154815290600101906020018083116115f357829003601f168201915b50505050508152602001600882018054611629906144d5565b80601f0160208091040260200160405190810160405280929190818152602001828054611655906144d5565b80156116a25780601f10611677576101008083540402835291602001916116a2565b820191906000526020600020905b81548152906001019060200180831161168557829003601f168201915b505050505081526020016009820180546116bb906144d5565b80601f01602080910402602001604051908101604052809291908181526020018280546116e7906144d5565b80156117345780601f1061170957610100808354040283529160200191611734565b820191906000526020600020905b81548152906001019060200180831161171757829003601f168201915b50505050508152602001600a8201805461174d906144d5565b80601f0160208091040260200160405190810160405280929190818152602001828054611779906144d5565b80156117c65780601f1061179b576101008083540402835291602001916117c6565b820191906000526020600020905b8154815290600101906020018083116117a957829003601f168201915b50505050508152602001600b820180546117df906144d5565b80601f016020809104026020016040519081016040528092919081815260200182805461180b906144d5565b80156118585780601f1061182d57610100808354040283529160200191611858565b820191906000526020600020905b81548152906001019060200180831161183b57829003601f168201915b505050505081525050838381518110611873576118736146d0565b602090810291909101015250600101611500565b509392505050565b60006107d18260405180606001604052806029815260200161481e602991396101f99190612af8565b60006001600160a01b0382166119365760405162461bcd60e51b815260206004820152602a60248201527f4552433732313a2062616c616e636520717565727920666f7220746865207a6560448201527f726f2061646472657373000000000000000000000000000000000000000000006064820152608401610904565b6001600160a01b03821660009081526101f8602052604090206107d190612b05565b611960612a4c565b6110ab6000612b0f565b611972612a4c565b61197a612b61565b6119838161287c565b156119d05760405162461bcd60e51b815260206004820181905260248201527f4552433732313a2070766e20746f6b656e20616c7265616479206d696e7465646044820152606401610904565b6001600160a01b038316611a265760405162461bcd60e51b815260206004820152601760248201527f4552433732313a20696e76616c696420616464726573730000000000000000006044820152606401610904565b306001600160a01b03841603611a7e5760405162461bcd60e51b815260206004820152601760248201527f4552433732313a20696e76616c696420616464726573730000000000000000006044820152606401610904565b611a8d6101f680546001019055565b6000611a996101f65490565b9050611aa58483612bbc565b611aaf828c612bd6565b611ab98482612c78565b611ac38482612c85565b611ada818360009081526101fc6020526040902055565b611aee8c8c8c8c8c8c8c8c8c8c8c8c612ca8565b81817f30b042f6d29a39b7c10c2dfbd81016db37ea3d11e72ec5764fb0d0f7a1012a3a8d604051611b1f9190613f75565b60405180910390a350611b3360016101c355565b5050505050505050505050565b611b48612a4c565b6110ab612f66565b6000611b5a612a4c565b60008211611bb55760405162461bcd60e51b815260206004820152602260248201527f506c6f74205072696365206d7573742062652067726561746572207468616e20604482015261181760f11b6064820152608401610904565b33611c025760405162461bcd60e51b815260206004820152601760248201527f4552433732313a20696e76616c696420616464726573730000000000000000006044820152606401610904565b611c0b8361287c565b611c7d5760405162461bcd60e51b815260206004820152603360248201527f4552433732313a2070766e20746f6b656e20646f6573206e6f7420657869737460448201527f206f72206e6f74206265656e206d696e746564000000000000000000000000006064820152608401610904565b60008381526101fc60209081526040808320548084526101f78352928190206001018590558051338152918201869052818101859052517f598b48a1aad5d72fcedbc7ed6aac08ad920501eedca72d3dace23490f11f78129181900360600190a15060019392505050565b60606000611cf66101f65490565b905060008167ffffffffffffffff811115611d1357611d13614137565b604051908082528060200260200182016040528015611db157816020015b611d9e60405180610180016040528060008152602001600081526020016000815260200160008152602001600081526020016000815260200160006001600160a01b0316815260200160608152602001606081526020016060815260200160608152602001606081525090565b815260200190600190039081611d315790505b50905060005b8281101561213d576000611dca8261129f565b60008181526101f76020908152604091829020825161018081018452815481526001820154928101929092526002810154928201929092526003820154606082015260048201546080820152600582015460a082015260068201546001600160a01b031660c0820152600782018054939450909260e084019190611e4d906144d5565b80601f0160208091040260200160405190810160405280929190818152602001828054611e79906144d5565b8015611ec65780601f10611e9b57610100808354040283529160200191611ec6565b820191906000526020600020905b815481529060010190602001808311611ea957829003601f168201915b50505050508152602001600882018054611edf906144d5565b80601f0160208091040260200160405190810160405280929190818152602001828054611f0b906144d5565b8015611f585780601f10611f2d57610100808354040283529160200191611f58565b820191906000526020600020905b815481529060010190602001808311611f3b57829003601f168201915b50505050508152602001600982018054611f71906144d5565b80601f0160208091040260200160405190810160405280929190818152602001828054611f9d906144d5565b8015611fea5780601f10611fbf57610100808354040283529160200191611fea565b820191906000526020600020905b815481529060010190602001808311611fcd57829003601f168201915b50505050508152602001600a82018054612003906144d5565b80601f016020809104026020016040519081016040528092919081815260200182805461202f906144d5565b801561207c5780601f106120515761010080835404028352916020019161207c565b820191906000526020600020905b81548152906001019060200180831161205f57829003601f168201915b50505050508152602001600b82018054612095906144d5565b80601f01602080910402602001604051908101604052809291908181526020018280546120c1906144d5565b801561210e5780601f106120e35761010080835404028352916020019161210e565b820191906000526020600020905b8154815290600101906020018083116120f157829003601f168201915b505050505081525050838381518110612129576121296146d0565b602090810291909101015250600101611db7565b5092915050565b6060606680546107e6906144d5565b61129b338383612fa3565b612168338361261e565b6121ca5760405162461bcd60e51b815260206004820152602d60248201527f4552433732313a2063616c6c6572206973206e6f7420746f6b656e206f776e6560448201526c1c881bdc88185c1c1c9bdd9959609a1b6064820152608401610904565b6121d684848484613071565b50505050565b6000806107d16109aa565b6000336121f357600080fd5b6000610f19836118b8565b6000818152606760205260409020546060906001600160a01b031661228b5760405162461bcd60e51b815260206004820152603160248201527f45524337323155524953746f726167653a2055524920717565727920666f722060448201527f6e6f6e6578697374656e7420746f6b656e0000000000000000000000000000006064820152608401610904565b6107d1826130ef565b60008181526101fc602052604081205460006122af8261188f565b949350505050565b6122bf612a4c565b6001600160a01b03811661233b5760405162461bcd60e51b815260206004820152602660248201527f4f776e61626c653a206e6577206f776e657220697320746865207a65726f206160448201527f64647265737300000000000000000000000000000000000000000000000000006064820152608401610904565b61109881612b0f565b600054610100900460ff16158080156123645750600054600160ff909116105b8061237e5750303b15801561237e575060005460ff166001145b6123f05760405162461bcd60e51b815260206004820152602e60248201527f496e697469616c697a61626c653a20636f6e747261637420697320616c72656160448201527f647920696e697469616c697a65640000000000000000000000000000000000006064820152608401610904565b6000805460ff191660011790558015612413576000805461ff0019166101001790555b61245d6040518060400160405280600c81526020016b29bcba32b6b0b81021b7b4b760a11b815250604051806040016040528060048152602001635354594560e01b8152506131ea565b61246561324d565b61246d6132a6565b612475613307565b61247d61324d565b61248561324d565b61248d61324d565b612495613368565b61249e826113c7565b801561129b576000805461ff0019169055604051600181527f7f26b83ff96e1f2b6a682f133852f6798a09c465da95921460cefb38474024989060200160405180910390a15050565b6000818152606760205260409020546001600160a01b03166110985760405162461bcd60e51b815260206004820152601860248201527f4552433732313a20696e76616c696420746f6b656e20494400000000000000006044820152606401610904565b6000818152606760205260408120546001600160a01b0316806107d15760405162461bcd60e51b815260206004820152601860248201527f4552433732313a20696e76616c696420746f6b656e20494400000000000000006044820152606401610904565b600081815260696020526040902080546001600160a01b0319166001600160a01b03841690811790915581906125e58261254b565b6001600160a01b03167f8c5be1e5ebec7d5bd14f71427d1e84f3dd0314c0f7b2291e5b200ac8c7c3b92560405160405180910390a45050565b60008061262a8361254b565b9050806001600160a01b0316846001600160a01b0316148061267157506001600160a01b038082166000908152606a602090815260408083209388168352929052205460ff165b806122af5750836001600160a01b031661268a84610869565b6001600160a01b031614949350505050565b826001600160a01b03166126af8261254b565b6001600160a01b0316146127135760405162461bcd60e51b815260206004820152602560248201527f4552433732313a207472616e736665722066726f6d20696e636f72726563742060448201526437bbb732b960d91b6064820152608401610904565b6001600160a01b0382166127755760405162461bcd60e51b8152602060048201526024808201527f4552433732313a207472616e7366657220746f20746865207a65726f206164646044820152637265737360e01b6064820152608401610904565b826001600160a01b03166127888261254b565b6001600160a01b0316146127ec5760405162461bcd60e51b815260206004820152602560248201527f4552433732313a207472616e736665722066726f6d20696e636f72726563742060448201526437bbb732b960d91b6064820152608401610904565b600081815260696020908152604080832080546001600160a01b03199081169091556001600160a01b0387811680865260688552838620805460001901905590871680865283862080546001019055868652606790945282852080549092168417909155905184937fddf252ad1be2c89b69c2b068fc378daa952ba7f163c4a11628f55a4df523b3ef91a4505050565b60008181526101fc6020526040812054610f196101f9826133c9565b6000610f1983836133d5565b611098612a4c565b7f4910fdfa16fed3260ed0e7147f7cc6da11a60208b5b9406d12a635614ffd91435460ff16156128df576109a5836133ff565b826001600160a01b03166352d1902d6040518163ffffffff1660e01b8152600401602060405180830381865afa925050508015612939575060408051601f3d908101601f19168201909252612936918101906146e6565b60015b6129ab5760405162461bcd60e51b815260206004820152602e60248201527f45524331393637557067726164653a206e657720696d706c656d656e7461746960448201527f6f6e206973206e6f7420555550530000000000000000000000000000000000006064820152608401610904565b7f360894a13ba1a3210667c828492db98dca3e2076cc3735a920a3ca505d382bbc8114612a405760405162461bcd60e51b815260206004820152602960248201527f45524331393637557067726164653a20756e737570706f727465642070726f7860448201527f6961626c655555494400000000000000000000000000000000000000000000006064820152608401610904565b506109a58383836134bd565b60fb546001600160a01b031633146110ab5760405162461bcd60e51b815260206004820181905260248201527f4f776e61626c653a2063616c6c6572206973206e6f7420746865206f776e65726044820152606401610904565b612aae6134e2565b60c9805460ff191690557f5db9ee0a495bf2e6ff9c91a7834c1ba4fdd244a5e8aa4e537bd38aeae4b073aa335b6040516001600160a01b03909116815260200160405180910390a1565b60006122af848484613534565b60006107d1825490565b60fb80546001600160a01b038381166001600160a01b0319831681179093556040519116919082907f8be0079c531659141344cd1fd0a4f28419497f9722a3daafe3b4186f6b6457e090600090a35050565b60026101c35403612bb45760405162461bcd60e51b815260206004820152601f60248201527f5265656e7472616e637947756172643a207265656e7472616e742063616c6c006044820152606401610904565b60026101c355565b61129b828260405180602001604052806000815250613580565b6000828152606760205260409020546001600160a01b0316612c605760405162461bcd60e51b815260206004820152602e60248201527f45524337323155524953746f726167653a2055524920736574206f66206e6f6e60448201527f6578697374656e7420746f6b656e0000000000000000000000000000000000006064820152608401610904565b60008281526097602052604090206109a58282614610565b6109a56101f982846135fe565b6001600160a01b03821660009081526101f8602052604090206109a59082613614565b60008911612cf85760405162461bcd60e51b815260206004820152601c60248201527f5072696365206d757374206265206174206c65617374203120776569000000006044820152606401610904565b6001600160a01b038416612d4e5760405162461bcd60e51b815260206004820181905260248201527f4552433732313a206d696e7420746f20746865207a65726f20616464726573736044820152606401610904565b60008b5111612d9f5760405162461bcd60e51b815260206004820152601360248201527f546f6b656e2075726c2069732020656d707479000000000000000000000000006044820152606401610904565b60006040518061018001604052808e81526020018b81526020018a8152602001878152602001848152602001428152602001866001600160a01b031681526020018d81526020018c8152602001898152602001888152602001858152509050806101f76000848152602001908152602001600020600082015181600001556020820151816001015560408201518160020155606082015181600301556080820151816004015560a0820151816005015560c08201518160060160006101000a8154816001600160a01b0302191690836001600160a01b0316021790555060e0820151816007019081612e919190614610565b506101008201516008820190612ea79082614610565b506101208201516009820190612ebd9082614610565b50610140820151600a820190612ed39082614610565b50610160820151600b820190612ee99082614610565b5050604051612efa91508d90614530565b60405180910390207f559ec41a5550336295d32c5d36cb700618ce142acec86ae0b0555fb1ae7d65998e8d8d8d8d8d8d8d8d8d8d42604051612f479c9b9a999897969594939291906146ff565b60405180910390a250505050505050505050505050565b60016101c355565b612f6e613620565b60c9805460ff191660011790557f62e78cea01bee320cd4e420270b5ea74000d11b0c9f74754ebdbfc544b05a258612adb3390565b816001600160a01b0316836001600160a01b0316036130045760405162461bcd60e51b815260206004820152601960248201527f4552433732313a20617070726f766520746f2063616c6c6572000000000000006044820152606401610904565b6001600160a01b038381166000818152606a6020908152604080832094871680845294825291829020805460ff191686151590811790915591519182527f17307eab39ab6107e8899845ad3d59bd9653f200f220920489ca2b5937696c31910160405180910390a3505050565b61307c84848461269c565b61308884848484613673565b6121d65760405162461bcd60e51b815260206004820152603260248201527f4552433732313a207472616e7366657220746f206e6f6e20455243373231526560448201527131b2b4bb32b91034b6b83632b6b2b73a32b960711b6064820152608401610904565b60606130fa826124e7565b60008281526097602052604081208054613113906144d5565b80601f016020809104026020016040519081016040528092919081815260200182805461313f906144d5565b801561318c5780601f106131615761010080835404028352916020019161318c565b820191906000526020600020905b81548152906001019060200180831161316f57829003601f168201915b50505050509050600061319d6137bf565b905080516000036131af575092915050565b8151156131e15780826040516020016131c992919061479f565b60405160208183030381529060405292505050919050565b6122af846137cf565b600054610100900460ff166132435760405162461bcd60e51b815260206004820152602b602482015260008051602061484783398151915260448201526a6e697469616c697a696e6760a81b6064820152608401610904565b61129b8282613835565b600054610100900460ff166110ab5760405162461bcd60e51b815260206004820152602b602482015260008051602061484783398151915260448201526a6e697469616c697a696e6760a81b6064820152608401610904565b600054610100900460ff166132ff5760405162461bcd60e51b815260206004820152602b602482015260008051602061484783398151915260448201526a6e697469616c697a696e6760a81b6064820152608401610904565b6110ab6138a7565b600054610100900460ff166133605760405162461bcd60e51b815260206004820152602b602482015260008051602061484783398151915260448201526a6e697469616c697a696e6760a81b6064820152608401610904565b6110ab61390c565b600054610100900460ff166133c15760405162461bcd60e51b815260206004820152602b602482015260008051602061484783398151915260448201526a6e697469616c697a696e6760a81b6064820152608401610904565b6110ab61396e565b6000610f1983836139c7565b60008260000182815481106133ec576133ec6146d0565b9060005260206000200154905092915050565b6001600160a01b0381163b61347c5760405162461bcd60e51b815260206004820152602d60248201527f455243313936373a206e657720696d706c656d656e746174696f6e206973206e60448201527f6f74206120636f6e7472616374000000000000000000000000000000000000006064820152608401610904565b7f360894a13ba1a3210667c828492db98dca3e2076cc3735a920a3ca505d382bbc80546001600160a01b0319166001600160a01b0392909216919091179055565b6134c6836139d3565b6000825111806134d35750805b156109a5576121d68383613a13565b60c95460ff166110ab5760405162461bcd60e51b815260206004820152601460248201527f5061757361626c653a206e6f74207061757365640000000000000000000000006044820152606401610904565b600082815260028401602052604081205480151580613558575061355885856139c7565b83906135775760405162461bcd60e51b81526004016109049190613f75565b50949350505050565b61358a8383613b1e565b6135976000848484613673565b6109a55760405162461bcd60e51b815260206004820152603260248201527f4552433732313a207472616e7366657220746f206e6f6e20455243373231526560448201527131b2b4bb32b91034b6b83632b6b2b73a32b960711b6064820152608401610904565b60006122af84846001600160a01b038516613ca9565b6000610f198383613cc6565b60c95460ff16156110ab5760405162461bcd60e51b815260206004820152601060248201527f5061757361626c653a20706175736564000000000000000000000000000000006044820152606401610904565b60006001600160a01b0384163b156137b457604051630a85bd0160e11b81526001600160a01b0385169063150b7a02906136b79033908990889088906004016147ce565b6020604051808303816000875af19250505080156136f2575060408051601f3d908101601f191682019092526136ef91810190614800565b60015b61379a573d808015613720576040519150601f19603f3d011682016040523d82523d6000602084013e613725565b606091505b5080516000036137925760405162461bcd60e51b815260206004820152603260248201527f4552433732313a207472616e7366657220746f206e6f6e20455243373231526560448201527131b2b4bb32b91034b6b83632b6b2b73a32b960711b6064820152608401610904565b805181602001fd5b6001600160e01b031916630a85bd0160e11b1490506122af565b506001949350505050565b60606101f580546107e6906144d5565b60606137da826124e7565b60006137e46137bf565b905060008151116138045760405180602001604052806000815250610f19565b8061380e84613d15565b60405160200161381f92919061479f565b6040516020818303038152906040529392505050565b600054610100900460ff1661388e5760405162461bcd60e51b815260206004820152602b602482015260008051602061484783398151915260448201526a6e697469616c697a696e6760a81b6064820152608401610904565b606561389a8382614610565b5060666109a58282614610565b600054610100900460ff166139005760405162461bcd60e51b815260206004820152602b602482015260008051602061484783398151915260448201526a6e697469616c697a696e6760a81b6064820152608401610904565b60c9805460ff19169055565b600054610100900460ff166139655760405162461bcd60e51b815260206004820152602b602482015260008051602061484783398151915260448201526a6e697469616c697a696e6760a81b6064820152608401610904565b6110ab33612b0f565b600054610100900460ff16612f5e5760405162461bcd60e51b815260206004820152602b602482015260008051602061484783398151915260448201526a6e697469616c697a696e6760a81b6064820152608401610904565b6000610f198383613db5565b6139dc816133ff565b6040516001600160a01b038216907fbc7cd75a20ee27fd9adebab32041f755214dbc6bffa90cc0225b39da2e5c2d3b90600090a250565b60606001600160a01b0383163b613a925760405162461bcd60e51b815260206004820152602660248201527f416464726573733a2064656c65676174652063616c6c20746f206e6f6e2d636f60448201527f6e747261637400000000000000000000000000000000000000000000000000006064820152608401610904565b600080846001600160a01b031684604051613aad9190614530565b600060405180830381855af49150503d8060008114613ae8576040519150601f19603f3d011682016040523d82523d6000602084013e613aed565b606091505b5091509150613b15828260405180606001604052806027815260200161486760279139613dcd565b95945050505050565b6001600160a01b038216613b745760405162461bcd60e51b815260206004820181905260248201527f4552433732313a206d696e7420746f20746865207a65726f20616464726573736044820152606401610904565b6000818152606760205260409020546001600160a01b031615613bd95760405162461bcd60e51b815260206004820152601c60248201527f4552433732313a20746f6b656e20616c7265616479206d696e746564000000006044820152606401610904565b6000818152606760205260409020546001600160a01b031615613c3e5760405162461bcd60e51b815260206004820152601c60248201527f4552433732313a20746f6b656e20616c7265616479206d696e746564000000006044820152606401610904565b6001600160a01b038216600081815260686020908152604080832080546001019055848352606790915280822080546001600160a01b0319168417905551839291907fddf252ad1be2c89b69c2b068fc378daa952ba7f163c4a11628f55a4df523b3ef908290a45050565b600082815260028401602052604081208290556122af8484613614565b6000818152600183016020526040812054613d0d575081546001818101845560008481526020808220909301849055845484825282860190935260409020919091556107d1565b5060006107d1565b60606000613d2283613de6565b600101905060008167ffffffffffffffff811115613d4257613d42614137565b6040519080825280601f01601f191660200182016040528015613d6c576020820181803683370190505b5090508181016020015b600019017f3031323334353637383961626364656600000000000000000000000000000000600a86061a8153600a8504945084613d7657509392505050565b60008181526001830160205260408120541515610f19565b60608315613ddc575081610f19565b610f198383613ec8565b6000807a184f03e93ff9f4daa797ed6e38ed64bf6a1f0100000000000000008310613e2f577a184f03e93ff9f4daa797ed6e38ed64bf6a1f010000000000000000830492506040015b6d04ee2d6d415b85acef81000000008310613e5b576d04ee2d6d415b85acef8100000000830492506020015b662386f26fc100008310613e7957662386f26fc10000830492506010015b6305f5e1008310613e91576305f5e100830492506008015b6127108310613ea557612710830492506004015b60648310613eb7576064830492506002015b600a83106107d15760010192915050565b815115613ed85781518083602001fd5b8060405162461bcd60e51b81526004016109049190613f75565b6001600160e01b03198116811461109857600080fd5b600060208284031215613f1a57600080fd5b8135610f1981613ef2565b60005b83811015613f40578181015183820152602001613f28565b50506000910152565b60008151808452613f61816020860160208601613f25565b601f01601f19169290920160200192915050565b602081526000610f196020830184613f49565b600060208284031215613f9a57600080fd5b5035919050565b80356001600160a01b0381168114613fb857600080fd5b919050565b60008060408385031215613fd057600080fd5b613fd983613fa1565b946020939093013593505050565b600080600060608486031215613ffc57600080fd5b61400584613fa1565b925061401360208501613fa1565b9150604084013590509250925092565b6000610180825184526020830151602085015260408301516040850152606083015160608501526080830151608085015260a083015160a085015260c083015161407860c08601826001600160a01b03169052565b5060e08301518160e086015261409082860182613f49565b91505061010080840151858303828701526140ab8382613f49565b9250505061012080840151858303828701526140c78382613f49565b9250505061014080840151858303828701526140e38382613f49565b9250505061016080840151858303828701526140ff8382613f49565b9695505050505050565b602081526000610f196020830184614023565b60006020828403121561412e57600080fd5b610f1982613fa1565b634e487b7160e01b600052604160045260246000fd5b600082601f83011261415e57600080fd5b813567ffffffffffffffff8082111561417957614179614137565b604051601f8301601f19908116603f011681019082821181831017156141a1576141a1614137565b816040528381528660208588010111156141ba57600080fd5b836020870160208301376000602085830101528094505050505092915050565b600080604083850312156141ed57600080fd5b6141f683613fa1565b9150602083013567ffffffffffffffff81111561421257600080fd5b61421e8582860161414d565b9150509250929050565b60006020828403121561423a57600080fd5b813567ffffffffffffffff81111561425157600080fd5b6122af8482850161414d565b6000602080830181845280855180835260408601915060408160051b870101925083870160005b828110156142b257603f198886030184526142a0858351614023565b94509285019290850190600101614284565b5092979650505050505050565b60008060008060008060008060008060006101608c8e0312156142e157600080fd5b8b359a5067ffffffffffffffff8060208e013511156142ff57600080fd5b61430f8e60208f01358f0161414d565b9a508060408e0135111561432257600080fd5b6143328e60408f01358f0161414d565b995060608d0135985060808d013597508060a08e0135111561435357600080fd5b6143638e60a08f01358f0161414d565b96508060c08e0135111561437657600080fd5b6143868e60c08f01358f0161414d565b955060e08d0135945061439c6101008e01613fa1565b9350806101208e013511156143b057600080fd5b506143c28d6101208e01358e0161414d565b91506101408c013590509295989b509295989b9093969950565b600080604083850312156143ef57600080fd5b50508035926020909101359150565b6000806040838503121561441157600080fd5b61441a83613fa1565b91506020830135801515811461442f57600080fd5b809150509250929050565b6000806000806080858703121561445057600080fd5b61445985613fa1565b935061446760208601613fa1565b925060408501359150606085013567ffffffffffffffff81111561448a57600080fd5b6144968782880161414d565b91505092959194509250565b600080604083850312156144b557600080fd5b6144be83613fa1565b91506144cc60208401613fa1565b90509250929050565b600181811c908216806144e957607f821691505b60208210810361450957634e487b7160e01b600052602260045260246000fd5b50919050565b808201808211156107d157634e487b7160e01b600052601160045260246000fd5b60008251614542818460208701613f25565b9190910192915050565b600080835461455a816144d5565b600182811680156145725760018114614587576145b6565b60ff19841687528215158302870194506145b6565b8760005260208060002060005b858110156145ad5781548a820152908401908201614594565b50505082870194505b50929695505050505050565b601f8211156109a557600081815260208120601f850160051c810160208610156145e95750805b601f850160051c820191505b81811015614608578281556001016145f5565b505050505050565b815167ffffffffffffffff81111561462a5761462a614137565b61463e8161463884546144d5565b846145c2565b602080601f831160018114614673576000841561465b5750858301515b600019600386901b1c1916600185901b178555614608565b600085815260208120601f198616915b828110156146a257888601518255948401946001909101908401614683565b50858210156146c05787850151600019600388901b60f8161c191681555b5050505050600190811b01905550565b634e487b7160e01b600052603260045260246000fd5b6000602082840312156146f857600080fd5b5051919050565b60006101808e83528060208401526147198184018f613f49565b90508c60408401528b60608401528281036080840152614739818c613f49565b905082810360a084015261474d818b613f49565b90508860c08401526001600160a01b03881660e08401528281036101008401526147778188613f49565b6101208401969096525050610140810192909252610160909101529998505050505050505050565b600083516147b1818460208801613f25565b8351908301906147c5818360208801613f25565b01949350505050565b60006001600160a01b038087168352808616602084015250836040830152608060608301526140ff6080830184613f49565b60006020828403121561481257600080fd5b8151610f1981613ef256fe4552433732313a206f776e657220717565727920666f72206e6f6e6578697374656e7420746f6b656e496e697469616c697a61626c653a20636f6e7472616374206973206e6f742069416464726573733a206c6f772d6c6576656c2064656c65676174652063616c6c206661696c6564a164736f6c6343000810000a",
  "linkReferences": {},
  "deployedLinkReferences": {}
}