{
  "_format": "hh-sol-artifact-1",
  "contractName": "SytemapAssetRegistry",
  "sourceName": "contracts/SytemapAssetRegistry.sol",
  "abi": [
    {
      "inputs": [
        {
          "internalType": "string",
          "name": "baseURI",
          "type": "string"
        }
      ],
      "stateMutability": "nonpayable",
      "type": "constructor"
    },
    {
      "anonymous": false,
      "inputs": [
        {
          "indexed": true,
          "internalType": "address",
          "name": "owner",
          "type": "address"
        },
        {
          "indexed": true,
          "internalType": "address",
          "name": "approved",
          "type": "address"
        },
        {
          "indexed": true,
          "internalType": "uint256",
          "name": "tokenId",
          "type": "uint256"
        }
      ],
      "name": "Approval",
      "type": "event"
    },
    {
      "anonymous": false,
      "inputs": [
        {
          "indexed": true,
          "internalType": "address",
          "name": "owner",
          "type": "address"
        },
        {
          "indexed": true,
          "internalType": "address",
          "name": "operator",
          "type": "address"
        },
        {
          "indexed": false,
          "internalType": "bool",
          "name": "approved",
          "type": "bool"
        }
      ],
      "name": "ApprovalForAll",
      "type": "event"
    },
    {
      "anonymous": false,
      "inputs": [
        {
          "indexed": false,
          "internalType": "uint256",
          "name": "plotNo",
          "type": "uint256"
        },
        {
          "indexed": true,
          "internalType": "string",
          "name": "tokenURL",
          "type": "string"
        },
        {
          "indexed": false,
          "internalType": "string",
          "name": "estateName",
          "type": "string"
        },
        {
          "indexed": false,
          "internalType": "uint256",
          "name": "priceOfPlot",
          "type": "uint256"
        },
        {
          "indexed": false,
          "internalType": "uint256",
          "name": "sizeOfPlot",
          "type": "uint256"
        },
        {
          "indexed": false,
          "internalType": "string",
          "name": "plotUrl",
          "type": "string"
        },
        {
          "indexed": false,
          "internalType": "string",
          "name": "dateOfAllocation",
          "type": "string"
        },
        {
          "indexed": false,
          "internalType": "uint256",
          "name": "coordinateOfPlot",
          "type": "uint256"
        },
        {
          "indexed": false,
          "internalType": "address",
          "name": "buyerWalletId",
          "type": "address"
        },
        {
          "indexed": false,
          "internalType": "string",
          "name": "estateCompanyName",
          "type": "string"
        },
        {
          "indexed": false,
          "internalType": "uint256",
          "name": "propertyVerificationNo",
          "type": "uint256"
        },
        {
          "indexed": false,
          "internalType": "uint256",
          "name": "tokenId",
          "type": "uint256"
        },
        {
          "indexed": false,
          "internalType": "uint256",
          "name": "timestamp",
          "type": "uint256"
        }
      ],
      "name": "NewPropertyInfoAdded",
      "type": "event"
    },
    {
      "anonymous": false,
      "inputs": [
        {
          "indexed": true,
          "internalType": "address",
          "name": "previousOwner",
          "type": "address"
        },
        {
          "indexed": true,
          "internalType": "address",
          "name": "newOwner",
          "type": "address"
        }
      ],
      "name": "OwnershipTransferred",
      "type": "event"
    },
    {
      "anonymous": false,
      "inputs": [
        {
          "indexed": false,
          "internalType": "address",
          "name": "owner",
          "type": "address"
        },
        {
          "indexed": false,
          "internalType": "uint256",
          "name": "propertyVerificationNo",
          "type": "uint256"
        },
        {
          "indexed": false,
          "internalType": "uint256",
          "name": "newPrice",
          "type": "uint256"
        }
      ],
      "name": "PropertyInfoPriceChanged",
      "type": "event"
    },
    {
      "anonymous": false,
      "inputs": [
        {
          "indexed": true,
          "internalType": "uint256",
          "name": "tokenId",
          "type": "uint256"
        },
        {
          "indexed": true,
          "internalType": "uint256",
          "name": "propertyVerificationNo",
          "type": "uint256"
        },
        {
          "indexed": false,
          "internalType": "string",
          "name": "tokenURL",
          "type": "string"
        }
      ],
      "name": "TokenMinted",
      "type": "event"
    },
    {
      "anonymous": false,
      "inputs": [
        {
          "indexed": true,
          "internalType": "address",
          "name": "from",
          "type": "address"
        },
        {
          "indexed": true,
          "internalType": "address",
          "name": "to",
          "type": "address"
        },
        {
          "indexed": true,
          "internalType": "uint256",
          "name": "tokenId",
          "type": "uint256"
        }
      ],
      "name": "Transfer",
      "type": "event"
    },
    {
      "inputs": [],
      "name": "_sytemapName",
      "outputs": [
        {
          "internalType": "string",
          "name": "",
          "type": "string"
        }
      ],
      "stateMutability": "view",
      "type": "function"
    },
    {
      "inputs": [],
      "name": "_sytemapSymbol",
      "outputs": [
        {
          "internalType": "string",
          "name": "",
          "type": "string"
        }
      ],
      "stateMutability": "view",
      "type": "function"
    },
    {
      "inputs": [
        {
          "internalType": "address",
          "name": "to",
          "type": "address"
        },
        {
          "internalType": "uint256",
          "name": "tokenId",
          "type": "uint256"
        }
      ],
      "name": "approve",
      "outputs": [],
      "stateMutability": "nonpayable",
      "type": "function"
    },
    {
      "inputs": [
        {
          "internalType": "address",
          "name": "owner",
          "type": "address"
        }
      ],
      "name": "balanceOf",
      "outputs": [
        {
          "internalType": "uint256",
          "name": "",
          "type": "uint256"
        }
      ],
      "stateMutability": "view",
      "type": "function"
    },
    {
      "inputs": [
        {
          "internalType": "uint256",
          "name": "_propertyVerificationNo",
          "type": "uint256"
        },
        {
          "internalType": "uint256",
          "name": "_priceOfPlot",
          "type": "uint256"
        }
      ],
      "name": "changePropertyPriceByOwner",
      "outputs": [
        {
          "internalType": "bool",
          "name": "",
          "type": "bool"
        }
      ],
      "stateMutability": "nonpayable",
      "type": "function"
    },
    {
      "inputs": [],
      "name": "getAllMintedPropertyDetails",
      "outputs": [
        {
          "components": [
            {
              "internalType": "uint256",
              "name": "plotNo",
              "type": "uint256"
            },
            {
              "internalType": "uint256",
              "name": "priceOfPlot",
              "type": "uint256"
            },
            {
              "internalType": "uint256",
              "name": "sizeOfPlot",
              "type": "uint256"
            },
            {
              "internalType": "uint256",
              "name": "coordinateOfPlot",
              "type": "uint256"
            },
            {
              "internalType": "uint256",
              "name": "propertyVerificationNo",
              "type": "uint256"
            },
            {
              "internalType": "uint256",
              "name": "timestamp",
              "type": "uint256"
            },
            {
              "internalType": "address",
              "name": "buyerWalletId",
              "type": "address"
            },
            {
              "internalType": "string",
              "name": "tokenURL",
              "type": "string"
            },
            {
              "internalType": "string",
              "name": "estateName",
              "type": "string"
            },
            {
              "internalType": "string",
              "name": "plotUrl",
              "type": "string"
            },
            {
              "internalType": "string",
              "name": "dateOfAllocation",
              "type": "string"
            },
            {
              "internalType": "string",
              "name": "estateCompanyName",
              "type": "string"
            }
          ],
          "internalType": "struct ISytemapAssetRegistry.PropertyInffo[]",
          "name": "",
          "type": "tuple[]"
        }
      ],
      "stateMutability": "view",
      "type": "function"
    },
    {
      "inputs": [
        {
          "internalType": "address",
          "name": "owner",
          "type": "address"
        }
      ],
      "name": "getAllPropertyDetailsByOwner",
      "outputs": [
        {
          "components": [
            {
              "internalType": "uint256",
              "name": "plotNo",
              "type": "uint256"
            },
            {
              "internalType": "uint256",
              "name": "priceOfPlot",
              "type": "uint256"
            },
            {
              "internalType": "uint256",
              "name": "sizeOfPlot",
              "type": "uint256"
            },
            {
              "internalType": "uint256",
              "name": "coordinateOfPlot",
              "type": "uint256"
            },
            {
              "internalType": "uint256",
              "name": "propertyVerificationNo",
              "type": "uint256"
            },
            {
              "internalType": "uint256",
              "name": "timestamp",
              "type": "uint256"
            },
            {
              "internalType": "address",
              "name": "buyerWalletId",
              "type": "address"
            },
            {
              "internalType": "string",
              "name": "tokenURL",
              "type": "string"
            },
            {
              "internalType": "string",
              "name": "estateName",
              "type": "string"
            },
            {
              "internalType": "string",
              "name": "plotUrl",
              "type": "string"
            },
            {
              "internalType": "string",
              "name": "dateOfAllocation",
              "type": "string"
            },
            {
              "internalType": "string",
              "name": "estateCompanyName",
              "type": "string"
            }
          ],
          "internalType": "struct ISytemapAssetRegistry.PropertyInffo[]",
          "name": "",
          "type": "tuple[]"
        }
      ],
      "stateMutability": "view",
      "type": "function"
    },
    {
      "inputs": [
        {
          "internalType": "uint256",
          "name": "tokenId",
          "type": "uint256"
        }
      ],
      "name": "getApproved",
      "outputs": [
        {
          "internalType": "address",
          "name": "",
          "type": "address"
        }
      ],
      "stateMutability": "view",
      "type": "function"
    },
    {
      "inputs": [],
      "name": "getNumberOfPropertyTokensMinted",
      "outputs": [
        {
          "internalType": "uint256",
          "name": "",
          "type": "uint256"
        }
      ],
      "stateMutability": "view",
      "type": "function"
    },
    {
      "inputs": [
        {
          "internalType": "uint256",
          "name": "_propertyVerificationNo",
          "type": "uint256"
        }
      ],
      "name": "getPropertyInfoDetailsByPVN",
      "outputs": [
        {
          "components": [
            {
              "internalType": "uint256",
              "name": "plotNo",
              "type": "uint256"
            },
            {
              "internalType": "uint256",
              "name": "priceOfPlot",
              "type": "uint256"
            },
            {
              "internalType": "uint256",
              "name": "sizeOfPlot",
              "type": "uint256"
            },
            {
              "internalType": "uint256",
              "name": "coordinateOfPlot",
              "type": "uint256"
            },
            {
              "internalType": "uint256",
              "name": "propertyVerificationNo",
              "type": "uint256"
            },
            {
              "internalType": "uint256",
              "name": "timestamp",
              "type": "uint256"
            },
            {
              "internalType": "address",
              "name": "buyerWalletId",
              "type": "address"
            },
            {
              "internalType": "string",
              "name": "tokenURL",
              "type": "string"
            },
            {
              "internalType": "string",
              "name": "estateName",
              "type": "string"
            },
            {
              "internalType": "string",
              "name": "plotUrl",
              "type": "string"
            },
            {
              "internalType": "string",
              "name": "dateOfAllocation",
              "type": "string"
            },
            {
              "internalType": "string",
              "name": "estateCompanyName",
              "type": "string"
            }
          ],
          "internalType": "struct ISytemapAssetRegistry.PropertyInffo",
          "name": "",
          "type": "tuple"
        }
      ],
      "stateMutability": "view",
      "type": "function"
    },
    {
      "inputs": [
        {
          "internalType": "uint256",
          "name": "_propertyVerificationNo",
          "type": "uint256"
        }
      ],
      "name": "getPropertyVerificationNoOwner",
      "outputs": [
        {
          "internalType": "address",
          "name": "",
          "type": "address"
        }
      ],
      "stateMutability": "view",
      "type": "function"
    },
    {
      "inputs": [
        {
          "internalType": "address",
          "name": "_owner",
          "type": "address"
        }
      ],
      "name": "getTotalNumberOfPropertyOwnedByAnAddress",
      "outputs": [
        {
          "internalType": "uint256",
          "name": "",
          "type": "uint256"
        }
      ],
      "stateMutability": "view",
      "type": "function"
    },
    {
      "inputs": [
        {
          "internalType": "address",
          "name": "owner",
          "type": "address"
        },
        {
          "internalType": "address",
          "name": "operator",
          "type": "address"
        }
      ],
      "name": "isApprovedForAll",
      "outputs": [
        {
          "internalType": "bool",
          "name": "",
          "type": "bool"
        }
      ],
      "stateMutability": "view",
      "type": "function"
    },
    {
      "inputs": [],
      "name": "name",
      "outputs": [
        {
          "internalType": "string",
          "name": "",
          "type": "string"
        }
      ],
      "stateMutability": "view",
      "type": "function"
    },
    {
      "inputs": [],
      "name": "owner",
      "outputs": [
        {
          "internalType": "address",
          "name": "",
          "type": "address"
        }
      ],
      "stateMutability": "view",
      "type": "function"
    },
    {
      "inputs": [
        {
          "internalType": "uint256",
          "name": "_tokenId",
          "type": "uint256"
        }
      ],
      "name": "ownerOf",
      "outputs": [
        {
          "internalType": "address",
          "name": "",
          "type": "address"
        }
      ],
      "stateMutability": "view",
      "type": "function"
    },
    {
      "inputs": [],
      "name": "renounceOwnership",
      "outputs": [],
      "stateMutability": "nonpayable",
      "type": "function"
    },
    {
      "inputs": [
        {
          "internalType": "uint256",
          "name": "_plotNo",
          "type": "uint256"
        },
        {
          "internalType": "string",
          "name": "_tokenURL",
          "type": "string"
        },
        {
          "internalType": "string",
          "name": "_estateName",
          "type": "string"
        },
        {
          "internalType": "uint256",
          "name": "_priceOfPlot",
          "type": "uint256"
        },
        {
          "internalType": "uint256",
          "name": "_sizeOfPlot",
          "type": "uint256"
        },
        {
          "internalType": "string",
          "name": "_plotUrl",
          "type": "string"
        },
        {
          "internalType": "string",
          "name": "_dateOfAllocation",
          "type": "string"
        },
        {
          "internalType": "uint256",
          "name": "_coordinateOfPlot",
          "type": "uint256"
        },
        {
          "internalType": "address",
          "name": "_buyerWalletId",
          "type": "address"
        },
        {
          "internalType": "string",
          "name": "_estateCompanyName",
          "type": "string"
        },
        {
          "internalType": "uint256",
          "name": "_propertyVerificationNo",
          "type": "uint256"
        }
      ],
      "name": "safeMintNewPropertyInfo",
      "outputs": [],
      "stateMutability": "payable",
      "type": "function"
    },
    {
      "inputs": [
        {
          "internalType": "address",
          "name": "from",
          "type": "address"
        },
        {
          "internalType": "address",
          "name": "to",
          "type": "address"
        },
        {
          "internalType": "uint256",
          "name": "tokenId",
          "type": "uint256"
        }
      ],
      "name": "safeTransferFrom",
      "outputs": [],
      "stateMutability": "nonpayable",
      "type": "function"
    },
    {
      "inputs": [
        {
          "internalType": "address",
          "name": "from",
          "type": "address"
        },
        {
          "internalType": "address",
          "name": "to",
          "type": "address"
        },
        {
          "internalType": "uint256",
          "name": "tokenId",
          "type": "uint256"
        },
        {
          "internalType": "bytes",
          "name": "data",
          "type": "bytes"
        }
      ],
      "name": "safeTransferFrom",
      "outputs": [],
      "stateMutability": "nonpayable",
      "type": "function"
    },
    {
      "inputs": [
        {
          "internalType": "address",
          "name": "operator",
          "type": "address"
        },
        {
          "internalType": "bool",
          "name": "approved",
          "type": "bool"
        }
      ],
      "name": "setApprovalForAll",
      "outputs": [],
      "stateMutability": "nonpayable",
      "type": "function"
    },
    {
      "inputs": [
        {
          "internalType": "bytes4",
          "name": "interfaceId",
          "type": "bytes4"
        }
      ],
      "name": "supportsInterface",
      "outputs": [
        {
          "internalType": "bool",
          "name": "",
          "type": "bool"
        }
      ],
      "stateMutability": "view",
      "type": "function"
    },
    {
      "inputs": [],
      "name": "symbol",
      "outputs": [
        {
          "internalType": "string",
          "name": "",
          "type": "string"
        }
      ],
      "stateMutability": "view",
      "type": "function"
    },
    {
      "inputs": [
        {
          "internalType": "uint256",
          "name": "index",
          "type": "uint256"
        }
      ],
      "name": "tokenByIndex",
      "outputs": [
        {
          "internalType": "uint256",
          "name": "",
          "type": "uint256"
        }
      ],
      "stateMutability": "view",
      "type": "function"
    },
    {
      "inputs": [
        {
          "internalType": "address",
          "name": "owner",
          "type": "address"
        },
        {
          "internalType": "uint256",
          "name": "index",
          "type": "uint256"
        }
      ],
      "name": "tokenOfOwnerByIndex",
      "outputs": [
        {
          "internalType": "uint256",
          "name": "",
          "type": "uint256"
        }
      ],
      "stateMutability": "view",
      "type": "function"
    },
    {
      "inputs": [
        {
          "internalType": "uint256",
          "name": "tokenId",
          "type": "uint256"
        }
      ],
      "name": "tokenURI",
      "outputs": [
        {
          "internalType": "string",
          "name": "",
          "type": "string"
        }
      ],
      "stateMutability": "view",
      "type": "function"
    },
    {
      "inputs": [],
      "name": "totalSupply",
      "outputs": [
        {
          "internalType": "uint256",
          "name": "",
          "type": "uint256"
        }
      ],
      "stateMutability": "view",
      "type": "function"
    },
    {
      "inputs": [
        {
          "internalType": "address",
          "name": "from",
          "type": "address"
        },
        {
          "internalType": "address",
          "name": "to",
          "type": "address"
        },
        {
          "internalType": "uint256",
          "name": "tokenId",
          "type": "uint256"
        }
      ],
      "name": "transferFrom",
      "outputs": [],
      "stateMutability": "nonpayable",
      "type": "function"
    },
    {
      "inputs": [
        {
          "internalType": "address",
          "name": "newOwner",
          "type": "address"
        }
      ],
      "name": "transferOwnership",
      "outputs": [],
      "stateMutability": "nonpayable",
      "type": "function"
    }
  ],
  "bytecode": "0x60806040523480156200001157600080fd5b5060405162003801380380620038018339810160408190526200003491620001eb565b604080518082018252600c81526b29bcba32b6b0b81021b7b4b760a11b6020808301918252835180850190945260048452635354594560e01b90840152815191929162000084916000916200012f565b5080516200009a9060019060208401906200012f565b505050620000b7620000b1620000d960201b60201c565b620000dd565b60016008558051620000d19060099060208401906200012f565b505062000304565b3390565b600680546001600160a01b038381166001600160a01b0319831681179093556040519116919082907f8be0079c531659141344cd1fd0a4f28419497f9722a3daafe3b4186f6b6457e090600090a35050565b8280546200013d90620002c7565b90600052602060002090601f016020900481019282620001615760008555620001ac565b82601f106200017c57805160ff1916838001178555620001ac565b82800160010185558215620001ac579182015b82811115620001ac5782518255916020019190600101906200018f565b50620001ba929150620001be565b5090565b5b80821115620001ba5760008155600101620001bf565b634e487b7160e01b600052604160045260246000fd5b60006020808385031215620001ff57600080fd5b82516001600160401b03808211156200021757600080fd5b818501915085601f8301126200022c57600080fd5b815181811115620002415762000241620001d5565b604051601f8201601f19908116603f011681019083821181831017156200026c576200026c620001d5565b8160405282815288868487010111156200028557600080fd5b600093505b82841015620002a957848401860151818501870152928501926200028a565b82841115620002bb5760008684830101525b98975050505050505050565b600181811c90821680620002dc57607f821691505b60208210811415620002fe57634e487b7160e01b600052602260045260246000fd5b50919050565b6134ed80620003146000396000f3fe6080604052600436106101c25760003560e01c806370a08231116100f7578063a22cb46511610095578063c87b56dd11610064578063c87b56dd1461054c578063e4a9614a1461056c578063e985e9c51461058c578063f2fde38b146105d557600080fd5b8063a22cb465146104d7578063b88d4fde146104f7578063c571929814610517578063c62e55811461052c57600080fd5b80638da5cb5b116100d15780638da5cb5b1461046f57806390cbe7591461048d57806393d3e755146104ad57806395d89b41146104c257600080fd5b806370a0823114610427578063715018a61461044757806380b0fd0a1461045c57600080fd5b806324d75af3116101645780634f6ccce71161013e5780634f6ccce7146103715780635939f777146103915780636352211e146103be57806365b46d53146103de57600080fd5b806324d75af3146102e85780632f745c591461033157806342842e0e1461035157600080fd5b8063095ea7b3116101a0578063095ea7b31461025657806318160ddd1461027857806323b872dd1461029b578063245f0ca4146102bb57600080fd5b806301ffc9a7146101c757806306fdde03146101fc578063081812fc1461021e575b600080fd5b3480156101d357600080fd5b506101e76101e2366004612da3565b6105f5565b60405190151581526020015b60405180910390f35b34801561020857600080fd5b50610211610692565b6040516101f39190612e18565b34801561022a57600080fd5b5061023e610239366004612e2b565b610724565b6040516001600160a01b0390911681526020016101f3565b34801561026257600080fd5b50610276610271366004612e60565b61074b565b005b34801561028457600080fd5b5061028d610882565b6040519081526020016101f3565b3480156102a757600080fd5b506102766102b6366004612e8a565b610893565b3480156102c757600080fd5b506102db6102d6366004612e2b565b61090a565b6040516101f39190612fac565b3480156102f457600080fd5b506102116040518060400160405280600c81526020017f537974656d617020436f696e000000000000000000000000000000000000000081525081565b34801561033d57600080fd5b5061028d61034c366004612e60565b610d4c565b34801561035d57600080fd5b5061027661036c366004612e8a565b610dce565b34801561037d57600080fd5b5061028d61038c366004612e2b565b610de9565b34801561039d57600080fd5b506103b16103ac366004612fbf565b610e4c565b6040516101f39190612fda565b3480156103ca57600080fd5b5061023e6103d9366004612e2b565b6112b1565b3480156103ea57600080fd5b506102116040518060400160405280600481526020017f535459450000000000000000000000000000000000000000000000000000000081525081565b34801561043357600080fd5b5061028d610442366004612fbf565b6112d9565b34801561045357600080fd5b50610276611378565b61027661046a3660046130e8565b61138c565b34801561047b57600080fd5b506006546001600160a01b031661023e565b34801561049957600080fd5b506101e76104a8366004613205565b61155f565b3480156104b957600080fd5b506103b1611710565b3480156104ce57600080fd5b50610211611b73565b3480156104e357600080fd5b506102766104f2366004613227565b611b82565b34801561050357600080fd5b50610276610512366004613263565b611b91565b34801561052357600080fd5b5061028d611c0f565b34801561053857600080fd5b5061028d610547366004612fbf565b611c1a565b34801561055857600080fd5b50610211610567366004612e2b565b611c31565b34801561057857600080fd5b5061023e610587366004612e2b565b611d5c565b34801561059857600080fd5b506101e76105a73660046132df565b6001600160a01b03918216600090815260056020908152604080832093909416825291909152205460ff1690565b3480156105e157600080fd5b506102766105f0366004612fbf565b611d7e565b60006001600160e01b031982167f80ac58cd00000000000000000000000000000000000000000000000000000000148061065857506001600160e01b031982167f5b5e139f00000000000000000000000000000000000000000000000000000000145b8061068c57507f01ffc9a7000000000000000000000000000000000000000000000000000000006001600160e01b03198316145b92915050565b6060600080546106a190613312565b80601f01602080910402602001604051908101604052809291908181526020018280546106cd90613312565b801561071a5780601f106106ef5761010080835404028352916020019161071a565b820191906000526020600020905b8154815290600101906020018083116106fd57829003601f168201915b5050505050905090565b600061072f82611e0e565b506000908152600460205260409020546001600160a01b031690565b600061075682611e72565b9050806001600160a01b0316836001600160a01b031614156107e55760405162461bcd60e51b815260206004820152602160248201527f4552433732313a20617070726f76616c20746f2063757272656e74206f776e6560448201527f720000000000000000000000000000000000000000000000000000000000000060648201526084015b60405180910390fd5b336001600160a01b0382161480610801575061080181336105a7565b6108735760405162461bcd60e51b815260206004820152603d60248201527f4552433732313a20617070726f76652063616c6c6572206973206e6f7420746f60448201527f6b656e206f776e6572206f7220617070726f76656420666f7220616c6c00000060648201526084016107dc565b61087d8383611ed7565b505050565b600061088e600e611f52565b905090565b61089d3382611f5d565b6108ff5760405162461bcd60e51b815260206004820152602d60248201527f4552433732313a2063616c6c6572206973206e6f7420746f6b656e206f776e6560448201526c1c881bdc88185c1c1c9bdd9959609a1b60648201526084016107dc565b61087d838383611fdb565b61097760405180610180016040528060008152602001600081526020016000815260200160008152602001600081526020016000815260200160006001600160a01b0316815260200160608152602001606081526020016060815260200160608152602001606081525090565b610980826121e1565b6109f25760405162461bcd60e51b815260206004820152603360248201527f4552433732313a2070766e20746f6b656e20646f6573206e6f7420657869737460448201527f206f72206e6f74206265656e206d696e7465640000000000000000000000000060648201526084016107dc565b600082815260116020908152604080832054808452600b835292819020815161018081018352815481526001820154938101939093526002810154918301919091526003810154606083015260048101546080830152600581015460a083015260068101546001600160a01b031660c083015260078101805460e084019190610a7a90613312565b80601f0160208091040260200160405190810160405280929190818152602001828054610aa690613312565b8015610af35780601f10610ac857610100808354040283529160200191610af3565b820191906000526020600020905b815481529060010190602001808311610ad657829003601f168201915b50505050508152602001600882018054610b0c90613312565b80601f0160208091040260200160405190810160405280929190818152602001828054610b3890613312565b8015610b855780601f10610b5a57610100808354040283529160200191610b85565b820191906000526020600020905b815481529060010190602001808311610b6857829003601f168201915b50505050508152602001600982018054610b9e90613312565b80601f0160208091040260200160405190810160405280929190818152602001828054610bca90613312565b8015610c175780601f10610bec57610100808354040283529160200191610c17565b820191906000526020600020905b815481529060010190602001808311610bfa57829003601f168201915b50505050508152602001600a82018054610c3090613312565b80601f0160208091040260200160405190810160405280929190818152602001828054610c5c90613312565b8015610ca95780601f10610c7e57610100808354040283529160200191610ca9565b820191906000526020600020905b815481529060010190602001808311610c8c57829003601f168201915b50505050508152602001600b82018054610cc290613312565b80601f0160208091040260200160405190810160405280929190818152602001828054610cee90613312565b8015610d3b5780601f10610d1057610100808354040283529160200191610d3b565b820191906000526020600020905b815481529060010190602001808311610d1e57829003601f168201915b505050505081525050915050919050565b6000610d57836112d9565b8210610da55760405162461bcd60e51b815260206004820152601360248201527f496e646578206f7574206f6620626f756e64730000000000000000000000000060448201526064016107dc565b6001600160a01b0383166000908152600d60205260409020610dc790836121fb565b9392505050565b61087d83838360405180602001604052806000815250611b91565b6000610df3610882565b8210610e415760405162461bcd60e51b815260206004820152601f60248201527f455243373231456e756d657261626c653a20696e76616c696420696e6465780060448201526064016107dc565b61068c826001613363565b60606000610e59836112d9565b905060008167ffffffffffffffff811115610e7657610e7661303c565b604051908082528060200260200182016040528015610f1457816020015b610f0160405180610180016040528060008152602001600081526020016000815260200160008152602001600081526020016000815260200160006001600160a01b0316815260200160608152602001606081526020016060815260200160608152602001606081525090565b815260200190600190039081610e945790505b50905060005b828110156112a9576000610f2e8683610d4c565b6000818152600b6020908152604091829020825161018081018452815481526001820154928101929092526002810154928201929092526003820154606082015260048201546080820152600582015460a082015260068201546001600160a01b031660c0820152600782018054939450909260e084019190610fb090613312565b80601f0160208091040260200160405190810160405280929190818152602001828054610fdc90613312565b80156110295780601f10610ffe57610100808354040283529160200191611029565b820191906000526020600020905b81548152906001019060200180831161100c57829003601f168201915b5050505050815260200160088201805461104290613312565b80601f016020809104026020016040519081016040528092919081815260200182805461106e90613312565b80156110bb5780601f10611090576101008083540402835291602001916110bb565b820191906000526020600020905b81548152906001019060200180831161109e57829003601f168201915b505050505081526020016009820180546110d490613312565b80601f016020809104026020016040519081016040528092919081815260200182805461110090613312565b801561114d5780601f106111225761010080835404028352916020019161114d565b820191906000526020600020905b81548152906001019060200180831161113057829003601f168201915b50505050508152602001600a8201805461116690613312565b80601f016020809104026020016040519081016040528092919081815260200182805461119290613312565b80156111df5780601f106111b4576101008083540402835291602001916111df565b820191906000526020600020905b8154815290600101906020018083116111c257829003601f168201915b50505050508152602001600b820180546111f890613312565b80601f016020809104026020016040519081016040528092919081815260200182805461122490613312565b80156112715780601f1061124657610100808354040283529160200191611271565b820191906000526020600020905b81548152906001019060200180831161125457829003601f168201915b50505050508152505083838151811061128c5761128c61337b565b602002602001018190525050806112a290613391565b9050610f1a565b509392505050565b600061068c826040518060600160405280602981526020016134b860299139600e9190612207565b60006001600160a01b0382166113575760405162461bcd60e51b815260206004820152602a60248201527f4552433732313a2062616c616e636520717565727920666f7220746865207a6560448201527f726f20616464726573730000000000000000000000000000000000000000000060648201526084016107dc565b6001600160a01b0382166000908152600d6020526040902061068c90612214565b61138061221e565b61138a6000612278565b565b61139461221e565b61139c6122d7565b6113a5816121e1565b156113f25760405162461bcd60e51b815260206004820181905260248201527f4552433732313a2070766e20746f6b656e20616c7265616479206d696e74656460448201526064016107dc565b6001600160a01b0383166114485760405162461bcd60e51b815260206004820152601760248201527f4552433732313a20696e76616c6964206164647265737300000000000000000060448201526064016107dc565b6001600160a01b0383163014156114a15760405162461bcd60e51b815260206004820152601760248201527f4552433732313a20696e76616c6964206164647265737300000000000000000060448201526064016107dc565b6114af600a80546001019055565b60006114ba600a5490565b90506114c68483612331565b6114d0828c61234b565b6114da84826123f4565b6114e48482612400565b6114fa8183600090815260116020526040902055565b61150e8c8c8c8c8c8c8c8c8c8c8c8c612422565b81817f30b042f6d29a39b7c10c2dfbd81016db37ea3d11e72ec5764fb0d0f7a1012a3a8d60405161153f9190612e18565b60405180910390a3506115526001600855565b5050505050505050505050565b600061156961221e565b600082116115df5760405162461bcd60e51b815260206004820152602260248201527f506c6f74205072696365206d7573742062652067726561746572207468616e2060448201527f302e00000000000000000000000000000000000000000000000000000000000060648201526084016107dc565b3361162c5760405162461bcd60e51b815260206004820152601760248201527f4552433732313a20696e76616c6964206164647265737300000000000000000060448201526064016107dc565b611635836121e1565b6116a75760405162461bcd60e51b815260206004820152603360248201527f4552433732313a2070766e20746f6b656e20646f6573206e6f7420657869737460448201527f206f72206e6f74206265656e206d696e7465640000000000000000000000000060648201526084016107dc565b600083815260116020908152604080832054808452600b8352928190206001018590558051338152918201869052818101859052517f598b48a1aad5d72fcedbc7ed6aac08ad920501eedca72d3dace23490f11f78129181900360600190a15060019392505050565b6060600061171d600a5490565b905060008167ffffffffffffffff81111561173a5761173a61303c565b6040519080825280602002602001820160405280156117d857816020015b6117c560405180610180016040528060008152602001600081526020016000815260200160008152602001600081526020016000815260200160006001600160a01b0316815260200160608152602001606081526020016060815260200160608152602001606081525090565b8152602001906001900390816117585790505b50905060005b82811015611b6c5760006117f182610de9565b6000818152600b6020908152604091829020825161018081018452815481526001820154928101929092526002810154928201929092526003820154606082015260048201546080820152600582015460a082015260068201546001600160a01b031660c0820152600782018054939450909260e08401919061187390613312565b80601f016020809104026020016040519081016040528092919081815260200182805461189f90613312565b80156118ec5780601f106118c1576101008083540402835291602001916118ec565b820191906000526020600020905b8154815290600101906020018083116118cf57829003601f168201915b5050505050815260200160088201805461190590613312565b80601f016020809104026020016040519081016040528092919081815260200182805461193190613312565b801561197e5780601f106119535761010080835404028352916020019161197e565b820191906000526020600020905b81548152906001019060200180831161196157829003601f168201915b5050505050815260200160098201805461199790613312565b80601f01602080910402602001604051908101604052809291908181526020018280546119c390613312565b8015611a105780601f106119e557610100808354040283529160200191611a10565b820191906000526020600020905b8154815290600101906020018083116119f357829003601f168201915b50505050508152602001600a82018054611a2990613312565b80601f0160208091040260200160405190810160405280929190818152602001828054611a5590613312565b8015611aa25780601f10611a7757610100808354040283529160200191611aa2565b820191906000526020600020905b815481529060010190602001808311611a8557829003601f168201915b50505050508152602001600b82018054611abb90613312565b80601f0160208091040260200160405190810160405280929190818152602001828054611ae790613312565b8015611b345780601f10611b0957610100808354040283529160200191611b34565b820191906000526020600020905b815481529060010190602001808311611b1757829003601f168201915b505050505081525050838381518110611b4f57611b4f61337b565b60200260200101819052505080611b6590613391565b90506117de565b5092915050565b6060600180546106a190613312565b611b8d3383836126fa565b5050565b611b9b3383611f5d565b611bfd5760405162461bcd60e51b815260206004820152602d60248201527f4552433732313a2063616c6c6572206973206e6f7420746f6b656e206f776e6560448201526c1c881bdc88185c1c1c9bdd9959609a1b60648201526084016107dc565b611c09848484846127c9565b50505050565b60008061068c610882565b600033611c2657600080fd5b6000610dc7836112d9565b6000818152600260205260409020546060906001600160a01b0316611cbe5760405162461bcd60e51b815260206004820152603160248201527f45524337323155524953746f726167653a2055524920717565727920666f722060448201527f6e6f6e6578697374656e7420746f6b656e00000000000000000000000000000060648201526084016107dc565b6000828152600c602052604090208054611cd790613312565b80601f0160208091040260200160405190810160405280929190818152602001828054611d0390613312565b8015611d505780601f10611d2557610100808354040283529160200191611d50565b820191906000526020600020905b815481529060010190602001808311611d3357829003601f168201915b50505050509050919050565b6000818152601160205260408120546000611d76826112b1565b949350505050565b611d8661221e565b6001600160a01b038116611e025760405162461bcd60e51b815260206004820152602660248201527f4f776e61626c653a206e6577206f776e657220697320746865207a65726f206160448201527f646472657373000000000000000000000000000000000000000000000000000060648201526084016107dc565b611e0b81612278565b50565b6000818152600260205260409020546001600160a01b0316611e0b5760405162461bcd60e51b815260206004820152601860248201527f4552433732313a20696e76616c696420746f6b656e204944000000000000000060448201526064016107dc565b6000818152600260205260408120546001600160a01b03168061068c5760405162461bcd60e51b815260206004820152601860248201527f4552433732313a20696e76616c696420746f6b656e204944000000000000000060448201526064016107dc565b6000818152600460205260409020805473ffffffffffffffffffffffffffffffffffffffff19166001600160a01b0384169081179091558190611f1982611e72565b6001600160a01b03167f8c5be1e5ebec7d5bd14f71427d1e84f3dd0314c0f7b2291e5b200ac8c7c3b92560405160405180910390a45050565b600061068c82612847565b600080611f6983611e72565b9050806001600160a01b0316846001600160a01b03161480611fb057506001600160a01b0380821660009081526005602090815260408083209388168352929052205460ff165b80611d765750836001600160a01b0316611fc984610724565b6001600160a01b031614949350505050565b826001600160a01b0316611fee82611e72565b6001600160a01b0316146120525760405162461bcd60e51b815260206004820152602560248201527f4552433732313a207472616e736665722066726f6d20696e636f72726563742060448201526437bbb732b960d91b60648201526084016107dc565b6001600160a01b0382166120cd5760405162461bcd60e51b8152602060048201526024808201527f4552433732313a207472616e7366657220746f20746865207a65726f2061646460448201527f726573730000000000000000000000000000000000000000000000000000000060648201526084016107dc565b826001600160a01b03166120e082611e72565b6001600160a01b0316146121445760405162461bcd60e51b815260206004820152602560248201527f4552433732313a207472616e736665722066726f6d20696e636f72726563742060448201526437bbb732b960d91b60648201526084016107dc565b6000818152600460209081526040808320805473ffffffffffffffffffffffffffffffffffffffff199081169091556001600160a01b0387811680865260038552838620805460001901905590871680865283862080546001019055868652600290945282852080549092168417909155905184937fddf252ad1be2c89b69c2b068fc378daa952ba7f163c4a11628f55a4df523b3ef91a4505050565b600081815260116020526040812054610dc7600e82612852565b6000610dc7838361285e565b6000611d76848484612888565b600061068c825490565b6006546001600160a01b0316331461138a5760405162461bcd60e51b815260206004820181905260248201527f4f776e61626c653a2063616c6c6572206973206e6f7420746865206f776e657260448201526064016107dc565b600680546001600160a01b0383811673ffffffffffffffffffffffffffffffffffffffff19831681179093556040519116919082907f8be0079c531659141344cd1fd0a4f28419497f9722a3daafe3b4186f6b6457e090600090a35050565b6002600854141561232a5760405162461bcd60e51b815260206004820152601f60248201527f5265656e7472616e637947756172643a207265656e7472616e742063616c6c0060448201526064016107dc565b6002600855565b611b8d8282604051806020016040528060008152506128d4565b6000828152600260205260409020546001600160a01b03166123d55760405162461bcd60e51b815260206004820152602e60248201527f45524337323155524953746f726167653a2055524920736574206f66206e6f6e60448201527f6578697374656e7420746f6b656e00000000000000000000000000000000000060648201526084016107dc565b6000828152600760209081526040909120825161087d92840190612cf4565b61087d600e8284612952565b6001600160a01b0382166000908152600d6020526040902061087d9082612968565b600089116124725760405162461bcd60e51b815260206004820152601c60248201527f5072696365206d757374206265206174206c656173742031207765690000000060448201526064016107dc565b6001600160a01b0384166124c85760405162461bcd60e51b815260206004820181905260248201527f4552433732313a206d696e7420746f20746865207a65726f206164647265737360448201526064016107dc565b60008b51116125195760405162461bcd60e51b815260206004820152601360248201527f546f6b656e2075726c2069732020656d7074790000000000000000000000000060448201526064016107dc565b60006040518061018001604052808e81526020018b81526020018a8152602001878152602001848152602001428152602001866001600160a01b031681526020018d81526020018c815260200189815260200188815260200185815250905080600b6000848152602001908152602001600020600082015181600001556020820151816001015560408201518160020155606082015181600301556080820151816004015560a0820151816005015560c08201518160060160006101000a8154816001600160a01b0302191690836001600160a01b0316021790555060e0820151816007019080519060200190612611929190612cf4565b50610100820151805161262e916008840191602090910190612cf4565b50610120820151805161264b916009840191602090910190612cf4565b50610140820151805161266891600a840191602090910190612cf4565b50610160820151805161268591600b840191602090910190612cf4565b505060405161269691508d906133ac565b60405180910390207f559ec41a5550336295d32c5d36cb700618ce142acec86ae0b0555fb1ae7d65998e8d8d8d8d8d8d8d8d8d8d426040516126e39c9b9a999897969594939291906133c8565b60405180910390a250505050505050505050505050565b816001600160a01b0316836001600160a01b0316141561275c5760405162461bcd60e51b815260206004820152601960248201527f4552433732313a20617070726f766520746f2063616c6c65720000000000000060448201526064016107dc565b6001600160a01b03838116600081815260056020908152604080832094871680845294825291829020805460ff191686151590811790915591519182527f17307eab39ab6107e8899845ad3d59bd9653f200f220920489ca2b5937696c31910160405180910390a3505050565b6127d4848484611fdb565b6127e084848484612974565b611c095760405162461bcd60e51b815260206004820152603260248201527f4552433732313a207472616e7366657220746f206e6f6e20455243373231526560448201527131b2b4bb32b91034b6b83632b6b2b73a32b960711b60648201526084016107dc565b600061068c82612214565b6000610dc78383612acc565b60008260000182815481106128755761287561337b565b9060005260206000200154905092915050565b6000828152600284016020526040812054801515806128ac57506128ac8585612acc565b83906128cb5760405162461bcd60e51b81526004016107dc9190612e18565b50949350505050565b6128de8383612ad8565b6128eb6000848484612974565b61087d5760405162461bcd60e51b815260206004820152603260248201527f4552433732313a207472616e7366657220746f206e6f6e20455243373231526560448201527131b2b4bb32b91034b6b83632b6b2b73a32b960711b60648201526084016107dc565b6000611d7684846001600160a01b038516612c70565b6000610dc78383612c8d565b60006001600160a01b0384163b15612ac157604051630a85bd0160e11b81526001600160a01b0385169063150b7a02906129b8903390899088908890600401613468565b602060405180830381600087803b1580156129d257600080fd5b505af1925050508015612a02575060408051601f3d908101601f191682019092526129ff9181019061349a565b60015b612aa7573d808015612a30576040519150601f19603f3d011682016040523d82523d6000602084013e612a35565b606091505b508051612a9f5760405162461bcd60e51b815260206004820152603260248201527f4552433732313a207472616e7366657220746f206e6f6e20455243373231526560448201527131b2b4bb32b91034b6b83632b6b2b73a32b960711b60648201526084016107dc565b805181602001fd5b6001600160e01b031916630a85bd0160e11b149050611d76565b506001949350505050565b6000610dc78383612cdc565b6001600160a01b038216612b2e5760405162461bcd60e51b815260206004820181905260248201527f4552433732313a206d696e7420746f20746865207a65726f206164647265737360448201526064016107dc565b6000818152600260205260409020546001600160a01b031615612b935760405162461bcd60e51b815260206004820152601c60248201527f4552433732313a20746f6b656e20616c7265616479206d696e7465640000000060448201526064016107dc565b6000818152600260205260409020546001600160a01b031615612bf85760405162461bcd60e51b815260206004820152601c60248201527f4552433732313a20746f6b656e20616c7265616479206d696e7465640000000060448201526064016107dc565b6001600160a01b0382166000818152600360209081526040808320805460010190558483526002909152808220805473ffffffffffffffffffffffffffffffffffffffff19168417905551839291907fddf252ad1be2c89b69c2b068fc378daa952ba7f163c4a11628f55a4df523b3ef908290a45050565b60008281526002840160205260408120829055611d768484612968565b6000818152600183016020526040812054612cd45750815460018181018455600084815260208082209093018490558454848252828601909352604090209190915561068c565b50600061068c565b60008181526001830160205260408120541515610dc7565b828054612d0090613312565b90600052602060002090601f016020900481019282612d225760008555612d68565b82601f10612d3b57805160ff1916838001178555612d68565b82800160010185558215612d68579182015b82811115612d68578251825591602001919060010190612d4d565b50612d74929150612d78565b5090565b5b80821115612d745760008155600101612d79565b6001600160e01b031981168114611e0b57600080fd5b600060208284031215612db557600080fd5b8135610dc781612d8d565b60005b83811015612ddb578181015183820152602001612dc3565b83811115611c095750506000910152565b60008151808452612e04816020860160208601612dc0565b601f01601f19169290920160200192915050565b602081526000610dc76020830184612dec565b600060208284031215612e3d57600080fd5b5035919050565b80356001600160a01b0381168114612e5b57600080fd5b919050565b60008060408385031215612e7357600080fd5b612e7c83612e44565b946020939093013593505050565b600080600060608486031215612e9f57600080fd5b612ea884612e44565b9250612eb660208501612e44565b9150604084013590509250925092565b6000610180825184526020830151602085015260408301516040850152606083015160608501526080830151608085015260a083015160a085015260c0830151612f1b60c08601826001600160a01b03169052565b5060e08301518160e0860152612f3382860182612dec565b9150506101008084015185830382870152612f4e8382612dec565b925050506101208084015185830382870152612f6a8382612dec565b925050506101408084015185830382870152612f868382612dec565b925050506101608084015185830382870152612fa28382612dec565b9695505050505050565b602081526000610dc76020830184612ec6565b600060208284031215612fd157600080fd5b610dc782612e44565b6000602080830181845280855180835260408601915060408160051b870101925083870160005b8281101561302f57603f1988860301845261301d858351612ec6565b94509285019290850190600101613001565b5092979650505050505050565b634e487b7160e01b600052604160045260246000fd5b600067ffffffffffffffff8084111561306d5761306d61303c565b604051601f8501601f19908116603f011681019082821181831017156130955761309561303c565b816040528093508581528686860111156130ae57600080fd5b858560208301376000602087830101525050509392505050565b600082601f8301126130d957600080fd5b610dc783833560208501613052565b60008060008060008060008060008060006101608c8e03121561310a57600080fd5b8b359a5067ffffffffffffffff8060208e0135111561312857600080fd5b6131388e60208f01358f016130c8565b9a508060408e0135111561314b57600080fd5b61315b8e60408f01358f016130c8565b995060608d0135985060808d013597508060a08e0135111561317c57600080fd5b61318c8e60a08f01358f016130c8565b96508060c08e0135111561319f57600080fd5b6131af8e60c08f01358f016130c8565b955060e08d013594506131c56101008e01612e44565b9350806101208e013511156131d957600080fd5b506131eb8d6101208e01358e016130c8565b91506101408c013590509295989b509295989b9093969950565b6000806040838503121561321857600080fd5b50508035926020909101359150565b6000806040838503121561323a57600080fd5b61324383612e44565b91506020830135801515811461325857600080fd5b809150509250929050565b6000806000806080858703121561327957600080fd5b61328285612e44565b935061329060208601612e44565b925060408501359150606085013567ffffffffffffffff8111156132b357600080fd5b8501601f810187136132c457600080fd5b6132d387823560208401613052565b91505092959194509250565b600080604083850312156132f257600080fd5b6132fb83612e44565b915061330960208401612e44565b90509250929050565b600181811c9082168061332657607f821691505b6020821081141561334757634e487b7160e01b600052602260045260246000fd5b50919050565b634e487b7160e01b600052601160045260246000fd5b600082198211156133765761337661334d565b500190565b634e487b7160e01b600052603260045260246000fd5b60006000198214156133a5576133a561334d565b5060010190565b600082516133be818460208701612dc0565b9190910192915050565b60006101808e83528060208401526133e28184018f612dec565b90508c60408401528b60608401528281036080840152613402818c612dec565b905082810360a0840152613416818b612dec565b90508860c08401526001600160a01b03881660e08401528281036101008401526134408188612dec565b6101208401969096525050610140810192909252610160909101529998505050505050505050565b60006001600160a01b03808716835280861660208401525083604083015260806060830152612fa26080830184612dec565b6000602082840312156134ac57600080fd5b8151610dc781612d8d56fe4552433732313a206f776e657220717565727920666f72206e6f6e6578697374656e7420746f6b656ea164736f6c6343000809000a",
  "linkReferences": {},
  "deployedLinkReferences": {}
}