{
  "_format": "hh-sol-artifact-1",
  "contractName": "SytemapAssetRegistry",
  "sourceName": "contracts/SytemapAssetRegistry.sol",
  "abi": [
    {
      "anonymous": false,
      "inputs": [
        {
          "indexed": false,
          "internalType": "address",
          "name": "previousAdmin",
          "type": "address"
        },
        {
          "indexed": false,
          "internalType": "address",
          "name": "newAdmin",
          "type": "address"
        }
      ],
      "name": "AdminChanged",
      "type": "event"
    },
    {
      "anonymous": false,
      "inputs": [
        {
          "indexed": true,
          "internalType": "address",
          "name": "owner",
          "type": "address"
        },
        {
          "indexed": true,
          "internalType": "address",
          "name": "approved",
          "type": "address"
        },
        {
          "indexed": true,
          "internalType": "uint256",
          "name": "tokenId",
          "type": "uint256"
        }
      ],
      "name": "Approval",
      "type": "event"
    },
    {
      "anonymous": false,
      "inputs": [
        {
          "indexed": true,
          "internalType": "address",
          "name": "owner",
          "type": "address"
        },
        {
          "indexed": true,
          "internalType": "address",
          "name": "operator",
          "type": "address"
        },
        {
          "indexed": false,
          "internalType": "bool",
          "name": "approved",
          "type": "bool"
        }
      ],
      "name": "ApprovalForAll",
      "type": "event"
    },
    {
      "anonymous": false,
      "inputs": [
        {
          "indexed": true,
          "internalType": "string",
          "name": "oldValue",
          "type": "string"
        },
        {
          "indexed": true,
          "internalType": "string",
          "name": "newValue",
          "type": "string"
        }
      ],
      "name": "BaseURIUpdated",
      "type": "event"
    },
    {
      "anonymous": false,
      "inputs": [
        {
          "indexed": true,
          "internalType": "address",
          "name": "beacon",
          "type": "address"
        }
      ],
      "name": "BeaconUpgraded",
      "type": "event"
    },
    {
      "anonymous": false,
      "inputs": [
        {
          "indexed": false,
          "internalType": "uint8",
          "name": "version",
          "type": "uint8"
        }
      ],
      "name": "Initialized",
      "type": "event"
    },
    {
      "anonymous": false,
      "inputs": [
        {
          "indexed": false,
          "internalType": "string",
          "name": "plotNo",
          "type": "string"
        },
        {
          "indexed": false,
          "internalType": "uint256",
          "name": "propertyVerificationNo",
          "type": "uint256"
        },
        {
          "indexed": false,
          "internalType": "uint256",
          "name": "tokenId",
          "type": "uint256"
        },
        {
          "indexed": false,
          "internalType": "uint256",
          "name": "timestamp",
          "type": "uint256"
        },
        {
          "indexed": false,
          "internalType": "uint256",
          "name": "priceOfPlot",
          "type": "uint256"
        },
        {
          "indexed": false,
          "internalType": "address",
          "name": "buyerWalletId",
          "type": "address"
        },
        {
          "indexed": true,
          "internalType": "string",
          "name": "tokenURL",
          "type": "string"
        },
        {
          "indexed": false,
          "internalType": "string",
          "name": "estateName",
          "type": "string"
        },
        {
          "indexed": false,
          "internalType": "string",
          "name": "sizeOfPlot",
          "type": "string"
        },
        {
          "indexed": false,
          "internalType": "string",
          "name": "plotUrl",
          "type": "string"
        },
        {
          "indexed": false,
          "internalType": "string",
          "name": "dateOfAllocation",
          "type": "string"
        },
        {
          "indexed": false,
          "internalType": "string",
          "name": "coordinateOfPlot",
          "type": "string"
        },
        {
          "indexed": false,
          "internalType": "string",
          "name": "estateCompanyName",
          "type": "string"
        }
      ],
      "name": "NewPropertyInfoAdded",
      "type": "event"
    },
    {
      "anonymous": false,
      "inputs": [
        {
          "indexed": true,
          "internalType": "address",
          "name": "previousOwner",
          "type": "address"
        },
        {
          "indexed": true,
          "internalType": "address",
          "name": "newOwner",
          "type": "address"
        }
      ],
      "name": "OwnershipTransferred",
      "type": "event"
    },
    {
      "anonymous": false,
      "inputs": [
        {
          "indexed": false,
          "internalType": "address",
          "name": "account",
          "type": "address"
        }
      ],
      "name": "Paused",
      "type": "event"
    },
    {
      "anonymous": false,
      "inputs": [
        {
          "indexed": false,
          "internalType": "address",
          "name": "owner",
          "type": "address"
        },
        {
          "indexed": false,
          "internalType": "uint256",
          "name": "propertyVerificationNo",
          "type": "uint256"
        },
        {
          "indexed": false,
          "internalType": "uint256",
          "name": "newPrice",
          "type": "uint256"
        }
      ],
      "name": "PropertyInfoPriceChanged",
      "type": "event"
    },
    {
      "anonymous": false,
      "inputs": [
        {
          "indexed": true,
          "internalType": "address",
          "name": "from",
          "type": "address"
        },
        {
          "indexed": true,
          "internalType": "address",
          "name": "to",
          "type": "address"
        },
        {
          "indexed": true,
          "internalType": "uint256",
          "name": "tokenId",
          "type": "uint256"
        }
      ],
      "name": "Transfer",
      "type": "event"
    },
    {
      "anonymous": false,
      "inputs": [
        {
          "indexed": false,
          "internalType": "address",
          "name": "account",
          "type": "address"
        }
      ],
      "name": "Unpaused",
      "type": "event"
    },
    {
      "anonymous": false,
      "inputs": [
        {
          "indexed": true,
          "internalType": "address",
          "name": "implementation",
          "type": "address"
        }
      ],
      "name": "Upgraded",
      "type": "event"
    },
    {
      "inputs": [],
      "name": "SYTEMAP_SYMBOL",
      "outputs": [
        {
          "internalType": "string",
          "name": "",
          "type": "string"
        }
      ],
      "stateMutability": "view",
      "type": "function"
    },
    {
      "inputs": [
        {
          "internalType": "address",
          "name": "to",
          "type": "address"
        },
        {
          "internalType": "uint256",
          "name": "tokenId",
          "type": "uint256"
        }
      ],
      "name": "approve",
      "outputs": [],
      "stateMutability": "nonpayable",
      "type": "function"
    },
    {
      "inputs": [
        {
          "internalType": "address",
          "name": "_owner",
          "type": "address"
        }
      ],
      "name": "balanceOf",
      "outputs": [
        {
          "internalType": "uint256",
          "name": "",
          "type": "uint256"
        }
      ],
      "stateMutability": "view",
      "type": "function"
    },
    {
      "inputs": [
        {
          "internalType": "uint256",
          "name": "tokenId",
          "type": "uint256"
        }
      ],
      "name": "burn",
      "outputs": [],
      "stateMutability": "nonpayable",
      "type": "function"
    },
    {
      "inputs": [
        {
          "internalType": "uint256",
          "name": "_propertyVerificationNo",
          "type": "uint256"
        },
        {
          "internalType": "uint256",
          "name": "_priceOfPlot",
          "type": "uint256"
        }
      ],
      "name": "changePropertyPriceByOwner",
      "outputs": [
        {
          "internalType": "bool",
          "name": "",
          "type": "bool"
        }
      ],
      "stateMutability": "nonpayable",
      "type": "function"
    },
    {
      "inputs": [],
      "name": "getAllMintedPropertyDetails",
      "outputs": [
        {
          "components": [
            {
              "internalType": "uint256",
              "name": "priceOfPlot",
              "type": "uint256"
            },
            {
              "internalType": "uint256",
              "name": "propertyVerificationNo",
              "type": "uint256"
            },
            {
              "internalType": "uint256",
              "name": "timestamp",
              "type": "uint256"
            },
            {
              "internalType": "address",
              "name": "buyerWalletId",
              "type": "address"
            },
            {
              "internalType": "string",
              "name": "plotNo",
              "type": "string"
            },
            {
              "internalType": "string",
              "name": "sizeOfPlot",
              "type": "string"
            },
            {
              "internalType": "string",
              "name": "coordinateOfPlot",
              "type": "string"
            },
            {
              "internalType": "string",
              "name": "tokenURL",
              "type": "string"
            },
            {
              "internalType": "string",
              "name": "estateName",
              "type": "string"
            },
            {
              "internalType": "string",
              "name": "plotUrl",
              "type": "string"
            },
            {
              "internalType": "string",
              "name": "dateOfAllocation",
              "type": "string"
            },
            {
              "internalType": "string",
              "name": "estateCompanyName",
              "type": "string"
            },
            {
              "internalType": "string",
              "name": "nftAddress",
              "type": "string"
            }
          ],
          "internalType": "struct ISytemapAssetRegistry.PropertyInffo[]",
          "name": "",
          "type": "tuple[]"
        }
      ],
      "stateMutability": "view",
      "type": "function"
    },
    {
      "inputs": [
        {
          "internalType": "address",
          "name": "_owner",
          "type": "address"
        }
      ],
      "name": "getAllPropertyDetailsByOwner",
      "outputs": [
        {
          "components": [
            {
              "internalType": "uint256",
              "name": "priceOfPlot",
              "type": "uint256"
            },
            {
              "internalType": "uint256",
              "name": "propertyVerificationNo",
              "type": "uint256"
            },
            {
              "internalType": "uint256",
              "name": "timestamp",
              "type": "uint256"
            },
            {
              "internalType": "address",
              "name": "buyerWalletId",
              "type": "address"
            },
            {
              "internalType": "string",
              "name": "plotNo",
              "type": "string"
            },
            {
              "internalType": "string",
              "name": "sizeOfPlot",
              "type": "string"
            },
            {
              "internalType": "string",
              "name": "coordinateOfPlot",
              "type": "string"
            },
            {
              "internalType": "string",
              "name": "tokenURL",
              "type": "string"
            },
            {
              "internalType": "string",
              "name": "estateName",
              "type": "string"
            },
            {
              "internalType": "string",
              "name": "plotUrl",
              "type": "string"
            },
            {
              "internalType": "string",
              "name": "dateOfAllocation",
              "type": "string"
            },
            {
              "internalType": "string",
              "name": "estateCompanyName",
              "type": "string"
            },
            {
              "internalType": "string",
              "name": "nftAddress",
              "type": "string"
            }
          ],
          "internalType": "struct ISytemapAssetRegistry.PropertyInffo[]",
          "name": "",
          "type": "tuple[]"
        }
      ],
      "stateMutability": "view",
      "type": "function"
    },
    {
      "inputs": [
        {
          "internalType": "uint256",
          "name": "tokenId",
          "type": "uint256"
        }
      ],
      "name": "getApproved",
      "outputs": [
        {
          "internalType": "address",
          "name": "",
          "type": "address"
        }
      ],
      "stateMutability": "view",
      "type": "function"
    },
    {
      "inputs": [],
      "name": "getNumberOfPropertyTokensMinted",
      "outputs": [
        {
          "internalType": "uint256",
          "name": "",
          "type": "uint256"
        }
      ],
      "stateMutability": "view",
      "type": "function"
    },
    {
      "inputs": [
        {
          "internalType": "string",
          "name": "_nftAddress",
          "type": "string"
        }
      ],
      "name": "getPropertyInfoDetailsByNftAddress",
      "outputs": [
        {
          "components": [
            {
              "internalType": "uint256",
              "name": "priceOfPlot",
              "type": "uint256"
            },
            {
              "internalType": "uint256",
              "name": "propertyVerificationNo",
              "type": "uint256"
            },
            {
              "internalType": "uint256",
              "name": "timestamp",
              "type": "uint256"
            },
            {
              "internalType": "address",
              "name": "buyerWalletId",
              "type": "address"
            },
            {
              "internalType": "string",
              "name": "plotNo",
              "type": "string"
            },
            {
              "internalType": "string",
              "name": "sizeOfPlot",
              "type": "string"
            },
            {
              "internalType": "string",
              "name": "coordinateOfPlot",
              "type": "string"
            },
            {
              "internalType": "string",
              "name": "tokenURL",
              "type": "string"
            },
            {
              "internalType": "string",
              "name": "estateName",
              "type": "string"
            },
            {
              "internalType": "string",
              "name": "plotUrl",
              "type": "string"
            },
            {
              "internalType": "string",
              "name": "dateOfAllocation",
              "type": "string"
            },
            {
              "internalType": "string",
              "name": "estateCompanyName",
              "type": "string"
            },
            {
              "internalType": "string",
              "name": "nftAddress",
              "type": "string"
            }
          ],
          "internalType": "struct ISytemapAssetRegistry.PropertyInffo",
          "name": "",
          "type": "tuple"
        }
      ],
      "stateMutability": "view",
      "type": "function"
    },
    {
      "inputs": [
        {
          "internalType": "uint256",
          "name": "_propertyVerificationNo",
          "type": "uint256"
        }
      ],
      "name": "getPropertyInfoDetailsByPVN",
      "outputs": [
        {
          "components": [
            {
              "internalType": "uint256",
              "name": "priceOfPlot",
              "type": "uint256"
            },
            {
              "internalType": "uint256",
              "name": "propertyVerificationNo",
              "type": "uint256"
            },
            {
              "internalType": "uint256",
              "name": "timestamp",
              "type": "uint256"
            },
            {
              "internalType": "address",
              "name": "buyerWalletId",
              "type": "address"
            },
            {
              "internalType": "string",
              "name": "plotNo",
              "type": "string"
            },
            {
              "internalType": "string",
              "name": "sizeOfPlot",
              "type": "string"
            },
            {
              "internalType": "string",
              "name": "coordinateOfPlot",
              "type": "string"
            },
            {
              "internalType": "string",
              "name": "tokenURL",
              "type": "string"
            },
            {
              "internalType": "string",
              "name": "estateName",
              "type": "string"
            },
            {
              "internalType": "string",
              "name": "plotUrl",
              "type": "string"
            },
            {
              "internalType": "string",
              "name": "dateOfAllocation",
              "type": "string"
            },
            {
              "internalType": "string",
              "name": "estateCompanyName",
              "type": "string"
            },
            {
              "internalType": "string",
              "name": "nftAddress",
              "type": "string"
            }
          ],
          "internalType": "struct ISytemapAssetRegistry.PropertyInffo",
          "name": "",
          "type": "tuple"
        }
      ],
      "stateMutability": "view",
      "type": "function"
    },
    {
      "inputs": [
        {
          "internalType": "uint256",
          "name": "_propertyVerificationNo",
          "type": "uint256"
        }
      ],
      "name": "getPropertyVerificationNoOwner",
      "outputs": [
        {
          "internalType": "address",
          "name": "",
          "type": "address"
        }
      ],
      "stateMutability": "view",
      "type": "function"
    },
    {
      "inputs": [
        {
          "internalType": "address",
          "name": "_owner",
          "type": "address"
        }
      ],
      "name": "getTotalNumberOfPropertyOwnedByAnAddress",
      "outputs": [
        {
          "internalType": "uint256",
          "name": "",
          "type": "uint256"
        }
      ],
      "stateMutability": "view",
      "type": "function"
    },
    {
      "inputs": [
        {
          "internalType": "string",
          "name": "_baseTokenURI",
          "type": "string"
        }
      ],
      "name": "initialize",
      "outputs": [],
      "stateMutability": "nonpayable",
      "type": "function"
    },
    {
      "inputs": [
        {
          "internalType": "address",
          "name": "owner",
          "type": "address"
        },
        {
          "internalType": "address",
          "name": "operator",
          "type": "address"
        }
      ],
      "name": "isApprovedForAll",
      "outputs": [
        {
          "internalType": "bool",
          "name": "",
          "type": "bool"
        }
      ],
      "stateMutability": "view",
      "type": "function"
    },
    {
      "inputs": [],
      "name": "name",
      "outputs": [
        {
          "internalType": "string",
          "name": "",
          "type": "string"
        }
      ],
      "stateMutability": "view",
      "type": "function"
    },
    {
      "inputs": [],
      "name": "owner",
      "outputs": [
        {
          "internalType": "address",
          "name": "",
          "type": "address"
        }
      ],
      "stateMutability": "view",
      "type": "function"
    },
    {
      "inputs": [
        {
          "internalType": "uint256",
          "name": "_tokenId",
          "type": "uint256"
        }
      ],
      "name": "ownerOf",
      "outputs": [
        {
          "internalType": "address",
          "name": "",
          "type": "address"
        }
      ],
      "stateMutability": "view",
      "type": "function"
    },
    {
      "inputs": [],
      "name": "pause",
      "outputs": [],
      "stateMutability": "nonpayable",
      "type": "function"
    },
    {
      "inputs": [],
      "name": "paused",
      "outputs": [
        {
          "internalType": "bool",
          "name": "",
          "type": "bool"
        }
      ],
      "stateMutability": "view",
      "type": "function"
    },
    {
      "inputs": [],
      "name": "proxiableUUID",
      "outputs": [
        {
          "internalType": "bytes32",
          "name": "",
          "type": "bytes32"
        }
      ],
      "stateMutability": "view",
      "type": "function"
    },
    {
      "inputs": [],
      "name": "renounceOwnership",
      "outputs": [],
      "stateMutability": "nonpayable",
      "type": "function"
    },
    {
      "inputs": [
        {
          "internalType": "string",
          "name": "_plotNo",
          "type": "string"
        },
        {
          "internalType": "string",
          "name": "_tokenURL",
          "type": "string"
        },
        {
          "internalType": "string",
          "name": "_estateName",
          "type": "string"
        },
        {
          "internalType": "uint256",
          "name": "_priceOfPlot",
          "type": "uint256"
        },
        {
          "internalType": "string",
          "name": "_sizeOfPlot",
          "type": "string"
        },
        {
          "internalType": "string",
          "name": "_plotUrl",
          "type": "string"
        },
        {
          "internalType": "string",
          "name": "_dateOfAllocation",
          "type": "string"
        },
        {
          "internalType": "string",
          "name": "_coordinateOfPlot",
          "type": "string"
        },
        {
          "internalType": "address",
          "name": "_buyerWalletId",
          "type": "address"
        },
        {
          "internalType": "string",
          "name": "_estateCompanyName",
          "type": "string"
        },
        {
          "internalType": "uint256",
          "name": "_propertyVerificationNo",
          "type": "uint256"
        },
        {
          "internalType": "string",
          "name": "_nftAddress",
          "type": "string"
        }
      ],
      "name": "safeMintNewPropertyInfo",
      "outputs": [],
      "stateMutability": "nonpayable",
      "type": "function"
    },
    {
      "inputs": [
        {
          "internalType": "address",
          "name": "from",
          "type": "address"
        },
        {
          "internalType": "address",
          "name": "to",
          "type": "address"
        },
        {
          "internalType": "uint256",
          "name": "tokenId",
          "type": "uint256"
        }
      ],
      "name": "safeTransferFrom",
      "outputs": [],
      "stateMutability": "nonpayable",
      "type": "function"
    },
    {
      "inputs": [
        {
          "internalType": "address",
          "name": "from",
          "type": "address"
        },
        {
          "internalType": "address",
          "name": "to",
          "type": "address"
        },
        {
          "internalType": "uint256",
          "name": "tokenId",
          "type": "uint256"
        },
        {
          "internalType": "bytes",
          "name": "data",
          "type": "bytes"
        }
      ],
      "name": "safeTransferFrom",
      "outputs": [],
      "stateMutability": "nonpayable",
      "type": "function"
    },
    {
      "inputs": [
        {
          "internalType": "address",
          "name": "operator",
          "type": "address"
        },
        {
          "internalType": "bool",
          "name": "approved",
          "type": "bool"
        }
      ],
      "name": "setApprovalForAll",
      "outputs": [],
      "stateMutability": "nonpayable",
      "type": "function"
    },
    {
      "inputs": [
        {
          "internalType": "string",
          "name": "_newBaseURI",
          "type": "string"
        }
      ],
      "name": "setBaseURI",
      "outputs": [],
      "stateMutability": "nonpayable",
      "type": "function"
    },
    {
      "inputs": [
        {
          "internalType": "bytes4",
          "name": "interfaceId",
          "type": "bytes4"
        }
      ],
      "name": "supportsInterface",
      "outputs": [
        {
          "internalType": "bool",
          "name": "",
          "type": "bool"
        }
      ],
      "stateMutability": "view",
      "type": "function"
    },
    {
      "inputs": [],
      "name": "symbol",
      "outputs": [
        {
          "internalType": "string",
          "name": "",
          "type": "string"
        }
      ],
      "stateMutability": "view",
      "type": "function"
    },
    {
      "inputs": [
        {
          "internalType": "uint256",
          "name": "index",
          "type": "uint256"
        }
      ],
      "name": "tokenByIndex",
      "outputs": [
        {
          "internalType": "uint256",
          "name": "",
          "type": "uint256"
        }
      ],
      "stateMutability": "view",
      "type": "function"
    },
    {
      "inputs": [
        {
          "internalType": "address",
          "name": "_owner",
          "type": "address"
        },
        {
          "internalType": "uint256",
          "name": "index",
          "type": "uint256"
        }
      ],
      "name": "tokenOfOwnerByIndex",
      "outputs": [
        {
          "internalType": "uint256",
          "name": "",
          "type": "uint256"
        }
      ],
      "stateMutability": "view",
      "type": "function"
    },
    {
      "inputs": [
        {
          "internalType": "uint256",
          "name": "_propertyVerificationNo",
          "type": "uint256"
        }
      ],
      "name": "tokenURI",
      "outputs": [
        {
          "internalType": "string",
          "name": "",
          "type": "string"
        }
      ],
      "stateMutability": "view",
      "type": "function"
    },
    {
      "inputs": [],
      "name": "totalSupply",
      "outputs": [
        {
          "internalType": "uint256",
          "name": "",
          "type": "uint256"
        }
      ],
      "stateMutability": "view",
      "type": "function"
    },
    {
      "inputs": [
        {
          "internalType": "address",
          "name": "from",
          "type": "address"
        },
        {
          "internalType": "address",
          "name": "to",
          "type": "address"
        },
        {
          "internalType": "uint256",
          "name": "tokenId",
          "type": "uint256"
        }
      ],
      "name": "transferFrom",
      "outputs": [],
      "stateMutability": "nonpayable",
      "type": "function"
    },
    {
      "inputs": [
        {
          "internalType": "address",
          "name": "newOwner",
          "type": "address"
        }
      ],
      "name": "transferOwnership",
      "outputs": [],
      "stateMutability": "nonpayable",
      "type": "function"
    },
    {
      "inputs": [],
      "name": "unpause",
      "outputs": [],
      "stateMutability": "nonpayable",
      "type": "function"
    },
    {
      "inputs": [
        {
          "internalType": "address",
          "name": "newImplementation",
          "type": "address"
        }
      ],
      "name": "upgradeTo",
      "outputs": [],
      "stateMutability": "nonpayable",
      "type": "function"
    },
    {
      "inputs": [
        {
          "internalType": "address",
          "name": "newImplementation",
          "type": "address"
        },
        {
          "internalType": "bytes",
          "name": "data",
          "type": "bytes"
        }
      ],
      "name": "upgradeToAndCall",
      "outputs": [],
      "stateMutability": "payable",
      "type": "function"
    }
  ],
  "bytecode": "0x60a080604052346100315730608052614867908161003782396080518181816126fb015281816128150152612d8f0152f35b600080fdfe608080604052600436101561001357600080fd5b60003560e01c90816301ffc9a71461323e5750806306fdde0314613198578063081812fc1461317a578063095ea7b314612ffb57806318160ddd14610b4857806323b872dd14612fd7578063245f0ca414612f635780632f745c5914612f3c5780633659cfe614612d6a5780633f35198e14612d4e5780633f4ba83a14612cb157806342842e0e14612c7e57806342966c6814612c5e5780634e26858614612b0a5780634f1ef286146127d45780634f6ccce7146127b657806352d1902d146126e057806355f804b3146124995780635939f777146123d15780635c975abb146123ae5780636352211e14612390578063689e638b1461111757806370a08231146110f4578063715018a6146110945780638456cb5914610ff45780638da5cb5b14610fcd57806390cbe75914610ebe57806393d3e75514610d7c57806395d89b4114610cae578063a22cb46514610bdc578063b88d4fde14610b67578063c571929814610b48578063c62e558114610b16578063c87b56dd14610a4e578063e4a9614a14610a10578063e985e9c5146109b9578063f2fde38b146109155763f62d1888146101c157600080fd5b346109105760203660031901126109105760043567ffffffffffffffff8111610910576101f290369060040161351c565b60005460ff8160081c161590818092610903575b80156108ec575b156108815760ff1981166001176000558161086f575b5060405191610231836134a2565b600c83527f537974656d617020436f696e000000000000000000000000000000000000000060208401526102636134fc565b9161027e60ff60005460081c1661027981613f6f565b613f6f565b835167ffffffffffffffff811161058c5761029a606554613829565b601f81116107cc575b50602094601f82116001146107485794819293949560009261073d575b50508160011b916000199060031b1c1916176065555b825167ffffffffffffffff811161058c576102f2606654613829565b601f811161069a575b506020601f8211600114610616578192939460009261060b575b50508160011b916000199060031b1c1916176066555b61036560ff60005460081c1661034081613f6f565b61034981613f6f565b61035281613f6f565b60ff1960c9541660c95561027981613f6f565b61036e3361361d565b61039e60ff60005460081c1661038381613f6f565b61038c81613f6f565b61039581613f6f565b61027981613f6f565b60016101c3556103ac6135c5565b60405160006101f591808354926103c284613829565b6001851680156105f5576001146105a2575b500390206103e185613fe1565b907f309b29ded109b9e28fb9885757b3e0096eb75c51d23aa4635d68bcd569f6adc16000604051a383519067ffffffffffffffff821161058c5761042490613829565b601f8111610528575b506020601f82116001146104a6578192939460009261049b575b50508160011b916000199060031b1c19161790555b610463575b005b61ff0019600054166000557f7f26b83ff96e1f2b6a682f133852f6798a09c465da95921460cefb3847402498602060405160018152a1005b015190503880610447565b601f19821690836000527f734ccdfecf0c98f1f610e13e821eeaab95dc92184ba090032ab8cf544a28f1679160005b818110610510575095836001959697106104f7575b505050811b01905561045c565b015160001960f88460031b161c191690553880806104ea565b9192602060018192868b0151815501940192016104d5565b826000527f734ccdfecf0c98f1f610e13e821eeaab95dc92184ba090032ab8cf544a28f167601f830160051c81019160208410610582575b601f0160051c01905b818110610576575061042d565b60008155600101610569565b9091508190610560565b634e487b7160e01b600052604160045260246000fd5b9050846000527f734ccdfecf0c98f1f610e13e821eeaab95dc92184ba090032ab8cf544a28f1676000905b8282106105de5750508101386103d4565b8054828601528493506020909101906001016105cd565b5060ff19851683528015150282019050386103d4565b015190503880610315565b601f1982169060666000527f46501879b8ca8525e8c2fd519e2fbfcfa2ebea26501294aa02cbfcfb12e943549160005b81811061068257509583600195969710610669575b505050811b0160665561032b565b015160001960f88460031b161c1916905538808061065b565b9192602060018192868b015181550194019201610646565b6066600052601f820160051c7f46501879b8ca8525e8c2fd519e2fbfcfa2ebea26501294aa02cbfcfb12e94354019060208310610715575b601f0160051c7f46501879b8ca8525e8c2fd519e2fbfcfa2ebea26501294aa02cbfcfb12e9435401905b81811061070957506102fb565b600081556001016106fc565b7f46501879b8ca8525e8c2fd519e2fbfcfa2ebea26501294aa02cbfcfb12e9435491506106d2565b0151905038806102c0565b601f1982169560656000527f8ff97419363ffd7000167f130ef7168fbea05faf9251824ca5043f113cc6a7c79160005b8881106107b45750836001959697981061079b575b505050811b016065556102d6565b015160001960f88460031b161c1916905538808061078d565b91926020600181928685015181550194019201610778565b6065600052601f820160051c7f8ff97419363ffd7000167f130ef7168fbea05faf9251824ca5043f113cc6a7c7019060208310610847575b601f0160051c7f8ff97419363ffd7000167f130ef7168fbea05faf9251824ca5043f113cc6a7c701905b81811061083b57506102a3565b6000815560010161082e565b7f8ff97419363ffd7000167f130ef7168fbea05faf9251824ca5043f113cc6a7c79150610804565b61ffff19166101011760005538610223565b60405162461bcd60e51b815260206004820152602e60248201527f496e697469616c697a61626c653a20636f6e747261637420697320616c72656160448201527f647920696e697469616c697a65640000000000000000000000000000000000006064820152608490fd5b50303b15801561020d5750600160ff82161461020d565b50600160ff821610610206565b600080fd5b346109105760203660031901126109105761092e6132f1565b6109366135c5565b6001600160a01b0381161561094e576104619061361d565b60405162461bcd60e51b815260206004820152602660248201527f4f776e61626c653a206e6577206f776e657220697320746865207a65726f206160448201527f64647265737300000000000000000000000000000000000000000000000000006064820152608490fd5b34610910576040366003190112610910576109d26132f1565b6109da613307565b906001600160a01b03809116600052606a60205260406000209116600052602052602060ff604060002054166040519015158152f35b34610910576020366003190112610910576004356000526101fc6020526020610a3d604060002054614001565b6001600160a01b0360405191168152f35b3461091057602036600319011261091057600435610a828160005260676020526001600160a01b0360406000205416151590565b15610aab57610a93610aa7916140ab565b6040519182916020835260208301906132cc565b0390f35b60405162461bcd60e51b815260206004820152603160248201527f45524337323155524953746f726167653a2055524920717565727920666f722060448201527f6e6f6e6578697374656e7420746f6b656e0000000000000000000000000000006064820152608490fd5b3461091057602036600319011261091057610b2f6132f1565b331561091057610b406020916145f8565b604051908152f35b346109105760003660031901126109105760206101f654604051908152f35b3461091057608036600319011261091057610b806132f1565b610b88613307565b906064359060443567ffffffffffffffff83116109105761046193610bb4610bd794369060040161351c565b92610bc7610bc28433613b60565b613a78565b610bd2838383613c40565b613ece565b613aea565b3461091057604036600319011261091057610bf56132f1565b60243590811515809203610910576001600160a01b031690813314610c695733600052606a602052604060002082600052602052604060002060ff1981541660ff83161790556040519081527f17307eab39ab6107e8899845ad3d59bd9653f200f220920489ca2b5937696c3160203392a3005b60405162461bcd60e51b815260206004820152601960248201527f4552433732313a20617070726f766520746f2063616c6c6572000000000000006044820152606490fd5b34610910576000366003190112610910576040516000606654610cd081613829565b80845290600190818116908115610d555750600114610cfa575b610aa784610a93818603826134be565b6066600090815292507f46501879b8ca8525e8c2fd519e2fbfcfa2ebea26501294aa02cbfcfb12e943545b828410610d3d575050508101602001610a9382610cea565b80546020858701810191909152909301928101610d25565b60ff191660208087019190915292151560051b85019092019250610a939150839050610cea565b34610910576000366003190112610910576101f654610d9a8161450a565b9060005b818110610db35760405180610aa78582613563565b610dbc81614584565b6000526020906101f782526040600020610e9c600c60405192610dde8461344d565b805484526001958682015490850152600281015460408501526001600160a01b036003820154166060850152610e1660048201613925565b6080850152610e2760058201613925565b60a0850152610e3860068201613925565b60c0850152610e4960078201613925565b60e0850152610e5a60088201613925565b610100850152610e6c60098201613925565b610120850152610e7e600a8201613925565b610140850152610e90600b8201613925565b61016085015201613925565b610180820152610eac828661455a565b52610eb7818561455a565b5001610d9e565b3461091057604036600319011261091057600435602435610edd6135c5565b8015610f7d577f598b48a1aad5d72fcedbc7ed6aac08ad920501eedca72d3dace23490f11f781291606091610f13331515614339565b816000526101fc80602052610f43610f3e6040600020546000526101fa602052604060002054151590565b61441c565b826000526020526040600020546000526101f7602052806040600020556040519133835260208301526040820152a1602060405160018152f35b60405162461bcd60e51b815260206004820152602260248201527f506c6f74205072696365206d7573742062652067726561746572207468616e20604482015261181760f11b6064820152608490fd5b346109105760003660031901126109105760206001600160a01b0360fb5416604051908152f35b346109105760003660031901126109105761100d6135c5565b60c95460ff811661104f5760019060ff19161760c9557f62e78cea01bee320cd4e420270b5ea74000d11b0c9f74754ebdbfc544b05a2586020604051338152a1005b60405162461bcd60e51b815260206004820152601060248201527f5061757361626c653a20706175736564000000000000000000000000000000006044820152606490fd5b34610910576000366003190112610910576110ad6135c5565b600060fb546001600160a01b0319811660fb55816001600160a01b0360405192167f8be0079c531659141344cd1fd0a4f28419497f9722a3daafe3b4186f6b6457e08284a3f35b34610910576020366003190112610910576020610b406111126132f1565b6145f8565b34610910576101803660031901126109105760043567ffffffffffffffff81116109105761114990369060040161351c565b60243567ffffffffffffffff81116109105761116990369060040161351c565b60443567ffffffffffffffff81116109105761118990369060040161351c565b9160843567ffffffffffffffff8111610910576111aa90369060040161351c565b60a43567ffffffffffffffff8111610910576111ca90369060040161351c565b60c43567ffffffffffffffff8111610910576111ea90369060040161351c565b60e43567ffffffffffffffff81116109105761120a90369060040161351c565b916001600160a01b0361010435166101043503610910576101243567ffffffffffffffff81116109105761124290369060040161351c565b936101643567ffffffffffffffff81116109105761126490369060040161351c565b9661126d6135c5565b60026101c3541461234b5760026101c355610144356000526101fc6020526112a86040600020546000526101fa602052604060002054151590565b612307576112c36001600160a01b0361010435161515614339565b6112db306001600160a01b0361010435161415614339565b60016101f6540197886101f6556113fb610bd76040516112fa8161346a565b600081526113156001600160a01b0361010435161515614385565b61134161133b6101443560005260676020526001600160a01b0360406000205416151590565b156143d0565b61136761133b6101443560005260676020526001600160a01b0360406000205416151590565b6001600160a01b036101043516600052606860205260406000206001815401905561014435600052606760205260406000206001600160a01b0361010435166001600160a01b0319825416179055610144356001600160a01b03610104351660007fddf252ad1be2c89b69c2b068fc378daa952ba7f163c4a11628f55a4df523b3ef81604051a46101443561010435613d51565b61141e6101443560005260676020526001600160a01b0360406000205416151590565b1561229c576101443560005260976020526040600020825167ffffffffffffffff811161058c5761144f8254613829565b601f8111612258575b50806020601f82116001146121f1576000916121e6575b508160011b916000199060031b1c19161790555b886000526101fb6020526001600160a01b0361010435166040600020556114a989614742565b506001600160a01b0361010435166000526101f86020526114ce8960406000206147e8565b50610144356000526101fc602052886040600020558860405160208184516114f981838589016132a9565b81016101fd81520301902055606435156121a1576115246001600160a01b0361010435161515614385565b81511561215c57604051906115388261344d565b60643582526101443560208301524260408301526001600160a01b03610104351660608301528860808301528360a08301528660c08301528260e08301528a610100830152846101208301528561014083015287610160830152610180820152886000526101f7602052604060002090805182556020810151600183015560408101516002830155600382016001600160a01b036060830151166001600160a01b0319825416179055608081015180519067ffffffffffffffff821161058c5781906116076004860154613829565b601f8111612109575b50602090601f83116001146120975760009261208c575b50508160011b916000199060031b1c19161760048301555b60a081015180519067ffffffffffffffff821161058c5781906116656005860154613829565b601f8111612039575b50602090601f8311600114611fc757600092611fbc575b50508160011b916000199060031b1c19161760058301555b60c081015180519067ffffffffffffffff821161058c5781906116c36006860154613829565b601f8111611f69575b50602090601f8311600114611ef757600092611eec575b50508160011b916000199060031b1c19161760068301555b60e081015180519067ffffffffffffffff821161058c5781906117216007860154613829565b601f8111611e99575b50602090601f8311600114611e2757600092611e1c575b50508160011b916000199060031b1c19161760078301555b61010081015180519067ffffffffffffffff821161058c5781906117806008860154613829565b601f8111611dc9575b50602090601f8311600114611d5757600092611d4c575b50508160011b916000199060031b1c19161760088301555b61012081015180519067ffffffffffffffff821161058c5781906117df6009860154613829565b601f8111611cf9575b50602090601f8311600114611c8757600092611c7c575b50508160011b916000199060031b1c19161760098301555b61014081015180519067ffffffffffffffff821161058c57819061183e600a860154613829565b601f8111611c29575b50602090601f8311600114611bb757600092611bac575b50508160011b916000199060031b1c191617600a8301555b61016081015180519067ffffffffffffffff821161058c5761189b600b850154613829565b601f8111611b65575b50602090601f8311600114611af15761018093929160009183611ae6575b50508160011b916000199060031b1c191617600b8401555b015180519067ffffffffffffffff821161058c576118fb600c840154613829565b601f8111611a9f575b50602090601f8311600114611a2a579180600c92611940969594600092611a1f575b50508160011b916000199060031b1c191617910155613fe1565b976040519788976101808952610180890161195a916132cc565b906101443560208a015260408901524260608901526064356080890152610104356001600160a01b031660a089015287810360c089015261199a916132cc565b86810360e08801526119ab916132cc565b8581036101008701526119bd916132cc565b8481036101208601526119cf916132cc565b8381036101408501526119e1916132cc565b8281036101608401526119f3916132cc565b037fe03dcb5fd6b12f1739f057896db270c0503a7c04675836911f911094612022eb91a260016101c355005b015190508e80611926565b90600c840160005260206000209160005b601f1985168110611a87575092600c9260019261194097969583601f19811610611a6e575b505050811b01910155613fe1565b015160001960f88460031b161c191690558e8080611a60565b91926020600181928685015181550194019201611a3b565b600c84016000526020600020601f840160051c810160208510611adf575b601f830160051c82018110611ad3575050611904565b60008155600101611abd565b5080611abd565b015190508e806118c2565b90600b850160005260206000209160005b601f1985168110611b4d57509183916001936101809695601f19811610611b34575b505050811b01600b8401556118da565b015160001960f88460031b161c191690558e8080611b24565b91926020600181928685015181550194019201611b02565b600b85016000526020600020601f840160051c810160208510611ba5575b601f830160051c82018110611b995750506118a4565b60008155600101611b83565b5080611b83565b015190508d8061185e565b9250600a85016000526020600020906000935b601f1984168510611c0e576001945083601f19811610611bf5575b505050811b01600a830155611876565b015160001960f88460031b161c191690558d8080611be5565b81810151835560209485019460019093019290910190611bca565b909150600a85016000526020600020601f840160051c810160208510611c75575b90849392915b601f830160051c82018110611c66575050611847565b60008155859450600101611c50565b5080611c4a565b015190508d806117ff565b9250600985016000526020600020906000935b601f1984168510611cde576001945083601f19811610611cc5575b505050811b016009830155611817565b015160001960f88460031b161c191690558d8080611cb5565b81810151835560209485019460019093019290910190611c9a565b909150600985016000526020600020601f840160051c810160208510611d45575b90849392915b601f830160051c82018110611d365750506117e8565b60008155859450600101611d20565b5080611d1a565b015190508d806117a0565b9250600885016000526020600020906000935b601f1984168510611dae576001945083601f19811610611d95575b505050811b0160088301556117b8565b015160001960f88460031b161c191690558d8080611d85565b81810151835560209485019460019093019290910190611d6a565b909150600885016000526020600020601f840160051c810160208510611e15575b90849392915b601f830160051c82018110611e06575050611789565b60008155859450600101611df0565b5080611dea565b015190508d80611741565b9250600785016000526020600020906000935b601f1984168510611e7e576001945083601f19811610611e65575b505050811b016007830155611759565b015160001960f88460031b161c191690558d8080611e55565b81810151835560209485019460019093019290910190611e3a565b909150600785016000526020600020601f840160051c810160208510611ee5575b90849392915b601f830160051c82018110611ed657505061172a565b60008155859450600101611ec0565b5080611eba565b015190508d806116e3565b9250600685016000526020600020906000935b601f1984168510611f4e576001945083601f19811610611f35575b505050811b0160068301556116fb565b015160001960f88460031b161c191690558d8080611f25565b81810151835560209485019460019093019290910190611f0a565b909150600685016000526020600020601f840160051c810160208510611fb5575b90849392915b601f830160051c82018110611fa65750506116cc565b60008155859450600101611f90565b5080611f8a565b015190508d80611685565b9250600585016000526020600020906000935b601f198416851061201e576001945083601f19811610612005575b505050811b01600583015561169d565b015160001960f88460031b161c191690558d8080611ff5565b81810151835560209485019460019093019290910190611fda565b909150600585016000526020600020601f840160051c810160208510612085575b90849392915b601f830160051c8201811061207657505061166e565b60008155859450600101612060565b508061205a565b015190508d80611627565b9250600485016000526020600020906000935b601f19841685106120ee576001945083601f198116106120d5575b505050811b01600483015561163f565b015160001960f88460031b161c191690558d80806120c5565b818101518355602094850194600190930192909101906120aa565b909150600485016000526020600020601f840160051c810160208510612155575b90849392915b601f830160051c82018110612146575050611610565b60008155859450600101612130565b508061212a565b60405162461bcd60e51b815260206004820152601360248201527f546f6b656e2075726c2069732020656d707479000000000000000000000000006044820152606490fd5b60405162461bcd60e51b815260206004820152601c60248201527f5072696365206d757374206265206174206c65617374203120776569000000006044820152606490fd5b90508401518d61146f565b91508260005260206000206000925b601f1983168410612240576001935082601f19811610612227575b5050811b019055611483565b86015160001960f88460031b161c191690558d8061221b565b86810151825560209384019360019092019101612200565b826000526020600020601f830160051c810160208410612295575b601f830160051c82018110612289575050611458565b60008155600101612273565b5080612273565b60405162461bcd60e51b815260206004820152602e60248201527f45524337323155524953746f726167653a2055524920736574206f66206e6f6e60448201527f6578697374656e7420746f6b656e0000000000000000000000000000000000006064820152608490fd5b606460405162461bcd60e51b815260206004820152602060248201527f4552433732313a2070766e20746f6b656e20616c7265616479206d696e7465646044820152fd5b60405162461bcd60e51b815260206004820152601f60248201527f5265656e7472616e637947756172643a207265656e7472616e742063616c6c006044820152606490fd5b34610910576020366003190112610910576020610a3d600435614001565b3461091057600036600319011261091057602060ff60c954166040519015158152f35b3461091057602080600319360112610910576123eb6132f1565b6123f4816145f8565b6123fd8161450a565b9160005b8281106124165760405180610aa78682613563565b6124208183614684565b6000526101f7855260406000209060405161243a8161344d565b82548152612477600c600194858101548a850152600281015460408501526001600160a01b036003820154166060850152610e1660048201613925565b610180820152612487828761455a565b52612492818661455a565b5001612401565b34610910576020806003193601126109105767ffffffffffffffff600435818111610910576124cc90369060040161351c565b906124d56135c5565b604051926000926101f594855490806124ed83613829565b6001979084891680156126ca57600114612672575b5003902061250f83613fe1565b907f309b29ded109b9e28fb9885757b3e0096eb75c51d23aa4635d68bcd569f6adc16000604051a3815193841161058c5761254990613829565b601f811161260c575b5081601f841160011461258c5750928293918392600094612581575b50501b916000199060031b1c1916179055005b01519250858061256e565b919083601f198116876000527f734ccdfecf0c98f1f610e13e821eeaab95dc92184ba090032ab8cf544a28f167946000905b888383106125f257505050106125d9575b505050811b019055005b015160001960f88460031b161c191690558380806125cf565b8587015188559096019594850194879350908101906125be565b856000527f734ccdfecf0c98f1f610e13e821eeaab95dc92184ba090032ab8cf544a28f167601f850160051c810191848610612668575b601f0160051c019085905b82811061265c575050612552565b6000815501859061264e565b9091508190612643565b9050886000527f734ccdfecf0c98f1f610e13e821eeaab95dc92184ba090032ab8cf544a28f16786896000925b8484106126b25750505050810189612502565b805487850152869550929091019188918b910161269f565b5060ff1985168352801515028201905089612502565b34610910576000366003190112610910576001600160a01b037f000000000000000000000000000000000000000000000000000000000000000016300361274b5760206040517f360894a13ba1a3210667c828492db98dca3e2076cc3735a920a3ca505d382bbc8152f35b60405162461bcd60e51b815260206004820152603860248201527f555550535570677261646561626c653a206d757374206e6f742062652063616c60448201527f6c6564207468726f7567682064656c656761746563616c6c00000000000000006064820152608490fd5b34610910576020366003190112610910576020610b40600435614584565b6040366003190112610910576127e86132f1565b60243567ffffffffffffffff81116109105761280890369060040161351c565b906001600160a01b0391827f0000000000000000000000000000000000000000000000000000000000000000169261284284301415613667565b6128717f360894a13ba1a3210667c828492db98dca3e2076cc3735a920a3ca505d382bbc9482865416146136d9565b6128796135c5565b7f4910fdfa16fed3260ed0e7147f7cc6da11a60208b5b9406d12a635614ffd91435460ff16156128af575050610461915061374b565b82919216604051936352d1902d60e01b85526020948581600481865afa60009181612adb575b506129365760405162461bcd60e51b815260048101879052602e60248201527f45524331393637557067726164653a206e657720696d706c656d656e7461746960448201526d6f6e206973206e6f74205555505360901b6064820152608490fd5b03612a70576129448261374b565b604051907fbc7cd75a20ee27fd9adebab32041f755214dbc6bffa90cc0225b39da2e5c2d3b600083a2825115801590612a68575b61297e57005b813b15612a0057506000828192856104619695519201905af461299f6137f9565b907f416464726573733a206c6f772d6c6576656c2064656c65676174652063616c6c604051936129ce85613486565b602785528401527f206661696c6564000000000000000000000000000000000000000000000000006040840152613f2f565b62461bcd60e51b815260048101849052602660248201527f416464726573733a2064656c65676174652063616c6c20746f206e6f6e2d636f60448201527f6e747261637400000000000000000000000000000000000000000000000000006064820152608490fd5b506001612978565b60405162461bcd60e51b815260048101859052602960248201527f45524331393637557067726164653a20756e737570706f727465642070726f7860448201527f6961626c655555494400000000000000000000000000000000000000000000006064820152608490fd5b9091508681813d8311612b03575b612af381836134be565b81010312610910575190876128d5565b503d612ae9565b34610910576020806003193601126109105760043567ffffffffffffffff81116109105781612b40612b5c92369060040161351c565b612b4861448e565b5081604051938285809451938492016132a9565b81016101fd815203019020546000526101f78152604060002090612c44600c60405193612b888561344d565b80548552600181015484860152600281015460408601526001600160a01b036003820154166060860152612bbe60048201613925565b6080860152612bcf60058201613925565b60a0860152612be060068201613925565b60c0860152612bf160078201613925565b60e0860152612c0260088201613925565b610100860152612c1460098201613925565b610120860152612c26600a8201613925565b610140860152612c38600b8201613925565b61016086015201613925565b610180830152610aa7604051928284938452830190613352565b3461091057602036600319011261091057610461610bc260043533613b60565b3461091057610461610bd7612c923661331d565b9060405192612ca08461346a565b60008452610bc7610bc28433613b60565b3461091057600036600319011261091057612cca6135c5565b60c95460ff811615612d095760ff191660c9557f5db9ee0a495bf2e6ff9c91a7834c1ba4fdd244a5e8aa4e537bd38aeae4b073aa6020604051338152a1005b60405162461bcd60e51b815260206004820152601460248201527f5061757361626c653a206e6f74207061757365640000000000000000000000006044820152606490fd5b3461091057600036600319011261091057610aa7610a936134fc565b346109105760208060031936011261091057612d846132f1565b6001600160a01b03807f000000000000000000000000000000000000000000000000000000000000000016612dbb81301415613667565b612dea7f360894a13ba1a3210667c828492db98dca3e2076cc3735a920a3ca505d382bbc9183835416146136d9565b612df26135c5565b60405191612dff8361346a565b600083527f4910fdfa16fed3260ed0e7147f7cc6da11a60208b5b9406d12a635614ffd91435460ff1615612e3a57505050610461915061374b565b83929316906040516352d1902d60e01b81528581600481865afa60009181612f0d575b50612ebe5760405162461bcd60e51b815260048101879052602e60248201527f45524331393637557067726164653a206e657720696d706c656d656e7461746960448201526d6f6e206973206e6f74205555505360901b6064820152608490fd5b03612a7057612ecc8261374b565b604051907fbc7cd75a20ee27fd9adebab32041f755214dbc6bffa90cc0225b39da2e5c2d3b600083a2825115801590612f055761297e57005b506000612978565b9091508681813d8311612f35575b612f2581836134be565b8101031261091057519087612e5d565b503d612f1b565b34610910576040366003190112610910576020610b40612f5a6132f1565b60243590614684565b346109105760208060031936011261091057600435612f8061448e565b50806000526101fc90818352612fac610f3e6040600020546000526101fa602052604060002054151590565b60005281526040600020546000526101f78152604060002090612c44600c60405193612b888561344d565b3461091057610461612fe83661331d565b91612ff6610bc28433613b60565b613c40565b34610910576040366003190112610910576130146132f1565b6001600160a01b0390602435828061302b83613a14565b1692169180831461312b57803314908115613106575b501561309b57600092818452606960205260408420836001600160a01b031982541617905561306f82613a14565b1691604051927f8c5be1e5ebec7d5bd14f71427d1e84f3dd0314c0f7b2291e5b200ac8c7c3b9258585a4f35b60405162461bcd60e51b815260206004820152603d60248201527f4552433732313a20617070726f76652063616c6c6572206973206e6f7420746f60448201527f6b656e206f776e6572206f7220617070726f76656420666f7220616c6c0000006064820152608490fd5b9050600052606a60205260406000203360005260205260ff6040600020541684613041565b60405162461bcd60e51b815260206004820152602160248201527f4552433732313a20617070726f76616c20746f2063757272656e74206f776e656044820152603960f91b6064820152608490fd5b34610910576020366003190112610910576020610a3d600435613a36565b346109105760003660031901126109105760405160006065546131ba81613829565b80845290600190818116908115610d5557506001146131e357610aa784610a93818603826134be565b6065600090815292507f8ff97419363ffd7000167f130ef7168fbea05faf9251824ca5043f113cc6a7c75b828410613226575050508101602001610a9382610cea565b8054602085870181019190915290930192810161320e565b34610910576020366003190112610910576004359063ffffffff60e01b8216809203610910576020916380ac58cd60e01b8114908115613298575b8115613287575b5015158152f35b6301ffc9a760e01b14905083613280565b635b5e139f60e01b81149150613279565b60005b8381106132bc5750506000910152565b81810151838201526020016132ac565b906020916132e5815180928185528580860191016132a9565b601f01601f1916010190565b600435906001600160a01b038216820361091057565b602435906001600160a01b038216820361091057565b6060906003190112610910576001600160a01b0390600435828116810361091057916024359081168103610910579060443590565b9061344a918051825260208101516020830152604081015160408301526001600160a01b03606082015116606083015261343661342261340e6133fa6133e66133d46133c26133b060808901516101a08060808d01528b01906132cc565b60a08901518a820360a08c01526132cc565b60c088015189820360c08b01526132cc565b60e087015188820360e08a01526132cc565b6101008087015190888303908901526132cc565b6101208086015190878303908801526132cc565b6101408085015190868303908701526132cc565b6101608084015190858303908601526132cc565b9161018080920151918184039101526132cc565b90565b6101a0810190811067ffffffffffffffff82111761058c57604052565b6020810190811067ffffffffffffffff82111761058c57604052565b6060810190811067ffffffffffffffff82111761058c57604052565b6040810190811067ffffffffffffffff82111761058c57604052565b90601f8019910116810190811067ffffffffffffffff82111761058c57604052565b67ffffffffffffffff811161058c57601f01601f191660200190565b60405190613509826134a2565b60048252635354594560e01b6020830152565b81601f8201121561091057803590613533826134e0565b9261354160405194856134be565b8284526020838301011161091057816000926020809301838601378301015290565b602080820190808352835180925260408301928160408460051b8301019501936000915b8483106135975750505050505090565b90919293949584806135b5600193603f198682030187528a51613352565b9801930193019194939290613587565b6001600160a01b0360fb541633036135d957565b606460405162461bcd60e51b815260206004820152602060248201527f4f776e61626c653a2063616c6c6572206973206e6f7420746865206f776e65726044820152fd5b60fb54906001600160a01b0380911691826001600160a01b031982161760fb55167f8be0079c531659141344cd1fd0a4f28419497f9722a3daafe3b4186f6b6457e06000604051a3565b1561366e57565b60405162461bcd60e51b815260206004820152602c60248201527f46756e6374696f6e206d7573742062652063616c6c6564207468726f7567682060448201527f64656c656761746563616c6c00000000000000000000000000000000000000006064820152608490fd5b156136e057565b60405162461bcd60e51b815260206004820152602c60248201527f46756e6374696f6e206d7573742062652063616c6c6564207468726f7567682060448201527f6163746976652070726f787900000000000000000000000000000000000000006064820152608490fd5b803b1561378e576001600160a01b037f360894a13ba1a3210667c828492db98dca3e2076cc3735a920a3ca505d382bbc91166001600160a01b0319825416179055565b60405162461bcd60e51b815260206004820152602d60248201527f455243313936373a206e657720696d706c656d656e746174696f6e206973206e60448201527f6f74206120636f6e7472616374000000000000000000000000000000000000006064820152608490fd5b3d15613824573d9061380a826134e0565b9161381860405193846134be565b82523d6000602084013e565b606090565b90600182811c92168015613859575b602083101461384357565b634e487b7160e01b600052602260045260246000fd5b91607f1691613838565b604051906000826101f591825461387981613829565b8084529360019180831690811561390157506001146138a3575b50506138a1925003836134be565b565b600090815291507f734ccdfecf0c98f1f610e13e821eeaab95dc92184ba090032ab8cf544a28f1675b8483106138e657506138a193505081016020013880613893565b81935090816020925483858a010152019101909185926138cc565b915050602092506138a194915060ff191682840152151560051b8201013880613893565b906040519182600082549261393984613829565b9081845260019485811690816000146139a557506001146139625750506138a1925003836134be565b9093915060005260209081600020936000915b81831061398d5750506138a193508201013880613893565b85548884018501529485019487945091830191613975565b9150506138a194506020925060ff191682840152151560051b8201013880613893565b156139cf57565b60405162461bcd60e51b815260206004820152601860248201527f4552433732313a20696e76616c696420746f6b656e20494400000000000000006044820152606490fd5b60005260676020526001600160a01b036040600020541661344a8115156139c8565b613a5e613a598260005260676020526001600160a01b0360406000205416151590565b6139c8565b60005260696020526001600160a01b036040600020541690565b15613a7f57565b60405162461bcd60e51b815260206004820152602d60248201527f4552433732313a2063616c6c6572206973206e6f7420746f6b656e206f776e6560448201527f72206f7220617070726f766564000000000000000000000000000000000000006064820152608490fd5b15613af157565b60405162461bcd60e51b815260206004820152603260248201527f4552433732313a207472616e7366657220746f206e6f6e20455243373231526560448201527f63656976657220696d706c656d656e74657200000000000000000000000000006064820152608490fd5b0390fd5b906001600160a01b038080613b7484613a14565b16931691838314938415613ba7575b508315613b91575b50505090565b613b9d91929350613a36565b1614388080613b8b565b909350600052606a60205260406000208260005260205260ff604060002054169238613b83565b15613bd557565b60405162461bcd60e51b815260206004820152602560248201527f4552433732313a207472616e736665722066726f6d20696e636f72726563742060448201527f6f776e65720000000000000000000000000000000000000000000000000000006064820152608490fd5b90613c6891613c4e84613a14565b916001600160a01b03938493848094169485911614613bce565b16918215613d005781613c8591613c7e86613a14565b1614613bce565b7fddf252ad1be2c89b69c2b068fc378daa952ba7f163c4a11628f55a4df523b3ef60008481526069602052604081206001600160a01b031990818154169055838252606860205260408220600019815401905584825260408220600181540190558582526067602052846040832091825416179055604051a4565b60405162461bcd60e51b8152602060048201526024808201527f4552433732313a207472616e7366657220746f20746865207a65726f206164646044820152637265737360e01b6064820152608490fd5b9091600091803b15613ec557613da46020916001600160a01b039385604051958680958194630a85bd0160e11b9b8c845233600485015285602485015260448401526080606484015260848301906132cc565b0393165af190829082613e5e575b5050613e3857613dc06137f9565b80519081613e335760405162461bcd60e51b815260206004820152603260248201527f4552433732313a207472616e7366657220746f206e6f6e20455243373231526560448201527f63656976657220696d706c656d656e74657200000000000000000000000000006064820152608490fd5b602001fd5b7fffffffff00000000000000000000000000000000000000000000000000000000161490565b909192506020813d8211613ebd575b81613e7a602093836134be565b81010312613eb95751907fffffffff0000000000000000000000000000000000000000000000000000000082168203613eb65750903880613db2565b80fd5b5080fd5b3d9150613e6d565b50505050600190565b91926000929190813b15613f2557602091613da49185604051958680958194630a85bd0160e11b9b8c84523360048501526001600160a01b03809516602485015260448401526080606484015260848301906132cc565b5050505050600190565b90919015613f3b575090565b815115613f4b5750805190602001fd5b60405162461bcd60e51b815260206004820152908190613b5c9060248301906132cc565b15613f7657565b60405162461bcd60e51b815260206004820152602b60248201527f496e697469616c697a61626c653a20636f6e7472616374206973206e6f74206960448201527f6e697469616c697a696e670000000000000000000000000000000000000000006064820152608490fd5b613ff9906020604051928284809451938492016132a9565b810103902090565b60405161400d81613486565b602981527f4552433732313a206f776e657220717565727920666f72206e6f6e657869737460208201527f656e7420746f6b656e00000000000000000000000000000000000000000000006040820152816000526101fb6020526040600020549182159081159161408c575b5015613f4b57506001600160a01b031690565b6140a591506000526101fa602052604060002054151590565b38614079565b6140ce613a598260005260676020526001600160a01b0360406000205416151590565b6000818152602090609782526040906140e8828220613925565b6140f0613863565b805191821561432f5780516142fe57505050614125613a598560005260676020526001600160a01b0360406000205416151590565b61412d613863565b8051909290156142e95784859083967a184f03e93ff9f4daa797ed6e38ed64bf6a1f01000000000000000090818110156142da575b50506d04ee2d6d415b85acef8100000000808310156142cc575b50662386f26fc10000808310156142bd575b506305f5e100808310156142ae575b506127108083101561429f575b50606482101561428f575b600a80921015614285575b600190816021818a01996141eb6141d68c6134e0565b9b6141e389519d8e6134be565b808d526134e0565b8b8b019890601f1901368a37508a0101905b614242575b50505050906142369461344a94939251958361422788955180928880890191016132a9565b840191518093868401906132a9565b010380845201826134be565b600019019083907f30313233343536373839616263646566000000000000000000000000000000008282061a835304918215614280579190826141fd565b614202565b95600101956141c0565b95906064600291049101956141b5565b600491979204910195386141aa565b6008919792049101953861419d565b6010919792049101953861418e565b86919792049101953861417c565b91975091500481953880614162565b925092505051906142f98261346a565b815290565b91955091508461431b61344a9594519687948680870191016132a9565b8201614236825180938680850191016132a9565b9550505050505090565b1561434057565b60405162461bcd60e51b815260206004820152601760248201527f4552433732313a20696e76616c696420616464726573730000000000000000006044820152606490fd5b1561438c57565b606460405162461bcd60e51b815260206004820152602060248201527f4552433732313a206d696e7420746f20746865207a65726f20616464726573736044820152fd5b156143d757565b60405162461bcd60e51b815260206004820152601c60248201527f4552433732313a20746f6b656e20616c7265616479206d696e746564000000006044820152606490fd5b1561442357565b60405162461bcd60e51b815260206004820152603360248201527f4552433732313a2070766e20746f6b656e20646f6573206e6f7420657869737460448201527f206f72206e6f74206265656e206d696e746564000000000000000000000000006064820152608490fd5b6040519061449b8261344d565b816000815260006020820152600060408201526101806060916000838201528260808201528260a08201528260c08201528260e0820152826101008201528261012082015282610140820152826101608201520152565b67ffffffffffffffff811161058c5760051b60200190565b90614514826144f2565b61452160405191826134be565b8281528092614532601f19916144f2565b019060005b82811061454357505050565b60209061454e61448e565b82828501015201614537565b805182101561456e5760209160051b010190565b634e487b7160e01b600052603260045260246000fd5b6101f6548110156145b3576001810180911161459d5790565b634e487b7160e01b600052601160045260246000fd5b60405162461bcd60e51b815260206004820152601f60248201527f455243373231456e756d657261626c653a20696e76616c696420696e646578006044820152606490fd5b6001600160a01b03168015614619576000526101f860205260406000205490565b60405162461bcd60e51b815260206004820152602a60248201527f4552433732313a2062616c616e636520717565727920666f7220746865207a6560448201527f726f2061646472657373000000000000000000000000000000000000000000006064820152608490fd5b9061468e826145f8565b8110156146bf576001600160a01b036146b592166000526101f8602052604060002061472a565b90549060031b1c90565b60405162461bcd60e51b815260206004820152602b60248201527f455243373231456e756d657261626c653a206f776e657220696e646578206f7560448201527f74206f6620626f756e64730000000000000000000000000000000000000000006064820152608490fd5b805482101561456e5760005260206000200190600090565b906000918083526101fa92836020526040812054156000146147e3576101f993845494680100000000000000008610156147cf57600186018082558610156147bb578360409495967f29eba5f30ca2030a69ed2d7f74871c83bbc526b071320256f127653c7dfff4e90155549382526020522055600190565b634e487b7160e01b83526032600452602483fd5b634e487b7160e01b83526041600452602483fd5b925050565b9190600183016000908282528060205260408220541560001461485457845494680100000000000000008610156147cf578361482e87600160409798990184558361472a565b819291549060031b600019811b9283911b16911916179055549382526020522055600190565b5092505056fea164736f6c6343000810000a",
  "linkReferences": {},
  "deployedLinkReferences": {}
}