{
  "_format": "hh-sol-artifact-1",
  "contractName": "SytemapAssetRegistry",
  "sourceName": "contracts/SytemapAssetRegistry.sol",
  "abi": [
    {
      "inputs": [
        {
          "internalType": "string",
          "name": "baseURI",
          "type": "string"
        }
      ],
      "stateMutability": "nonpayable",
      "type": "constructor"
    },
    {
      "anonymous": false,
      "inputs": [
        {
          "indexed": true,
          "internalType": "address",
          "name": "owner",
          "type": "address"
        },
        {
          "indexed": true,
          "internalType": "address",
          "name": "approved",
          "type": "address"
        },
        {
          "indexed": true,
          "internalType": "uint256",
          "name": "tokenId",
          "type": "uint256"
        }
      ],
      "name": "Approval",
      "type": "event"
    },
    {
      "anonymous": false,
      "inputs": [
        {
          "indexed": true,
          "internalType": "address",
          "name": "owner",
          "type": "address"
        },
        {
          "indexed": true,
          "internalType": "address",
          "name": "operator",
          "type": "address"
        },
        {
          "indexed": false,
          "internalType": "bool",
          "name": "approved",
          "type": "bool"
        }
      ],
      "name": "ApprovalForAll",
      "type": "event"
    },
    {
      "anonymous": false,
      "inputs": [
        {
          "indexed": false,
          "internalType": "uint256",
          "name": "plotNo",
          "type": "uint256"
        },
        {
          "indexed": true,
          "internalType": "string",
          "name": "tokenURL",
          "type": "string"
        },
        {
          "indexed": false,
          "internalType": "string",
          "name": "estateName",
          "type": "string"
        },
        {
          "indexed": false,
          "internalType": "uint256",
          "name": "priceOfPlot",
          "type": "uint256"
        },
        {
          "indexed": false,
          "internalType": "uint256",
          "name": "sizeOfPlot",
          "type": "uint256"
        },
        {
          "indexed": false,
          "internalType": "string",
          "name": "plotUrl",
          "type": "string"
        },
        {
          "indexed": false,
          "internalType": "string",
          "name": "dateOfAllocation",
          "type": "string"
        },
        {
          "indexed": false,
          "internalType": "uint256",
          "name": "coordinateOfPlot",
          "type": "uint256"
        },
        {
          "indexed": false,
          "internalType": "address",
          "name": "buyerWalletId",
          "type": "address"
        },
        {
          "indexed": false,
          "internalType": "string",
          "name": "estateCompanyName",
          "type": "string"
        },
        {
          "indexed": false,
          "internalType": "uint256",
          "name": "propertyVerificationNo",
          "type": "uint256"
        },
        {
          "indexed": false,
          "internalType": "uint256",
          "name": "tokenId",
          "type": "uint256"
        },
        {
          "indexed": false,
          "internalType": "uint256",
          "name": "timestamp",
          "type": "uint256"
        }
      ],
      "name": "NewPropertyInfoAdded",
      "type": "event"
    },
    {
      "anonymous": false,
      "inputs": [
        {
          "indexed": true,
          "internalType": "address",
          "name": "previousOwner",
          "type": "address"
        },
        {
          "indexed": true,
          "internalType": "address",
          "name": "newOwner",
          "type": "address"
        }
      ],
      "name": "OwnershipTransferred",
      "type": "event"
    },
    {
      "anonymous": false,
      "inputs": [
        {
          "indexed": false,
          "internalType": "address",
          "name": "owner",
          "type": "address"
        },
        {
          "indexed": false,
          "internalType": "uint256",
          "name": "propertyVerificationNo",
          "type": "uint256"
        },
        {
          "indexed": false,
          "internalType": "uint256",
          "name": "newPrice",
          "type": "uint256"
        }
      ],
      "name": "PropertyInfoPriceChanged",
      "type": "event"
    },
    {
      "anonymous": false,
      "inputs": [
        {
          "indexed": true,
          "internalType": "uint256",
          "name": "tokenId",
          "type": "uint256"
        },
        {
          "indexed": true,
          "internalType": "uint256",
          "name": "propertyVerificationNo",
          "type": "uint256"
        },
        {
          "indexed": false,
          "internalType": "string",
          "name": "tokenURL",
          "type": "string"
        }
      ],
      "name": "TokenMinted",
      "type": "event"
    },
    {
      "anonymous": false,
      "inputs": [
        {
          "indexed": true,
          "internalType": "address",
          "name": "from",
          "type": "address"
        },
        {
          "indexed": true,
          "internalType": "address",
          "name": "to",
          "type": "address"
        },
        {
          "indexed": true,
          "internalType": "uint256",
          "name": "tokenId",
          "type": "uint256"
        }
      ],
      "name": "Transfer",
      "type": "event"
    },
    {
      "inputs": [],
      "name": "SYTEMAP_NAME",
      "outputs": [
        {
          "internalType": "string",
          "name": "",
          "type": "string"
        }
      ],
      "stateMutability": "view",
      "type": "function"
    },
    {
      "inputs": [],
      "name": "SYTEMAP_SYMBOL",
      "outputs": [
        {
          "internalType": "string",
          "name": "",
          "type": "string"
        }
      ],
      "stateMutability": "view",
      "type": "function"
    },
    {
      "inputs": [
        {
          "internalType": "address",
          "name": "to",
          "type": "address"
        },
        {
          "internalType": "uint256",
          "name": "tokenId",
          "type": "uint256"
        }
      ],
      "name": "approve",
      "outputs": [],
      "stateMutability": "nonpayable",
      "type": "function"
    },
    {
      "inputs": [
        {
          "internalType": "address",
          "name": "owner",
          "type": "address"
        }
      ],
      "name": "balanceOf",
      "outputs": [
        {
          "internalType": "uint256",
          "name": "",
          "type": "uint256"
        }
      ],
      "stateMutability": "view",
      "type": "function"
    },
    {
      "inputs": [
        {
          "internalType": "uint256",
          "name": "_propertyVerificationNo",
          "type": "uint256"
        },
        {
          "internalType": "uint256",
          "name": "_priceOfPlot",
          "type": "uint256"
        }
      ],
      "name": "changePropertyPriceByOwner",
      "outputs": [
        {
          "internalType": "bool",
          "name": "",
          "type": "bool"
        }
      ],
      "stateMutability": "nonpayable",
      "type": "function"
    },
    {
      "inputs": [],
      "name": "getAllMintedPropertyDetails",
      "outputs": [
        {
          "components": [
            {
              "internalType": "uint256",
              "name": "plotNo",
              "type": "uint256"
            },
            {
              "internalType": "uint256",
              "name": "priceOfPlot",
              "type": "uint256"
            },
            {
              "internalType": "uint256",
              "name": "sizeOfPlot",
              "type": "uint256"
            },
            {
              "internalType": "uint256",
              "name": "coordinateOfPlot",
              "type": "uint256"
            },
            {
              "internalType": "uint256",
              "name": "propertyVerificationNo",
              "type": "uint256"
            },
            {
              "internalType": "uint256",
              "name": "timestamp",
              "type": "uint256"
            },
            {
              "internalType": "address",
              "name": "buyerWalletId",
              "type": "address"
            },
            {
              "internalType": "string",
              "name": "tokenURL",
              "type": "string"
            },
            {
              "internalType": "string",
              "name": "estateName",
              "type": "string"
            },
            {
              "internalType": "string",
              "name": "plotUrl",
              "type": "string"
            },
            {
              "internalType": "string",
              "name": "dateOfAllocation",
              "type": "string"
            },
            {
              "internalType": "string",
              "name": "estateCompanyName",
              "type": "string"
            }
          ],
          "internalType": "struct ISytemapAssetRegistry.PropertyInffo[]",
          "name": "",
          "type": "tuple[]"
        }
      ],
      "stateMutability": "view",
      "type": "function"
    },
    {
      "inputs": [
        {
          "internalType": "address",
          "name": "owner",
          "type": "address"
        }
      ],
      "name": "getAllPropertyDetailsByOwner",
      "outputs": [
        {
          "components": [
            {
              "internalType": "uint256",
              "name": "plotNo",
              "type": "uint256"
            },
            {
              "internalType": "uint256",
              "name": "priceOfPlot",
              "type": "uint256"
            },
            {
              "internalType": "uint256",
              "name": "sizeOfPlot",
              "type": "uint256"
            },
            {
              "internalType": "uint256",
              "name": "coordinateOfPlot",
              "type": "uint256"
            },
            {
              "internalType": "uint256",
              "name": "propertyVerificationNo",
              "type": "uint256"
            },
            {
              "internalType": "uint256",
              "name": "timestamp",
              "type": "uint256"
            },
            {
              "internalType": "address",
              "name": "buyerWalletId",
              "type": "address"
            },
            {
              "internalType": "string",
              "name": "tokenURL",
              "type": "string"
            },
            {
              "internalType": "string",
              "name": "estateName",
              "type": "string"
            },
            {
              "internalType": "string",
              "name": "plotUrl",
              "type": "string"
            },
            {
              "internalType": "string",
              "name": "dateOfAllocation",
              "type": "string"
            },
            {
              "internalType": "string",
              "name": "estateCompanyName",
              "type": "string"
            }
          ],
          "internalType": "struct ISytemapAssetRegistry.PropertyInffo[]",
          "name": "",
          "type": "tuple[]"
        }
      ],
      "stateMutability": "view",
      "type": "function"
    },
    {
      "inputs": [
        {
          "internalType": "uint256",
          "name": "tokenId",
          "type": "uint256"
        }
      ],
      "name": "getApproved",
      "outputs": [
        {
          "internalType": "address",
          "name": "",
          "type": "address"
        }
      ],
      "stateMutability": "view",
      "type": "function"
    },
    {
      "inputs": [],
      "name": "getNumberOfPropertyTokensMinted",
      "outputs": [
        {
          "internalType": "uint256",
          "name": "",
          "type": "uint256"
        }
      ],
      "stateMutability": "view",
      "type": "function"
    },
    {
      "inputs": [
        {
          "internalType": "uint256",
          "name": "_propertyVerificationNo",
          "type": "uint256"
        }
      ],
      "name": "getPropertyInfoDetailsByPVN",
      "outputs": [
        {
          "components": [
            {
              "internalType": "uint256",
              "name": "plotNo",
              "type": "uint256"
            },
            {
              "internalType": "uint256",
              "name": "priceOfPlot",
              "type": "uint256"
            },
            {
              "internalType": "uint256",
              "name": "sizeOfPlot",
              "type": "uint256"
            },
            {
              "internalType": "uint256",
              "name": "coordinateOfPlot",
              "type": "uint256"
            },
            {
              "internalType": "uint256",
              "name": "propertyVerificationNo",
              "type": "uint256"
            },
            {
              "internalType": "uint256",
              "name": "timestamp",
              "type": "uint256"
            },
            {
              "internalType": "address",
              "name": "buyerWalletId",
              "type": "address"
            },
            {
              "internalType": "string",
              "name": "tokenURL",
              "type": "string"
            },
            {
              "internalType": "string",
              "name": "estateName",
              "type": "string"
            },
            {
              "internalType": "string",
              "name": "plotUrl",
              "type": "string"
            },
            {
              "internalType": "string",
              "name": "dateOfAllocation",
              "type": "string"
            },
            {
              "internalType": "string",
              "name": "estateCompanyName",
              "type": "string"
            }
          ],
          "internalType": "struct ISytemapAssetRegistry.PropertyInffo",
          "name": "",
          "type": "tuple"
        }
      ],
      "stateMutability": "view",
      "type": "function"
    },
    {
      "inputs": [
        {
          "internalType": "uint256",
          "name": "_propertyVerificationNo",
          "type": "uint256"
        }
      ],
      "name": "getPropertyVerificationNoOwner",
      "outputs": [
        {
          "internalType": "address",
          "name": "",
          "type": "address"
        }
      ],
      "stateMutability": "view",
      "type": "function"
    },
    {
      "inputs": [
        {
          "internalType": "address",
          "name": "_owner",
          "type": "address"
        }
      ],
      "name": "getTotalNumberOfPropertyOwnedByAnAddress",
      "outputs": [
        {
          "internalType": "uint256",
          "name": "",
          "type": "uint256"
        }
      ],
      "stateMutability": "view",
      "type": "function"
    },
    {
      "inputs": [
        {
          "internalType": "address",
          "name": "owner",
          "type": "address"
        },
        {
          "internalType": "address",
          "name": "operator",
          "type": "address"
        }
      ],
      "name": "isApprovedForAll",
      "outputs": [
        {
          "internalType": "bool",
          "name": "",
          "type": "bool"
        }
      ],
      "stateMutability": "view",
      "type": "function"
    },
    {
      "inputs": [],
      "name": "name",
      "outputs": [
        {
          "internalType": "string",
          "name": "",
          "type": "string"
        }
      ],
      "stateMutability": "view",
      "type": "function"
    },
    {
      "inputs": [],
      "name": "owner",
      "outputs": [
        {
          "internalType": "address",
          "name": "",
          "type": "address"
        }
      ],
      "stateMutability": "view",
      "type": "function"
    },
    {
      "inputs": [
        {
          "internalType": "uint256",
          "name": "_tokenId",
          "type": "uint256"
        }
      ],
      "name": "ownerOf",
      "outputs": [
        {
          "internalType": "address",
          "name": "",
          "type": "address"
        }
      ],
      "stateMutability": "view",
      "type": "function"
    },
    {
      "inputs": [],
      "name": "renounceOwnership",
      "outputs": [],
      "stateMutability": "nonpayable",
      "type": "function"
    },
    {
      "inputs": [
        {
          "internalType": "uint256",
          "name": "_plotNo",
          "type": "uint256"
        },
        {
          "internalType": "string",
          "name": "_tokenURL",
          "type": "string"
        },
        {
          "internalType": "string",
          "name": "_estateName",
          "type": "string"
        },
        {
          "internalType": "uint256",
          "name": "_priceOfPlot",
          "type": "uint256"
        },
        {
          "internalType": "uint256",
          "name": "_sizeOfPlot",
          "type": "uint256"
        },
        {
          "internalType": "string",
          "name": "_plotUrl",
          "type": "string"
        },
        {
          "internalType": "string",
          "name": "_dateOfAllocation",
          "type": "string"
        },
        {
          "internalType": "uint256",
          "name": "_coordinateOfPlot",
          "type": "uint256"
        },
        {
          "internalType": "address",
          "name": "_buyerWalletId",
          "type": "address"
        },
        {
          "internalType": "string",
          "name": "_estateCompanyName",
          "type": "string"
        },
        {
          "internalType": "uint256",
          "name": "_propertyVerificationNo",
          "type": "uint256"
        }
      ],
      "name": "safeMintNewPropertyInfo",
      "outputs": [],
      "stateMutability": "nonpayable",
      "type": "function"
    },
    {
      "inputs": [
        {
          "internalType": "address",
          "name": "from",
          "type": "address"
        },
        {
          "internalType": "address",
          "name": "to",
          "type": "address"
        },
        {
          "internalType": "uint256",
          "name": "tokenId",
          "type": "uint256"
        }
      ],
      "name": "safeTransferFrom",
      "outputs": [],
      "stateMutability": "nonpayable",
      "type": "function"
    },
    {
      "inputs": [
        {
          "internalType": "address",
          "name": "from",
          "type": "address"
        },
        {
          "internalType": "address",
          "name": "to",
          "type": "address"
        },
        {
          "internalType": "uint256",
          "name": "tokenId",
          "type": "uint256"
        },
        {
          "internalType": "bytes",
          "name": "data",
          "type": "bytes"
        }
      ],
      "name": "safeTransferFrom",
      "outputs": [],
      "stateMutability": "nonpayable",
      "type": "function"
    },
    {
      "inputs": [
        {
          "internalType": "address",
          "name": "operator",
          "type": "address"
        },
        {
          "internalType": "bool",
          "name": "approved",
          "type": "bool"
        }
      ],
      "name": "setApprovalForAll",
      "outputs": [],
      "stateMutability": "nonpayable",
      "type": "function"
    },
    {
      "inputs": [
        {
          "internalType": "string",
          "name": "_baseTokenURI",
          "type": "string"
        }
      ],
      "name": "setBaseURI",
      "outputs": [],
      "stateMutability": "nonpayable",
      "type": "function"
    },
    {
      "inputs": [
        {
          "internalType": "bytes4",
          "name": "interfaceId",
          "type": "bytes4"
        }
      ],
      "name": "supportsInterface",
      "outputs": [
        {
          "internalType": "bool",
          "name": "",
          "type": "bool"
        }
      ],
      "stateMutability": "view",
      "type": "function"
    },
    {
      "inputs": [],
      "name": "symbol",
      "outputs": [
        {
          "internalType": "string",
          "name": "",
          "type": "string"
        }
      ],
      "stateMutability": "view",
      "type": "function"
    },
    {
      "inputs": [
        {
          "internalType": "uint256",
          "name": "index",
          "type": "uint256"
        }
      ],
      "name": "tokenByIndex",
      "outputs": [
        {
          "internalType": "uint256",
          "name": "",
          "type": "uint256"
        }
      ],
      "stateMutability": "view",
      "type": "function"
    },
    {
      "inputs": [
        {
          "internalType": "address",
          "name": "owner",
          "type": "address"
        },
        {
          "internalType": "uint256",
          "name": "index",
          "type": "uint256"
        }
      ],
      "name": "tokenOfOwnerByIndex",
      "outputs": [
        {
          "internalType": "uint256",
          "name": "",
          "type": "uint256"
        }
      ],
      "stateMutability": "view",
      "type": "function"
    },
    {
      "inputs": [
        {
          "internalType": "uint256",
          "name": "_propertyVerificationNo",
          "type": "uint256"
        }
      ],
      "name": "tokenURI",
      "outputs": [
        {
          "internalType": "string",
          "name": "",
          "type": "string"
        }
      ],
      "stateMutability": "view",
      "type": "function"
    },
    {
      "inputs": [],
      "name": "totalSupply",
      "outputs": [
        {
          "internalType": "uint256",
          "name": "",
          "type": "uint256"
        }
      ],
      "stateMutability": "view",
      "type": "function"
    },
    {
      "inputs": [
        {
          "internalType": "address",
          "name": "from",
          "type": "address"
        },
        {
          "internalType": "address",
          "name": "to",
          "type": "address"
        },
        {
          "internalType": "uint256",
          "name": "tokenId",
          "type": "uint256"
        }
      ],
      "name": "transferFrom",
      "outputs": [],
      "stateMutability": "nonpayable",
      "type": "function"
    },
    {
      "inputs": [
        {
          "internalType": "address",
          "name": "newOwner",
          "type": "address"
        }
      ],
      "name": "transferOwnership",
      "outputs": [],
      "stateMutability": "nonpayable",
      "type": "function"
    }
  ],
  "bytecode": "0x60806040523480156200001157600080fd5b5060405162003984380380620039848339810160408190526200003491620001b3565b6040518060400160405280600c81526020016b29bcba32b6b0b81021b7b4b760a11b815250604051806040016040528060048152602001635354594560e01b815250816000908162000087919062000317565b50600162000096828262000317565b505050620000b3620000ad620000ca60201b60201c565b620000ce565b6001600855620000c38162000120565b50620003e3565b3390565b600680546001600160a01b038381166001600160a01b0319831681179093556040519116919082907f8be0079c531659141344cd1fd0a4f28419497f9722a3daafe3b4186f6b6457e090600090a35050565b6200012a6200013c565b600962000138828262000317565b5050565b6006546001600160a01b031633146200019b5760405162461bcd60e51b815260206004820181905260248201527f4f776e61626c653a2063616c6c6572206973206e6f7420746865206f776e6572604482015260640160405180910390fd5b565b634e487b7160e01b600052604160045260246000fd5b60006020808385031215620001c757600080fd5b82516001600160401b0380821115620001df57600080fd5b818501915085601f830112620001f457600080fd5b8151818111156200020957620002096200019d565b604051601f8201601f19908116603f011681019083821181831017156200023457620002346200019d565b8160405282815288868487010111156200024d57600080fd5b600093505b8284101562000271578484018601518185018701529285019262000252565b600086848301015280965050505050505092915050565b600181811c908216806200029d57607f821691505b602082108103620002be57634e487b7160e01b600052602260045260246000fd5b50919050565b601f8211156200031257600081815260208120601f850160051c81016020861015620002ed5750805b601f850160051c820191505b818110156200030e57828155600101620002f9565b5050505b505050565b81516001600160401b038111156200033357620003336200019d565b6200034b8162000344845462000288565b84620002c4565b602080601f8311600181146200038357600084156200036a5750858301515b600019600386901b1c1916600185901b1785556200030e565b600085815260208120601f198616915b82811015620003b45788860151825594840194600190910190840162000393565b5085821015620003d35787850151600019600388901b60f8161c191681555b5050505050600190811b01905550565b61359180620003f36000396000f3fe608060405234801561001057600080fd5b50600436106101da5760003560e01c8063715018a611610104578063b88d4fde116100a2578063db7e792611610071578063db7e7926146103fd578063e4a9614a14610439578063e985e9c51461044c578063f2fde38b1461048857600080fd5b8063b88d4fde146103bc578063c5719298146103cf578063c62e5581146103d7578063c87b56dd146103ea57600080fd5b806390cbe759116100de57806390cbe7591461038657806393d3e7551461039957806395d89b41146103a1578063a22cb465146103a957600080fd5b8063715018a61461035a57806380b0fd0a146103625780638da5cb5b1461037557600080fd5b80632f745c591161017c57806355f804b31161014b57806355f804b3146103015780635939f777146103145780636352211e1461033457806370a082311461034757600080fd5b80632f745c59146102a55780633f35198e146102b857806342842e0e146102db5780634f6ccce7146102ee57600080fd5b8063095ea7b3116101b8578063095ea7b31461024757806318160ddd1461025c57806323b872dd14610272578063245f0ca41461028557600080fd5b806301ffc9a7146101df57806306fdde0314610207578063081812fc1461021c575b600080fd5b6101f26101ed366004612d06565b61049b565b60405190151581526020015b60405180910390f35b61020f6104ed565b6040516101fe9190612d73565b61022f61022a366004612d86565b61057f565b6040516001600160a01b0390911681526020016101fe565b61025a610255366004612dbb565b6105a6565b005b6102646106c0565b6040519081526020016101fe565b61025a610280366004612de5565b6106d1565b610298610293366004612d86565b610748565b6040516101fe9190612f07565b6102646102b3366004612dbb565b610b8a565b61020f604051806040016040528060048152602001635354594560e01b81525081565b61025a6102e9366004612de5565b610c0c565b6102646102fc366004612d86565b610c27565b61025a61030f366004612fc6565b610c8a565b610327610322366004612ffb565b610ca2565b6040516101fe9190613016565b61022f610342366004612d86565b6110fe565b610264610355366004612ffb565b611126565b61025a6111c5565b61025a610370366004613078565b6111d9565b6006546001600160a01b031661022f565b6101f2610394366004613195565b6113ab565b610327611541565b61020f61199b565b61025a6103b73660046131b7565b6119aa565b61025a6103ca3660046131f3565b6119b5565b610264611a33565b6102646103e5366004612ffb565b611a3e565b61020f6103f8366004612d86565b611a55565b61020f6040518060400160405280600c81526020017f537974656d617020436f696e000000000000000000000000000000000000000081525081565b61022f610447366004612d86565b611aeb565b6101f261045a36600461326f565b6001600160a01b03918216600090815260056020908152604080832093909416825291909152205460ff1690565b61025a610496366004612ffb565b611b0d565b60006001600160e01b031982166380ac58cd60e01b14806104cc57506001600160e01b03198216635b5e139f60e01b145b806104e757506301ffc9a760e01b6001600160e01b03198316145b92915050565b6060600080546104fc906132a2565b80601f0160208091040260200160405190810160405280929190818152602001828054610528906132a2565b80156105755780601f1061054a57610100808354040283529160200191610575565b820191906000526020600020905b81548152906001019060200180831161055857829003601f168201915b5050505050905090565b600061058a82611b9d565b506000908152600460205260409020546001600160a01b031690565b60006105b182611c01565b9050806001600160a01b0316836001600160a01b0316036106235760405162461bcd60e51b815260206004820152602160248201527f4552433732313a20617070726f76616c20746f2063757272656e74206f776e656044820152603960f91b60648201526084015b60405180910390fd5b336001600160a01b038216148061063f575061063f813361045a565b6106b15760405162461bcd60e51b815260206004820152603d60248201527f4552433732313a20617070726f76652063616c6c6572206973206e6f7420746f60448201527f6b656e206f776e6572206f7220617070726f76656420666f7220616c6c000000606482015260840161061a565b6106bb8383611c66565b505050565b60006106cc600d611cd4565b905090565b6106db3382611cdf565b61073d5760405162461bcd60e51b815260206004820152602d60248201527f4552433732313a2063616c6c6572206973206e6f7420746f6b656e206f776e6560448201526c1c881bdc88185c1c1c9bdd9959609a1b606482015260840161061a565b6106bb838383611d5d565b6107b560405180610180016040528060008152602001600081526020016000815260200160008152602001600081526020016000815260200160006001600160a01b0316815260200160608152602001606081526020016060815260200160608152602001606081525090565b6107be82611f3d565b6108305760405162461bcd60e51b815260206004820152603360248201527f4552433732313a2070766e20746f6b656e20646f6573206e6f7420657869737460448201527f206f72206e6f74206265656e206d696e74656400000000000000000000000000606482015260840161061a565b600082815260106020908152604080832054808452600b835292819020815161018081018352815481526001820154938101939093526002810154918301919091526003810154606083015260048101546080830152600581015460a083015260068101546001600160a01b031660c083015260078101805460e0840191906108b8906132a2565b80601f01602080910402602001604051908101604052809291908181526020018280546108e4906132a2565b80156109315780601f1061090657610100808354040283529160200191610931565b820191906000526020600020905b81548152906001019060200180831161091457829003601f168201915b5050505050815260200160088201805461094a906132a2565b80601f0160208091040260200160405190810160405280929190818152602001828054610976906132a2565b80156109c35780601f10610998576101008083540402835291602001916109c3565b820191906000526020600020905b8154815290600101906020018083116109a657829003601f168201915b505050505081526020016009820180546109dc906132a2565b80601f0160208091040260200160405190810160405280929190818152602001828054610a08906132a2565b8015610a555780601f10610a2a57610100808354040283529160200191610a55565b820191906000526020600020905b815481529060010190602001808311610a3857829003601f168201915b50505050508152602001600a82018054610a6e906132a2565b80601f0160208091040260200160405190810160405280929190818152602001828054610a9a906132a2565b8015610ae75780601f10610abc57610100808354040283529160200191610ae7565b820191906000526020600020905b815481529060010190602001808311610aca57829003601f168201915b50505050508152602001600b82018054610b00906132a2565b80601f0160208091040260200160405190810160405280929190818152602001828054610b2c906132a2565b8015610b795780601f10610b4e57610100808354040283529160200191610b79565b820191906000526020600020905b815481529060010190602001808311610b5c57829003601f168201915b505050505081525050915050919050565b6000610b9583611126565b8210610be35760405162461bcd60e51b815260206004820152601360248201527f496e646578206f7574206f6620626f756e647300000000000000000000000000604482015260640161061a565b6001600160a01b0383166000908152600c60205260409020610c059083611f57565b9392505050565b6106bb838383604051806020016040528060008152506119b5565b6000610c316106c0565b8210610c7f5760405162461bcd60e51b815260206004820152601f60248201527f455243373231456e756d657261626c653a20696e76616c696420696e64657800604482015260640161061a565b6104e78260016132dc565b610c92611f63565b6009610c9e828261334b565b5050565b60606000610caf83611126565b905060008167ffffffffffffffff811115610ccc57610ccc612f1a565b604051908082528060200260200182016040528015610d6a57816020015b610d5760405180610180016040528060008152602001600081526020016000815260200160008152602001600081526020016000815260200160006001600160a01b0316815260200160608152602001606081526020016060815260200160608152602001606081525090565b815260200190600190039081610cea5790505b50905060005b828110156110f6576000610d848683610b8a565b6000818152600b6020908152604091829020825161018081018452815481526001820154928101929092526002810154928201929092526003820154606082015260048201546080820152600582015460a082015260068201546001600160a01b031660c0820152600782018054939450909260e084019190610e06906132a2565b80601f0160208091040260200160405190810160405280929190818152602001828054610e32906132a2565b8015610e7f5780601f10610e5457610100808354040283529160200191610e7f565b820191906000526020600020905b815481529060010190602001808311610e6257829003601f168201915b50505050508152602001600882018054610e98906132a2565b80601f0160208091040260200160405190810160405280929190818152602001828054610ec4906132a2565b8015610f115780601f10610ee657610100808354040283529160200191610f11565b820191906000526020600020905b815481529060010190602001808311610ef457829003601f168201915b50505050508152602001600982018054610f2a906132a2565b80601f0160208091040260200160405190810160405280929190818152602001828054610f56906132a2565b8015610fa35780601f10610f7857610100808354040283529160200191610fa3565b820191906000526020600020905b815481529060010190602001808311610f8657829003601f168201915b50505050508152602001600a82018054610fbc906132a2565b80601f0160208091040260200160405190810160405280929190818152602001828054610fe8906132a2565b80156110355780601f1061100a57610100808354040283529160200191611035565b820191906000526020600020905b81548152906001019060200180831161101857829003601f168201915b50505050508152602001600b8201805461104e906132a2565b80601f016020809104026020016040519081016040528092919081815260200182805461107a906132a2565b80156110c75780601f1061109c576101008083540402835291602001916110c7565b820191906000526020600020905b8154815290600101906020018083116110aa57829003601f168201915b5050505050815250508383815181106110e2576110e261340b565b602090810291909101015250600101610d70565b509392505050565b60006104e78260405180606001604052806029815260200161355c60299139600d9190611fbd565b60006001600160a01b0382166111a45760405162461bcd60e51b815260206004820152602a60248201527f4552433732313a2062616c616e636520717565727920666f7220746865207a6560448201527f726f206164647265737300000000000000000000000000000000000000000000606482015260840161061a565b6001600160a01b0382166000908152600c602052604090206104e790611fca565b6111cd611f63565b6111d76000611fd4565b565b6111e1611f63565b6111e9612026565b6111f281611f3d565b1561123f5760405162461bcd60e51b815260206004820181905260248201527f4552433732313a2070766e20746f6b656e20616c7265616479206d696e746564604482015260640161061a565b6001600160a01b0383166112955760405162461bcd60e51b815260206004820152601760248201527f4552433732313a20696e76616c69642061646472657373000000000000000000604482015260640161061a565b306001600160a01b038416036112ed5760405162461bcd60e51b815260206004820152601760248201527f4552433732313a20696e76616c69642061646472657373000000000000000000604482015260640161061a565b6112fb600a80546001019055565b6000611306600a5490565b9050611312848361207f565b61131c828c612099565b611326848261213b565b6113308482612147565b6113468183600090815260106020526040902055565b61135a8c8c8c8c8c8c8c8c8c8c8c8c612169565b81817f30b042f6d29a39b7c10c2dfbd81016db37ea3d11e72ec5764fb0d0f7a1012a3a8d60405161138b9190612d73565b60405180910390a35061139e6001600855565b5050505050505050505050565b60006113b5611f63565b600082116114105760405162461bcd60e51b815260206004820152602260248201527f506c6f74205072696365206d7573742062652067726561746572207468616e20604482015261181760f11b606482015260840161061a565b3361145d5760405162461bcd60e51b815260206004820152601760248201527f4552433732313a20696e76616c69642061646472657373000000000000000000604482015260640161061a565b61146683611f3d565b6114d85760405162461bcd60e51b815260206004820152603360248201527f4552433732313a2070766e20746f6b656e20646f6573206e6f7420657869737460448201527f206f72206e6f74206265656e206d696e74656400000000000000000000000000606482015260840161061a565b600083815260106020908152604080832054808452600b8352928190206001018590558051338152918201869052818101859052517f598b48a1aad5d72fcedbc7ed6aac08ad920501eedca72d3dace23490f11f78129181900360600190a15060019392505050565b6060600061154e600a5490565b905060008167ffffffffffffffff81111561156b5761156b612f1a565b60405190808252806020026020018201604052801561160957816020015b6115f660405180610180016040528060008152602001600081526020016000815260200160008152602001600081526020016000815260200160006001600160a01b0316815260200160608152602001606081526020016060815260200160608152602001606081525090565b8152602001906001900390816115895790505b50905060005b8281101561199457600061162282610c27565b6000818152600b6020908152604091829020825161018081018452815481526001820154928101929092526002810154928201929092526003820154606082015260048201546080820152600582015460a082015260068201546001600160a01b031660c0820152600782018054939450909260e0840191906116a4906132a2565b80601f01602080910402602001604051908101604052809291908181526020018280546116d0906132a2565b801561171d5780601f106116f25761010080835404028352916020019161171d565b820191906000526020600020905b81548152906001019060200180831161170057829003601f168201915b50505050508152602001600882018054611736906132a2565b80601f0160208091040260200160405190810160405280929190818152602001828054611762906132a2565b80156117af5780601f10611784576101008083540402835291602001916117af565b820191906000526020600020905b81548152906001019060200180831161179257829003601f168201915b505050505081526020016009820180546117c8906132a2565b80601f01602080910402602001604051908101604052809291908181526020018280546117f4906132a2565b80156118415780601f1061181657610100808354040283529160200191611841565b820191906000526020600020905b81548152906001019060200180831161182457829003601f168201915b50505050508152602001600a8201805461185a906132a2565b80601f0160208091040260200160405190810160405280929190818152602001828054611886906132a2565b80156118d35780601f106118a8576101008083540402835291602001916118d3565b820191906000526020600020905b8154815290600101906020018083116118b657829003601f168201915b50505050508152602001600b820180546118ec906132a2565b80601f0160208091040260200160405190810160405280929190818152602001828054611918906132a2565b80156119655780601f1061193a57610100808354040283529160200191611965565b820191906000526020600020905b81548152906001019060200180831161194857829003601f168201915b5050505050815250508383815181106119805761198061340b565b60209081029190910101525060010161160f565b5092915050565b6060600180546104fc906132a2565b610c9e33838361241e565b6119bf3383611cdf565b611a215760405162461bcd60e51b815260206004820152602d60248201527f4552433732313a2063616c6c6572206973206e6f7420746f6b656e206f776e6560448201526c1c881bdc88185c1c1c9bdd9959609a1b606482015260840161061a565b611a2d848484846124ec565b50505050565b6000806104e76106c0565b600033611a4a57600080fd5b6000610c0583611126565b6000818152600260205260409020546060906001600160a01b0316611ae25760405162461bcd60e51b815260206004820152603160248201527f45524337323155524953746f726167653a2055524920717565727920666f722060448201527f6e6f6e6578697374656e7420746f6b656e000000000000000000000000000000606482015260840161061a565b6104e78261256a565b6000818152601060205260408120546000611b05826110fe565b949350505050565b611b15611f63565b6001600160a01b038116611b915760405162461bcd60e51b815260206004820152602660248201527f4f776e61626c653a206e6577206f776e657220697320746865207a65726f206160448201527f6464726573730000000000000000000000000000000000000000000000000000606482015260840161061a565b611b9a81611fd4565b50565b6000818152600260205260409020546001600160a01b0316611b9a5760405162461bcd60e51b815260206004820152601860248201527f4552433732313a20696e76616c696420746f6b656e2049440000000000000000604482015260640161061a565b6000818152600260205260408120546001600160a01b0316806104e75760405162461bcd60e51b815260206004820152601860248201527f4552433732313a20696e76616c696420746f6b656e2049440000000000000000604482015260640161061a565b600081815260046020526040902080546001600160a01b0319166001600160a01b0384169081179091558190611c9b82611c01565b6001600160a01b03167f8c5be1e5ebec7d5bd14f71427d1e84f3dd0314c0f7b2291e5b200ac8c7c3b92560405160405180910390a45050565b60006104e782612665565b600080611ceb83611c01565b9050806001600160a01b0316846001600160a01b03161480611d3257506001600160a01b0380821660009081526005602090815260408083209388168352929052205460ff165b80611b055750836001600160a01b0316611d4b8461057f565b6001600160a01b031614949350505050565b826001600160a01b0316611d7082611c01565b6001600160a01b031614611dd45760405162461bcd60e51b815260206004820152602560248201527f4552433732313a207472616e736665722066726f6d20696e636f72726563742060448201526437bbb732b960d91b606482015260840161061a565b6001600160a01b038216611e365760405162461bcd60e51b8152602060048201526024808201527f4552433732313a207472616e7366657220746f20746865207a65726f206164646044820152637265737360e01b606482015260840161061a565b826001600160a01b0316611e4982611c01565b6001600160a01b031614611ead5760405162461bcd60e51b815260206004820152602560248201527f4552433732313a207472616e736665722066726f6d20696e636f72726563742060448201526437bbb732b960d91b606482015260840161061a565b600081815260046020908152604080832080546001600160a01b03199081169091556001600160a01b0387811680865260038552838620805460001901905590871680865283862080546001019055868652600290945282852080549092168417909155905184937fddf252ad1be2c89b69c2b068fc378daa952ba7f163c4a11628f55a4df523b3ef91a4505050565b600081815260106020526040812054610c05600d82612670565b6000610c05838361267c565b6006546001600160a01b031633146111d75760405162461bcd60e51b815260206004820181905260248201527f4f776e61626c653a2063616c6c6572206973206e6f7420746865206f776e6572604482015260640161061a565b6000611b058484846126a6565b60006104e7825490565b600680546001600160a01b038381166001600160a01b0319831681179093556040519116919082907f8be0079c531659141344cd1fd0a4f28419497f9722a3daafe3b4186f6b6457e090600090a35050565b6002600854036120785760405162461bcd60e51b815260206004820152601f60248201527f5265656e7472616e637947756172643a207265656e7472616e742063616c6c00604482015260640161061a565b6002600855565b610c9e8282604051806020016040528060008152506126f2565b6000828152600260205260409020546001600160a01b03166121235760405162461bcd60e51b815260206004820152602e60248201527f45524337323155524953746f726167653a2055524920736574206f66206e6f6e60448201527f6578697374656e7420746f6b656e000000000000000000000000000000000000606482015260840161061a565b60008281526007602052604090206106bb828261334b565b6106bb600d8284612770565b6001600160a01b0382166000908152600c602052604090206106bb9082612786565b600089116121b95760405162461bcd60e51b815260206004820152601c60248201527f5072696365206d757374206265206174206c6561737420312077656900000000604482015260640161061a565b6001600160a01b03841661220f5760405162461bcd60e51b815260206004820181905260248201527f4552433732313a206d696e7420746f20746865207a65726f2061646472657373604482015260640161061a565b60008b51116122605760405162461bcd60e51b815260206004820152601360248201527f546f6b656e2075726c2069732020656d70747900000000000000000000000000604482015260640161061a565b60006040518061018001604052808e81526020018b81526020018a8152602001878152602001848152602001428152602001866001600160a01b031681526020018d81526020018c815260200189815260200188815260200185815250905080600b6000848152602001908152602001600020600082015181600001556020820151816001015560408201518160020155606082015181600301556080820151816004015560a0820151816005015560c08201518160060160006101000a8154816001600160a01b0302191690836001600160a01b0316021790555060e0820151816007019081612351919061334b565b506101008201516008820190612367908261334b565b50610120820151600982019061237d908261334b565b50610140820151600a820190612393908261334b565b50610160820151600b8201906123a9908261334b565b50506040516123ba91508d90613421565b60405180910390207f559ec41a5550336295d32c5d36cb700618ce142acec86ae0b0555fb1ae7d65998e8d8d8d8d8d8d8d8d8d8d426040516124079c9b9a9998979695949392919061343d565b60405180910390a250505050505050505050505050565b816001600160a01b0316836001600160a01b03160361247f5760405162461bcd60e51b815260206004820152601960248201527f4552433732313a20617070726f766520746f2063616c6c657200000000000000604482015260640161061a565b6001600160a01b03838116600081815260056020908152604080832094871680845294825291829020805460ff191686151590811790915591519182527f17307eab39ab6107e8899845ad3d59bd9653f200f220920489ca2b5937696c31910160405180910390a3505050565b6124f7848484611d5d565b61250384848484612792565b611a2d5760405162461bcd60e51b815260206004820152603260248201527f4552433732313a207472616e7366657220746f206e6f6e20455243373231526560448201527131b2b4bb32b91034b6b83632b6b2b73a32b960711b606482015260840161061a565b606061257582611b9d565b6000828152600760205260408120805461258e906132a2565b80601f01602080910402602001604051908101604052809291908181526020018280546125ba906132a2565b80156126075780601f106125dc57610100808354040283529160200191612607565b820191906000526020600020905b8154815290600101906020018083116125ea57829003601f168201915b5050505050905060006126186128de565b9050805160000361262a575092915050565b81511561265c5780826040516020016126449291906134dd565b60405160208183030381529060405292505050919050565b611b05846128ed565b60006104e782611fca565b6000610c058383612953565b60008260000182815481106126935761269361340b565b9060005260206000200154905092915050565b6000828152600284016020526040812054801515806126ca57506126ca8585612953565b83906126e95760405162461bcd60e51b815260040161061a9190612d73565b50949350505050565b6126fc838361295f565b6127096000848484612792565b6106bb5760405162461bcd60e51b815260206004820152603260248201527f4552433732313a207472616e7366657220746f206e6f6e20455243373231526560448201527131b2b4bb32b91034b6b83632b6b2b73a32b960711b606482015260840161061a565b6000611b0584846001600160a01b038516612aea565b6000610c058383612b07565b60006001600160a01b0384163b156128d357604051630a85bd0160e11b81526001600160a01b0385169063150b7a02906127d690339089908890889060040161350c565b6020604051808303816000875af1925050508015612811575060408051601f3d908101601f1916820190925261280e9181019061353e565b60015b6128b9573d80801561283f576040519150601f19603f3d011682016040523d82523d6000602084013e612844565b606091505b5080516000036128b15760405162461bcd60e51b815260206004820152603260248201527f4552433732313a207472616e7366657220746f206e6f6e20455243373231526560448201527131b2b4bb32b91034b6b83632b6b2b73a32b960711b606482015260840161061a565b805181602001fd5b6001600160e01b031916630a85bd0160e11b149050611b05565b506001949350505050565b6060600980546104fc906132a2565b60606128f882611b9d565b60006129026128de565b905060008151116129225760405180602001604052806000815250610c05565b8061292c84612b56565b60405160200161293d9291906134dd565b6040516020818303038152906040529392505050565b6000610c058383612bf6565b6001600160a01b0382166129b55760405162461bcd60e51b815260206004820181905260248201527f4552433732313a206d696e7420746f20746865207a65726f2061646472657373604482015260640161061a565b6000818152600260205260409020546001600160a01b031615612a1a5760405162461bcd60e51b815260206004820152601c60248201527f4552433732313a20746f6b656e20616c7265616479206d696e74656400000000604482015260640161061a565b6000818152600260205260409020546001600160a01b031615612a7f5760405162461bcd60e51b815260206004820152601c60248201527f4552433732313a20746f6b656e20616c7265616479206d696e74656400000000604482015260640161061a565b6001600160a01b038216600081815260036020908152604080832080546001019055848352600290915280822080546001600160a01b0319168417905551839291907fddf252ad1be2c89b69c2b068fc378daa952ba7f163c4a11628f55a4df523b3ef908290a45050565b60008281526002840160205260408120829055611b058484612786565b6000818152600183016020526040812054612b4e575081546001818101845560008481526020808220909301849055845484825282860190935260409020919091556104e7565b5060006104e7565b60606000612b6383612c0e565b600101905060008167ffffffffffffffff811115612b8357612b83612f1a565b6040519080825280601f01601f191660200182016040528015612bad576020820181803683370190505b5090508181016020015b600019017f3031323334353637383961626364656600000000000000000000000000000000600a86061a8153600a8504945084612bb757509392505050565b60008181526001830160205260408120541515610c05565b6000807a184f03e93ff9f4daa797ed6e38ed64bf6a1f0100000000000000008310612c57577a184f03e93ff9f4daa797ed6e38ed64bf6a1f010000000000000000830492506040015b6d04ee2d6d415b85acef81000000008310612c83576d04ee2d6d415b85acef8100000000830492506020015b662386f26fc100008310612ca157662386f26fc10000830492506010015b6305f5e1008310612cb9576305f5e100830492506008015b6127108310612ccd57612710830492506004015b60648310612cdf576064830492506002015b600a83106104e75760010192915050565b6001600160e01b031981168114611b9a57600080fd5b600060208284031215612d1857600080fd5b8135610c0581612cf0565b60005b83811015612d3e578181015183820152602001612d26565b50506000910152565b60008151808452612d5f816020860160208601612d23565b601f01601f19169290920160200192915050565b602081526000610c056020830184612d47565b600060208284031215612d9857600080fd5b5035919050565b80356001600160a01b0381168114612db657600080fd5b919050565b60008060408385031215612dce57600080fd5b612dd783612d9f565b946020939093013593505050565b600080600060608486031215612dfa57600080fd5b612e0384612d9f565b9250612e1160208501612d9f565b9150604084013590509250925092565b6000610180825184526020830151602085015260408301516040850152606083015160608501526080830151608085015260a083015160a085015260c0830151612e7660c08601826001600160a01b03169052565b5060e08301518160e0860152612e8e82860182612d47565b9150506101008084015185830382870152612ea98382612d47565b925050506101208084015185830382870152612ec58382612d47565b925050506101408084015185830382870152612ee18382612d47565b925050506101608084015185830382870152612efd8382612d47565b9695505050505050565b602081526000610c056020830184612e21565b634e487b7160e01b600052604160045260246000fd5b600067ffffffffffffffff80841115612f4b57612f4b612f1a565b604051601f8501601f19908116603f01168101908282118183101715612f7357612f73612f1a565b81604052809350858152868686011115612f8c57600080fd5b858560208301376000602087830101525050509392505050565b600082601f830112612fb757600080fd5b610c0583833560208501612f30565b600060208284031215612fd857600080fd5b813567ffffffffffffffff811115612fef57600080fd5b611b0584828501612fa6565b60006020828403121561300d57600080fd5b610c0582612d9f565b6000602080830181845280855180835260408601915060408160051b870101925083870160005b8281101561306b57603f19888603018452613059858351612e21565b9450928501929085019060010161303d565b5092979650505050505050565b60008060008060008060008060008060006101608c8e03121561309a57600080fd5b8b359a5067ffffffffffffffff8060208e013511156130b857600080fd5b6130c88e60208f01358f01612fa6565b9a508060408e013511156130db57600080fd5b6130eb8e60408f01358f01612fa6565b995060608d0135985060808d013597508060a08e0135111561310c57600080fd5b61311c8e60a08f01358f01612fa6565b96508060c08e0135111561312f57600080fd5b61313f8e60c08f01358f01612fa6565b955060e08d013594506131556101008e01612d9f565b9350806101208e0135111561316957600080fd5b5061317b8d6101208e01358e01612fa6565b91506101408c013590509295989b509295989b9093969950565b600080604083850312156131a857600080fd5b50508035926020909101359150565b600080604083850312156131ca57600080fd5b6131d383612d9f565b9150602083013580151581146131e857600080fd5b809150509250929050565b6000806000806080858703121561320957600080fd5b61321285612d9f565b935061322060208601612d9f565b925060408501359150606085013567ffffffffffffffff81111561324357600080fd5b8501601f8101871361325457600080fd5b61326387823560208401612f30565b91505092959194509250565b6000806040838503121561328257600080fd5b61328b83612d9f565b915061329960208401612d9f565b90509250929050565b600181811c908216806132b657607f821691505b6020821081036132d657634e487b7160e01b600052602260045260246000fd5b50919050565b808201808211156104e757634e487b7160e01b600052601160045260246000fd5b601f8211156106bb57600081815260208120601f850160051c810160208610156133245750805b601f850160051c820191505b8181101561334357828155600101613330565b505050505050565b815167ffffffffffffffff81111561336557613365612f1a565b6133798161337384546132a2565b846132fd565b602080601f8311600181146133ae57600084156133965750858301515b600019600386901b1c1916600185901b178555613343565b600085815260208120601f198616915b828110156133dd578886015182559484019460019091019084016133be565b50858210156133fb5787850151600019600388901b60f8161c191681555b5050505050600190811b01905550565b634e487b7160e01b600052603260045260246000fd5b60008251613433818460208701612d23565b9190910192915050565b60006101808e83528060208401526134578184018f612d47565b90508c60408401528b60608401528281036080840152613477818c612d47565b905082810360a084015261348b818b612d47565b90508860c08401526001600160a01b03881660e08401528281036101008401526134b58188612d47565b6101208401969096525050610140810192909252610160909101529998505050505050505050565b600083516134ef818460208801612d23565b835190830190613503818360208801612d23565b01949350505050565b60006001600160a01b03808716835280861660208401525083604083015260806060830152612efd6080830184612d47565b60006020828403121561355057600080fd5b8151610c0581612cf056fe4552433732313a206f776e657220717565727920666f72206e6f6e6578697374656e7420746f6b656ea164736f6c6343000810000a",
  "linkReferences": {},
  "deployedLinkReferences": {}
}