{
  "_format": "hh-sol-artifact-1",
  "contractName": "SytemapAssetRegistry",
  "sourceName": "contracts/SytemapAssetRegistryV1.sol",
  "abi": [
    {
      "anonymous": false,
      "inputs": [
        {
          "indexed": false,
          "internalType": "address",
          "name": "previousAdmin",
          "type": "address"
        },
        {
          "indexed": false,
          "internalType": "address",
          "name": "newAdmin",
          "type": "address"
        }
      ],
      "name": "AdminChanged",
      "type": "event"
    },
    {
      "anonymous": false,
      "inputs": [
        {
          "indexed": true,
          "internalType": "address",
          "name": "owner",
          "type": "address"
        },
        {
          "indexed": true,
          "internalType": "address",
          "name": "approved",
          "type": "address"
        },
        {
          "indexed": true,
          "internalType": "uint256",
          "name": "tokenId",
          "type": "uint256"
        }
      ],
      "name": "Approval",
      "type": "event"
    },
    {
      "anonymous": false,
      "inputs": [
        {
          "indexed": true,
          "internalType": "address",
          "name": "owner",
          "type": "address"
        },
        {
          "indexed": true,
          "internalType": "address",
          "name": "operator",
          "type": "address"
        },
        {
          "indexed": false,
          "internalType": "bool",
          "name": "approved",
          "type": "bool"
        }
      ],
      "name": "ApprovalForAll",
      "type": "event"
    },
    {
      "anonymous": false,
      "inputs": [
        {
          "indexed": true,
          "internalType": "string",
          "name": "oldValue",
          "type": "string"
        },
        {
          "indexed": true,
          "internalType": "string",
          "name": "newValue",
          "type": "string"
        }
      ],
      "name": "BaseURIUpdated",
      "type": "event"
    },
    {
      "anonymous": false,
      "inputs": [
        {
          "indexed": true,
          "internalType": "address",
          "name": "beacon",
          "type": "address"
        }
      ],
      "name": "BeaconUpgraded",
      "type": "event"
    },
    {
      "anonymous": false,
      "inputs": [
        {
          "indexed": false,
          "internalType": "uint8",
          "name": "version",
          "type": "uint8"
        }
      ],
      "name": "Initialized",
      "type": "event"
    },
    {
      "anonymous": false,
      "inputs": [
        {
          "indexed": false,
          "internalType": "uint256",
          "name": "plotNo",
          "type": "uint256"
        },
        {
          "indexed": true,
          "internalType": "string",
          "name": "tokenURL",
          "type": "string"
        },
        {
          "indexed": false,
          "internalType": "string",
          "name": "estateName",
          "type": "string"
        },
        {
          "indexed": false,
          "internalType": "uint256",
          "name": "priceOfPlot",
          "type": "uint256"
        },
        {
          "indexed": false,
          "internalType": "uint256",
          "name": "sizeOfPlot",
          "type": "uint256"
        },
        {
          "indexed": false,
          "internalType": "string",
          "name": "plotUrl",
          "type": "string"
        },
        {
          "indexed": false,
          "internalType": "string",
          "name": "dateOfAllocation",
          "type": "string"
        },
        {
          "indexed": false,
          "internalType": "uint256",
          "name": "coordinateOfPlot",
          "type": "uint256"
        },
        {
          "indexed": false,
          "internalType": "address",
          "name": "buyerWalletId",
          "type": "address"
        },
        {
          "indexed": false,
          "internalType": "string",
          "name": "estateCompanyName",
          "type": "string"
        },
        {
          "indexed": false,
          "internalType": "uint256",
          "name": "propertyVerificationNo",
          "type": "uint256"
        },
        {
          "indexed": false,
          "internalType": "uint256",
          "name": "tokenId",
          "type": "uint256"
        },
        {
          "indexed": false,
          "internalType": "uint256",
          "name": "timestamp",
          "type": "uint256"
        }
      ],
      "name": "NewPropertyInfoAdded",
      "type": "event"
    },
    {
      "anonymous": false,
      "inputs": [
        {
          "indexed": true,
          "internalType": "address",
          "name": "previousOwner",
          "type": "address"
        },
        {
          "indexed": true,
          "internalType": "address",
          "name": "newOwner",
          "type": "address"
        }
      ],
      "name": "OwnershipTransferred",
      "type": "event"
    },
    {
      "anonymous": false,
      "inputs": [
        {
          "indexed": false,
          "internalType": "address",
          "name": "account",
          "type": "address"
        }
      ],
      "name": "Paused",
      "type": "event"
    },
    {
      "anonymous": false,
      "inputs": [
        {
          "indexed": false,
          "internalType": "address",
          "name": "owner",
          "type": "address"
        },
        {
          "indexed": false,
          "internalType": "uint256",
          "name": "propertyVerificationNo",
          "type": "uint256"
        },
        {
          "indexed": false,
          "internalType": "uint256",
          "name": "newPrice",
          "type": "uint256"
        }
      ],
      "name": "PropertyInfoPriceChanged",
      "type": "event"
    },
    {
      "anonymous": false,
      "inputs": [
        {
          "indexed": true,
          "internalType": "uint256",
          "name": "tokenId",
          "type": "uint256"
        },
        {
          "indexed": true,
          "internalType": "uint256",
          "name": "propertyVerificationNo",
          "type": "uint256"
        },
        {
          "indexed": false,
          "internalType": "string",
          "name": "tokenURL",
          "type": "string"
        }
      ],
      "name": "TokenMinted",
      "type": "event"
    },
    {
      "anonymous": false,
      "inputs": [
        {
          "indexed": true,
          "internalType": "address",
          "name": "from",
          "type": "address"
        },
        {
          "indexed": true,
          "internalType": "address",
          "name": "to",
          "type": "address"
        },
        {
          "indexed": true,
          "internalType": "uint256",
          "name": "tokenId",
          "type": "uint256"
        }
      ],
      "name": "Transfer",
      "type": "event"
    },
    {
      "anonymous": false,
      "inputs": [
        {
          "indexed": false,
          "internalType": "address",
          "name": "account",
          "type": "address"
        }
      ],
      "name": "Unpaused",
      "type": "event"
    },
    {
      "anonymous": false,
      "inputs": [
        {
          "indexed": true,
          "internalType": "address",
          "name": "implementation",
          "type": "address"
        }
      ],
      "name": "Upgraded",
      "type": "event"
    },
    {
      "inputs": [],
      "name": "SYTEMAP_SYMBOL",
      "outputs": [
        {
          "internalType": "string",
          "name": "",
          "type": "string"
        }
      ],
      "stateMutability": "view",
      "type": "function"
    },
    {
      "inputs": [
        {
          "internalType": "address",
          "name": "to",
          "type": "address"
        },
        {
          "internalType": "uint256",
          "name": "tokenId",
          "type": "uint256"
        }
      ],
      "name": "approve",
      "outputs": [],
      "stateMutability": "nonpayable",
      "type": "function"
    },
    {
      "inputs": [
        {
          "internalType": "address",
          "name": "_owner",
          "type": "address"
        }
      ],
      "name": "balanceOf",
      "outputs": [
        {
          "internalType": "uint256",
          "name": "",
          "type": "uint256"
        }
      ],
      "stateMutability": "view",
      "type": "function"
    },
    {
      "inputs": [
        {
          "internalType": "uint256",
          "name": "tokenId",
          "type": "uint256"
        }
      ],
      "name": "burn",
      "outputs": [],
      "stateMutability": "nonpayable",
      "type": "function"
    },
    {
      "inputs": [
        {
          "internalType": "uint256",
          "name": "_propertyVerificationNo",
          "type": "uint256"
        },
        {
          "internalType": "uint256",
          "name": "_priceOfPlot",
          "type": "uint256"
        }
      ],
      "name": "changePropertyPriceByOwner",
      "outputs": [
        {
          "internalType": "bool",
          "name": "",
          "type": "bool"
        }
      ],
      "stateMutability": "nonpayable",
      "type": "function"
    },
    {
      "inputs": [],
      "name": "getAllMintedPropertyDetails",
      "outputs": [
        {
          "components": [
            {
              "internalType": "uint256",
              "name": "plotNo",
              "type": "uint256"
            },
            {
              "internalType": "uint256",
              "name": "priceOfPlot",
              "type": "uint256"
            },
            {
              "internalType": "uint256",
              "name": "sizeOfPlot",
              "type": "uint256"
            },
            {
              "internalType": "uint256",
              "name": "coordinateOfPlot",
              "type": "uint256"
            },
            {
              "internalType": "uint256",
              "name": "propertyVerificationNo",
              "type": "uint256"
            },
            {
              "internalType": "uint256",
              "name": "timestamp",
              "type": "uint256"
            },
            {
              "internalType": "address",
              "name": "buyerWalletId",
              "type": "address"
            },
            {
              "internalType": "string",
              "name": "tokenURL",
              "type": "string"
            },
            {
              "internalType": "string",
              "name": "estateName",
              "type": "string"
            },
            {
              "internalType": "string",
              "name": "plotUrl",
              "type": "string"
            },
            {
              "internalType": "string",
              "name": "dateOfAllocation",
              "type": "string"
            },
            {
              "internalType": "string",
              "name": "estateCompanyName",
              "type": "string"
            }
          ],
          "internalType": "struct ISytemapAssetRegistry.PropertyInffo[]",
          "name": "",
          "type": "tuple[]"
        }
      ],
      "stateMutability": "view",
      "type": "function"
    },
    {
      "inputs": [
        {
          "internalType": "address",
          "name": "_owner",
          "type": "address"
        }
      ],
      "name": "getAllPropertyDetailsByOwner",
      "outputs": [
        {
          "components": [
            {
              "internalType": "uint256",
              "name": "plotNo",
              "type": "uint256"
            },
            {
              "internalType": "uint256",
              "name": "priceOfPlot",
              "type": "uint256"
            },
            {
              "internalType": "uint256",
              "name": "sizeOfPlot",
              "type": "uint256"
            },
            {
              "internalType": "uint256",
              "name": "coordinateOfPlot",
              "type": "uint256"
            },
            {
              "internalType": "uint256",
              "name": "propertyVerificationNo",
              "type": "uint256"
            },
            {
              "internalType": "uint256",
              "name": "timestamp",
              "type": "uint256"
            },
            {
              "internalType": "address",
              "name": "buyerWalletId",
              "type": "address"
            },
            {
              "internalType": "string",
              "name": "tokenURL",
              "type": "string"
            },
            {
              "internalType": "string",
              "name": "estateName",
              "type": "string"
            },
            {
              "internalType": "string",
              "name": "plotUrl",
              "type": "string"
            },
            {
              "internalType": "string",
              "name": "dateOfAllocation",
              "type": "string"
            },
            {
              "internalType": "string",
              "name": "estateCompanyName",
              "type": "string"
            }
          ],
          "internalType": "struct ISytemapAssetRegistry.PropertyInffo[]",
          "name": "",
          "type": "tuple[]"
        }
      ],
      "stateMutability": "view",
      "type": "function"
    },
    {
      "inputs": [
        {
          "internalType": "uint256",
          "name": "tokenId",
          "type": "uint256"
        }
      ],
      "name": "getApproved",
      "outputs": [
        {
          "internalType": "address",
          "name": "",
          "type": "address"
        }
      ],
      "stateMutability": "view",
      "type": "function"
    },
    {
      "inputs": [],
      "name": "getNumberOfPropertyTokensMinted",
      "outputs": [
        {
          "internalType": "uint256",
          "name": "",
          "type": "uint256"
        }
      ],
      "stateMutability": "view",
      "type": "function"
    },
    {
      "inputs": [
        {
          "internalType": "uint256",
          "name": "_propertyVerificationNo",
          "type": "uint256"
        }
      ],
      "name": "getPropertyInfoDetailsByPVN",
      "outputs": [
        {
          "components": [
            {
              "internalType": "uint256",
              "name": "plotNo",
              "type": "uint256"
            },
            {
              "internalType": "uint256",
              "name": "priceOfPlot",
              "type": "uint256"
            },
            {
              "internalType": "uint256",
              "name": "sizeOfPlot",
              "type": "uint256"
            },
            {
              "internalType": "uint256",
              "name": "coordinateOfPlot",
              "type": "uint256"
            },
            {
              "internalType": "uint256",
              "name": "propertyVerificationNo",
              "type": "uint256"
            },
            {
              "internalType": "uint256",
              "name": "timestamp",
              "type": "uint256"
            },
            {
              "internalType": "address",
              "name": "buyerWalletId",
              "type": "address"
            },
            {
              "internalType": "string",
              "name": "tokenURL",
              "type": "string"
            },
            {
              "internalType": "string",
              "name": "estateName",
              "type": "string"
            },
            {
              "internalType": "string",
              "name": "plotUrl",
              "type": "string"
            },
            {
              "internalType": "string",
              "name": "dateOfAllocation",
              "type": "string"
            },
            {
              "internalType": "string",
              "name": "estateCompanyName",
              "type": "string"
            }
          ],
          "internalType": "struct ISytemapAssetRegistry.PropertyInffo",
          "name": "",
          "type": "tuple"
        }
      ],
      "stateMutability": "view",
      "type": "function"
    },
    {
      "inputs": [
        {
          "internalType": "uint256",
          "name": "_propertyVerificationNo",
          "type": "uint256"
        }
      ],
      "name": "getPropertyVerificationNoOwner",
      "outputs": [
        {
          "internalType": "address",
          "name": "",
          "type": "address"
        }
      ],
      "stateMutability": "view",
      "type": "function"
    },
    {
      "inputs": [
        {
          "internalType": "address",
          "name": "_owner",
          "type": "address"
        }
      ],
      "name": "getTotalNumberOfPropertyOwnedByAnAddress",
      "outputs": [
        {
          "internalType": "uint256",
          "name": "",
          "type": "uint256"
        }
      ],
      "stateMutability": "view",
      "type": "function"
    },
    {
      "inputs": [
        {
          "internalType": "string",
          "name": "_baseTokenURI",
          "type": "string"
        }
      ],
      "name": "initialize",
      "outputs": [],
      "stateMutability": "nonpayable",
      "type": "function"
    },
    {
      "inputs": [
        {
          "internalType": "address",
          "name": "owner",
          "type": "address"
        },
        {
          "internalType": "address",
          "name": "operator",
          "type": "address"
        }
      ],
      "name": "isApprovedForAll",
      "outputs": [
        {
          "internalType": "bool",
          "name": "",
          "type": "bool"
        }
      ],
      "stateMutability": "view",
      "type": "function"
    },
    {
      "inputs": [],
      "name": "name",
      "outputs": [
        {
          "internalType": "string",
          "name": "",
          "type": "string"
        }
      ],
      "stateMutability": "view",
      "type": "function"
    },
    {
      "inputs": [],
      "name": "owner",
      "outputs": [
        {
          "internalType": "address",
          "name": "",
          "type": "address"
        }
      ],
      "stateMutability": "view",
      "type": "function"
    },
    {
      "inputs": [
        {
          "internalType": "uint256",
          "name": "_tokenId",
          "type": "uint256"
        }
      ],
      "name": "ownerOf",
      "outputs": [
        {
          "internalType": "address",
          "name": "",
          "type": "address"
        }
      ],
      "stateMutability": "view",
      "type": "function"
    },
    {
      "inputs": [],
      "name": "pause",
      "outputs": [],
      "stateMutability": "nonpayable",
      "type": "function"
    },
    {
      "inputs": [],
      "name": "paused",
      "outputs": [
        {
          "internalType": "bool",
          "name": "",
          "type": "bool"
        }
      ],
      "stateMutability": "view",
      "type": "function"
    },
    {
      "inputs": [],
      "name": "proxiableUUID",
      "outputs": [
        {
          "internalType": "bytes32",
          "name": "",
          "type": "bytes32"
        }
      ],
      "stateMutability": "view",
      "type": "function"
    },
    {
      "inputs": [],
      "name": "renounceOwnership",
      "outputs": [],
      "stateMutability": "nonpayable",
      "type": "function"
    },
    {
      "inputs": [
        {
          "internalType": "uint256",
          "name": "_plotNo",
          "type": "uint256"
        },
        {
          "internalType": "string",
          "name": "_tokenURL",
          "type": "string"
        },
        {
          "internalType": "string",
          "name": "_estateName",
          "type": "string"
        },
        {
          "internalType": "uint256",
          "name": "_priceOfPlot",
          "type": "uint256"
        },
        {
          "internalType": "uint256",
          "name": "_sizeOfPlot",
          "type": "uint256"
        },
        {
          "internalType": "string",
          "name": "_plotUrl",
          "type": "string"
        },
        {
          "internalType": "string",
          "name": "_dateOfAllocation",
          "type": "string"
        },
        {
          "internalType": "uint256",
          "name": "_coordinateOfPlot",
          "type": "uint256"
        },
        {
          "internalType": "address",
          "name": "_buyerWalletId",
          "type": "address"
        },
        {
          "internalType": "string",
          "name": "_estateCompanyName",
          "type": "string"
        },
        {
          "internalType": "uint256",
          "name": "_propertyVerificationNo",
          "type": "uint256"
        }
      ],
      "name": "safeMintNewPropertyInfo",
      "outputs": [],
      "stateMutability": "nonpayable",
      "type": "function"
    },
    {
      "inputs": [
        {
          "internalType": "address",
          "name": "from",
          "type": "address"
        },
        {
          "internalType": "address",
          "name": "to",
          "type": "address"
        },
        {
          "internalType": "uint256",
          "name": "tokenId",
          "type": "uint256"
        }
      ],
      "name": "safeTransferFrom",
      "outputs": [],
      "stateMutability": "nonpayable",
      "type": "function"
    },
    {
      "inputs": [
        {
          "internalType": "address",
          "name": "from",
          "type": "address"
        },
        {
          "internalType": "address",
          "name": "to",
          "type": "address"
        },
        {
          "internalType": "uint256",
          "name": "tokenId",
          "type": "uint256"
        },
        {
          "internalType": "bytes",
          "name": "data",
          "type": "bytes"
        }
      ],
      "name": "safeTransferFrom",
      "outputs": [],
      "stateMutability": "nonpayable",
      "type": "function"
    },
    {
      "inputs": [
        {
          "internalType": "address",
          "name": "operator",
          "type": "address"
        },
        {
          "internalType": "bool",
          "name": "approved",
          "type": "bool"
        }
      ],
      "name": "setApprovalForAll",
      "outputs": [],
      "stateMutability": "nonpayable",
      "type": "function"
    },
    {
      "inputs": [
        {
          "internalType": "string",
          "name": "_newBaseURI",
          "type": "string"
        }
      ],
      "name": "setBaseURI",
      "outputs": [],
      "stateMutability": "nonpayable",
      "type": "function"
    },
    {
      "inputs": [
        {
          "internalType": "bytes4",
          "name": "interfaceId",
          "type": "bytes4"
        }
      ],
      "name": "supportsInterface",
      "outputs": [
        {
          "internalType": "bool",
          "name": "",
          "type": "bool"
        }
      ],
      "stateMutability": "view",
      "type": "function"
    },
    {
      "inputs": [],
      "name": "symbol",
      "outputs": [
        {
          "internalType": "string",
          "name": "",
          "type": "string"
        }
      ],
      "stateMutability": "view",
      "type": "function"
    },
    {
      "inputs": [
        {
          "internalType": "uint256",
          "name": "index",
          "type": "uint256"
        }
      ],
      "name": "tokenByIndex",
      "outputs": [
        {
          "internalType": "uint256",
          "name": "",
          "type": "uint256"
        }
      ],
      "stateMutability": "view",
      "type": "function"
    },
    {
      "inputs": [
        {
          "internalType": "address",
          "name": "_owner",
          "type": "address"
        },
        {
          "internalType": "uint256",
          "name": "index",
          "type": "uint256"
        }
      ],
      "name": "tokenOfOwnerByIndex",
      "outputs": [
        {
          "internalType": "uint256",
          "name": "",
          "type": "uint256"
        }
      ],
      "stateMutability": "view",
      "type": "function"
    },
    {
      "inputs": [
        {
          "internalType": "uint256",
          "name": "_propertyVerificationNo",
          "type": "uint256"
        }
      ],
      "name": "tokenURI",
      "outputs": [
        {
          "internalType": "string",
          "name": "",
          "type": "string"
        }
      ],
      "stateMutability": "view",
      "type": "function"
    },
    {
      "inputs": [],
      "name": "totalSupply",
      "outputs": [
        {
          "internalType": "uint256",
          "name": "",
          "type": "uint256"
        }
      ],
      "stateMutability": "view",
      "type": "function"
    },
    {
      "inputs": [
        {
          "internalType": "address",
          "name": "from",
          "type": "address"
        },
        {
          "internalType": "address",
          "name": "to",
          "type": "address"
        },
        {
          "internalType": "uint256",
          "name": "tokenId",
          "type": "uint256"
        }
      ],
      "name": "transferFrom",
      "outputs": [],
      "stateMutability": "nonpayable",
      "type": "function"
    },
    {
      "inputs": [
        {
          "internalType": "address",
          "name": "newOwner",
          "type": "address"
        }
      ],
      "name": "transferOwnership",
      "outputs": [],
      "stateMutability": "nonpayable",
      "type": "function"
    },
    {
      "inputs": [],
      "name": "unpause",
      "outputs": [],
      "stateMutability": "nonpayable",
      "type": "function"
    },
    {
      "inputs": [
        {
          "internalType": "address",
          "name": "newImplementation",
          "type": "address"
        }
      ],
      "name": "upgradeTo",
      "outputs": [],
      "stateMutability": "nonpayable",
      "type": "function"
    },
    {
      "inputs": [
        {
          "internalType": "address",
          "name": "newImplementation",
          "type": "address"
        },
        {
          "internalType": "bytes",
          "name": "data",
          "type": "bytes"
        }
      ],
      "name": "upgradeToAndCall",
      "outputs": [],
      "stateMutability": "payable",
      "type": "function"
    }
  ],
  "bytecode": "0x60a06040523060805234801561001457600080fd5b5060805161485861004c60003960008181610ed701528181610f5c015281816110ea0152818161116f01526112bc01526148586000f3fe60806040526004361061026a5760003560e01c80635c975abb1161015357806395d89b41116100cb578063c87b56dd1161007f578063e985e9c511610064578063e985e9c5146106a9578063f2fde38b146106f2578063f62d18881461071257600080fd5b8063c87b56dd14610669578063e4a9614a1461068957600080fd5b8063b88d4fde116100b0578063b88d4fde14610614578063c571929814610634578063c62e55811461064957600080fd5b806395d89b41146105df578063a22cb465146105f457600080fd5b806380b0fd0a116101225780638da5cb5b116101075780638da5cb5b1461058c57806390cbe759146105aa57806393d3e755146105ca57600080fd5b806380b0fd0a146105575780638456cb591461057757600080fd5b80635c975abb146104ea5780636352211e1461050257806370a0823114610522578063715018a61461054257600080fd5b80633f35198e116101e65780634f1ef286116101b557806352d1902d1161019a57806352d1902d1461048857806355f804b31461049d5780635939f777146104bd57600080fd5b80634f1ef286146104555780634f6ccce71461046857600080fd5b80633f35198e146103d05780633f4ba83a1461040057806342842e0e1461041557806342966c681461043557600080fd5b806318160ddd1161023d578063245f0ca411610222578063245f0ca4146103635780632f745c59146103905780633659cfe6146103b057600080fd5b806318160ddd1461032057806323b872dd1461034357600080fd5b806301ffc9a71461026f57806306fdde03146102a4578063081812fc146102c6578063095ea7b3146102fe575b600080fd5b34801561027b57600080fd5b5061028f61028a366004613ec6565b610732565b60405190151581526020015b60405180910390f35b3480156102b057600080fd5b506102b9610784565b60405161029b9190613f33565b3480156102d257600080fd5b506102e66102e1366004613f46565b610816565b6040516001600160a01b03909116815260200161029b565b34801561030a57600080fd5b5061031e610319366004613f7b565b61083d565b005b34801561032c57600080fd5b50610335610957565b60405190815260200161029b565b34801561034f57600080fd5b5061031e61035e366004613fa5565b610968565b34801561036f57600080fd5b5061038361037e366004613f46565b6109e0565b60405161029b91906140c7565b34801561039c57600080fd5b506103356103ab366004613f7b565b610e24565b3480156103bc57600080fd5b5061031e6103cb3660046140da565b610ecd565b3480156103dc57600080fd5b506102b9604051806040016040528060048152602001635354594560e01b81525081565b34801561040c57600080fd5b5061031e611048565b34801561042157600080fd5b5061031e610430366004613fa5565b61105a565b34801561044157600080fd5b5061031e610450366004613f46565b611075565b61031e610463366004614198565b6110e0565b34801561047457600080fd5b50610335610483366004613f46565b61124c565b34801561049457600080fd5b506103356112af565b3480156104a957600080fd5b5061031e6104b83660046141e6565b611374565b3480156104c957600080fd5b506104dd6104d83660046140da565b6113df565b60405161029b919061421b565b3480156104f657600080fd5b5060c95460ff1661028f565b34801561050e57600080fd5b506102e661051d366004613f46565b61183c565b34801561052e57600080fd5b5061033561053d3660046140da565b611865565b34801561054e57600080fd5b5061031e611905565b34801561056357600080fd5b5061031e61057236600461427d565b611917565b34801561058357600080fd5b5061031e611aed565b34801561059857600080fd5b5060fb546001600160a01b03166102e6565b3480156105b657600080fd5b5061028f6105c536600461439a565b611afd565b3480156105d657600080fd5b506104dd611c95565b3480156105eb57600080fd5b506102b96120f1565b34801561060057600080fd5b5061031e61060f3660046143bc565b612100565b34801561062057600080fd5b5061031e61062f3660046143f8565b61210b565b34801561064057600080fd5b50610335612189565b34801561065557600080fd5b506103356106643660046140da565b612194565b34801561067557600080fd5b506102b9610684366004613f46565b6121ab565b34801561069557600080fd5b506102e66106a4366004613f46565b612241565b3480156106b557600080fd5b5061028f6106c4366004614460565b6001600160a01b039182166000908152606a6020908152604080832093909416825291909152205460ff1690565b3480156106fe57600080fd5b5061031e61070d3660046140da565b612264565b34801561071e57600080fd5b5061031e61072d3660046141e6565b6122f1565b60006001600160e01b031982166380ac58cd60e01b148061076357506001600160e01b03198216635b5e139f60e01b145b8061077e57506301ffc9a760e01b6001600160e01b03198316145b92915050565b60606065805461079390614493565b80601f01602080910402602001604051908101604052809291908181526020018280546107bf90614493565b801561080c5780601f106107e15761010080835404028352916020019161080c565b820191906000526020600020905b8154815290600101906020018083116107ef57829003601f168201915b5050505050905090565b6000610821826124a5565b506000908152606960205260409020546001600160a01b031690565b600061084882612509565b9050806001600160a01b0316836001600160a01b0316036108ba5760405162461bcd60e51b815260206004820152602160248201527f4552433732313a20617070726f76616c20746f2063757272656e74206f776e656044820152603960f91b60648201526084015b60405180910390fd5b336001600160a01b03821614806108d657506108d681336106c4565b6109485760405162461bcd60e51b815260206004820152603d60248201527f4552433732313a20617070726f76652063616c6c6572206973206e6f7420746f60448201527f6b656e206f776e6572206f7220617070726f76656420666f7220616c6c00000060648201526084016108b1565b610952838361256e565b505050565b60006109636101f65490565b905090565b610973335b826125dc565b6109d55760405162461bcd60e51b815260206004820152602d60248201527f4552433732313a2063616c6c6572206973206e6f7420746f6b656e206f776e6560448201526c1c881bdc88185c1c1c9bdd9959609a1b60648201526084016108b1565b61095283838361265a565b610a4d60405180610180016040528060008152602001600081526020016000815260200160008152602001600081526020016000815260200160006001600160a01b0316815260200160608152602001606081526020016060815260200160608152602001606081525090565b610a568261283a565b610ac85760405162461bcd60e51b815260206004820152603360248201527f4552433732313a2070766e20746f6b656e20646f6573206e6f7420657869737460448201527f206f72206e6f74206265656e206d696e7465640000000000000000000000000060648201526084016108b1565b60008281526101fc60209081526040808320548084526101f7835292819020815161018081018352815481526001820154938101939093526002810154918301919091526003810154606083015260048101546080830152600581015460a083015260068101546001600160a01b031660c083015260078101805460e084019190610b5290614493565b80601f0160208091040260200160405190810160405280929190818152602001828054610b7e90614493565b8015610bcb5780601f10610ba057610100808354040283529160200191610bcb565b820191906000526020600020905b815481529060010190602001808311610bae57829003601f168201915b50505050508152602001600882018054610be490614493565b80601f0160208091040260200160405190810160405280929190818152602001828054610c1090614493565b8015610c5d5780601f10610c3257610100808354040283529160200191610c5d565b820191906000526020600020905b815481529060010190602001808311610c4057829003601f168201915b50505050508152602001600982018054610c7690614493565b80601f0160208091040260200160405190810160405280929190818152602001828054610ca290614493565b8015610cef5780601f10610cc457610100808354040283529160200191610cef565b820191906000526020600020905b815481529060010190602001808311610cd257829003601f168201915b50505050508152602001600a82018054610d0890614493565b80601f0160208091040260200160405190810160405280929190818152602001828054610d3490614493565b8015610d815780601f10610d5657610100808354040283529160200191610d81565b820191906000526020600020905b815481529060010190602001808311610d6457829003601f168201915b50505050508152602001600b82018054610d9a90614493565b80601f0160208091040260200160405190810160405280929190818152602001828054610dc690614493565b8015610e135780601f10610de857610100808354040283529160200191610e13565b820191906000526020600020905b815481529060010190602001808311610df657829003601f168201915b505050505081525050915050919050565b6000610e2f83611865565b8210610ea35760405162461bcd60e51b815260206004820152602b60248201527f455243373231456e756d657261626c653a206f776e657220696e646578206f7560448201527f74206f6620626f756e647300000000000000000000000000000000000000000060648201526084016108b1565b6001600160a01b03831660009081526101f860205260409020610ec69083612856565b9392505050565b6001600160a01b037f0000000000000000000000000000000000000000000000000000000000000000163003610f5a5760405162461bcd60e51b815260206004820152602c60248201527f46756e6374696f6e206d7573742062652063616c6c6564207468726f7567682060448201526b19195b1959d85d1958d85b1b60a21b60648201526084016108b1565b7f00000000000000000000000000000000000000000000000000000000000000006001600160a01b0316610fb57f360894a13ba1a3210667c828492db98dca3e2076cc3735a920a3ca505d382bbc546001600160a01b031690565b6001600160a01b0316146110205760405162461bcd60e51b815260206004820152602c60248201527f46756e6374696f6e206d7573742062652063616c6c6564207468726f7567682060448201526b6163746976652070726f787960a01b60648201526084016108b1565b61102981612862565b604080516000808252602082019092526110459183919061286a565b50565b611050612a0a565b611058612a64565b565b6109528383836040518060200160405280600081525061210b565b61107e3361096d565b6110455760405162461bcd60e51b815260206004820152602d60248201527f4552433732313a2063616c6c6572206973206e6f7420746f6b656e206f776e6560448201526c1c881bdc88185c1c1c9bdd9959609a1b60648201526084016108b1565b6001600160a01b037f000000000000000000000000000000000000000000000000000000000000000016300361116d5760405162461bcd60e51b815260206004820152602c60248201527f46756e6374696f6e206d7573742062652063616c6c6564207468726f7567682060448201526b19195b1959d85d1958d85b1b60a21b60648201526084016108b1565b7f00000000000000000000000000000000000000000000000000000000000000006001600160a01b03166111c87f360894a13ba1a3210667c828492db98dca3e2076cc3735a920a3ca505d382bbc546001600160a01b031690565b6001600160a01b0316146112335760405162461bcd60e51b815260206004820152602c60248201527f46756e6374696f6e206d7573742062652063616c6c6564207468726f7567682060448201526b6163746976652070726f787960a01b60648201526084016108b1565b61123c82612862565b6112488282600161286a565b5050565b6000611256610957565b82106112a45760405162461bcd60e51b815260206004820152601f60248201527f455243373231456e756d657261626c653a20696e76616c696420696e6465780060448201526064016108b1565b61077e8260016144cd565b6000306001600160a01b037f0000000000000000000000000000000000000000000000000000000000000000161461134f5760405162461bcd60e51b815260206004820152603860248201527f555550535570677261646561626c653a206d757374206e6f742062652063616c60448201527f6c6564207468726f7567682064656c656761746563616c6c000000000000000060648201526084016108b1565b507f360894a13ba1a3210667c828492db98dca3e2076cc3735a920a3ca505d382bbc90565b61137c612a0a565b8060405161138a91906144ee565b60405180910390206101f56040516113a2919061450a565b604051908190038120907f309b29ded109b9e28fb9885757b3e0096eb75c51d23aa4635d68bcd569f6adc190600090a36101f561124882826145ce565b606060006113ec83611865565b905060008167ffffffffffffffff811115611409576114096140f5565b6040519080825280602002602001820160405280156114a757816020015b61149460405180610180016040528060008152602001600081526020016000815260200160008152602001600081526020016000815260200160006001600160a01b0316815260200160608152602001606081526020016060815260200160608152602001606081525090565b8152602001906001900390816114275790505b50905060005b828110156118345760006114c18683610e24565b60008181526101f76020908152604091829020825161018081018452815481526001820154928101929092526002810154928201929092526003820154606082015260048201546080820152600582015460a082015260068201546001600160a01b031660c0820152600782018054939450909260e08401919061154490614493565b80601f016020809104026020016040519081016040528092919081815260200182805461157090614493565b80156115bd5780601f10611592576101008083540402835291602001916115bd565b820191906000526020600020905b8154815290600101906020018083116115a057829003601f168201915b505050505081526020016008820180546115d690614493565b80601f016020809104026020016040519081016040528092919081815260200182805461160290614493565b801561164f5780601f106116245761010080835404028352916020019161164f565b820191906000526020600020905b81548152906001019060200180831161163257829003601f168201915b5050505050815260200160098201805461166890614493565b80601f016020809104026020016040519081016040528092919081815260200182805461169490614493565b80156116e15780601f106116b6576101008083540402835291602001916116e1565b820191906000526020600020905b8154815290600101906020018083116116c457829003601f168201915b50505050508152602001600a820180546116fa90614493565b80601f016020809104026020016040519081016040528092919081815260200182805461172690614493565b80156117735780601f1061174857610100808354040283529160200191611773565b820191906000526020600020905b81548152906001019060200180831161175657829003601f168201915b50505050508152602001600b8201805461178c90614493565b80601f01602080910402602001604051908101604052809291908181526020018280546117b890614493565b80156118055780601f106117da57610100808354040283529160200191611805565b820191906000526020600020905b8154815290600101906020018083116117e857829003601f168201915b5050505050815250508383815181106118205761182061468e565b6020908102919091010152506001016114ad565b509392505050565b600061077e826040518060600160405280602981526020016147dc602991396101f99190612ab6565b60006001600160a01b0382166118e35760405162461bcd60e51b815260206004820152602a60248201527f4552433732313a2062616c616e636520717565727920666f7220746865207a6560448201527f726f20616464726573730000000000000000000000000000000000000000000060648201526084016108b1565b6001600160a01b03821660009081526101f86020526040902061077e90612ac3565b61190d612a0a565b6110586000612acd565b61191f612a0a565b611927612b1f565b6119308161283a565b1561197d5760405162461bcd60e51b815260206004820181905260248201527f4552433732313a2070766e20746f6b656e20616c7265616479206d696e74656460448201526064016108b1565b6001600160a01b0383166119d35760405162461bcd60e51b815260206004820152601760248201527f4552433732313a20696e76616c6964206164647265737300000000000000000060448201526064016108b1565b306001600160a01b03841603611a2b5760405162461bcd60e51b815260206004820152601760248201527f4552433732313a20696e76616c6964206164647265737300000000000000000060448201526064016108b1565b611a3a6101f680546001019055565b6000611a466101f65490565b9050611a528483612b7a565b611a5c828c612b94565b611a668482612c36565b611a708482612c43565b611a87818360009081526101fc6020526040902055565b611a9b8c8c8c8c8c8c8c8c8c8c8c8c612c66565b81817f30b042f6d29a39b7c10c2dfbd81016db37ea3d11e72ec5764fb0d0f7a1012a3a8d604051611acc9190613f33565b60405180910390a350611ae060016101c355565b5050505050505050505050565b611af5612a0a565b611058612f24565b6000611b07612a0a565b60008211611b625760405162461bcd60e51b815260206004820152602260248201527f506c6f74205072696365206d7573742062652067726561746572207468616e20604482015261181760f11b60648201526084016108b1565b33611baf5760405162461bcd60e51b815260206004820152601760248201527f4552433732313a20696e76616c6964206164647265737300000000000000000060448201526064016108b1565b611bb88361283a565b611c2a5760405162461bcd60e51b815260206004820152603360248201527f4552433732313a2070766e20746f6b656e20646f6573206e6f7420657869737460448201527f206f72206e6f74206265656e206d696e7465640000000000000000000000000060648201526084016108b1565b60008381526101fc60209081526040808320548084526101f78352928190206001018590558051338152918201869052818101859052517f598b48a1aad5d72fcedbc7ed6aac08ad920501eedca72d3dace23490f11f78129181900360600190a15060019392505050565b60606000611ca36101f65490565b905060008167ffffffffffffffff811115611cc057611cc06140f5565b604051908082528060200260200182016040528015611d5e57816020015b611d4b60405180610180016040528060008152602001600081526020016000815260200160008152602001600081526020016000815260200160006001600160a01b0316815260200160608152602001606081526020016060815260200160608152602001606081525090565b815260200190600190039081611cde5790505b50905060005b828110156120ea576000611d778261124c565b60008181526101f76020908152604091829020825161018081018452815481526001820154928101929092526002810154928201929092526003820154606082015260048201546080820152600582015460a082015260068201546001600160a01b031660c0820152600782018054939450909260e084019190611dfa90614493565b80601f0160208091040260200160405190810160405280929190818152602001828054611e2690614493565b8015611e735780601f10611e4857610100808354040283529160200191611e73565b820191906000526020600020905b815481529060010190602001808311611e5657829003601f168201915b50505050508152602001600882018054611e8c90614493565b80601f0160208091040260200160405190810160405280929190818152602001828054611eb890614493565b8015611f055780601f10611eda57610100808354040283529160200191611f05565b820191906000526020600020905b815481529060010190602001808311611ee857829003601f168201915b50505050508152602001600982018054611f1e90614493565b80601f0160208091040260200160405190810160405280929190818152602001828054611f4a90614493565b8015611f975780601f10611f6c57610100808354040283529160200191611f97565b820191906000526020600020905b815481529060010190602001808311611f7a57829003601f168201915b50505050508152602001600a82018054611fb090614493565b80601f0160208091040260200160405190810160405280929190818152602001828054611fdc90614493565b80156120295780601f10611ffe57610100808354040283529160200191612029565b820191906000526020600020905b81548152906001019060200180831161200c57829003601f168201915b50505050508152602001600b8201805461204290614493565b80601f016020809104026020016040519081016040528092919081815260200182805461206e90614493565b80156120bb5780601f10612090576101008083540402835291602001916120bb565b820191906000526020600020905b81548152906001019060200180831161209e57829003601f168201915b5050505050815250508383815181106120d6576120d661468e565b602090810291909101015250600101611d64565b5092915050565b60606066805461079390614493565b611248338383612f61565b61211533836125dc565b6121775760405162461bcd60e51b815260206004820152602d60248201527f4552433732313a2063616c6c6572206973206e6f7420746f6b656e206f776e6560448201526c1c881bdc88185c1c1c9bdd9959609a1b60648201526084016108b1565b6121838484848461302f565b50505050565b60008061077e610957565b6000336121a057600080fd5b6000610ec683611865565b6000818152606760205260409020546060906001600160a01b03166122385760405162461bcd60e51b815260206004820152603160248201527f45524337323155524953746f726167653a2055524920717565727920666f722060448201527f6e6f6e6578697374656e7420746f6b656e00000000000000000000000000000060648201526084016108b1565b61077e826130ad565b60008181526101fc6020526040812054600061225c8261183c565b949350505050565b61226c612a0a565b6001600160a01b0381166122e85760405162461bcd60e51b815260206004820152602660248201527f4f776e61626c653a206e6577206f776e657220697320746865207a65726f206160448201527f646472657373000000000000000000000000000000000000000000000000000060648201526084016108b1565b61104581612acd565b600054610100900460ff16158080156123115750600054600160ff909116105b8061232b5750303b15801561232b575060005460ff166001145b61239d5760405162461bcd60e51b815260206004820152602e60248201527f496e697469616c697a61626c653a20636f6e747261637420697320616c72656160448201527f647920696e697469616c697a656400000000000000000000000000000000000060648201526084016108b1565b6000805460ff1916600117905580156123c0576000805461ff0019166101001790555b61241b6040518060400160405280600c81526020017f537974656d617020436f696e0000000000000000000000000000000000000000815250604051806040016040528060048152602001635354594560e01b8152506131a8565b61242361320b565b61242b613264565b6124336132c5565b61243b61320b565b61244361320b565b61244b61320b565b612453613326565b61245c82611374565b8015611248576000805461ff0019169055604051600181527f7f26b83ff96e1f2b6a682f133852f6798a09c465da95921460cefb38474024989060200160405180910390a15050565b6000818152606760205260409020546001600160a01b03166110455760405162461bcd60e51b815260206004820152601860248201527f4552433732313a20696e76616c696420746f6b656e204944000000000000000060448201526064016108b1565b6000818152606760205260408120546001600160a01b03168061077e5760405162461bcd60e51b815260206004820152601860248201527f4552433732313a20696e76616c696420746f6b656e204944000000000000000060448201526064016108b1565b600081815260696020526040902080546001600160a01b0319166001600160a01b03841690811790915581906125a382612509565b6001600160a01b03167f8c5be1e5ebec7d5bd14f71427d1e84f3dd0314c0f7b2291e5b200ac8c7c3b92560405160405180910390a45050565b6000806125e883612509565b9050806001600160a01b0316846001600160a01b0316148061262f57506001600160a01b038082166000908152606a602090815260408083209388168352929052205460ff165b8061225c5750836001600160a01b031661264884610816565b6001600160a01b031614949350505050565b826001600160a01b031661266d82612509565b6001600160a01b0316146126d15760405162461bcd60e51b815260206004820152602560248201527f4552433732313a207472616e736665722066726f6d20696e636f72726563742060448201526437bbb732b960d91b60648201526084016108b1565b6001600160a01b0382166127335760405162461bcd60e51b8152602060048201526024808201527f4552433732313a207472616e7366657220746f20746865207a65726f206164646044820152637265737360e01b60648201526084016108b1565b826001600160a01b031661274682612509565b6001600160a01b0316146127aa5760405162461bcd60e51b815260206004820152602560248201527f4552433732313a207472616e736665722066726f6d20696e636f72726563742060448201526437bbb732b960d91b60648201526084016108b1565b600081815260696020908152604080832080546001600160a01b03199081169091556001600160a01b0387811680865260688552838620805460001901905590871680865283862080546001019055868652606790945282852080549092168417909155905184937fddf252ad1be2c89b69c2b068fc378daa952ba7f163c4a11628f55a4df523b3ef91a4505050565b60008181526101fc6020526040812054610ec66101f982613387565b6000610ec68383613393565b611045612a0a565b7f4910fdfa16fed3260ed0e7147f7cc6da11a60208b5b9406d12a635614ffd91435460ff161561289d57610952836133bd565b826001600160a01b03166352d1902d6040518163ffffffff1660e01b8152600401602060405180830381865afa9250505080156128f7575060408051601f3d908101601f191682019092526128f4918101906146a4565b60015b6129695760405162461bcd60e51b815260206004820152602e60248201527f45524331393637557067726164653a206e657720696d706c656d656e7461746960448201527f6f6e206973206e6f74205555505300000000000000000000000000000000000060648201526084016108b1565b7f360894a13ba1a3210667c828492db98dca3e2076cc3735a920a3ca505d382bbc81146129fe5760405162461bcd60e51b815260206004820152602960248201527f45524331393637557067726164653a20756e737570706f727465642070726f7860448201527f6961626c6555554944000000000000000000000000000000000000000000000060648201526084016108b1565b5061095283838361347b565b60fb546001600160a01b031633146110585760405162461bcd60e51b815260206004820181905260248201527f4f776e61626c653a2063616c6c6572206973206e6f7420746865206f776e657260448201526064016108b1565b612a6c6134a0565b60c9805460ff191690557f5db9ee0a495bf2e6ff9c91a7834c1ba4fdd244a5e8aa4e537bd38aeae4b073aa335b6040516001600160a01b03909116815260200160405180910390a1565b600061225c8484846134f2565b600061077e825490565b60fb80546001600160a01b038381166001600160a01b0319831681179093556040519116919082907f8be0079c531659141344cd1fd0a4f28419497f9722a3daafe3b4186f6b6457e090600090a35050565b60026101c35403612b725760405162461bcd60e51b815260206004820152601f60248201527f5265656e7472616e637947756172643a207265656e7472616e742063616c6c0060448201526064016108b1565b60026101c355565b61124882826040518060200160405280600081525061353e565b6000828152606760205260409020546001600160a01b0316612c1e5760405162461bcd60e51b815260206004820152602e60248201527f45524337323155524953746f726167653a2055524920736574206f66206e6f6e60448201527f6578697374656e7420746f6b656e00000000000000000000000000000000000060648201526084016108b1565b600082815260976020526040902061095282826145ce565b6109526101f982846135bc565b6001600160a01b03821660009081526101f86020526040902061095290826135d2565b60008911612cb65760405162461bcd60e51b815260206004820152601c60248201527f5072696365206d757374206265206174206c656173742031207765690000000060448201526064016108b1565b6001600160a01b038416612d0c5760405162461bcd60e51b815260206004820181905260248201527f4552433732313a206d696e7420746f20746865207a65726f206164647265737360448201526064016108b1565b60008b5111612d5d5760405162461bcd60e51b815260206004820152601360248201527f546f6b656e2075726c2069732020656d7074790000000000000000000000000060448201526064016108b1565b60006040518061018001604052808e81526020018b81526020018a8152602001878152602001848152602001428152602001866001600160a01b031681526020018d81526020018c8152602001898152602001888152602001858152509050806101f76000848152602001908152602001600020600082015181600001556020820151816001015560408201518160020155606082015181600301556080820151816004015560a0820151816005015560c08201518160060160006101000a8154816001600160a01b0302191690836001600160a01b0316021790555060e0820151816007019081612e4f91906145ce565b506101008201516008820190612e6590826145ce565b506101208201516009820190612e7b90826145ce565b50610140820151600a820190612e9190826145ce565b50610160820151600b820190612ea790826145ce565b5050604051612eb891508d906144ee565b60405180910390207f559ec41a5550336295d32c5d36cb700618ce142acec86ae0b0555fb1ae7d65998e8d8d8d8d8d8d8d8d8d8d42604051612f059c9b9a999897969594939291906146bd565b60405180910390a250505050505050505050505050565b60016101c355565b612f2c6135de565b60c9805460ff191660011790557f62e78cea01bee320cd4e420270b5ea74000d11b0c9f74754ebdbfc544b05a258612a993390565b816001600160a01b0316836001600160a01b031603612fc25760405162461bcd60e51b815260206004820152601960248201527f4552433732313a20617070726f766520746f2063616c6c65720000000000000060448201526064016108b1565b6001600160a01b038381166000818152606a6020908152604080832094871680845294825291829020805460ff191686151590811790915591519182527f17307eab39ab6107e8899845ad3d59bd9653f200f220920489ca2b5937696c31910160405180910390a3505050565b61303a84848461265a565b61304684848484613631565b6121835760405162461bcd60e51b815260206004820152603260248201527f4552433732313a207472616e7366657220746f206e6f6e20455243373231526560448201527131b2b4bb32b91034b6b83632b6b2b73a32b960711b60648201526084016108b1565b60606130b8826124a5565b600082815260976020526040812080546130d190614493565b80601f01602080910402602001604051908101604052809291908181526020018280546130fd90614493565b801561314a5780601f1061311f5761010080835404028352916020019161314a565b820191906000526020600020905b81548152906001019060200180831161312d57829003601f168201915b50505050509050600061315b61377d565b9050805160000361316d575092915050565b81511561319f57808260405160200161318792919061475d565b60405160208183030381529060405292505050919050565b61225c8461378d565b600054610100900460ff166132015760405162461bcd60e51b815260206004820152602b602482015260008051602061480583398151915260448201526a6e697469616c697a696e6760a81b60648201526084016108b1565b61124882826137f3565b600054610100900460ff166110585760405162461bcd60e51b815260206004820152602b602482015260008051602061480583398151915260448201526a6e697469616c697a696e6760a81b60648201526084016108b1565b600054610100900460ff166132bd5760405162461bcd60e51b815260206004820152602b602482015260008051602061480583398151915260448201526a6e697469616c697a696e6760a81b60648201526084016108b1565b611058613865565b600054610100900460ff1661331e5760405162461bcd60e51b815260206004820152602b602482015260008051602061480583398151915260448201526a6e697469616c697a696e6760a81b60648201526084016108b1565b6110586138ca565b600054610100900460ff1661337f5760405162461bcd60e51b815260206004820152602b602482015260008051602061480583398151915260448201526a6e697469616c697a696e6760a81b60648201526084016108b1565b61105861392c565b6000610ec68383613985565b60008260000182815481106133aa576133aa61468e565b9060005260206000200154905092915050565b6001600160a01b0381163b61343a5760405162461bcd60e51b815260206004820152602d60248201527f455243313936373a206e657720696d706c656d656e746174696f6e206973206e60448201527f6f74206120636f6e74726163740000000000000000000000000000000000000060648201526084016108b1565b7f360894a13ba1a3210667c828492db98dca3e2076cc3735a920a3ca505d382bbc80546001600160a01b0319166001600160a01b0392909216919091179055565b61348483613991565b6000825111806134915750805b156109525761218383836139d1565b60c95460ff166110585760405162461bcd60e51b815260206004820152601460248201527f5061757361626c653a206e6f742070617573656400000000000000000000000060448201526064016108b1565b60008281526002840160205260408120548015158061351657506135168585613985565b83906135355760405162461bcd60e51b81526004016108b19190613f33565b50949350505050565b6135488383613adc565b6135556000848484613631565b6109525760405162461bcd60e51b815260206004820152603260248201527f4552433732313a207472616e7366657220746f206e6f6e20455243373231526560448201527131b2b4bb32b91034b6b83632b6b2b73a32b960711b60648201526084016108b1565b600061225c84846001600160a01b038516613c67565b6000610ec68383613c84565b60c95460ff16156110585760405162461bcd60e51b815260206004820152601060248201527f5061757361626c653a207061757365640000000000000000000000000000000060448201526064016108b1565b60006001600160a01b0384163b1561377257604051630a85bd0160e11b81526001600160a01b0385169063150b7a029061367590339089908890889060040161478c565b6020604051808303816000875af19250505080156136b0575060408051601f3d908101601f191682019092526136ad918101906147be565b60015b613758573d8080156136de576040519150601f19603f3d011682016040523d82523d6000602084013e6136e3565b606091505b5080516000036137505760405162461bcd60e51b815260206004820152603260248201527f4552433732313a207472616e7366657220746f206e6f6e20455243373231526560448201527131b2b4bb32b91034b6b83632b6b2b73a32b960711b60648201526084016108b1565b805181602001fd5b6001600160e01b031916630a85bd0160e11b14905061225c565b506001949350505050565b60606101f5805461079390614493565b6060613798826124a5565b60006137a261377d565b905060008151116137c25760405180602001604052806000815250610ec6565b806137cc84613cd3565b6040516020016137dd92919061475d565b6040516020818303038152906040529392505050565b600054610100900460ff1661384c5760405162461bcd60e51b815260206004820152602b602482015260008051602061480583398151915260448201526a6e697469616c697a696e6760a81b60648201526084016108b1565b606561385883826145ce565b50606661095282826145ce565b600054610100900460ff166138be5760405162461bcd60e51b815260206004820152602b602482015260008051602061480583398151915260448201526a6e697469616c697a696e6760a81b60648201526084016108b1565b60c9805460ff19169055565b600054610100900460ff166139235760405162461bcd60e51b815260206004820152602b602482015260008051602061480583398151915260448201526a6e697469616c697a696e6760a81b60648201526084016108b1565b61105833612acd565b600054610100900460ff16612f1c5760405162461bcd60e51b815260206004820152602b602482015260008051602061480583398151915260448201526a6e697469616c697a696e6760a81b60648201526084016108b1565b6000610ec68383613d73565b61399a816133bd565b6040516001600160a01b038216907fbc7cd75a20ee27fd9adebab32041f755214dbc6bffa90cc0225b39da2e5c2d3b90600090a250565b60606001600160a01b0383163b613a505760405162461bcd60e51b815260206004820152602660248201527f416464726573733a2064656c65676174652063616c6c20746f206e6f6e2d636f60448201527f6e7472616374000000000000000000000000000000000000000000000000000060648201526084016108b1565b600080846001600160a01b031684604051613a6b91906144ee565b600060405180830381855af49150503d8060008114613aa6576040519150601f19603f3d011682016040523d82523d6000602084013e613aab565b606091505b5091509150613ad3828260405180606001604052806027815260200161482560279139613d8b565b95945050505050565b6001600160a01b038216613b325760405162461bcd60e51b815260206004820181905260248201527f4552433732313a206d696e7420746f20746865207a65726f206164647265737360448201526064016108b1565b6000818152606760205260409020546001600160a01b031615613b975760405162461bcd60e51b815260206004820152601c60248201527f4552433732313a20746f6b656e20616c7265616479206d696e7465640000000060448201526064016108b1565b6000818152606760205260409020546001600160a01b031615613bfc5760405162461bcd60e51b815260206004820152601c60248201527f4552433732313a20746f6b656e20616c7265616479206d696e7465640000000060448201526064016108b1565b6001600160a01b038216600081815260686020908152604080832080546001019055848352606790915280822080546001600160a01b0319168417905551839291907fddf252ad1be2c89b69c2b068fc378daa952ba7f163c4a11628f55a4df523b3ef908290a45050565b6000828152600284016020526040812082905561225c84846135d2565b6000818152600183016020526040812054613ccb5750815460018181018455600084815260208082209093018490558454848252828601909352604090209190915561077e565b50600061077e565b60606000613ce083613da4565b600101905060008167ffffffffffffffff811115613d0057613d006140f5565b6040519080825280601f01601f191660200182016040528015613d2a576020820181803683370190505b5090508181016020015b600019017f3031323334353637383961626364656600000000000000000000000000000000600a86061a8153600a8504945084613d3457509392505050565b60008181526001830160205260408120541515610ec6565b60608315613d9a575081610ec6565b610ec68383613e86565b6000807a184f03e93ff9f4daa797ed6e38ed64bf6a1f0100000000000000008310613ded577a184f03e93ff9f4daa797ed6e38ed64bf6a1f010000000000000000830492506040015b6d04ee2d6d415b85acef81000000008310613e19576d04ee2d6d415b85acef8100000000830492506020015b662386f26fc100008310613e3757662386f26fc10000830492506010015b6305f5e1008310613e4f576305f5e100830492506008015b6127108310613e6357612710830492506004015b60648310613e75576064830492506002015b600a831061077e5760010192915050565b815115613e965781518083602001fd5b8060405162461bcd60e51b81526004016108b19190613f33565b6001600160e01b03198116811461104557600080fd5b600060208284031215613ed857600080fd5b8135610ec681613eb0565b60005b83811015613efe578181015183820152602001613ee6565b50506000910152565b60008151808452613f1f816020860160208601613ee3565b601f01601f19169290920160200192915050565b602081526000610ec66020830184613f07565b600060208284031215613f5857600080fd5b5035919050565b80356001600160a01b0381168114613f7657600080fd5b919050565b60008060408385031215613f8e57600080fd5b613f9783613f5f565b946020939093013593505050565b600080600060608486031215613fba57600080fd5b613fc384613f5f565b9250613fd160208501613f5f565b9150604084013590509250925092565b6000610180825184526020830151602085015260408301516040850152606083015160608501526080830151608085015260a083015160a085015260c083015161403660c08601826001600160a01b03169052565b5060e08301518160e086015261404e82860182613f07565b91505061010080840151858303828701526140698382613f07565b9250505061012080840151858303828701526140858382613f07565b9250505061014080840151858303828701526140a18382613f07565b9250505061016080840151858303828701526140bd8382613f07565b9695505050505050565b602081526000610ec66020830184613fe1565b6000602082840312156140ec57600080fd5b610ec682613f5f565b634e487b7160e01b600052604160045260246000fd5b600082601f83011261411c57600080fd5b813567ffffffffffffffff80821115614137576141376140f5565b604051601f8301601f19908116603f0116810190828211818310171561415f5761415f6140f5565b8160405283815286602085880101111561417857600080fd5b836020870160208301376000602085830101528094505050505092915050565b600080604083850312156141ab57600080fd5b6141b483613f5f565b9150602083013567ffffffffffffffff8111156141d057600080fd5b6141dc8582860161410b565b9150509250929050565b6000602082840312156141f857600080fd5b813567ffffffffffffffff81111561420f57600080fd5b61225c8482850161410b565b6000602080830181845280855180835260408601915060408160051b870101925083870160005b8281101561427057603f1988860301845261425e858351613fe1565b94509285019290850190600101614242565b5092979650505050505050565b60008060008060008060008060008060006101608c8e03121561429f57600080fd5b8b359a5067ffffffffffffffff8060208e013511156142bd57600080fd5b6142cd8e60208f01358f0161410b565b9a508060408e013511156142e057600080fd5b6142f08e60408f01358f0161410b565b995060608d0135985060808d013597508060a08e0135111561431157600080fd5b6143218e60a08f01358f0161410b565b96508060c08e0135111561433457600080fd5b6143448e60c08f01358f0161410b565b955060e08d0135945061435a6101008e01613f5f565b9350806101208e0135111561436e57600080fd5b506143808d6101208e01358e0161410b565b91506101408c013590509295989b509295989b9093969950565b600080604083850312156143ad57600080fd5b50508035926020909101359150565b600080604083850312156143cf57600080fd5b6143d883613f5f565b9150602083013580151581146143ed57600080fd5b809150509250929050565b6000806000806080858703121561440e57600080fd5b61441785613f5f565b935061442560208601613f5f565b925060408501359150606085013567ffffffffffffffff81111561444857600080fd5b6144548782880161410b565b91505092959194509250565b6000806040838503121561447357600080fd5b61447c83613f5f565b915061448a60208401613f5f565b90509250929050565b600181811c908216806144a757607f821691505b6020821081036144c757634e487b7160e01b600052602260045260246000fd5b50919050565b8082018082111561077e57634e487b7160e01b600052601160045260246000fd5b60008251614500818460208701613ee3565b9190910192915050565b600080835461451881614493565b60018281168015614530576001811461454557614574565b60ff1984168752821515830287019450614574565b8760005260208060002060005b8581101561456b5781548a820152908401908201614552565b50505082870194505b50929695505050505050565b601f82111561095257600081815260208120601f850160051c810160208610156145a75750805b601f850160051c820191505b818110156145c6578281556001016145b3565b505050505050565b815167ffffffffffffffff8111156145e8576145e86140f5565b6145fc816145f68454614493565b84614580565b602080601f83116001811461463157600084156146195750858301515b600019600386901b1c1916600185901b1785556145c6565b600085815260208120601f198616915b8281101561466057888601518255948401946001909101908401614641565b508582101561467e5787850151600019600388901b60f8161c191681555b5050505050600190811b01905550565b634e487b7160e01b600052603260045260246000fd5b6000602082840312156146b657600080fd5b5051919050565b60006101808e83528060208401526146d78184018f613f07565b90508c60408401528b606084015282810360808401526146f7818c613f07565b905082810360a084015261470b818b613f07565b90508860c08401526001600160a01b03881660e08401528281036101008401526147358188613f07565b6101208401969096525050610140810192909252610160909101529998505050505050505050565b6000835161476f818460208801613ee3565b835190830190614783818360208801613ee3565b01949350505050565b60006001600160a01b038087168352808616602084015250836040830152608060608301526140bd6080830184613f07565b6000602082840312156147d057600080fd5b8151610ec681613eb056fe4552433732313a206f776e657220717565727920666f72206e6f6e6578697374656e7420746f6b656e496e697469616c697a61626c653a20636f6e7472616374206973206e6f742069416464726573733a206c6f772d6c6576656c2064656c65676174652063616c6c206661696c6564a164736f6c6343000810000a",
  "linkReferences": {},
  "deployedLinkReferences": {}
}